:100000000C9484650D9465270D943A270D940F2761
:100010000D94E4260D94B9260D948E260D94632636
:100020000D9438260D94BB270D94BB270D94BB2748
:100030000C94B5650C94B5650C94B5650C94B565D8
:100040000C94B5650C94B5650C94B5650C94B565C8
:100050000C94B5650C94B5650C94B5650D94EE25BE
:100060000C94B5650D94CD190D94A3190C94B56538
:100070000C94B5650C94B5650C94B5650C94B56598
:100080000C94B5650C94B5650C94B5650D949027EA
:100090000C94B5650C94B5650C94B5650C9478B367
:1000A0000C94B5650C94B5650C94B5650C94B56568
:1000B0000C94B5650D94FE280C94B5650C94B5654B
:1000C0000C94B5650C94B5650C94B5650C94B56548
:1000D0000C94B5650C94B5650C94B5650C94B56538
:1000E0000C94B5650D9416160C94F4980C9419FCA8
:1000F0000C94D1960C948C960C9429DA0C94BBE455
:100100000C9413AA0D94BC150D9472160D94541BE7
:100110000C9421FB0C9485980C94C4E10C94FEA9DA
:100120000C9454E30D942D1E0C9441920C943FAC0E
:100130000C94C18A0C940DEE0C947AFA0D94B815B7
:100140000D944B1F0D94C4150C9471AA0C94207F30
:100150000C9418960D94401B0C9497FC0C94B5D9F4
:100160000C94E4E40C947FDA0C948FA90C94C1E411
:100170000D948C240C94E9A80C94167F0D945B06C6
:100180000C94C0D70C946AFB0D94F7150C94D0FA1C
:100190000C9476D80D94E5150D94B2150D94A02409
:1001A0000C948FFB0D9495240C94E3920C9473FCA7
:1001B0000D9409230C94C0E00C947ED80C94A7DA1B
:1001C0000D9415160D94FB150D94DB150C941296D9
:1001D0000C94CE960D94D61A0D94361B0C94F6FB07
:1001E0000C9428AA0C94A28A0C94CBE40C94F27E72
:1001F0000C9490A90C94ADFA0C9416EE0D94DF15A6
:100200000C94D0E40C940F960C940BA90C94B9FBAD
:100210000C94DAE40C9416D80C941B7F0C9492D6B0
:100220000C94A6FA0D94281C0C94448A0C94BBFAE6
:100230000C941E960C9493A90D9418230C9403FC13
:100240000C94FBED0D945E1B0C9490FC0D944315E7
:100250000C94DED80C94C9FA0C9480D70C94257FAA
:100260000D94E51A0D94FA110C94E5980C94FFFA8C
:100270000C9456D80C9482FB0C9407AC0C949ED82A
:100280000C947F920C94E9FB0C94FD7E0D94271B3B
:100290000D949D240C94F0D60D94011B0C94CAFB74
:1002A0000C9407EE0C941B960C94CFDA0D94091D58
:1002B0000D94091B0C94DD920D94FD150C9445E0F2
:1002C0000D94CE1A0C94558A0C94EBED0D94DB1A18
:1002D0000C940CFC0D9468250C9421DB0D94F31503
:1002E0000D94E9150D94D1150D94AB160D949C1435
:1002F0000D94FC150C942ABA0C9426E20D948D14DE
:100300000D94CD150C947AD80C9482DF0C9400D8FF
:100310000D941D1B0C9426AC0D941B230D94BE1440
:100320000C948BDE0C9436D80C9412A90D942512E3
:100330000C94C2FB0D9422120D94D7150C94EE92DE
:100340000D94781E0D94EF210C94D5E40C94159621
:100350000C94B4FA0C94C8960D9415230D944A1B72
:100360000C94A4E20C9471980C9420E20C94117FEC
:100370000C94D4960D94B0140C94DA960D948A16BD
:100380000C94A3AA0C94BED80D9443520C947DFCFB
:100390000D94C0150C94DFE40D94ED150C9489FCBC
:1003A0000C94F8A80C9410D70C94C2FA0C94077F04
:1003B0000D94B31D0C946EA90D94F2150C94F5EDEB
:1003C0000C9498E20C94758A0C9457DA0D9492244C
:1003D0000D94681B0D94EF1A0D94F91A0C94A0D784
:1003E0000C94027F0D940C230C94C6E40C9455B528
:1003F0000C9492E20C94E7A80D94F6140C9482A944
:100400000D948F240D9416120C946DAC0C949EFCDC
:100410000C9483FC0C9469980C94DF960C94E0D7B0
:100420000C941FEE0C94ECE10C94D7960C94CB96A4
:100430000D94131B0C9452FB0C94AAE20C94E8A8A4
:100440000C944C920D946C410D9412230D949824AD
:100450000C94F0ED0C94EADC0C942BFB0C943FA96B
:100460000D94C7150C9401EE0D940F230D941C12DE
:100470000C94E1FB0D941F120C944EE30C943992F2
:100480000D941A210C94DF920C94F9DE0D946014F3
:100490000C9448FB0D9419120C940C7F0C949EE262
:1004A0005B272563272C272573272C272573272CCB
:1004B000272573275D007C202323232050454550AA
:1004C0002056657269666965643D004163636570C5
:1004D000742025642E2564202859455329203F0087
:1004E00043757272656E7420504545503D25642EEB
:1004F00025640054617267657420504545503D2560
:100500006420636D48324F0000446573697265640E
:10051000205045455000746F2061636869657665B9
:100520000041646A75737420504545502076616CB3
:100530007665007C202323232056657269667969DD
:100540006E6720504545503D00256420636D48325C
:100550004F000000504545502076616C7665207351
:10056000657420617400000000446973636F6E6EEF
:1005700065637465640057692D466900000044692D
:1005800073636F6E6E65637465640057692D4669A9
:1005900020616C726561647900436F6E74696E7579
:1005A00065202859455329203F00616674657220F3
:1005B0007468697320616374696F6E005468656E56
:1005C000205265636F6E6E6563742057692D4669AE
:1005D00000466972737420446973636F6E6E65635D
:1005E00074007C2023232320436F6D6D697443685E
:1005F000616E6765206F6E205354414E444259200E
:10060000656E7472790028594553206F72204E4FE1
:1006100029203F0000456E746572205354414E44BA
:100620004259204D656E753F00002A2A2A20455206
:10063000524F5220434F4445203D20004E6F7420BE
:10064000506F737369626C65004D61696E74656E9D
:10065000616E63652042726561746873007C203E40
:100660003E3E204E6F7420706F737369626C65201C
:10067000746F2068616E646C65206572726F7200C1
:100680007C203E3E3E20537769746368696E672024
:10069000746F20506D61782046616C6C6261636B91
:1006A000007C203E3E3E20537769746368696E6724
:1006B00020746F205053562046616C6C6261636BEE
:1006C000007C203E3E3E2048616E646C696E67206F
:1006D0004D6F746F72205265736574007C203E3ECE
:1006E0003E204572726F722048616E646C65723A8A
:1006F00020436F6E74696E75696E6720417320695F
:1007000073007C202A2A2A2048616E646C696E6717
:1007100020457272726F7223200025642E2564209A
:10072000286C2F6D696E2900436F6E6669726D20AB
:10073000444F4E45202859455329203F000053651A
:100740007420617400436865636B204F7879676536
:100750006E20464C6F770050533D25642054505313
:100760003D25730052523D25642049453D313A25CF
:1007700064004D6F64653D505356204D563D2564D1
:100780002E2564004D6F64653D53494D56205654E7
:100790003D2564004D6F64653D4143562056543DF0
:1007A0002564004D6F64653D434D562056543D25EC
:1007B00064004D454E55202D3E205374616E646299
:1007C00079204D656E75005041555345202D3E20D2
:1007D0005B5354414E4442595D00427265617468F6
:1007E0002044656C6976657279005374617274692E
:1007F0006E672042726561746873007C203E3E3EE5
:10080000204368616E67657320636F6D6D697474F2
:100810006564007C203E3E3E2045787472656D65BF
:1008200020504D4158206465746563746564007C94
:10083000203E3E3E2045787472656D6520504D41E6
:1008400058206163636570746564007C203E3E3EA1
:100850002045787472656D6520504545502064656B
:10086000746563746564007C203E3E3E2045787468
:1008700072656D65205045455020616363657074F5
:100880006564007C203E3E3E204C6F772050532014
:10089000636F6D626F206465746563746564007C6A
:1008A000203E3E3E2045787472656D652050532091
:1008B000636F6D626F206465746563746564007C4A
:1008C000203E3E3E204C6F7720505320636F6D6278
:1008D0006F206163636570746564007C203E3E3EFA
:1008E0002045787472656D6520505320636F6D628A
:1008F0006F206163636570746564007C203E3E3EDA
:100900002045787472656D6520564320636F6D6273
:100910006F206465746563746564007C203E3E3EB0
:100920002045787472656D6520564320636F6D6253
:100930006F206163636570746564007C20232323EA
:1009400020436F6D6D69744368616E6765206F6EDB
:10095000205354414E44425920656E747279007C94
:10096000203E3E3E2045787472656D6520504D41B5
:1009700058206465746563746564206F6E205354F9
:10098000414E44425920656E747279007C203E3E8F
:100990003E2045787472656D652050454550206451
:1009A00065746563746564206F6E205354414E44D2
:1009B000425920656E747279007C203E3E3E204C88
:1009C0006F7720505320636F6D626F20646574658C
:1009D00063746564206F6E205354414E4442592025
:1009E000656E747279007C203E3E3E2045787472BC
:1009F000656D6520505320636F6D626F2064657470
:100A00006563746564206F6E205354414E444259AF
:100A100020656E747279007C203E3E3E20457874DD
:100A200072656D6520564320636F6D626F2064654B
:100A3000746563746564206F6E205354414E444264
:100A40005920656E747279007C203E3E3E205570C0
:100A5000646174696E6720454550524F4D206F6E3A
:100A6000205354414E44425920656E7472790025DA
:100A7000646674206F722025646D00436F72726526
:100A800063742028594553206F72204E4F293F0030
:100A900000004C6F636174696F6E202620416C7496
:100AA0006974756465003E3E204661696C6564202A
:100AB00053796E63696E67205258205458206275CE
:100AC00066666572007C2023232320526563656976
:100AD000766564204D65737361676520007C202313
:100AE0002323205265636569766564204D657373C1
:100AF00061676520007C202323232052656365699C
:100B0000766564204D65737361676520007C2023E2
:100B10002323205265636569766564204D65737390
:100B200061676520007C202323232052656365696B
:100B3000766564204D65737361676520007C2023B2
:100B40002323205265636569766564204D65737360
:100B500061676520007C202323232052656365693B
:100B6000766564204D65737361676520007C203E67
:100B70003E3E204C6F636174696F6E20506F7274DB
:100B8000616C2074696D656F7574002E2E2025646C
:100B9000202E2E0052657472792028594553292041
:100BA0003F00506F7274616C2054696D656F75748D
:100BB000004C6F636174696F6E20496E666F00460A
:100BC00061696C656420746F20656E7465720043A2
:100BD0006F6E74696E7565202859455329203F0052
:100BE000004C6F636174696F6E20496E666F726D41
:100BF0006174696F6E00456E746572204D616E643C
:100C000061746F727900257379722025736B672088
:100C10002573636D00257320257300506174696529
:100C20006E743A2046656D616C6500436F72726543
:100C300063742028594553206F72204E4F293F007E
:100C4000000050617469656E743A204D616C6500F6
:100C500009457874726163746564206865696768C2
:100C6000743D000952656D61696E696E6720737429
:100C7000723D00094578747261637465642077651C
:100C8000696768743D000952656D61696E696E67D8
:100C9000207374723D0009457874726163746564F1
:100CA000206167653D000952656D61696E696E6717
:100CB000207374723D0009457874726163746564D1
:100CC0002067656E6465723D000952656D61696EED
:100CD000696E67207374723D007C202323232052A9
:100CE000656365697665642070617469656E7420FA
:100CF000737461747320007C202323232052656366
:100D00006569766564204D65737361676520007C55
:100D100020232323205265636569766564204D6531
:100D2000737361676520007C202323232052656351
:100D30006569766564204D65737361676520007C25
:100D400020232323205265636569766564204D6501
:100D5000737361676520007C202323232052656321
:100D60006569766564204D65737361676520007CF5
:100D700020232323205265636569766564204D65D1
:100D8000737361676520007C2023232320526563F1
:100D90006569766564204D65737361676520007CC5
:100DA000203E3E3E2050617469656E7420506F7223
:100DB00074616C2074696D656F7574002E2E20252A
:100DC00064202E2E005265747279202859455320D4
:100DD0006F72204E4F29203F00506F7274616C205B
:100DE00054696D656F75740050617469656E742027
:100DF000496E666F004661696C656420746F20659A
:100E00006E7465720028594553206F72204E4F2929
:100E1000203F000050617469656E7420496E666FF2
:100E2000726D6174696F6E00456E746572206E65D7
:100E300077005858585858585858585858204361AF
:100E4000757365206F66205265736574203D205070
:100E50006F7765722D6F6E205265736574005858F8
:100E60005858585858585858582043617573652039
:100E70006F66205265736574203D20576174636806
:100E8000646F6720526573657400585858585858F5
:100E90005858585858204361757365206F66205222
:100EA00065736574203D204D616E75616C205265DF
:100EB000736574007C5F5F5F5F5F5F5F5F5F5F5F55
:100EC0005F5F5F5F5F5F5F7C007C2020202020549D
:100ED000656B4D6564696B61202020207C007C205F
:100EE000202020494E53504952452D31303020208A
:100EF000207C00205F5F5F5F5F5F5F5F5F5F5F5FC2
:100F00005F5F5F5F5F5F200000506F7765722D4FFE
:100F10006E003C3C205245535441525420524541AE
:100F2000534F4E203E3E0000004D616E75616C20B7
:100F30005245534554003C3C205245535441525471
:100F400020524541534F4E203E3E000052656164A1
:100F500079202859455329203F00466F6C6C6F77E4
:100F600020496E737472756374696F6E7300004903
:100F70004E53504952452D313030005665727369D9
:100F80006F6E2025642E25642E2564007C202A2A7D
:100F90002A205261772041444320646F776E737436
:100FA0007265616D20707265737375726520646916
:100FB00066663D0043616C6C20546563686E6963CE
:100FC00069616E0000004C6F7720426F617264208F
:100FD000566F6C746167650025752E25303375205A
:100FE000566F6C7473007C2023232320537570701C
:100FF0006C7920566F6C7461676520696E206D692D
:101000006C6C69766F6C7473203D20000000537522
:1010100070706C7920566F6C746167650043686509
:10102000636B696E6720426F61726420004D696E68
:101030002025752E253033752056007C2023232350
:10104000205245545259202D205A65726F20466C0B
:101050006F772064656C746150583130203D2000FA
:101060007C20232323205245545259202D20517592
:10107000697363656E7420446F776E502028313039
:1010800058206D6D2048324F29203D20007C2023C0
:101090002323205245545259202D205175697363E2
:1010A000656E74205570502028313058206D6D20A9
:1010B00048324F29203D20007C20232323204368F1
:1010C00065636B53656E736F727320444F4E4500BA
:1010D000000042652050617469656E74202E2E2ECA
:1010E000005A45524F2043616C6962726174696FA6
:1010F0006E00436865636B2023256400204B5D0010
:101100002043205B007C202323232054656D7065E1
:10111000726174757265733A200000493243206130
:101120006464726573732030783237004C43442016
:101130006E6F7420666F756E6420617400007C2091
:1011400053656C6674657374204661696C656420D0
:101150002D206E6F204C43442061742061646472C2
:10116000657373203078323700005375636365739D
:101170007366756C6C790053656C66205465737486
:101180002052756E00007C2053656C665465737444
:10119000205375636365737366756C007C205365BB
:1011A0006C6654657374204661696C6564007C20CC
:1011B0002323232052657472696576696E67206EF9
:1011C0006F6E20766F6C6174696C6520696E666FF6
:1011D0002066726F6D20454550524F4D006E766D02
:1011E0003A204661696C6564206C6173744368657C
:1011F000636B526573756C74496E646578006E76C6
:101200006D3A204661696C6564206E756D43686552
:10121000636B526573756C7473006E766D3A20461D
:1012200061696C65642072656164696E675061759F
:101230007365006E766D3A204661696C6564206D59
:1012400061696E53657474696E6773003D3D3D3D21
:101250003D3D3D3D3D3D20454550524F4D20636F46
:101260006E74656E747320616674657220524553A6
:101270004554007C202D2D2D204E76696E666F2002
:1012800056657273696F6E203D20007C202D2D2DD8
:1012900020426F6172642056657273696F6E203DE3
:1012A00020007C202D2D2D205357204D696E6F720C
:1012B0002056657273696F6E203D20007C202D2DB5
:1012C0002D205357204D616A6F72205665727369E5
:1012D0006F6E203D20003D3D3D3D3D3D3D3D3D3D52
:1012E00020454550524F4D204845414420636F6E84
:1012F00074656E747320616674657220524553453F
:1013000054003D3D3D3D3D3D3D3D3D3D204A7573D5
:101310007420416674657220464143544F525920EF
:101320005245534554007C20232323205265747278
:10133000696576656420436F6E74656E7473206FA3
:101340006620454550524F4D007C202323232045E5
:101350004550524F4D206265666F72652066697216
:10136000737420706F776572207570007C20232362
:101370002320496E697469616C697A696E672045DA
:101380004550524F4D2064617461007C202323231B
:1013900020466F756E642076616C69642042564DFC
:1013A00020616E64204D616368696E6520637963B6
:1013B0006C652064617461007C2023232320496EC6
:1013C00076616C69642070726576696F75736C798B
:1013D00020736176656420454550524F4D2064610D
:1013E0007461004E6F746564202859455329203F6D
:1013F0000043616C6C20546563686E696369616E5B
:10140000000053797374656D205365727669636566
:101410002054696D6500256C75204379636C657394
:1014200000000053797374656D2068617320636FE9
:101430006D706C657465640053797374656D2043D9
:1014400079636C6520436F756E7400256C7520435D
:1014500079636C657300446F6E6520285945532984
:10146000203F00446973636F6E6E65637420506142
:101470007469656E740053656C66205465737400FE
:101480005374617274696E6720506F7765722D6F47
:101490006E00436F6E74696E756520285945532937
:1014A000203F00737465702D62792D737465700030
:1014B00053797374656D2077696C6C206775696406
:1014C00065003C3C20464952535420504F574552EA
:1014D0002D5550203E3E00526574727920285945A2
:1014E00053206F72204E4F29203F00004348454350
:1014F0004B204641494C4544000028594553206F34
:1015000072204E4F29203F00436F6E74696E7565DF
:101510002052656D61696E696E673F0043484543BF
:101520004B204641494C4544000052455345542008
:10153000616E6420506F7765722D446F776E000086
:1015400043616C6C20546563686E696369616E0009
:101550004641494C454420506F7765725570205480
:101560006573747300436F6E74696E7565202859D6
:10157000455329203F000050415353454420506FAC
:1015800077657255702054657374730053554343E7
:101590004553532100206D6D48324F002044657043
:1015A0006C6F796D656E743A2000206D6D48324F16
:1015B0002C002043616C6962726174696F6E3A201D
:1015C000007C20232323205072657373757265732A
:1015D0003A0053656E736972696F6E2053464D33DE
:1015E000303230007C2040404020466C6F772053E2
:1015F000656E736F72203D20007C202323232046DC
:101600006F756E642053797374656D205549443A43
:10161000007C20232323205072652D657869737424
:10162000696E672053797374656D205549443A009B
:1016300028594553206F72204E4F29203F00004407
:10164000617368626F617264207669612057692DE9
:10165000466900456E61626C652052656D6F746508
:101660002057454200446F6E652028594553292074
:101670003F00746F20427265617468696E67204331
:1016800069726375697400436F6E6E656374205090
:10169000617469656E7400436865636B732053758C
:1016A000636365737366756C007C20232323204677
:1016B0006972737420506F776572757020646F6EF5
:1016C00065202D20736176656420746F2045455038
:1016D000524F4D007C2023232320466163746F7298
:1016E0007920524553455420726571756573746550
:1016F0006400524553455420746F207265737461C1
:1017000072740000524553544F5245440046616381
:10171000746F72792053657474696E677300285909
:101720004553206F72204E4F293F004379636C650B
:10173000732064617461203F0042564D20616E64E5
:10174000204D616368696E650050726573657276DD
:101750006500000041424F525445440046616374A5
:101760006F727920524553455400436F6E74696E11
:1017700075652028594553206F72204E4F293F0030
:1017800000466163746F72792053657474696E6783
:101790007300524553455420746F0054322E350067
:1017A00054322E300054312E350054312E30004644
:1017B0003630250046353025004634302500463386
:1017C00030250046323025004631302500494E563E
:1017D000414C4944000000000000000000000000EF
:1017E0000000000000416C61726D20436F64650071
:1017F00000000000000000000000000000457863C9
:101800006565646564204D4158494D554D000000A3
:101810000000000000496E737069726174696F6E38
:10182000205072657373757265000000004C65612D
:101830006B61676520696E00000000000000000019
:101840000000000000427265617468696E672043A1
:1018500069726375697400000000000000446973D8
:10186000636F6E6E656374696F6E20696E00000051
:101870000000000000427265617468696E67204371
:1018800069726375697400000000000000507265A1
:1018900073737572652053656E736F7228732900B8
:1018A00000000000006E6F7420776F726B696E67C6
:1018B000000000000000000000000000004D656115
:1018C0007375726564205045455020646F657300E0
:1018D00000000000006E6F74206D617463682073F7
:1018E00065742076616C75650000000000507265BB
:1018F0007373757265207369676E616C0000000018
:1019000000000000006465746563746564206173A1
:101910002061626E6F726D616C0000000050415278
:10192000414D4554455220436F6E666C69637400A7
:1019300000000000005053206C65737320746861D0
:101940006E205045455000000000000000504152FC
:10195000414D4554455220436F6E666C6963740077
:101960000000000000504D4158206C6573732074D6
:1019700068616E2050454550000000000050415203
:10198000414D4554455220436F6E666C6963740047
:101990000000000000504D4158206C6573732074A6
:1019A00068616E205053000000000000005041525A
:1019B000414D4554455220436F6E666C6963740017
:1019C0000000000000545053206D6F726520746851
:1019D000616E202852522F322900000000556E619E
:1019E000626C6520746F206163686965766520505C
:1019F0005300000000696E2072657175697265643C
:101A0000205450530000000000000000004578748E
:101A100072656D6520564300000000000000000064
:101A2000000000000053657474696E677300000065
:101A30000000000000000000000000000045787475
:101A400072656D652050530000000000000000002A
:101A5000000000000053657474696E677300000035
:101A600000000000000000000000000000505320B3
:101A7000427265617468204661696C757265000028
:101A80000000000000546F6F206D616E7920537468
:101A900065707300000000000000000000436F6EDE
:101AA00073697374656E6379204572726F7200009A
:101AB000000000000043616C6C20546563686E692F
:101AC0006369616E0000000000000000004D6F744B
:101AD0006F72206E6F7420617400000000000000BF
:101AE00000000000007374617274696E6720706F8B
:101AF000736974696F6E0000000000000044657334
:101B0000697265642056542C52522C452F490000AE
:101B10000000000000436F6D626F206E6F742061E3
:101B2000636869657661626C6500000000507265EB
:101B300073737572652053656E736F7200000000D9
:101B4000000000000043616C6962726174696F6E2D
:101B5000204572726F720000000000000053656C37
:101B60006674657374204661696C656400000000EA
:101B7000000000000043616C6C20546563686E696E
:101B80006369616E00000000000000000050726593
:101B900055736520436865636B73204661696C65A6
:101BA000640000000043616C6C20546563686E69DA
:101BB0006369616E000000000000000000506C616D
:101BC00074657320746F2042564D20476170000089
:101BD000000000000052455345542D43616C6C20B9
:101BE000537570706F72740000000000004D6F74C8
:101BF0006F72204661756C740000000000000000E8
:101C00000000000000547279696E67205265636FAE
:101C100076657279202E2E2E000000000053797315
:101C200074656D204F76657268656174696E6700D2
:101C30000000000000526573746172742053797360
:101C400074656D000000000000000000005379730F
:101C500074656D20746F6F20436F6C64000000002A
:101C60000000000000526573746172742053797330
:101C700074656D00000000000000000000506C6101
:101C800074657320486F6D696E67204661696C6585
:101C90006400000000436865636B205072657373D5
:101CA00075726520747562657300000000506C6188
:101CB00074657320486F6D696E67204661696C6555
:101CC00064000000004D61736B204E4F54204F5054
:101CD000454E00000000000000000000005041528E
:101CE000414D4554455220436F6D626F0000000026
:101CF0000000000000696E76616C696400000000FD
:101D0000000000000000000000000000004D6F74A3
:101D10006F72204D616C66756E6374696F6E000042
:101D200000000000005245534554205379737465F8
:101D30006D000000000000000000000000556E6112
:101D4000626C6520746F2064656C69766572000052
:101D5000000000000073657420546964616C2056B3
:101D60006F6C756D6500000000000000005265702A
:101D70006C6163652042564D20426167000000009F
:101D80000000000000457863656564656420616C4F
:101D90006C6F7765642075736500000000556E6197
:101DA000626C6520746F206C6F6720696E000000A4
:101DB0000000000000746F20746865205749464990
:101DC000206E6574776F726B000000000057692DFC
:101DD000466920506F7274616C00000000000000C2
:101DE000000000000074696D6564206F7574000068
:101DF00000000000000000000000000000505356EA
:101E0000204D696E75746520566F6C756D650000A8
:101E1000000000000062656C6F7720285252207825
:101E200020565429000000000000000000556E619B
:101E3000626C6520746F2064656C69766572000061
:101E40000000000000736574205072657373757232
:101E50006520537570706F727400000000466169F0
:101E60006C656420746F2053796E6300000000007D
:101E7000000000000052582F5458206275666665B5
:101E80007273000000000000000000000046694F6F
:101E9000322053657474696E670000000000000012
:101EA000000000000052656A65637465640000000C
:101EB0000000000000000000000000000054656DFC
:101EC00070657261747572652053656E736F720010
:101ED00000000000004E6F7420466F756E640000B5
:101EE00000000000000000000000000000457874C1
:101EF00072656D6520504D415800000000000000E3
:101F0000000000000053657474696E677300000080
:101F10000000000000000000000000000045787490
:101F200072656D65205045455000000000000000BE
:101F3000000000000053657474696E677300000050
:101F400000000000000000000000000000504545B7
:101F50005020746F6F206C6F77000000000000004D
:101F6000000000000053657474696E677300000020
:101F70000000000000000000000000000041697245
:101F800077617920426C6F636B656400000000002C
:101F90000000000000436865636B20506174696550
:101FA0006E740000000000000000000000556E6527
:101FB0007870656374656420506C617465730000AB
:101FC0000000000000506F736974696F6E000000BC
:101FD000000000000000000000000000002E2E2085
:101FE0002564202E2E0000496E666F726D61746943
:101FF0006F6E004E6F6E2D766F6C6174696C65004C
:10200000436C656172696E670009416C74496E4D7D
:102010003A0009416C74496E46743A00094E616D8C
:10202000653A00094865696768743A000957656947
:102030006768743A00094167653A000947656E644C
:1020400065723A00094C617374204E616D653A0007
:10205000094669727374204E616D653A007C202DCB
:102060002D2D204E756D626572206F662043686568
:10207000636B657220526573756C7473203D20002C
:102080007C202D2D2D20506172616D65746572204C
:1020900053657474696E6773007C202D2D2D20505C
:1020A000617469656E7420496E666F007C202D2D09
:1020B0002D20466C6F77205761726E696E672044E1
:1020C00065637265617365203D20007C202D2D2D98
:1020D00020466C6F77205761726E696E6720496E7B
:1020E000637265617365203D20007C202D2D2D20BD
:1020F000496E737069726174696F6E205061757397
:102100006520287365637358313029203D20007C99
:10211000202D2D2D2053706F6E74616E656F757359
:10212000205472696767657220286D6D2048324FB0
:1021300029203D20007C202D2D2D2053494D562057
:1021400053796E6357696E646F7750657263656E1D
:102150007420282529203D20007C202D2D2D204273
:10216000757A7A657220566F6C756D65205761724D
:102170006E696E67203D20007C202D2D2D2042753C
:102180007A7A657220566F6C756D6520496E666F40
:10219000203D20007C202D2D2D20446973706C6122
:1021A00079204272696768746E657373203D200000
:1021B0007C202D2D2D204672657175656E6379200A
:1021C0006174207768696368204272656174682071
:1021D0005761766573206172652073656E74203D6A
:1021E00020007C202D2D2D204D617820436F6D70B7
:1021F00072657373696F6E205374657073203D2030
:10220000007C202D2D2D204C6F636174696F6E0052
:102210007C202D2D2D2052656164696E67205061F0
:10222000757365203D20007C202D2D2D204C617381
:102230007420757365642053534944203D20007C0D
:10224000202D2D2D2053797374656D205549442020
:102250003D20007C202D2D2D2056616C696420537B
:10226000534944203D20007C202D2D2D20576176A0
:102270006553656E64506572696F64536574203D83
:1022800020007C202D2D2D205761766553656E64CE
:10229000496E697469616C697A6564203D20007CCF
:1022A000202D2D2D205265747269657665645375F5
:1022B000636365737366756C6C79203D20007C20C8
:1022C0002D2D2D20496E74616C6C696E674E65779B
:1022D00042766D203D20007C202D2D2D204C6F63FB
:1022E0006174696F6E496E697469616C697A65645D
:1022F000203D20007C202D2D2D20527463496E69D5
:102300007469616C697A6564203D20007C202D2D04
:102310002D204669727374506F7765725570446FE3
:102320006E65203D20007C202D2D2D204E756D6288
:102330006572206F662042564D204379636C657349
:10234000203D20007C202D2D2D204E756D62657264
:10235000206F66204D616368696E65204379636C08
:102360006573203D20007C202D2D2D205365637248
:10237000657420436F6465203D20007C202D2D2D49
:1023800020426F6172642056657273696F6E203DE2
:1023900020007C202D2D2D205357204D696E6F720B
:1023A0002056657273696F6E203D20007C202D2DB4
:1023B0002D205357204D616A6F72205665727369E4
:1023C0006F6E203D2000436F6E74696E7565202826
:1023D00059455329203F004152524F5773206F7285
:1023E000204B4E4F42004E61766967617465204D07
:1023F000454E55207573696E67005072652D557393
:102400006520436865636B696E67007C20464149BF
:102410004C2020436865636B203C003E007C2044D8
:102420004F4E452020436865636B203C007C205361
:102430004B49502020436865636B203C0028594578
:1024400053206F72204E4F29203F004F4B20746F56
:102450002045584954004F7468657220436865638D
:102460006B7320536B6970706564004D616E6461BD
:10247000746F727920436865636B73204F4B003C27
:1024800052657475726E696E6720746F204D656E4B
:10249000753E00004E6F7420436F6D706C657465FF
:1024A00064004D616E6461746F7279204368656386
:1024B0006B73007C2023232320456E746572656452
:1024C000205072652D55736520436865636B7300FA
:1024D0004E6F746564202859455329203F00000041
:1024E00053797374656D20554944206973007C20CD
:1024F0005E5E5E205761726E696E672042757A7A01
:10250000657220566F6C756D65203D2000446F6EBE
:10251000652028594553206F72204E4F29203F00D7
:10252000666F72205741524E494E4720616C61726E
:102530006D730042757A7A657220566F6C756D65A1
:1025400000557365204B4E4F4220746F20636861C5
:102550006E6765007C205E5E5E20496E666F20427D
:10256000757A7A657220566F6C756D65203D200016
:10257000446F6E652028594553206F72204E4F29B5
:10258000203F00666F7220494E464F20616C617299
:102590006D730042757A7A657220566F6C756D6541
:1025A00000557365204B4E4F4220746F2063686165
:1025B0006E67650043616C6962726174696F6E2059
:1025C0004641494C45440043616C696272617469DB
:1025D0006F6E204F4B004F66667365742025642E26
:1025E000256420286D6D48324F2900204F666673A0
:1025F00065742028313058206D6D2048324F2920D5
:102600003D20007C20232323200020736563735822
:102610003130007C2023232320496E73706972615E
:1026200074696F6E2050617573653D0025642E25B9
:1026300064207365637300436F6E74696E75652003
:102640002859455329203F000000496E7370697274
:102650006174696F6E20506175736500446F6E65BB
:10266000202859455329203F0000557365204152C9
:10267000524F5773206F72204B4E4F420053657478
:1026800020496E73702E205061757365004163633D
:102690006570742028594553206F72204E4F2920B1
:1026A0003F000050657263656E742073657420612D
:1026B000740053494D562053796E632057696E64F8
:1026C0006F7700206D6D48324F007C20232323203C
:1026D00053706F6E74616E656F75732054726967A5
:1026E0006765723D0025642E256400436F6E746932
:1026F0006E7565202859455329203F0000547269A2
:1027000067676572207365742061740053706F6E23
:1027100074616E656F757320427265617468004400
:102720006F6E65202859455329203F000055736579
:10273000204152524F5773206F72204B4E4F420030
:102740005365742053706F6E742E205472696767DE
:10275000657200252900252920284465637265617A
:1027600073653D007C2023232320466C6F77205720
:1027700061726E696E67205468726573686F6C640D
:10278000732028496E6372656173653D007C202368
:10279000232320466C6F77205761726E696E672025
:1027A000496E74657276616C3D00436F6E74696E3C
:1027B0007565202859455329203F004F3220446534
:1027C00063726561736520416C6572747300446F58
:1027D0006E65202859455329203F00005573652018
:1027E0004152524F5773206F72204B4E4F42004F51
:1027F0003220496E63726561736520416C65727445
:1028000073004163636570742028594553206F72CB
:10281000204E4F29203F0000004F3220416C65724E
:1028200074205468726573686F6C647300446563E8
:102830007265617365202564252500496E637265A4
:10284000617365202564252500446F6E6520285935
:102850004553206F72204E4F29203F00005573656D
:10286000204152524F5773206F72204B4E4F4200FF
:102870004F3220416C65727420496E7465727661C6
:102880006C002564206D696E7300436F6E74696E11
:102890007565202859455329203F00006E65656401
:1028A00073207265706C6163696E6700436C6F635F
:1028B0006B20426174746572790030313C2D2020A8
:1028C0002573202825642920202D3E313200446FB5
:1028D0006E65202859455329203F0000004D4F4E7A
:1028E000544800313C2D2D202025732825642920B3
:1028F000202D2D3E3700446F6E6520285945532901
:10290000203F000000444159206F66205745454B49
:1029100000436F72726563742028594553206F72AB
:10292000204E4F293F00436F6E74696E75652028F5
:1029300059455329203F0000557365204B4E4F42A7
:10294000206F722055502F444F574E00536574200E
:102950004461746520616E642054696D6500416353
:10296000636570742028594553206F72204E4F299B
:10297000203F000000536574204461746520616E3F
:10298000642054696D65005B4D6F737420526563FC
:10299000656E745D005B4D6F737420526563656E88
:1029A00074202D2025645D005669657720285945DF
:1029B00053206F72204E4F29203F0000436865630B
:1029C0006B657220526573756C74730055502F449B
:1029D0004F574E20746F2073656C6563740000520E
:1029E00065636F726473206E6F7420666F756E64BA
:1029F000005072657620436865636B65722072755E
:102A00006E0000526573756C747320466F756E644A
:102A1000203D2025640053656C656374202859456A
:102A200053206F72204E4F29203F0000004E756DDD
:102A3000626572206F662050726576696F757300EB
:102A4000436F6E74696E75652028594553206F7207
:102A5000204E4F29203F004E4F202F2043414E4310
:102A6000454C20746F2065786974004152524F576D
:102A70002F4B4E4F4220746F207363726F6C6C004B
:102A80005374617475732073637265656E7300436C
:102A90006865636B65722072756E00446F6E6520A9
:102AA0002859455329203F00253032643C2D2D20E4
:102AB000202530326420202D2D3E25303264002523
:102AC0003034640028594553206F72204E4F29201E
:102AD0003F000061206E65772042564D3F005265F1
:102AE00061647920746F20696E7374616C6C002866
:102AF000594553206F72204E4F29203F0000616CD2
:102B0000726561647920696E7374616C6C65643F91
:102B1000004973207468652042564D206261670049
:102B2000526573746172742053797374656D0049D2
:102B30006E7374616C6C2042564D00506F776572F5
:102B40002D6F66662053797374656D00466F6C6CEB
:102B50006F772073746570732062656C6F770045C2
:102B600076657279202564204272656174682873E5
:102B70002900000077696C6C2062652073656E74B3
:102B8000004272656174682057617665666F726D88
:102B90007300446F6E65202859455329203F00007B
:102BA000557365204152524F5773206F72204B4E20
:102BB0004F420053656C65637420496E746572768C
:102BC000616C00436F6E74696E75652028594553BA
:102BD00029203F005072657373204B4E4F42206F87
:102BE0006E2064656D616E64006F6620427265617F
:102BF00074682057617665666F726D73004E6F2042
:102C0000506572696F64696320646973706C61797F
:102C10000028594553206F72204E4F29203F006FE6
:102C200066204272656174682057617665666F72CE
:102C30006D7300506572696F6469632064697370B5
:102C40006C61790053656C65637420496E746572BC
:102C500076616C20666F720028594553206F722090
:102C60004E4F29203F006F662042726561746820D4
:102C700057617665666F726D7300506572696F6437
:102C8000696320646973706C61790043616E636588
:102C90006C20496E74657276616C20666F720028D4
:102CA000594553206F72204E4F29203F0000616C20
:102CB0007265616479206B6E6F776E2057692D465F
:102CC00069004175746F2D636F6E6E656374207457
:102CD0006F0000496E73706972652D313030205776
:102CE000692D466900746F2057692D4669204E652D
:102CF00074776F726B00436F6E6E656374204C6106
:102D000070746F702F50686F6E6500506F737369C9
:102D1000626C652054696D656F7574000057692D8C
:102D2000466920496E666F004661696C656420746F
:102D30006F20726574726965766500094F54503D65
:102D400000090009003C3C3C3C2057692D66692085
:102D5000436F6E6E656374696F6E203E3E3E3E004B
:102D60007C20232323205265636569766564204DAA
:102D700065737361676520007C20232323205265DF
:102D8000636569766564204D6573736167652000CE
:102D90007C20232323205265636569766564204D7A
:102DA00065737361676520007C20232323205265AF
:102DB000636569766564204D65737361676520009E
:102DC0007C20232323205265636569766564204D4A
:102DD00065737361676520002E2E202564202E2EDA
:102DE000000000696E2070726F6772657373005720
:102DF000692D4669204C6F67696E004F545020283A
:102E0000594553206F72204E4F29203F007669614B
:102E1000204F6E652D54696D652D50617373776415
:102E20000044617368626F61726420636F6E6E65E7
:102E30006374696F6E004F5450206F7074696F6EC9
:102E400020616C6C6F7773004F545020697320259C
:102E5000303464004E6F746564202859455329202E
:102E60003F000000556E69717565205379734944C0
:102E700000436F6E74696E7565202859455329208B
:102E80003F000000696E2070726F67726573730097
:102E900057692D4669204C6F67696E2052657472C0
:102EA000790028594553206F72204E4F29203F004A
:102EB0000052657472792070726576696F7573203F
:102EC000535349440057692D4669204C6F67696E1A
:102ED000204661696C6564210028594553206F7252
:102EE000204E4F29203F0043726564656E7469610E
:102EF0006C730052652D656E7465722057692D469E
:102F0000690057692D4669204C6F67696E204661DC
:102F1000696C6564210028594553206F72204E4F1B
:102F200029203F00526574727900506F7274616C91
:102F30002054696D656F75740057692D4669204C82
:102F40006F67696E204661696C656421007C203E74
:102F50003E3E2057692D466920506F7274616C2087
:102F600054696D656F7574000000696E2070726F32
:102F700067726573730057692D4669204C6F6769E6
:102F80006E007C20232323204F545020666F722034
:102F900044617368626F617264206C6F67696E2050
:102FA0003D200054727920616761696E206C617404
:102FB000657200000057692D466920496E616363A0
:102FC00065737369626C6500252E323073000000F2
:102FD000436F6E6E656374656420746F0057692D6E
:102FE000466920616C72656164790041746D6F732C
:102FF000706865726963204F323D25642525002580
:10300000646674206F722025646D000000004C6FB0
:10301000636174696F6E202620416C7469747564F5
:1030200065004272656174682023256C750000009C
:1030300000494E53504952452D31303000285945F2
:1030400053206F72204E4F29203F00436F6E6669F8
:10305000726D20746F20616363657074006D6179B7
:1030600020626520746F6F2068696768005045456D
:103070005020706172616D65746572002859455306
:10308000206F72204E4F29203F00436F6E66697299
:103090006D20746F20616363657074006D617920C9
:1030A000626520746F6F206869676800504D4158F1
:1030B00020706172616D6574657200446F6E652089
:1030C00028594553206F72204E4F29203F00746FBE
:1030D000206265206C6F636B6564006E6565647368
:1030E00020506F702D4F66662076616C76650050BB
:1030F00072657373757265203E20343020636D20D5
:1031000048324F00446F6E65202859455329203FAF
:1031100000427265617468696E6720436972637505
:1031200069740066726F6D2074686500446973632A
:103130006F6E6E6563742050617469656E740025EE
:10314000642E2564206C69747265732F6D696E003E
:103150000000546172676574206973202852522000
:10316000782056542900505356204D696E75746569
:1031700020566F6C756D6500256C75205061746903
:10318000656E7400696E6974696174656420627249
:1031900065617468730000446574656374656420D8
:1031A0006275742049676E6F726564005768696C58
:1031B0006520696E20434D56206D6F646500416344
:1031C000636570742028594553206F72204E4F2933
:1031D0003F004C696D697465642056542072616EBD
:1031E0006765006F722069732064616D6167656453
:1031F0000042564D2042616720697320746F6F2032
:10320000736D616C6C00686176652063726F7373B7
:10321000656420256C7500776974682061206E658F
:1032200077206F6E6500506C656173652072657004
:103230006C6163652042564D000042564D20636F1D
:103240006D7072657373696F6E7300000042564D46
:103250002023436F6D7072657373696F6E73000026
:10326000256C75204379636C65730000496E73703B
:103270006972652D313030204C6F636174696F6EF7
:1032800000746F2057692D4669204E6574776F7200
:103290006B00436F6E6E656374204C6170746F7069
:1032A0002F50686F6E650000496E73706972652DEE
:1032B0003130302050617469656E7400746F20572E
:1032C000692D4669204E6574776F726B00436F6E8F
:1032D0006E656374204C6170746F702F50686F6EF0
:1032E000650025736B67202573636D0025732025AA
:1032F000737972002573202573005B25735D005080
:10330000617469656E7420496E666F00252E3230D7
:103310007300252E3230730000000057692D466976
:1033200020436F6E6E656374696F6E004175746FD4
:10333000205265636F766572696E670053797374A6
:10334000656D20697300004D6F746F722046617562
:103350006C7400526573756D6564204F70657261A1
:1033600074696F6E00004D6F746F72204661756CEA
:1033700074005265636F76657265642066726F6D66
:103380000052455345542074686520537973746521
:103390006D00004E6F74205265636F7665726162D6
:1033A0006C65004D6F746F72204661756C740069B6
:1033B0007320756E64657267726F756E642E00544B
:1033C0006865697220616D617A696E6720747261E7
:1033D000697400756E757375616C207472656573C0
:1033E0002E00417370656E73206172652076657280
:1033F00079006361727269656420627920616E6927
:103400006D616C732E007468652077696E64206F3F
:1034100072206172650073656564732074686174FD
:1034200020666C79206F6E005472656573206E653E
:10343000656420746F207370726561640063756CDD
:10344000747572657320616C6C206F7665722E00E6
:1034500079656172732075736564206279206D618E
:103460006E7900666F7220666976652074686F7584
:1034700073616E64004861727073206861766520C4
:10348000657869737465640068656C70732067653E
:10349000742069742075702E0069732066756E2E15
:1034A0002041206C696768742077696E64006E69DA
:1034B00063652C20666C79696E672061206B697486
:1034C00065005768656E207468652077656174686B
:1034D0006572206973007468657265206973207372
:1034E0006E6F772E00616E797768657265207768F8
:1034F000657265006F7574646F6F722070617374AC
:10350000696D6500536B69696E672069732061207E
:10351000706F70756C617200666F756E6420696E95
:10352000205275737369612E0074686F7573616ED4
:10353000642079656172732061676F2C00666F7516
:103540006E642C206461746573206569676874001B
:10355000546865206F6C6465737420736B692065B3
:1035600076657200416E746172637469636120698B
:1035700063652073686565740069732066726F7A8D
:10358000656E20696E2074686500667265736820D8
:103590007761746572206F6E204561727468004EA9
:1035A000696E6574792070657263656E74206F66EC
:1035B000007C20232323204661696C6564204D6FC5
:1035C000746F72205245534554000000456E676188
:1035D00067696E67205368616674005475726E691E
:1035E0006E67204D6F746F72204F4E007C20232336
:1035F000232044697361626C696E6720616E642088
:10360000456E61626C696E67206D6F746F72000049
:1036100000446973656E676167696E67205368610E
:103620006674005475726E696E67204D6F746F72A8
:10363000204F4646002E2E202564202E2E007C2072
:1036400023232320507265737375726520666F752E
:103650006E64206174205374657073203D20007C7B
:1036600020232323204661696C656420746F2066E3
:10367000696E64207072657373757265206166741B
:1036800065722073746570733D007C2023232320B2
:10369000436F6D7072657373696E6720746F206617
:1036A000696E6420707265737375726520647572DB
:1036B000696E672062656C7420666978206F70653A
:1036C000726174696F6E0000776F756E6420636F4E
:1036D00072726563746C7900746865206D6F746FC5
:1036E000722062656C7420697300456E737572692F
:1036F0006E6720746861740028594553206F7220EA
:103700004E4F29203F00004379636C6520436F755D
:103710006E743F00496E697469616C697A65204214
:10372000564D004E6F746564202859455329203F3B
:103730000052657472792053656E736F7273204303
:103740006865636B00000050726576204D4158201B
:1037500053746570733D25750042564D204D415898
:103760002053746570733D25750028594553206FAB
:1037700072204E4F29203F0000496E7374616C6CBB
:1037800065643F005761732061206E657720425663
:103790004D007C20232323204D617820436F6D70E2
:1037A00072657373696F6E205374657073206672EF
:1037B0006F6D20546F75636820706F736974696FE3
:1037C0006E203D20007C2023232320424144204DB5
:1037D000656469616E204175746F20546F7563680C
:1037E000205374657073203D20007C202323232008
:1037F0004D656469616E20537465707320446F6E0B
:1038000065203D200029203D20007C20232323200B
:103810004175746F20546F756368205374657073BD
:103820002028697465726174696F6E20007C2023A2
:103830002323204661696C656420746F2066696E7D
:103840006420707265737375726520616674657249
:103850002073746570733D0020204175746F546F40
:1038600075636820506D6D5831303D007C202323F6
:103870002320496E697469616C20506D6D58313038
:103880003D000000496E2050726F677265737300CF
:1038900042564D204175746F2D746F7563680043F7
:1038A0006865636B20232564005354455053203DC5
:1038B000202564000042564D20426167006A7573FE
:1038C0007420746F75636820746865004D6F766945
:1038D0006E6720506C6174657320746F002B2B2B06
:1038E0002B2B2B2B2B2B2B2B2B2B2B2B2B2B2B2B28
:1038F0002B2B2B20507265436F6D70726573732094
:103900002B2B2B2B2B2B2B2B2B2B2B2B2B2B007CE1
:10391000202A2A2A204D6F7665546F507265636F96
:103920006D70726573736564506F736974696F6EDF
:1039300046726F6D5265736574506F736974696F09
:103940006E203A204E6F7420696E205245534554C4
:1039500020706F736974696F6E002064656720431F
:1039600000212121212121212020434F4C442043AB
:103970004F4C4420434F4C44202E2E2E20002064D8
:103980006567204300212121212121212020484F4A
:103990005420484F5420484F54202E2E2E20007C77
:1039A000203E3E3E204D65617375726564205379FB
:1039B0007374656D2054656D7065726174757265A0
:1039C00020286465672043656C7369757329203D01
:1039D00020007C20007C20007C2053656C66746590
:1039E0007374204661696C65642050696E206E7541
:1039F0006D6265722000554E4B4E4F574E002C2085
:103A000044796E616D6963203D2000554E4B4E4FE9
:103A1000574E007C203E3E3E204C756E6720436F23
:103A20006D706C2E20286D6C2F636D2048324F29ED
:103A300020537461746963203D20006C65737320AA
:103A40007468616E20425620737465707300436120
:103A50006C696272617465642053746570730042AE
:103A600061642043616C6962726174696F6E0053B6
:103A7000797374656D204572726F72007C202A2AFA
:103A80002A2042616420696E697469616C207374D4
:103A9000657073202D2063616E6E6F7420626520E7
:103AA0006C657373207468616E2042562063616C8C
:103AB0006962726174696F6E00000000308C0F548F
:103AC00030EA1075308A169730E619BC30D61FECF4
:103AD00030C2241731102C54310E3386318E350507
:103AE000325E3DDC336446ED336446ED336446EDCF
:103AF000336446ED336446ED336446ED336446ED9E
:103B0000336446ED336446ED3300000030240E4F3D
:103B10003016127330E5159430451AB930C71FE9D5
:103B2000305D2514310B2C4C31A0328231EA33DE6A
:103B3000313138EF320C3F1C335A41B633E849C7B4
:103B400033E849C733E849C733E849C733E849C7C9
:103B500033E849C733E849C73300000030BC0C4B99
:103B6000304213713040159130A41AB630B81FE6B8
:103B700030F8251231062C443132327F314632B7CB
:103B80003104330332B4374C32503C80336C4DA295
:103B9000336C4DA2336C4DA2336C4DA2336C4DA2ED
:103BA000336C4DA2336C4DA23300000030440C4BFB
:103BB00030DF116E3090159330D11AB7300820E6FF
:103BC000302F261331FC2B4A31F532833159336EB5
:103BD00032A235B832DB3DF33229408D33B7489EEF
:103BE00033B7489E33B7489E33B7489E33B7489E95
:103BF00033B7489E33B7489E3300000030CC0B4BA0
:103C0000307C106B30E0159630FE1AB9305820E742
:103C10003066261431F22B5131B83388316C34269A
:103C20003340386D3302449A3302449A3302449A43
:103C30003302449A3302449A3302449A3302449A38
:103C40003302449A3302449A3300000030BD0B48DB
:103C5000308B1068305E1592308B1AB9308B1FE7AD
:103C6000301C251631892B4D3132328331EA339A9B
:103C7000323836D9323C41503368427833C44A7EB8
:103C800033C44A7E33C44A7E33C44A7E33C44A7E38
:103C900033C44A7E33C44A7E3300000030AE0B4545
:103CA000309A106530DC148E30181AB930BE1EE719
:103CB00030D2231931202B4931AC307E3168330F9B
:103CC0003230344532763E0733CE40563386516328
:103CD0003386516333865163338651633386516330
:103CE00033865163338651633300000030540B43F5
:103CF00030221063301E148A309119B830741DDFE1
:103D00003033220F3196283A31CD2D6C312733CB09
:103D100031C93615320744A832F14A123393582F6D
:103D200033965A3433965A3433965A3433965A3437
:103D300033965A3433965A343300000030FA0A422C
:103D400030AA0F6130601386300A19B8302A1CD8A7
:103D500030942005310C262B31EE2A5A31E6328878
:103D6000316239E531984949321455CE32A05FFBB2
:103D700032A6630633A6630633A6630633A663063C
:103D800033A6630633A6630633000000303C0A40C6
:103D900030A60E5830B11277305C17A030671BBACE
:103DA000305A1EDD301324FE30A82A2D31A1315A9D
:103DB00031D7379B313B42E431C94A4532115381F7
:103DC000329A5BDD32E45CE132E45CE132E45CE1F6
:103DD00032E45CE132E45CE132000000307E093E16
:103DE00030A20D4F3002126930AE158830A41A9CF3
:103DF00030201CB5301A22D130622A00315C302CC0
:103E0000314C365231DE3A80317E40BD3182460837
:103E1000328E53B5322256BC322256BC322256BCA8
:103E2000322256BC322256BC32000000307E093E9F
:103E300030A20D4F3002126930AE158830A41A9CA2
:103E400030201CB5301A22D130622A00315C302C6F
:103E5000314C365231DE3A80317E40BD31824608E7
:103E6000328E53B5322256BC322256BC322256BC58
:103E7000322256BC322256BC32CA82973607831190
:103E80003F5583544A87733D52C473365CF4637A5A
:103E9000641F64516C45547272D8542C7C8B62D36D
:103EA0002EC562F037FF62DA3F3E5358487243DE58
:103EB0004FB443EC58E1336360103479675B34D816
:103EC000706D42222D9F426535DF32813D1833B13E
:103ED000455B333C4D9123A553B6230659D3231795
:103EE0005E0124FF64C2822E34FE82653C45833924
:103EF0004778735A4FB673D858E763E4610E64E3AA
:103F000069445478720F55747B8762A62FC6622D60
:103F10003802630A403D53954875434250AE433AD8
:103F200058DC33915F093440665234236F6342D2C8
:103F30002C99423C34D732283C0E338343473357C5
:103F40004A78236C509F23B855C923835CFD2353C3
:103F500064BA72C531F672B93935731F4469637832
:103F60004CA8537A55DA534E5FFE53756743447E2F
:103F7000724645BC7A83527930C8526A3805533B41
:103F8000403C43D3487833A650A9338857D823C040
:103F90005E0224086549246F6D5A32822C943214D3
:103FA00033D032D03A04235641332372475F233350
:103FB0004D88236B52BF23F05AF923A863A972A33B
:103FC00031E772333925739E426063604B9C53FB2B
:103FD00053CD53CF5CF45307643F44BE6E18458CF9
:103FE000776D528B2DB052BE35F3522B3E2A437E55
:103FF0004661335A4D98333C55C423F95BEB238417
:1040000061212482684E32312B8A32B131C132BDF6
:1040100038F4222D3F242368455323754B8423EC29
:1040200051B223EB58F3236D6299628131D862AEAD
:104030003815531E415753494A91537D52C043503E
:104040005AEA439A603B34FE6AEB345D7458429EF0
:104050002A99421233E1321B3C18332A444B230F76
:104060004A8823F052B0233359D523015EFA2396B0
:10407000634332E02980324E30B332AB36E432054E
:104080003D15235E434723B84980236D51A523E79F
:1040900056EE2332619062F730D16226380A53E837
:1040A0003F5653B04A87537151B643FB58E54340DE
:1040B0006022346568CD34C4714E42152A9042DCCA
:1040C00032D932D63B1733F3434723C1497A23C24F
:1040D00050A323AB56CC23A25CF52321633E323A96
:1040E000297532472FA7326735DC32BC3B16233C9B
:1040F000434B233A4A7C23A750A8230A57DE23E9DF
:104100005E87526D30CB529E37FF52B33E564317F7
:104110004B7D336650AC33A757E133E75F0A24CCBD
:1041200065B0242C6F45328D298732A632D2329168
:104130003B1623BC43442373496D23954E96232499
:1041400054C323435BF023AC623A3295286A324170
:104150002E9B322434D422733A18231A435023BCA2
:104160004A7923E24FAC232E57CE23A05C805250D5
:104170002FBE525A3603531B3F4843A2487F33E5B4
:104180004FB1336557E133D75E07243A647A249CF4
:104190006B4432952987329E31CD327A3A0D233ED7
:1041A000423923A14766236A4D8F235153C123828D
:1041B0005AE62336602C3249265F32CD2C92326C7F
:1041C00033CB22DF390E231D423D2341486423FABD
:1041D0004C9623C353BD2394597A52332EB15216B1
:1041E000350753843F3B432E468143644FB7332406
:1041F00057E133C85D0524A86244240D6843329E0C
:104200002987329630C83264390423C1402F23D025
:10421000455F23404C89237F52C023C259DC23C011
:104220005D1F22FE235422592B8A22B432C3224C12
:1042300039042321412B23C7454F23124A80235899
:1042400050AD2389567152D52CAC529534F852AFEB
:104250003D3C4330467743094EA833F554D23350A2
:104260005BFB233E612A2459663E329D287D32C77E
:104270002FB7325037F2226B3E2023E743512344BD
:104280004A83234051B323BD57D323B85C1F224E2A
:10429000255422A42B8A22FB31BE227738F622F045
:1042A0003E282329455323964A81231A50AB2303E2
:1042B000566942782BA8421434E932DB3B3E333353
:1042C000466E23AF4C9923C652C323D858F223D548
:1042D0005F1024A56439329C277332F82EA7223C44
:1042E00035E022163C1223FE41442348487D230139
:1042F00050A623B855CB23B15B1F229E265422F033
:104300002B8A224231B922A237E922BF3C26238CD4
:104310004457231A4B8323DD4FAA237D5560424324
:104320002A9C426C32DC32833A263347435C2315A5
:104330004A89232F50B2232C56DD23985CFE23D3C9
:10434000612B32D8256632272D9E22DB33D522AA57
:104350003A0723CE403723B1466B23DB4D952370BC
:1043600053BC233F591522A9244B228E2A82227343
:1043700030B3227236E222BB3B1923B2424923A05A
:10438000487323804D9923015358420E299042C50A
:1043900030D0422B390E335B404A237C4779239936
:1043A0004DA2238053C8235C59ED23025F1E3215B2
:1043B000245A32562B95327A32CB223E39FC229F38
:1043C0003F2B231B455923B54B85232951AD23CEC4
:1043D000560B22B52242222C297A22A42FAD22424A
:1043E00035DC22B73A0D23D9403B232746632323EC
:1043F0004B8823865051429D2890422730D3423F1C
:10440000381033AF3F4423574671234C4C9A232D29
:1044100052C123F857E923A95D1D325B2455322888
:104420002B8C32E631C422AD38F722B03E2A23FF6E
:10443000445623E14A82236550A823D4550F22C253
:10444000224122DD287522F92EA6229C34D822256D
:104450003A0A234740352387455923F9498623DF04
:104460004F4B322D2891328A2FD7225437122303F3
:104470003F3F2333456923FF4A9223DA50BB2395FC
:1044800056E523505C1C22A1245022FA2A84225390
:1044900031BE221D38F222C13D2A23E44453230DAC
:1044A0004A8023A14FA323DA541322CF2241228F23
:1044B0002870224F2EA022F733D42294390723B636
:1044C0003F3023E8444F23D0488423384F4B3232C7
:1044D000288A320B2FCA2291360723FE3D3323C789
:1044E000436023124A8823634FB2236D55D9233486
:1044F0005B1F22AD245022B52A8122BD30B7222C69
:1045000037EC22FD3C23232F444E236E497A23E3CC
:104510004EA02335540B2277213D22A0276F22C8BD
:104520002DA022AD33D32235390323BC3E2B23B734
:1045300043502363487C23CE4D4C32372884328D40
:104540002EBE32CF35FC22F93C27235B425823256F
:10455000497E23EC4DA9234554CE23195A2222BA71
:10456000245022712A7E222830B1223B36E622399D
:104570003C1C237B434923D0487423254E9D239123
:1045800053032220203922B1266E22412DA122641C
:1045900033D222D638FF22C23D272387425223F648
:1045A000477423654C4A322E278632742EC332E973
:1045B00035FA22413C2923EF415F23D3488423C9A4
:1045C0004DB0230954D22328591F225B2351229F27
:1045D000298222E32FB722F035E7229D3B1F23C714
:1045E000424C2308487423114D9B23455208220650
:1045F00021392226276B22452D9B220933CB221DF0
:1046000038F722263D222319424923EC466E2374B3
:104610004B4832252688325B2EC9320436F9228A6D
:104620003B2B238441662381488B23A74DB823CDA0
:1046300053D62338581D22FC215222CD2887229E92
:104640002FBD22A635E822013B232313424F2340EE
:10465000477423FD4B9923FA500D22EC213A229BFB
:10466000276822492D9622AF32C5226437F0228A6C
:104670003C1D23AB414123E2456923844A3E328DF0
:10468000258032972DC3327135F722393B2723A677
:10469000405C230F478323D34CB0236A53D523A414
:1046A000581822AD224D22DE288222102FB522FD7D
:1046B00034E722033B1D238D414A23FC466F23B27E
:1046C0004B92236750F521EE202C22C7266422A0AE
:1046D0002C98224032C6225437F322573C1D231A0D
:1046E0004142239F4569232E4A3432F6247832D43E
:1046F0002CBE32DE34F622E83A2423C93F52239EF0
:10470000457C23004CA9230753D423115913225F5E
:10471000234922F0287E22822EAE225534E722063B
:104720003B172308414523B8466A23674B8C23D4A3
:104730004FDD21F01F1F22F4256122F72B9A22D191
:1047400031C7224437F622253C1D238A4044235D8D
:10475000456A23D849F2821D2D30831B3786839505
:1047600046AE73904DE573E0563E64C56087649035
:1047700066CE54806B4C553C72B562122CF3623C91
:10478000352E631A3E67536E46A043E84ED8432445
:10479000570034655D5A34DE62C534366A8842FAA1
:1047A00028C042FD300733823A3433FE407233234F
:1047B000499D239C4EBF23AC53DF23AC581F24D408
:1047C0005EE582BB2B2383AE356C83584298731110
:1047D0004ACF73F3521364325C6364B163A5549D92
:1047E000693355BC6FAD62CE2BEF62EA3428631794
:1047F0003D5E53514594430E4DC5432F54EE339ABD
:104800005A3034E95F8F341A677F427228BF42BA48
:1048100030FC32EA382D33D73F6233EF468C2363C6
:104820004CB1237D51D82384571324DD5DD97259AF
:104830002A1873413452731C3E83639246BA53065E
:104840004FE953A0573F54D2607D44BA671A453DA3
:104850006DA5528B2BEB5298342253153C564336A0
:10486000448933344BB2333B51DD23D1570624F610
:104870005C5A24FE637632EB27BF327730F2325334
:10488000372623B13E5323BC447C232A4AA4234F1A
:104890004FD1235D560824E85CD472062C1273FEB7
:1048A000345073EA3E8163E446B553F34EE253C09D
:1048B000562054195E7E44D5651345906B93527B08
:1048C00029D75247321853DE3A4E432D437C338961
:1048D00049A633C94FD523C656FD23515B5924A0A1
:1048E0006172327227B632702FEA3238361D2310C9
:1048F0003D4C23954377233E49A323FC4ECF2352BF
:10490000551B240A5CD162B32D0D63BD354F53B9DD
:104910003F80533647B153E04EDC43E155014460DC
:104920005B7F34EF630D35E56983426B27C442F545
:104930002F0E33A739463325427123DF479B235778
:104940004ECD23BC55F423AD595824425F6F32F944
:1049500026AE326A2EE3321F351333703B45236E89
:104960004273235248A323A94ECE2347542F242D0C
:104970005BC062282CFE62893440532B3E7F53B0CB
:1049800047AA531D4ED143615408442D5B8F34A474
:10499000643E35AD6D8042CD27C442CA300A33F241
:1049A000394333F9416E23E9479823E84DC6233C48
:1049B00054EF2339597924AD616A32A526A732FB19
:1049C0002DDD32B2341133513B4723C642762316D4
:1049D00049A223984ECD2308542A247A59AF529CD9
:1049E0002AEF52563330539D3C80432A48A3335B11
:1049F0004DC733E1520F34FB5AA0245A6570257617
:104A0000717F323028C4329E3108333E3A4123CE82
:104A1000416C23F34795237B4DBE23BD52E923C64A
:104A2000589B24196465325126A1328D2DD8324508
:104A3000341023323B4A231E437A23DA49A12388C8
:104A40004ECC23CA532624C757AF52432BED52C531
:104A5000333053F33C73435A46A033C84CC633B586
:104A6000520034CE599024776265258D6C7832A837
:104A700027BF32B430FD32D7383323BF3F642363BE
:104A8000468E23CE4BB8237C51EC23C1577024F6BD
:104A90005E5D323B259932852CCF326B3305234343
:104AA0003A3F23C741692363478E23EF4BC923A7AE
:104AB0005164244159AF52E92BEC523534305349FB
:104AC0003D66438B449D43354CC7338952F133A136
:104AD000588024945F5B25A56772322027BA32CABA
:104AE0002FF33272372623B03D5C23D4448723232F
:104AF0004AB2233D50EF23BC564624D359552227B2
:104B00002492227E2BC6229232FB22563934237104
:104B1000405823EE447C235649C723844FA324BC2A
:104B20005AB0523E2CE852EF3323538B3B6743D3AA
:104B3000449943274CC4334152EC33A1574724A92D
:104B40005DC424B5637832CD27B932EB2FF7322E0E
:104B5000382B23AB3E6023544594235A4BDB23264A
:104B600051172407565F2443595422E3248C2231E1
:104B70002BC5222E32F622973834231A406423D0D4
:104B8000458623034ABB23A54E45242156B14294B2
:104B90002CE542A9331533CD3968331B4596231ACA
:104BA0004CC223FA51E723A1560F24BE5B2E24C525
:104BB0005F7F327B28B8320C30FC22EA383023A7E2
:104BC0003F6523D345A223924C0424105240245124
:104BD000557924B35854229F258622E42AC322CA39
:104BE00031F122D9373523C33F7123B3469123B026
:104BF0004AAF23C74DE8238651A542302BDC42D370
:104C0000321133F439603384448E23F04AB5232EB5
:104C100050DE230A5519244D5A4B24505E7E329C97
:104C200028C1326D310123B63935237A4065230519
:104C30004697238E4BE823E4501A24DF534924FD82
:104C4000564E227E248322802ABF227331EF227A9D
:104C5000372923603E6323F4448C233549B023A1D4
:104C60004CE1237A509942CC29D342FD310E431BAB
:104C70003A5833ED438623C849A823644ED523739D
:104C8000532324DC586924DD5C7D32BD28CA32CD33
:104C9000320633833A3B234D41642337468D238BC1
:104CA0004ACC23B84FF5236D521824485548225D4D
:104CB0002381221D2ABA221B31ED221C371E23FD1F
:104CC0003C572336438723BB47B1237C4BD9236F03
:104CD0004F93425D29D442E9310D434E394E331E84
:104CE000427E23BD48AB23254ED3238D520A24197F
:104CF000574024F25A69329B26C132CB31F832FA3E
:104D0000382A232F3F5D23FE4484233549B2235A9A
:104D10004DD6235E50F6235E534222A3227F22C04B
:104D200029B2221C30E222DA351523123C4923DA5B
:104D300041742331469923A949C223DB4D8E32EFBA
:104D400028D532D5310D23833845234F407823B4FD
:104D500047AE23E64DD023A751F32357551624071A
:104D60005956227924B822C930EB2272371B2312FC
:104D70003D5623C5437B23DF479923FD4AB9234F83
:104D80004ED42375513D22EA217E226429AB221D97
:104D90002FD72298340D23283B3B237E406123A745
:104DA000448123D747AC23464C87326728C632312B
:104DB000300523F6373923D73E6323B74496236A59
:104DC0004BBA237D4FDD236053012488575022B70F
:104DD000239C22FA2CCD225C33FE224C3933238CC7
:104DE0003F5E23D64485233149AA23164DC8239616
:104DF00050382233217222F827A322E92DD422131E
:104E0000340523ED393223EB3E572309437B2385B9
:104E100046A223344A8032DF27B9328E2EFD326A11
:104E2000372D235F3D4E23BB417F23ED48A5235300
:104E30004DC7236A51ED230A564A22F52280222DBE
:104E400029B022472FE22286351123543B4023CE3E
:104E500041712366479B23DC4BBD23B84F33227D32
:104E60002066228B269B22B52CD1228F33FD22B2C5
:104E7000382823593D4E236D41762334459823230A
:104E8000487D320E27B632192EF83285362D23256D
:104E90003D5023B3417F23F047A3235E4CC92345F4
:104EA00051EE2301564922742282221929BA222561
:104EB00030ED229A3619232D3C46230E427223D41C
:104EC000469923D24ABD23D14E3222A920652275AC
:104ED000269922B32CCD224833FC226F382523F3A8
:104EE0003C4D23224172238A44952389477B323DDE
:104EF00026B432A42DF432A1352E23EB3C5323AC3F
:104F0000417F23F346A223694BCB232151F023F8A1
:104F1000554922F32185220529C4220431F822AE05
:104F2000372223063D4D234F42732343469823C81F
:104F300049BE23EB4D3122D52064225F269722B251
:104F40002CCA220133FB222B3823238E3C4D23D83D
:104F5000406F23E0439323EF4670326925AF320957
:104F60002DF23262352923293C4E23D3407A231A6D
:104F700046A0235B4BC8237D51FC23E75544225DAB
:104F80002280220129BD226730F022F4361E23AD93
:104F90003C47237D416D2393459B239949C423912D
:104FA0004D2822A2206422CE269A22F82CCE221846
:104FB00033FE226C383023FE3C5723E240792340F5
:104FC000449C238D4766329624A9326E2CF03224FD
:104FD000352423673B4A23FB3F742343459F234EDD
:104FE0004BC623DA510824D7553F22C7227B22FE25
:104FF00028B722C92FE9223C361C23553C4123AD5A
:10500000406823E4449F236B49CB23364D1F227015
:105010002064223E279F223E2DD3222F330123AD31
:10502000383E236E3D6123EC408423A244A6232B0B
:10503000481A83A4235983262FB783D742D573E414
:105040004807748A518864115DF064D06058658E99
:1050500064C0654C68E0625129226388325E635AFD
:105060003C90538444CF53F34DFC435C551F44673D
:105070005AA434435E2F359463A442D224E142966D
:105080002C2F43843750334C3C89330B45A9239351
:1050900049C923534EEC2341533D24A95809834960
:1050A000234983F72E9383783DB973C844E9730E7F
:1050B0004D40648156B864805D0765C260576505E0
:1050C00064D362F7271863A7314E63253A80530EE5
:1050D00042B453DB49DC4325500044A45557349374
:1050E00059CD34115F9B421324E642382D2143AD44
:1050F000354C332C3C7E338843A1235A48C4234388
:105100004DE72385522A246857F872EE223A73C974
:105110002E6F6319389D63AC40CC639348F853F20B
:105120004F8054305AB744F75CEF44BE5FC7529D7E
:10513000260E53C7303F43F0377143993F9A43C31C
:1051400045BC33EF4AE233E2500A24E4546B248E28
:105150005A93325523EB32DA2D1423D63349230CDC
:105160003C732306429A232247C023344CE323CACC
:10517000511724285600736A263E73CA307C633761
:105180003BA3636842CF63EB49F853B2504C542BB6
:1051900058BD44EC5C0F45955FBA526B25FF52D069
:1051A0002E3D4391377343DC3F9843B945B53356A1
:1051B0004AE63394510F241E559124BE5A9732B4B7
:1051C00023E332302D1423B4334623F33A7423C23D
:1051D000419C230747C3230D4CED23B9514324A819
:1051E000550963E6294263CC328A63553EA95324AC
:1051F00044D243434BF943725119442756C334E117
:105200005C30356D5FAE423924F042D92C3B3333EC
:1052100037753320409733B045AE23BE49EB234664
:105220005214245955B724EE5A9B321324DC32878A
:105230002C142393334323DB3975237F419F23ECC5
:1052400046C723E64BF823A85170242955F062592C
:10525000272B63ED3076636E3CA953B044CE43CA2E
:105260004AED43C74F2B441B56FD34E460B03596DE
:1052700069B3428625F842B82E3C330F38703300AC
:105280004096331146B6230F4BE923CE511224D159
:1052900055FE243A6096321024DA32B02C1423FDE5
:1052A000334723E63A78235142A223F247C8238AA0
:1052B0004CF223075177240B54D752CC2414530EAD
:1052C0002F6253873AAA433D45CA43514AE2331CF1
:1052D0004E3D3410563725E8643126C073B932D4B8
:1052E00026013397303E23EB386C23E03F95237340
:1052F00046BE23614CE723565110244A5646258664
:105300006591320D24D932D92C153367344C23F1F1
:105310003B7C232343A523F848C9232F4DEC236668
:10532000507E24EE52DE5236271D5331315E53CB70
:105330003A9E431344C243AC49DC33054E1F34C587
:10534000541925B46051267F6DAD32BB25F732CAA2
:105350002F2E2335375A23403D8F232645B623333E
:105360004AE123A84F17240055FB24B65D8E322E48
:1053700024D4323E2C0C336B334023A83A70237272
:105380004195238646B923E44AFD238B4F0C25EE35
:1053900058E552A029275355335A530F3B9243E9FE
:1053A00042BA430749D733EF4D01247B53FB248096
:1053B0005C72263E67A132A224EE32FE2E1F33809D
:1053C000354923A03A8923D943AF230648DC23FB80
:1053D0004D1E24B753B024E6558B225024D022A46E
:1053E0002B03237032342360396523C13F86231594
:1053F00044A9239A480F24B14E9A25EF5EEF52A894
:105400002B255349334E53673992437643BC434669
:105410004AE1338E4F0624F3539424145A5F251126
:1054200061B332FE26F5320F3038330C396523EC88
:105430003EA123C146D823714C34240D517C245104
:1054400054EC24CE558A227824C422BE2A0023613B
:10545000322F23B83873234441A1237746BA2370EF
:1054600049F523314DE0243F56FA42B12D23433E06
:10547000334233C03792330344BF33854BEB232E83
:10548000510C246B542D24A8574D24E55AC6325B89
:1054900029FD3221315233993C81233843B923A964
:1054A000490124DC508C242054DA24EB542825B6FE
:1054B000558A22A024B822D929FD2253322A23104A
:1054C000388223C742BC23DA48CC23464ADC23B1C6
:1054D0004B2724904DEA421E2C1D433A3347336537
:1054E000399A33C145C033CC4BE1232E500A24E80E
:1054F00053552402589924CE5AD132602B1C33B311
:10550000356433923F96234A46C3233C4BF8236CC1
:10551000506524ED539F244E54D624BC5487225307
:1055200024BC22732AFC2273322B23833871230577
:1055300041AE233747CF23CB49ED23C34B2924F476
:105540004DDA428B2A174336334C330B3BA2337F61
:1055500047C233144CD8232F4F092466537E245C52
:1055600058E624B85ADD32652D3B33453A77338C03
:1055700042AB235D49CD23D04CF023FC4F3F24BBED
:10558000536524B1538424C35385220624C1220EBB
:105590002BFB2293322D23F7386023433FA1239422
:1055A00045D3235049FF23D54B2B24594ED5421EBA
:1055B0002A1843AB3347335E3A8D338D44B93324D5
:1055C0004BE523FE4F0C24ED5254243A5697243BCE
:1055D00058B632DB282E336E3864330F409123B235
:1055E00045C3234D4BDE236B4D0F24D44F2B245743
:1055F000504424E95076228522BE22A42AF0223F7C
:10560000311E2318375323003E88236D43B323DB19
:1056100046D9235949FF23D74BD132B12919332019
:10562000344323B23979239C41B123354AF323CE45
:10563000500F2474522B2419544824BF55902252E1
:1056400024212398365223923D78230842BA23CA54
:1056500049CD23DB4ADF23ED4BF223FE4C0524101A
:105660004E67220521BC223A2AE622EB2F0F23396E
:10567000354723BD3C7023474193236644B423DE62
:1056800046D4235549C3329C280333583140235B09
:10569000396C23B13F9323A845CC23C24CED23970B
:1056A0004F082454512A24DD538122C122E822408C
:1056B0002F1A23FC3545236D3B7B231C4299237E07
:1056C00045BC23F448DA23494BF123F74C6522EF1C
:1056D00020A7225028D7220A2E082379343823A65F
:1056E0003A61231B3F84235C42A723A844C8239B21
:1056F00046B5328727EE32902E3D2305395F23C60B
:105700003D76231C41A623B648CC23BB4CE6238F11
:105710004E0C24FC5172223021B022E927E322668C
:105720002E1323D2343C236F3A652322409923FC65
:1057300045C3239449DD23DF4B6422DA209322669C
:1057400026C822292C0223BA3329238F385223F06A
:105750003C762353409B237342BC23E243B132EE99
:1057600026E732BF2D2E2321376123093E78237887
:10577000419F230D47C323F34AE223824E0B24DAD1
:105780005274228D21B4229328F2226830232344BC
:10579000374C23BD3C6E2356419823A145BF23942B
:1057A00048E0235E4B5C224C209122C425C7222274
:1057B0002C002387332D23C1385423C13C79232C5B
:1057C000409C232842BC239E43AE325526E132EE54
:1057D0002C20333E3563234C3E7B23D541992365F2
:1057E00045BA232C49DF23754E0A24B8537622EAA2
:1057F00021B8223D2901236B323423B6395C230CB6
:105800003F77238B4298234645BC239447E423DD0E
:105810004A5522BE1F8F222325C6221B2CFF22544D
:10582000333123F3385623923C7D2306409D23DEFB
:1058300041BD235A43A3324625DE327B2C2133540B
:10584000355B23193D7623014198232645BE23E489
:1058500049E123914F23242B5370220D22B322259B
:1058600029F922BE312C23EC385623583E71236E81
:105870004191232B44C8238147F723BB4A5B22571E
:10588000209C22D526D122502D0523F033362384A7
:10589000396E23A53D9123AA40B023E242D023ECE8
:1058A0004499323724DB32092C23336B355323E7F9
:1058B0003B71232E409723E844C3239D4AE423AD44
:1058C000503D249E526B223022AE220D29F122112E
:1058D00031242323385123A53D6C2352408B2310C0
:1058E00043D4236F470B24994A6122F120A92288CF
:1058F00028DD22862E0C238D343B23163A8723B8CD
:105900003EA5234F41C423E743E3237F462B83A4D3
:10591000246783D12FB083983ED77381460A74637E
:105920004F8164565A1C65A85EAA65816137665A24
:1059300064EA62F3272B6333316263E939935321BD
:1059400042C9530B4BF643005235441D57E0344BCC
:105950005D60357D65B942F624F7425F2D3A43D547
:105960003660339F3C95336944B9235549DB23F2B4
:105970004D3724CA537D2561601F8308255B83D67C
:105980002F9983F83BC3731844F673B34C5364E305
:1059900055E064C75B5165105FC2655A62DF6224DF
:1059A0002721636A305563D73886538640B6531132
:1059B00048E2436B4E1744D8539E3467592F35FA4B
:1059C00060B0427024F542742D2E436F355A330E69
:1059D0003C8933F742AF23FF47D223D14C19244EE1
:1059E000520625E35A13736C254F73DC2F826358DC
:1059F00039B063AE41E263044A25547051A354E6C2
:105A000058F944A15C4F455B60D55256261753A107
:105A10002F4943C6377A43EC3EA4431845CE33D7CB
:105A20004AFA3393505D248355FF24785CA832EC06
:105A300023F432882D2323093455237D3B7E23858F
:105A400041A523AA46CA23B04BFC23D3509024651A
:105A5000550F73E22648736B308063063AAB63F3ED
:105A600041D963B64910545E5079542857F34448DD
:105A70005C5E455C60CA528B250B537E2E44430C02
:105A8000377743B33EA143E344C633FE49F53315AC
:105A9000504B24F654F024EB59A732F623EC32EAAB
:105AA0002C1E2382334F23693A7B23B040A223DE8E
:105AB00045C723BF4AF523BB4F8024CA530B635805
:105AC000284263FA307E63B53AA7533842D143681F
:105AD00049FD434C4F4F446A55EE34EF5B6E355EE3
