:100000000C9407030C94CA450C949F450C947445BA
:100010000C9449450C941E450C94F3440C94C8442C
:100020000C949D440C9420460C9420460C9420463D
:100030000C9438030C9438030C9438030C94380354
:100040000C9438030C9438030C9438030C94380344
:100050000C9438030C9438030C9438030C945344D8
:100060000C9438030C941D440C94F3430C94380303
:100070000C9438030C9438030C9438030C94380314
:100080000C9438030C9438030C9438030C949C465D
:100090000C9438030C9438030C9438030C94A64643
:1000A0000C9438030C9438030C9438030C943803E4
:1000B0000C9438030C94F5450C9438030C943803D5
:1000C0000C9438030C9438030C9438030C943803C4
:1000D0000C9438030C9438030C9438030C943803B4
:1000E0000C9438030C94EA040C9482480C94BE03DC
:1000F0000C94D50C0C9468080C94622F0C94792104
:100100000C94AF060C948B080C94972E0C94AB05B2
:100110000C942D210C94DF2E0C9478080C94AA2FAB
:100120000C94ED050C942B280C9498300C94A22F71
:100130000C9424060C9410060C949C050C944E21EF
:100140000C9422070C94582E0C94992F0C94082888
:100150000C9408050C94E40C0C942E280C94982113
:100160000C9491300C942E060C94FE040C94282FC1
:100170000C94EC2F0C9443040C9402050C949405FD
:100180000C94DA0C0C9467080C9469080C949F305A
:100190000C94D62F0C94CA0C0C94F92F0C94B03BF1
:1001A0000C94BF050C9425280C94D9050C94CF050C
:1001B0000C94EE0C0C94C12F0C94EE110C94FA04D8
:1001C0000C94322F0C948D030C94B5050C94892E4D
:1001D0000C941A050C941A060C9431280C944021A6
:1001E0000C943B190C94B5130C9492080C9494093C
:1001F0000C94C7050C94B0030C9439210C940B2F6C
:100200000C94822E0C9428280C94F30C0C94902EB1
:100210000C94012F0C94E3050C944A120C940C05D9
:100220000C94EE140C94AC2E0C949C030C94D00CF7
:100230000C94C9040C94DF0C0C9410050C94F40479
:100240000C94FC050C94A52E0C946F2F0C94BF08F5
:100250000C94B30D0C94A1050C94F0040C94B613FB
:100260000C9460030C949E2E0C9434280C940C0770
:100270000C94E90C0C9485300C94AD0D0C9406068E
:100280000C94F6030C9433210C94DD510C94DF0490
:100290000C9496060C94BB120C94DB040C94E704AB
:1002A0000C944A2F0C9416050C9455210C94E304DD
:1002B0000C94CF120C94E32F0C94B0060C947B306A
:1002C0000C94C4040C948B300C9447210C94C92FCB
:1002D0000C940D150C9497060C9441306364696E70
:1002E0006F70737578585B00436F6E6669726D202E
:1002F00028594553206F72204E4F293F00456C739B
:10030000652077696C6C2062652069676E6F726525
:100310006400436F6E6669726D2077697468696EF8
:10032000203673656373003C3C205245534554208E
:100330004445544543544544203E3E00436F6E6659
:1003400069726D2028594553206F72204E4F293F06
:1003500000456C73652077696C6C20626520696765
:100360006E6F72656400436F6E6669726D207769A7
:100370007468696E203673656373003C3C204641A7
:1003800043544F5259205245534554203E3E00524B
:100390006573746172742028594553206F72204E22
:1003A0004F293F0000524553544F52454400466187
:1003B00063746F72792053657474696E677300009B
:1003C0001F1F0E0E0400000000040E0E1F1F000170
:1003D00003070F0F070301080C0E0F0F0E0C081F69
:1003E0000E151B150E1F1F1F1F1E1D0B171F1F177E
:1003F00000170017001700041F1B151B1F04002502
:10040000642E25642E2564000041505020436F6EF9
:100410006E656374656400496E2050726F67726523
:100420007373004669726D776172652055706461FF
:100430007465005B25642C25642C25642C25642CB4
:10044000256C752C25645D005B256C752C256C7501
:100450005D002E2E202564202E2E00004578636C32
:100460007564696E672055494400496E666F726D08
:100470006174696F6E00436C656172696E672045D7
:100480004550524F4D00524553455420285945532D
:10049000206F72204E4F29203F00004379636C6526
:1004A0007320746F205A45524F203F005265736588
:1004B00074204D616368696E650052455345542050
:1004C00028594553206F72204E4F29203F0000438A
:1004D00079636C657320746F205A45524F203F003A
:1004E00052657365742042564D00000021002400BF
:1004F00027002A002D003000330001010000040114
:1005000007010A0100000A0B02090C0D0E0807037F
:1005100004010000000000000000000000000000D6
:1005200000000000000000000000000000000000CB
:100530001211100000000000000000000000000088
:100540000000000000000000000000002200250064
:1005500028002B002E0031003400020100000501AC
:1005600008010B0101021020200808102040102073
:100570004080020102010804020101020408102067
:100580004080804020100804020180040201804065
:1005900020100804020108040201010204081020CE
:1005A0004080010204081020408000002000230049
:1005B000260029002C002F0032000001000003015A
:1005C00006010901050505050705080808080202D6
:1005D00002020A0A080804040404010101010101DD
:1005E00001010303030303030303040707070C0CC0
:1005F0000C0C0C0C0C0C0202020206060606060687
:1006000006060B0B0B0B0B0B0B0B8248DD51112459
:100610001FBECFEFD1E2DEBFCDBF00E00CBF13E0C5
:10062000A0E0B2E0E2E7F4EB00E00BBF02C007900D
:100630000D92AE30B107D9F723E1AEE0B3E001C0CF
:100640001D92A031B207E1F713E0C6E0D3E000E06D
:1006500006C021970109802FFE010E94A453C530D6
:10066000D10780E00807A9F70E94354F0C94275A5C
:100670000C940000E62FF0E093E0F595E7959A954D
:10068000E1F7677021E030E001C0220F6A95EAF7D8
:10069000E554F14F882321F08081282B2083089591
:1006A000808120952823FACF2FB7F8948091360DBA
:1006B0009091370D31E03093380D2FBF0895089594
:1006C000AF92BF92CF92DF92EF92FF920F931F9360
:1006D000CF93DF936C017B018B01040F151FEB019E
:1006E0005E01AE18BF08C017D10759F06991D60155
:1006F000ED91FC910190F081E02DC6011995892BB7
:1007000079F7C501DF91CF911F910F91FF90EF9085
:10071000DF90CF90BF90AF900895FC01538D448D32
:10072000252F30E0842F90E0821B930B541710F09C
:10073000CF96089501970895FC01918D828D9817A9
:1007400061F0A28DAE0FBF2FB11D5D968C91928D81
:100750009F5F9F73928F90E008958FEF9FEF0895B2
:10076000FC01918D828D981731F0828DE80FF11D7B
:10077000858D90E008958FEF9FEF0895FC01918D96
:10078000228D892F90E0805C9F4F821B91098F738F
:100790009927089589ED94E00E94BE0321E0892BFA
:1007A00009F420E0822F0895FC01A48DA80FB92F31
:1007B000B11DA35ABF4F2C91848D90E001968F7389
:1007C0009927848FA689B7892C93A089B1898C91A8
:1007D000837080648C93938D848D981306C00288F7
:1007E000F389E02D80818F7D80830895EF92FF92C1
:1007F0000F931F93CF93DF93EC0181E0888F9B8D44
:100800008C8D98131AC0E889F989808185FF15C0FD
:100810009FB7F894EE89FF896083E889F989808120
:100820008370806480839FBF81E090E0DF91CF91EF
:100830001F910F91FF90EF900895F62E0B8D10E011
:100840000F5F1F4F0F731127E02E8C8D8E110CC080
:100850000FB607FCFACFE889F989808185FFF5CFCB
:10086000CE010E94D403F1CFEB8DEC0FFD2FF11DD3
:10087000E35AFF4FF0829FB7F8940B8FEA89FB8908
:1008800080818062CFCFCF93DF93EC01888D882366
:10089000B9F0AA89BB89E889F9898C9185FD03C0E3
:1008A000808186FD0DC00FB607FCF7CF8C9185FFC8
:1008B000F2CF808185FFEDCFCE010E94D403E9CF36
:1008C000DF91CF91089580E090E0892B29F00E947C
:1008D000CA0381110E94000080E090E0892B49F05A
:1008E00080E090E0892B29F00E94000081110E9495
:1008F000000080E090E0892B49F080E090E0892BB7
:1009000029F00E94000081110E94000080E090E028
:10091000892B49F080E090E0892B29F00E940000AB
:1009200081110C9400000895282F30E0F901EC5F4C
:10093000FA4F9491F901EC59FA4F44912C533A4FE4
:10094000F9012491222309F435C0992311F1915022
:100950009231F8F4E92FF0E08827EE54FB4F8F4FE7
:100960000C94A453E304E704C404DB04DF04C904C7
:10097000EA04F004F404FA04FE04020508050C0578
:10098000C904100516051A05809180008F778093A1
:100990008000E22FF0E0EE0FFF1FE65BFA4FA5911B
:1009A000B4918FB7F894EC91611148C040954E23F3
:1009B0004C938FBF0895809180008F7DE8CF809108
:1009C0008000877FE4CF84B58F7784BDE2CF84B584
:1009D0008F7DFBCF8091B0008F778093B000D9CF0F
:1009E0008091B0008F7DF9CF809190008F778093B8
:1009F0009000CFCF809190008F7DF9CF80919000B3
:100A0000877FF5CF8091A0008F778093A000C1CF22
:100A10008091A0008F7DF9CF8091A000877FF5CFD6
:100A2000809120018F7780932001B3CF80912001A6
:100A30008F7DF9CF80912001877FF5CF4E2BB8CFE6
:100A4000CF93DF9390E0FC01EC59FA4F24918C5343
:100A50009A4FFC0184918823C9F090E0880F991F78
:100A6000FC01E651FB4FA591B491FC01E65BFA4F06
:100A7000C591D49161110DC09FB7F8948C912095C8
:100A800082238C938881282328839FBFDF91CF9175
:100A90000895623051F49FB7F8943C91822F80956D
:100AA00083238C93E8812E2BEFCF8FB7F894EC91B2
:100AB0002E2B2C938FBFEACF1F93CF93DF93182F4A
:100AC000EB0161E00E942005209739F460E0812F5E
:100AD000DF91CF911F910C949404CF3FD10511F475
:100AE00061E0F5CFE12FF0E0EC5FFA4FE491E150E7
:100AF000E23108F0B3C0F0E08827EE57FA4F8F4F8D
:100B00000C94A45394059C05A105AB05B5052E06D0
:100B1000BF05C705CF05D905E305ED05FC050606AC
:100B20002E0610061A06240684B5806884BDC7BD4B
:100B3000DF91CF911F91089584B5806284BDC8BDB7
:100B4000F7CF80918000806880938000D0938900E7
:100B5000C0938800EDCF80918000806280938000F8
:100B6000D0938B00C0938A00E3CF8091800088608F
:100B700080938000D0938D00C0938C00D9CF80915A
:100B8000B00080688093B000C093B300D1CF809153
:100B9000B00080628093B000C093B400C9CF809150
:100BA0009000806880939000D0939900C093980043
:100BB000BFCF80919000806280939000D0939B0083
:100BC000C0939A00B5CF8091900088608093900088
:100BD000D0939D00C0939C00ABCF8091A000806813
:100BE0008093A0008091A0008F7B8093A000D09381
:100BF000A900C093A8009CCF8091A0008062809340
:100C0000A000D093AB00C093AA0092CF8091A00027
:100C100088608093A000D093AD00C093AC0088CFD3
:100C200080912001806880932001D0932901C09396
:100C300028017ECF80912001806280932001D09393
:100C40002B01C0932A0174CF80912001886080938A
:100C50002001D0932D01C0932C016ACFC038D1055B
:100C60000CF03ECF33CF3FB7F8948091B50490910C
:100C7000B604A091B704B091B80426B5A89B05C0EE
:100C80002F3F19F00196A11DB11D3FBFBA2FA92F0B
:100C9000982F8827BC01CD01620F711D811D911D08
:100CA00042E0660F771F881F991F4A95D1F7089574
:100CB0008F929F92AF92BF92CF92DF92EF92FF926C
:100CC0004B015C010E9433066B017C010E943306DC
:100CD0006C197D098E099F09683E73408105910555
:100CE000A8F321E0821A9108A108B10888EEC80E85
:100CF00083E0D81EE11CF11C81149104A104B1040D
:100D000029F7FF90EF90DF90CF90BF90AF909F902A
:100D10008F9008952FB7F8946091B1047091B20448
:100D20008091B3049091B4042FBF08950895209149
:100D3000AC043091AD042817390771F49091AB04DD
:100D40008091AA04981741F0E091AB04F0E0E659D5
:100D5000FB4F808190E008958FEF9FEF08950895F5
:100D6000EF92FF920F931F93CF93DF93DC015C967A
:100D7000ED90FC905D97E114F10479F481E090E04E
:100D800013969C938E93129790E080E0DF91CF9121
:100D90001F910F91FF90EF9008955196ED91FC9166
:100DA000529750968C915097982F90950FB75E96CA
:100DB0002C915E97122F127021FD6095F89420817E
:100DC000112319F1282B2083E7012197F1F728E05F
:100DD000462F50E0308160FF1AC0382B3083E70186
:100DE0002197F1F7BA0175956795215089F711237D
:100DF00081F08081892380830FBF5C968D919C91C7
:100E00000197F1F781E090E0C1CF2923DCCF3923AE
:100E1000E5CF9081892BEFCF2091AC043091AD04C8
:100E20002817390761F48091AA042091AB0490E05F
:100E3000805C9F4F821B91098F739927089590E0E2
:100E400080E008952091AC043091AD042817390753
:100E5000B9F49091AB048091AA04981789F0E091BD
:100E6000AB04F0E0E659FB4F80812091AB0430E009
:100E70002F5F3F4F2F7333272093AB0490E00895EB
:100E80008FEF9FEF0895E091AC04F091AD04E81767
:100E9000F90769F4A389B4899C9185898095892390
:100EA0008C931092AD041092AC0481E0089580E020
:100EB00008950F931F9397FF35C021E02093690495
:100EC00020916904222319F10091650410916604B0
:100ED00020916704309168046017710782079307B7
:100EE000B0F4009161041091620420916304309188
:100EF00064040F5F1F4F2F4F3F4F00936104109307
:100F00006204209363043093640410926904609334
:100F100065047093660480936704909368041F913E
:100F20000F91089510926904CBCFFC01868188232C
:100F300091F06115710519F4828193810895808182
:100F400091816817790769F0848195819B01281B3D
:100F5000390BC90108958081918168177907A1F73C
:100F6000EBCF90E080E00895FC018681882381F03A
:100F70006115710519F480819181089582819381B1
:100F80006817790759F084819581860F971F089516
:100F90008281938168177907B1F7EDCF90E080E007
:100FA00008950F931F93962F41E050E060E070E0AA
:100FB00004C0440F551F661F771F9A95D2F7009102
:100FC000EE061091EF062091F0063091F10688238D
:100FD00079F0402B512B622B732B4093EE065093EC
:100FE000EF066093F0067093F1061F910F9108953C
:100FF000409550956095709540235123622373234B
:10100000ECCF20911504260F3327331F21323105F1
:10101000ECF420913B04FC0190E080E0243069F086
:1010200082E00895A09115042191AC014D505C4FD0
:10103000A40FB52FB11D2C930196861798F38091BC
:101040001504680F6093150480E0089581E0089509
:1010500010923B0481E080933D0410923C0461E0D7
:1010600084E10E94940461E085E10E949404E9EB2C
:10107000F0E080818E7F808380818D7F808388E413
:101080008093B80085E48093BC000895CF93DF93EC
:1010900091E09093F2038823B9F0C091B800D09109
:1010A000BA008091BC008A7B8093BC0060E084E140
:1010B0000E94940460E085E10E9494040E94280844
:1010C000D093BA00C093B800DF91CF9108950895EE
:1010D0000895E091EA038091E903E81730F4F0E025
:1010E000E753FC4F808190E008958FEF9FEF0895C4
:1010F0009091EA038091E9032FEF3FEF981748F4AE
:10110000E92FF0E0E753FC4F208130E09F5F9093A0
:10111000EA03C90108958091E9039091EA03891BCC
:10112000990B0895CF92DF92EF92FF920F931F9346
:10113000CF93DF937C01CB018A012091C803222346
:1011400089F0EB016B01C40ED51ECC15DD0569F0ED
:101150006991D701ED91FC910190F081E02DC701DB
:101160001995F3CF642F0E940108C801DF91CF9138
:101170001F910F91FF90EF90DF90CF900895CF9344
:10118000DF931F92CDB7DEB769832091C803222376
:10119000F9F02091EB03203258F021E030E0FC011F
:1011A0003383228390E080E00F90DF91CF91089508
:1011B0008091EC03E82FF0E0E855FC4F9981908393
:1011C0008F5F8093EC038093EB0381E090E0ECCFA2
:1011D00061E0CE0101960E940108F7CFFC019081E9
:1011E00030917A0020917A00287F246020937A0041
:1011F000963308F0965320917B00892F8870277FC3
:10120000822B80937B009770906490937C008091F8
:101210007A00806480937A0080917A0086FDFCCF0A
:10122000809178009091790030937A008281938147
:10123000892B39F486819781892B19F488ED97E2FF
:10124000089590E080E00895DF92EF92FF920F936F
:101250001F93CF93DF93FC01DFB6F89420A1848D18
:10126000958D2817190619F010F0248D358D022F51
:1012700010E00115110509F454C00A30110531F5CB
:1012800060E070E0CB0150E040E0DA01AA0FBB1F44
:10129000AE0FBF1F18962D913C91620F731F811DD9
:1012A000911D4F5F5F4F4A30510579F72AE030E0DA
:1012B00040E050E00E94D252DFBEC901DF91CF91E1
:1012C0001F910F91FF90EF90DF900895868D978D7D
:1012D00049E050E0892B21F0468D578D415051094E
:1012E00060E070E0CB01B0E0A0E07A01EE0CFF1C02
:1012F000EE0EFF1EE701E884F9846E0D7F1D811D4F
:10130000911D4115510551F0415051091196A017F9
:10131000B10758F330E050E040E0CCCF49E050E076
:10132000F5CF30E020E0C8CFCF93DF939C01FC01E4
:10133000E65CFE4F8081811151C0D901A85CBE4F8F
:101340004D915C9111974B39510509F444C08D9131
:101350009C911197E901C55CDE4F488159814F3F4F
:101360005F4F19F4998388830CC0E881F981319625
:10137000EE0FFF1FE20FF31F408151814617570701
:101380008CF3E901C35CDE4F488159814B3951052B
:1013900019F4998388830CC0E881F9813196EE0FA6
:1013A000FF1FE20FF31F40815181641775078CF313
:1013B0008D919C9111970196880F991F280F391FC5
:1013C000F901718360838D919C911197019611961B
:1013D0009C938E9381E0DF91CF91089580E0FBCFC5
:1013E000CF92DF92EF92FF929C01909370038093D3
:1013F0006F038091340D61E0232B09F060E00E94BF
:1014000094040E948A066B017C010E948A066C1972
:101410007D098E099F096430710581059105A8F346
:1014200060E08091320D0E9494040E948A066B0154
:101430007C010E948A066C197D098E099F0964301F
:10144000710581059105A8F3FF90EF90DF90CF9093
:1014500008950F931F93CF93DF938091670390912B
:10146000680301969093680380936703B0E0A0E05F
:1014700040915D0350915E0360915F037091600342
:1014800084179507A607B70709F0C7C03091660310
:10149000209165038091630390916403C09161037F
:1014A000D091620340916B064111A7C0811540E1C4
:1014B000940710F08FEF9FE0332309F4B3C030910D
:1014C0006E063F5F30936E06409170065091710634
:1014D000480F591F50937106409370062223D9F08C
:1014E00030916F063F5F30936F06409172065091C6
:1014F0007306480F591F509373064093720640E0DD
:1015000050E8842B952B211117C030E020E016C045
:1015100010926C0630C09068F8CF20916F062F5F54
:1015200020936F062091720630917306280F391FA1
:10153000309373062093720620E030E440916C06ED
:10154000E42FF0E0DF01AA0FBB1FA558BA4F6D9141
:101550007C911197EE0FFF1FED50FA4F0081118122
:10156000822B932B8D939C93D183C0834F5F4C33FD
:1015700079F240936C0680916D068C3318F48F5F7E
:1015800080936D0676FB442740F99B013F7077FFFF
:1015900019C080916E06815080936E06809170060E
:1015A00090917106821B930B909371068093700645
:1015B0008091740690917506801B910B909375062F
:1015C000809374064423C9F080916F068150809304
:1015D0006F068091720690917306821B930B909315
:1015E0007306809372068091760690917706801B31
:1015F000910B909377068093760610926603109273
:1016000065031092640310926303109262031092B8
:1016100061031092680310926703DF91CF911F91CD
:101620000F910895211179CF50E040E06ACFAF9239
:10163000BF92CF92DF92EF92FF920F931F93CF93BF
:10164000DF93EC016A01FB014130510509F06DC0E7
:101650006A30710510F0E9E0F0E0CF016AE070E077
:101660000E948852DC01AA0FBB1FA85DBD4F8D915F
:101670009C91222309F46AC08095909599277E0158
:1016800044E0F694E7944A95E1F7BE016F7077273E
:101690004FEF50E06115710511F440E05FEFEE0C83
:1016A000FF1CD701A15CBC4F7D01AD90BC90119790
:1016B0004A215B2102C0880F991F6A95E2F7842BAB
:1016C000952B8D939C93B1E0CB16D10419F1102F7B
:1016D000289681E0C81AD108CF016AE070E00E9424
:1016E000885200E0A601CE010E94170B112391F051
:1016F000CF70DD2781E090E002C0880F991FCA9566
:10170000E2F780959095F701208131818223932320
:1017100091838083DF91CF911F910F91FF90EF9084
:10172000DF90CF90BF90AF9008954230510539F4CB
:101730006436710508F491CFE3E6F0E08ECF683EA1
:10174000734008F48ACFE7EEF3E087CF8DEF90E0A7
:1017500096CF0F93262F6AE070E00E94885200E037
:1017600042E050E080E990E00E94170B0F9108954D
:101770000F939093B70E8093B60E2091A90E3091DF
:10178000AA0E232BF1F04091A90E5091AA0E21E050
:101790004130510509F020E070E060E084309105AF
:1017A00028F4845C9D4FFC01608170E081E0282773
:1017B00000E042E050E080E690E00E94170B0F91BD
:1017C000089521E0E9CF0F939093B50E8093B40E66
:1017D0002091A90E3091AA0E232BC1F04091A90EA1
:1017E0005091AA0E21E04130510509F020E031E08E
:1017F00023276AE070E00E94885200E042E050E057
:1018000080E590E00E94170B0F91089521E0EFCF43
:101810000F939093B30E8093B20E6AE070E00E9433
:10182000885200E021E042E050E080E490E00E9435
:10183000170B0F9108950F939093B10E8093B00EF4
:101840006AE070E00E94885200E021E042E050E04F
:1018500080E390E00E94170B0F9108950F938093FF
:10186000AF0E4091A90E5091AA0E21E043305105D0
:1018700009F420E000E041E050E0BC0188E190E0A4
:101880000E94170B0F9108950F938093AE0E409115
:10189000A90E5091AA0E21E04330510509F420E031
:1018A00000E042E050E0BC0180E290E00E94170BB3
:1018B0000F9108950F932091A90E3091AA0E233015
:1018C0003105A9F46093AB0E01E021E043E050E064
:1018D0006115710531F400E020E043E050E070E074
:1018E00060E090E080E00E94170B0F9108959093C4
:1018F000AD0E8093AC0E00E021E043E050E0BC016F
:10190000F0CFCF93DF93AFEFB0E0FC01C4E0F695EA
:10191000E795CA95E1F7AC014F7055272FEF30E0FE
:101920004115510511F420E03FEFEE0FFF1FE15C80
:10193000FC4FC081D1812C233D23ED0102C0CC0F8F
:10194000DD1F4A95E2F7AE012C2B352B3183208326
:101950006130710521F0615071090896D6CFDF9191
:10196000CF910895FC01329763E070E090E080E051
:10197000E930F10598F48827EF53F34F8F4F0C941B
:10198000A453D00CCA0CD50CDA0CDF0CE40CE90C17
:10199000EE0CF30C62E070E080E290E00C94810CBD
:1019A00061E070E088E190E0F9CF62E070E080E310
:1019B00090E0F4CF62E070E080E490E0EFCF62E08E
:1019C00070E080E590E0EACF62E070E080E690E0D1
:1019D000E5CF62E070E080E790E0E0CF62E070E0A9
:1019E00080E890E0DBCF62E070E080E990E0D6CF65
:1019F000EFE3F3E08FEF9FEF8193919323E0E335E3
:101A0000F207D1F70895CF92DF92EF92FF92C09044
:101A10003803D0903903E0903A03F0903B032091D3
:101A20000702222389F06C157D058E059F0539F08C
:101A300060E0842F0E94940481E080933703FF903C
:101A4000EF90DF90CF9008956C157D058E059F0572
:101A5000B1F361E0EECF0F931F9300913303109128
:101A600034032091350330913603DC01CB01801B18
:101A7000910BA20BB30B20910602222341F060E0F0
:101A80004497A105B10540F41F910F910895069761
:101A9000A105B105C8F361E0842F0E94940481E0A0
:101AA00080933203F1CFDC01ED91FD918081ED91C6
:101AB000FD919081ED91FD916C9163708E2309F001
:101AC00064609F2309F06860E0E7FDE0E60FF11D28
:101AD000659565956D936D917D918D919D9109941D
:101AE00023C01AC012C016C010C01EC009C014C046
:101AF00013C006C019C009C00DC007C00DC014C076
:101B000062507040804090400BC0615070408040F7
:101B1000904006C06E5F01C06F5F7F4F8F4F9F4F39
:101B20009E938E937E936E93089580916D0D909108
:101B30006E0D0C94530D80916F0D9091700D0C945F
:101B4000530D8091710D9091720D0C94530D8091F5
:101B5000730D9091740D0C94530D8091750D9091AF
:101B6000760D0C94530D8091770D9091780D0C9417
:101B7000530D0F931F938091840D823008F053C052
:101B8000F89489E79DE00E94530D6091800D70915B
:101B9000810D8091820D9091830D789400912203A4
:101BA000109123032091240330912503601B710BB6
:101BB000820B930B20912603309127034091280339
:101BC000509129030E94D25280912E0390912F03AD
:101BD000A0913003B0913103281739074A075B07FA
:101BE00044F420912E0330912F0340913003509103
:101BF000310380912A0390912B03A0912C03B09183
:101C00002D0382179307A407B50744F420912A03F4
:101C100030912B0340912C0350912D03CA01B9013F
:101C20001F910F910895F894B0CF8091840D823068
:101C3000B8F4F89489E79DE00E94530D8091800DDF
:101C40009091810DA091820DB091830D7894809335
:101C5000220390932303A0932403B09325030895B4
:101C6000F894ECCFEBEBFEE083858260838783857D
:101C70008B7F83878385877F838783858F7E838719
:101C800083858F7D838780E89FEFAFEFBFEF8093E1
:101C90002E0390932F03A0933003B093310380E879
:101CA00090E0A0E0B0E080932A0390932B03A093F0
:101CB0002C03B0932D0384E090E0A0E0B0E080938B
:101CC000260390932703A0932803B09329030C9431
:101CD000150E10929B0310929C0310929D0310927C
:101CE0009E03EBEBFEE08681877F868386818F7E75
:101CF000868386818F7D868386818F7B8683089508
:101D00000E948A0660939B0370939C0380939D03BB
:101D100090939E0308958091880D9091890DA091D4
:101D20008A0DB0918B0D803F9F4FAF4FBF4FD9F4BD
:101D300080918C0D90918D0DA0918E0DB0918F0D95
:101D4000803F9F4FAF4FBF4F71F481E04091900DA6
:101D50005091910D6091920D7091930D403F5F4FA6
:101D60006F4F7F4F09F080E008958091880D90912A
:101D7000890DA0918A0DB0918B0D8C3F9C4FAC4F7B
:101D8000BC4FD9F480918C0D90918D0DA0918E0D4A
:101D9000B0918F0D8C3F9C4FAC4FBC4F71F481E0E4
:101DA0004091900D5091910D6091920D7091930D15
:101DB0004C3F5C4F6C4F7C4F09F080E00895809160
:101DC000880D9091890DA0918A0DB0918B0D803C6A
:101DD0009F4FA04CBF4FD9F480918C0D90918D0DE9
:101DE000A0918E0DB0918F0D803C9F4FA04CBF4FA6
:101DF00071F481E04091900D5091910D6091920DA0
:101E00007091930D403C5F4F604C7F4F09F080E034
:101E100008958091880D9091890DA0918A0DB091BF
:101E20008B0D0F97AC40B048D1F480918C0D909100
:101E30008D0DA0918E0DB0918F0D0F97AC40B10517
:101E400071F481E04091900D5091910D6091920D4F
:101E50007091930D4F3F51056C40710509F080E082
:101E600008958091880D9091890DA0918A0DB0916F
:101E70008B0D0F97A105B04FD1F480918C0D9091EF
:101E80008D0DA0918E0DB0918F0D0F97A105B1050D
:101E900071F481E04091900D5091910D6091920DFF
:101EA0007091930D4F3051056105710509F080E087
:101EB00008950E94090F811113C00E94310F8111F2
:101EC00012C00E94DF0E811111C00E94B50E811157
:101ED00010C00E948B0E81110FC090E080E0089529
:101EE00081E090E0089582E090E0089583E090E042
:101EF000089584E090E0089585E090E00895EBEB8C
:101F0000FEE081818B7F818381818D7F81838081D0
:101F10008F77808380818F7B808380818B7F80839C
:101F20008081877F808380818F7E808380818F7D89
:101F3000808380818E7F808380818D7F80830895E0
:101F40002091850D3091860DA90102C056954795C7
:101F50008A95E2F7CA01817008958F929F92AF929D
:101F6000BF92CF92DF92EF92FF920E94B90D4B0188
:101F70005C010E94150E81149104A104B104C9F101
:101F800080910302C82ED12CF12CE12C60E071E08D
:101F900080E090E06C197D098E099F092CE030E00B
:101FA00040E050E00E94D2522F5F3F4F4F4F5F4FB3
:101FB000C501B4010E947852A7019601261B370B78
:101FC000480B590BDA01C9018E319105A105B10504
:101FD00024F48EE190E0A0E0B0E08F3F9105A105F0
:101FE000B10529F024F08FEF90E0A0E0B0E08093FD
:101FF0000302FF90EF90DF90CF90BF90AF909F9043
:102000008F900895EBEBFEE087818D7F878387813A
:10201000877F878387818B7F87830E94320E109210
:102020001503109214031092A1031092A2031092B0
:10203000A3031092A40310925D0310925E0310920A
:102040005F0310926003089569E20C943A0367E11C
:102050000C943A0366E10C943A0364E10C943A035D
:10206000E82FF0E093E0F595E7959A95E1F7E554D0
:10207000F14F208130E08770A90102C05595479546
:102080008A95E2F7CA018170089587E10C943010B7
:1020900084E10C94301083E10C94301080E10C94B6
:1020A000301070E0FB01F595E795F595E795660F23
:1020B000771F6670EC56F24F408123E030E0062E29
:1020C00001C0220F0A94EAF72095242301C0880F4B
:1020D0006A95EAF7282B20830895CF93DF93EC01CC
:1020E0008091960D90E024E0959587952A95E1F7EB
:1020F00083708C171D0641F0209731F48091B60E45
:102100009091B70E0E94B80B6AE0CE01DF91CF919B
:102110000C945110CF93DF93EC018091960D90E0D9
:10212000959587959595879583708C171D0641F039
:10213000209731F48091B40E9091B50E0E94E30B7C
:1021400069E0CE01DF91CF910C945110CF93DF93D2
:10215000EC018091960D83708C171D0641F020973D
:1021600031F48091B20E9091B30E0E94080C68E099
:10217000CE01DF91CF910C945110CF93DF93EC01FE
:102180008091950D90E026E0959587952A95E1F749
:10219000C817D90741F0209731F48091B00E909183
:1021A000B10E0E941B0C67E0CE01DF91CF910C9421
:1021B0005110CF93DF93EC018091950D90E024E0D6
:1021C000959587952A95E1F783708C171D0639F050
:1021D000209729F48091AF0E90E00E942E0C66E0CB
:1021E000CE01DF91CF910C945110CF93DF93EC018E
:1021F0008091950D90E0959587959595879583703D
:102200008C171D0639F0209729F48091AE0E90E0CE
:102210000E94440C65E0CE01DF91CF910C945110E7
:10222000CF93DF93EC018091950D83708C171D0681
:1022300059F0209749F46091AB0E8091AC0E9091CB
:10224000AD0E70E00E945A0C64E0CE01DF91CF9198
:102250000C94511064E090E080E00E94511065E021
:1022600090E080E00E94511066E090E080E00E94E3
:10227000511067E090E080E00E94511068E090E02B
:1022800080E00E94511069E090E080E00E945110CF
:102290006AE090E080E00E94511060E090E080E011
:1022A0000E94511061E090E080E00E94511062E0D5
:1022B00090E080E00E945110EBEBFEE081858F778B
:1022C000818782858E7F828782858D7F82878285C6
:1022D0008B7F82878285877F828782858F7E8287B8
:1022E00082858F7D82870895CF93DF93FC012085BF
:1022F000318590E080E02115310501F12430310570
:1023000001F54081518182819381B0E0A0E0840F8A
:10231000951FA11DB11D24813581820F931FA11D21
:10232000B11D26813781820F931FA11DB11D22E0AF
:10233000B595A795979587952A95D1F7DF91CF9178
:10234000089582859385C3E0D0E0892B19F0C2857A
:10235000D385219760E070E0CB0150E040E0DE01E2
:10236000AA0FBB1FAE0FBF1F0D90BC91A02D6A0F0F
:102370007B1F811D911D209761F021974F5F5F4F5B
:102380002417350761F750E040E00E94D252C9019E
:10239000D5CFC3E0D0E0F2CFFC01A285B385AA0F70
:1023A000BB1FAE0FBF1F11967C936E9382859385E2
:1023B00001969387828782859385049711F413860B
:1023C000128680859185049730F4808591850196E9
:1023D00091878087089584E090E0FACFCF93DF93D0
:1023E0009C01FC01E459FE4F8081811151C0D9014B
:1023F000A659BE4F4D915C911197443B510509F48C
:1024000044C08D919C911197E901C359DE4F4881D9
:1024100059814F3F5F4F19F4998388830CC0E8813D
:10242000F9813196EE0FFF1FE20FF31F40815181BA
:10243000461757078CF3E901C159DE4F488159818E
:10244000443B510519F4998388830CC0E881F981D4
:102450003196EE0FFF1FE20FF31F40815181641789
:1024600075078CF38D919C9111970196880F991F98
:10247000280F391FF901718360838D919C91119709
:10248000019611969C938E9381E0DF91CF910895F0
:1024900080E0FBCFCF93DF939C01FC01E059FD4F1F
:1024A0008081811151C0D901A259BD4F4D915C91DC
:1024B00011974633514009F444C08D919C91119776
:1024C000E901CF58DD4F488159814F3F5F4F19F4E3
:1024D000998388830CC0E881F9813196EE0FFF1F44
:1024E000E20FF31F40815181461757078CF3E90132
:1024F000CD58DD4F488159814633514019F49983B5
:1025000088830CC0E881F9813196EE0FFF1FE20F3E
:10251000F31F40815181641775078CF38D919C9155
:1025200011970196880F991F280F391FF9017183A0
:1025300060838D919C911197019611969C938E9337
:1025400081E0DF91CF91089580E0FBCF89EC97E0A7
:102550000E94240905966AE070E00E9488528091EA
:102560009E0E90919F0E681B790B6A30710514F0D6
:102570000C945403089521E001C0220F6A95EAF7F4
:10258000DC011C962C931C971A965C934E9319971A
:10259000ED91FC910484F585E02D60E01994DC0157
:1025A000ED91FC910684F785E02D41E0199581E0DD
:1025B00090E00895DC01ED91FC910684F785E02D13
:1025C00040E019940F931F93CF93DF9300D000D076
:1025D0001F921F92CDB7DEB7009120021091210209
:1025E00020912202309123020D831E832F8338878E
:1025F0000091240210912502209126023091270299
:1026000009831A832B833C839091E60E691710F09F
:102610006FEF690F262F30E04091E70E2C0F3D1F22
:10262000F901403199F4943089F46181680F606850
:102630008FED9EE028960FB6F894DEBF0FBECDBF9B
:10264000DF91CF911F910F910C94DA126581EECF3B
:1026500061E00E94DA128BE39FE10197F1F70895A0
:102660000F931F93CF93DF93EC01423018F08C81CE
:1026700088608C834F836887222329F0413019F4C6
:102680008C8184608C8364E670E080E090E00E943E
:1026900058066C8164FD50C0E881F9810684F78595
:1026A000E02D42E063E0CE0119950BE416E4C80189
:1026B0000197F1F7E881F9810684F785E02D42E082
:1026C00063E0CE011995C8010197F1F7E881F9811E
:1026D0000684F785E02D42E063E0CE01199583E59D
:1026E00092E00197F1F7E881F9810684F785E02D02
:1026F00042E062E0CE0119956C816062CE010E94D9
:10270000DA1284E08D836CE0CE010E94DA12CE01F1
:102710000E94281382E08E8366E0CE010E94DA12C6
:10272000E881F9810484F585E02D6FEFCE01DF911A
:10273000CF911F910F9119946062CE010E94DA121D
:102740008BE496E40197F1F76C816062CE010E9400
:10275000DA1283E592E00197F1F76C816062CE01B5
:102760000E94DA12C9CF08950895089590E080E09C
:102770000895CF92DF92EF92FF920F931F93CF9322
:10278000DF93FC012381222309F4F1C0262F61810C
:10279000609562236083C28181E08093C803C09307
:1027A00012031092EC031092EB0380E297E00E9478
:1027B000BF08D091EB0321E0D13208F09AC00E940B
:1027C00033066B017C0180913B0481116CC082E077
:1027D00080933B0481E080933D048FEF80933A0423
:1027E00010925F04D0935E04A8EAB3E0EEE3F4E055
:1027F00080E0D81394C01092600480916004CC0FE4
:10280000C82BC093600480913C04813009F08BC0D8
:1028100010923C040E9433066B017C01809160049D
:102820008093BB008091EE039091EF03A091F003A1
:10283000B091F103892B8A2B8B2BA1F00E943306D8
:102840000091EE031091EF032091F0033091F1031A
:102850006C197D098E099F09061717072807390784
:1028600008F442C08091BC0083FDD8CF85EC8093F2
:10287000BC000E9433066B017C0180913B048230D6
:1028800009F453C080913A0420E08F3F91F1809188
:102890003A0422E0803269F180913A0424E08033E6
:1028A00041F523E026C08091EE039091EF03A091C3
:1028B000F003B091F103892B8A2B8B2B09F483CF82
:1028C0000E9433060091EE031091EF032091F00374
:1028D0003091F1036C197D098E099F0906171707BE
:1028E0002807390708F06FCF8091ED030E94460852
:1028F00025E01092EC031092EB031092C80330E035
:1029000081E090E0232B11F090E080E0DF91CF9107
:102910001F910F91FF90EF90DF90CF9008959D91C0
:1029200091938F5F66CF85EEA2CF8091EE03909159
:10293000EF03A091F003B091F103892B8A2B8B2B2D
:1029400009F49BCF0E9433060091EE031091EF0330
:102950002091F0033091F1036C197D098E099F09D4
:10296000061717072807390708F087CFBDCF30E0D3
:1029700020E0C6CFEF92FF920F931F93CF938C016D
:10298000FC0184E0C0E0262F30E060FF02C09589A2
:10299000C92BB90175956795815031968111F3CF97
:1029A000413011F4F8014489F8016585C62BC42B28
:1029B0007801FEE0EF0EF11CF80162896C2BC70173
:1029C0000E94B913F801628960956C23C701CF9109
:1029D0001F910F91FF90EF900C94B9130F931F93D9
:1029E000CF93DF93062F0F70423041F440E0602F09
:1029F000DF91CF911F910F910C94BA14142FEC0119
:102A000070E084E0759567958A95E1F7CE010E94A4
:102A1000BA14412F602FCE01EBCFFC0184858823AF
:102A2000A1F0218532852115310521F4611107C0FE
:102A3000158606C021303105D9F76111F9CF858798
:102A40006585CF010E960C94B913089561E087E176
:102A50000E94200560E087E10E949404FFCF61E0BE
:102A60008AE00E94200561E082E00E94200561E08A
:102A700083E00E94200561E084E00E94200561E07F
:102A800085E00E94200561E086E00E94200561E06B
:102A900087E00E94200561E089E00E94200561E056
:102AA00088E00E94200561E08CE00E94200561E042
:102AB0008BE00E94200561E08EE20E94200561E02B
:102AC00088E20E94200561E089E20E94200561E021
:102AD0008AE20E94200561E08BE20E94200561E00D
:102AE0008CE20E94200561E081E30E94200561E004
:102AF00083E30E94200561E084E30E94200561E0F9
:102B000085E30E94200561E08EE00E94200561E0DF
:102B10008FE00E94200561E080E10E94200561E0D5
:102B200080E30E94200561E086E20E94940461E057
:102B300086E20E94200561E087E10E94940460E043
:102B400087E10E9420056DEC70E08AE00E945C0540
:102B500060E082E00E94940460E083E00E949404BC
:102B600060E084E00E94940460E085E00E949404A8
:102B700060E086E00E94940460E087E00E94940494
:102B800060E089E00E94940460E088E00E94940480
:102B900060E08CE00E94940460E08BE00E9494046A
:102BA00060E08EE20E94940460E088E20E94940457
:102BB00060E089E20E94940460E08AE20E9494044A
:102BC00060E08BE20E94940461E08CE20E94940435
:102BD00060E081E30E94940460E083E30E94940437
:102BE00060E084E30E94940460E085E30E94940422
:102BF00060E080E30C94940462E081E10E9420058F
:102C000060E082E10E94200560E083E10E942005EF
:102C100062E081E10E94200562E081E20E942005DD
:102C200062E080E20E94200562E08DE20E942005C1
:102C300062E082E20E94200562E084E20E942005B8
:102C400062E083E20E94200562E087E20E942005A4
:102C500062E085E20E94200562E08FE20E9420058A
:102C600062E086E10E94200562E084E40E94200583
:102C700062E085E40E94200562E083E40E94200572
:102C800060E086E30E94200560E087E30E94200563
:102C900060E081E40E94200560E08DE00C94200556
:102CA000EF92FF920F931F93CF93DF938B0198E0E6
:102CB000899FB001112460648FED9EE00E94DA12BA
:102CC00083E790E00197F1F7E801085F1F4F8BE978
:102CD000E82EF12C69918FED9EE00E94CF12C70182
:102CE0000197F1F70C171D07A9F7DF91CF911F91FD
:102CF0000F91FF90EF90089560E086E00E949404A9
:102D000060E087E00E94940460E089E00E949404FF
:102D100060E088E00C949404CF93DF93EC010E9470
:102D20007C1661E086E0209741F087E0C130D10554
:102D300021F089E0239709F088E0DF91CF910C948E
:102D40009404CF93DF93EC018091970D90E026E0FF
:102D5000959587952A95E1F7C817D90741F02097EF
:102D600031F48091A90E9091AA0E0E948C166FE00A
:102D7000CE01DF91CF910C945110CF93DF93EC01F2
:102D80008091970D90E024E0959587952A95E1F73D
:102D900083708C171D0641F0209731F48091A90EA5
:102DA0009091AA0E0E948C166EE0CE01DF91CF9119
:102DB0000C945110CF93DF93EC018091970D90E02C
:102DC000959587959595879583708C171D0641F08D
:102DD000209731F48091A90E9091AA0E0E948C1632
:102DE0006DE0CE01DF91CF910C945110CF93DF9322
:102DF000EC018091970D83708C171D0641F0209790
:102E000031F48091A90E9091AA0E0E948C166CE06C
:102E1000CE01DF91CF910C94511090E080E00E94A0
:102E2000F61690E080E00E94DA1690E080E00E94C2
:102E3000BD1690E080E00C94A1162091A90E30916F
:102E4000AA0E8091970E9091980E2817390709F0D5
:102E5000B6C00E940D178091A90E9091AA0E0E94F3
:102E60008C168091A90E9091AA0E039799F49091D7
:102E7000AB0E8091990E9813C8C090E080E00E943C
:102E800010116091AB0E8091AC0E9091AD0E70E080
:102E90000E945A0C8091A90E9091AA0E0397B9F145
:102EA0002091AC0E3091AD0E80919A0E90919B0EB8
:102EB0002817390709F0AEC090E080E00E94101199
:102EC0006091AB0E8091AC0E9091AD0E70E00E94BF
:102ED0005A0C9091AF0E80919D0E9813A0C090E077
:102EE00080E00E94D9108091AF0E90E00E942E0CDD
:102EF0009091AE0E80919C0E981396C090E080E069
:102F00000E94F5108091AE0E90E00E94440C20913A
:102F1000B20E3091B30E8091A00E9091A10E2817A1
:102F2000390709F086C090E080E00E94A6108091E9
:102F3000B20E9091B30E0E94080C2091B00E309109
:102F4000B10E80919E0E90919F0E2817390709F0BF
:102F500075C090E080E00E94BD108091B00E90910D
:102F6000B10E0E941B0C2091B40E3091B50E8091D1
:102F7000A20E9091A30E2817390709F064C090E0C3
:102F800080E00E948A108091B40E9091B50E0E944C
:102F9000E30B2091B60E3091B70E8091A40E909164
:102FA000A50E2817390709F053C090E080E00E9471
:102FB0006D108091B60E9091B70E0C94B80B809165
:102FC000A90E9091AA0E892B29F481E090E00E942D
:102FD000F61647CF8091A90E9091AA0E019729F479
:102FE00081E090E00E94DA163CCF8091A90E90918A
:102FF000AA0E039729F481E090E00E94BD1631CF1C
:1030000081E090E00E94A1162CCF81E090E00E9428
:10301000101140CF81E090E00E9410115ACF81E062
:1030200090E00E94D91064CF81E090E00E94F510FA
:103030006ECF81E090E00E94A6107FCF81E090E00B
:103040000E94BD1090CF81E090E00E948A10A1CF35
:1030500081E090E00C946D1060E190E080E00E94CF
:10306000511061E190E080E00E94511062E190E037
:1030700080E00E94511063E190E080E00E945110D6
:1030800060E082E00E94940460E083E00E94940487
:1030900060E084E00E94940460E085E00C94940475
:1030A000CF93DF93909305028093040280919F0356
:1030B0009091A0030197A9F08091A90E9091AA0E7A
:1030C0000E948C16C0919F03D091A0030E942C18DF
:1030D000C230D10581F040F0C330D10571F02497A2
:1030E00071F0DF91CF91089560E182E090E0DF918F
:1030F000CF910C94511061E1F8CF62E1F6CF63E11A
:10310000F4CFCF92DF92EF92FF920E94B90D6B0144
:103110007C010E94150E8091F11290E0B0E0A0E0D9
:10312000CC0CDD1CEE1CFF1CC80ED91EEA1EFB1EBB
:1031300023ECC216D104E104F1042CF433ECC32EC9
:10314000D12CE12CF12C2BEFC216D104E104F104B7
:103150002CF02AEFC22ED12CE12CF12C8C199D09D8
:10316000AE09BF090196A11DB11D0397A105B105C7
:1031700010F1C092F112D0920102C0920002B60189
:103180008AE00E945C05A1E0BFEFA70196010E94C2
:10319000FF522FEF30E040E050E00E94D252DA01BF
:1031A000C90181509F4FAF4FBF4FFF90EF90DF900D
:1031B000CF900C945018FF90EF90DF90CF9008952F
:1031C0000F931F93CF93DF93D0E0C0E0082F10E060
:1031D000B8010C2E02C0759567950A94E2F76170EC
:1031E0008091A10F0E94940461E08091A00F0E9441
:1031F000940460E08091A00F0E9494042196C8304E
:10320000D10531F7DF91CF911F910F9108956CE0B7
:1032100090E080E00E9451106DE090E080E00E941C
:1032200051106EE090E080E00E9451106FE090E05D
:1032300080E00E94511060E190E080E00E94511017
:1032400061E190E080E00E94511062E190E080E056
:103250000E94511063E190E080E00E9451100E94B2
:103260002C1860E08CE00E94940460E08BE00E94E7
:1032700094040C947C164F925F926F927F928F927F
:103280009F92AF92BF92EF92FF920F931F93CF93B3
:10329000DF93EC01062FF42EE22E8B85888B1092A3
:1032A000EA031092E9031092EC031092EB030E94E0
:1032B000280887E698E0909314048093130488E626
:1032C00098E0909318048093170488E08093B800E6
:1032D00018890E9433064B015C0180913B048111E7
:1032E00064C081E080933B0480933D049FEF909302
:1032F0003A0410925F0410925E04809360048091FF
:103300006004110F182B1093600480913C048130ED
:1033100009F09DC010923C040E9433064B015C01F1
:10332000809160048093BB008091EE039091EF0345
:10333000A091F003B091F103892B8A2B8B2BA1F084
:103340000E9433064090EE035090EF036090F0032C
:103350007090F103681979098A099B094616570686
:103360006806790608F442C08091BC0083FDD8CF7E
:1033700085EC8093BC000E9433064B015C01809178
:103380003B04813009F465C080915F04811183C0E2
:1033900080915F04EEE3F4E0A9ECB3E090E09817CD
:1033A00051F121912D939F5FFACF8091EE0390917F
:1033B000EF03A091F003B091F103892B8A2B8B2BA3
:1033C00009F48BCF0E9433064090EE035090EF0338
:1033D0006090F0037090F103681979098A099B09DC
:1033E000461657066806790608F077CF8091ED03F8
:1033F0000E94460880E01092EA038093E90391E07E
:10340000811101C090E0998B80E297E00E947808DA
:103410008E878989882339F01F861C8260E0CE015F
:103420000E960E94B9132E2D4F2D602FCE01DF91E5
:10343000CF911F910F91FF90EF90BF90AF909F9011
:103440008F907F906F905F904F900C94301385EE2B
:1034500090CF8091EE039091EF03A091F003B09193
:10346000F103892B8A2B8B2B09F489CF0E94330619
:103470004090EE035090EF036090F0037090F103E2
:10348000681979098A099B0946165706680679065C
:1034900008F075CFABCF81E07DCFCF93DF93DC0118
:1034A0009D012F5F3F4F8C91803281F0FD01019093
:1034B0000020E9F73197EA1BFB0BE150FF0BEA0F05
:1034C000FB1F8081803221F43197FBCFD901E8CFF7
:1034D000EA1BFB0BEF5F24E12E1B922F9695291B15
:1034E000C9EBD4E080E030E2981719F039938F5F90
:1034F000FBCF492F4E0F5527551FBA01492F50E0DA
:10350000461757077CF0260F372F311D80E2492FD1
:1035100050E0421753076CF447545B4FFA01808325
:103520009F5FF5CF8D9147545B4FFA0180839F5F7A
:10353000E5CF1092CD0489EB94E0DF91CF9108950F
:10354000FB0101900020E9F73197AF01461B570BB3
:10355000DC01ED91FC910280F381E02D1994CF9371
:10356000DF93682F89ED94E00E94F603EC016FE988
:1035700072E089ED94E00E94A01A8C0F9D1FDF91EC
:10358000CF910895CF93DF93D0E0C0E0009731F062
:10359000BC0189ED94E00E94A01AEC016FE972E091
:1035A00089ED94E00E94A01A8C0F9D1FDF91CF91AE
:1035B00008950F931F93CF93DF93182FEB01FB0117
:1035C000682F8191882311F0680FFBCFF8946195E3
:1035D00089E897E00E94B006612F89E897E00E9491
:1035E000B00610E000E0209731F0BE0189E897E0D6
:1035F0000E94A01A8C0160E089E897E00E94B00662
:1036000078948BE39FE10197F1F7FE010190002090
:10361000E9F73197EC1BFD0B81E0E017F10709F0AA
:1036200080E0DF91CF911F910F910895CF93C82F24
:1036300061EA72E0882351F08BE290E00E94D91A8F
:1036400061E481E08C27CF910C943A038AE290E008
:103650000E94D91A8BE39FE10197F1F7F1CFFF9216
:103660000F931F93CF93DF93CDB7DEB768970FB655
:10367000F894DEBF0FBECDBF8C01F62EBA01A901B2
:1036800024E130E0CE0101960E94DC471D8A85E1ED
:10369000F89E000D111D1124CE0101960E944D1AB5
:1036A00044E150E0BC01C8010E94FE53F801148AB5
:1036B00068960FB6F894DEBF0FBECDBFDF91CF91F5
:1036C0001F910F91FF900895CF92DF92FF920F9379
:1036D0001F93CF93DF93EC018C016C0188E0C80E3F
:1036E000D11C0C151D05B1F089ED94E00E94BE03BC
:1036F000892BD1F389ED94E00E949C03F82E082ECB
:10370000000C990B0E94ED51892B59F7F801F192A9
:103710008F01E7CF188681E0DF91CF911F910F9144
:10372000FF90DF90CF9008950E94EB5385ED80933A
:10373000BC008091EE039091EF03A091F003B09153
:10374000F1030796A11DB11D23E0B695A7959795A6
:1037500087952A95D1F72091BC0024FD03C01092D3
:103760003B0408954091EE035091EF036091F00304
:103770007091F103452B462B472B69F30097A10568
:10378000B10541F02AE22A95F1F700C00197A1099D
:10379000B109E1CF8091ED030C944608CF93DF93FC
:1037A000EC0144E550E060E270E00E94F0531C8AB6
:1037B00019A61EAECD5ADF4F1882DF91CF91089522
:1037C000FF920F931F93CF93DF93EC01F62E0881A6
:1037D0001981C8010E946252F81621F06F2DC801AC
:1037E0000E946A52CE01DF91CF911F910F91FF90FD
:1037F00008950F931F93CF93DF931F921F92CDB71E
:10380000DEB789E190E09A83898304E412E1F8014C
:10381000618DCE0101960E94E01B8AE190E09A83BF
:103820008983F801628DCE0101960E94E01B0F9002
:103830000F90DF91CF911F910F910895AF92BF929A
:10384000CF92DF92EF92FF920F931F93CF93DF936C
:103850001F921F92CDB7DEB78B016B0124E0C20E21
:10386000D11C7B015C01A61AB70AC5018E0D9F1DF4
:103870009A838983F70161917F01CE0101960E94AD
:10388000E01BEC14FD0489F7C8010F900F90DF9145
:10389000CF911F910F91FF90EF90DF90CF90BF904D
:1038A000AF900895CF92DF92EF92FF920F931F9304
:1038B000CF93DF93EB017B0124E0E20EF11C8B013F
:1038C0006C01C61AD70AC601800F911F0E9462526E
:1038D000F80181938F01EE15FF05A9F7CE01DF9165
:1038E000CF911F910F91FF90EF90DF90CF900895AF
:1038F000EF92FF920F931F93CF93DF93EC018FEF23
:10390000888389838A838B831C821D821E821F8207
:1039100018867E0110E000E0C8010E946252F701A3
:1039200081937F010F5F1F4F09301105A9F7CE0169
:10393000DF91CF911F910F91FF90EF9008952F92FB
:103940003F924F925F926F927F928F929F92AF922F
:10395000BF92CF92DF92EF92FF920F931F93CF937C
:10396000DF93CDB7DEB7C557D1090FB6F894DEBFE8
:103970000FBECDBF0FB607FE05C0A8950E946120FF
:103980000E94A11F0FB607FE0AC00E944B108111B2
:103990000E9426150E94451081110E94F21E8EE0A1
:1039A0000E943010182F8823E9F010920202812F14
:1039B000CB58DF4F0FB6F894DEBF0FBECDBFDF91FF
:1039C000CF911F910F91FF90EF90DF90CF90BF901C
:1039D000AF909F908F907F906F905F904F903F90AF
:1039E0002F9008958091BB0E8E7F8093BB0E8091A7
:1039F000BB0E8D7F8093BB0E0E94DF0EB82E81110F
:103A00000CC00E94B50EB82E811107C00E948B0E0B
:103A1000B82E811102C00E94A025CE0101966C0132
:103A2000AA24A3947E0195E5E90EF11C82EA282ED2
:103A300082E0382E9AE0892E912C80910202882310
:103A400009F453C0C6010E94CE1B23E234E040E0DB
:103A5000552760E0C6010E942F1B27E134E040E0BB
:103A6000552761E0C6010E942F1B29E034E040E0A9
:103A7000552762E0C6010E942F1B28E034E040E099
:103A8000552763E0C6010E942F1B89ED94E00E9438
:103A9000BE03892B51F189ED94E00E949C03883488
:103AA00021F50E94AF1AC6010E9469280E94D923FD
:103AB00089ED94E00E94BE03892BD1F389ED94E057
:103AC0000E949C03182F082E000C990B0E94ED51A8
:103AD000892B71F7123509F47DC10CF023C1133421
:103AE00009F467C1183409F444C10FB607FE05C0D4
:103AF000A8950E9461200E94A11F0FB607FE09C071
:103B00000E944B10811144CF0E94451081110E94E8
:103B1000F21E80E30E943010882309F4DDC00E9469
:103B200088238111D9C00E948A0600912B0D109123
:103B30002C0D20912D0D30912E0D601B710B820BE1
:103B4000930B683E73408105910508F4C5C00FB61C
:103B500007FE05C0A8950E9461200E94A11F89EC64
:103B600097E00E9424090596B4010E9488528B01B7
:103B7000CB010E949B2B80919F039091A003892BE6
:103B800009F4AAC080919F039091A003019709F4C2
:103B9000A3C00FB607FE05C0A8950E9461200E9431
:103BA000A11F0FB607FE09C00E944B108111F0CE75
:103BB0000E94451081110E94F21E85E20E94301081
:103BC000882309F489C080919E0E90919F0E801BDE
:103BD000910B05970CF476C0F0911603E696FFAFB3
:103BE000E69721E0209316031092380D8091BF0EC6
:103BF00082608093BF0E90E080E00E94F0091092F6
:103C0000370D1092360D8091380D811108C040E2B9
:103C100053E06EE57DE180E090E00E9411518091DB
:103C2000BF0E8D7F8093BF0E1092380D00916D03F3
:103C300010916E034090D70E5090D80E6090D90E20
:103C40007090DA0E81E090E01016110614F090E00A
:103C500080E00E94F0091092370D1092360D011588
:103C6000110571F08091380D81110AC0A80117FF6C
:103C700003C0519541955109C301B2010E941151F0
:103C8000E6968FADE697809316030FB607FE05C044
:103C9000A8950E9461200E94A11F89EC97E00E94D4
:103CA00024090596B4010E9488528B01CB010E9421
:103CB0009B2B8091C30E0A30110508F091C08F77BD
:103CC0008093C30E0E948A0660932B0D70932C0D77
:103CD00080932D0D90932E0D0FB607FE05C0A8956D
:103CE0000E9461200E94A11F0FB607FE09C00E941A
:103CF0004B1081114DCE0E94451081110E94F21E81
:103D000080E00E943010182F811105C00E941E3AD9
:103D1000882309F492CEB11002C00E94D9230E94D8
:103D20007F0F43CE163549F1183509F447C01535D4
:103D300009F0DBCEC7010E94781CF7012081318198
:103D400042815381648175815F934F933F932F9399
:103D50008681978100E20E94C7535F934F933F9300
:103D60002F933F922F92DF92CF920E940D54C60163
:103D700018C088E40E94AF1A9BCE4FEF53E060E07A
:103D80007727C6010E94D4471F92AF921F92AF922D
:103D90001F92AF92DF92CF92FF92EF920E940D544A
:103DA000C7010E94C21A0FB6F894DEBF0FBECDBF86
:103DB0007FCE80E00E94F92883E4DCCF80915D1201
:103DC00090915E129E7F90935E1280935D120E948E
:103DD000F91BDECD80915D1290915E129160F3CF60
:103DE00080686ECFCF93DF93CDB7DEB7C455D109CE
:103DF0000FB6F894DEBF0FBECDBF1FB7F89480E0BA
:103E00000E942D1080E00E942A108091BD0E8F7DAF
:103E10008093BD0E80E00E9427101FBF0E94FC15FA
:103E20000E942F1581E090E09093A00380939F0360
:103E30000E94FA2380E18093A1001092A00080E804
:103E40009EE39093A7008093A60081E18093A10058
:103E500080EB9BE39093AF048093AE0481E080936A
:103E600072000E94FA230E947C160E94F80C61E006
:103E700090E080E00E94A90B0E94022281E00E9453
:103E8000F928CE0101960E94CE1B0E94CF252EEA72
:103E900033E040E0552760E0CE0101960E942F1BE1
:103EA00025EA33E040E0552761E0CE0101960E940B
:103EB0002F1B24EA33E040E0552762E0CE01019653
:103EC0000E942F1B2FE833E040E0552763E0CE012E
:103ED00001960E942F1BCE0101960E9469288091B5
:103EE0005D1290915E12806890935E1280935D12D5
:103EF0000FB6F894A8958091600088618093600067
:103F0000109260000FBE0E949F1C8823E1F30E9464
:103F100026150FB607FE05C0A8950E9461200E94D5
:103F2000A11F0FB607FE0AC00E944B1081110E940C
:103F300026150E94451081110E94F21E8BE00C9400
:103F400030101F93CF93DF93CDB7DEB7C455D1099F
:103F50000FB6F894DEBF0FBECDBF80911103811163
:103F60001BC081E0809311030E948A358823F9F0F9
:103F70008091BC0E8F778093BC0E84E5E8EFFEE065
:103F8000DE01119601900D928A95E1F7CE0101961E
:103F90000E947C2C10921103CC5ADF4F0FB6F8947C
:103FA000DEBF0FBECDBFDF91CF911F9108950E945C
:103FB00048108111EFCF0E94891F882359F3809107
:103FC000BC0E877F8093BC0E0E947F0FCE010196AE
:103FD0000E94CE1B2BE733E040E0552760E0CE0186
:103FE00001960E942F1B26E633E040E0552761E052
:103FF000CE0101960E942F1B21E533E040E05527BA
:1040000062E0CE0101960E942F1B2CE333E040E0DA
:10401000552763E0CE0101960E942F1BCE01019629
:104020000E9469280E94590F90931C0380931B03E0
:104030000E9462251FB7F8948091BD0E8E7F8093F9
:10404000BD0E8091BD0E8D7F8093BD0E8091BD0E03
:104050008B7F8093BD0E8091BD0E877F8093BD0EB8
:1040600081E00E942D108091BD0E8F7D8093BD0E4A
:1040700080E00E942A1080E00E9427101FBF10924B
:104080009100109295001092940080E1809391002D
:1040900081CF0FB607FE05C0A8950E9461200E943F
:1040A000A11F0FB607FE0AC00E944B1081110E948B
:1040B00026150E94451081110E94F21E8CE00C947E
:1040C00030101F93CF93DF93CDB7DEB7C455D1091E
:1040D0000FB6F894DEBF0FBECDBF809116038823C4
:1040E00069F010921003CC5ADF4F0FB6F894DEBF80
:1040F0000FBECDBFDF91CF911F9108958091100326
:104100008111F1CF81E0809310030E948A358823CA
:1041100099F08091BC0E8F778093BC0E84E5E8EF18
:10412000FEE0DE01119601900D928A95E1F7CE0135
:1041300001960E947C2CD5CF0E944E108111D1CFC8
:104140000E944920882369F28091BC0E8F7E809363
:10415000BC0E0E947F0FCE0101960E94CE1B27E26B
:1041600033E040E0552760E0CE0101960E942F1B0E
:1041700022E133E040E0552761E0CE0101960E9444
:104180002F1B2DEF32E040E0552762E0CE01019673
:104190000E942F1B28EE32E040E0552763E0CE015D
:1041A00001960E942F1BCE0101960E9469280E9451
:1041B000590F90931C0380931B030E9462251FB725
:1041C000F8948091BD0E81608093BD0E8091BD0EEC
:1041D0008D7F8093BD0E8091BD0E8B7F8093BD0E31
:1041E0008091BD0E877F8093BD0E80E00E942D10D0
:1041F0008091BD0E8F7D8093BD0E80E00E942A10BD
:1042000080E00E9427101FBF10929100109295002D
:104210001092940080E18093910063CF0F93FC0192
:104220003297E930F10578F48827E65EFE4D8F4F2E
:104230000C94A45333212D213921402147214E21B3
:104240005521792198216091AB0E8091AC0E90910F
:10425000AD0E70E00F910C945A0C8091AE0E90E070
:104260000F910C94440C8091AF0E90E00F910C9440
:104270002E0C8091B00E9091B10E0F910C941B0CEE
:104280008091B20E9091B30E0F910C94080C809116
:10429000B40E9091B50E0F910C94E30B8091B60E75
:1042A0009091B70E0F910C94B80B0FB607FE05C096
:1042B000A8950E9461200E94A11F0FB607FE0AC0A8
:1042C0000E944B1081110E9426150E9445108111F9
:1042D0000E94F21E86E50E94301000E0282F42E086
:1042E00050E070E060E080E790E00E94170B0F91D3
:1042F00008950FB607FE05C0A8950E9461200E9490
:10430000A11F0FB607FE08C00E944B108111DBCF22
:104310000E9445108111DCCF87E50E94301000E03B
:10432000282F42E050E070E060E080E890E0DDCFD0
:104330000FB607FE05C0A8950E9461200E94A11F2C
:104340000FB607FE08C00E944B108111BCCF0E941F
:1043500045108111BDCF88E50E943010682F90E094
:1043600080E00F910C94A90B0F931F9300915903B8
:1043700010915A0320915B0330915C03DC01CB0167
:10438000801B910BA20BB30B20910902222369F031
:104390004497A105B10530F0CA010E94B20C81E03A
:1043A000809358031F910F9108950697A105B105B9
:1043B000C8F3CA010E940E21F2CF0F931F93009100
:1043C0005403109155032091560330915703E09107
:1043D0000802EE2371F0601771078207930731F02E
:1043E000CA010E94B20C81E0809353031F910F9188
:1043F00008956017710782079307C1F3CA010E94ED
:104400000E21F1CF0FB607FE05C0A8950E946120CE
:104410000E94A11F0FB607FE0AC00E944B10811117
:104420000E9426150E94451081110E94F21E8FE401
:104430000E943010882331F063E070E090E080E06B
:104440000E94810C0FB607FE05C0A8950E9461204E
:104450000E94A11F0FB607FE08C00E944B108111D9
:10446000DFCF0E9445108111E0CF80E50E9430101F
:10447000882331F062E070E080E290E00E94810CDD
:104480000FB607FE05C0A8950E9461200E94A11FDB
:104490000FB607FE08C00E944B108111C1CF0E94C9
:1044A00045108111C2CF81E50E943010882331F080
:1044B00061E070E088E190E00E94810C0FB607FE99
:1044C00005C0A8950E9461200E94A11F0FB607FE9B
:1044D00008C00E944B108111A3CF0E94451081118A
:1044E000A4CF82E50E943010882331F062E070E0B2
:1044F00080E390E00E94810C0FB607FE05C0A895EE
:104500000E9461200E94A11F0FB607FE08C00E94F2
:104510004B10811185CF0E944510811186CF83E514
:104520000E943010882331F062E070E080E490E077
:104530000E94810C0FB607FE05C0A8950E9461205D
:104540000E94A11F0FB607FE08C00E944B108111E8
:1045500067CF0E944510811168CF84E50E9430101A
:10456000882331F062E070E080E590E00E94810CE9
:104570000FB607FE05C0A8950E9461200E94A11FEA
:104580000FB607FE08C00E944B10811149CF0E9450
:10459000451081114ACF85E50E943010882331F003
:1045A00062E070E080E690E00E94810C28988091A3
:1045B0003E03882381F09FB7F89480913E038130B9
:1045C000B1F58DB380933D032DB380913C0380956D
:1045D00082238DBB9FBF80E78CBD81E08DBDEFE363
:1045E000F3E09081818132960CB405FC23C08EBD2E
:1045F00000000DB407FEFDCF8EB59EBD00000DB4CA
:1046000007FEFDCF8EB583E0E335F80751F78091C3
:104610003E03882351F09FB7F89420913E03809188
:104620003D03213099F48DBB9FBF289A0895909344
:104630003D03D1CF9EBD00000DB407FEFDCF9EB55A
:104640008EBD00000DB407FEFDCFDCCF8FBFEDCFD8
:104650000FB607FE05C0A8950E9461200E94A11F09
:104660000FB607FE0AC00E944B1081110E9426154A
:104670000E94451081110E94F21E8EE50C943010AC
:104680000FB607FE05C0A8950E9461200E94A11FD9
:104690000FB607FE0AC00E944B1081110E9426151A
:1046A0000E94451081110E94F21E8DE50C9430107D
:1046B0000FB607FE05C0A8950E9461200E94A11FA9
:1046C0000FB607FE0AC00E944B1081110E942615EA
:1046D0000E94451081110E94F21E89E50C94301051
:1046E0000FB607FE05C0A8950E9461200E94A11F79
:1046F0000FB607FE0AC00E944B1081110E942615BA
:104700000E94451081110E94F21E89E40C94301021
:1047100080919F039091A003039711F00C94702354
:1047200081E008950FB607FE05C0A8950E9461209C
:104730000E94A11F0FB607FE0AC00E944B108111F4
:104740000E9426150E94451081110E94F21E81E4EC
:104750000C9430100FB607FE05C0A8950E9461208A
:104760000E94A11F0FB607FE0AC00E944B108111C4
:104770000E9426150E94451081110E94F21E8CE3B2
:104780000C943010CF93C82F0E94AA23882379F06D
:1047900066EC72E0CC2311F06DEA72E080E290E00A
:1047A0000E94D91A6DE38C2FCF910C943A03CF91CC
:1047B000089510921D0310921E0310921F03109271
:1047C0002003E8E8FDE01082118212821382148235
:1047D0001582168217821086118612861386109211
:1047E000870D109221038091F2128093030280E0E2
:1047F0000C94C2231F93CF93DF9300D000D01F925D
:104800001F92CDB7DEB70E9402100E947F0F0E9458
:10481000071980910402909105020E945018289A6D
:104820001FB7F89480911303811127C0E9EFF5E0D9
:104830008491E9E9F5E09491E82FF0E0EE0FFF1F95
:10484000E651FB4FA591B491EC91E92321F461E08D
:1048500085E30E94940461E085E30E9420058CB505
:1048600080618CBD8CB580648CBD61E084E30E9466
:10487000200561E083E30E942005809113038F5F90
:10488000809313031FBF8FB7F89492E090933E0379
:104890008FBF0E942A1160910002709101027093F3
:1048A0000102609300028AE00E945C0520E044E07F
:1048B00064E18FED9EE00E943B1950E040E063E030
:1048C0008FED9EE00E94BB1261E08FED9EE00E94A2
:1048D0000D156091E40E862F84608093E40E6C6069
:1048E0008FED9EE00E94DA126091E40E6D7F60937E
:1048F000E40E68608FED9EE00E94DA128FED9EE07C
:104900000E94281347EF53E060E0772728E030E06B
:10491000CE0101960E94CA47BE016F5F7F4F80E0C3
:104920000E9450164FEE53E060E0772728E030E019
:10493000CE0101960E94CA47BE016F5F7F4F81E0A2
:104940000E94501647EE53E060E0772728E030E001
:10495000CE0101960E94CA47BE016F5F7F4F82E081
:104960000E9450164FED53E060E0772728E030E0DA
:10497000CE0101960E94CA47BE016F5F7F4F83E060
:104980000E94501647ED53E060E0772728E030E0C2
:10499000CE0101960E94CA47BE016F5F7F4F84E03F
:1049A0000E9450164FEC53E060E0772728E030E09B
:1049B000CE0101960E94CA47BE016F5F7F4F85E01E
:1049C0000E94501647EC53E060E0772728E030E083
:1049D000CE0101960E94CA47BE016F5F7F4F86E0FD
:1049E0000E9450164FEB53E060E0772728E030E05C
:1049F000CE0101960E94CA47BE016F5F7F4F87E0DC
:104A00000E9450161092880D1092890D10928A0DF6
:104A100010928B0D10928C0D10928D0D10928E0DA8
:104A200010928F0D1092900D1092910D1092920D88
:104A30001092930D1092870D0E94D9230E94150E9B
:104A40008DEC8093F1128DEC90E0909301028093B5
:104A500000026DEC70E08AE00E945C058091F1122A
:104A600090E00E9450180E9407190E94F80C0E94C2
:104A700002228FED9EE00E9428138AE090E0A0E0E1
:104A8000B0E080935D0390935E03A0935F03B093C7
:104A900060031092A1031092A2031092A30310923C
:104AA000A4038091C20E877F8093C20E90E080E0C5
:104AB00028960FB6F894DEBF0FBECDBFDF91CF9121
:104AC0001F910895CF93DF930E948A0660931D0380
:104AD00070931E0380931F0390932003E8E8FDE08A
:104AE00080EF9FEFAFEFBFEF80839183A283B3830B
:104AF00084839583A683B78380879187A287B387B2
:104B00001092870D10922103CBEBDEE08E818B7F1C
:104B10008E838E81877F8E830E94690E8E818F7E29
:104B20008E830E94690E8E818F7D8E830E94690E16
:104B300088EC8093030281E0DF91CF910C94C22333
:104B40000E948A0660931D0370931E0380931F03C7
:104B500090932003E8E8FDE08FE090E0ACE0B0E85F
:104B600080839183A283B3838FE090E0ACE0B0E0D8
:104B700084839583A683B7838FEF90E0ACE0B0E0A9
:104B800080879187A287B3871092870D10922103A7
:104B90008091F2128093030280E00C94C2230E9461
:104BA0008A0660931D0370931E0380931F039093E6
:104BB0002003E8E8FDE080EC9FEFDC018083918337
:104BC000A283B38384839583A683B78380879187E9
:104BD000A287B3871092870D10922103EBEBFEE0C2
:104BE00086818B7F86838681877F86830E94690E7C
:104BF0008091F3128093030281E00C94C2238230EF
:104C00009105A1F028F4009769F0019769F00895E3
:104C10008430910509F446C008F442C0059709F4B0
:104C200082C008950C94D9230C94A0250E948A0672
:104C300060931D0370931E0380931F0390932003C2
:104C40008091C10E8B7F8093C10E8FE090E0A0E039
:104C5000B0EF8093880D9093890DA0938A0DB09347
:104C60008B0D8FE090E0A0E0B0E080938C0D9093EE
:104C70008D0DA0938E0DB0938F0D8093900D90931A
:104C8000910DA093920DB093930D1092870D1092F9
:104C900021038091F2128093030280E00C94C223DE
:104CA0000C94CF250E948A0660931D0370931E0307
:104CB00080931F03909320038CEF9CEFDC01809383
:104CC000880D9093890DA0938A0DB0938B0D8093DE
:104CD0008C0D90938D0DA0938E0DB0938F0D8093BE
:104CE000900D9093910DA093920DB093930D10920F
:104CF000870D109221038091C10E8B7F8093C10E8E
:104D00008091C10E877F8093C10E0E94690E8091B1
:104D1000C10E8F7E8093C10E0E94690E88EC809335
:104D2000030281E0BBCF0C9462252F923F924F92F9
:104D30005F926F927F928F929F92AF92BF92CF922B
:104D4000DF92EF92FF920F931F93CF93DF93CDB734
:104D5000DEB7CC54D1090FB6F894DEBF0FBECDBF7D
:104D60000E94AA23F82E882399F189E897E00E94EF
:104D70000C07F0907503892B59F189E897E00E94A0
:104D80002207FF2009F43FC0CC9711F58091A50DB3
:104D90009091A60DA091A70DB091A80D80937103DD
:104DA00090937203A0937303B093740310927503EE
:104DB0008091C30E8E7F8093C30E6FE081E00E94CE
:104DC000D1078091BC0E8B7F8093BC0EF090750351
:104DD0008F2DC45BDF4F0FB6F894DEBF0FBECDBF83
:104DE000DF91CF911F910F91FF90EF90DF90CF90C7
:104DF000BF90AF909F908F907F906F905F904F90FB
:104E00003F902F900895CD9719F78091A50D2A9680
:104E10008FAF2A979091A60D2B969FAF2B978091DD
:104E2000A70D2C968FAF2C979091A80D2D969FAF24
:104E30002D9781E0809375036FE080E00E94D10799
:104E40008091C30E81608093C30E8091BC0E8B7FD6
:104E50008093BC0E6AE072E090E080E00E94D91A74
:104E60006AE072E090E080E00E94D91A6AE072E0A5
:104E700090E080E00E94D91A0E948A066B017C01B2
:104E80000E9459074090610450906204609063044E
:104E9000709064049201A30160E070E080E090E013
:104EA00000E20E94AC5356016701E12CF12C00E0B6
:104EB00010E00E94E2535F934F933F932F9300E2E1
:104EC0000E94C7535F934F933F932F938FEA92E0D3
:104ED0009F938F938E010F5F1F4F1F930F930E941D
:104EE0000D54B80184E090E00E94D91AB80184E022
:104EF00090E00E94D91A62E370E080E090E00E94A6
:104F00005806F0907103E0907203D0907303C09044
:104F1000740348E454E060E07727C8010E94D44756
:104F20002D968FAD2D978F932C969FAD2C979F9399
:104F30002B968FAD2B978F932A969FAD2A979F9391
:104F4000CF92DF92EF92FF921F930F93005D1F4F5E
:104F50001F930F930E940D54B80186E390E00E94C6
:104F6000D91A0FB6F894DEBF0FBECDBF2FCF7F92F8
:104F70008F929F92AF92BF92CF92DF92EF92FF9269
:104F80000F931F93CF93DF93CDB7DEB7C852D140B5
:104F90000FB6F894DEBF0FBECDBFB82EFB01019057
:104FA0000020E9F73197AE2EA61A762E7B018E01EE
:104FB0000F5F1F4F48016E018BEEC81A8EEFD80AA3
:104FC0008E2D87198A1508F057C0D701ED917D0104
:104FD0008E2F0E2E000C990B887F9927883F910504
:104FE00009F045C0E770E1506AEB72E0E73090F4F9
:104FF0000E2E000CFF0B8827EF5FF74D8F4F0C94A0
:10500000A4530828252828282B282E28312834287E
:1050100061EC72E0CE018F5F9E4F0E94F753BE019C
:105020006F5F7E4FC6010E94F753B601C8010E9410
:10503000F753F60101900020E9F73197EC19FD09CB
:10504000C8018E0F9F1F8C01BBCF68EC72E0E2CFCE
:105050006FEC72E0DFCF66ED72E0DCCF6DED72E0F9
:10506000D9CF64EE72E0D6CF6BEE72E0D3CFC80139
:105070000196D801EC93E7CFF80110820E949526A3
:10508000882391F0F2E089E090E0FB1530F0EB2D01
:10509000F0E0E05CFD4F808190E0B4010E94D91AFD
:1050A0008BE39FE10197F1F7C85DDE4F0FB6F894EF
:1050B000DEBF0FBECDBFDF91CF911F910F91FF904B
:1050C000EF90DF90CF90BF90AF909F908F907F90A8
:1050D00008959F92AF92BF92CF92DF92EF92FF928C
:1050E0000F931F93CF93DF936C01A8950E944E10EE
:1050F0008823A1F084E5F601A8EFBEE001900D92AF
:105100008A95E1F7DF91CF911F910F91FF90EF907A
:10511000DF90CF90BF90AF909F9008950E9448106D
:105120008111E8CF0E949223A82E0E94AA238823EF
:1051300019F080E00E94161B84E5ECE4FFE0A8EF84
:10514000BEE001900D928A95E1F710E000E0B12CED
:1051500080E2982E7601E00EF11E0E944E10E801CA
:105160008823B1F0C850D14FB701CE010E94F75348
:10517000FE0101900020E9F73197EC1BFD0BEC0FCD
:10518000FD2FF11D8E2F8C1B8431A0F49192FACF4C
:105190000E9448108111E6CFC45BD04F6B2D0E9456
:1051A000E212E114F10401F3B7018FED9EE00E94D9
:1051B000A01ADACF1C8AB7018B2D0E94B727B394AF
:1051C0000B5E1F4F84E0B812C5CF0E94AA2388232C
:1051D00009F498CF81E08A25DF91CF911F910F913B
:1051E000FF90EF90DF90CF90BF90AF909F900C9486
:1051F000161B3F924F925F926F927F928F929F9277
:10520000AF92BF92CF92DF92EF92FF920F931F93D4
:10521000CF93DF93CDB7DEB7C051D1400FB6F8942E
:10522000DEBF0FBECDBF382ECE018B5A9F4F0E94DE
:10523000CE1BBE016F5F7F4F85E190E00E94521C44
:1052400089819A81AB81BC81C75FDE4F8883998356
:10525000AA83BB83C950D140892B8A2B8B2B09F49D
:105260003CC0332009F439C020EE34E040E055273B
:1052700060E0CE018B5A9F4F0E942F1B2FEC34E031
:1052800040E0552761E0CE018B5A9F4F0E942F1BB3
:105290002EEC34E040E0552762E0CE018B5A9F4F60
:1052A0000E942F1B2AEB34E040E0552763E0CE013B
:1052B0008B5A9F4F0E942F1BCE018B5A9F4F0E94EB
:1052C00069280E949F1C882341F0C75FDE4F188227
:1052D00019821A821B82C950D140BE016F5F7F4F75
:1052E00081E190E00E94521C89819A81AB81BC814E
:1052F000C35FDE4F88839983AA83BB83CD50D1409F
:10530000892B8A2B8B2B09F43CC0332009F439C03C
:105310002CEA34E040E0552760E0CE018B5A9F4FE5
:105320000E942F1B2BE934E040E0552761E0CE01BD
:105330008B5A9F4F0E942F1B2AE934E040E05527EB
:1053400062E0CE018B5A9F4F0E942F1B26E834E06B
:1053500040E0552763E0CE018B5A9F4F0E942F1BE0
:10536000CE018B5A9F4F0E9469280E949F1C882360
:1053700041F0C35FDE4F188219821A821B82CD5022
:10538000D140CE0101960E94CE1B26E734E040E0DA
:10539000552760E0CE0101960E942F1B2AE634E0DB
:1053A00040E0552761E0CE0101960E942F1B2CE5BD
:1053B00034E040E0552762E0CE0101960E942F1BA9
:1053C0002BE534E040E0552763E0CE0101960E94D2
:1053D0002F1BCE0101960E94692842E554E060E04F
:1053E00077276E0129EAC20ED11CC6010E94D4475C
:1053F0000E948A062B013C01EE24E394F12C09E083
:1054000010E05E0181EFA80EB11C0E948A066419AB
:10541000750986099709693E734081059105C0F1B8
:1054200047018FEF881A980AFF92EF92DF92CF928E
:10543000BF92AF920E940D5444E150E0B501CE01FD
:1054400087529F4F0E94FE53C351DF4F1882CD5E9B
:10545000D040CE0187529F4F0E944D1A44E150E048
:10546000BC01CE01805C9F4F0E94FE5365961FAE2B
:105470006597CE0101960E9469280E948A062B0139
:105480003C010F900F900F900F900F900F907401B0
:1054900060E0C8010E946A520F5F1F4F011520E1B2
:1054A000120709F0B2CF332071F0BE01675F7E4F63
:1054B00085E190E00E941E1CBE01635F7E4F81E18A
:1054C00090E00E941E1C8AEB9FE2ABE4B4E5898366
:1054D0009A83AB83BC83BE016F5F7F4F89E090E00E
:1054E0000E941E1C89E897E00E9443076AE072E070
:1054F00081E090E00E94D91A60E086E20E94940464
:1055000064E670E080E090E00E94580661E086E288
:105510000E94940468EC70E080E090E00E945806DD
:105520001092A4071092A3071092A2071092A1074D
:105530001092A00710929F078FE190E09093A6072A
:105540008093A5078091950796EF980F943048F0C7
:105550002EEC280F243028F022EC280F283008F0F9
:1055600061C021E030E03093A00720939F072DE138
:1055700030E03093A2072093A1072DE030E0309374
:10558000A4072093A307943050F02EEC280F24306A
:1055900030F022EC280FF0E0E0E0283010F4E8E6EC
:1055A000F0E02081943028F032EC380F383008F4E5
:1055B0006FC031E0232B943048F09EEC980F94306C
:1055C00028F08E53F0E0E0E0883010F4E8E6F0E0F8
:1055D00020832091950736EF320F343008F45AC0FB
:1055E0008EEC820F843008F455C082EC820F883034
:1055F00008F453C090E080E090939D0780939C074F
:10560000343008F04DC02650330B81E001C0880FC4
:105610002A95EAF780939E078091A5079091A607A7
:105620000197F1F78091A3079091A407892B21F1AD
:105630008091AC049091AD0427E089389207E1F0A5
:10564000009711F00E9443078091A7078E7F8093F7
:10565000A7071092AA041092AB0489E897E09093F0
:10566000AD048093AC04E0919C07F0919D0780818C
:1056700090919E07892B808389E897E00E940C0710
:105680001816190614F589E897E00E942207F4CF4E
:1056900034E090CF8BE690E0AFCF8DE690E0ACCFDA
:1056A00088E0223309F4B6CF84E0233309F4B2CF83
:1056B00082E0243309F4AECF82EC820F883018F4F4
:1056C0002E53330BA2CF81E0A5CF05E010E06AE0B6
:1056D00072E090E080E00E94D91A01501109B9F7F8
:1056E00062E370E080E090E00E94580662EF72E0B2
:1056F00090E080E00E94D91A67EF72E085E390E0C5
:105700000E94D91AC05FDE4F0FB6F894DEBF0FBEFD
:10571000CDBFDF91CF911F910F91FF90EF90DF9060
:10572000CF90BF90AF909F908F907F906F905F9041
:105730004F903F900895AF92BF92CF92DF92EF9239
:10574000FF920F931F93CF93DF93CDB7DEB7C05770
:10575000D1090FB6F894DEBF0FBECDBF8C010FB6D6
:1057600007FE05C0A8950E9461200E94A11F0FB6E8
:1057700007FE0AC00E944B1081110E9426150E944C
:10578000451081110E94F21E8FE50E943010811198
:105790009DC08091C60E81608093C60E6AE080E055
:1057A0000E94D10780919F039091A003029709F076
:1057B0008DC0C80105962AE0C22ED12CB6010E94E8
:1057C0008852CB0161E02AE0AC01249FC001259FF3
:1057D000900D11240E94A90B0E9402221093580DD3
:1057E0000093570D81E08093670D0091D20D1091C9
:1057F000D30DB090DE0DA090DF0D0E94952688237A
:1058000009F464C043E354E060E077277E0181E45B
:10581000E80EF11CC7010E94D44730E020E082E08E
:10582000000F111F221F331F8A95D1F78091670D3A
:10583000882309F45DC08091570D9091580D05960D
:10584000B6010E948852F62FD72E8091660D4FEF39
:10585000EFEF882359F08091550D9091560D0596E4
:105860006AE070E00E948852462FE72F8091650D14
:105870006FEF7FEF882349F08091530D9091540D85
:1058800005966AE070E00E9488521F921F923F9333
:105890002F931F930F93AF92BF92DF92FF93EF93DB
:1058A0004F937F936F93FF92EF928E010F5F1F4F85
:1058B0001F930F930E940D54B80186E190E00E945F
:1058C000D91A0FB6F894DEBF0FBECDBFC059DF4F57
:1058D0000FB6F894DEBF0FBECDBFDF91CF911F9101
:1058E0000F91FF90EF90DF90CF90BF90AF90089511
:1058F000FFEFDD24DA94A9CF5F926F927F928F92AF
:105900009F92AF92BF92CF92DF92EF92FF920F934E
:105910001F93CF93DF93D82FC92FA8950E944E10C5
:105920008823C9F084E5ED2FFC2FA8EFBEE001909D
:105930000D928A95E1F7DF91CF911F910F91FF9022
:10594000EF90DF90CF90BF90AF909F908F907F901F
:105950006F905F9008950E9448108111E3CF0E94DC
:105960009223582E0E94AA23882319F080E00E94D7
:10597000161B84E5ECE4FFE0A8EFBEE001900D9279
:105980008A95E1F70D2F1C2F88EFC82E8EE0D82EB8
:105990009CE4E92E9FE0F92E612C5801D0E0C0E094
:1059A000F50171905F01872D072C000C990B887F02
:1059B0009927883F910509F04AC0F72DF7707F2E8F
:1059C0000E944E108823A1F14601F401EC0FFD1F47
:1059D000872D886F782E70822196C431D10501F70A
:1059E000B801862D0E94B72763940B5E1F4FE5E137
:1059F000CE0ED11CF5E1EF0EF11C84E06812CDCF84
:105A00000E94AA23882309F496CF81E08525DF919F
:105A1000CF911F910F91FF90EF90DF90CF90BF90AB
:105A2000AF909F908F907F906F905F900C94161B1B
:105A30000E9448108111C8CF4701662D8C2F0E940B
:105A4000E212672D8FED9EE00E94CF12BECF0E9422
:105A50004E10882329F04601F401EC0FFD1FBBCF47
:105A60000E9448108111F7CF4701662D8C2F0E94AC
:105A7000E212672D8FED9EE00E94CF12EDCF0FB6A0
:105A800007FE05C0A8950E9461200E94A11F0FB6C5
:105A900007FE0AC00E944B1081110E9426150E9429
:105AA000451081110E94F21E8BE30C9430100FB64A
:105AB00007FE05C0A8950E9461200E94A11F0FB695
:105AC00007FE0AC00E944B1081110E9426150E94F9
:105AD000451081110E94F21E8AE30C9430100FB61B
