:100000000C949E040C94C23F0C94973F0C946C3F4C
:100010000C94413F0C94163F0C94EB3E0C94C03E64
:100020000C94953E0C9418400C9418400C94184075
:100030000C94CF040C94CF040C94CF040C94CF04F4
:100040000C94CF040C94CF040C94CF040C94CF04E4
:100050000C94CF040C94CF040C94CF040C944B3E1E
:100060000C94CF040C94C73B0C949D3B0C94CF0490
:100070000C94CF040C94CF040C94CF040C94CF04B4
:100080000C94CF040C94CF040C94CF040C94FD4931
:100090000C94CF040C94CF040C94CF040C947E4A9F
:1000A0000C94CF040C94CF040C94CF040C94CF0484
:1000B0000C94CF040C94ED3F0C94CF040C94CF041B
:1000C0000C94CF040C94CF040C94CF040C94CF0464
:1000D0000C94CF040C94CF040C94CF040C94CF0454
:1000E0000C94CF040C9492390C94523D0C94CB1B7D
:1000F0000C94041C0C94E6400C940B370C940507EC
:100100000C9462260C94D2250C9475250C9425260B
:100110000C94763D0C94C1130C94DF260C946E273E
:100120000C943D260C94DE080C94503C0C949526BF
:100130000C9413360C9427360C94643D0C949F2534
:100140000C94F4250C949D260C940A380C94C92622
:100150000C946D360C9498250C94EB040C94F037A9
:100160000C945C3D0C94443C0C9414070C94B73DE7
:100170000C9455260C94393D0C941C4D0C94A33DC5
:100180000C948C260C9492270C94DF370C94F20874
:100190000C94B81B0C94AF390C94533C0C948A25E6
:1001A0000C9403380C94313D0C94B50A0C94D7355B
:1001B0000C94BE390C944B250C9481370C94243745
:1001C0000C94753C0C9478270C94C13D0C94AE4C67
:1001D0000C94B4260C94D21B0C94E1370C941E079B
:1001E0000C94B8390C9434270C94D6260C942D3CDE
:1001F0000C9425370C94D7070C94C41B0C94190746
:100200000C941B260C940A070C94673C0C94FA0679
:100210000C940F070C94713C0C94D1070C94633C24
:100220000C94793C0C94AD3D0C9400090C949737D8
:100230000C94FF080C948A3D0C940C370C94EC261B
:100240000C94993D0C9483250C94B2390C9435365A
:100250000C94BB390C9482080C94231C0C94BA3671
:100260000C94833C0C94593C0C9400070C94803DF6
:100270000C945D3C0C94323C0C94CB3D0C94D91BFB
:100280000C947E270C9423070C9426080C94842746
:100290000C943E3D0C94E01B0C94D40A0C946C3DE1
:1002A0000C947C250C94E0370C9404360C94912526
:1002B0000C94BE1B0C947F3C0C944C3C0C94FE257F
:1002C0000C946B3C0C94B5390C9437380C94BC26C8
:1002D0000C94483C0C94483D0C948B276364696EE5
:1002E0006F70737578585B00436F6E6669726D202E
:1002F00028594553206F72204E4F293F00456C739B
:10030000652077696C6C2062652069676E6F726525
:100310006400436F6E6669726D2077697468696EF8
:10032000203673656373003C3C205245534554208E
:100330004445544543544544203E3E007C20212101
:1003400021205374617274696E672052455345547D
:1003500020636F6E6669726D6174696F6E20546997
:100360006D657200436F6E6669726D202859455342
:10037000206F72204E4F293F00456C7365207769CE
:100380006C6C2062652069676E6F72656400436FF4
:100390006E6669726D2077697468696E2036736560
:1003A0006373003C3C20464143544F525920524510
:1003B000534554203E3E007C20212121205374616E
:1003C0007274696E6720464143544F52592052451A
:1003D00053455420636F6E6669726D6174696F6E08
:1003E0002054696D657200526573746172742028BF
:1003F000594553206F72204E4F293F0000524553FC
:10040000544F52454400466163746F7279205365BE
:100410007474696E6773007C20212121204E6F77F0
:1004200020464143544F5259205245534554696E1A
:100430006700001F1F0E0E0400000000040E0E1FB8
:100440001F000103070F0F070301080C0E0F0F0E0B
:100450000C081F0E151B150E1F1F1F1F1E1D0B172F
:100460001F1F1700170017001700041F1B151B1F65
:1004700004007C2021212120496E6372656173692B
:100480006E672062757A7A657220766F6C756D651D
:1004900020746F20007C202323232042757A7A6504
:1004A0007220566F6C756D65203D200025642E25E9
:1004B000642E2564000041505020436F6E6E6563CA
:1004C00074656400496E2050726F677265737300C3
:1004D0004669726D7761726520557064617465005C
:1004E0007C202A2A2A204D756C7469706C65206204
:1004F0007574746F6E732070726573736564002118
:10050000212121212121204D75746520466F7265BE
:10051000766572203D20007C202121212052455308
:10052000455420436F6E6669726D65640053746F45
:100530007070696E6720524553455420636F6E6634
:1005400069726D6174696F6E2054696D6572202DDA
:100550002054696D656F7574007C2021212120462F
:100560004143544F525920524553455420436F6ED6
:100570006669726D65640053746F7070696E672090
:10058000464143544F525920524553455420636FBE
:100590006E6669726D6174696F6E2054696D657203
:1005A000202D2054696D656F7574007C202A2A2ADD
:1005B00020534F4D4520427574746F6E20646563FF
:1005C0006C696E696E6720464143544F5259205200
:1005D00045534554007C202A2A2A2059455320425D
:1005E0007574746F6E20636F6E6669726D696E6785
:1005F00020464143544F5259205245534554007CA4
:10060000202A2A2A20534F4D4520427574746F6E5C
:10061000206465636C696E696E672052455345546A
:10062000007C202A2A2A2059455320427574746F71
:100630006E20636F6E6669726D696E6720524553F6
:100640004554005B25642C25642C25642C25642CE2
:10065000256C752C25645D005B256C752C256C75EF
:100660005D007C204040402057692D46692052455E
:10067000434F4E4E4543544544007C20404040206B
:1006800057692D46692044524F50504544007C2004
:100690002A2A2A205265636569766564205345528B
:1006A0004B45595F574946495F5245434F4E4E456A
:1006B00043544544203D007C202A2A2A2052656369
:1006C0006569766564205345524B45595F574946E5
:1006D000495F44524F50504544203D002A2A2A2A5F
:1006E0002A2A2A2A2A2A2A2A2A2A2A2A2A2A2A2A6A
:1006F000205355415254206F766572666C6F772097
:10070000666F72206D7367547970653D002E2E20E0
:100710002564202E2E00004578636C7564696E6731
:100720002055494400496E666F726D6174696F6E41
:1007300000436C656172696E6720454550524F4DAC
:10074000007C202323232041726475696E6F205240
:10075000657365742D696E67204E6F64654D6375B2
:100760000052455345542028594553206F72204E5E
:100770004F29203F00004379636C657320746F201C
:100780005A45524F203F005265736574204D616396
:1007900068696E65005245534554202859455320D9
:1007A0006F72204E4F29203F00004379636C6573C0
:1007B00020746F205A45524F203F00526573657474
:1007C0002042564D007C203E3E3E20466C6F7720F6
:1007D000436F6E74726F6C2050532074696D656442
:1007E000206F75740000002100240027002A002DCE
:1007F000003000330001010000040107010A01007C
:10080000000A0B02090C0D0E08070304010000008A
:1008100000000000000000000000000000000000D8
:100820000000000000000000000000121110000095
:1008300000000000000000000000000000000000B8
:1008400000000000002A2A2A204552524F52202A36
:100850002A2A206C63644D6573736167653A204C86
:10086000696E654E756D206F7574206F6620626FBE
:10087000756E6473203D0000002200250028002BC7
:10088000002E003100340002010000050108010BB8
:100890000101021020200808102040102040800292
:1008A00001020108040201010204081020408080B6
:1008B000402010080402018004020180402010083A
:1008C0000402010804020101020408102040800112
:1008D0000204081020408000002000230026002988
:1008E000002C002F00320000010000030106010966
:1008F0000105050505070508080808020202020AA5
:100900000A080804040404010101010101010103B2
:1009100003030303030303040707070C0C0C0C0C6D
:100920000C0C0C0202020206060606060606060B60
:100930000B0B0B0B0B0B0B001C4DAE4C11241FBEF5
:10094000CFEFD1E2DEBFCDBF00E00CBF13E0A0E0EF
:10095000B2E0E6E7FCEB00E00BBF02C007900D92AF
:10096000A231B107D9F723E1A2E1B3E001C01D92A2
:10097000A731B207E1F714E0CDE9D4E000E006C00A
:1009800021970109802FFE010E94A657CC39D1077B
:1009900080E00807A9F70E94D1530C94295E0C94BB
:1009A0000000E62FF0E093E0F595E7959A95E1F7E2
:1009B000677021E030E001C0220F6A95EAF7E1504C
:1009C000F94F882321F08081282B2083089580818E
:1009D00020952823FACFCF93DF939C01FC01E65C9E
:1009E000FE4F8081811151C0D901A85CBE4F4D914D
:1009F0005C9111974B39510509F444C08D919C913C
:100A00001197E901C55CDE4F488159814F3F5F4F27
:100A100019F4998388830CC0E881F9813196EE0F2F
:100A2000FF1FE20FF31F40815181461757078CF3D8
:100A3000E901C35CDE4F488159814B39510519F4F6
:100A4000998388830CC0E881F9813196EE0FFF1FEE
:100A5000E20FF31F40815181641775078CF38D916C
:100A60009C9111970196880F991F280F391FF90142
:100A7000718360838D919C911197019611969C933F
:100A80008E9381E0DF91CF91089580E0FBCFAF920C
:100A9000BF92CF92DF92EF92FF920F931F93CF936B
:100AA000DF93EC016A01FB014130510509F06DC093
:100AB0006A30710510F0E9E0F0E0CF016AE070E023
:100AC0000E948A56DC01AA0FBB1FA05EBD4F8D910C
:100AD0009C91222309F46AC08095909599277E0104
:100AE00044E0F694E7944A95E1F7BE016F707727EA
:100AF0004FEF50E06115710511F440E05FEFEE0C2F
:100B0000FF1CD701AD5BBC4F7D01AD90BC90119730
:100B10004A215B2102C0880F991F6A95E2F7842B56
:100B2000952B8D939C93B1E0CB16D10419F1102F26
:100B3000289681E0C81AD108CF016AE070E00E94CF
:100B40008A5600E0A601CE010E944705112391F0CC
:100B5000CF70DD2781E090E002C0880F991FCA9511
:100B6000E2F780959095F7012081318182239323CC
:100B700091838083DF91CF911F910F91FF90EF9030
:100B8000DF90CF90BF90AF9008954230510539F477
:100B90006436710508F491CFE3E6F0E08ECF683E4D
:100BA000734008F48ACFE7EEF3E087CF8DEF90E053
:100BB00096CF0F93262F6AE070E00E948A5600E0DD
:100BC00042E050E080E990E00E9447050F910895CF
:100BD0000F939093FB068093FA062091ED063091D7
:100BE000EE06232BF1F04091ED065091EE0621E048
:100BF0004130510509F020E070E060E0843091055B
:100C000028F48C5C9D4FFC01608170E081E0282716
:100C100000E042E050E080E690E00E9447050F913E
:100C2000089521E0E9CF0F939093F9068093F80699
:100C30002091ED063091EE06232BC1F04091ED0698
:100C40005091EE0621E04130510509F020E031E0FD
:100C500023276AE070E00E948A5600E042E050E0FC
:100C600080E590E00E9447050F91089521E0EFCFC5
:100C70000F939093F7068093F6066AE070E00E9467
:100C80008A5600E021E042E050E080E490E00E94DB
:100C900047050F9108950F939093F5068093F406FE
:100CA0006AE070E00E948A5600E021E042E050E0F5
:100CB00080E390E00E9447050F9108950F93809381
:100CC000F3064091ED065091EE0621E043305105C8
:100CD00009F420E000E041E050E0BC0188E190E050
:100CE0000E9447050F9108950F938093F20640915B
:100CF000ED065091EE0621E04330510509F420E065
:100D000000E042E050E0BC0180E290E00E94470534
:100D10000F9108950F932091ED063091EE06233048
:100D20003105A9F46093EF0601E021E043E050E0D3
:100D30006115710531F400E020E043E050E070E01F
:100D400060E090E080E00E9447050F910895909345
:100D5000F1068093F00600E021E043E050E0BC01A2
:100D6000F0CFCF93DF93AFEFB0E0FC01C4E0F69596
:100D7000E795CA95E1F7AC014F7055272FEF30E0AA
:100D80004115510511F420E03FEFEE0FFF1FED5B21
:100D9000FC4FC081D1812C233D23ED0102C0CC0F3B
:100DA000DD1F4A95E2F7AE012C2B352B31832083D2
:100DB0006130710521F0615071090896D6CFDF913D
:100DC000CF910895FC01329763E070E090E080E0FD
:100DD000E930F10598F48827EF50F94F8F4F0C94C4
:100DE000A6570007FA0605070A070F071407190791
:100DF0001E07230762E070E080E290E00C94B106E9
:100E000061E070E088E190E0F9CF62E070E080E3BB
:100E100090E0F4CF62E070E080E490E0EFCF62E039
:100E200070E080E590E0EACF62E070E080E690E07C
:100E3000E5CF62E070E080E790E0E0CF62E070E054
:100E400080E890E0DBCF62E070E080E990E0D6CF10
:100E5000E3E4F3E08FEF9FEF8193919323E0E73595
:100E6000F207D1F70895DC01ED91FD918081ED91BC
:100E7000FD919081ED91FD916C9163708E2309F04D
:100E800064609F2309F06860E0E5F7E0E60FF11D7C
:100E9000659565956D936D917D918D919D91099469
:100EA00023C01AC012C016C010C01EC009C014C092
:100EB00013C006C019C009C00DC007C00DC014C0C2
:100EC00062507040804090400BC061507040804044
:100ED000904006C06E5F01C06F5F7F4F8F4F9F4F86
:100EE0009E938E937E936E9308950F931F9380919C
:100EF0006406823008F053C0F89489E596E00E94B9
:100F0000330760916006709161068091620690914E
:100F100063067894009126031091270320912803FB
:100F200030912903601B710B820B930B20912A03D4
:100F300030912B0340912C0350912D030E94D456E5
:100F40008091320390913303A0913403B091350323
:100F5000281739074A075B0744F420913203309180
:100F60003303409134035091350380912E039091C7
:100F70002F03A0913003B091310382179307A40788
:100F8000B50744F420912E0330912F034091300394
:100F900050913103CA01B9011F910F910895F8943E
:100FA000B0CF80915706909158060C9433078091EA
:100FB0005506909156060C943307809153069091F4
:100FC00054060C94330780915106909152060C946C
:100FD000330780914F06909150060C94330780910F
:100FE0004D0690914E060C943307EFEFF6E08181A9
:100FF0008B7F818381818D7F818380818F778083C7
:1010000080818F7B808380818B7F80838081877FBD
:10101000808380818F7E808380818F7D80838081AB
:101020008E7F808380818D7F808381818F77818394
:1010300008952091650630916606A90102C0569573
:1010400047958A95E2F7CA0181700895CF93DF939F
:101050009C01FC01E459FE4F8081811151C0D901EE
:10106000A659BE4F4D915C911197443B510509F42F
:1010700044C08D919C911197E901C359DE4F48817D
:1010800059814F3F5F4F19F4998388830CC0E881E1
:10109000F9813196EE0FFF1FE20FF31F408151815E
:1010A000461757078CF3E901C159DE4F4881598132
:1010B000443B510519F4998388830CC0E881F98178
:1010C0003196EE0FFF1FE20FF31F4081518164172D
:1010D00075078CF38D919C9111970196880F991F3C
:1010E000280F391FF901718360838D919C911197AD
:1010F000019611969C938E9381E0DF91CF91089594
:1011000080E0FBCFCF93DF939C01FC01E059FD4FC2
:101110008081811151C0D901A259BD4F4D915C917F
:1011200011974633514009F444C08D919C91119719
:10113000E901CF58DD4F488159814F3F5F4F19F486
:10114000998388830CC0E881F9813196EE0FFF1FE7
:10115000E20FF31F40815181461757078CF3E901D5
:10116000CD58DD4F488159814633514019F4998358
:1011700088830CC0E881F9813196EE0FFF1FE20FE2
:10118000F31F40815181641775078CF38D919C91F9
:1011900011970196880F991F280F391FF901718344
:1011A00060838D919C911197019611969C938E93DB
:1011B00081E0DF91CF91089580E0FBCF21E001C075
:1011C000220F6A95EAF7DC011C962C931C971A965D
:1011D0005C934E931997ED91FC910484F585E02D75
:1011E00060E01994DC01ED91FC910684F785E02D17
:1011F00041E0199581E090E00895089508950895DB
:1012000090E080E00895CF92DF92EF92FF92C0903D
:101210003C03D0903D03E0903E03F0903F032091CB
:101220000702222389F06C157D058E059F0539F094
:1012300060E0842F0E94FD3B81E080933B03FF90A0
:10124000EF90DF90CF9008956C157D058E059F057A
:10125000B1F361E0EECF0F931F930091370310912C
:1012600038032091390330913A03DC01CB01801B14
:10127000910BA20BB30B20910602222341F060E0F8
:101280004497A105B10540F41F910F910895069769
:10129000A105B105C8F361E0842F0E94FD3B81E008
:1012A00080933603F1CF9C01909374038093730372
:1012B00080912D0661E0232B09F060E00E94FD3B48
:1012C0000E94333E60E080912C060E94FD3B0C940E
:1012D000333ECF93DF93EC010E94893C61E086E0CE
:1012E000209741F087E0C130D10521F089E02397B4
:1012F00009F088E0DF91CF910C94FD3BCF92DF9213
:10130000EF92FF920F931F93CF93DF93FC01238102
:10131000222309F4F3C0262F618160956223608344
:10132000828191E09093A403809316031092C803E6
:101330001092C7038CED95E00E943738D091C70317
:1013400021E0D13208F09CC0C09116030E94D03D2C
:101350006B017C018091D30381116CC082E080938A
:10136000D30381E08093D5038FEF8093D203109253
:10137000F703D093F603E4E8F3E0A6EDB3E080E0F2
:10138000D81394C01092F8038091F803CC0FC82BA7
:10139000C093F8038091D403813009F08BC0109280
:1013A000D4030E94D03D6B017C018091F8038093AF
:1013B000BB008091CA039091CB03A091CC03B09164
:1013C000CD03892B8A2B8B2BA1F00E94D03D00915D
:1013D000CA031091CB032091CC033091CD036C193B
:1013E0007D098E099F09061717072807390708F492
:1013F00042C08091BC0083FDD8CF85EC8093BC00B7
:101400000E94D03D6B017C018091D303823009F4AE
:1014100053C08091D20320E08F3F91F18091D2039D
:1014200022E0803269F18091D20324E0803341F5DB
:1014300023E026C08091CA039091CB03A091CC03F6
:10144000B091CD03892B8A2B8B2B09F483CF0E947B
:10145000D03D0091CA031091CB032091CC03309171
:10146000CD036C197D098E099F09061717072807F8
:10147000390708F06FCF8091C9030E94254A25E003
:101480001092C8031092C7031092A40330E081E0C9
:1014900090E0232B11F090E080E0DF91CF911F913D
:1014A0000F91FF90EF90DF90CF90089591919D93D1
:1014B0008F5F66CF85EEA2CF8091CA039091CB0358
:1014C000A091CC03B091CD03892B8A2B8B2B09F4EF
:1014D0009BCF0E94D03D0091CA031091CB03209175
:1014E000CC033091CD036C197D098E099F09061735
:1014F00017072807390708F087CFBDCF30E020E075
:10150000C6CFEF92FF920F931F93CF938C01FC01F4
:1015100084E0C0E0262F30E060FF02C09589C92B2F
:10152000B90175956795815031968111F3CF41309E
:1015300011F4F8014489F8016585C62BC42B7801A4
:10154000FEE0EF0EF11CF80162896C2BC7010E94CE
:101550007E09F801628960956C23C701CF911F91C4
:101560000F91FF90EF900C947E090F931F93CF93F0
:10157000DF93062F0F70423041F440E0602FDF917F
:10158000CF911F910F910C94810A142FEC0170E000
:1015900084E0759567958A95E1F7CE010E94810AEE
:1015A000412F602FCE01EBCFFC0184858823A1F071
:1015B000218532852115310521F4611107C0158679
:1015C00006C021303105D9F76111F9CF85876585CE
:1015D000CF010E960C947E090895CF92DF92EF9280
:1015E000FF920F931F93CF93DF93EB017B0124E0D6
:1015F000E20EF11C8B016C01C61AD70AC601800FDE
:10160000911F0E946456F80181938F01EE15FF052A
:10161000A9F7CE01DF91CF911F910F91FF90EF902D
:10162000DF90CF900895EF92FF920F931F93CF9387
:10163000DF93F82EE92EEB01FB01682F81918823BF
:1016400011F0680FFBCFF894619588EE95E00E9449
:1016500025376F2D88EE95E00E94253710E000E0D9
:10166000209731F0BE0188EE95E00E940E3A8C0181
:1016700060E088EE95E00E94253778948BE39FE147
:101680000197F1F78091060680FF13C08E7F80934B
:1016900006068091E407811104C08CED96E00E945B
:1016A0008D388091E407811104C08F2D9E2D0E94FA
:1016B000AE3AFE0101900020E9F73197EC1BFD0BDB
:1016C00081E0E017F10709F080E0DF91CF911F91F1
:1016D0000F91FF90EF900895CF93C82F60EB72E0C9
:1016E000882351F08BE290E00E94130B62E481E0CA
:1016F0008C27CF910C94D1048AE290E00E94130BC6
:101700008BE39FE10197F1F7F1CFFC0190813091DC
:101710007A0020917A00287F246020937A00963303
:1017200008F0965320917B00892F8870277F822BA9
:1017300080937B009770906490937C0080917A00F6
:10174000806480937A0080917A0086FDFCCF80913E
:1017500078009091790030937A0082819381892B6F
:1017600039F486819781892B19F488ED97E20895E1
:1017700090E080E00895DF92EF92FF920F931F9325
:10178000CF93DF93FC01DFB6F89420A1848D958D73
:101790002817190619F010F0248D358D022F10E04E
:1017A0000115110509F454C00A30110531F560E046
:1017B00070E0CB0150E040E0DA01AA0FBB1FAE0F92
:1017C000BF1F18962D913C91620F731F811D911DB3
:1017D0004F5F5F4F4A30510579F72AE030E040E033
:1017E00050E00E94D456DFBEC901DF91CF911F9116
:1017F0000F91FF90EF90DF900895868D978D49E0CF
:1018000050E0892B21F0468D578D4150510960E001
:1018100070E0CB01B0E0A0E07A01EE0CFF1CEE0E10
:10182000FF1EE701E884F9846E0D7F1D811D911D67
:101830004115510551F0415051091196A017B107BA
:1018400058F330E050E040E0CCCF49E050E0F5CF35
:1018500030E020E0C8CF0F931F93CF93DF938091A8
:101860006B0390916C03019690936C0380936B03D0
:10187000B0E0A0E040916103509162036091630386
:101880007091640384179507A607B70709F0C7C0CE
:1018900030916A03209169038091670390916803F6
:1018A000C0916503D0916603409190054111A7C096
:1018B000811540E1940710F08FEF9FE0332309F486
:1018C000B3C0309193053F5F3093930540919505E8
:1018D00050919605480F591F5093960540939505D2
:1018E0002223D9F0309194053F5F309394054091C5
:1018F000970550919805480F591F509398054093AC
:10190000970540E050E8842B952B211117C030E05B
:1019100020E016C01092910530C09068F8CF209159
:1019200094052F5F20939405209197053091980599
:10193000280F391F309398052093970520E030E455
:1019400040919105E42FF0E0DF01AA0FBB1FA056E4
:10195000BB4F6D917C911197EE0FFF1FE85EFA4F20
:1019600000811181822B932B8D939C93D183C08313
:101970004F5F4C3379F240939105809192058C33FF
:1019800018F48F5F8093920576FB442740F99B0102
:101990003F7077FF19C08091930581508093930524
:1019A0008091950590919605821B930B90939605D7
:1019B000809395058091990590919A05801B910BD4
:1019C00090939A05809399054423C9F080919405DA
:1019D0008150809394058091970590919805821B82
:1019E000930B909398058093970580919B05909118
:1019F0009C05801B910B90939C0580939B051092F6
:101A00006A031092690310926803109267031092A0
:101A100066031092650310926C0310926B03DF91C2
:101A2000CF911F910F910895211179CF50E040E09F
:101A30006ACF809164068230B8F4F89489E596E024
:101A40000E9433078091600690916106A091620622
:101A5000B091630678948093260390932703A09314
:101A60002803B09329030895F894ECCFEFEFF6E044
:101A70008385846083878385877F838783858F7E43
:101A8000838783858F7D838783858F7B838780E8AA
:101A90009FEFAFEFBFEF8093320390933303A09398
:101AA0003403B093350380E890E0A0E0B0E0809389
:101AB0002E0390932F03A0933003B093310384E05F
:101AC00090E0A0E0B0E080932A0390932B03A093D2
:101AD0002C03B0932D030C94190D10927A031092DD
:101AE0007B0310927C0310927D03EFEFF6E086817A
:101AF0008F7E868386818F7D868386818F7B86839A
:101B000086818F77868308950E94273E60937A03AB
:101B100070937B0380937C0390937D030895809161
:101B2000680690916906A0916A06B0916B06803FA5
:101B30009F4FAF4FBF4FD9F480916C0690916D06C7
:101B4000A0916E06B0916F06803F9F4FAF4FBF4F81
:101B500071F481E0409170065091710660917206B7
:101B600070917306403F5F4F6F4F7F4F09F080E0E9
:101B700008958091680690916906A0916A06B091D7
:101B80006B068C3F9C4FAC4FBC4FD9F480916C06D8
:101B900090916D06A0916E06B0916F068C3F9C4FA0
:101BA000AC4FBC4F71F481E04091700650917106CA
:101BB00060917206709173064C3F5C4F6C4F7C4F86
:101BC00009F080E008958091680690916906A091DF
:101BD0006A06B0916B06803C9F4FA04CBF4FD9F472
:101BE00080916C0690916D06A0916E06B0916F0683
:101BF000803C9F4FA04CBF4F71F481E04091700634
:101C0000509171066091720670917306403C5F4F6F
:101C1000604C7F4F09F080E00895809168069091B4
:101C20006906A0916A06B0916B060F97AC40B04868
:101C3000D1F480916C0690916D06A0916E06B091E2
:101C40006F060F97AC40B10571F481E040917006CA
:101C50005091710660917206709173064F3F510565
:101C60006C40710509F080E00895809168069091BC
:101C70006906A0916A06B0916B060F97A105B04F57
:101C8000D1F480916C0690916D06A0916E06B09192
:101C90006F060F97A105B10571F481E040917006C0
:101CA0005091710660917206709173064F30510524
:101CB0006105710509F080E008950E940D0E811103
:101CC00013C00E94350E811112C00E94E30D8111D4
:101CD00011C00E94B90D811110C00E948F0D811199
:101CE0000FC090E080E0089581E090E0089582E0E8
:101CF00090E0089583E090E0089584E090E00895F6
:101D000085E090E008958F929F92AF92BF92CF921C
:101D1000DF92EF92FF920E9475074B015C010E94D7
:101D2000190D81149104A104B10409F44EC0C090AE
:101D30000302D12CF12CE12C60E071E080E090E016
:101D40006C197D098E099F092CE030E040E050E0DD
:101D50000E94D4562F5F3F4F4F4F5F4FC501B401D4
:101D60000E947A56C61AD70AE80AF90A8EE1C816FE
:101D7000D104E104F1042CF49EE1C92ED12CE12C14
:101D8000F12C8FEFC816D104E104F10429F024F0FE
:101D9000C12CD12C7601CA948091E407811104C032
:101DA00085E994E00E948D388091E40781110BC091
:101DB0004AE0C701B6010E94473A6EEA72E083E04A
:101DC00094E00E940E3AC0920302FF90EF90DF90E1
:101DD000CF90BF90AF909F908F900895EFEFF6E077
:101DE00087818B7F878387818F7E87838781877FAA
:101DF00087830E94360D10921903109218031092D7
:101E00008003109281031092820310928303109238
:101E100061031092620310926303109264030895A9
:101E20006AE20C94D10468E10C94D10467E10C944B
:101E3000D10465E10C94D104E82FF0E093E0F5952E
:101E4000E7959A95E1F7E150F94F208130E08770EE
:101E5000A90102C0559547958A95E2F7CA0181709C
:101E6000089588E10C941C0F85E10C941C0F84E10B
:101E70000C941C0F81E10C941C0F70E0FB01F59594
:101E8000E795F595E795660F771F6670EC58F94F63
:101E9000408123E030E0062E01C0220F0A94EAF7C9
:101EA0002095242301C0880F6A95EAF7282B208308
:101EB0000895CF93DF93EC018091760690E024E0C3
:101EC000959587952A95E1F783708C171D0641F04B
:101ED000209731F48091FA069091FB060E94E80564
:101EE0006AE0CE01DF91CF910C943D0FCF93DF9349
:101EF000EC018091760690E095958795959587956C
:101F000083708C171D0641F0209731F48091F806FC
:101F10009091F9060E94130669E0CE01DF91CF91FE
:101F20000C943D0FCF93DF93EC0180917606837084
:101F30008C171D0641F0209731F48091F6069091A0
:101F4000F7060E94380668E0CE01DF91CF910C942D
:101F50003D0FCF93DF93EC018091750690E026E072
:101F6000959587952A95E1F7C817D90741F02097ED
:101F700031F48091F4069091F5060E944B0667E0DB
:101F8000CE01DF91CF910C943D0FCF93DF93EC0105
:101F90008091750690E024E0959587952A95E1F764
:101FA00083708C171D0639F0209729F48091F30671
:101FB00090E00E945E0666E0CE01DF91CF910C9426
:101FC0003D0FCF93DF93EC018091750690E09595DE
:101FD00087959595879583708C171D0639F0209706
:101FE00029F48091F20690E00E94740665E0CE012B
:101FF000DF91CF910C943D0FCF93DF93EC01809153
:10200000750683708C171D0659F0209749F460916E
:10201000EF068091F0069091F10670E00E948A062A
:1020200064E0CE01DF91CF910C943D0F64E090E02D
:1020300080E00E943D0F65E090E080E00E943D0F4F
:1020400066E090E080E00E943D0F67E090E080E075
:102050000E943D0F68E090E080E00E943D0F69E043
:1020600090E080E00E943D0F6AE090E080E00E94F6
:102070003D0F60E090E080E00E943D0F61E090E065
:1020800080E00E943D0F62E090E080E00E943D0F02
:10209000EFEFF6E082858E7F828782858D7F828753
:1020A00082858B7F82878285877F828782858F7EEC
:1020B000828782858F7D828782858F7B8287089544
:1020C000CF93DF93EC018091770690E026E0959521
:1020D00087952A95E1F7C817D90741F0209731F481
:1020E0008091ED069091EE060E9469096FE0CE01A5
:1020F000DF91CF910C943D0FCF93DF93EC01809152
:10210000770690E024E0959587952A95E1F783700E
:102110008C171D0641F0209731F48091ED069091C7
:10212000EE060E9469096EE0CE01DF91CF910C941A
:102130003D0FCF93DF93EC018091770690E095956A
:1021400087959595879583708C171D0641F020978C
:1021500031F48091ED069091EE060E9469096DE0E0
:10216000CE01DF91CF910C943D0FCF93DF93EC0123
:102170008091770683708C171D0641F0209731F40B
:102180008091ED069091EE060E9469096CE0CE0107
:10219000DF91CF910C943D0F2091ED063091EE062A
:1021A0008091DB069091DC062817390709F0B6C04C
:1021B0000E94FE398091ED069091EE060E94690919
:1021C0008091ED069091EE06039799F49091EF06B9
:1021D0008091DD069813C8C090E080E00E94FC0F5B
:1021E0006091EF068091F0069091F10670E00E94F8
:1021F0008A068091ED069091EE060397B9F1209141
:10220000F0063091F1068091DE069091DF062817E6
:10221000390709F0AEC090E080E00E94FC0F6091A9
:10222000EF068091F0069091F10670E00E948A0618
:102230009091F3068091E1069813A0C090E080E0B1
:102240000E94C50F8091F30690E00E945E06909177
:10225000F2068091E006981396C090E080E00E941C
:10226000E10F8091F20690E00E9474062091F6063C
:102270003091F7068091E4069091E506281739071A
:1022800009F086C090E080E00E94920F8091F606EF
:102290009091F7060E9438062091F4063091F506D9
:1022A0008091E2069091E3062817390709F075C07E
:1022B00090E080E00E94A90F8091F4069091F506CD
:1022C0000E944B062091F8063091F9068091E606AF
:1022D0009091E7062817390709F064C090E080E084
:1022E0000E94760F8091F8069091F9060E941306DD
:1022F0002091FA063091FB068091E8069091E9065C
:102300002817390709F053C090E080E00E94590F68
:102310008091FA069091FB060C94E8058091ED06F9
:102320009091EE06892B29F481E090E00E94B5108F
:1023300047CF8091ED069091EE06019729F481E058
:1023400090E00E9499103CCF8091ED069091EE06AE
:10235000039729F481E090E00E947C1031CF81E066
:1023600090E00E9460102CCF81E090E00E94FC0F72
:1023700040CF81E090E00E94FC0F5ACF81E090E0D6
:102380000E94C50F64CF81E090E00E94E10F6ECF04
:1023900081E090E00E94920F7FCF81E090E00E9468
:1023A000A90F90CF81E090E00E94760FA1CF81E04D
:1023B00090E00C94590FCF93DF9390930502809394
:1023C000040280917E0390917F030197A9F0809190
:1023D000ED069091EE060E946909C0917E03D091AE
:1023E0007F030E94993CC230D10581F040F0C33098
:1023F000D10571F0249771F0DF91CF91089560E1DC
:1024000082E090E0DF91CF910C943D0F61E1F8CF35
:1024100062E1F6CF63E1F4CFCF92DF92EF92FF92C9
:102420000E9475076B017C010E94190D8091920832
:1024300090E0B0E0A0E0CC0CDD1CEE1CFF1CC80E50
:10244000D91EEA1EFB1E23ECC216D104E104F104DE
:102450002CF433ECC32ED12CE12CF12C2BEFC21633
:10246000D104E104F1042CF02AEFC22ED12CE12C8E
:10247000F12C8C199D09AE09BF090196A11DB11D52
:102480000397A105B10510F1C0929208D092010204
:10249000C0920002B6018AE00E94F93CA1E0BFEFC1
:1024A000A70196010E9401572FEF30E040E050E075
:1024B0000E94D456DA01C90181509F4FAF4FBF4FE0
:1024C000FF90EF90DF90CF900C94DB11FF90EF9096
:1024D000DF90CF9008956CE090E080E00E943D0F87
:1024E0006DE090E080E00E943D0F6EE090E080E0C3
:1024F0000E943D0F6FE090E080E00E943D0F60E1A0
:1025000090E080E00E943D0F61E190E080E00E9459
:102510003D0F62E190E080E00E943D0F63E190E0BA
:1025200080E00E943D0F0E94993C60E08CE00E9498
:10253000FD3B60E08BE00E94FD3B0C94893CCF9317
:10254000DF93FC012085318590E080E02115310585
:1025500001F12430310501F540815181828193815F
:10256000B0E0A0E0840F951FA11DB11D248135812D
:10257000820F931FA11DB11D26813781820F931FEA
:10258000A11DB11D22E0B595A795979587952A9530
:10259000D1F7DF91CF91089582859385C3E0D0E094
:1025A000892B19F0C285D385219760E070E0CB01BB
:1025B00050E040E0DE01AA0FBB1FAE0FBF1F0D9021
:1025C000BC91A02D6A0F7B1F811D911D209761F08A
:1025D00021974F5F5F4F2417350761F750E040E0C8
:1025E0000E94D456C901D5CFC3E0D0E0F2CFFC01A0
:1025F000A285B385AA0FBB1FAE0FBF1F11967C9398
:102600006E938285938501969387828782859385D1
:10261000049711F41386128680859185049730F40F
:1026200080859185019691878087089584E090E068
:10263000FACF87E096E00E94BB0B05966AE070E057
:102640000E948A568091E2069091E306681B790BFE
:102650006A30710514F00C94F3390895DC01ED91A2
:10266000FC910684F785E02D40E0199461E00E941A
:102670002E138BE39FE10197F1F708950F931F93BA
:10268000CF93DF93EC01423018F08C8188608C830B
:102690004F836887222329F0413019F48C818460AC
:1026A0008C8364E670E080E090E00E94F53D6C81F0
:1026B00064FD50C0E881F9810684F785E02D42E091
:1026C00063E0CE0119950BE416E4C8010197F1F718
:1026D000E881F9810684F785E02D42E063E0CE01D0
:1026E0001995C8010197F1F7E881F9810684F7850A
:1026F000E02D42E063E0CE01199583E592E0019779
:10270000F1F7E881F9810684F785E02D42E062E087
:10271000CE0119956C816062CE010E942E1384E077
:102720008D836CE0CE010E942E13CE010E943613E1
:1027300082E08E8366E0CE010E942E13E881F9814B
:102740000484F585E02D6FEFCE01DF91CF911F91CD
:102750000F9119946062CE010E942E138BE496E4CF
:102760000197F1F76C816062CE010E942E1383E520
:1027700092E00197F1F76C816062CE010E942E1306
:10278000C9CF4F925F926F927F928F929F92AF923A
:10279000BF92EF92FF920F931F93CF93DF93EC01C1
:1027A000062FF42EE22E8B85888B1092C603109292
:1027B000C5031092C8031092C7030E94074A8FED09
:1027C00097E39093CF038093CE0380EE97E39093AB
:1027D000D1038093D00388E08093B80018890E94C9
:1027E000D03D4B015C018091D303811164C081E035
:1027F0008093D3038093D5039FEF9093D2031092DD
:10280000F7031092F6038093F8038091F803110FF9
:10281000182B1093F8038091D403813009F09DC0E8
:102820001092D4030E94D03D4B015C018091F803CB
:102830008093BB008091CA039091CB03A091CC03FD
:10284000B091CD03892B8A2B8B2BA1F00E94D03D18
:102850004090CA035090CB036090CC037090CD039E
:10286000681979098A099B09461657066806790688
:1028700008F442C08091BC0083FDD8CF85EC8093E2
:10288000BC000E94D03D4B015C018091D30381309C
:1028900009F465C08091F703811183C08091F7032B
:1028A000E6EDF3E0A5EAB3E090E0981751F121914D
:1028B0002D939F5FFACF8091CA039091CB03A09193
:1028C000CC03B091CD03892B8A2B8B2B09F48BCFB2
:1028D0000E94D03D4090CA035090CB036090CC033F
:1028E0007090CD03681979098A099B094616570625
:1028F0006806790608F077CF8091C9030E94254ABF
:1029000080E01092C6038093C50391E0811101C05D
:1029100090E0998B8CED95E00E94F0378E87898945
:10292000882339F01F861C8260E0CE010E960E943B
:102930007E092E2D4F2D602FCE01DF91CF911F915B
:102940000F91FF90EF90BF90AF909F908F907F90EE
:102950006F905F904F900C943E1385EE90CF8091D6
:10296000CA039091CB03A091CC03B091CD03892BE6
:102970008A2B8B2B09F489CF0E94D03D4090CA034B
:102980005090CB036090CC037090CD036819790907
:102990008A099B09461657066806790608F075CF1E
:1029A000ABCF81E07DCFEF92FF920F931F93CF9338
:1029B000DF938B0198E0899FB0011124606483E26A
:1029C00097E00E942E1383E790E00197F1F7E8016A
:1029D000085F1F4F8BE9E82EF12C699183E297E0A5
:1029E0000E94F208C7010197F1F70C171D07A9F71C
:1029F000DF91CF911F910F91FF90EF90089561E0CB
:102A000087E10E94BD3C60E087E10E94FD3BFFCF73
:102A100061E08AE00E94BD3C61E082E00E94BD3C32
:102A200061E083E00E94BD3C61E084E00E94BD3C27
:102A300061E085E00E94BD3C61E086E00E94BD3C13
:102A400061E087E00E94BD3C61E089E00E94BD3CFE
:102A500061E088E00E94BD3C61E08CE00E94BD3CEA
:102A600061E08BE00E94BD3C61E08EE20E94BD3CD3
:102A700061E088E20E94BD3C61E089E20E94BD3CC9
:102A800061E08AE20E94BD3C61E08BE20E94BD3CB5
:102A900061E08CE20E94BD3C61E081E30E94BD3CAC
:102AA00061E083E30E94BD3C61E084E30E94BD3CA1
:102AB00061E085E30E94BD3C61E08EE00E94BD3C88
:102AC00061E08FE00E94BD3C61E080E10E94BD3C7E
:102AD00061E080E30E94BD3C61E086E20E94FD3B34
:102AE00061E086E20E94BD3C61E087E10E94FD3B1F
:102AF00060E087E10E94BD3C61E088E10E94BD3C4E
:102B00006DEC70E08AE00E94F93C60E082E00E9497
:102B1000FD3B60E083E00E94FD3B60E084E00E94BA
:102B2000FD3B60E085E00E94FD3B60E086E00E94A6
:102B3000FD3B60E087E00E94FD3B60E089E00E9491
:102B4000FD3B60E088E00E94FD3B60E08CE00E947D
:102B5000FD3B60E08BE00E94FD3B60E08EE20E9466
:102B6000FD3B60E088E20E94FD3B60E089E20E945C
:102B7000FD3B60E08AE20E94FD3B60E08BE20E9448
:102B8000FD3B61E08CE20E94FD3B60E081E30E943E
:102B9000FD3B60E083E30E94FD3B60E084E30E9434
:102BA000FD3B60E085E30E94FD3B60E080E30E9426
:102BB000FD3B60E088E10C94FD3B62E081E10E9416
:102BC000BD3C60E082E10E94BD3C60E083E10E9488
:102BD000BD3C62E081E10E94BD3C62E081E20E9476
:102BE000BD3C62E080E20E94BD3C62E08DE20E945A
:102BF000BD3C62E082E20E94BD3C62E084E20E9451
:102C0000BD3C62E083E20E94BD3C62E087E20E943C
:102C1000BD3C62E085E20E94BD3C62E08FE20E9422
:102C2000BD3C62E086E10E94BD3C62E084E40E941B
:102C3000BD3C62E085E40E94BD3C62E083E40E940A
:102C4000BD3C60E086E30E94BD3C60E087E30E94FB
:102C5000BD3C60E081E40E94BD3C60E08DE00C94EE
:102C6000BD3CCF93DF93EC0144E550E060E270E0BF
:102C70000E94F2571C8A19A61EAECD5ADF4F188249
:102C8000DF91CF910895EF92FF920F931F93CF930F
:102C9000DF93EC018FEF888389838A838B831C8287
:102CA0001D821E821F8218867E0110E000E0C8018E
:102CB0000E946456F70181937F010F5F1F4F093017
:102CC0001105A9F7CE01DF91CF911F910F91FF90D0
:102CD000EF900895FF920F931F93CF93DF93EC0132
:102CE000F62E08811981C8010E946456F81621F059
:102CF0006F2DC8010E946C56CE01DF91CF911F91BC
:102D00000F91FF900895AF92BF92CF92DF92EF9212
:102D1000FF920F931F93CF93DF931F921F92CDB714
:102D2000DEB78B016B0124E0C20ED11C7B015C017C
:102D3000A61AB70AC5018E0D9F1D9A838983F701D4
:102D400061917F01CE0101960E946A16EC14FD0488
:102D500089F7C8010F900F90DF91CF911F910F91CC
:102D6000FF90EF90DF90CF90BF90AF9008953F928B
:102D70004F925F926F927F928F929F92AF92BF928B
:102D8000CF92DF92EF92FF920F931F93CF93DF9337
:102D9000CDB7DEB7C051D1400FB6F894DEBF0FBE3D
:102DA000CDBF382ECE018B5A9F4F0E943116BE01E7
:102DB0006F5F7F4F85E190E00E94ED0A89819A81E3
:102DC000AB81BC81C75FDE4F88839983AA83BB83B5
:102DD000C950D140892B8A2B8B2B09F43CC033205E
:102DE00009F439C02BEB37E040E0552760E0CE0115
:102DF0008B5A9F4F0E94C83A2AEA37E040E0552795
:102E000061E0CE018B5A9F4F0E94C83A29EA37E011
:102E100040E0552762E0CE018B5A9F4F0E94C83A8E
:102E200025E937E040E0552763E0CE018B5A9F4FFC
:102E30000E94C83ACE018B5A9F4F0E940D3B0E94C0
:102E4000BE31882341F0C75FDE4F188219821A8293
:102E50001B82C950D140BE016F5F7F4F81E190E07E
:102E60000E94ED0A89819A81AB81BC81C35FDE4FEC
:102E700088839983AA83BB83CD50D140892B8A2B29
:102E80008B2B09F43CC0332009F439C027E837E024
:102E900040E0552760E0CE018B5A9F4F0E94C83A10
:102EA00026E737E040E0552761E0CE018B5A9F4F7F
:102EB0000E94C83A25E737E040E0552762E0CE019E
:102EC0008B5A9F4F0E94C83A21E637E040E05527D1
:102ED00063E0CE018B5A9F4F0E94C83ACE018B5AB5
:102EE0009F4F0E940D3B0E94BE31882341F0C35F7B
:102EF000DE4F188219821A821B82CD50D140CE013A
:102F000001960E94311621E337E040E0552760E04A
:102F1000CE0101960E94C83A25E237E040E05527ED
:102F200061E0CE0101960E94C83A27E137E040E017
:102F3000552762E0CE0101960E94C83A26E137E0AB
:102F400040E0552763E0CE0101960E94C83ACE01C9
:102F500001960E940D3B4DE057E060E077276E013F
:102F600029EAC20ED11CC6010E94AC4B0E94273E2A
:102F70002B013C01EE24E394F12C09E010E05E010A
:102F800081EFA80EB11C0E94273E641975098609BD
:102F90009709693E734081059105C0F147018FEFA4
:102FA000881A980AFF92EF92DF92CF92BF92AF9267
:102FB0000E940F5844E150E0B501CE0187529F4F67
:102FC0000E940058C351DF4F1882CD5ED040CE0121
:102FD00087529F4F0E94A83844E150E0BC01CE01C7
:102FE000805C9F4F0E94005865961FAE6597CE018A
:102FF00001960E940D3B0E94273E2B013C010F9041
:103000000F900F900F900F900F90740160E0C80127
:103010000E946C560F5F1F4F011520E1120709F047
:10302000B2CF332071F0BE01675F7E4F85E190E043
:103030000E948316BE01635F7E4F81E190E00E9493
:1030400083168AEB9FE2ABE4B4E589839A83AB8372
:10305000BC83BE016F5F7F4F89E090E00E948316C2
:1030600088EE95E00E9494408091E407811104C0AD
:1030700081E497E00E94FD3A6AE072E081E090E02E
:103080000E94130B60E086E20E94FD3B64E670E064
:1030900080E090E00E94F53D61E086E20E94FD3B09
:1030A00068EC70E080E090E00E94F53D109203062D
:1030B0001092020610920106109200061092FF056F
:1030C0001092FE058FE190E0909305068093040630
:1030D0008091F40596EF980F943048F02EEC280F6D
:1030E000243028F022EC280F283008F061C021E0BD
:1030F00030E03093FF052093FE052DE130E0309362
:103100000106209300062DE030E030930306209363
:103110000206943050F02EEC280F243030F022ECD0
:10312000280FF0E0E0E0283010F4E8E6F0E020813D
:10313000943028F032EC380F383008F46FC031E0AA
:10314000232B943048F09EEC980F943028F08E5347
:10315000F0E0E0E0883010F4E8E6F0E02083209131
:10316000F40536EF320F343008F45AC08EEC820F7B
:10317000843008F455C082EC820F883008F453C0C4
:1031800090E080E09093FC058093FB05343008F0DC
:103190004DC02650330B81E001C0880F2A95EAF715
:1031A0008093FD0580910406909105060197F1F743
:1031B0008091020690910306892B21F18091FF03F3
:1031C0009091000425E0883E9207E1F0009711F00D
:1031D0000E949440809106068E7F8093060610928E
:1031E000FD031092FE0388EE95E090930004809317
:1031F000FF03E091FB05F091FC0580819091FD05B6
:10320000892B808388EE95E00E9481371816190675
:1032100014F588EE95E00E949737F4CF34E090CF14
:103220008BE690E0AFCF8DE690E0ACCF88E0223324
:1032300009F4B6CF84E0233309F4B2CF82E024331B
:1032400009F4AECF82EC820F883018F42E53330B82
:10325000A2CF81E0A5CF05E010E06AE072E090E047
:1032600080E00E94130B01501109B9F762E370E08E
:1032700080E090E00E94F53D61EB72E090E080E03C
:103280000E94130B66EB72E085E390E00E94130B43
:10329000C05FDE4F0FB6F894DEBF0FBECDBFDF912B
:1032A000CF911F910F91FF90EF90DF90CF90BF9043
:1032B000AF909F908F907F906F905F904F903F90D6
:1032C0000895CF93DF93CDB7DEB7C455D1090FB6BC
:1032D000F894DEBF0FBECDBF1FB7F89480E00E9408
:1032E000190F80E00E94160F809101078F7B809359
:1032F000010780E00E94130F1FBF8091E407811136
:1033000004C087E194E00E94FD3A0E94DD150E940E
:10331000081581E090E090937F0380937E030E94E4
:103320009D1E80E18093A1001092A00080E89EE3A2
:103330009093A7008093A60081E18093A10086EE80
:1033400090E4909302048093010481E080937200E2
:103350000E949D1E0E94893C0E94280761E090E027
:1033600080E00E94D9050E948D1C81E00E94B71662
:10337000CE0101960E9431160E94722026E034E0B0
:1033800040E0552760E0CE0101960E94C83A2DEF3B
:1033900033E040E0552761E0CE0101960E94C83A33
:1033A0002CEF33E040E0552762E0CE0101960E9409
:1033B000C83A27EE33E040E0552763E0CE0101969E
:1033C0000E94C83ACE0101960E940D3B8091FE07F3
:1033D0009091FF0780689093FF078093FE070FB6D8
:1033E000F894A895809160008861809360001092A5
:1033F00060000FBE0E94BE318823E1F30E94FF14DB
:103400000FB607FE05C0A8950E94E21A0E94181A7E
:103410000FB607FE0AC00E94370F81110E94FF14E9
:103420000E94310F81110E9461198BE00C941C0FD6
:103430001F93CF93DF93CDB7DEB7C455D1090FB635
:10344000F894DEBF0FBECDBF8091150381111BC064
:1034500081E0809315030E94A22C8823F9F08091CB
:1034600001078E7F8093010784E5ECE3F7E0DE013E
:10347000119601900D928A95E1F7CE0101960E9476
:103480006F2310921503CC5ADF4F0FB6F894DEBFAE
:103490000FBECDBFDF91CF911F9108950E94340FD1
:1034A0008111EFCF0E94001A882359F38091000701
:1034B000877F809300070E94F507CE0101960E9446
:1034C000311623EA33E040E0552760E0CE01019653
:1034D0000E94C83A2EE833E040E0552761E0CE0173
:1034E00001960E94C83A29E733E040E0552762E0A0
:1034F000CE0101960E94C83A24E633E040E0552709
:1035000063E0CE0101960E94C83ACE0101960E9466
:103510000D3B0E945D0E9093200380931F030E9439
:1035200005201FB7F894809101078D7F80930107D4
:10353000809101078B7F8093010780910107877F2E
:1035400080930107809101078F7E8093010781E0BE
:103550000E94190F809101078F7B8093010780E003
:103560000E94160F80E00E94130F1FBF109291005F
:10357000109295001092940080E180939100109237
:1035800015038091E40781117ECF87EB93E00E94C1
:10359000FD3A79CF0FB607FE05C0A8950E94E21A42
:1035A0000E94181A0FB607FE0AC00E94370F811139
:1035B0000E94FF140E94310F81110E9461198CE05A
:1035C0000C941C0F1F93CF93DF93CDB7DEB7C45578
:1035D000D1090FB6F894DEBF0FBECDBF80911A039C
:1035E000882369F010921403CC5ADF4F0FB6F89479
:1035F000DEBF0FBECDBFDF91CF911F9108958091A7
:1036000014038111F1CF81E0809314030E94A22C56
:10361000882399F0809101078E7F8093010784E5CC
:10362000ECE3F7E0DE01119601900D928A95E1F747
:10363000CE0101960E946F23D5CF0E943A0F8111CF
:10364000D1CF0E94CA1A882369F2809100078F7E29
:10365000809300070E94F507CE0101960E94311663
:1036600027E233E040E0552760E0CE0101960E945A
:10367000C83A22E133E040E0552761E0CE010196EF
:103680000E94C83A2DEF32E040E0552762E0CE01BB
:1036900001960E94C83A28EE32E040E0552763E0E8
:1036A000CE0101960E94C83ACE0101960E940D3BC0
:1036B0000E945D0E9093200380931F030E940520BB
:1036C0001FB7F89480910107826080930107809171
:1036D00001078B7F8093010780910107877F80938B
:1036E0000107809101078F7E8093010780E00E948F
:1036F000190F809101078F7B8093010780E00E9462
:10370000160F80E00E94130F1FBF109291001092BD
:1037100095001092940080E1809391001092140320
:103720008091E407811160CF8CE393E00E94FD3A21
:103730005BCF0F93FC013297E930F10578F48827CD
:10374000EB55F44E8F4F0C94A657BE1BB81BC41BF1
:10375000CB1BD21BD91BE01B041C231C6091EF0662
:103760008091F0069091F10670E00F910C948A061A
:103770008091F20690E00F910C9474068091F3060C
:1037800090E00F910C945E068091F4069091F506FE
:103790000F910C944B068091F6069091F7060F91CD
:1037A0000C9438068091F8069091F9060F910C94CC
:1037B00013068091FA069091FB060F910C94E80590
:1037C0000FB607FE05C0A8950E94E21A0E94181ABB
:1037D0000FB607FE0AC00E94370F81110E94FF1426
:1037E0000E94310F81110E94611987E50E941C0F10
:1037F00000E0282F42E050E070E060E080E790E0D9
:103800000E9447050F9108950FB607FE05C0A895C1
:103810000E94E21A0E94181A0FB607FE08C00E9402
:10382000370F8111DBCF0E94310F8111DCCF88E58A
:103830000E941C0F00E0282F42E050E070E060E0A2
:1038400080E890E0DDCF0FB607FE05C0A8950E9486
:10385000E21A0E94181A0FB607FE08C00E94370F1E
:103860008111BCCF0E94310F8111BDCF89E50E942B
:103870001C0F682F90E080E00F910C94D9050F93F6
:103880001F9300915D0310915E0320915F033091BF
:103890006003DC01CB01801B910BA20BB30B2091C9
:1038A0000902222369F04497A105B10530F0CA014D
:1038B0000E94E20681E080935C031F910F910895BE
:1038C0000697A105B105C8F3CA010E94991BF2CF62
:1038D0000F931F93009158031091590320915A039D
:1038E00030915B03E0910802EE2371F060177107DD
:1038F0008207930731F0CA010E94E20681E08093BB
:1039000057031F910F91089560177107820793075E
:10391000C1F3CA010E94991BF1CF0FB607FE05C083
:10392000A8950E94E21A0E94181A0FB607FE0AC054
:103930000E94370F81110E94FF140E94310F8111E4
:103940000E94611980E50E941C0F882331F063E01A
:1039500070E090E080E00E94B1060FB607FE05C05F
:10396000A8950E94E21A0E94181A0FB607FE08C016
:103970000E94370F8111DFCF0E94310F8111E0CFFC
:1039800081E50E941C0F882331F062E070E080E244
:1039900090E00E94B1060FB607FE05C0A8950E94F0
:1039A000E21A0E94181A0FB607FE08C00E94370FCD
:1039B0008111C1CF0E94310F8111C2CF82E50E94D7
:1039C0001C0F882331F061E070E088E190E00E94F4
:1039D000B1060FB607FE05C0A8950E94E21A0E9424
:1039E000181A0FB607FE08C00E94370F8111A3CF27
:1039F0000E94310F8111A4CF83E50E941C0F882300
:103A000031F062E070E080E390E00E94B1060FB612
:103A100007FE05C0A8950E94E21A0E94181A0FB668
:103A200007FE08C00E94370F811185CF0E94310F19
:103A3000811186CF84E50E941C0F882331F062E05B
:103A400070E080E490E00E94B1060FB607FE05C06A
:103A5000A8950E94E21A0E94181A0FB607FE08C025
:103A60000E94370F811167CF0E94310F811168CFFB
:103A700085E50E941C0F882331F062E070E080E54C
:103A800090E00E94B1060FB607FE05C0A8950E94FF
:103A9000E21A0E94181A0FB607FE08C00E94370FDC
:103AA000811149CF0E94310F81114ACF86E50E94D2
:103AB0001C0F882331F062E070E080E690E00E9405
:103AC000B106289880914203882381F09FB7F8942B
:103AD000809142038130B1F58DB3809341032DB3C2
:103AE00080914003809582238DBB9FBF80E78CBD72
:103AF00081E08DBDE3E4F3E09081818132960CB4E6
:103B000005FC23C08EBD00000DB407FEFDCF8EB5B1
:103B10009EBD00000DB407FEFDCF8EB583E0E735F6
:103B2000F80751F780914203882351F09FB7F8942A
:103B30002091420380914103213099F48DBB9FBFB6
:103B4000289A089590934103D1CF9EBD00000DB4F3
:103B500007FEFDCF9EB58EBD00000DB407FEFDCF64
:103B6000DCCF8FBFEDCF0FB607FE05C0A8950E9432
:103B7000E21A0E94181A0FB607FE0AC00E94370FF9
:103B800081110E94FF140E94310F81110E9461195E
:103B900084E60C941C0F0FB607FE05C0A8950E9482
:103BA000E21A0E94181A0FB607FE0AC00E94370FC9
:103BB00081110E94FF140E94310F81110E9461192E
:103BC0008FE50C941C0F0FB607FE05C0A8950E9448
:103BD000E21A0E94181A0FB607FE0AC00E94370F99
:103BE00081110E94FF140E94310F81110E946119FE
:103BF0008EE50C941C0F0FB607FE05C0A8950E9419
:103C0000E21A0E94181A0FB607FE0AC00E94370F68
:103C100081110E94FF140E94310F81110E946119CD
:103C20008AE50C941C0F0FB607FE05C0A8950E94EC
:103C3000E21A0E94181A0FB607FE0AC00E94370F38
:103C400081110E94FF140E94310F81110E9461199D
:103C50008AE40C941C0F80917E0390917F0303975C
:103C600011F00C94131E81E008950FB607FE05C0F5
:103C7000A8950E94E21A0E94181A0FB607FE0AC001
:103C80000E94370F81110E94FF140E94310F811191
:103C90000E94611982E40C941C0F0FB607FE05C048
:103CA000A8950E94E21A0E94181A0FB607FE0AC0D1
:103CB0000E94370F81110E94FF140E94310F811161
:103CC0000E9461198DE30C941C0FCF93C82F0E94A2
:103CD0004D1E882379F061EE72E0CC2311F06DEB7C
:103CE00072E080E290E00E94130B6EE38C2FCF9184
:103CF0000C94D104CF9108951092220310922303C3
:103D00001092240310922503E8E6F6E01082118257
:103D100012821382148215821682178210861186EF
:103D200012861386109267061092210380919308E1
:103D30008093030280E00C94651E1F93CF93DF9362
:103D400000D000D01F921F92CDB7DEB70E94EE0EBA
:103D50000E94F5070E946B12809104029091050267
:103D60000E94DB11289A1FB7F894809117038111E4
:103D700027C0E6E2F9E08491E6ECF8E09491E82FC0
:103D8000F0E0EE0FFF1FEB51F84FA591B491EC91CD
:103D9000E92321F461E085E30E94FD3B61E085E3D6
:103DA0000E94BD3C8CB580618CBD8CB580648CBD9F
:103DB00061E084E30E94BD3C61E083E30E94BD3C7E
:103DC000809117038F5F809317031FBF8FB7F894FD
:103DD00092E0909342038FBF0E9416106091000200
:103DE0007091010270930102609300028AE00E94C8
:103DF000F93C20E044E064E183E297E00E94C113D3
:103E000050E040E063E083E297E00E94DE0861E07A
:103E100083E297E00E94D40A60912807862F84608D
:103E2000809328076C6083E297E00E942E136091D4
:103E300028076D7F60932807686083E297E00E94FF
:103E40002E1383E297E00E9436134AE654E060E0C6
:103E5000772728E030E0CE0101960E94A24BBE01F8
:103E60006F5F7F4F80E00E94D31442E654E060E031
:103E7000772728E030E0CE0101960E94A24BBE01D8
:103E80006F5F7F4F81E00E94D3144AE554E060E009
:103E9000772728E030E0CE0101960E94A24BBE01B8
:103EA0006F5F7F4F82E00E94D31442E554E060E0F0
:103EB000772728E030E0CE0101960E94A24BBE0198
:103EC0006F5F7F4F83E00E94D3144AE454E060E0C8
:103ED000772728E030E0CE0101960E94A24BBE0178
:103EE0006F5F7F4F84E00E94D31442E454E060E0AF
:103EF000772728E030E0CE0101960E94A24BBE0158
:103F00006F5F7F4F85E00E94D3144AE354E060E086
:103F1000772728E030E0CE0101960E94A24BBE0137
:103F20006F5F7F4F86E00E94D31442E354E060E06D
:103F3000772728E030E0CE0101960E94A24BBE0117
:103F40006F5F7F4F87E00E94D31410926806109233
:103F5000690610926A0610926B0610926C06109217
:103F60006D0610926E0610926F06109270061092F7
:103F700071061092720610927306109267060E94E4
:103F80007C1E0E94190D8DEC809392088DEC90E0C0
:103F900090930102809300026DEC70E08AE00E9431
:103FA000F93C8091920890E00E94DB110E946B1214
:103FB0000E9428070E948D1C83E297E00E9436131E
:103FC0008AE090E0A0E0B0E0809361039093620308
:103FD000A0936303B0936403109280031092810353
:103FE0001092820310928303809106078F7E809344
:103FF000060790E080E028960FB6F894DEBF0FBE6B
:10400000CDBFDF91CF911F910895CF93DF930E9491
:10401000273E60932203709323038093240390939D
:104020002503E8E6F6E080EF9FEFAFEFBFEF808378
:104030009183A283B38384839583A683B783808788
:104040009187A287B3871092670610922103CFEF62
:10405000D6E08E81877F8E838E818F7E8E830E94B5
:104060006D0D8E818F7D8E830E946D0D8E818F7B75
:104070008E830E946D0D88EC8093030281E0DF91B6
:10408000CF910C94651E0E94273E6093220370938B
:1040900023038093240390932503E8E6F6E08FE062
:1040A00090E0ACE0B0E880839183A283B3838FE09B
:1040B00090E0ACE0B0E084839583A683B7838FEF74
:1040C00090E0ACE0B0E080879187A287B387109240
:1040D000670610922103809193088093030280E089
:1040E0000C94651E0E94273E609322037093230365
:1040F0008093240390932503E8E6F6E080EC9FEF9D
:10410000DC0180839183A283B38384839583A68318
:10411000B78380879187A287B38710926706109232
:104120002103EFEFF6E08681877F868386818F7E8D
:1041300086830E946D0D809194088093030281E034
:104140000C94651E82309105A1F028F4009769F067
:10415000019769F008958430910509F446C008F488
:1041600042C0059709F482C008950C947C1E0C94FB
:1041700043200E94273E6093220370932303809381
:1041800024039093250380910507877F809305077B
:104190008FE090E0A0E0B0EF80936806909369060E
:1041A000A0936A06B0936B068FE090E0A0E0B0E0C9
:1041B00080936C0690936D06A0936E06B0936F0685
:1041C0008093700690937106A0937206B093730665
:1041D0001092670610922103809193088093030246
:1041E00080E00C94651E0C9472200E94273E609320
:1041F00022037093230380932403909325038CEF71
:104200009CEFDC018093680690936906A0936A0690
:10421000B0936B0680936C0690936D06A0936E0628
:10422000B0936F068093700690937106A093720608
:10423000B0937306109267061092210380910507D0
:10424000877F80930507809105078F7E8093050700
:104250000E946D0D809105078F7D809305070E9458
:104260006D0D88EC8093030281E0BBCF0C94052098
:104270002F923F924F925F926F927F928F929F9276
:10428000AF92BF92CF92DF92EF92FF920F931F9364
:10429000CF93DF93CDB7DEB7CC54D1090FB6F894E6
:1042A000DEBF0FBECDBF0E944D1E882341F088EEB9
:1042B00095E00E948137892BE1F480917903C45BFA
:1042C000DF4F0FB6F894DEBF0FBECDBFDF91CF91A9
:1042D0001F910F91FF90EF90DF90CF90BF90AF9024
:1042E0009F908F907F906F905F904F903F902F9016
:1042F000089588EE95E00E9497379C01809179039C
:10430000882309F440C02C333105C9F68091E407B5
:10431000811104C087EB96E00E948D388091E407FC
:10432000811104C08CE390E00E94AE3A80917A063D
:1043300090917B06A0917C06B0917D0680937503D9
:1043400090937603A0937703B09378031092790348
:10435000809107078D7F809307076FE081E00E94BF
:10436000CD49809100078B7F809300078091E407FF
:10437000909179039111CDC081119FCF8AE796E08A
:104380000E94FD3A9ACF2D33310509F098CF8091E4
:10439000E407811104C08EE896E00E948D38809178
:1043A000E407811104C08DE390E00E94AE3A809151
:1043B0007A062A968FAF2A9790917B062B969FAF0D
:1043C0002B9780917C062C968FAF2C9790917D0631
:1043D0002D969FAF2D9781E0809379036FE080E069
:1043E0000E94CD49809107078260809307078091E2
:1043F00000078B7F809300076AE072E090E080E026
:104400000E94130B6AE072E090E080E00E94130BC0
:104410006AE072E090E080E00E94130B0E94273E69
:104420006B017C010E94AA404090F9035090FA036E
:104430006090FB037090FC039201A30160E070E0C8
:1044400080E090E000E20E94AE5756016701E12C47
:10445000F12C00E010E00E94E4575F934F933F93EC
:104460002F9300E20E94C9575F934F933F932F937E
:104470008FEB92E09F938F938E010F5F1F4F1F93DF
:104480000F930E940F58B80184E090E00E94130B34
:10449000B80184E090E00E94130B62E370E080E0DA
:1044A00090E00E94F53DF0907503E0907603D09087
:1044B0007703C090780348E556E060E07727C801AD
:1044C0000E94AC4B2D968FAD2D978F932C969FAD60
:1044D0002C979F932B968FAD2B978F932A969FADFA
:1044E0002A979F93CF92DF92EF92FF921F930F93A1
:1044F000005D1F4F1F930F930E940F58B80186E372
:1045000090E00E94130B0FB6F894DEBF0FBECDBF34
:104510002DCF8111D2CE82E696E032CFAF92BF92FC
:10452000CF92DF92EF92FF920F931F93CF93DF937F
:10453000CDB7DEB7C057D1090FB6F894DEBF0FBEB6
:10454000CDBF8C010FB607FE05C0A8950E94E21AE8
:104550000E94181A0FB607FE0AC00E94370F811179
:104560000E94FF140E94310F81110E94611980E6A0
:104570000E941C0F81119DC080910A078260809368
:104580000A076AE080E00E94CD4980917E03909105
:104590007F03029709F08DC0C80105962AE0C22E5C
:1045A000D12CB6010E948A56CB0161E02AE0AC0111
:1045B000249FC001259F900D11240E94D9050E94BF
:1045C0008D1C109338060093370681E080934706D0
:1045D0000091A7061091A806B090B306A090B4066B
:1045E0000E943821882309F464C043E456E060E067
:1045F00077277E0181E4E80EF11CC7010E94AC4BD5
:1046000030E020E082E0000F111F221F331F8A9547
:10461000D1F780914706882309F45DC08091370661
:10462000909138060596B6010E948A56F62FD72E2D
:10463000809146064FEFEFEF882359F080913506C1
:104640009091360605966AE070E00E948A56462FE1
:10465000E72F809145066FEF7FEF882349F0809127
:1046600033069091340605966AE070E00E948A56FF
:104670001F921F923F932F931F930F93AF92BF925E
:10468000DF92FF93EF934F937F936F93FF92EF929D
:104690008E010F5F1F4F1F930F930E940F58B80199
:1046A00086E190E00E94130B0FB6F894DEBF0FBEB8
:1046B000CDBFC059DF4F0FB6F894DEBF0FBECDBFE0
:1046C000DF91CF911F910F91FF90EF90DF90CF90EE
:1046D000BF90AF900895FFEFDD24DA94A9CF5F92E9
:1046E0006F927F928F929F92AF92BF92CF92DF9202
:1046F000EF92FF920F931F93CF93DF93D82FC92F81
:10470000A8950E943A0F8823C9F084E5ED2FFC2F6D
:10471000ACE3B7E001900D928A95E1F7DF91CF917C
:104720001F910F91FF90EF90DF90CF90BF90AF90CF
:104730009F908F907F906F905F9008950E94340FAC
:104740008111E3CF0E94351E582E0E944D1E8823F2
:1047500019F080E00E946C0B84E5E0E9F7E0ACE33F
:10476000B7E001900D928A95E1F70D2F1C2F8CE395
:10477000C82E87E0D82E90E9E92E97E0F92E612C1B
:104780005801D0E0C0E0F50171905F01872D072C42
:10479000000C990B887F9927883F910509F04AC042
:1047A000F72DF7707F2E0E943A0F8823A1F1460162
:1047B000F401EC0FFD1F872D886F782E70822196F3
:1047C000C431D10501F7B801862D0E9441396394A7
:1047D0000B5E1F4FE5E1CE0ED11CF5E1EF0EF11C93
:1047E00084E06812CDCF0E944D1E882309F496CF35
:1047F00081E08525DF91CF911F910F91FF90EF9080
:10480000DF90CF90BF90AF909F908F907F906F90F0
:104810005F900C946C0B0E94340F8111C8CF47013C
:10482000662D8C2F0E94FB38672D83E297E00E9453
:10483000F208BECF0E943A0F882329F04601F40106
:10484000EC0FFD1FBBCF0E94340F8111F7CF470142
:10485000662D8C2F0E94FB38672D83E297E00E9423
:10486000F208EDCF0FB607FE05C0A8950E94E21A28
:104870000E94181A0FB607FE0AC00E94370F811156
:104880000E94FF140E94310F81110E9461198CE374
:104890000C941C0F0FB607FE05C0A8950E94E21AE3
:1048A0000E94181A0FB607FE0AC00E94370F811126
:1048B0000E94FF140E94310F81110E9461198BE345
:1048C0000C941C0F0FB607FE05C0A8950E94E21AB3
:1048D0000E94181A0FB607FE0AC00E94370F8111F6
:1048E0000E94FF140E94310F81110E9461198AE316
:1048F0000C941C0FCF93C82F0E943224811126C123
:104900000E946224811166C00E94273E80910A079E
:104910008B7F80930A0780910A07886080930A073B
:1049200080910A078F7E80930A0780910A078F7D06
:1049300080930A0780910A078F7B80930A078FEF85
:104940009FEFDC018093320390933303A0933403F1
:10495000B093350381E090E0A0E0B0E080932E03B7
:1049600090932F03A0933003B093310380E190E044
:10497000A0E0B0E080932A0390932B03A0932C0334
:10498000B0932D030E94190D8091060784608093D7
:1049900006070E94CC108091FF068D7F8093FF0652
:1049A0001092190310921803E0911803F091190363
:1049B000E830F10508F0CAC08827EE51FB4D8F4F53
:1049C0000C94A6574B25752583257C258A25912592
:1049D00098259F258091180390911903CC2379F194
:1049E000009751F101972091ED063091EE062330AA
:1049F000310541F49C01225031092230310510F477
:104A000081E090E02091ED063091EE06232B39F005
:104A10002091ED063091EE062130310541F49C01E4
:104A2000265031092230310510F485E090E0909352
:104A3000190380931803B8CF87E090E0D4CF873074
:104A4000910531F101962091ED063091EE0623306B
:104A5000310541F49C01225031092230310510F416
:104A600084E090E02091ED063091EE06232B39F0A2
:104A70002091ED063091EE0621303105C1F69C0102
:104A8000265031092230310590F690E080E0CFCFFA
:104A900090E080E0D8CF0E94CC100E94FE39809137
:104AA000ED069091EE06892B29F482E090E0CF91FB
:104AB0000C94B5108091ED069091EE06019729F4C3
:104AC00082E090E0CF910C9499108091ED06909146
:104AD000EE06039729F482E090E0CF910C947C10CD
:104AE00082E090E0CF910C9460100E94CC1082E0A4
:104AF00090E0CF910C94FC0F0E94CC1082E090E0EB
:104B0000CF910C94E10F0E94CC1082E090E0CF9105
:104B10000C94C50F0E94CC1082E090E0CF910C94D1
:104B2000A90F0E94CC1082E090E0CF910C94920FDC
:104B30000E94CC1082E090E0CF910C94760F0E94FE
:104B4000CC1082E090E0CF910C94590FCF91089552
:104B5000CF93C82F0E9432248111EBC10E942B1EDB
:104B60008111E7C10E946224811104C081E0CF91CC
:104B70000C947A24E0911803F0911903CC2309F4E2
:104B8000B9C0E830F105D0F48827E653FA4D8F4FCD
:104B90000C94A657D225FE251B26F4252526622631
:104BA0003D2655266091ED067091EE0685ED95E067
:104BB0000E9491499093EE068093ED06E0911803D0
:104BC000F0911903E830F10508F0B3C18827E451EA
:104BD000FA4D8F4F0C94A657EC266E277E27782728
:104BE00084278B27922734276091F20670E080ECAF
:104BF00095E00E94B0498093F206E0CF8091ED06E7
:104C00009091EE06039751F46091EF0670E08DE904
:104C100095E00E94B0498093EF06D0CF6091F006F6
:104C20007091F1068EEC95E00E94B0499093F106E8
:104C30008093F006C3CF6091F30670E087EC95E0B7
:104C40000E94B0498093F306B9CF8091F406909109
:104C5000F5066AE070E00E948A5689EB95E00E94B2
:104C6000B0492AE0AC01249FC001259F900D11247A
:104C70009093F5068093F406A1CF8091F806909169
:104C8000F9066AE070E00E948A568BEA95E00E947D
:104C9000B0492AE0AC01249FC001259F900D11244A
:104CA0009093F9068093F80689CF6091FA06709187
:104CB000FB0684EA95E00E94B0499093FB0680933E
:104CC000FA067CCF8091F6069091F7066AE070E0D4
:104CD0000E948A5682EB95E00E94B0492AE0AC011E
:104CE000249FC001259F900D11249093F706809377
:104CF000F60664CFE830F10508F060CF8827EC575E
:104D0000F94D8F4F0C94A6578C269D26B4269526D8
:104D1000BC26DF26C926D6266091ED067091EE06E8
:104D200085ED95E00E94B04945CF6091F20670E0B4
:104D300080EC95E00E9491495ECF8091ED069091C4
:104D4000EE06039741F46091EF0670E08DE995E07F
:104D50000E94914960CF6091F0067091F1068EEC4F
:104D600095E00E94914962CF6091F30670E087EC74
:104D700095E00E94914966CF8091F4069091F506E6
:104D80006AE070E00E948A5689EB95E00E949149A2
:104D900068CF8091F8069091F9066AE070E00E9471
:104DA0008A568BEA95E00E94914973CF6091FA068A
:104DB0007091FB0684EA95E00E9491497ECF809134
:104DC000F6069091F7066AE070E00E948A5682EB40
:104DD00095E00E94914982CF0E94FE398091ED06B4
:104DE0009091EE060E9469098091ED069091EE0681
:104DF000892B09F040C082E090E00E94B5108091BC
:104E0000E6069091E7069093F9068093F806809164
:104E1000E8069091E9069093FB068093FA0660916C
:104E2000EF068091F0069091F10670E00E948A06EC
:104E30008091F20690E00E9474068091F30690E063
:104E40000E945E068091F4069091F5060E944B0642
:104E50008091F6069091F7060E9438068091F80638
:104E60009091F9060E9413068091FA069091FB0634
:104E7000CF910C94E8058091ED069091EE06019794
:104E8000A9F48091E6069091E7069093F906809345
:104E9000F8068091E8069091E9069093FB068093CE
:104EA000FA0682E090E00E949910B9CF8091ED0659
:104EB0009091EE06039769F482E090E00E947C10E6
:104EC0008091E0068093F2068091E1068093F306DC
:104ED000A6CF82E090E00E946010A1CF6091EF0623
:104EE0008091F0069091F10670E0CF910C948A06C3
:104EF0008091F20690E0CF910C9474068091F306B5
:104F000090E0CF910C945E068091F4069091F506A6
:104F1000CF910C944B068091F6069091F706CF91B5
:104F20000C9438068091F8069091F906CF910C9474
:104F30001306CF9108950FB607FE05C0A8950E94ED
:104F4000E21A0E94181A0FB607FE0AC00E94370F15
:104F500081110E94FF140E94310F81110E9461197A
:104F600089E30C941C0FCF93C82F0E949B278111BB
:104F7000C0E00FB607FE05C0A8950E94E21A0E9485
:104F8000181A0FB607FE0AC00E94370F81110E943F
:104F9000FF140E94310F81110E94611988E30E9461
:104FA0001C0FC817E1F0CC2371F0811118C080915B
:104FB00006078160809306076091030270E08EE22D
:104FC000CF910C94F93C882351F0809106078E7F95
:104FD0008093060760E08EE2CF910C94FD3BCF9169
:104FE00008950FB607FE05C0A8950E94E21A0E9418
:104FF000181A0FB607FE0AC00E94370F81110E94CF
:10500000FF140E94310F81110E94611987E30C94F3
:105010001C0F0FB607FE05C0A8950E94E21A0E9459
:10502000181A0FB607FE0AC00E94370F81110E949E
:10503000FF140E94310F81110E94611986E30C94C4
:105040001C0F0FB607FE05C0A8950E94E21A0E9429
:10505000181A0FB607FE0AC00E94370F81110E946E
:10506000FF140E94310F81110E94611985E30C9495
:105070001C0F0FB607FE05C0A8950E94E21A0E94F9
:10508000181A0FB607FE0AC00E94370F81110E943E
:10509000FF140E94310F81110E94611984E30C9466
:1050A0001C0F0FB607FE05C0A8950E94E21A0E94C9
:1050B000181A0FB607FE0AC00E94370F81110E940E
:1050C000FF140E94310F81110E94611983E30C9437
:1050D0001C0FCF92DF92EF92FF920F931F93CF930B
:1050E000DF930E94B31D8111ECC0809121038F5F7B
:1050F000823059F080932103DF91CF911F910F915E
:10510000FF90EF90DF90CF900895109221030E94BE
:10511000E31D811157C08091220390912303A09138
:105120002403B0912503892B8A2B8B2B09F44AC0C9
:10513000809103028F3F09F445C00E94273E0091F1
:1051400022031091230320912403309125036B0146
:105150007C01C01AD10AE20AF30A970186010133E1
:1051600015472105310570F16093220370932303E5
:10517000809324039093250360910302C62FD0E00F
:10518000CC59DF4FCF3FD10519F010F0CFEFD0E071
:10519000C09303028091E407811104C082E794E088
:1051A0000E948D388091E40781110CC0BE0190E00F
:1051B00080E04AE00E94473A6EEA72E083E094E0C1
:1051C0000E940E3A809167068032C8F5809167068A
:1051D0002FE130E0281B3109809168069091690623
:1051E000A0916A06B0916B0604C0B695A7959795F5
:1051F00087952A95D2F7C82FC170809167068F5F77
:105200008093670680916706803619F480E2809368
:1052100067060E9451288823A1F10E940D0E882361
:1052200081F181E091E089278C23DF91CF911F915B
:105230000F91FF90EF90DF90CF900C94B327809167
:105240006706803478F4809167062FE330E0281BEE
:10525000310980916C0690916D06A0916E06B09117
:105260006F06C2CF809167062FE530E0281B310919
:105270008091700690917106A0917206B0917306AC
:10528000B3CF0E943928882321F00E94350E811166
:10529000C8CF0E942128882321F00E94E30D8111AC
:1052A000C0CF0E940928882321F00E94B90D8111E6
:1052B000B8CF0E94F127882309F4B4CF0E948F0D44
:1052C000B1CF80E0B2CF0FB607FE05C0A8950E940F
:1052D000E21A0E94181A0FB607FE0AC00E94370F82
:1052E00081110E94FF140E94310F81110E946119E7
:1052F0008AE20C941C0F0FB607FE05C0A8950E9409
:10530000E21A0E94181A0FB607FE0AC00E94370F51
:1053100081110E94FF140E94310F81110E946119B6
:1053200082E20C941C0FCF92DF92EF92FF92C0901A
:105330008003D0908103E0908203F09083038091FA
:1053400078068370823009F087C142E050E0C701DF
:10535000B6010E9403098091780690E095958795A3
:10536000959587958370823009F083C143E050E0C2
:10537000C701B6010E9403098091780690E0E4E03D
:1053800095958795EA95E1F78370823009F083C19E
:1053900044E050E0C701B6010E94030980917806FD
:1053A00090E066E0959587956A95E1F7029709F098
:1053B00085C145E050E0C701B6010E940309809114
:1053C00077068370823009F08BC146E050E0C70158
:1053D000B6010E9403098091770690E09595879524
:1053E000959587958370823009F087C147E050E03A
:1053F000C701B6010E9403098091770690E024E07E
:10540000959587952A95E1F78370823009F087C1D9
:1054100049E050E0C701B6010E9403098091770678
:1054200090E0A6E095958795AA95E1F7029709F097
:1054300089C148E050E0C701B6010E94030980918C
:105440003B03882381F0C0923C03D0923D03E0925D
:105450003E03F0923F038091070291E089278093F9
:10546000070210923B0380913603882381F0C0929B
:105470003703D0923803E0923903F0923A038091D7
:10548000060291E0892780930602109236030E945B
:105490007B29811104C080912E0681111EC280914A
:1054A0007406811109C080917506811105C0809133
:1054B0007606882309F411C2C0908003D09081033E
:1054C000E0908203F09083038091750683708130B1
:1054D00009F44FC108F448C1823009F451C18091E8
:1054E000750690E0959587959595879583708130A1
:1054F00009F452C108F44BC1823009F454C18091BF
:10550000750690E074E0959587957A95E1F783703C
:10551000813009F454C108F44DC1823009F456C1F8
:105520008091750690E066E0959587956A95E1F71C
:105530008130910509F451C18230910509F454C1BB
:10554000892B21F484E090E00E94991B80917606DB
:105550008370813009F454C108F44DC1823009F4DC
:1055600056C18091760690E095958795959587959B
:105570008370813009F457C108F450C1823009F4B6
:1055800059C18091760690E044E0959587954A95BB
:10559000E1F78370813009F459C108F452C18230B7
:1055A00009F45BC1809174068370813009F461C194
:1055B00008F45AC1823009F463C18091740690E006
:1055C00095958795959587958370813009F464C189
:1055D00008F45DC1823009F466C18091740690E0E0
:1055E00024E0959587952A95E1F78370813009F439
:1055F00066C108F45FC1823009F468C18091570325
:10560000882381F0C0925803D0925903E0925A0344
:10561000F0925B038091080291E089278093080251
:105620001092570380915C03882381F0C0925D0340
:10563000D0925E03E0925F03F092600380910902D2
:1056400091E089278093090210925C03FF90EF900C
:10565000DF90CF900C948D1C809178068370813000
:1056600009F079CE42E050E0C701B6010E942B0953
:1056700072CE8091780690E095958795959587955F
:105680008370813009F078CE43E050E0C701B60165
:105690000E942B0971CE8091780690E074E0959578
:1056A00087957A95E1F78370813009F077CE44E0F1
:1056B00050E0C701B6010E942B0970CE8091780698
:1056C00090E056E0959587955A95E1F7019709F096
:1056D00076CE45E050E0C701B6010E942B096FCE9F
:1056E000809177068370813009F075CE46E050E0F6
:1056F000C701B6010E942B096ECE8091770690E01B
:1057000095958795959587958370813009F074CE2E
:1057100047E050E0C701B6010E942B096DCE809191
:10572000770690E0B4E095958795BA95E1F7837098
:10573000813009F073CE49E050E0C701B6010E9404
:105740002B096CCE8091770690E0F6E095958795D1
:10575000FA95E1F7019709F072CE48E050E0C701F1
:10576000B6010E942B096BCE81E090E00E94991B4C
:10577000B6CE41E050E0C701B6010E943F1CAFCE5B
:1057800041E050E0C701B6010E94681CA8CE83E04A
:1057900090E00E94991BB3CE43E050E0C701B601F0
:1057A0000E943F1CACCE43E050E0C701B6010E940E
:1057B000681CA5CE82E090E00E94991BB1CE42E029
:1057C00050E0C701B6010E943F1CAACE42E050E063
:1057D000C701B6010E94681CA3CE44E050E0C70197
:1057E000B6010E943F1CB2CE44E050E0C701B601B2
:1057F0000E94681CABCE85E090E00E94991BB1CE60
:1058000045E050E0C701B6010E943F1CAACE45E02A
:1058100050E0C701B6010E94681CA3CE86E090E06C
:105820000E94991BAECE46E050E0C701B6010E942F
:105830003F1CA7CE46E050E0C701B6010E94681C9D
:10584000A0CE87E090E00E94991BACCE47E050E0EC
:10585000C701B6010E943F1CA5CE47E050E0C7013A
:10586000B6010E94681C9ECE88E090E00E94991BC1
:10587000A4CE48E050E0C701B6010E943F1C9DCE77
:1058800048E050E0C701B6010E94681C96CE89E04E
:1058900090E00E94991BA1CE49E050E0C701B601FB
:1058A0000E943F1C9ACE49E050E0C701B6010E9419
:1058B000681C93CE8AE090E00E94991B9FCE4AE03C
:1058C00050E0C701B6010E943F1C98CE4AE050E06C
:1058D000C701B6010E94681C91CEFF90EF90DF9047
:1058E000CF9008950FB607FE05C0A8950E94E21A52
:1058F0000E94181A0FB607FE0AC00E94370F8111C6
:105900000E94FF140E94310F81110E9461198DE1E4
:105910000C941C0F0FB607FE05C0A8950E94E21A52
:105920000E94181A0FB607FE0AC00E94370F811195
:105930000E94FF140E94310F81110E9461198CE1B5
:105940000C941C0F0FB607FE05C0A8950E94E21A22
:105950000E94181A0FB607FE0AC00E94370F811165
:105960000E94FF140E94310F81110E94611980E191
:105970000C941C0F0FB607FE05C0A8950E94E21AF2
:105980000E94181A0FB607FE0AC00E94370F811135
:105990000E94FF140E94310F81110E9461198DE055
:1059A0000C941C0F0FB607FE05C0A8950E94E21AC2
:1059B0000E94181A0FB607FE0AC00E94370F811105
:1059C0000E94FF140E94310F81110E94611989E029
:1059D0000C941C0F4F925F926F927F928F929F92C6
:1059E000AF92BF92CF92DF92EF92FF920F931F93ED
:1059F000CF93DF931F921F92CDB7DEB70E94BA2CD0
:105A00008823B1F00FEF1FEFC8010F900F90DF91C7
:105A1000CF911F910F91FF90EF90DF90CF90BF90AB
:105A2000AF909F908F907F906F905F904F90089570
:105A300061E180E00E94CD490E94273E4B015C015C
:105A4000C0901B03D0901C03E0901D03F0901E0338
:105A50000E94BA2C8111D6CF240135014C185D0863
:105A60006E087F0816B190E080E00E94190820912E
:105A700065063091660614FD1EC0216030936606EF
:105A800020936506811112C080921B0390921C0323
:105A9000A0921D03B0921E03DD24D39401E210E016
:105AA00088EC481651046104710490F4DD24D39409
:105AB0000FEF1FEF0DC02E7F309366062093650613
:105AC000D12C0FEF1FEFA1E2EA2EF12C811103C0C0
:105AD000EE24EA94FE2CC090090182E090E00E943E
