:100000000C94CF580D9400180D94D5170D94AA1781
:100010000D947F170D9454170D9429170D94FE1607
:100020000D94D3160D9457180D9457180D94571816
:100030000C9400590C9400590C9400590C940059DC
:100040000C9400590C9400590C9400590C940059CC
:100050000C9400590C9400590C9400590D94891675
:100060000C9400590D9467140D943D140C94005990
:100070000C9400590C9400590C9400590C9400599C
:100080000C9400590C9400590C9400590D942B18A1
:100090000C9400590C9400590C9400590D94491A71
:1000A0000C9400590C9400590C9400590C9400596C
:1000B0000C9400590D9458190C9400590C94005943
:1000C0000C9400590C9400590C9400590C9400594C
:1000D0000C9400590C9400590C9400590C9400593C
:1000E0000C9400590D94E3360D94973C0C9455D321
:1000F0000C947E920C9451AB0C9422810D94F70FCA
:100100000D9469100C945BAB0C94C8920D949D3CBB
:100110000D94943C0C9472FC0D94482C0C9472CA6F
:100120000D94B32A0C948FD30D94F8150D94001CE4
:100130000D94972A0D9454280C94F0D10D947A299B
:100140000D94D40F0D94DF150D948A020D94AA2AF4
:100150000D943F2C0C94C1C70C945DCD0D9453109D
:100160000D94C70F0C94B7FB0C94F8FB0D943D3D18
:100170000D94DE0F0D94A20F0D9481020C94BDC658
:100180000C948AC60D94873C0D94D5100D947E0E68
:100190000D949D150D946F0E0D94DF0F0C9421C8D6
:1001A0000C94CB920C94A9DC0C94D6FB0C948EC6C8
:1001B0000C94DEFB0D947E020D94A53A0C9493FCF6
:1001C0000C94B5DC0D94283D0C94B3FA0C94DDC668
:1001D0000C94BBDC0D94392C0C94A6920D94B9159B
:1001E0000D94A72A0D94CF0F0C9483590D94BD0F35
:1001F0000C947EFC0D945B2C0D94E13C0D948702D5
:100200000C94EBFB0D94C10F0D94EE110D948E1513
:100210000C94B5C60C94CDDC0D94A42A0C9401D496
:100220000C9413D40D94AD2A0D94B1100C946DC799
:100230000C9447FB0D942B3D0D94B83A0D94253D3D
:100240000D94353D0C943DFB0C9489D30C9422CA3B
:100250000D9456180C949ACA0D94813C0D945A1121
:100260000D94DC100C94B2D00D9400290D94A715B8
:100270000C94C4DC0C94F0DD0D94913C0C9429C8D2
:100280000C94C2CA0C9416FB0D942E3D0C94C1FA2A
:100290000D94CB150D94940F0C9447AB0C9460AB5C
:1002A0000D9459110C949B920D94920E0D9420165E
:1002B0000D94A60F0C94BAFA0C94B0C90C948DC787
:1002C0000C944CAB0C94FBD30C94B9C60C941ACB85
:1002D0000C94ADC70D944E2C0C9432810D94A90F43
:1002E0000C94BFFB0D9438110D94D50F0C946BFA40
:1002F0000C9485FC0D9484020D94AF0F0C94E1C70F
:100300000C9489C80D94D5150D94B02A0C9401C88D
:100310000C9407D40C9429D00C9475D10D94E43C22
:100320000D949E0F0C9468FC0C94F4FA0D94A12A81
:100330000C94EADD0D9409110C9465AB0D949315A2
:100340000D94B62A0C945FFB0C94A5FA0C9404BB94
:100350000C942DD30D94B2100C9478C60C9477FBAA
:100360000D94DE3C0D94DD0F0D94362C0D948D0212
:100370000C942A810D94283C0C94A3DC0D94432CFE
:100380000D940C160C94D1920C9498920D94B42761
:100390000D94A00E0C940EFC0C9497FA0C944ACA7F
:1003A0000C9419D40D94B92A0C94ACFA0C9420FB3B
:1003B0000C9427590D94BF4C0C9478FC0D94C129D2
:1003C0000C9425C80D94383D0C9401FC0D94CB0F72
:1003D0000D943C2C0D944C110D94313D0C94AEFBBE
:1003E0000C948CFC0C9456AB0C94C0CF0C946AAB60
:1003F0000D9402160D94833C0C941DC90D94161691
:100400000C9485DE0C949EFA0C94AB810C9499DCD0
:100410000D94E73C0D94D80E0C949E920D94821E80
:100420000D94250F0D94DB3C0C944DC70D94420E9A
:100430000D94AD3A0C949EDC0D94EE150C94AFDC4B
:100440000D94C2100D94B3100C94C8CA0D94CF1122
:100450000C9441AB0D949A3C0C94A3920C9445815E
:100460000C940DD40D94B90F0D94D90F0D948615DD
:100470000D9462020C94CE920D94B1150D94B30FAD
:100480000C9469C80D944B2C0D94C1150C9449C85B
:100490000C9484FB0D949A0F4E6F7420506F7373FD
:1004A00069626C65004D61696E74656E616E63654D
:1004B0002042726561746873005265736574202808
:1004C000594553206F72204E4F29203F000049723A
:1004D0007265636F76657261626C65004552524F5A
:1004E000520025646674206F722025646D00436F8E
:1004F00072726563742028594553206F72204E4FE5
:10050000293F0000004C6F636174696F6E202620E4
:10051000416C746974756465002E2E202564202E4C
:100520002E005265747279202859455329203F00C6
:10053000506F7274616C2054696D656F7574004CF6
:100540006F636174696F6E20496E666F0046616902
:100550006C656420746F20656E74657200436F6E05
:1005600074696E7565202859455329203F00004C59
:100570006F636174696F6E20496E666F726D61742E
:10058000696F6E00456E746572204D616E646174B2
:100590006F727900257379722025736B672025733C
:1005A000636D0025732025730050617469656E7456
:1005B0003A2046656D616C6500436F7272656374C5
:1005C0002028594553206F72204E4F293F000000CC
:1005D00050617469656E743A204D616C65002E2E11
:1005E000202564202E2E00526574727920285945EA
:1005F00053206F72204E4F29203F00506F7274615C
:100600006C2054696D656F75740050617469656E16
:100610007420496E666F004661696C656420746F72
:1006200020656E7465720028594553206F72204E04
:100630004F29203F000050617469656E7420496E37
:10064000666F726D6174696F6E00456E74657220BD
:100650006E6577007C5F5F5F5F5F5F5F5F5F5F5FBF
:100660005F5F5F5F5F5F5F7C007C20202020205405
:10067000656B4D6564696B61202020207C007C20C7
:10068000202020494E53504952452D3130302020F2
:10069000207C00205F5F5F5F5F5F5F5F5F5F5F5F2A
:1006A0005F5F5F5F5F5F200000506F7765722D4F67
:1006B0006E003C3C20524553544152542052454117
:1006C000534F4E203E3E0000004D616E75616C2020
:1006D0005245534554003C3C2052455354415254DA
:1006E00020524541534F4E203E3E0000436F6E74F2
:1006F000696E7565202859455329203F0052657061
:100700006F7274207468652070726F626C656D0022
:100710005761746368646F67205245534554003CC9
:100720003C205245535441525420524541534F4E60
:10073000203E3E00526561647920285945532920A6
:100740003F00466F6C6C6F7720496E7374727563EF
:1007500074696F6E730000494E53504952452D31F4
:1007600030300056657273696F6E2025642E2564E3
:100770002E25640028594553206F72204E4F2920A2
:100780003F000044617368626F6172642076696142
:100790002057692D466900456E61626C652052657F
:1007A0006D6F7465205745420043616C6C20536542
:1007B000727669636520546563680000004C6F774A
:1007C00020426F61726420566F6C7461676500250A
:1007D000752E2530337520566F6C747300000053EE
:1007E0007570706C7920566F6C7461676500436832
:1007F00065636B696E6720426F61726420004D69AA
:100800006E2025752E2530337520566F6C7473005D
:10081000004641494C4544005A45524F2043616CC3
:100820006962726174696F6E00507265737375727C
:10083000652053656E736F720000005A45524F2059
:1008400043616C6962726174696F6E0050726573A6
:10085000737572652053656E736F720043686563CC
:100860006B20232564000049324320616464726573
:1008700073732030783237004C4344206E6F7420FD
:10088000666F756E64206174000000537563636564
:10089000737366756C6C790053656C662054657370
:1008A000742052756E00004E6F746564202859459F
:1008B0005329203F005573696E6720746F64617916
:1008C00027732064617465007768656E2042564D19
:1008D00020696E7374616C6C65640043616E27748B
:1008E0002066696E64206461746500256C75204320
:1008F00079636C6573004E6F7465642028594553A5
:1009000029203F00000042564D20496E7374616CEF
:100910006C2044617465004E6F74656420285945ED
:100920005329203F000053797374656D206861730B
:1009300020636F6D706C65746564005379737465C2
:100940006D204379636C6520436F756E7400256C70
:1009500075204379636C65730028594553206F7285
:10096000204E4F29203F0000496E7374616C6C6506
:1009700064203F005761732061206E6577204256E6
:100980004D2042616700446F6E6520285945532908
:10099000203F00446973636F6E6E6563742050611D
:1009A0007469656E7400616674657220506F776556
:1009B000722D6F6E005374617274696E6720536597
:1009C0006C662D5465737400436F6E74696E756543
:1009D000202859455329203F00737465702D627992
:1009E0002D737465700053797374656D2077696C2D
:1009F0006C206775696465003C3C2046495253543D
:100A000020504F5745522D5550203E3E00526574A0
:100A100072792028594553206F72204E4F29203F6C
:100A20000000434845434B204641494C45440000A3
:100A300028594553206F72204E4F29203F00436FA5
:100A40006E74696E75652052656D61696E696E6759
:100A50003F00434845434B204641494C4544000034
:100A6000524553455420616E6420506F7765722D56
:100A7000446F776E000043616C6C20536572766939
:100A800063652054656368004641494C45442050E5
:100A90006F776572557020546573747300436F6E81
:100AA00074696E7565202859455329203F00005010
:100AB000415353454420506F7765725570205465FB
:100AC00073747300535543434553532100446F6E71
:100AD00065202859455329203F00746F20427265D4
:100AE000617468696E672043697263756974004355
:100AF0006F6E6E6563742050617469656E74004337
:100B00006865636B73205375636365737366756C97
:100B1000005B25642C25642C25642C25645D005B1A
:100B200025642C25645D002E2E202564202E2E00A9
:100B300000496E666F726D6174696F6E004E6F6E04
:100B40002D766F6C6174696C6500436C65617269C8
:100B50006E670052455345542028594553206F7203
:100B6000204E4F29203F00004379636C6573207449
:100B70006F205A45524F203F005265736574204DD7
:100B8000616368696E650052455345542028594594
:100B900053206F72204E4F29203F00004379636C31
:100BA000657320746F205A45524F203F0052657381
:100BB00065742042564D005265737461727420282A
:100BC000594553206F72204E4F293F000052455324
:100BD000544F52454400466163746F7279205365E7
:100BE0007474696E677300494E56414C4944000065
:100BF00000000000000000000000000000000041B4
:100C00006C61726D20436F6465000000000000009D
:100C1000000000000000004578636565646564209D
:100C20004D4158494D554D0000000000000000495D
:100C30006E737069726174696F6E20507265737340
:100C4000757265000000004C65616B616765206925
:100C50006E000000000000000000000000000042E4
:100C60007265617468696E6720436972637569743F
:100C700000000000000000446973636F6E6E6563DE
:100C800074696F6E20696E00000000000000004271
:100C90007265617468696E6720436972637569740F
:100CA00000000000000000507265737375726520CB
:100CB00053656E736F722873290000000000006E88
:100CC0006F7420776F726B696E6700000000000020
:100CD000000000000000004D6561737572656420BE
:100CE0005045455020646F65730000000000006EA1
:100CF0006F74206D61746368207365742076616C15
:100D00007565000000000050726573737572652090
:100D10007369676E616C00000000000000000064F1
:100D2000657465637465642061732061626E6F72BF
:100D30006D616C00000000504152414D45544552D8
:100D400020436F6E666C6963740000000000005001
:100D500053206C657373207468616E205045455054
:100D600000000000000000504152414D45544552E2
:100D700020436F6E666C69637400000000000050D1
:100D80004D4158206C657373207468616E20504526
:100D900045500000000000504152414D455445521D
:100DA00020436F6E666C69637400000000000050A1
:100DB0004D4158206C657373207468616E205053E8
:100DC00000000000000000504152414D4554455282
:100DD00020436F6E666C696374000000000000546D
:100DE0005053206D6F7265207468616E20285252D6
:100DF0002F322900000000556E61626C6520746F0F
:100E000020616368696576652050530000000069C1
:100E10006E207265717569726564205450530000CC
:100E20000000000000000045787472656D65205672
:100E3000430000000000000000000000000000531C
:100E4000657474696E6773000000000000000000A4
:100E50000000000000000045787472656D65205048
:100E600053000000000000000000000000000053DC
:100E7000657474696E677300000000000000000074
:100E80000000000000000050532042726561746849
:100E9000204661696C757265000000000000005416
:100EA0006F6F206D616E7920537465707300000060
:100EB00000000000000000436F6E73697374656E7C
:100EC0006379204572726F720000000000000043D9
:100ED000616C6C2053657276696365205465636844
:100EE000000000000000004D6F746F72206E6F7480
:100EF000206174000000000000000000000000738A
:100F000074617274696E6720706F736974696F6E53
:100F1000000000000000004465736972656420569B
:100F2000542C52522C452F49000000000000004371
:100F30006F6D626F20756E61636869657661626C62
:100F400065000000000000507265737375726520C3
:100F500053656E736F7200000000000000000043D4
:100F6000616C6962726174696F6E204572726F7232
:100F70000000000000000053656C66746573742007
:100F80004661696C656400000000000000000043D9
:100F9000616C6C2053657276696365205465636883
:100FA0000000000000000050726555736520436822
:100FB00065636B73204661696C65640000000043E3
:100FC000616C6C2053657276696365205465636853
:100FD00000000000000000506C6174657320746FA5
:100FE0002042564D20476170000000000000005272
:100FF000455345542D43616C6C20537570706F726E
:10100000740000000000004D6F746F72204661751F
:101010006C7400000000000000000000000000549C
:101020007279696E67205265636F76657279202EDA
:101030002E2E000000000053797374656D204F76EA
:10104000657268656174696E670000000000005297
:101050006573746172742053797374656D00000058
:101060000000000000000053797374656D20746FF8
:101070006F20436F6C64000000000000000000520D
:101080006573746172742053797374656D00000028
:1010900000000000000000506C6174657320486F10
:1010A0006D696E67204661696C65640000000043ED
:1010B0006865636B20507265737375726520747513
:1010C00062657300000000506C6174657320486FA6
:1010D0006D696E67204661696C6564000000004DB3
:1010E00061736B204E4F54204F50454E000000005E
:1010F00000000000000000504152414D455445524F
:1011000020436F6D626F0000000000000000006966
:101110006E76616C69640000000000000000000051
:10112000000000000000004D6F746F72204D616C74
:1011300066756E6374696F6E0000000000000052F7
:10114000455345542053797374656D0000000000C9
:1011500000000000000000556E61626C6520746F35
:101160002064656C69766572000000000000007301
:10117000657420546964616C20566F6C756D6500F0
:10118000000000000000005265706C616365204241
:10119000564D20426167000000000000000000453D
:1011A0007863656564656420616C6C6F7765642045
:1011B00075736500000000556E61626C6520746F88
:1011C000206C6F6720696E00000000000000007452
:1011D0006F207468652057494649206E6574776FA3
:1011E000726B000000000057692D466920506F7235
:1011F00074616C000000000000000000000000743A
:10120000696D6564206F75740000000000000000C7
:1012100000000000000000505356204D696E7574A8
:101220006520566F6C756D6500000000000000625F
:10123000656C6F7720285252207820565429000080
:10124000000000000000004661696C656420746F56
:101250002053796E6300000000000000000000527F
:10126000582F54582062756666657273000000003E
:101270000000000000000046694F3220536574747E
:10128000696E6700000000000000000000000052CE
:10129000656A65637465640000000000000000007A
:1012A0000000000000000054656D70657261747587
:1012B00072652053656E736F720000000000004E6F
:1012C0006F7420466F756E6400000000000000001F
:1012D0000000000000000045787472656D652050C4
:1012E0004D415800000000000000000000000053C5
:1012F000657474696E6773000000000000000000F0
:101300000000000000000045787472656D65205093
:1013100045455000000000000000000000000053A0
:10132000657474696E6773000000000000000000BF
:10133000000000000000005045455020746F6F20F1
:101340006C6F7700000000000000000000000053F8
:10135000657474696E67730000000000000000008F
:101360000000000000000041697277617920426C42
:101370006F636B6564000000000000000000004324
:101380006865636B2050617469656E7400000000CD
:1013900000000000000000556E657870656374659C
:1013A0006420506C61746573000000000000005000
:1013B0006F736974696F6E00000000000000000028
:1013C0000000000000000042564D2053697A65007D
:1013D00000000000000000000000000000000055B8
:1013E0006E61636365707461626C6500000000008B
:1013F0000000000000000042564D204465666F72F8
:101400006D65640000000000000000000000005056
:101410006C6561736520436865636B0000000000C4
:1014200000000000000000505320427265617468A3
:101430000000000000000000000000000000004666
:101440006C6F7720746F6F206C6F77000000000066
:101450000000000000000058582D5858582D5858CA
:1014600058582028585858290058583A58583A5827
:1014700058004A616E00466562004D61720041701D
:1014800072004D6179004A756E004A756C004175B5
:101490006700536570004F6374004E6F76004465BB
:1014A00063004D6F6E0054756500576564005468A5
:1014B0007500467269005361740053756E00436F86
:1014C0006E74696E7565202859455329203F004187
:1014D00052524F5773206F72204B4E4F42004E6155
:1014E000766967617465204D454E55207573696E48
:1014F00067005072652D55736520436865636B699D
:101500006E670052657472792028594553206F72B6
:10151000204E4F29203F00004641494C45440000E1
:1015200028594553206F72204E4F29203F004F4BC2
:1015300020746F2045584954004F746865722043E9
:101540006865636B7320536B6970706564004D61EF
:101550006E6461746F727920436865636B73204FAA
:101560004B003C52657475726E696E6720746F2013
:101570004D656E753E00004E6F7420436F6D706C4C
:1015800065746564004D616E6461746F72792043A7
:101590006865636B73004E6F74656420285945530A
:1015A00029203F00000053797374656D205549442C
:1015B00020697300446F6E652028594553206F726F
:1015C000204E4F29203F00666F72205741524E49EE
:1015D0004E4720616C61726D730042757A7A657254
:1015E00020566F6C756D6500557365204B4E4F42EC
:1015F00020746F206368616E676500446F6E6520BC
:1016000028594553206F72204E4F29203F00666FA6
:101610007220494E464F20616C61726D73004275B5
:101620007A7A657220566F6C756D6500557365200A
:101630004B4E4F4220746F206368616E6765002EC9
:101640002E202564202E2E0043616C696272617425
:10165000696F6E204641494C4544004F666673658C
:10166000742025642E256420284D5629004E6F7461
:101670006564202859455329203F00004D55535497
:1016800020626520696E7374616C6C656400412032
:10169000484550412F484D452046696C746572009D
:1016A0004D65617375726564204469613D253364DD
:1016B0006D6D004E6F746564202859455329203F95
:1016C0000049732042564D206465666F726D6564F3
:1016D000203F0000496E636F72726563742042564A
:1016E0004D2053697A65004E6F7465642028594512
:1016F0005329203F00746F205A45524F0042564DE7
:1017000020436F6D7072657373696F6E7300496EFD
:10171000697469616C697A696E67206E756D62655E
:10172000720028594553206F72204E4F29203F00E8
:1017300000496E7374616C6C65643F00576173207F
:1017400061206E65772042564D004E6F74656420AF
:101750002859455329203F00004E6F742050726F66
:101760007065726C7920426C6F636B6564004D61CB
:10177000736B204F70656E696E67004E6F746564A1
:10178000202859455329203F004C65616B616765EE
:10179000206F7220537761707065640050726573BA
:1017A00073757265206C696E657300557073747221
:1017B00065616D202F20446F776E73747265616D63
:1017C0000000005768696C65204F50454E00534C2F
:1017D0004F5720436F6D7072657373696F6E005061
:1017E0006C656173652077616974000066726F6D66
:1017F00020546F75636820506F736974696F6E0051
:10180000436865636B204C6F7720566F6C756D6510
:10181000004D4158205374657073203D20256400AD
:1018200000005768696C65204F50454E0046415393
:101830005420436F6D7072657373696F6E000000A2
:101840005768696C6520424C4F434B4544005045F6
:10185000414B2050726573737572657300000057B9
:1018600068696C6520424C4F434B454400464153E8
:101870005420436F6D7072657373696F6E004641DB
:10188000494C4544004D4F5245204E657874202800
:1018900059455329203F004E6F74656420285945EF
:1018A0005329203F004641494C45442025642028C7
:1018B0006D6D48324F290052656164792028594581
:1018C0005329203F000055736520796F7572207091
:1018D000616C6D206669726D6C7900424C4F434BB0
:1018E000204D61736B204F70656E696E6700446FA9
:1018F0006E65202859455329203F0000746F2063EE
:1019000068616E676520504545502076616C75654D
:1019100000557365204152524F5773206F72204B10
:101920004E4F4200446F6E652028594553206F7218
:10193000204E4F29203F00746F206265206C6F633A
:101940006B6564006E6565647320506F702D4F6623
:10195000662076616C76650050726573737572658A
:10196000203E20343020636D2048324F00446F6E9B
:1019700065202859455329203F0000746F20636873
:10198000616E676520504D41582076616C75650029
:10199000557365204152524F5773206F72204B4E42
:1019A0004F4200004465736972656420504545509C
:1019B00000746F20616368696576650041646A75CB
:1019C000737420504545502076616C7665000000A8
:1019D000746F20646973736970617465005761691D
:1019E0007420666F72205072657373757265004162
:1019F00063636570742025642E256420285945533F
:101A000029203F0043757272656E74205045455021
:101A10003D25642E2564005461726765742050452D
:101A200045503D256420636D48324F002564206396
:101A30006D48324F000000504545502076616C766D
:101A40006520736574206174000025642E25642070
:101A500073656373004E6F7465642028594553297C
:101A6000203F000000496E737069726174696F6E87
:101A700020506175736500446F6E65202859455389
:101A800029203F0000557365204152524F57732063
:101A90006F72204B4E4F420053657420496E737035
:101AA0002E20506175736500416363657074202852
:101AB000594553206F72204E4F29203F000050653A
:101AC0007263656E74207365742061740053494DB0
:101AD000562053796E632057696E646F77002564D2
:101AE0002E2564004E6F74656420285945532920C3
:101AF0003F000054726967676572207365742061E6
:101B0000740053706F6E74616E656F7573204272EE
:101B10006561746800446F6E65202859455329201B
:101B20003F0000557365204152524F5773206F722A
:101B3000204B4E4F42005365742053706F6E742ECD
:101B40002054726967676572004E6F74656420285F
:101B500059455329203F004F322044656372656127
:101B6000736520416C6572747300446F6E65202844
:101B700059455329203F0000557365204152524F6B
:101B80005773206F72204B4E4F42004F3220496EE8
:101B900063726561736520416C65727473004163A3
:101BA000636570742028594553206F72204E4F2969
:101BB000203F0000004F3220416C65727420546851
:101BC000726573686F6C64730044656372656173FA
:101BD00065202564252500496E6372656173652063
:101BE0002564252500446F6E652028594553206FD4
:101BF00072204E4F29203F000055736520415252FC
:101C00004F5773206F72204B4E4F42004F3220418E
:101C10006C65727420496E74657276616C0025641F
:101C2000206D696E730044495341424C4544004560
:101C30004E41424C4544004E6F746564202859451E
:101C40005329203F0000005354414E444259205034
:101C500045455020636865636B0028594553206FE4
:101C600072204E4F29203F0000696E205354414E90
:101C700044425920737461746500456E61626C65FD
:101C8000205045455020636865636B0028594553D3
:101C9000206F72204E4F29203F000061206E657733
:101CA0002042564D20426167203F005265706C61B2
:101CB0006365206F7220496E7374616C6C004E6FA7
:101CC000746564202859455329203F0043616C6C9A
:101CD00020536572766963652054656368006E659C
:101CE000656473207265706C6163696E6700436C34
:101CF0006F636B20426174746572790030313C2DE2
:101D000020202573202825642920202D3E313200F3
:101D1000446F6E65202859455329203F0000004D2F
:101D20004F4E544800313C2D2D202025732825642A
:101D30002920202D2D3E3700446F6E6520285945FF
:101D40005329203F000000444159206F6620574529
:101D5000454B00436F7272656374202859455320C8
:101D60006F72204E4F293F00436F6E74696E756528
:101D7000202859455329203F0000557365204B4EBC
:101D80004F42206F722055502F444F574E005365DD
:101D900074204461746520616E642054696D65002F
:101DA0004163636570742028594553206F72204E3B
:101DB0004F29203F00000053657420446174652062
:101DC000616E642054696D65005B4D6F73742052C1
:101DD0006563656E745D005B4D6F7374205265635F
:101DE000656E74202D2025645D0056696577202876
:101DF000594553206F72204E4F29203F0000436801
:101E000065636B657220526573756C747300555011
:101E10002F444F574E20746F2073656C65637400B8
:101E2000005265636F726473206E6F7420666F7505
:101E30006E64005072657620436865636B6572203E
:101E400072756E0000526573756C747320466F7501
:101E50006E64203D2025640053656C656374202802
:101E6000594553206F72204E4F29203F0000004EED
:101E7000756D626572206F662050726576696F7548
:101E80007300436F6E74696E756520285945532041
:101E90006F72204E4F29203F004E4F202F2043418C
:101EA0004E43454C20746F2065786974004152524E
:101EB0004F572F4B4E4F4220746F207363726F6CDD
:101EC0006C005374617475732073637265656E730F
:101ED00000436865636B65722072756E00446F6EB7
:101EE00065202859455329203F00253032643C2D78
:101EF0002D20202530326420202D2D3E25303264C7
:101F0000002530346400436F6E74696E7565202857
:101F100059455329203F0072656164696E672073DB
:101F2000706565640053656C6563742073756974CE
:101F300061626C650052616E646F6D2054657874E7
:101F400020646973706C61790000436F727265631D
:101F5000742028594553206F72204E4F293F00525C
:101F6000656164696E67205370656564204F4B3FFF
:101F7000000028594553206F72204E4F29203F0002
:101F80000061206E65772042564D3F0052656164C6
:101F90007920746F20696E7374616C6C00285945E8
:101FA00053206F72204E4F29203F0000616C7265F4
:101FB00061647920696E7374616C6C65643F00497B
:101FC00073207468652042564D2062616700526537
:101FD0007365742028594553206F72204E4F292075
:101FE0003F00322E20496E7374616C6C2042564D56
:101FF00000312E20506F7765722D6F666620537901
:102000007374656D00466F6C6C6F772073746570C8
:10201000732062656C6F7700457665727920256460
:1020200020427265617468287329004E6F7465647C
:10203000202859455329203F000077696C6C2062A5
:10204000652073656E740042726561746820576123
:102050007665666F726D7300446F6E652028594512
:102060005329203F00557365204152524F5773202A
:102070006F72204B4E4F420057617665666F726DEE
:1020800020446973706C61790053656C65637420DA
:10209000496E74657276616C20666F7200285945CE
:1020A00053206F72204E4F29203F0000616C7265F3
:1020B000616479206B6E6F776E2057692D466900D9
:1020C0004175746F2D636F6E6E65637420746F005D
:1020D00000496E73706972652D3130302057692D5B
:1020E000466900746F2057692D4669204E657477E4
:1020F0006F726B00436F6E6E656374204C61707419
:102100006F702F50686F6E6500506F737369626CEB
:10211000652054696D656F7574000057692D4669B7
:1021200020496E666F004661696C656420746F209B
:102130007265747269657665002E2E202564202EE6
:102140002E0000000057692D4669204C6F67696EAC
:1021500020746F0028594553206F72204E4F29205C
:102160003F00696E207468652053797374656D73E0
:10217000205461626C65004F4E4C592069662055B1
:1021800049442070726573656E7400416C6C6F77A2
:102190002052656D6F746520416363657373004FF2
:1021A00054502069732025303464004E6F74656488
:1021B000202859455329203F000000556E6971754C
:1021C00065205379734944004E6F74656420285923
:1021D000455329203F000000696E2070726F6772BE
:1021E0006573730057692D4669204C6F67696E20CF
:1021F00052657472790028594553206F72204E4FF2
:1022000029203F0043726564656E7469616C7300D8
:1022100052652D656E7465722057692D46690057A9
:10222000692D4669204C6F67696E204661696C654F
:1022300064210052657472792028594553206F72C9
:10224000204E4F29203F00004661696C6564205391
:102250005349440057692D4669204C6F67696E20C9
:102260004661696C6564210028594553206F7220CE
:102270004E4F29203F0052657472790057692D46F0
:102280006920506F7274616C2054696D656F75744C
:102290000057692D4669204C6F67696E2046616959
:1022A0006C656421000000696E2070726F67726552
:1022B00073730057692D4669204C6F67696E004E35
:1022C0006F746564202859455329203F0054727962
:1022D00020616761696E206C6174657200436F6E86
:1022E00074696E75696E6720776974686F757400BC
:1022F00057692D466920496E61636365737369622E
:102300006C650028594553206F72204E4F29203F9D
:1023100000005265636F6E6E656374203F00446F0A
:1023200020796F752077616E7420746F00252E32CE
:102330003073004E6F746564202859455329203F3F
:1023400000000057692D466920697320636F6E6E27
:102350006563746564004E6F746564202859455345
:1023600029203F0000446973636F6E6E6563746576
:10237000640057692D4669004E6F746564202859C2
:10238000455329203F0000446973636F6E6E656397
:102390007465640057692D466920616C72656164DB
:1023A00079000000456E676167696E672053686158
:1023B0006674005475726E696E67204D6F746F722B
:1023C000204F4E000000446973656E676167696E57
:1023D00067205368616674005475726E696E672079
:1023E0004D6F746F72204F4646000000496E2050BA
:1023F000726F677265737300506C61746520506F03
:10240000736974696F6E696E6700436865636B20FA
:10241000232564005354455053203D20256400007B
:102420002E2E2E00506F736974696F6E696E67206F
:10243000506C617465730000004D6F746F722042C0
:10244000656C7400736C61636B20696E20746865E1
:102450000052656D6F76696E6720616E79000000CD
:10246000456E676167696E672053686166740054E2
:1024700075726E696E67204D6F746F72204F4E00DB
:10248000506C65617365207761697400002E2E2E93
:1024900000436865636B696E670025753A253032C5
:1024A000753A2530327500427265617468202325C3
:1024B0006C750028483A4D3A5329202025730000B6
:1024C0000053657373696F6E204475726174696F30
:1024D0006E00494E53504952452D31303000417401
:1024E0006D6F73706865726963204F323D25642596
:1024F000250025646674206F722025646D0000003D
:10250000004C6F636174696F6E202620416C7469A2
:10251000747564650028594553206F72204E4F2909
:10252000203F00436F6E6669726D20746F20616397
:1025300063657074006D617920626520746F6F202F
:1025400068696768005045455020706172616D652B
:102550007465720028594553206F72204E4F292010
:102560003F00436F6E6669726D20746F2061636314
:10257000657074006D617920626520746F6F2068EA
:1025800069676800504D415820706172616D6574D3
:102590006572004E6F746564202859455329203FA9
:1025A0000042564D2C20427265617468696E672046
:1025B000747562657300557073747265616D205037
:1025C0007265737375726500436865636B20666F2F
:1025D00072204C65616B616765287329004E6F74CA
:1025E0006564202859455329203F0042564D2C2030
:1025F000427265617468696E672074756265730004
:10260000446F776E73747265616D20507265737379
:1026100075726500436865636B20666F72204C6558
:10262000616B61676528732900446F6E65202859C6
:10263000455329203F00427265617468696E6720C6
:1026400043697263756974004F50454E206D617324
:102650006B206F70656E696E67206F6600446973EA
:10266000636F6E6E6563742050617469656E74008B
:102670004E6F74656420285945532900696E2042C5
:102680007265617468696E67204369726375697405
:1026900000526573696475616C205072657373755F
:1026A0007265004641494C4544206261636175731F
:1026B00065206F66004E6F74656420285945532964
:1026C0000043616C6C2053657276696365205465C4
:1026D000636800436865636B20507265737375723D
:1026E00065207475626573004641494C4544202D50
:1026F000204E6F2070726573737572650025642EAD
:102700002564206C69747265732F6D696E0000001A
:1027100054617267657420697320285252207820B2
:1027200056542900505356204D696E7574652056D5
:102730006F6C756D65004E6F746564202859455344
:1027400029203F0050726576696F7573204272656B
:1027500061746800546F6F206C6F772064757269C4
:102760006E67005072657373757265537570706F24
:10277000727420466C6F770043616C6C20536572F5
:1027800076696365205465636800436865636B2000
:1027900042564D2042616700696E20746865204290
:1027A000564D20426167004465666F726D617469C1
:1027B0006F6E20446574656374656400256C7520D4
:1027C00050617469656E74005768696C6520696E44
:1027D00020434D56206D6F646500446574656374D5
:1027E0006564206275742049676E6F726564004984
:1027F0006E6974696174656420627265617468737E
:102800000000256C75204D616E6461746F727900F3
:10281000556E657870656374656421005768696CEE
:102820006520696E20505356206D6F6465004272BA
:10283000656174687320697373756564000068610D
:1028400076652063726F7373656420256C75004E26
:102850006F746564202859455329203F00506C65EA
:10286000617365207265706C6163652042564D002E
:102870000042564D2023436F6D7072657373696F0C
:102880006E7300686176652063726F737365642090
:10289000256C7500776974682061206E6577206FFC
:1028A0006E6500506C65617365207265706C616364
:1028B000652042564D000042564D2023436F6D70F7
:1028C00072657373696F6E73000042564D20234327
:1028D0006F6D7072657373696F6E7300004461741D
:1028E000652042564D20496E7374616C6C656400BE
:1028F000256C75204379636C6573004E6F74656455
:10290000202859455329203F0043616C6C205365B2
:102910007276696365205465636800005379737447
:10292000656D20536572766963652054696D650035
:10293000256C75204379636C65730000496E737074
:102940006972652D313030204C6F636174696F6E30
:1029500000746F2057692D4669204E6574776F7239
:102960006B00436F6E6E656374204C6170746F70A2
:102970002F50686F6E650000496E73706972652D27
:102980003130302050617469656E7400746F205767
:10299000692D4669204E6574776F726B00436F6EC8
:1029A0006E656374204C6170746F702F50686F6E29
:1029B000650025736B67202573636D0025732025E3
:1029C000737972002573202573005B25735D0050B9
:1029D000617469656E7420496E666F002D3E202516
:1029E000642E256420286C2F6D696E2900436F6E5C
:1029F0006669726D20444F4E452028594553292061
:102A00003F0000536574204F3220466C6F772028BA
:102A10006C2F6D696E29004D696E75746520566F57
:102A20006C2E20457374696D617465002D3E202500
:102A3000642E256420286C2F6D696E2900436F6E0B
:102A40006669726D20444F4E452028594553292010
:102A50003F0000536574204F3220466C6F7720286A
:102A60006C2F6D696E29004D696E75746520566F07
:102A70006C756D65204368616E676500252E323088
:102A80007300252E3230730000000057692D46690F
:102A900020436F6E6E656374696F6E006973207595
:102AA0006E64657267726F756E642E005468656936
:102AB0007220616D617A696E672074726169740059
:102AC000756E757375616C2074726565732E004147
:102AD0007370656E7320617265207665727900632C
:102AE00061727269656420627920616E696D616CE2
:102AF000732E007468652077696E64206F722061A0
:102B00007265007365656473207468617420666C17
:102B100079206F6E005472656573206E6565642060
:102B2000746F207370726561640063756C74757284
:102B3000657320616C6C206F7665722E007965611B
:102B400072732075736564206279206D616E7900FF
:102B5000666F7220666976652074686F7573616E42
:102B600064004861727073206861766520657869D9
:102B7000737465640068656C7073206765742069A0
:102B8000742075702E0069732066756E2E204120AA
:102B90006C696768742077696E64006E6963652C80
:102BA00020666C79696E672061206B6974650057D7
:102BB00068656E2074686520776561746865722049
:102BC000697300746865726520697320736E6F772E
:102BD0002E00616E79776865726520776865726529
:102BE000006F7574646F6F722070617374696D65C6
:102BF00000536B69696E67206973206120706F7084
:102C0000756C617200666F756E6420696E20527516
:102C1000737369612E0074686F7573616E642079D7
:102C2000656172732061676F2C00666F756E642C2E
:102C30002064617465732065696768740054686511
:102C4000206F6C6465737420736B692065766572A0
:102C500000416E7461726374696361206963652009
:102C600073686565740069732066726F7A656E209B
:102C7000696E207468650066726573682077617498
:102C80006572206F6E204561727468004E696E65D2
:102C900074792070657263656E74206F660041758B
:102CA000746F205265636F766572696E6700537941
:102CB0007374656D20697300004D6F746F722046E8
:102CC00061756C74004578706563746564203E209E
:102CD0002575206D6C004D696E75746520566F6C9E
:102CE0003D2575206D6C00436865636B20506174F1
:102CF00069656E740000004C6F77204D696E7574C5
:102D00006520566F6C756D6500436865636B204484
:102D10004953504C415900427265617468205365B3
:102D20007474696E67730054656D706F7261726957
:102D30006C79206368616E676564005072657373B7
:102D4000757265206265796F6E6420504D41580040
:102D500043616C6C205365727669636520546563CA
:102D60006800436865636B20427265617468696ED0
:102D700067207475626500436865636B20506174F9
:102D800069656E74204D61736B00544F54414C2043
:102D90005072657373757265204C6F73730043686E
:102DA00065636B205072657373757265204C696E34
:102DB000657300436865636B2050617469656E7468
:102DC000204D61736B00436865636B2042564D2054
:102DD00042616700536F6D65205072657373757241
:102DE00065204C65616B0043616C6C2053657276A5
:102DF000696365205465636800417370697261742A
:102E0000652050617469656E7400436865636B206A
:102E1000427265617468696E67207475626500410D
:102E2000697277617920426C6F636B616765002519
:102E30006420646567430043616C6C20536572765F
:102E400069636520546563680000746F6F2068696A
:102E50006768004D6F746F722054656D70657261A4
:102E60007475726500256420646567430043616C76
:102E70006C20536572766963652054656368000051
:102E8000746F6F206C6F77004D6F746F7220546594
:102E90006D7065726174757265006C656164696EF0
:102EA0006720746F204552524F520074686520535A
:102EB000797374656D207374617465005072657305
:102EC0007320504155534520746F2073686F77000D
:102ED0005B4552524F525D00427265617468202317
:102EE000256C7500506175736520496E7370697249
:102EF0006174696F6E0053686F72742050726573ED
:102F00007320504155534520746F00004272656133
:102F100074682044656C69766572790044796E61E5
:102F20006D6963203D2025750053746174696320C9
:102F30003D2025750044796E616D6963203D205503
:102F40004E4B4E4F574E00537461746963203D20C1
:102F5000554E4B4E4F574E00286D6C2F636D4832C7
:102F60004F29004C756E672044656C746156202FA4
:102F70002044656C7461500042726561746820235E
:102F8000256C7500000000494E53504952452D31C3
:102F90003030004272656174682023256C750045ED
:102FA0007374696D617465642056543D2575000025
:102FB000000044656C69766572656420566F6C75B7
:102FC0006D65286D6C290042726561746820232547
:102FD0006C750053706F6E74616E656F757320420F
:102FE000504D3D253275004D616E6461746F72798C
:102FF0002042504D3D25327500000000427265614F
:1030000074687320706572206D696E757465005305
:10301000706F6E74616E656F75733D25752E2575C5
:10302000004D616E6461746F72793D25752E257552
:1030300000546F74616C3D25752E257500000000ED
:103040004D696E75746520566F6C2E20286C2F6D3F
:10305000696E29004D454E55202D3E205374616EFA
:10306000646279204D656E75006E6F7420726571B3
:103070007569726564004F787967656E20496E6680
:103080006C6F77004F787967656E20496E666C6F5C
:1030900077206D7573740046694F32207365742014
:1030A0006174202564252500526573756D65642063
:1030B0004F7065726174696F6E00004D6F746F724E
:1030C000204661756C74005265636F766572656445
:1030D0002066726F6D00446973706C61796564205D
:1030E000506172616D6574657273004272656174DE
:1030F000682044656C697665727920666F72007429
:103100006F20626567696E00507265737320535457
:10311000415254005265636F6E6E65637420776828
:10312000656E2072656164790042726561746869D8
:103130006E6720436972637569740066726F6D20F3
:103140007468650050617469656E742044697363C6
:103150006F6E6E6563746564005354415254202D44
:103160003E205B4143544956455D004D454E552038
:103170002D3E205374616E646279204D656E75003A
:103180004152524F5773202D3E20506172616D6540
:1031900074657273005B5354414E4442595D00693B
:1031A0006E2070726F6772657373005265636F6E25
:1031B0006E65637420617474656D7074006973204A
:1031C0007374696C6C206C6F73740057692D466959
:1031D00020436F6E6E656374696F6E004D454E558A
:1031E000202D3E205374616E646279204D656E75AA
:1031F000006E6F74207265717569726564004F7836
:103200007967656E20496E666C6F77005365742030
:103210004F3220466C6F77205261746520746F00C6
:10322000005354414E4442592073746174650050F8
:10323000454550207768696C6520696E004163746C
:103240006976656C79206D61696E7461696E696E0D
:103250006700507265737320535441525420616764
:1032600061696E00436F6E6E6563742050617469AE
:10327000656E7420616E64004272656174682044FA
:10328000656C69766572790043616E6E6F74205368
:10329000544152540042726561746820666F722016
:1032A00061207768696C65004D697373696E67208A
:1032B00053706F6E74616E656F75730042726561F5
:1032C000746820696E20505356206D6F6465004409
:1032D000656C697665726564204D616E6461746FBA
:1032E000727900757020746F20257320636D2048FB
:1032F000324F006F722050454550207365747469D9
:103300006E670041646A757374205045455020769D
:10331000616C76650000504545502064656C7461B1
:10332000204F6273657276656400746F2063686510
:10333000636B2073797374656D0043616C6C20530B
:1033400065727669636520546563680067726F73A0
:10335000736C7920696E6163637572617465005482
:103360006964616C20566F6C756D65004368616EB1
:1033700067652053657474696E67730042564D200B
:1033800042616720746F6F20736D616C6C007365B0
:103390007420546964616C20566F6C756D650055BE
:1033A0006E61626C6520746F2064656C697665720D
:1033B00000436865636B20696D6D65646961746560
:1033C0006C7900636F756768696E6720686963630D
:1033D000757070696E670050617469656E74206DF8
:1033E000696768742062650041626E6F726D616C1E
:1033F0002042726561746800594553202D3E204378
:103400006F6D6D6974004368616E6765205041524D
:10341000414D45544552530028594553206F722061
:103420004E4F29203F00436F6E6669726D20746FA6
:1034300020616363657074006D617920626520743A
:103440006F6F2065787472656D650056542C52520A
:103450002C454920636F6D62696E6174696F6E00FF
:1034600028594553206F72204E4F29203F00436F4B
:103470006E6669726D20746F20616363657074009D
:103480006D617920626520746F6F20657874726554
:103490006D650050532C54505320636F6D62696EFC
:1034A0006174696F6E0028594553206F72204E4F2A
:1034B00029203F00436F6E6669726D20746F206132
:1034C000636365707400636C6F736520746F205064
:1034D0004545500050532073657474696E672074BD
:1034E0006F6F004E4F202D3E2043616E63656C0070
:1034F000594553202D3E20436F6D6D697400436F15
:103500006E6669726D20746F20434F4D4D495400B3
:10351000504152414D4554455253206368616E6796
:103520006564004E6F746564202859455329203F17
:1035300000547279696E6720746F205265636F6EF4
:103540006E6563740044524F505045440057692DD6
:10355000466920436F6E6E656374696F6E004361E8
:103560006C6C2053657276696365205465636800EE
:1035700000435243204661696C7572650054656D65
:1035800070657261747572652053656E736F720039
:1035900053544F5020666F6F6C696E672061726F75
:1035A000756E64210021212049474E4F5245442029
:1035B0002121005072657373656420746F676574B0
:1035C000686572004D756C7469706C652042757425
:1035D000746F6E73005B256C752C256C755D005BDC
:1035E00025642C25642C25642C25642C256C752CD5
:1035F00025645D005B25642C25642C25642C2564E2
:103600005D002564206D696E7574657300436F6E8F
:103610006669726D2028594553206F72204E4F29DC
:10362000203F000052616D702D75702061707072C6
:103630006F782074696D6500546964616C20566F01
:103640006C756D6500446F6E6520285945532920BF
:103650003F000052616D702D757020617070726F47
:10366000782074696D650053657420546964616CD9
:1036700020566F6C756D650000000040470A1240CF
:10368000670C2B40870E4540A7105E40C71277405D
:10369000E71490400717AA402719C340471BDC4096
:1036A000671DF640871F0F41A7212841C7234241CC
:1036B000E7255B4107287441272A8D41472CA74104
:1036C000672EC0418730D94100000040A8060F4056
:1036D00037092740C60B4040560E5840E510704051
:1036E000741388400316A0409218B840211BD040A4
:1036F000B11DE94040200141CF2219415E253141F1
:10370000ED2749417C2A61410C2D79419B2F924143
:103710002A32AA41B934C241000000400A030D40D8
:103720000806244006093B40050C5240030F69403F
:103730000112804000159740FE17AE40FC1AC540AC
:10374000FB1DDC40F920F340F7230A41F626214116
:10375000F4293841F22C4F41F12F6641EF327D417F
:10376000ED359441EC38AB41000000409A06104022
:103770001C0928409D0B40401F0E5740A1106F4070
:1037800023138640A5159E402618B540A81ACD40A3
:103790002A1DE540AC1FFC402D221441AF242B41D3
:1037A00031274341B2295A41352C7241B62E8A4104
:1037B0003831A141BA33B941000000402B0A14400E
:1037C000300C2C40350E45403A105D403F1275409C
:1037D00045148D404A16A5404F18BD40541AD54097
:1037E000591CEE405F1E064164201E41692236418D
:1037F0006E244E417326664179287E417E2A974188
:10380000832CAF41882EC74100000040C3071240FF
:10381000660A2A40080D4340AA0F5B404C127340D1
:10382000EE148B409017A340321ABB40D41CD340F7
:10383000761FEC4019220441BB241C415D27344112
:10384000FF294C41A12C6441442F7C41E631954134
:103850008834AD412A37C541000000405C05114065
:103860009C082940DB0B41401A0F59405912714006
:1038700098158A40D718A240161CBA40551FD2404E
:103880009422EA40D425024113291A41522C334193
:10389000912F4B41D03263410F367B414E399341DA
:1038A0008D3CAB41CD3FC34100000040AD05104011
:1038B000F50829403D0C4140840F5A40CC1273401A
:1038C00013168C405B19A440A21CBD40EA1FD640D1
:1038D0003123EE4079260741C1292041082D394185
:1038E0005030524197336A41DF368341263A9B413B
:1038F0006E3DB441B640CD4100000040FF05104090
:103900004F0929409F0C4240EF0F5C403F13754028
:103910008F168E40DF19A7402F1DC1407F20DA404F
:10392000CF23F3401F270D416F2A2641BF2D3F4172
:103930000F3159415F347241AF378B41FF3AA44197
:103940004F3EBE419F41D7410000004060051040FE
:103950009A082940D50B41400F0F5A404912734035
:1039600083158C40BD18A440F71BBD40321FD640C4
:103970006C22EE40A6250741E02820411A2C39414F
:10398000542F52418F326A41C935834103399B41DB
:103990003D3CB441773FCD4100000040C20411409E
:1039A000E60729400B0B41402F0E5940531171403F
:1039B00078148A409C17A240C01ABA40E51DD24034
:1039C0000921EA402D24024152271A41762A334127
:1039D0009A2D4B41BF306341E3337B41073793411D
:1039E0002C3AAB41503DC34100000040340410402C
:1039F00072072840B10A4040EF0D58402D11704029
:103A00006C148940AA17A140E81AB940281ED14079
:103A10006621E840A4240041E3271841212B3141CD
:103A20005F2E49419E316141DC3479411A38914120
:103A3000593BA841973EC04130835B1F0B83C7248D
:103A40003E83252BB1737C32F6633A392A64684091
:103A50007464C048B4544D51C1440258B662EF1B5F
:103A6000EB6270224263542977533830DF53F638C3
:103A70000644BE3E60345E48BA34CB4FC934335539
:103A80008142EE1BE542A1231333022A51339230C7
:103A90009F239B37D923BE3F2C24604689242C4D7D
:103AA0008C24EF532483B51E188397243E83AC2ABD
:103AB000AC736532EB63D63821641C4069643E48C0
:103AC000AD54A950BD445F57B5620D1CE8627D221C
:103AD0003663582973535A30D653B0380044933E56
:103AE00053348B47B834204FBF348E547C42A71BCD
:103AF000D84232230A33BD294A3331309C238137DF
:103B0000DB23893F30245D4688243D4D86240954BB
:103B100019730F1E267368243F63332AA8634F323C
:103B2000E16372381854D03F5F44BD47A744055045
:103B3000B934BD56B5522B1CE6528B222B535D294E
:103B40006F437D30CD336B38FA33683E4634B84628
:103B5000B724754EB524EA537732601BCC32C422A9
:103B6000013378294323D02F99236837DD23553F2C
:103B700034245A4687244E4D812424540E73691DE3
:103B8000337338243F63BA29A3633932D7630E38BD
:103B90000F54843F55443C47A044614FB5341B56F5
:103BA000B452491CE45299221F5361296B439F3040
:103BB000C4332638F4333D3E3934E545B524CA4D87
:103BC000AB2446537232191BC0325622F8323329C5
:103BD0003C236F2F96234E37DF23213F382457464F
:103BE00086245F4D7C243F540363C31C4163092436
:103BF000406342299F532332CD43AB370744383FBC
:103C00004B44BB469A34BE4EB2347955B442681C1C
:103C1000E242A722143366296733C230BC33E1374E
:103C2000EF23133E2D241245B424204DA124A2528B
:103C30006D32D31AB432E821F032EE2835230E2F3C
:103C400094233537E123ED3E3C2455468524704DC1
:103C500077245A54F362941C3363D423426381293A
:103C60009C53FF31CE43AD370844253F5244E046D4
:103C7000A0346D4EAF342155A6424C1CD54255227E
:103C800012332C2964335F30BA338937EF23153E62
:103C90002F244045B6243A4DA4240A536732D41A3F
:103CA000B132B221F432FE2837233B2F912306375D
:103CB000E323F33E4C248D468424964D7F24CB543D
:103CC000E452661C2553A0234553C1299A43DB3196
:103CD000CF43B0370934123F59240647A6241D4E5E
:103CE000AD24C9549932301CC93203221033F32851
:103CF0006223FC2FB8233237EF23183E32246E455F
:103D0000B924554DA72473536232D51AAE327C21A3
:103D1000F9220E293A23692F8E23D736E623F93E5E
:103D20005C24C6468324BD4D88243C55D552371C9F
:103D300017536B234853012A9743B731D043B23707
:103D40000A34FF3E60242C47AC24CC4DAA24715485
:103D50008B32141CBC32B1210E33BA286023992F48
:103D6000B623DB36EF231A3E34249C45BC24704D29
:103D7000AA24DB535D32D61AAB324621FE221E291D
:103D80003D23972F8B23A836E923FF3E6C24FF4663
:103D90008224E44D9024AD55C652091C09533723A3
:103DA0004B43412A95439331D133B5370C34ED3E23
:103DB00067345247B2247C4DA8241A547E32F81B33
:103DC000B03260210C3381285E23362FB523843630
:103DD000F0231D3E3724CB45BF248B4DAD244454E6
:103DE0005822D81AA822112103232F294023C52F96
:103DF00088237A36EC23053F7D24384781240B4EF7
:103E000099241E56C452891C035366234643532AE1
:103E10008C436331CD33B7370D34153F70342247AF
:103E2000AD24354DA72434547932F61BB432DE214B
:103E30000A33B5285D237D2FB323F136ED23333EBE
:103E40003424A945B024E94DAD24BD545C22061BA1
:103E5000AA224B21032350294123F72F8C23DB3641
:103E6000E723233F782436488724A04E97244156E1
:103E7000C342091DFD4296234133662A84333431FF
:103E8000C923B9370E243D3F7924F346A924EE4CCB
:103E9000A6244E547432F41BB9325C220933E9284B
:103EA0005C23C52FB2235F37EA23493E312487457F
:103EB000A224474EAD2436556122351BAD22862102
:103EC0000423722942232A3091233C37E323423FC3
:103ED000732434498D24364F96246556C142891D7A
:103EE000F742C6233C33792A7C330531C523BB37DF
:103EF0000F24653F8224C346A424A74CA5246854FC
:103F00006F32F21BBE32DA2208331D295B230D30DB
:103F1000B123CD37E7235F3E2E2465459424A54E7B
:103F2000AD24AF556622631BAF22C1210423932920
:103F300043235C3095239D37DF23613F6E24324A53
:103F40009324CB4F95248956C0420A1EF242F62391
:103F500038338C2A7433D630C223BD3711248E3FB8
:103F60008C249446A024604CA42483546B32F01B10
:103F7000C3325923072352295A235530B0233B38E3
:103F8000E523763E2B2444458624044FAD24285651
:103F90006B22921BB222FC210523B52944238F30CA
:103FA0009A23FE37DB23803F6A24304B9A246150EA
:103FB0009424AD56BE42E41DF242D42334336F2A1A
:103FC0007733CE30C823C2371E24BC3F9924CF4656
:103FD000A724054DAB24BB546B32DB1BC2322E230E
:103FE0000623692959235330B0232738EE23C03ED6
:103FF0004B24CE458824A74EA824F8556E22CA1B10
:10400000B5224B220823F8294E231731A623ED3879
:10401000ED2397407A24F54AB8244F50B924AE5482
:10402000BC32BF1DF232B3233123522A7A23C63069
:10403000CE23C8372C24EB3FA6240B47AE24AB4D30
:10404000B324F3546C22C71BC22203230623802906
:1040500059235230B0231438F7230A3F6B245946B2
:104060008A244A4EA324C8557122031CB9229B22DC
:104070000B233B2A59239F31B323DD390024AE4162
:104080008A24BA4AD6243E50DE24B052BA32991D50
:10409000F23291232D23352A7D23BE30D423CD3710
:1040A0003A241A40B3244647B524504EBA242B551F
:1040B0006D22B31BC222D8220523972958235130E1
:1040C000B02301380024543F8B24E4468C24ED4D6A
:1040D0009E24985574223B1CBD22EA220E237E2A80
:1040E00064232732BF23CC3A1324C5429A247F4A43
:1040F000F4242D500325B150B832741DF2327023D0
:104100002A33192A8123B630DA23D3374824494089
:10411000C0248247BC24F64EC22464556E229F1BE5
:10412000C222AD220523AE2958235030B023EE37EA
:104130000A249F3FAB246F478F24904D99246855E4
:104140007722741CC1223A231123C12A6F23B03273
:10415000CC23BC3B2624DC43AA24444A12251C5011
:104160002925B34EAE32061DE83214232C33302AF3
:104170008323AB30E1230A385D245440BE245A47E0
:10418000BA248D4EBB2422556C22831BBF228C2265
:10419000042369295E238330B52300380924A03F16
:1041A000AD2482479024774DA6243A5578226B1C83
:1041B000C02229231023CC2A6F23C332BC238A397F
:1041C0002D24DF42BB24384AF6246A4BE5241D4ADD
:1041D000A532981CDE32B9222F33482A8623A0301C
:1041E000E823423873246040BD243347B924254E68
:1041F000B524E1546B22671BBC226C2204232529C1
:104200006523B630BB2313380924A13FB02495475A
:1042100091245F4DB4240D557922631CBF221823CD
:104220001023D72A7023D732AC2358373424E241E5
:10423000CC242C4ADB24B846A22488459C322A1C74
:10424000D4325E2231335F2A89239530EF237938C7
:1042500088246B40BC240C47B824BC4DAE24A05429
:1042600069224B1BB9224B220323E0286B23E93040
:10427000C12326380924A23FB324A8479224464DDF
:10428000C124E0547A225A1CBE2207231023E22ABA
:104290007023EA329C2326353B24E540DD24204A66
:1042A000C02406425E24F2409332BD1BCB3203226F
:1042B0003433772A8C238B30F723B1389E24774010
:1042C000BB24E546B724544DA8245F5468222F1B15
:1042D000B7222B2203239C2872231D31C723393890
:1042E0000924A43FB624BC4793242E4DCF24B354B5
:1042F0007B22521CBD22F6221023ED2A7123FE32AE
:104300008D23F5324324E83FEE24154AA524543D7D
:104310001B245D3C0F83881E3983A1257473962C62
:10432000D07394341A64403C5064B642C664044E60
:10433000E6544E56F0446D5D90623C1AC462AC2067
:104340001D53EC276F53512FD05389370D44393EFD
:10435000AD34D74AC434BC51C934405770428E1A68
:10436000C8420C221343D9286333F72FB7333537AC
:104370000024A93F4B243F469824644DD524F6548D
:104380000C833B1E3E8374257273422CCC734734DE
:1043900015648F3B47643942A864764CC7547E54F9
:1043A000C344B85A9E62121BD76291212C53CA286B
:1043B00082533230ED5313382044B83E9934894942
:1043C000BA348C50BE3477567242A21ACA422A229C
:1043D000164303296533F92FB93357370224A03F19
:1043E00051249946A724F54DCF2452550973EE1D4B
:1043F000437348257163ED2BCA63FB331164DF3AC5
:104400003F54BC418B54E84AA844AE5295340358FB
:10441000AD52E81BEA5277223C53A9299543133148
:104420000A349F383234373F85343B48B2245C4FDE
:10443000B424AF557432B71ACD32492219332D291D
:104440006823FB2FBC237A370424983F5624F44674
:10445000B524864EC924AE550673A11D47731B258E
:104460007063992BC663AF330D642E3A36543F41C7
:104470006E545B498944DD5068344E55BB52BE1CB6
:10448000FE525D234B53872AA843F33127342A3940
:104490004534B63F7134ED46A9242B4EAA24E75487
:1044A0007732CC1AD03268221C3357296B23FC2F69
:1044B000BE239C3705248F3F5C244E47C424164FEF
:1044C000C3240A560363541D4D63EF246F63452BC9
:1044D000C453633309447E392E44C2405144CD470E
:1044E0006B340E4F3B349952CA42951D11434324FD
:1044F0005A33652BBB33D4324534B5395824364052
:104500005D249F45A024FC4CA0241F547932E11A5D
:10451000D3328722202381296E23FE2FC223BF3767
:104520000724873F6124A947D224A74FBD2466569C
:10453000F9627D1D4463EF247063782BC4536333A9
:10454000FE4360393244BD405844E9477534014F59
:1045500050345853C2427E1D0B4308245833342B29
:10456000B2336C32373433395424E23F5F24BB45D5
:10457000A224184DA1243C547C32181BD532682249
:104580002623782971231D30C023B43712248E3F8F
:104590006F245F47C6240D4FBB243556F052A61D2D
:1045A0003C53EF247153AC2BC5436433F44342397D
:1045B0003734B840602406488024F44E66241854EA
:1045C000BB32661D0533CE235533032BA92303329B
:1045D0002924B13850248E3F6124D745A524354D78
:1045E000A2245A547F324F1BD83249222C237029DF
:1045F00075233D30BE23A9371E24953F7C241547E3
:10460000B924734EBA240456E752CF1D3453EE2416
:104610007353E02BC6436433EA4324393C34B3403C
:10462000682422488B24E74E7B24D754B3324F1D95
:10463000FF3293235333D32AA0239B311B243038DA
:104640004B243A3F6224F245A724524DA3247854C8
:104650008232861BDA322A223223672979235C30A0
:10466000BC239D3729249C3F8A24CB46AD24D94DB9
:10467000B924D355DE52F91D2C53EE247453142C57
:10468000C7436533E03307394234AF4070343F48A5
:104690009624DB4E91249755AC32381DF9325A23BB
:1046A0005033A22A982332310D24AE374824E73EF6
:1046B00064240F46AA24704DA52496548522BD1B60
:1046C000DD220B22382360297E237C30BA239337E6
:1046D0003524A33F98248146A1243F4DB824A255F8
:1046E000D252D21D1C53A4246753CE2BB7430D3393
:1046F000E233093946348C40763411489624994E79
:1047000092248155A632261DF73283234A338C2A00
:104710009C234331112415384A24563F672475469B
:10472000A424054EA7242F558922CA1BE022272244
:104730003A2381297B239030C023D1373B24AE3FDD
:1047400097243347A524EC4DB324E455C642AB1D52
:104750000C435A245A33892BA733B532E5230B393E
:104760004B2469407C24E4479824564E93246C558E
:10477000A032141DF632AD234423762AA1235431EE
:1047800015247C384C24C63F6B24DB469F249A4E6C
:10479000A924C9558F22D71BE32243223D23A329F5
:1047A0007923A430C72310384224B93F9624E54723
:1047B000A924994EAF242656BA42841DFC421124E6
:1047C0004D33442B97335E32E7230D394F24464057
:1047D0008224B6479824144E942456559A32031DC9
:1047E000F532D6233E23602AA62365311924E43806
:1047F0004E2435406E2442479924304FAB246256F4
:104800009422E41BE62260223F23C4297623B83099
:10481000CE234E384924C43F95249648AD24464FB4
:10482000AB246956AF425E1DED42C7234033FF2AD9
:1048300087330632EA3310395424244089248947C7
:104840009A24D24D952441559532F11CF43200241E
:1048500038334B2AAB2376311E244B395024A540E4
:104860007124A9479424C64FAD24FC569A22F11B0B
:10487000EA227C224123E6297423CD30D5238D38CA
:104880005024CF3F95244849B224F34FA724AB5678
:10489000AD42381DEE42C7234133162B8B33FA311C
:1048A000F63302395B243E409024B1479C242E4EBF
:1048B000942488559832EB1CF632022440337E2A29
:1048C000B52377311E242339502499407D24A947EC
:1048D0009124464FA42470569B22191CEB22B4222B
:1048E00042231A2A7D233531E1230C3953247C409D
:1048F00093241049B724AD4FB4245555AA32121D44
:10490000F032C72342332D2B8F23EE310324F438AA
:1049100062245A409824DA479E248C4E9324CF5523
:104920009C22E61CF82203244823B22AC0237831B3
:104930001F24FB384F248E408924AA478F24C74E5A
:104940009C24E5559C22421CEE22ED2243234F2A53
:1049500087239D31EF238B39562429419124D84850
:10496000BC24684FC1240054A832EB1CF132C6238A
:104970004333452B9323E2311024E63869247540F4
:10498000A0240248A124E94E92241756A022E11C3B
:10499000FA2205244F23E52ACA237A312024D3386A
:1049A0004F2482409524AB478C24474E932459557D
:1049B0009D226A1CF02225234423832A9123063258
:1049C000FB230A3A5A24D6418F24A048C024234FFF
:1049D000CE24AA52A632C61CF332C62345335D2B21
:1049E0009723D7311D24D93871249140A8242B480E
:1049F000A324464F92245F56A422DC1CFC220624EA
:104A00005723192BD5237C312124AC384F247740F0
:104A1000A224AC478A24C84D8B24CE549E22931CDA
:104A2000F3225D234623B82A9B236F3209248A3A56
:104A30005D2483428E246848C524DE4EDC24555113
:104A4000A0329D1CF1329E234733492B9F23D03146
:104A50002924F13878248540A7240348A224F54E60
:104A6000912424569E22A01CF522BF235123BF2A45
:104A7000D82389312524CD385124A140A224D847F8
:104A80008F242F4E982445559C22821CF4224823C3
:104A90004223C52A9D2382320B2476397124FB419F
:104AA0009B240148BB24874BC924E04E9B32751CD4
:104AB000EF3276234933362BA823CA3134240A39FE
:104AC00080247940A624DB47A224A44E9124EA55F1
:104AD0009922651CEF2279234B23662ADC23973128
:104AE0002A24EF385424CB40A32405489424964E1E
:104AF000A524BD559B22721CF52233233E23D22AC6
:104B00009F2395320E24623884247341A9249A4746
:104B1000B1243148B6246C4C96324D1CED324E23F4
:104B20004B33232BB123C3314024233987246D40D9
:104B3000A624B447A224524E9024B0559322291C97
:104B4000E922322345230C2ADF23A5312F241139F2
:104B50005624F540A32432489924FD4EB2243456FD
:104B60009A22611CF6221E233B23DF2AA123A832AE
:104B700010244E379824EB40B7243347A724DB4456
:104B8000A324F8499232261CEC3226234E23102B04
:104B9000BA23BD314C243C398F246240A5248C4774
:104BA000A224014E902477558E22EE1BE422EC22A3
:104BB0004023B229E323B43134243339592420412A
:104BC000A4245F489E24654FBF24AC569922501CF4
:104BD000F72209233723EC2AA423BC3213243B36C3
:104BE000AC246440C524CC469D248541912484474F
:104BF000EF82B51D68837B26AA83082EEF73AC363F
:104C00003F64473F77640445196548531855505B26
:104C10002045D9626B628A189E62E81EF962852679
:104C200068536B2EC2531C361544B53DFA34514DB2
:104C3000CE34AE53C9344E595F422E19AC4278205F
:104C40001433B12775335D2FCF23D0362824953FF9
:104C50006B241F46A8249D4D1F25FE55F482C11DBF
:104C600064835126A783D82DED732A364064493ECC
:104C70006E645644E864AE50E1545358C944115E22
:104C80008862181AC662A52023633D2892530A3011
:104C9000055477374044DE3EDF34884BBD34F8514D
:104CA000BE34615868429E19BD42232123334928EE
:104CB0008133C12FD7232E372924B83F7224D646FB
:104CC000C624AD4E18259B56F972CD1D607328265B
:104CD000A463A82DEC63A83542644C3D6654A843F8
:104CE000B844144EAA44575572344959A652A61BCB
:104CF000EF5263224D53F529BC43A9314834D338D0
:104D00006B340740C434BF49AD244350B4247557B5
:104D100072320F1ACF32CF213233E2288E2326305F
:104D2000DF238D372B24DB3F79248E47E424BE4FCD
:104D300011253857FE72D91D5C73FF25A163782DAC
:104D4000EA63263543644E3C5D54FA4287447A4B0D
:104D500073445A521B348154C352341D18532124B6
:104D60007753AD2BE64348338B342E3A963430419B
:104D7000A934F6479D248D4EAA2489567C327F1A89
:104D8000E0327A2241337B299A238A30E723EB37BA
:104D90002C24FE3F802446480225CE500A25D557B4
:104DA0000463E51D5963D6259F63482DE953A43458
:104DB0004544513B55444D425744E0483C345E4FD6
:104DC000C433B94FE142C31E4143DF25A133652DF2
:104DD0001034E734CF348A3BC2245A428E242D4605
:104DE0008D24D84CA0249D558632F01AF232262309
:104DF0005133142AA723EF30F0234A382E242140C0
:104E00008724FE482025DF51042573580063661E61
:104E100056630A269E636F2DED53C8342F44133B0F
:104E20005D4456425F44F3484B34954FF133905103
:104E3000DF42B01E4143BC259E333C2D0034793403
:104E4000B434DD3AB924AF418F2436468F24F74C71
:104E50009F246F5591325C1BFA321E235833F3297D
:104E6000AC230031EF236238422429409224314898
:104E700008258450F8249F57FD52E71E54533E26C0
:104E80009E53972DF143ED341A44D53A66345F4270
:104E9000682406495B24CC4F1F246753DD329D1ED6
:104EA000423399259B33142DF1230B349A24313A44
:104EB000B1240541902440469124164D9E2442552C
:104EC0009C32C91B023316235F23D229B12311312F
:104ED000EE237B38562431409D246447F024294F2B
:104EE000ED24CC56F952681F515372269E53BF2DA4
:104EF000F54312350544973A6F34684270241949D6
:104F00006A2403504D243E55DB328A1E42337625F7
:104F10009833EC2CE1239D3380248539A8245B4011
:104F2000912449469324354D9D241555A732361CAE
:104F30000A330E236623B129B6232231ED23933899
:104F40006A243940A8249746D824CE4DE224F95546
:104F5000F652EA1F4F53A6269E43E72DFA433735F4
:104F6000F0335A3A7834724279342C497A243B50DF
:104F70007B241557DA32781E433354259533C42CDD
:104F8000D2232F336624D938A024B13F922453462C
:104F90009524554D9D24E854B222A31C12230623C8
:104FA0006E239129BC233331EC23AC387E2442405C
:104FB000B324CB45C124744CD7242655E0521C1F82
:104FC0003553E2258843492DE243B734F8335C3A40
:104FD000803404427C3400498024FD4F7D24CF5628
:104FE000D332561E3B3329258A33642CDC23093304
:104FF0006F243939A7247A409B2441479824214EB5
:10500000A124A255B7228E1C162303237223B22992
:10501000B6232931F523C83890243940B6243046C8
:10502000C324384DCF248755CA424E1E1C431F252A
:105030007333AC2CCA33373401245E3A882496414A
:105040007F24D5488724BF4F80248A56CC32351E12
:105050003433FE247F33042CE723E33279249A3956
:10506000AE244341A52430489C24EE4EA5245C5632
:10507000BD227A1C1A2301237623D429B0231F31A1
:10508000FE23E438A2243040B9249646C624FD4DC0
:10509000C824E855B442801D02435C245E330F2CC3
:1050A000B233B7330924603A902428418224A948B6
:1050B0008D24814F83244456C532141E2D33D324AE
:1050C0007433A42BF123BD328224FB39B5240C4266
:1050D000AE241F499F24BB4FA9241657C322651C29
:1050E0001E23FF227A23F629AA231531072400392B
:1050F000B4242740BC24FB46C824C14EC1244956D1
:105100009F42B31CE94299234933722B9A333733B8
:105110001224633A9824BA4086247E489424444F4B
:105120008624FF55BF32F31D2633A8246A23442B5F
:10513000FC2397328C245C3ABC24D542B8240E4A16
:10514000A3248850AD24D057C922511C2223FD220C
:105150007E23182AA5230B3110241D39C6241E4096
:10516000C0246147CB24864FBA24AA569C428C1C8B
:10517000EB42BA234E33BD2B9F3327332524423ACB
:105180009824C140882493489124584F7D24555633
:10519000C632FC1D2A33D6247A23942B11249B3249
:1051A0008D241F3AB2247342B02484499B24E64FD5
:1051B000A124E956C822691C22231E237D233D2AEF
:1051C000AD2353311D242B39B9246140AC242C4725
:1051D000B6240C4FAF24FD559932651CEE32DB230B
:1051E0005423092CA42317333924213A9924C94084
:1051F0008B24A9488F246D4F7424AC56CD22061EF3
:105200002E2304258A23E42B27249F328F24E3397D
:10521000A8241242A824FB489424444F9524025603
:10522000C722821C23233F237C23632AB6239C317D
:105230002B243A39AD24A4409924F746A224934E56
:10524000A524515596323E1CF132FC235A23552C8D
:10525000A92307334D24003A9924D1408D24BE4818
:105260008D24824F6B240357D4220F1E3223322504
:105270009A23342C3D24A3329024A6399E24B04195
:10528000A02472488C24A24E89241B55C6229A1C45
:10529000242360237B23892ABE23E531382449391E
:1052A000A124E7408524C2468D24194E9A24A45493
:1052B0009432181CF4321D246033A12CAE23F83232
:1052C0006124E0399A24D9409024D4488B24974F04
:1052D00062245A57DB22191E36236025AA23852C07
:1052E0005324A83292246A3995244F419924E947DE
:1052F0008524004E7E243554C522B31C25238123EA
:105300007B23AF2AC7232E324624583995242B41BC
:1053100072248D467924A04D9024F8539332351C85
:10532000FA3228246233632CBC23F6327124D93933
:105330009324B6409024AC488B245D4F67242757B4
:10534000D122BE1D2C23F3249E23162C53249032ED
:1053500096249B399A24A24197242F488E24E74E05
:105360008A245155C1229A1C282367237423BE2AFC
:10537000CB2341325B246239B52418417C24CA45D1
:105380008024A54BAD24A4539232531C0033332404
:105390006433252CCB23F4328124D3398D249340DC
:1053A000902484488C24234F6D24F456C722631D17
:1053B000232386249323A72B542479329A24CC398F
:1053C0009F24F541962476489724CE4F97246D5616
:1053D000BE22811C2B234E236D23CD2ACF23543292
:1053E00070246D39D5240541872408458724AB49AD
:1053F000CB2451539132711C06333E246633E72B84
:10540000D923F2329124CD398624704090245C480F
:105410008C24E94E7224C156BD22081D1A2319247A
:105420008823382B542462329E24FD39A424484218
:105430009424BC48A024B550A3248957BB22681CDF
:105440002E2335236623DC2AD3236732852477393C
:10545000F524F240912446448E24B147E924FE52BB
:1054600091328F1C0D3349246833A92BE823F03285
:10547000A224C73980244D40902434488D24AF4E57
:1054800078248F56B422AD1C1123AD237D23C92A65
:1054900055244B32A2242E3AA9249C42932403493A
:1054A000AA249D51B024A658B8224F1C31231C2396
:1054B0005F23EB2AD7237B329A2482391525E040DB
:1054C0009C2484439624B7450725AB52EA82F41BFB
:1054D0005483D024B983C32C09747D355964E93DC4
:1054E000AD64FB44C9646D4E0F551D5C15453064B9
:1054F000A0624219DF6270203053AC2894531B30F5
:10550000ED53A0373C44163FDE347E4BF734D05287
:10551000F5349859AB42311BF34294223E337A2939
:105520008F334231E82374383A242B416624D24623
:10553000A724634E6725DF5CED823B1C5983E92479
:10554000BA83F02C097467355A648F3DAB64E54427
:10555000C064C84DF154BB59E644D160AC624B1AEB
:10556000F56290214C539829B05334310F546F3861
:105570005344C93FCF345A4AE0347C51DD34CC58CF
:10558000A9425D1BFD424A235433922AA233E831DB
:10559000FC2377393D2426417D242F48C424904F95
:1055A0005425515CF172831C5E730325BC731C2D62
:1055B0000A6451355B64353DA954D044B744224D4B
:1055C000D3445B57B744725DB852541B0B53B0229F
:1055D0006843852ACC434E3231343E3969347C40AD
:1055E000C0243549CA242950C6240158A832891B31
:1055F000083301246A33AB2BB523903211247B3A54
:105600004124214194248C49E124BE504125C35BAF
:10561000F472CA1C63731C25BE73492D0A643B35A2
:105620005B64DB3CA754BB44AE447D4CB644FA54A7
:105630008844135AC4525C1C2153D1238443722BD7
:10564000E843683353340D3A80342F41B124114874
:10565000B424D64EAF243657A732B41B1233B72426
:105660008033C42CC823373326247E3B45241C4179
:10567000AB24E94AFE24EB512E25365BF862121D5D
:1056800068633625C163762D0B5425355C44823C16
:10569000A644A744A644D74B983499525A24B456EA
:1056A000D142661D3843F124A1335F2C0434823487
:1056B0007624DC3A9724E341A324ED469F24834DCE
:1056C00098246B56A632E11B1D336E259733DD2DD2
:1056D000DC23DE333C24823C49241741C224464C5F
:1056E0001B2519531C25A95AFC628F1D696382254D
:1056F000BF63902D0D5436354A44303CA444404499
:10570000A744424B9C3434526E24E656CF426D1D62
:105710003743CC2498333B2CF533F53369246D3A69
:105720009424B0419D244D4799241A4E9524A8569F
:10573000AA321A1C203317259333262DDB238233FC
:105740002C247A3B4E24CD40C924434B1C257C524B
:105750001925065A00530D1E6A53CE25BE43AB2DA4
:10576000104448353944DE3BA334DA43AA24AD4A19
:10577000A124CE5184241957CE32751D3633A72467
:105780009033182CE72367335C24FF3992247D4142
:105790009724AD479424B24E9224E556AE32541C61
:1057A0002333C0248F23702CDA2326331D24723A2E
:1057B00053248340D124414A1E25E05118256459C1
:1057C00004538A1E6B531926BC43C62D12445A3506
:1057D00028448C3BA1347443AB24184AA524695156
:1057E00099244B57CC327C1D353382248833F52BDA
:1057F000D923DA324F2490398F244B4191240D481C
:105800008F244A4F8F242257B2328D1C26336924AD
:105810008B23BA2BD923C9320E246A395824394034
:10582000D8243E491F2543511625C2580953091F44
:105830006C536526BB53E12D15446D3517343B3B46
:10584000A0340E43AE248349AA240451AE247D57CC
:10585000CB32851D35335E248033D22BCB234D32A2
:10586000422422398D2418418C246E488A24E24F28
:105870008C245F57B622C71C292312248723052BAB
:10588000D9236D32FF2363385D24EF3FE0243C4889
:105890002225A85015252058FF52B31E5D53F72529
:1058A000B153A62D06440E351A34033BA834A14249
:1058B000AE243F49AC249350AD243857C932A31DC0
:1058C000323387247D33BC2BE82309335324B13989
:1058D000942487418F24D7489124255093249757A7
:1058E000BE22C41C2C230F248B230C2BD8237332F1
:1058F0000324913883249F40D82405481D252A512C
:105900000625C257F6425E1E4E438925A7436D2DDC
:10591000F733B0341E24CB3AB0243342AF24FC48D2
:10592000AF242150AC24F356C732C21D2F33B1240B
:105930007A33A52B0724C6336524403A9B24F641CD
:1059400093244249982468509A24CF57C622C21CF7
:1059500030230D249023142BD72378320724BF380B
:10596000A8244F41D024CE471925AE51F7246557BE
:10597000EC42081E3F431B259D43332DE833523430
:105980002224933AB824C641B024B848B224B04F78
:10599000AB24AE56C432E11D2D33DB2478338F2B7C
:1059A000242483347624D03AA22465429624AC4938
:1059B0009E24AB50A1240758CE22BF1C33230B24B6
:1059C00094231C2BD6237E320B24EE38CE24FE41AA
:1059D000C724974714253052E9240757E342B41DE2
:1059E0003043AD249333FA2CD933F43326245B3A75
:1059F000C0245841B1247548B5243F4FAA246A56A3
:105A0000C332001E2B3305257623782B43244035E3
:105A10008824603BA924D5429A24174AA624EF5033
:105A2000A9244058D622BD1C372309249823252BAE
:105A3000D523833210241D39F324AE42C02461479C
:105A40001025B452DB24AA56DD427A1D2F43B72419
:105A50009133F12CD733C53332243C3ABD24614114
:105A6000B224D248B1246E4FA524C156C832EC1DD1
:105A70002E3317258123C72B372499348B24F43AEE
:105A8000A3245E429B24A249A2246550A6248D57DC
:105A9000D422BA1C3723FE2398233D2BD6238D32E4
:105AA0001D242B39DB244D42AC242C47EA246E51B3
:105AB000C824FD55D832401D2F33C2248F23E92C32
:105AC000D42396333F241C3ABB246B41B324304982
:105AD000AE249D4FA0241957CD22D91D322329254C
