:100000000C94986B0D94E6470D94BB470D94904764
:100010000D9465470D943A470D940F470D94E446AF
:100020000D94B9460D943C480D943C480D943C48C1
:100030000C94C96B0C94C96B0C94C96B0C94C96B70
:100040000C94C96B0C94C96B0C94C96B0C94C96B60
:100050000C94C96B0C94C96B0C94C96B0D946F46CE
:100060000C94C96B0D9430440D9406440C94C96BE8
:100070000C94C96B0C94C96B0C947DC20C94C96B25
:100080000C94C96B0C94C96B0C94C96B0D941148FA
:100090000C94C96B0C94C96B0C94C96B0D94774A82
:1000A0000C94C96B0C94C96B0C94C96B0C94C96B00
:1000B0000C94C96B0D9460490C94C96B0C94C96B7A
:1000C0000C94C96B0C94C96B0C94C96B0C94C96BE0
:1000D0000C94C96B0C94C96B0C94C96B0C94C96BD0
:1000E0000C94C96B0D94FD580C94CBE70C942F9E87
:1000F0000C94DCF60D942C430C9486B90D940359A2
:100100000C9405DD0D9430590C94C5DC0C9441E43D
:100110000D94CF430C94E1BB0C9482F00C943DDC25
:100120000C94F06B0D940F590D94BD0A0C949BDE4A
:100130000D9414290D94D70A0D9445410C9478F030
:100140000D94D3690D943F0A0C94BFE70D94526A45
:100150000D94086A0D9421590C94F99D0D940B0A85
:100160000D9470450D94DF450C94A1DC0D94C145B0
:100170000C9478B70C9441DF0D94EB410D942A59FF
:100180000C945DDC0C94FC9D0C94E5DC0D94FF411B
:100190000C94079E0C94A5DC0D947A450C94DF9D7D
:1001A0000D946D090D94D9690D9412590D94C90AD5
:1001B0000C94299E0C94B4F60C94C0F60D94EF693F
:1001C0000C94E2F00C94AFF60D9409590D94A845E7
:1001D0000D94FC080C94329E0D9477090D94D00A6E
:1001E0000D94130A0C9487F00D9418090C94C9DB34
:1001F0000C9414DB0C94CAF60D9411290D94566AD4
:100200000D9418420C9453DB0D94C6410D945B433E
:100210000C943BC30D94026A0C947DDC0C94CAE4EC
:100220000C94FF9D0D94F9410C948DE50D94E741DC
:100230000D9411090D94D8090D9418590D949E0927
:100240000C9412B70C942CDB0C9487B90D94FC64BD
:100250000C94E8F00D9417290C94F2B90D940A0946
:100260000D94C0400D94FC690D94DB680D94D5424B
:100270000D94D6420C9499DD0D942A0A0D94FB55E9
:100280000C94C3DE0D94D5690D9494090D94540A11
:100290000C943ABB0C947DF00D94E3690C9473DEDE
:1002A0000D94F8420D9457450D94F4410D94B240CD
:1002B0000C944DE70D941A290D94E9690D94475754
:1002C0000D948C420D94056A0C9400C50D945C4508
:1002D0000D9400590C94FFB60D94D3410C9472F018
:1002E0000D9482450D94F5410D94B0430D945E6AD2
:1002F0000C94049E0C9413DF0D94F8400D94FF6948
:100300000D948F400C94D1E70D94F5280D94B745CA
:100310000C9496F00C9409DC0C9401DE0D941742B9
:100320000C9429DC0D94020A0C9408E60D947A438F
:100330000C94C5E70C94D3F60C94D8E30D94B44117
:100340000C94E9DB0C948CF00D94BA410D94CE0919
:100350000D941B590C94F0DA0D94E9450D94EF417E
:100360000D94C1570D94DE0A0D94CF410C94EFB655
:100370000D944C6A0D94B6090C949DDC0D94F5080F
:100380000D949B560D94E1410D94EC690C9447E754
:100390000D9425590D9415590C942C9E0D944C0ACE
:1003A0000D94DE580D94FD410C948AB90D94320AD7
:1003B0000D94DD410D944B090D949B4B0D942D59DB
:1003C0000C94EBDE0C9407BA0D94C30A0D940659F5
:1003D0000D94610A0D94E6690D94EE080D94596A26
:1003E0000D94D9410D944F6A0D94AF780C9413E796
:1003F0000D948A450D9474420D9403090C9433DBDB
:100400000C94F7B60D94CB450C94BAF60C94EBE62D
:100410000D9494450C9428DB0C94B9E70D94445941
:100420000D94FE410D946F430D94EE680D94C241FE
:100430000C949BF00C9493DF0D949E450D947A6977
:100440000C943BDF0D944F450C9498E10D94664558
:100450000C94C6F60D94E5420C9491F00D94B30AF9
:100460000D94D4420D94FF420C9462C30C94AAF6EE
:100470000D94E3680D94BE410D9462400C94DDB977
:100480000D940C590C944C6C0D94D5450D94C941A8
:100490000D941E590D9420290D9408580D941D2972
:1004A0000C9418BC0D94C2080D94496A0D949E409A
:1004B0000D944A160D94466A7C5F5F5F5F5F5F5FD5
:1004C0005F5F5F5F5F5F5F5F5F5F5F7C007C2020DF
:1004D00020202054656B4D6564696B6120202020CD
:1004E0007C007C20202020494E53504952452D311C
:1004F00030302020207C00205F5F5F5F5F5F5F5FA8
:100500005F5F5F5F5F5F5F5F5F5F200000506F77DF
:1005100065722D4F6E003C3C20524553544152545D
:1005200020524541534F4E203E3E0000004D616E2B
:1005300075616C205245534554003C3C2052455354
:100540005441525420524541534F4E203E3E0000EC
:10055000436F6E74696E7565202859455329203F95
:10056000005265706F7274207468652070726F62DB
:100570006C656D005761746368646F672052455302
:100580004554003C3C20524553544152542052455E
:1005900041534F4E203E3E005265616479202859F8
:1005A000455329203F00466F6C6C6F7720496E736E
:1005B0007472756374696F6E730000494E535049CD
:1005C00052452D313030004C4F4720435245415465
:1005D00045443A200056657273696F6E2025642E7B
:1005E00025642E256400526573657420285945538F
:1005F00029203F0000496E76616C696420554944AA
:10060000004552524F52007C2023232320466F7511
:100610006E642073797374656D20554944203D20C4
:1006200000204B5D002043205B007C2023232320FF
:1006300054656D7065726174757265733A20007CE3
:10064000202323232052657472696576696E6720C2
:100650006E6F6E20766F6C6174696C6520696E6672
:100660006F2066726F6D20454550524F4D006E767B
:100670006D3A204661696C6564206C6173744368EF
:1006800065636B526573756C74496E646578006E52
:10069000766D3A204661696C6564206E756D4368BD
:1006A00065636B526573756C7473006E766D3A207A
:1006B0004661696C65642072656164696E6750614A
:1006C000757365006E766D3A204661696C656420CD
:1006D0006D61696E53657474696E6773007C202D5B
:1006E0002D2D204E76696E666F2056657273696F88
:1006F0006E203D20007C202D2D2D20426F617264E4
:100700002056657273696F6E203D20007C202D2D70
:100710002D205357204D696E6F7220566572736994
:100720006F6E203D20007C202D2D2D205357204D15
:10073000616A6F722056657273696F6E203D20008A
:100740003D3D3D3D3D3D3D3D3D3D204241442045FB
:100750004550524F4D204845414420636F6E7465AB
:100760006E7473206166746572205245534554005F
:100770003D3D3D3D3D3D3D3D3D3D204A7573742031
:10078000416674657220464143544F525920524588
:10079000534554007C2023232320454550524F4D80
:1007A000206265666F726520666972737420706F6F
:1007B000776572207570007C2023232320496E69A1
:1007C0007469616C697A696E6720454550524F4D76
:1007D0002064617461007C2023232320466F756EA2
:1007E000642076616C69642042564D20616E6420FD
:1007F0004D616368696E65206379636C652064612F
:100800007461007C2023232320496E76616C696427
:100810002070726576696F75736C79207361766587
:100820006420454550524F4D206461746100285941
:100830004553206F72204E4F29203F0000446173C2
:1008400068626F617264207669612057692D46691C
:1008500000456E61626C652052656D6F746520574E
:100860004542007C202A2A2A2052617720414443B5
:1008700020646F776E73747265616D20707265733A
:100880007375726520646966663D0043616C6C2017
:100890005365727669636520546563680000004C97
:1008A0006F7720426F61726420566F6C7461676568
:1008B0000025752E2530337520566F6C7473007CBF
:1008C0002023232320537570706C7920566F6C742D
:1008D00061676520696E206D696C6C69766F6C74F8
:1008E00073203D20000000537570706C7920566FA6
:1008F0006C7461676500436865636B696E6720426D
:100900006F61726420004D696E2025752E2530338D
:100910007520566F6C7473007C202323232052456E
:10092000545259202D205A65726F20466C6F7720E3
:1009300064656C7461502028313058206D6D4832E8
:100940004F29203D20007C20232323205245545250
:1009500059202D205175697363656E7420446F773B
:100960006E41444320283130582041444329203DE2
:1009700020007C20232323205245545259202D202F
:100980005175697363656E74205570414443202826
:100990003130582041444329203D20000046414940
:1009A0004C4544005A45524F2043616C6962726164
:1009B00074696F6E0050726573737572652053654C
:1009C0006E736F720000005A45524F2043616C698C
:1009D00062726174696F6E005072657373757265CF
:1009E0002053656E736F7200436865636B20232527
:1009F00064007C202323232043616C69627261744C
:100A0000696E672050726573737572652053656EE9
:100A1000736F7273000049324320616464726573BE
:100A2000732030783237004C4344206E6F74206658
:100A30006F756E6420617400007C2053656C667471
:100A4000657374204661696C6564202D206E6F208B
:100A50004C43442061742061646472657373203078
:100A600078323700005375636365737366756C6C19
:100A7000790053656C6620546573742052756E005E
:100A8000007C202323232053656C665465737420F7
:100A90005375636365737366756C007C202A2A2A1C
:100AA0002053656C6654657374204661696C656497
:100AB000004E6F746564202859455329203F005526
:100AC00073696E6720746F64617927732064617441
:100AD00065007768656E2042564D20696E737461BB
:100AE0006C6C65640043616E27742066696E6420D7
:100AF0006461746500256C75204379636C657300CF
:100B00004E6F746564202859455329203F0000002A
:100B100042564D20496E7374616C6C20446174655B
:100B2000004E6F746564202859455329203F00000A
:100B300053797374656D2068617320636F6D706C99
:100B4000657465640053797374656D204379636CD3
:100B50006520436F756E7400256C75204379636C56
:100B60006573007C20232323204E756D62657220FF
:100B70006F66204D616368696E65204379636C65BB
:100B8000733A20007C20232323204E756D6265720A
:100B9000206F662042564D20436F6D7072657373EF
:100BA000696F6E733A20007C202323232042564D28
:100BB00020496E7374616C6C6174696F6E2044615E
:100BC00074653A20007C20232323205573696E67C7
:100BD00020746F64617927732044617465007C2000
:100BE0002A2A2A20496E76616C69642042564D207B
:100BF000496E7374616C6C6174696F6E20446174CA
:100C0000650028594553206F72204E4F29203F0020
:100C100000496E7374616C6C6564203F00576173AA
:100C20002061206E65772042564D20426167004466
:100C30006F6E65202859455329203F00446973632E
:100C40006F6E6E6563742050617469656E740061C7
:100C50006674657220506F7765722D6F6E005374E5
:100C6000617274696E672053656C662D5465737488
:100C7000007C20404040206E766D496E666F2E737A
:100C8000706F6E7454726967676572496E4D6D3D21
:100C90000023232320496E697469616C697A696E47
:100CA00067204461746520616E642054696D65003D
:100CB00023232320436865636B696E6720666F7228
:100CC0002056616C696420554944002A2A2A20452F
:100CD00052524F5220434F4445203D20004E6F74E6
:100CE00020506F737369626C65004D61696E746545
:100CF0006E616E636520427265617468730052654F
:100D00007365742028594553206F72204E4F292057
:100D10003F000049727265636F76657261626C654F
:100D2000004552524F52007C203E3E3E204E6F7492
:100D300020706F737369626C6520746F2068616ED8
:100D4000646C65206572726F72007C203E3E3E20AE
:100D5000537769746368696E6720746F20506D61A2
:100D6000782046616C6C6261636B007C203E3E3E85
:100D7000204572726F722048616E646C65723A2011
:100D8000436F6E74696E75696E6720417320697375
:100D9000007C202A2A2A2048616E646C696E6720D4
:100DA000457272726F72232000446F6E652028595D
:100DB000455329203F006166746572207072657327
:100DC00073696E67205354415254005265636F6ECD
:100DD0006E656374206F6E6C7900446973636F6E27
:100DE0006E6563742050617469656E740025646675
:100DF00074206F722025646D00436F727265637496
:100E00002028594553206F72204E4F293F00000083
:100E10004C6F636174696F6E202620416C74697435
:100E2000756465003E3E204661696C6564205379B7
:100E30006E63696E6720525820545820627566664A
:100E40006572007C202323232052656365697665E3
:100E500064204D65737361676520007C2023232324
:100E6000205265636569766564204D6573736167BB
:100E70006520007C20232323205265636569766505
:100E800064204D65737361676520007C20232323F4
:100E9000205265636569766564204D65737361678B
:100EA0006520007C202323232052656365697665D5
:100EB00064204D65737361676520007C20232323C4
:100EC000205265636569766564204D65737361675B
:100ED0006520007C202323232052656365697665A5
:100EE00064204D65737361676520007C203E3E3E43
:100EF000204C6F636174696F6E20506F7274616C07
:100F00002074696D656F7574002E2E202564202E67
:100F10002E005265747279202859455329203F00CC
:100F2000506F7274616C2054696D656F7574004CFC
:100F30006F636174696F6E20496E666F0046616908
:100F40006C656420746F20656E74657200436F6E0B
:100F500074696E7565202859455329203F00004C5F
:100F60006F636174696F6E20496E666F726D617434
:100F7000696F6E00456E746572204D616E646174B8
:100F80006F727900257379722025736B6720257342
:100F9000636D0025732025730050617469656E745C
:100FA0003A2046656D616C6500436F7272656374CB
:100FB0002028594553206F72204E4F293F000000D2
:100FC00050617469656E743A204D616C6500094525
:100FD0007874726163746564206865696768743DDC
:100FE000000952656D61696E696E67207374723DA8
:100FF0000009457874726163746564207765696778
:1010000068743D000952656D61696E696E67207391
:1010100074723D000945787472616374656420617F
:1010200067653D000952656D61696E696E67207381
:1010300074723D0009457874726163746564206759
:10104000656E6465723D000952656D61696E696E19
:1010500067207374723D007C202323232052656334
:1010600065697665642070617469656E7420737457
:1010700061747320007C20232323205265636569FB
:10108000766564204D65737361676520007C20235D
:101090002323205265636569766564204D6573730B
:1010A00061676520007C20232323205265636569E6
:1010B000766564204D65737361676520007C20232D
:1010C0002323205265636569766564204D657373DB
:1010D00061676520007C20232323205265636569B6
:1010E000766564204D65737361676520007C2023FD
:1010F0002323205265636569766564204D657373AB
:1011000061676520007C2023232320526563656985
:10111000766564204D65737361676520007C203EB1
:101120003E3E2050617469656E7420506F72746128
:101130006C2074696D656F7574002E2E20256420F7
:101140002E2E0052657472792028594553206F72F3
:10115000204E4F29203F00506F7274616C205469FB
:101160006D656F75740050617469656E7420496EA9
:10117000666F004661696C656420746F20656E74EB
:1011800065720028594553206F72204E4F29203F29
:10119000000050617469656E7420496E666F726DEF
:1011A0006174696F6E00456E746572206E657700BC
:1011B00058585858585858585858582043617573BB
:1011C00065206F66205265736574203D20506F77EF
:1011D00065722D6F6E2052657365740058585858AB
:1011E00058585858585858204361757365206F6691
:1011F000205265736574203D205761746368646F85
:101200006720526573657400585858585858585894
:10121000585858204361757365206F662052657376
:101220006574203D204D616E75616C20526573655B
:101230007400436F6E74696E756520285945532993
:10124000203F00737465702D62792D737465700092
:1012500053797374656D2077696C6C206775696468
:1012600065003C3C20464952535420504F5745524C
:101270002D5550203E3E0052657472792028594504
:1012800053206F72204E4F29203F000043484543B2
:101290004B204641494C4544000028594553206F96
:1012A00072204E4F29203F00436F6E74696E756542
:1012B0002052656D61696E696E673F004348454322
:1012C0004B204641494C454400005245534554206B
:1012D000616E6420506F7765722D446F776E0000E9
:1012E00043616C6C20536572766963652054656355
:1012F00068004641494C454420506F7765725570EF
:1013000020546573747300436F6E74696E75652045
:101310002859455329203F0000504153534544204C
:10132000506F776572557020546573747300535510
:101330004343455353210053656E736972696F6E61
:101340002053464D33303230007C20404040204610
:101350006C6F772053656E736F72203D2000436F72
:101360006E74696E7565202859455329203F0041E8
:1013700052524F5773206F72204B4E4F42004E61B6
:10138000766967617465204D454E55207573696EA9
:1013900067005072652D55736520436865636B69FE
:1013A0006E670052657472792028594553206F7218
:1013B000204E4F29203F00004641494C4544000043
:1013C0007C204641494C2020436865636B203C00EB
:1013D0003E007C20444F4E452020436865636B20CF
:1013E0003C007C20534B49502020436865636B20B0
:1013F0003C0028594553206F72204E4F29203F0052
:101400004F4B20746F2045584954004F74686572E3
:1014100020436865636B7320536B6970706564006B
:101420004D616E6461746F727920436865636B739C
:10143000204F4B003C52657475726E696E67207464
:101440006F204D656E753E00004E6F7420436F6DCA
:10145000706C65746564004D616E6461746F72795F
:1014600020436865636B73007C2023232320456E33
:101470007465726564205072652D557365204368EC
:1014800065636B7300436F6E74696E7565202859D0
:10149000455329203F006166746572207072657340
:1014A00073696E6720535441525400436F6E6E65EA
:1014B00063742070617469656E74206F6E6C79005E
:1014C000436865636B7320537563636573736675F7
:1014D0006C21007C2023232320436F6D6D697450A1
:1014E000656E64696E6753657474696E6773206FA7
:1014F0006E20494E495449414C495A4154494F4E36
:10150000007C2023232320466972737420506F7758
:101510006572757020646F6E65202D20736176652D
:101520006420746F20454550524F4D00554E4B4E30
:101530004F574E002C2044796E616D6963203D2029
:1015400000554E4B4E4F574E007C203E3E3E204CA9
:10155000756E6720436F6D706C2E20286D6C2F6345
:101560006D2048324F2920537461746963203D20F7
:10157000005B25642C25642C25642C25645D005BB0
:1015800025642C25645D007C202323232053656E75
:1015900064696E6720507265737375726520576158
:1015A0007665666F726D20427265617468202300F3
:1015B0007C202121212053656E6450726576446140
:1015C0007461206D6963726F732074696D653D008D
:1015D0007C2021212120417761792066726F6D2066
:1015E000686F6D6520706F736974696F6E206279C2
:1015F0002073746570733D007C20212121204D4FA4
:10160000544F52204641554C5400524553455420A6
:1016100028594553206F72204E4F29203F00004328
:1016200079636C657320746F205A45524F203F00D8
:101630005265736574204D616368696E650052453B
:101640005345542028594553206F72204E4F29206E
:101650003F00004379636C657320746F205A4552D4
:101660004F203F0052657365742042564D0052650D
:1016700073746172742028594553206F72204E4F45
:10168000293F0000524553544F5245440046616380
:10169000746F72792053657474696E677300505368
:1016A000204D4158494D554D2050524553535552A8
:1016B000452045584345454445443A20007C203E5A
:1016C0003E3E205053206D61696E7461696E5073A7
:1016D0004D6D583130203D20007C203E3E3E205054
:1016E00053204E756D626572206F6620636F6D705A
:1016F00072657373696F6E73203D2000207374658B
:1017000070733D007C204040402050532072706D2B
:101710005831303D005643204D4158494D554D20DC
:10172000505245535355524520455843454544452D
:10173000443A20002073746570733D007C20404063
:10174000402056432072706D5831303D00206D6945
:101750006E503D007C204040402050726573737590
:101760007265204C4F5353206D6178503D00206DC1
:10177000696E503D007C204040402050726573737C
:10178000757265204C45414B206D6178503D0020BD
:101790005A2D73636F72655831303D002053746168
:1017A0006E6461726420446576696174696F6E3D30
:1017B00000204D65616E3D007C202A2A2A2053615D
:1017C0006D706C653D00494E56414C494400000027
:1017D0000000000000000000000000000000416C5C
:1017E00061726D20436F646500000000000000001E
:1017F0000000000000004578636565646564204D65
:101800004158494D554D0000000000000000507245
:1018100065737375726520416C6C6F776564000049
:101820000000000000004C65616B61676520696E17
:1018300000000000000000000000000000004272F4
:1018400065617468696E67204369726375697400C5
:10185000000000000000446973636F6E6E6563747E
:10186000696F6E20696E0000000000000000427287
:1018700065617468696E6720436972637569740095
:10188000000000000000507265737375726520538C
:10189000656E736F722873290000000000006E6F80
:1018A0007420776F726B696E6700000000000000A3
:1018B0000000000000004D65617375726564205082
:1018C00045455020646F65730000000000006E6F96
:1018D00074206D61746368207365742076616C7523
:1018E00065000000000050726573737572652073A7
:1018F00069676E616C000000000000000000646514
:101900007465637465642061732061626E6F726DCB
:10191000616C00000000504152414D455445522039
:10192000436F6E666C6963740000000000005053E2
:10193000206C657373207468616E205045455000BB
:10194000000000000000504152414D4554455220D6
:10195000436F6E666C696374000000000000504DB8
:101960004158206C657373207468616E2050454542
:10197000500000000000504152414D455445522056
:10198000436F6E666C696374000000000000504D88
:101990004158206C657373207468616E2050530049
:1019A000000000000000504152414D455445522076
:1019B000436F6E666C696374000000000000545051
:1019C00053206D6F7265207468616E202852522F0B
:1019D000322900000000556E61626C6520746F2032
:1019E0006163686965766520505300000000696E88
:1019F000207265717569726564205450530000004F
:101A000000000000000045787472656D6520564343
:101A1000000000000000000000000000000053650E
:101A20007474696E6773000000000000000000001D
:101A300000000000000045787472656D6520505309
:101A400000000000000000000000000000005365DE
:101A50007474696E677300000000000000000000ED
:101A6000000000000000505320427265617468203D
:101A70004661696C75726500000000000000546FDB
:101A80006F206D616E7920537465707300000000E3
:101A9000000000000000436F6E73697374656E632D
:101AA00079204572726F72000000000000004361EF
:101AB0006C6C2053657276696365205465636800B9
:101AC0000000000000004D6F746F72206E6F742074
:101AD000617400000000000000000000000073744A
:101AE000617274696E6720706F736974696F6E00DC
:101AF000000000000000446573697265642056545C
:101B00002C52522C452F4900000000000000436F6A
:101B10006D626F20756E61636869657661626C6580
:101B200000000000000050726573737572652053E9
:101B3000656E736F720000000000000000004361DA
:101B40006C6962726174696F6E204572726F7200A7
:101B500000000000000053656C66746573742046D5
:101B600061696C65640000000000000000004361D2
:101B70006C6C2053657276696365205465636800F8
:101B800000000000000050726555736520436865D1
:101B9000636B73204661696C6564000000004361FB
:101BA0006C6C2053657276696365205465636800C8
:101BB000000000000000506C6174657320746F2099
:101BC00042564D2047617000000000000000524561
:101BD0005345542D43616C6C20537570706F727453
:101BE0000000000000004D6F746F72204661756C3C
:101BF00074000000000000000000000000005472AB
:101C000079696E67205265636F76657279202E2E32
:101C10002E000000000053797374656D204F7665C7
:101C20007268656174696E670000000000005265AB
:101C300073746172742053797374656D00000000D1
:101C400000000000000053797374656D20746F6F9D
:101C500020436F6C6400000000000000000052652B
:101C600073746172742053797374656D00000000A1
:101C7000000000000000506C6174657320486F6DB7
:101C8000696E67204661696C656400000000436806
:101C900065636B205072657373757265207475622D
:101CA000657300000000506C6174657320486F6DAF
:101CB000696E67204661696C6564000000004D61D3
:101CC000736B204E4F54204F50454E0000000000D3
:101CD000000000000000504152414D455445522043
:101CE000436F6D626F000000000000000000696E2D
:101CF00076616C69640000000000000000000000D4
:101D00000000000000004D6F746F72204D616C6622
:101D1000756E6374696F6E0000000000000052452C
:101D20005345542053797374656D00000000000022
:101D3000000000000000556E61626C6520746F2029
:101D400064656C69766572000000000000007365D0
:101D50007420546964616C20566F6C756D65000069
:101D60000000000000005265706C616365204256FF
:101D70004D2042616700000000000000000045782F
:101D800063656564656420616C6C6F77656420755C
:101D9000736500000000556E61626C6520746F20F1
:101DA0006C6F6720696E0000000000000000746F17
:101DB000207468652057494649206E6574776F72B4
:101DC0006B000000000057692D466920506F727447
:101DD000616C000000000000000000000000746959
:101DE0006D6564206F757400000000000000000045
:101DF000000000000000505356204D696E75746558
:101E000020566F6C756D6500000000000000626573
:101E10006C6F7720285252207820565429000000F9
:101E20000000000000004661696C656420746F204A
:101E300053796E630000000000000000000052585B
:101E40002F545820627566666572730000000000AA
:101E500000000000000046694F3220536574746929
:101E60006E670000000000000000000000005265E6
:101E70006A656374656400000000000000000000F3
:101E800000000000000054656D7065726174757229
:101E9000652053656E736F720000000000004E6F86
:101EA0007420466F756E64000000000000000000A2
:101EB00000000000000045787472656D6520504D8B
:101EC00041580000000000000000000000005365C1
:101ED0007474696E67730000000000000000000069
:101EE00000000000000045787472656D6520504563
:101EF0004550000000000000000000000000536595
:101F00007474696E67730000000000000000000038
:101F10000000000000005045455020746F6F206C99
:101F20006F77000000000000000000000000536513
:101F30007474696E67730000000000000000000008
:101F400000000000000041697277617920426C6FE7
:101F5000636B65640000000000000000000043683F
:101F600065636B2050617469656E74000000000049
:101F7000000000000000556E65787065637465644C
:101F800020506C6174657300000000000000506F09
:101F9000736974696F6E00000000000000000000AB
:101FA00000000000000042564D2053697A65000091
:101FB0000000000000000000000000000000556E5E
:101FC00061636365707461626C650000000000000D
:101FD00000000000000042564D204465666F726D9F
:101FE0006564000000000000000000000000506C6C
:101FF0006561736520436865636B00000000000045
:1020000000000000000050532042726561746800B7
:102010000000000000000000000000000000466C0E
:102020006F7720746F6F206C6F77000000000000E6
:102030000000000000005053204272656174680087
:102040000000000000000000000000000000504DF3
:10205000415820746F6F20636C6F736520746F201C
:1020600050530000000058583A58580058582D58FE
:1020700058582D58585858202858585829005858FA
:102080003A58583A5858004A616E00466562004D09
:10209000617200417072004D6179004A756E004AAC
:1020A000756C0041756700536570004F6374004E96
:1020B0006F7600446563004D6F6E00547565005780
:1020C000656400546875004672690053617400537A
:1020D000756E0009416C74496E4D3A0009416C748B
:1020E000496E46743A00094E616D653A002E2E2005
:1020F0002564202E2E00004578636C7564696E6738
:102100002055494400496E666F726D6174696F6E47
:1021100000436C656172696E6720454550524F4DB2
:10212000004E6F746564202859455329203F0000F4
:102130000053797374656D20554944206973007CA0
:10214000205E5E5E205761726E696E672042757A0E
:102150007A657220566F6C756D65203D2000446F66
:102160006E652028594553206F72204E4F29203F1D
:1021700000666F72205741524E494E4720616C6194
:10218000726D730042757A7A657220566F6C756D48
:102190006500557365204B4E4F4220746F20636875
:1021A000616E6765007C205E5E5E20496E666F2012
:1021B00042757A7A657220566F6C756D65203D2088
:1021C00000446F6E652028594553206F72204E4F92
:1021D00029203F00666F7220494E464F20616C6196
:1021E000726D730042757A7A657220566F6C756DE8
:1021F0006500557365204B4E4F4220746F20636815
:10220000616E67650028594553206F72204E4F2933
:10221000203F0000636F6E6E656374656420746FA9
:102220002073797374656D3F00497320746865721B
:1022300065206120555053004E6F74656420285905
:10224000455329203F00626520636F6E6E6563749D
:10225000656420746F205550530074686174207455
:1022600068652073797374656D0049742069732003
:10227000455353454E5449414C0053656E736F723C
:10228000206F70656E204144432076616C756558FF
:1022900031303D002E2E202564202E2E007C202162
:1022A0002121205A65726F205072657373757265B3
:1022B00020566F7574204F666673657420746F6F57
:1022C0002068696768206D765831303D0043616C45
:1022D0006962726174696F6E204641494C454400E1
:1022E0004F66667365742025642E256420284D563C
:1022F0002900204F666673657420284D565831308A
:1023000029203D20007C2023232320004E6F74656C
:1023100064202859455329203F00004D555354202F
:10232000626520696E7374616C6C6564004120485D
:102330004550412F484D452046696C746572004DEB
:1023400065617375726564204469613D2533646D10
:102350006D004E6F746564202859455329203F0055
:1023600049732042564D206465666F726D65642026
:102370003F0000496E636F72726563742042564D70
:102380002053697A65004E6F74656420285945535F
:1023900029203F00746F205A45524F0042564D206D
:1023A000436F6D7072657373696F6E7300496E6908
:1023B0007469616C697A696E67206E756D626572A9
:1023C0000028594553206F72204E4F29203F0000AE
:1023D000496E7374616C6C65643F00576173206172
:1023E000206E65772042564D004E6F74656420283C
:1023F00059455329203F00004E6F742050726F7072
:1024000065726C7920426C6F636B6564004D61731B
:102410006B204F70656E696E67004E6F7465642047
:102420002859455329203F004C65616B6167652041
:102430006F722053776170706564005072657373BA
:10244000757265206C696E65730055707374726582
:10245000616D202F20446F776E73747265616D001B
:102460007C2040404020557073747265616D20611E
:102470006E6420446F776E73747265616D20507264
:10248000657373757265204C696E657320636F6E3A
:102490006E65637465642070726F7065726C79002C
:1024A0007C20232323204552524F523A204849474B
:1024B00048204F50454E20534C4F5720496E74656D
:1024C0006772616C51203D20007C2023232320452E
:1024D00052524F523A204C4F57204F50454E2053A6
:1024E0004C4F5720496E74656772616C51203D20D6
:1024F0000000005768696C65204F50454E00534CF2
:102500004F5720436F6D7072657373696F6E007CF7
:10251000203E3E3E204D65617375726564204F50CC
:10252000454E20534C4F5720496E74656772616C5D
:1025300051203D2000506C6561736520776169749E
:10254000000066726F6D20546F75636820506F7362
:102550006974696F6E00436865636B204C6F772008
:10256000566F6C756D65004D4158205374657073DE
:10257000203D2025640020746F20007C203E3E3EDC
:102580002056414C4944204F50454E20534C4F5704
:1025900020496E74656772616C512052616E676587
:1025A000203D20007C20232323204552524F523AC5
:1025B0002048494748204F50454E2046415354201B
:1025C000496E74656772616C51203D20007C202348
:1025D0002323204552524F523A204C4F57204F5000
:1025E000454E204641535420496E74656772616CB4
:1025F00051203D200000005768696C65204F504510
:102600004E004641535420436F6D70726573736979
:102610006F6E007C203E3E3E204D65617375726595
:1026200064204F50454E204641535420496E7465F6
:102630006772616C51203D200020746F20007C2067
:102640003E3E3E2056414C4944204F50454E204688
:1026500041535420496E74656772616C5120526118
:102660006E6765203D200000005768696C65204258
:102670004C4F434B4544005045414B2050726573CD
:1026800073757265730020557073747265616D2087
:10269000286D6D583130293D007C203E3E3E204D56
:1026A00065617375726564205065616B2050726559
:1026B00073737572657320446F776E73747265619E
:1026C0006D20286D6D583130293D007C203E3E3E06
:1026D0002056414C4944204D696E696D756D2050FE
:1026E00045414B2050726573737572657320286D78
:1026F0006D58313029203D20007C203E3E3E204D4B
:102700006561737572656420424C4F434B20496E7E
:1027100074656772616C51203D20007C203E3E3E16
:102720002056414C494420424C4F434B204D617848
:10273000696D756D20496E74656772616C51203DDD
:10274000200000005768696C6520424C4F434B45A0
:1027500044004641535420436F6D70726573736932
:102760006F6E004641494C4544004D4F5245204E46
:10277000657874202859455329203F004E6F7465B1
:1027800064202859455329203F004641494C45447F
:1027900020256420286D6D48324F29007C2023239A
:1027A0002320436865636B696E6720666F722070D3
:1027B000726F70657220627265617468696E672FEE
:1027C0007072657373757265207475626520636FCE
:1027D0006E6E656374696F6E730052656164792013
:1027E0002859455329203F000055736520796F759E
:1027F000722070616C6D206669726D6C7900424C5C
:102800004F434B204D61736B204F70656E696E674F
:1028100000446F6E65202859455329203F000074FD
:102820006F206368616E6765205045455020766172
:102830006C756500557365204152524F5773206F78
:1028400072204B4E4F4200446F6E6520285945530D
:10285000206F72204E4F29203F00746F2062652048
:102860006C6F636B6564006E6565647320506F7098
:102870002D4F66662076616C7665005072657373C5
:10288000757265203E20343020636D2048324F0041
:10289000446F6E65202859455329203F0000746F0E
:1028A000206368616E676520504D41582076616CE9
:1028B000756500557365204152524F5773206F72F2
:1028C000204B4E4F42007C2023232320504545506F
:1028D0002056657269666965643D000044657369E8
:1028E000726564205045455000746F2061636869CB
:1028F0006576650041646A757374205045455020C3
:1029000076616C7665000000746F2064697373698A
:1029100070617465005761697420666F722050722F
:102920006573737572650041636365707420256417
:102930002E2564202859455329203F004375727283
:10294000656E7420504545503D25642E2564005425
:10295000617267657420504545503D256420636D64
:1029600048324F007C202323232056657269667904
:10297000696E6720504545503D00256420636D48D1
:10298000324F000000504545502076616C7665203E
:10299000736574206174000020736563735831306F
:1029A000007C2023232320496E737069726174694F
:1029B0006F6E2050617573653D0025642E2564207F
:1029C00073656373004E6F746564202859455329FD
:1029D000203F000000496E737069726174696F6E08
:1029E00020506175736500446F6E6520285945530A
:1029F00029203F0000557365204152524F577320E4
:102A00006F72204B4E4F420053657420496E7370B5
:102A10002E205061757365004163636570742028D2
:102A2000594553206F72204E4F29203F00005065BA
:102A30007263656E74207365742061740053494D30
:102A4000562053796E632057696E646F7700206D4E
:102A50006D48324F007C202323232053706F6E7407
:102A6000616E656F757320547269676765723D00AA
:102A700025642E256420636D48324F004E6F7465C7
:102A800064202859455329203F0000547269676724
:102A90006572207365742061740053706F6E746189
:102AA0006E656F75732042726561746800446F6E65
:102AB00065202859455329203F0000557365204162
:102AC00052524F5773206F72204B4E4F4200536546
:102AD000742053706F6E742E20547269676765722C
:102AE00000252900252920284465637265617365E6
:102AF0003D007C2023232320466C6F772057617292
:102B00006E696E67205468726573686F6C647320B9
:102B100028496E6372656173653D007C2023232321
:102B200020466C6F77205761726E696E6720496E20
:102B300074657276616C3D004E6F7465642028592F
:102B4000455329203F004F3220446563726561730D
:102B50006520416C6572747300446F6E652028595E
:102B6000455329203F0000557365204152524F576D
:102B700073206F72204B4E4F42004F3220496E63DC
:102B8000726561736520416C6572747300416363A3
:102B90006570742028594553206F72204E4F2920AC
:102BA0003F0000004F3220416C65727420546872FF
:102BB0006573686F6C647300446563726561736507
:102BC000202564252500496E6372656173652025A3
:102BD00064252500446F6E652028594553206F7287
:102BE000204E4F29203F0000557365204152524F1F
:102BF0005773206F72204B4E4F42004F3220416C72
:102C000065727420496E74657276616C002564206B
:102C10006D696E730044495341424C454400454E32
:102C200041424C4544004E6F746564202859455319
:102C300029203F0000005354414E44425920504542
:102C4000455020636865636B0028594553206F72B7
:102C5000204E4F29203F0000696E205354414E44BE
:102C6000425920737461746500456E61626C652021
:102C70005045455020636865636B002859455320D3
:102C80006F72204E4F29203F000061206E65772033
:102C900042564D20426167203F005265706C61636F
:102CA00065206F7220496E7374616C6C004E6F7496
:102CB0006564202859455329203F0043616C6C20EE
:102CC000536572766963652054656368006E656557
:102CD0006473207265706C6163696E6700436C6F2A
:102CE000636B20426174746572790030313C2D2031
:102CF000202573202825642920202D3E31320044D0
:102D00006F6E65202859455329203F0000004D4F24
:102D10004E544800313C2D2D202025732825642950
:102D200020202D2D3E3700446F6E652028594553D5
:102D300029203F000000444159206F662057454537
:102D40004B00436F72726563742028594553206F9E
:102D500072204E4F293F00436F6E74696E75652077
:102D60002859455329203F0000557365204B4E4F8D
:102D700042206F722055502F444F574E00536574B8
:102D8000204461746520616E642054696D65004162
:102D900063636570742028594553206F72204E4F2D
:102DA00029203F0000005365742044617465206150
:102DB0006E642054696D65002D2D2D20496E76615D
:102DC0006C696420525443207374617465202D2013
:102DD000726573657420746F20312D312D3139394E
:102DE00030002323232052656164696E6720466C9E
:102DF0006167732066726F6D20454550524F4D20BC
:102E000074656D706F726172696C79007C20007CF2
:102E100020007C2053656C6674657374204661697C
:102E20006C65642050696E206E756D62657220005D
:102E30007C20232323204661696C6564204D6F74D8
:102E40006F72205245534554000000456E6761671C
:102E5000696E67205368616674005475726E696E9E
:102E600067204D6F746F72204F4E007C2023232308
:102E70002044697361626C696E6720616E642045ED
:102E80006E61626C696E67206D6F746F7200000016
:102E9000446973656E676167696E67205368616630
:102EA00074005475726E696E67204D6F746F722076
:102EB0004F4646007C2023232320417070726F7898
:102EC000696D6174652042564D2043656E74726170
:102ED0006C2044696120286D6D29203D20007C20F4
:102EE000232323204D617820436F6D7072657373C7
:102EF000696F6E20537465707320647572696E67B4
:102F00002062726561746873203D20007C20232359
:102F100023204D617820436F6D7072657373696F04
:102F20006E2053746570732066726F6D20546F75D8
:102F3000636820706F736974696F6E203D20007C38
:102F400020232323204241442042564D2043656ED6
:102F50007472616C2044696120286D6D29203D20C8
:102F6000007C2023232320424144204175746F209C
:102F7000546F756368205374657073203D20007C26
:102F80002023232320414D42552069732042494785
:102F90003A206175746F546F75636853746570730C
:102FA0002073657420746F203020696E73746561BE
:102FB00064206F66007C20232323204D65646961B3
:102FC0006E204175746F20467265657A6520537472
:102FD000657073203D200029203D20007C202323A4
:102FE00023204175746F20467265657A652053749D
:102FF0006570732028697465726174696F6E200052
:103000007C2023232320436F6D7072657373696E78
:103010006720746F2066696E6420707265737375C3
:10302000726520647572696E67206175746F2074B3
:103030006F756368206F7065726174696F6E0000F0
:1030400000496E2050726F677265737300506C6137
:10305000746520506F736974696F6E696E670043A1
:103060006865636B20232564005354455053203D0D
:1030700020256400002E2E2E00506F736974696F36
:103080006E696E6720506C6174657300007C202A45
:103090002A2A205265646F696E6720544F55434851
:1030A00020706F736974696F6E007C202323232066
:1030B000507265737375726520666F756E642061FA
:1030C00074205374657073203D20007C20232323DB
:1030D00020436F6D7072657373696E6720746F2023
:1030E00066696E64207072657373757265206475AD
:1030F00072696E672062656C7420666978206F70F3
:1031000065726174696F6E00004D6F746F7220425A
:10311000656C7400736C61636B20696E2074686504
:103120000052656D6F76696E6720616E79000000F0
:10313000456E676167696E67205368616674005405
:1031400075726E696E67204D6F746F72204F4E00FE
:10315000506C65617365207761697400002E2E2EB6
:1031600000436865636B696E670025753A253032E8
:10317000753A2530327500427265617468202325E6
:103180006C750028483A4D3A5329202025730000D9
:103190000053657373696F6E204475726174696F53
:1031A0006E00494E53504952452D31303000417424
:1031B0006D6F73706865726963204F323D256425B9
:1031C000250025646674206F722025646D00000060
:1031D000004C6F636174696F6E202620416C7469C6
:1031E000747564650028594553206F72204E4F292D
:1031F000203F00436F6E6669726D20746F206163BB
:1032000063657074006D617920626520746F6F2052
:1032100068696768005045455020706172616D654E
:103220007465720028594553206F72204E4F292033
:103230003F00436F6E6669726D20746F2061636337
:10324000657074006D617920626520746F6F20680D
:1032500069676800504D415820706172616D6574F6
:103260006572004E6F746564202859455329203FCC
:103270000042564D2C20427265617468696E672069
:10328000747562657300557073747265616D20505A
:103290007265737375726500436865636B20666F52
:1032A00072204C65616B616765287329004E6F74ED
:1032B0006564202859455329203F0042564D2C2053
:1032C000427265617468696E672074756265730027
:1032D000446F776E73747265616D2050726573739D
:1032E00075726500436865636B20666F72204C657C
:1032F000616B61676528732900446F6E65202859EA
:10330000455329203F00427265617468696E6720E9
:1033100043697263756974004F50454E206D617347
:103320006B206F70656E696E67206F66004469730D
:10333000636F6E6E6563742050617469656E7400AE
:103340004E6F74656420285945532900696E2042E8
:103350007265617468696E67204369726375697428
:1033600000526573696475616C2050726573737582
:103370007265004641494C45442062616361757342
:1033800065206F66004E6F74656420285945532987
:103390000043616C6C2053657276696365205465E7
:1033A000636800436865636B205072657373757260
:1033B00065207475626573004641494C4544202D73
:1033C000204E6F2070726573737572650025642ED0
:1033D0002564206C69747265732F6D696E0000003E
:1033E00054617267657420697320285252207820D6
:1033F00056542900505356204D696E7574652056F9
:103400006F6C756D65004E6F746564202859455367
:1034100029203F0050726576696F7573204272658E
:1034200061746800546F6F206C6F772064757269E7
:103430006E67005072657373757265537570706F47
:10344000727420466C6F770043616C6C2053657218
:1034500076696365205465636800436865636B2023
:1034600042564D2042616700696E207468652042B3
:10347000564D20426167004465666F726D617469E4
:103480006F6E20446574656374656400256C7520F7
:1034900050617469656E74005768696C6520696E67
:1034A00020434D56206D6F646500446574656374F8
:1034B0006564206275742049676E6F7265640049A7
:1034C0006E697469617465642062726561746873A1
:1034D0000000256C75204D616E6461746F72790017
:1034E000556E657870656374656421005768696C12
:1034F0006520696E20505356206D6F6465004272DE
:103500006561746873206973737565640000686130
:1035100076652063726F7373656420256C75004E49
:103520006F746564202859455329203F00506C650D
:10353000617365207265706C6163652042564D0051
:103540000042564D2023436F6D7072657373696F2F
:103550006E7300686176652063726F7373656420B3
:10356000256C7500776974682061206E6577206F1F
:103570006E6500506C65617365207265706C616387
:10358000652042564D000042564D2023436F6D701A
:1035900072657373696F6E73000042564D2023434A
:1035A0006F6D7072657373696F6E73000044617440
:1035B000652042564D20496E7374616C6C656400E1
:1035C000256C75204379636C6573004E6F74656478
:1035D000202859455329203F0043616C6C205365D6
:1035E000727669636520546563680000537973746B
:1035F000656D20536572766963652054696D650059
:10360000256C75204379636C65730000496E737097
:103610006972652D313030204C6F636174696F6E53
:1036200000746F2057692D4669204E6574776F725C
:103630006B00436F6E6E656374204C6170746F70C5
:103640002F50686F6E650000496E73706972652D4A
:103650003130302050617469656E7400746F20578A
:10366000692D4669204E6574776F726B00436F6EEB
:103670006E656374204C6170746F702F50686F6E4C
:10368000650025736B67202573636D002573202506
:10369000737972002573202573005B25735D0050DC
:1036A000617469656E7420496E666F002D3E202539
:1036B000642E256420286C2F6D696E2900436F6E7F
:1036C0006669726D20444F4E452028594553292084
:1036D0003F0000536574204F3220466C6F772028DE
:1036E0006C2F6D696E29004D696E75746520566F7B
:1036F0006C756D65204368616E676500252E3230FC
:103700007300252E3230730000000057692D466982
:1037100020436F6E6E656374696F6E006973207508
:103720006E64657267726F756E642E0054686569A9
:103730007220616D617A696E6720747261697400CC
:10374000756E757375616C2074726565732E0041BA
:103750007370656E7320617265207665727900639F
:1037600061727269656420627920616E696D616C55
:10377000732E007468652077696E64206F72206113
:103780007265007365656473207468617420666C8B
:1037900079206F6E005472656573206E65656420D4
:1037A000746F207370726561640063756C747572F8
:1037B000657320616C6C206F7665722E007965618F
:1037C00072732075736564206279206D616E790073
:1037D000666F7220666976652074686F7573616EB6
:1037E000640048617270732068617665206578694D
:1037F000737465640068656C707320676574206914
:10380000742075702E0069732066756E2E2041201D
:103810006C696768742077696E64006E6963652CF3
:1038200020666C79696E672061206B69746500574A
:1038300068656E20746865207765617468657220BC
:10384000697300746865726520697320736E6F77A1
:103850002E00616E7977686572652077686572659C
:10386000006F7574646F6F722070617374696D6539
:1038700000536B69696E67206973206120706F70F7
:10388000756C617200666F756E6420696E2052758A
:10389000737369612E0074686F7573616E6420794B
:1038A000656172732061676F2C00666F756E642CA2
:1038B0002064617465732065696768740054686585
:1038C000206F6C6465737420736B69206576657214
:1038D00000416E746172637469636120696365207D
:1038E00073686565740069732066726F7A656E200F
:1038F000696E20746865006672657368207761740C
:103900006572206F6E204561727468004E696E6545
:1039100074792070657263656E74206F66004175FE
:10392000746F205265636F766572696E67005379B4
:103930007374656D20697300004D6F746F7220465B
:1039400061756C74004578706563746564203E2011
:103950002575206D6C004D696E75746520566F6C11
:103960003D2575206D6C00436865636B2050617464
:1039700069656E740000004C6F77204D696E757438
:103980006520566F6C756D6500436865636B2044F8
:103990004953504C41590056432042726561746846
:1039A0002053657474696E67730054656D706F722F
:1039B0006172696C79206368616E6765640050723A
:1039C000657373757265206265796F6E6420504D02
:1039D000415800436865636B20504D415820736522
:1039E0007474696E670000647572696E6720505365
:1039F00020427265617468005072657373757265F8
:103A0000206265796F6E6420504D41580043616CAF
:103A10006C20536572766963652054656368004362
:103A20006865636B20427265617468696E672074B3
:103A300075626500436865636B2050617469656EEB
:103A400074204D61736B00544F54414C205072658B
:103A50007373757265204C6F737300436865636B95
:103A6000205072657373757265204C696E657300C2
:103A7000436865636B2050617469656E74204D61A5
:103A8000736B00436865636B2042564D204261674B
:103A900000536F6D65205072657373757265204CAD
:103AA00065616B0043616C6C205365727669636578
:103AB00020546563680041737069726174652050B9
:103AC000617469656E7400436865636B204272655A
:103AD000617468696E672074756265004169727708
:103AE000617920426C6F636B6167650025642064B7
:103AF0006567430043616C6C20536572766963654A
:103B000020546563680000746F6F206869676800FF
:103B10004D6F746F722054656D706572617475724B
:103B20006500256420646567430043616C6C205325
:103B300065727669636520546563680000746F6F11
:103B4000206C6F77004D6F746F722054656D7065D7
:103B5000726174757265006C656164696E6720746A
:103B60006F204552524F5200746865205379737428
:103B7000656D2073746174650050726573732050B5
:103B80004155534520746F2073686F77005B455231
:103B9000524F525D004272656174682023256C7536
:103BA00000506175736520496E7370697261746944
:103BB0006F6E0053686F727420507265737320507B
:103BC0004155534520746F0000427265617468204E
:103BD00044656C69766572790044796E616D6963DC
:103BE000203D20257500537461746963203D2025B4
:103BF000750044796E616D6963203D20554E4B4ED2
:103C00004F574E00537461746963203D20554E4BED
:103C10004E4F574E00286D6C2F636D48324F290070
:103C20004C756E672044656C746156202F20446586
:103C30006C746150004272656174682023256C7554
:103C400000000000494E53504952452D313030009C
:103C50004272656174682023256C75004573746930
:103C60006D617465642056543D2575000000004464
:103C7000656C69766572656420566F6C756D652834
:103C80006D6C29004272656174682023256C750093
:103C900053706F6E74616E656F75732042504D3D49
:103CA000253275004D616E6461746F7279204250E7
:103CB0004D3D2532750000000042726561746873E5
:103CC00020706572206D696E7574650053706F6E3B
:103CD00074616E656F75733D25752E2575004D6198
:103CE0006E6461746F72793D25752E257500546F71
:103CF00074616C3D25752E2575000000004D696EC0
:103D000075746520566F6C2E20286C2F6D696E2996
:103D1000004D454E55202D3E205374616E646279EE
:103D2000204D656E75006E6F7420726571756972D5
:103D30006564004F787967656E20496E666C6F77B1
:103D4000004F787967656E20496E666C6F77206DDD
:103D50007573740046694F32207365742061742056
:103D60002564252500526573756D6564204F706567
:103D7000726174696F6E00004D6F746F72204661DE
:103D8000756C74005265636F766572656420667247
:103D90006F6D00446973706C617965642050617265
:103DA000616D657465727300427265617468204468
:103DB000656C697665727920666F7200746F206237
:103DC0006567696E00507265737320535441525495
:103DD000005354415254202D3E205B4143544956D8
:103DE000455D004D454E55202D3E205374616E6457
:103DF0006279204D656E75004152524F5773202DE8
:103E00003E20506172616D6574657273005B53543E
:103E1000414E4442595D00696E2070726F67726551
:103E20007373005265636F6E6E65637420617474A2
:103E3000656D7074006973207374696C6C206C6FAD
:103E400073740057692D466920436F6E6E65637405
:103E5000696F6E004D454E55202D3E205374616EA6
:103E6000646279204D656E75006E6F7420726571A5
:103E70007569726564004F787967656E20496E6672
:103E80006C6F7700536574204F3220466C6F77203B
:103E90005261746520746F004D6179206E656564B0
:103EA0002064656372656173696E6700436865636A
:103EB0006B205450532073657474696E67004368B7
:103EC00065636B2070617469656E74206D61736BDE
:103ED0000050726573737572652066656C6C207432
:103EE0006F20300042726561746820666F722061D5
:103EF000207768696C65004D697373696E6720533C
:103F0000706F6E74616E656F757300427265617477
:103F10006820696E20505356206D6F6465004465BB
:103F20006C697665726564204D616E6461746F7250
:103F30007900757020746F20257320636D204832DE
:103F40004F006F7220504545502073657474696E40
:103F5000670041646A75737420504545502076614E
:103F60006C76650000504545502064656C74612096
:103F70004F6273657276656400746F206368656371
:103F80006B2073797374656D0043616C6C205365AD
:103F9000727669636520546563680067726F737336
:103FA0006C7920696E616363757261746500546930
:103FB00064616C20566F6C756D65004368616E6757
:103FC000652053657474696E67730042564D2042D4
:103FD000616720746F6F20736D616C6C0073657422
:103FE00020546964616C20566F6C756D6500556E68
:103FF00061626C6520746F2064656C69766572001F
:10400000436865636B20696D6D6564696174656C97
:104010007900636F756768696E67206869636375A7
:104020007070696E670050617469656E74206D69A7
:104030006768742062650041626E6F726D616C200A
:1040400042726561746800594553202D3E20436FCC
:104050006D6D6974004368616E676520504152411F
:104060004D45544552530028594553206F72204EF8
:104070004F29203F00436F6E6669726D20746F2078
:10408000616363657074006D617920626520746F8F
:104090006F2065787472656D650056542C52522CF1
:1040A000454920636F6D62696E6174696F6E0028A7
:1040B000594553206F72204E4F29203F00436F6EA9
:1040C0006669726D20746F20616363657074006D42
:1040D000617920626520746F6F2065787472656DF8
:1040E000650050532C54505320636F6D62696E61AC
:1040F00074696F6E0028594553206F72204E4F2906
:10410000203F00436F6E6669726D20746F2061639B
:104110006365707400636C6F736520746F20504525
:1041200045500050532073657474696E6720746F36
:104130006F004E4F202D3E2043616E63656C005929
:104140004553202D3E20436F6D6D697400436F6EA3
:104150006669726D20746F20434F4D4D4954005075
:104160004152414D4554455253206368616E676525
:1041700064004E6F746564202859455329203F0020
:10418000547279696E6720746F205265636F6E6E2A
:104190006563740044524F505045440057692D46A2
:1041A0006920436F6E6E656374696F6E0043616C66
:1041B0006C205365727669636520546563680000FE
:1041C000435243204661696C7572650054656D7099
:1041D000657261747572652053656E736F720053FA
:1041E000544F5020666F6F6C696E672061726F75F7
:1041F0006E64210021212049474E4F524544202121
:1042000021005072657373656420746F676574680C
:104210006572004D756C7469706C652042757474BC
:104220006F6E73005B256C752C256C755D007C20B2
:104230004040402057692D4669205245434F4E4E1D
:104240004543544544007C204040402057692D465A
:10425000692044524F50504544007C202A2A2A208D
:104260005265636569766564205345524B45595FD5
:10427000574946495F5245434F4E4E454354454486
:10428000203D007C202A2A2A2052656365697665D4
:1042900064205345524B45595F574946495F445244
:1042A0004F50504544203D005B25642C25642C254F
:1042B000642C25642C256C752C25645D005B2564BD
:1042C0002C25642C25642C25645D002A2A2A2A2AA0
:1042D0002A2A2A2A2A2A2A2A2A2A2A2A2A2A2A2048
:1042E0005355415254206F766572666C6F77206625
:1042F0006F72206D7367547970653D007C202323B5
:10430000232041726475696E6F2052657365742D48
:10431000696E67204E6F64654D63750053657373F6
:10432000696F6E2054696D6572204F66667365749F
:1043300020536563733A0053657373696F6E20543D
:10434000696D657220496E69743A00436F6E6669E3
:10435000726D2028594553206F72204E4F293F001F
:10436000456C73652077696C6C2062652069676EA7
:104370006F72656400436F6E6669726D2077697451
:1043800068696E203673656373003C3C2052455368
:104390004554204445544543544544203E3E007C0A
:1043A00020212121205374617274696E6720524567
:1043B00053455420636F6E6669726D6174696F6EE8
:1043C0002054696D657200436F6E6669726D2028B6
:1043D000594553206F72204E4F293F00456C73653D
:1043E0002077696C6C2062652069676E6F72656406
:1043F00000436F6E6669726D2077697468696E201C
:104400003673656373003C3C20464143544F525918
:10441000205245534554203E3E007C20212121203E
:104420005374617274696E6720464143544F525908
:1044300020524553455420636F6E6669726D6174F6
:10444000696F6E2054696D6572007C2021212120E6
:104450004E6F7720464143544F52592052455345A1
:1044600054696E670053746F7070696E67205245AF
:1044700053455420636F6E6669726D6174696F6E27
:104480002054696D6572202D2054696D656F7574B7
:104490000053746F7070696E6720464143544F52E9
:1044A0005920524553455420636F6E6669726D61A1
:1044B00074696F6E2054696D6572202D2054696D8A
:1044C000656F7574002064656720430021212121F8
:1044D0002121212020434F4C4420434F4C44204372
:1044E0004F4C44202E2E2E20002064656720430070
:1044F000212121212121212020484F5420484F549F
:1045000020484F54202E2E2E20007C2023232320B1
:1045100056542052616D7020646F6E653A2042726D
:1045200065617468436865636B6572205265736585
:1045300074202D2041646A7573746564204D415860
:104540002044656C74612053746570733D00207263
:10455000616D704D696E733D007C202323232043E1
:10456000616C63756C617465496E697469616C54E2
:104570006974726174696F6E53746570733D002065
:104580006E65787453746570733D00206E65787441
:1045900042766D6C3D00207072657642766D6C3DA2
:1045A000002064656C746142766D6C3D0020707211
:1045B000657653746570733D007C2023232320545B
:1045C0006974726174696E67205654207674446908
:1045D00066663D007C202323232054697472617435
:1045E000696F6E204641494C4544206265636175A0
:1045F00073652072656163686564206D61785374CA
:10460000657073007C2023232320546974726174C5
:10461000696F6E204F5343494C4C4154494F4E20D3
:104620006465746563746564007C202323232054CF
:104630006974726174696F6E2064656C74614C6931
:104640006D69743D007C20232323205469747261BA
:1046500074696F6E2064656C74614C696D69743D3A
:10466000007C2023232320546974726174696F6E67
:104670002046696E6574756E65206E657874537436
:104680006570733D007C20232323205654205469F9
:1046900074726174696F6E204E656564656420761E
:1046A00074446966663D007C20232323205469748A
:1046B000726174696F6E20535441424C45007C20F6
:1046C00040404020466C6F772053656E736F7220B8
:1046D000416D6269656E742054656D7020284B29A8
:1046E000203D20007C2040404020466C6F772053C6
:1046F000656E736F7220416D6269656E74204174DE
:104700006D2028506129203D20007C204040402021
:10471000466C6F772053656E736F72205A65726FA7
:1047200020466C6F7720566F757420286D7658314F
:104730003029203D20007C2040404020466C6F778F
:104740002053656E736F7220537570706C792056AC
:104750006F6C7461676520286D7629203D200025E7
:1047600064206D56583130000000005A65726F4663
:104770006C6F772043616C6962726174696F6E005F
:104780002564206D696C6C69766F6C747300436F7F
:104790006E6669726D2028594553206F72204E4F06
:1047A00029203F0000537570706C7920566F6C742F
:1047B0006167650053657420466C6F772053656EA2
:1047C000736F7200446F6E65202859455329203F4E
:1047D0000000537570706C7920566F6C746167655A
:1047E00020286D762900456E74657220466C6F77BF
:1047F0002053656E736F7200446F6E6520285945B3
:104800005329203F0000557365204145494F577398
:10481000206F72204B4E4F42005365742050535608
:10482000204261636B757020454900446F6E6520BE
:104830002859455329203F000055736520415252A5
:104840004F5773206F72204B4E4F420053657420B8
:10485000505356204261636B757020525200446F72
:104860006E65202859455329203F00005573652067
:104870004152524F5773206F72204B4E4F4200539C
:10488000657420505356204261636B7570205654F6
:1048900000446F6E65202859455329203F0000557C
:1048A0007365204152524F5773206F72204B4E4F09
:1048B0004200536574205053562049646C6520545F
:1048C0007269676765720041636365707420285977
:1048D0004553206F72204E4F29203F000000505357
:1048E00056204261636B7570204272656174680086
:1048F00056543D25642052523D25642045493D25AE
:10490000640049646C65205472696767657220258C
:10491000647365637300206D6D48324F00204465F9
:10492000706C6F796D656E743A2000206D6D483241
:104930004F2C002043616C6962726174696F6E3A3A
:1049400020007C20232323205072657373757265C9
:10495000733A000000004004091640B70C36406A64
:104960001056401E147640D1179640841BB640382E
:104970001FD640EB22F6409E261641522A364105AC
:104980002E5641B93176416C3596411F39B641D327
:104990003CD6418640F64139441642ED473642A0A6
:1049A0004B5642000000409E0814405F0C354020EA
:1049B000105540E1137640A1179640621BB7402383
:1049C0001FD740E422F840A4261841652A39412621
:1049D0002E5941E7317A41A8359A416839BB4129BE
:1049E0003DDB41EA40FC41AB441C426C483D422C5B
:1049F0004C5D420000004039081340080C3440D69A
:104A00000F5540A413764072179740401BB8400FD3
:104A10001FD940DD22FA40AB261B41792A3C414890
:104A20002E5D4116327E41E4359F41B239C041804E
:104A30003DE1414F4102421D452342EB484442B90A
:104A40004C65420000004095081440450C3440F489
:104A50000F5440A413744053179440021BB440B247
:104A60001ED4406222F44011261441C12934417001
:104A70002D544120317441CF3494417F38B4412EBC
:104A80003CD441DE3FF4418D4314423D473442EC77
:104A90004A544200000040F1081640820C35401391
:104AA000105440A413734035179240C51AB14056B4
:104AB0001ED040E721EF4078250E4109292D41996C
:104AC0002C4C412A306B41BB338A414C37A941DD24
:104AD0003AC8416D3EE741FE4106428F45254220DE
:104AE000494442000000406D091940EE0C38406F07
:104AF000105740F013764071179540F21AB4407386
:104B00001ED340F421F24076251141F72830417838
:104B10002C4F41F92F6E417A338D41FB36AC417CED
:104B20003ACB41FD3DEA417E410942FF44284281A2
:104B300048474200000040E9091C405A0D3B40CC68
:104B4000105A403D147940AE179840201BB7409151
:104B50001ED6400222F54074251441E52833415702
:104B60002C5241C82F714139339041AB36AF411CB3
:104B70003ACE418D3DED41FF400C4270442B42E264
:104B8000474A420000004092091C40080D3A407F0D
:104B9000105940F51377406B179640E11AB440570F
:104BA0001ED340CD21F14044251041BA282E41307A
:104BB0002C4D41A62F6B411C338A419336A84109E5
:104BC0003AC7417F3DE541F64004426C442242E24F
:104BD000474142000000403C091C40B70C3A4032BB
:104BE000105840AD13764028179440A31AB2401EC7
:104BF0001ED0409921EE4014250C418F282A410AED
:104C00002C4841852F6641003384417B36A241F612
:104C100039C041723DDE41ED40FC4168441A42E337
:104C20004738420000004062091B409C0C3740D6C8
:104C30000F5440111370404B168D408519A940BF89
:104C40001CC640F91FE2403323FF406E261B41A8DB
:104C5000293841E22C54411C30714156338D419129
:104C600036AA41CB39C641053DE3414040FF417A78
:104C7000431C420000004089091A40820C35407BE9
:104C80000F504075126B406E1586406718A1406149
:104C90001BBC405A1ED7405321F2404D240D4146C3
:104CA0002728413F2A4341392D5E41323079412C3A
:104CB0003394412536AF411E39CA41183CE54111B4
:104CC0003F00420000004096091A407C0C344063CB
:104CD0000F4F404A1269403015844017189E40FE1D
:104CE0001AB940E51DD340CB20EE40B223084199CC
:104CF0002623417F293D41672C58414D2F72413475
:104D0000328D411B35A7410138C241E93ADC41CF20
:104D10003DF74130835B1F0B83C7243E83252BB1B6
:104D2000737C32F6633A392A6468407464C048B4CC
:104D3000544D51C1440258B662EF1BEB62702242DF
:104D400063542977533830DF53F6380644BE3E604B
:104D5000345E48BA34CB4FC93433558142EE1BE53B
:104D600042A1231333022A513392309F239B37D918
:104D700023BE3F2C24604689242C4D8C24EF5324E1
:104D800083B51E188397243E83AC2AAC736532EB3F
:104D900063D63821641C4069643E48AD54A950BDB7
:104DA000445F57B5620D1CE8627D22366358297353
:104DB000535A30D653B0380044933E53348B47B8DF
:104DC00034204FBF348E547C42A71BD84232230A72
:104DD00033BD294A3331309C238137DB23893F306F
:104DE000245D4688243D4D8624095419730F1E26E0
:104DF0007368243F63332AA8634F32E16372381823
:104E000054D03F5F44BD47A7440550B934BD56B5A3
:104E1000522B1CE6528B222B535D296F437D30CDE4
:104E2000336B38FA33683E4634B846B724754EB50E
:104E300024EA537732601BCC32C4220133782943F1
:104E400023D02F99236837DD23553F34245A4687D2
:104E5000244E4D812424540E73691D337338243F2E
:104E600063BA29A3633932D7630E380F54843F5590
:104E7000443C47A044614FB5341B56B452491CE42E
:104E80005299221F5361296B439F30C4332638F453
:104E9000333D3E3934E545B524CA4DAB2446537203
:104EA00032191BC0325622F83233293C236F2F9619
:104EB000234E37DF23213F3824574686245F4D7C1D
:104EC000243F540363C31C41630924406342299F68
:104ED000532332CD43AB370744383F4B44BB469A4C
:104EE00034BE4EB2347955B442681CE242A7221453
:104EF0003366296733C230BC33E137EF23133E2DCD
:104F0000241245B424204DA124A2526D32D31AB4E8
:104F100032E821F032EE2835230E2F94233537E185
:104F200023ED3E3C2455468524704D77245A54F396
:104F300062941C3363D423426381299C53FF31CE96
:104F400043AD370844253F5244E046A0346D4EAF90
:104F5000342155A6424C1CD542552212332C2964CB
:104F6000335F30BA338937EF23153E2F244045B6DF
:104F7000243A4DA4240A536732D41AB132B221F430
:104F800032FE2837233B2F91230637E323F33E4C91
:104F9000248D468424964D7F24CB54E452661C25F0
:104FA00053A0234553C1299A43DB31CF43B037097E
:104FB00034123F59240647A6241D4EAD24C95499E6
:104FC00032301CC93203221033F3286223FC2FB87D
:104FD000233237EF23183E32246E45B924554DA7AE
:104FE0002473536232D51AAE327C21F9220E293A4B
:104FF00023692F8E23D736E623F93E5C24C64683E9
:1050000024BD4D88243C55D552371C17536B23487B
:1050100053012A9743B731D043B2370A34FF3E6079
:10502000242C47AC24CC4DAA2471548B32141CBCC4
:1050300032B1210E33BA286023992FB623DB36EF25
:10504000231A3E34249C45BC24704DAA24DB535DB6
:1050500032D61AAB324621FE221E293D23972F8BD2
:1050600023A836E923FF3E6C24FF468224E44D90BA
:1050700024AD55C652091C095337234B43412A9589
:10508000439331D133B5370C34ED3E67345247B2D8
:10509000247C4DA8241A547E32F81BB03260210CB7
:1050A0003381285E23362FB5238436F0231D3E3707
:1050B00024CB45BF248B4DAD2444545822D81AA884
:1050C00022112103232F294023C52F88237A36EC70
:1050D00023053F7D24384781240B4E99241E56C456
:1050E00052891C035366234643532A8C436331CDB4
:1050F00033B7370D34153F70342247AD24354DA7F3
:105100002434547932F61BB432DE210A33B5285DDB
:10511000237D2FB323F136ED23333E3424A945B04C
:1051200024E94DAD24BD545C22061BAA224B210369
:105130002350294123F72F8C23DB36E723233F78A5
:105140002436488724A04E97244156C342091DFDAA
:105150004296234133662A84333431C923B9370E4A
:10516000243D3F7924F346A924EE4CA6244E5474E2
:1051700032F41BB9325C220933E9285C23C52FB213
:10518000235F37EA23493E31248745A224474EADA9
:105190002436556122351BAD228621042372294213
:1051A000232A3091233C37E323423F732434498D33
:1051B00024364F96246556C142891DF742C6233CCA
:1051C00033792A7C330531C523BB370F24653F82F1
:1051D00024C346A424A74CA52468546F32F21BBEF6
:1051E00032DA2208331D295B230D30B123CD37E796
:1051F000235F3E2E2465459424A54EAD24AF55660D
:1052000022631BAF22C1210423932943235C3095E1
:10521000239D37DF23613F6E24324A9324CB4F9581
:10522000248956C0420A1EF242F62338338C2A746F
:1052300033D630C223BD3711248E3F8C249446A030
:1052400024604CA42483546B32F01BC332592307CF
:105250002352295A235530B0233B38E523763E2B81
:105260002444458624044FAD2428566B22921BB259
:1052700022FC210523B52944238F309A23FE37DBF6
:1052800023803F6A24304B9A2461509424AD56BE4B
:1052900042E41DF242D42334336F2A7733CE30C830
:1052A00023C2371E24BC3F9924CF46A724054DAB0B
:1052B00024BB546B32DB1BC2322E230623692959CF
:1052C000235330B0232738EE23C03E4B24CE4588ED
:1052D00024A74EA824F8556E22CA1BB5224B2208DB
:1052E00023F8294E231731A623ED38ED2397407A72
:1052F00024F54AB8244F50B924AE54BC32BF1DF235
:1053000032B3233123522A7A23C630CE23C8372C16
:1053100024EB3FA6240B47AE24AB4DB324F3546CCF
:1053200022C71BC22203230623802959235230B0EF
:10533000231438F7230A3F6B2459468A244A4EA384
:1053400024C8557122031CB9229B220B233B2A59E6
:10535000239F31B323DD390024AE418A24BA4AD6D3
:10536000243E50DE24B052BA32991DF23291232DE0
:1053700023352A7D23BE30D423CD373A241A40B3B7
:10538000244647B524504EBA242B556D22B31BC278
:1053900022D8220523972958235130B02301380001
:1053A00024543F8B24E4468C24ED4D9E2498557460
:1053B000223B1CBD22EA220E237E2A64232732BF11
:1053C00023CC3A1324C5429A247F4AF4242D500357
:1053D00025B150B832741DF23270232A33192A8154
:1053E00023B630DA23D33748244940C0248247BC4F
:1053F00024F64EC22464556E229F1BC222AD2205A4
:1054000023AE2958235030B023EE370A249F3FABF8
:10541000246F478F24904D992468557722741CC1BE
:10542000223A231123C12A6F23B032CC23BC3B265E
:1054300024DC43AA24444A12251C502925B34EAE2D
:1054400032061DE83214232C33302A8323AB30E19B
:10545000230A385D245440BE245A47BA248D4EBBDB
:105460002422556C22831BBF228C22042369295ECF
:10547000238330B52300380924A03FAD2482479010
:1054800024774DA6243A5578226B1CC0222923107C
:1054900023CC2A6F23C332BC238A392D24DF42BB9D
:1054A00024384AF6246A4BE5241D4AA532981CDEAE
:1054B00032B9222F33482A8623A030E8234238739A
:1054C000246040BD243347B924254EB524E1546BF4
:1054D00022671BBC226C22042325296523B630BB1E
:1054E0002313380924A13FB024954791245F4DB47C
:1054F000240D557922631CBF2218231023D72A704C
:1055000023D732AC2358373424E241CC242C4ADB55
:1055100024B846A22488459C322A1CD4325E22310B
:10552000335F2A89239530EF23793888246B40BC78
:10553000240C47B824BC4DAE24A05469224B1BB99F
:10554000224B220323E0286B23E930C123263809AC
:1055500024A23FB324A8479224464DC124E0547AA4
:10556000225A1CBE2207231023E22A7023EA329C0F
:105570002326353B24E540DD24204AC02406425E34
:1055800024F2409332BD1BCB3203223433772A8C72
:10559000238B30F723B1389E247740BB24E546B7F0
:1055A00024544DA8245F5468222F1BB7222B2203BA
:1055B000239C2872231D31C72339380924A43FB600
:1055C00024BC4793242E4DCF24B3547B22521CBDC0
:1055D00022F6221023ED2A7123FE328D23F5324369
:1055E00024E83FEE24154AA524543D1B245D3C0FBE
:1055F00083881E3983A1257473962CD07394341A32
:1056000064403C5064B642C664044EE6544E56F0C4
:10561000446D5D90623C1AC462AC201D53EC276F50
:1056200053512FD05389370D44393EAD34D74AC436
:1056300034BC51C934405770428E1AC8420C2213F0
:1056400043D9286333F72FB73335370024A93F4BAD
:10565000243F469824644DD524F6540C833B1E3ECB
:105660008374257273422CCC73473415648F3B4787
:10567000643942A864764CC7547E54C344B85A9ED9
:1056800062121BD76291212C53CA2882533230ED0B
:105690005313382044B83E99348949BA348C50BEEB
:1056A0003477567242A21ACA422A22164303296547
:1056B00033F92FB93357370224A03F51249946A715
:1056C00024F54DCF2452550973EE1D4373482571BF
:1056D00063ED2BCA63FB331164DF3A3F54BC418B4B
:1056E00054E84AA844AE5295340358AD52E81BEA38
:1056F0005277223C53A929954313310A349F3832FB
:1057000034373F85343B48B2245C4FB424AF5574E2
:1057100032B71ACD32492219332D296823FB2FBC09
:10572000237A370424983F5624F446B524864EC97C
:1057300024AE550673A11D47731B257063992BC6B4
:1057400063AF330D642E3A36543F416E545B498942
:1057500044DD5068344E55BB52BE1CFE525D234B97
:1057600053872AA843F33127342A394534B63F7189
:1057700034ED46A9242B4EAA24E7547732CC1AD014
:105780003268221C3357296B23FC2FBE239C37051C
:10579000248F3F5C244E47C424164FC3240A56036B
:1057A00063541D4D63EF246F63452BC4536333096A
:1057B000447E392E44C2405144CD476B340E4F3B9A
:1057C000349952CA42951D114343245A33652BBB69
:1057D00033D4324534B539582436405D249F45A032
:1057E00024FC4CA0241F547932E11AD332872220A2
:1057F0002381296E23FE2FC223BF370724873F61F1
:1058000024A947D224A74FBD246656F9627D1D44C2
:1058100063EF247063782BC4536333FE43603932E3
:1058200044BD405844E9477534014F50345853C281
:10583000427E1D0B4308245833342BB2336C32376D
:105840003433395424E23F5F24BB45A224184DA1D0
:10585000243C547C32181BD53268222623782971C7
:10586000231D30C023B43712248E3F6F245F47C6F8
:10587000240D4FBB243556F052A61D3C53EF247126
:1058800053AC2BC5436433F44342393734B84060DA
:105890002406488024F44E66241854BB32661D0545
:1058A00033CE235533032BA92303322924B1385097
:1058B000248E3F6124D745A524354DA2245A547F18
:1058C000324F1BD83249222C23702975233D30BE1C
:1058D00023A9371E24953F7C241547B924734EBA5B
:1058E000240456E752CF1D3453EE247353E02BC6E5
:1058F000436433EA4324393C34B340682422488B60
:1059000024E74E7B24D754B3324F1DFF32932353E9
:1059100033D32AA0239B311B2430384B243A3F62D7
:1059200024F245A724524DA32478548232861BDAF0
:10593000322A223223672979235C30BC239D372900
:10594000249C3F8A24CB46AD24D94DB924D355DEBF
:1059500052F91D2C53EE247453142CC7436533E0C5
:105960003307394234AF4070343F489624DB4E91C0
:10597000249755AC32381DF9325A235033A22A9855
:105980002332310D24AE374824E73E64240F46AA63
:1059900024704DA52496548522BD1BDD220B223890
:1059A0002360297E237C30BA2393373524A33F9884
:1059B000248146A1243F4DB824A255D252D21D1CA9
:1059C00053A4246753CE2BB7430D33E23309394632
:1059D000348C40763411489624994E92248155A6F1
:1059E00032261DF73283234A338C2A9C23433111FC
:1059F0002415384A24563F67247546A424054EA72B
:105A0000242F558922CA1BE02227223A2381297B91
:105A1000239030C023D1373B24AE3F97243347A592
:105A200024EC4DB324E455C642AB1D0C435A245A12
:105A300033892BA733B532E5230B394B2469407CDE
:105A400024E4479824564E93246C55A032141DF636
:105A500032AD234423762AA123543115247C384CBB
:105A600024C63F6B24DB469F249A4EA924C9558F38
:105A700022D71BE32243223D23A3297923A430C745
:105A80002310384224B93F9624E547A924994EAF04
:105A9000242656BA42841DFC4211244D33442B97D0
:105AA000335E32E7230D394F2446408224B64798AF
:105AB00024144E942456559A32031DF532D6233EB3
:105AC00023602AA62365311924E4384E2435406E1C
:105AD0002442479924304FAB2462569422E41BE6BB
