:100000000C940B6B0D94391E0D940E1E0D94E31D74
:100010000D94B81D0D948D1D0D94621D0D94371D0A
:100020000D940C1D0D948F1E0D948F1E0D948F1E1C
:100030000C943C6B0C943C6B0C943C6B0C943C6BA4
:100040000C943C6B0C943C6B0C943C6B0C943C6B94
:100050000C943C6B0C943C6B0C943C6B0D94C21C4C
:100060000C943C6B0D94A01A0D94761A0C943C6B76
:100070000C943C6B0C943C6B0C943C6B0C943C6B64
:100080000C943C6B0C943C6B0C943C6B0D94641E78
:100090000C943C6B0C943C6B0C943C6B0D94A12029
:1000A0000C943C6B0C943C6B0C943C6B0C943C6B34
:1000B0000C943C6B0D94B51F0C943C6B0C943C6BF6
:1000C0000C943C6B0C943C6B0C943C6B0C943C6B14
:1000D0000C943C6B0C943C6B0C943C6B0C943C6B04
:1000E0000C943C6B0D94F4100C9408700C94B99B18
:1000F0000D9410540C9466DA0D9426150D94AB698A
:100100000D94BE300C94BB8F0D9400570D94496034
:100110000C94BF9B0D9408120C9417700C94848E51
:100120000D9429170D94F6110D94AA580C94D19B97
:100130000D9488300C9450BA0C94878F0C9424BA88
:100140000D9493300D9404120C94B38E0D94AE69FB
:100150000D9492140D9440120C945AA20D9442697D
:100160000D9431120D949B690D948B300D943813BE
:100170000D94EA1B0C943BBA0C9417910D9498586B
:100180000C947BB90D94266A0C9403B90C94D78E09
:100190000C94DCB90C944C990C94A78F0D941257C5
:1001A0000C94678F0D9406570C941C700D94B83006
:1001B0000D94A4100D9437480D942D120C945ADA16
:1001C0000D943F480C9436A20D94041C0C943BDA19
:1001D0000D94E0100C9442A20D94CA690C94CDBA0F
:1001E0000D94E01B0D9402110D94A1690C94DB8F0A
:1001F0000D9415120D94216A0D94B4690C946390BA
:100200000D94D1100C94728E0D94B6120D940012B0
:100210000D943B120C9460DA0D94AF130D949B581F
:100220000D943B1C0D946C130C9473BA0C94DDBAB2
:100230000C9421700D940E1C0D94176A0D94C469D2
:100240000D9425130C941FB90D9437120D94C71BF0
:100250000D94B8230C941CBA0D94C1300D94161350
:100260000C9457950D94A7580D94CC120D94CC1B5B
:100270000C94ACB90C94C7990C943CA40D945D15E6
:100280000C94E9B90C9413BA0D94FC110C9483D816
:100290000D94116A0C94FD6F0C94CB9B0D94CD6959
:1002A0000D9429120D94F3560C94D7BA0D94FD5663
:1002B0000C9414930C94479B0D94AB670C9411B958
:1002C0000C9485B90C941B900C9466BA0C94BC9257
:1002D0000D94C7690D94BC130D9436120D946E30B5
:1002E0000C94478F0C94E59A0D94C0130C94FCB8B1
:1002F0000C946C920C94F8BA0D94D61B0C940AB919
:100300000D9423120C9443BA0D9415570D94A458D0
:100310000D945A120D94B7580D943A110C94127012
:100320000C945DBA0D9496300C940D700C94A2B997
:100330000C9403700D9458220C9426B90C9485A348
:100340000D94311C0C9451A20D940C570D94D6555C
:100350000D949B130C94AF8E0C9426A20C94888E53
:100360000D94B1690C9459B90D94271C0D94411248
:100370000D9479250C94B78E0D941B120C94009853
:100380000D94146A0C9448A20C9430A20D94451C50
:100390000D9452480D943F130C9443900C94C59BBC
:1003A0000D94591C0D94B8480C9423810D94151389
:1003B0000D94B0540C940D9B0D9403570D94F21BA7
:1003C0000D9491230C9483900D94B3670D94BD13F9
:1003D0000C94C2920C9423900D948E300C9463DA9A
:1003E0000C9497970D9440140D94FA1B0C94EABA50
:1003F0000C941F900C942BA20D949F580C941C925B
:100400000D944F1C0D942F480D94D0690D940E6AD5
:100410000D943F120D940B120C9444920C94C4B999
:100420000D94BF1B0C9489980C94E3BA0D94181C7E
:100430000D94BE670C9418B90C945DDA0D94925823
:100440000D941A6A0D940D150D941F120D948711B9
:100450000C9457DA0C9426700C9427D80C94AA911B
:100460000C94F1BA0C94B39B0C94FB8F0D94EE1486
:100470000D94B7690D9409570D9459120D941112EA
:100480000D941D560D949D690D9495580D94FF760D
:100490000C94D0B80C94419B0C943CA20D94141372
:1004A0000D940F570D94BB300C948BA30D945514E1
:1004B0000D945C550D941E6A0C9494927C203E3EE3
:1004C0003E20466C6F7720436F6E74726F6C2050C5
:1004D000532074696D6564206F7574007C20007C06
:1004E00020007C2053656C667465737420466169D6
:1004F0006C65642050696E206E756D6265722000B7
:100500007C20232323204661696C6564204D6F7431
:100510006F72205245534554000000456E67616775
:10052000696E67205368616674005475726E696EF7
:1005300067204D6F746F72204F4E007C2023232361
:100540002044697361626C696E6720616E64204546
:100550006E61626C696E67206D6F746F720000006F
:10056000446973656E676167696E67205368616689
:1005700074005475726E696E67204D6F746F7220CF
:100580004F4646007C2023232320417070726F78F1
:10059000696D6174652042564D2043656E747261C9
:1005A0006C2044696120286D6D29203D20007C204D
:1005B000232323204D617820436F6D707265737320
:1005C000696F6E20537465707320647572696E670D
:1005D0002062726561746873203D20007C202323B3
:1005E00023204D617820436F6D7072657373696F5E
:1005F0006E2053746570732066726F6D20546F7532
:10060000636820706F736974696F6E203D20007C91
:1006100020232323204241442042564D2043656E2F
:100620007472616C2044696120286D6D29203D2021
:10063000007C2023232320424144204175746F20F5
:10064000546F756368205374657073203D20007C7F
:100650002023232320414D425520697320424947DE
:100660003A206175746F546F756368537465707365
:100670002073657420746F203020696E7374656117
:1006800064206F66007C20232323204D656469610C
:100690006E204175746F20467265657A65205374CB
:1006A000657073203D200029203D20007C202323FD
:1006B00023204175746F20467265657A65205374F6
:1006C0006570732028697465726174696F6E2000AB
:1006D0007C2023232320436F6D7072657373696ED2
:1006E0006720746F2066696E64207072657373751D
:1006F000726520647572696E67206175746F20740D
:100700006F756368206F7065726174696F6E000049
:1007100000496E2050726F677265737300506C6190
:10072000746520506F736974696F6E696E670043FA
:100730006865636B20232564005354455053203D66
:1007400020256400002E2E2E00506F736974696F8F
:100750006E696E6720506C6174657300007C202A9E
:100760002A2A205265646F696E6720544F554348AA
:1007700020706F736974696F6E007C2023232320BF
:10078000507265737375726520666F756E64206153
:1007900074205374657073203D20007C2023232334
:1007A00020436F6D7072657373696E6720746F207C
:1007B00066696E6420707265737375726520647506
:1007C00072696E672062656C7420666978206F704C
:1007D00065726174696F6E00004D6F746F722042B4
:1007E000656C7400736C61636B20696E207468655E
:1007F0000052656D6F76696E6720616E790000004A
:10080000456E676167696E6720536861667400545E
:1008100075726E696E67204D6F746F72204F4E0057
:10082000506C65617365207761697400002E2E2E0F
:1008300000436865636B696E670025753A25303241
:10084000753A25303275004272656174682023253F
:100850006C750028483A4D3A532920202573000032
:100860000053657373696F6E204475726174696FAC
:100870006E00494E53504952452D3130300041747D
:100880006D6F73706865726963204F323D25642512
:10089000250025646674206F722025646D000000B9
:1008A000004C6F636174696F6E202620416C74691F
:1008B000747564650028594553206F72204E4F2986
:1008C000203F00436F6E6669726D20746F20616314
:1008D00063657074006D617920626520746F6F20AC
:1008E00068696768005045455020706172616D65A8
:1008F0007465720028594553206F72204E4F29208D
:100900003F00436F6E6669726D20746F2061636390
:10091000657074006D617920626520746F6F206866
:1009200069676800504D415820706172616D65744F
:100930006572004E6F746564202859455329203F25
:100940000042564D2C20427265617468696E6720C2
:10095000747562657300557073747265616D2050B3
:100960007265737375726500436865636B20666FAB
:1009700072204C65616B616765287329004E6F7446
:100980006564202859455329203F0042564D2C20AC
:10099000427265617468696E672074756265730080
:1009A000446F776E73747265616D205072657373F6
:1009B00075726500436865636B20666F72204C65D5
:1009C000616B61676528732900446F6E6520285943
:1009D000455329203F00427265617468696E672043
:1009E00043697263756974004F50454E206D6173A1
:1009F0006B206F70656E696E67206F660044697367
:100A0000636F6E6E6563742050617469656E740007
:100A10004E6F74656420285945532900696E204241
:100A20007265617468696E67204369726375697481
:100A300000526573696475616C20507265737375DB
:100A40007265004641494C4544206261636175739B
:100A500065206F66004E6F746564202859455329E0
:100A60000043616C6C205365727669636520546540
:100A7000636800436865636B2050726573737572B9
:100A800065207475626573004641494C4544202DCC
:100A9000204E6F2070726573737572650025642E29
:100AA0002564206C69747265732F6D696E00000097
:100AB000546172676574206973202852522078202F
:100AC00056542900505356204D696E757465205652
:100AD0006F6C756D65004E6F7465642028594553C1
:100AE00029203F0050726576696F757320427265E8
:100AF00061746800546F6F206C6F77206475726941
:100B00006E67005072657373757265537570706FA0
:100B1000727420466C6F770043616C6C2053657271
:100B200076696365205465636800436865636B207C
:100B300042564D2042616700696E2074686520420C
:100B4000564D20426167004465666F726D6174693D
:100B50006F6E20446574656374656400256C752050
:100B600050617469656E74005768696C6520696EC0
:100B700020434D56206D6F64650044657465637451
:100B80006564206275742049676E6F726564004900
:100B90006E697469617465642062726561746873FA
:100BA0000000256C75204D616E6461746F72790070
:100BB000556E657870656374656421005768696C6B
:100BC0006520696E20505356206D6F646500427237
:100BD000656174687320697373756564000068618A
:100BE00076652063726F7373656420256C75004EA3
:100BF0006F746564202859455329203F00506C6567
:100C0000617365207265706C6163652042564D00AA
:100C10000042564D2023436F6D7072657373696F88
:100C20006E7300686176652063726F73736564200C
:100C3000256C7500776974682061206E6577206F78
:100C40006E6500506C65617365207265706C6163E0
:100C5000652042564D000042564D2023436F6D7073
:100C600072657373696F6E73000042564D202343A3
:100C70006F6D7072657373696F6E73000044617499
:100C8000652042564D20496E7374616C6C6564003A
:100C9000256C75204379636C6573004E6F746564D1
:100CA000202859455329203F0043616C6C2053652F
:100CB00072766963652054656368000053797374C4
:100CC000656D20536572766963652054696D6500B2
:100CD000256C75204379636C65730000496E7370F1
:100CE0006972652D313030204C6F636174696F6EAD
:100CF00000746F2057692D4669204E6574776F72B6
:100D00006B00436F6E6E656374204C6170746F701E
:100D10002F50686F6E650000496E73706972652DA3
:100D20003130302050617469656E7400746F2057E3
:100D3000692D4669204E6574776F726B00436F6E44
:100D40006E656374204C6170746F702F50686F6EA5
:100D5000650025736B67202573636D00257320255F
:100D6000737972002573202573005B25735D005035
:100D7000617469656E7420496E666F002D3E202592
:100D8000642E256420286C2F6D696E2900436F6ED8
:100D90006669726D20444F4E4520285945532920DD
:100DA0003F0000536574204F3220466C6F77202837
:100DB0006C2F6D696E29004D696E75746520566FD4
:100DC0006C2E20457374696D617465002D3E20257D
:100DD000642E256420286C2F6D696E2900436F6E88
:100DE0006669726D20444F4E45202859455329208D
:100DF0003F0000536574204F3220466C6F772028E7
:100E00006C2F6D696E29004D696E75746520566F83
:100E10006C756D65204368616E676500252E323004
:100E20007300252E3230730000000057692D46698B
:100E300020436F6E6E656374696F6E006973207511
:100E40006E64657267726F756E642E0054686569B2
:100E50007220616D617A696E6720747261697400D5
:100E6000756E757375616C2074726565732E0041C3
:100E70007370656E732061726520766572790063A8
:100E800061727269656420627920616E696D616C5E
:100E9000732E007468652077696E64206F7220611C
:100EA0007265007365656473207468617420666C94
:100EB00079206F6E005472656573206E65656420DD
:100EC000746F207370726561640063756C74757201
:100ED000657320616C6C206F7665722E0079656198
:100EE00072732075736564206279206D616E79007C
:100EF000666F7220666976652074686F7573616EBF
:100F00006400486172707320686176652065786955
:100F1000737465640068656C70732067657420691C
:100F2000742075702E0069732066756E2E20412026
:100F30006C696768742077696E64006E6963652CFC
:100F400020666C79696E672061206B697465005753
:100F500068656E20746865207765617468657220C5
:100F6000697300746865726520697320736E6F77AA
:100F70002E00616E797768657265207768657265A5
:100F8000006F7574646F6F722070617374696D6542
:100F900000536B69696E67206973206120706F7000
:100FA000756C617200666F756E6420696E20527593
:100FB000737369612E0074686F7573616E64207954
:100FC000656172732061676F2C00666F756E642CAB
:100FD000206461746573206569676874005468658E
:100FE000206F6C6465737420736B6920657665721D
:100FF00000416E7461726374696361206963652086
:1010000073686565740069732066726F7A656E2017
:10101000696E207468650066726573682077617414
:101020006572206F6E204561727468004E696E654E
:1010300074792070657263656E74206F6600417507
:10104000746F205265636F766572696E67005379BD
:101050007374656D20697300004D6F746F72204664
:1010600061756C74004578706563746564203E201A
:101070002575206D6C004D696E75746520566F6C1A
:101080003D2575206D6C00436865636B205061746D
:1010900069656E740000004C6F77204D696E757441
:1010A0006520566F6C756D6500436865636B204401
:1010B0004953504C41590042726561746820536530
:1010C0007474696E67730054656D706F72617269D4
:1010D0006C79206368616E67656400507265737334
:1010E000757265206265796F6E6420504D415800BD
:1010F00043616C6C20536572766963652054656347
:101100006800436865636B20427265617468696E4C
:1011100067207475626500436865636B2050617475
:1011200069656E74204D61736B00544F54414C20BF
:101130005072657373757265204C6F7373004368EA
:1011400065636B205072657373757265204C696EB0
:10115000657300436865636B2050617469656E74E4
:10116000204D61736B00436865636B2042564D20D0
:1011700042616700536F6D652050726573737572BD
:1011800065204C65616B0043616C6C205365727621
:1011900069636520546563680041737069726174A6
:1011A000652050617469656E7400436865636B20E7
:1011B000427265617468696E67207475626500418A
:1011C000697277617920426C6F636B616765002596
:1011D0006420646567430043616C6C2053657276DC
:1011E00069636520546563680000746F6F206869E7
:1011F0006768004D6F746F722054656D7065726121
:101200007475726500256420646567430043616CF2
:101210006C205365727669636520546563680000CD
:10122000746F6F206C6F77004D6F746F7220546510
:101230006D7065726174757265006C656164696E6C
:101240006720746F204552524F52007468652053D6
:10125000797374656D207374617465005072657381
:101260007320504155534520746F2073686F770089
:101270005B4552524F525D00427265617468202393
:10128000256C7500506175736520496E73706972C5
:101290006174696F6E0053686F7274205072657369
:1012A0007320504155534520746F000042726561B0
:1012B00074682044656C69766572790044796E6162
:1012C0006D6963203D202575005374617469632046
:1012D0003D2025750044796E616D6963203D205580
:1012E0004E4B4E4F574E00537461746963203D203E
:1012F000554E4B4E4F574E00286D6C2F636D483244
:101300004F29004C756E672044656C746156202F20
:101310002044656C746150004272656174682023DA
:10132000256C7500000000494E53504952452D313F
:101330003030004272656174682023256C75004569
:101340007374696D617465642056543D25750000A1
:10135000000044656C69766572656420566F6C7533
:101360006D65286D6C2900427265617468202325C3
:101370006C750053706F6E74616E656F757320428B
:10138000504D3D253275004D616E6461746F727908
:101390002042504D3D2532750000000042726561CB
:1013A00074687320706572206D696E757465005382
:1013B000706F6E74616E656F75733D25752E257542
:1013C000004D616E6461746F72793D25752E2575CF
:1013D00000546F74616C3D25752E2575000000006A
:1013E0004D696E75746520566F6C2E20286C2F6DBC
:1013F000696E29004D454E55202D3E205374616E77
:10140000646279204D656E75006E6F74207265712F
:101410007569726564004F787967656E20496E66FC
:101420006C6F77004F787967656E20496E666C6FD8
:1014300077206D7573740046694F32207365742090
:101440006174202564252500526573756D656420DF
:101450004F7065726174696F6E00004D6F746F72CA
:10146000204661756C74005265636F7665726564C1
:101470002066726F6D00446973706C6179656420D9
:10148000506172616D65746572730042726561745A
:10149000682044656C697665727920666F720074A5
:1014A0006F20626567696E005072657373205354D4
:1014B000415254005265636F6E6E656374207768A5
:1014C000656E207265616479004272656174686955
:1014D0006E6720436972637569740066726F6D2070
:1014E0007468650050617469656E74204469736343
:1014F0006F6E6E6563746564005354415254202DC1
:101500003E205B4143544956455D004D454E5520B4
:101510002D3E205374616E646279204D656E7500B6
:101520004152524F5773202D3E20506172616D65BC
:1015300074657273005B5354414E4442595D0069B7
:101540006E2070726F6772657373005265636F6EA1
:101550006E65637420617474656D707400697320C6
:101560007374696C6C206C6F73740057692D4669D5
:1015700020436F6E6E656374696F6E004D454E5506
:10158000202D3E205374616E646279204D656E7526
:10159000006E6F74207265717569726564004F78B2
:1015A0007967656E20496E666C6F770053657420AD
:1015B0004F3220466C6F77205261746520746F0043
:1015C000005354414E444259207374617465005075
:1015D000454550207768696C6520696E00416374E9
:1015E0006976656C79206D61696E7461696E696E8A
:1015F00067005072657373205354415254206167E1
:1016000061696E00436F6E6E65637420506174692A
:10161000656E7420616E6400427265617468204476
:10162000656C69766572790043616E6E6F742053E4
:10163000544152540042726561746820666F722092
:1016400061207768696C65004D697373696E672006
:1016500053706F6E74616E656F7573004272656171
:10166000746820696E20505356206D6F6465004485
:10167000656C697665726564204D616E6461746F36
:10168000727900757020746F20257320636D204877
:10169000324F006F72205045455020736574746955
:1016A0006E670041646A757374205045455020761A
:1016B000616C76650000504545502064656C74612E
:1016C000204F6273657276656400746F206368658D
:1016D000636B2073797374656D0043616C6C205388
:1016E00065727669636520546563680067726F731D
:1016F000736C7920696E61636375726174650054FF
:101700006964616C20566F6C756D65004368616E2D
:1017100067652053657474696E67730042564D2087
:1017200042616720746F6F20736D616C6C0073652C
:101730007420546964616C20566F6C756D6500553A
:101740006E61626C6520746F2064656C6976657289
:1017500000436865636B20696D6D656469617465DC
:101760006C7900636F756768696E67206869636389
:10177000757070696E670050617469656E74206D74
:10178000696768742062650041626E6F726D616C9A
:101790002042726561746800594553202D3E2043F4
:1017A0006F6D6D6974004368616E676520504152CA
:1017B000414D45544552530028594553206F7220DE
:1017C0004E4F29203F00436F6E6669726D20746F23
:1017D00020616363657074006D61792062652074B7
:1017E0006F6F2065787472656D650056542C525287
:1017F0002C454920636F6D62696E6174696F6E007C
:1018000028594553206F72204E4F29203F00436FC7
:101810006E6669726D20746F206163636570740019
:101820006D617920626520746F6F206578747265D0
:101830006D650050532C54505320636F6D62696E78
:101840006174696F6E0028594553206F72204E4FA6
:1018500029203F00436F6E6669726D20746F2061AE
:10186000636365707400636C6F736520746F2050E0
:101870004545500050532073657474696E67207439
:101880006F6F004E4F202D3E2043616E63656C00EC
:10189000594553202D3E20436F6D6D697400436F91
:1018A0006E6669726D20746F20434F4D4D49540030
:1018B000504152414D4554455253206368616E6713
:1018C0006564004E6F746564202859455329203F94
:1018D00000547279696E6720746F205265636F6E71
:1018E0006E6563740044524F505045440057692D53
:1018F000466920436F6E6E656374696F6E00436165
:101900006C6C20536572766963652054656368006A
:1019100000435243204661696C7572650054656DE1
:1019200070657261747572652053656E736F7200B5
:1019300053544F5020666F6F6C696E672061726FF1
:10194000756E64210021212049474E4F52454420A5
:101950002121005072657373656420746F6765742C
:10196000686572004D756C7469706C6520427574A1
:10197000746F6E73005B256C752C256C755D007C37
:10198000204040402057692D4669205245434F4E24
:101990004E4543544544007C204040402057692D2B
:1019A00046692044524F50504544007C202A2A2A40
:1019B000205265636569766564205345524B4559ED
:1019C0005F574946495F5245434F4E4E4543544544
:1019D00044203D007C202A2A2A20526563656976CE
:1019E0006564205345524B45595F574946495F440A
:1019F000524F50504544203D005B25642C25642CFB
:101A000025642C25642C256C752C25645D005B25D4
:101A1000642C25642C25642C25645D002A2A2A2A3E
:101A20002A2A2A2A2A2A2A2A2A2A2A2A2A2A2A2A16
:101A3000205355415254206F766572666C6F772043
:101A4000666F72206D7367547970653D007C20234A
:101A500023232041726475696E6F2052657365742B
:101A60002D696E67204E6F64654D63750053657315
:101A700073696F6E2054696D6572204F6666736579
:101A80007420536563733A0053657373696F6E20F6
:101A900054696D657220496E69743A0023232323CB
:101AA000232323204E656761746976652064656C25
:101AB000617920232323232323232323230050532B
:101AC000560053494D560041435600434D560020A1
:101AD0004F32466C6F775831303D00204F32507591
:101AE000726974793D002046694F323D00202054D0
:101AF00050533D0020504D41583D00205045455029
:101B00003D002050533D00204D565831303D0020BF
:101B100045493D002052523D002056543D007C2056
:101B2000232323204D4F44453D00096F32466C6FFF
:101B3000775831303D000972723D000965693D00FA
:101B40000976743D00096D6F64653D007C203E3E62
:101B50003E20505356204D616E6461746F7279203F
:101B6000427265617468204241434B5550007C20AD
:101B700023232320496E697469616C20466F727754
:101B80006172642072706D5831303D002041646A8A
:101B900075737465643D007C2023232320496E699E
:101BA0007469616C2056432073746570732E2043F2
:101BB000616C696272617465643D007C202323233B
:101BC0002056432065787472616374656420666989
:101BD0006C7465722077696E646F77203D20007C9D
:101BE0002023232320496E697469616C205053209F
:101BF00054617267657420507265737375726520E5
:101C0000286D6D58313029203D20007C202323236E
:101C1000205053206578747261637465642066692E
:101C20006C7465722077696E646F77203D200023A5
:101C30002323232056432043616C63756C617465D4
:101C400056744D6F746F72506172616D6574657218
:101C500073466F725643204641494C454420616C9F
:101C600061726D436F64653D002064656C746153FF
:101C7000746570733D0020737465707344696666A3
:101C80003D007C20232323204D41582056432044EF
:101C9000656C74612053746570733A206E756D5273
:101CA000616D70427265617468733D00206173619B
:101CB0007053746570733D007C202A2A2A2042618B
:101CC0006420696E697469616C53746570733D005A
:101CD0007C20232323204E756D2042726561746839
:101CE000732070657220546974726174696F6E3DFF
:101CF000007C202323232050656570205761726E7D
:101D0000696E67204E756D2042726561746873203C
:101D1000496E74657276616C3D007C20232323201C
:101D200041646A7573746564204D41582044656C44
:101D300074612053746570733D007C20232323203D
:101D400041646A75737465642054617267657420B8
:101D500049513D00206D696E73007C2023232320B0
:101D6000767452616D70496E4D696E757465733D20
:101D7000002564206D696E7574657300436F6E662F
:101D800069726D2028594553206F72204E4F2920CB
:101D90003F000052616D702D757020617070726F20
:101DA000782074696D6500546964616C20566F6CAD
:101DB000756D6500446F6E65202859455329203F95
:101DC000000052616D702D757020617070726F78B7
:101DD0002074696D650053657420546964616C20DA
:101DE000566F6C756D65007C203E3E3E20444F4E24
:101DF0004520436F6D6D697474696E672043686137
:101E00006E67657320696E202073657474696E67F0
:101E10007300207470733D002070733D0020706D5E
:101E200061783D0020706565703D00206D76583109
:101E3000303D002065693D002076743D002323235A
:101E400023206D6F64653D00232323232053657495
:101E500074696E677320436F6D6D69744368616E5A
:101E60006765204661696C656420696E2043616C1A
:101E700063756C6174654D6F746F725365747469CA
:101E80006E6773007C203E3E3E20436F6D6D69742B
:101E900074696E67204368616E67657320696E20A0
:101EA0002073657474696E677300206D6D48324FDE
:101EB00000204465706C6F796D656E743A20002067
:101EC0006D6D48324F2C002043616C696272617401
:101ED000696F6E3A20007C202323232050726573A3
:101EE00073757265733A0000000040470A1240673C
:101EF0000C2B40870E4540A7105E40C7127740E785
:101F00001490400717AA402719C340471BDC4067BD
:101F10001DF640871F0F41A7212841C7234241E7F3
:101F2000255B4107287441272A8D41472CA741672B
:101F30002EC0418730D94100000040A8060F40372D
:101F4000092740C60B4040560E5840E510704074BB
:101F50001388400316A0409218B840211BD040B10E
:101F60001DE94040200141CF2219415E253141ED5C
:101F70002749417C2A61410C2D79419B2F92412AAE
:101F800032AA41B934C241000000400A030D4008A2
:101F900006244006093B40050C5240030F694001EE
:101FA00012804000159740FE17AE40FC1AC540FB5A
:101FB0001DDC40F920F340F7230A41F6262141F4C5
:101FC000293841F22C4F41F12F6641EF327D41ED2E
:101FD000359441EC38AB41000000409A0610401C9B
:101FE0000928409D0B40401F0E5740A1106F402311
:101FF000138640A5159E402618B540A81ACD402A44
:102000001DE540AC1FFC402D221441AF242B413173
:10201000274341B2295A41352C7241B62E8A4138A4
:1020200031A141BA33B941000000402B0A144030BD
:102030000C2C40350E45403A105D403F127540452E
:10204000148D404A16A5404F18BD40541AD540592A
:102050001CEE405F1E064164201E41692236416E1F
:10206000244E417326664179287E417E2A9741831A
:102070002CAF41882EC74100000040C307124066C4
:102080000A2A40080D4340AA0F5B404C127340EEF1
:10209000148B409017A340321ABB40D41CD3407617
:1020A0001FEC4019220441BB241C415D273441FF31
:1020B000294C41A12C6441442F7C41E63195418853
:1020C00034AD412A37C541000000405C0511409CF9
:1020D000082940DB0B41401A0F59405912714098B2
:1020E000158A40D718A240161CBA40551FD24094FA
:1020F00022EA40D425024113291A41522C3341913E
:102100002F4B41D03263410F367B414E3993418D85
:102110003CAB41CD3FC34100000040AD051040F550
:102120000829403D0C4140840F5A40CC12734013A3
:10213000168C405B19A440A21CBD40EA1FD640315A
:1021400023EE4079260741C1292041082D3941500D
:1021500030524197336A41DF368341263A9B416EC4
:102160003DB441B640CD4100000040FF0510404F56
:102170000929409F0C4240EF0F5C403F1375408F90
:10218000168E40DF19A7402F1DC1407F20DA40CFB7
:1021900023F3401F270D416F2A2641BF2D3F410FDA
:1021A0003159415F347241AF378B41FF3AA4414FFF
:1021B0003EBE419F41D74100000040600510409A5B
:1021C000082940D50B41400F0F5A404912734083F4
:1021D000158C40BD18A440F71BBD40321FD6406C83
:1021E00022EE40A6250741E02820411A2C3941540F
:1021F0002F52418F326A41C935834103399B413D9A
:102200003CB441773FCD4100000040C2041140E69C
:102210000729400B0B41402F0E5940531171407854
:10222000148A409C17A240C01ABA40E51DD240094A
:1022300021EA402D24024152271A41762A33419A3D
:102240002D4B41BF306341E3337B41073793412C32
:102250003AAB41503DC3410000004034041040728D
:10226000072840B10A4040EF0D58402D1170406CD6
:10227000148940AA17A140E81AB940281ED1406627
:1022800021E840A4240041E3271841212B31415F7C
:102290002E49419E316141DC3479411A38914159CE
:1022A0003BA841973EC04130835B1F0B83C7243E50
:1022B00083252BB1737C32F6633A392A6468407403
:1022C00064C048B4544D51C1440258B662EF1BEB90
:1022D0006270224263542977533830DF53F6380650
:1022E00044BE3E60345E48BA34CB4FC93433558166
:1022F00042EE1BE542A1231333022A513392309F51
:10230000239B37D923BE3F2C24604689242C4D8C37
:1023100024EF532483B51E188397243E83AC2AAC44
:10232000736532EB63D63821641C4069643E48AD66
:1023300054A950BD445F57B5620D1CE8627D22363A
:1023400063582973535A30D653B0380044933E53E0
:10235000348B47B834204FBF348E547C42A71BD8EF
:102360004232230A33BD294A3331309C238137DB83
:1023700023893F30245D4688243D4D862409541925
:10238000730F1E267368243F63332AA8634F32E11C
:102390006372381854D03F5F44BD47A7440550B915
:1023A00034BD56B5522B1CE6528B222B535D296F40
:1023B000437D30CD336B38FA33683E4634B846B788
:1023C00024754EB524EA537732601BCC32C4220107
:1023D0003378294323D02F99236837DD23553F34A1
:1023E000245A4687244E4D812424540E73691D338C
:1023F0007338243F63BA29A3633932D7630E380F89
:1024000054843F55443C47A044614FB5341B56B4F7
:1024100052491CE45299221F5361296B439F30C4D7
:10242000332638F4333D3E3934E545B524CA4DAB47
:102430002446537232191BC0325622F83233293CDB
:10244000236F2F96234E37DF23213F3824574686AC
:10245000245F4D7C243F540363C31C416309244023
:102460006342299F532332CD43AB370744383F4B58
:1024700044BB469A34BE4EB2347955B442681CE22D
:1024800042A722143366296733C230BC33E137EFE9
:1024900023133E2D241245B424204DA124A2526DB5
:1024A00032D31AB432E821F032EE2835230E2F94BD
:1024B000233537E123ED3E3C2455468524704D7786
:1024C000245A54F362941C3363D423426381299CBD
:1024D00053FF31CE43AD370844253F5244E046A078
:1024E000346D4EAF342155A6424C1CD542552212B4
:1024F000332C2964335F30BA338937EF23153E2FED
:10250000244045B6243A4DA4240A536732D41AB164
:1025100032B221F432FE2837233B2F91230637E3D2
:1025200023F33E4C248D468424964D7F24CB54E4E3
:1025300052661C2553A0234553C1299A43DB31CF52
:1025400043B0370934123F59240647A6241D4EAD27
:1025500024C9549932301CC93203221033F3286243
:1025600023FC2FB8233237EF23183E32246E45B9AF
:1025700024554DA72473536232D51AAE327C21F90B
:10258000220E293A23692F8E23D736E623F93E5CA3
:1025900024C6468324BD4D88243C55D552371C178C
:1025A000536B234853012A9743B731D043B2370ABC
:1025B00034FF3E60242C47AC24CC4DAA2471548BAC
:1025C00032141CBC32B1210E33BA286023992FB6C5
:1025D00023DB36EF231A3E34249C45BC24704DAADD
:1025E00024DB535D32D61AAB324621FE221E293D32
:1025F00023972F8B23A836E923FF3E6C24FF4682C6
:1026000024E44D9024AD55C652091C095337234B81
:1026100043412A95439331D133B5370C34ED3E67AE
:10262000345247B2247C4DA8241A547E32F81BB091
:102630003260210C3381285E23362FB5238436F097
:10264000231D3E3724CB45BF248B4DAD2444545825
:1026500022D81AA822112103232F294023C52F880D
:10266000237A36EC23053F7D24384781240B4E998D
:10267000241E56C452891C035366234643532A8C96
:10268000436331CD33B7370D34153F70342247AD36
:1026900024354DA72434547932F61BB432DE210A96
:1026A00033B5285D237D2FB323F136ED23333E343C
:1026B00024A945B024E94DAD24BD545C22061BAAD3
:1026C000224B21032350294123F72F8C23DB36E7AC
:1026D00023233F782436488724A04E97244156C3AD
:1026E00042091DFD4296234133662A84333431C9A1
:1026F00023B9370E243D3F7924F346A924EE4CA696
:10270000244E547432F41BB9325C220933E9285C3C
:1027100023C52FB2235F37EA23493E31248745A2E0
:1027200024474EAD2436556122351BAD2286210447
:1027300023722942232A3091233C37E323423F73FB
:102740002434498D24364F96246556C142891DF79D
:1027500042C6233C33792A7C330531C523BB370F6E
:1027600024653F8224C346A424A74CA52468546F43
:1027700032F21BBE32DA2208331D295B230D30B141
:1027800023CD37E7235F3E2E2465459424A54EAD27
:1027900024AF556622631BAF22C121042393294332
:1027A000235C3095239D37DF23613F6E24324A93AB
:1027B00024CB4F95248956C0420A1EF242F6233894
:1027C000338C2A7433D630C223BD3711248E3F8C0C
:1027D000249446A024604CA42483546B32F01BC381
:1027E000325923072352295A235530B0233B38E569
:1027F00023763E2B2444458624044FAD2428566B73
:1028000022921BB222FC210523B52944238F309A42
:1028100023FE37DB23803F6A24304B9A2461509497
:1028200024AD56BE42E41DF242D42334336F2A77DE
:1028300033CE30C823C2371E24BC3F9924CF46A7CD
:1028400024054DAB24BB546B32DB1BC2322E230656
:1028500023692959235330B0232738EE23C03E4B38
:1028600024CE458824A74EA824F8556E22CA1BB54D
:10287000224B220823F8294E231731A623ED38EDE9
:102880002397407A24F54AB8244F50B924AE54BC5B
:1028900032BF1DF232B3233123522A7A23C630CEFF
:1028A00023C8372C24EB3FA6240B47AE24AB4DB3F3
:1028B00024F3546C22C71BC2220323062380295908
:1028C000235230B0231438F7230A3F6B2459468A29
:1028D000244A4EA324C8557122031CB9229B220B03
:1028E000233B2A59239F31B323DD390024AE418A8B
:1028F00024BA4AD6243E50DE24B052BA32991DF290
:102900003291232D23352A7D23BE30D423CD373A6F
:10291000241A40B3244647B524504EBA242B556D93
:1029200022B31BC222D8220523972958235130B045
:102930002301380024543F8B24E4468C24ED4D9E23
:1029400024985574223B1CBD22EA220E237E2A6461
:10295000232732BF23CC3A1324C5429A247F4AF45A
:10296000242D500325B150B832741DF23270232A41
:1029700033192A8123B630DA23D33748244940C09B
:10298000248247BC24F64EC22464556E229F1BC28B
:1029900022AD220523AE2958235030B023EE370A4A
:1029A000249F3FAB246F478F24904D99246855771F
:1029B00022741CC1223A231123C12A6F23B032CCC6
:1029C00023BC3B2624DC43AA24444A12251C50295C
:1029D00025B34EAE32061DE83214232C33302A8341
:1029E00023AB30E1230A385D245440BE245A47BA51
:1029F000248D4EBB2422556C22831BBF228C2204C3
:102A00002369295E238330B52300380924A03FAD14
:102A10002482479024774DA6243A5578226B1CC017
:102A20002229231023CC2A6F23C332BC238A392DB9
:102A300024DF42BB24384AF6246A4BE5241D4AA50C
:102A400032981CDE32B9222F33482A8623A030E880
:102A500023423873246040BD243347B924254EB542
:102A600024E1546B22671BBC226C220423252965B8
:102A700023B630BB2313380924A13FB024954791D6
:102A8000245F4DB4240D557922631CBF22182310F6
:102A900023D72A7023D732AC2358373424E241CCD1
:102AA000242C4ADB24B846A22488459C322A1CD414
:102AB000325E2231335F2A89239530EF23793888BB
:102AC000246B40BC240C47B824BC4DAE24A05469F0
:102AD000224B1BB9224B220323E0286B23E930C190
:102AE0002326380924A23FB324A8479224464DC187
:102AF00024E0547A225A1CBE2207231023E22A70B3
:102B000023EA329C2326353B24E540DD24204AC0BD
:102B10002406425E24F2409332BD1BCB32032234A2
:102B200033772A8C238B30F723B1389E247740BB30
:102B300024E546B724544DA8245F5468222F1BB7C0
:102B4000222B2203239C2872231D31C723393809E5
:102B500024A43FB624BC4793242E4DCF24B3547BEA
:102B600022521CBD22F6221023ED2A7123FE328D43
:102B700023F5324324E83FEE24154AA524543D1B97
:102B8000245D3C0F83881E3983A1257473962CD055
:102B90007394341A64403C5064B642C664044EE6F2
:102BA000544E56F0446D5D90623C1AC462AC201DD8
:102BB00053EC276F53512FD05389370D44393EAD15
:102BC00034D74AC434BC51C934405770428E1AC8F5
:102BD000420C221343D9286333F72FB7333537001C
:102BE00024A93F4B243F469824644DD524F6540C29
:102BF000833B1E3E8374257273422CCC734734157D
:102C0000648F3B47643942A864764CC7547E54C3F2
:102C100044B85A9E62121BD76291212C53CA288253
:102C2000533230ED5313382044B83E99348949BAB1
:102C3000348C50BE3477567242A21ACA422A2216E7
:102C40004303296533F92FB93357370224A03F5185
:102C5000249946A724F54DCF2452550973EE1D4300
:102C60007348257163ED2BCA63FB331164DF3A3F70
:102C700054BC418B54E84AA844AE5295340358AD35
:102C800052E81BEA5277223C53A929954313310A93
:102C9000349F383234373F85343B48B2245C4FB4DC
:102CA00024AF557432B71ACD32492219332D296811
:102CB00023FB2FBC237A370424983F5624F446B5CF
:102CC00024864EC924AE550673A11D47731B25707B
:102CD00063992BC663AF330D642E3A36543F416E71
:102CE000545B498944DD5068344E55BB52BE1CFECE
:102CF000525D234B53872AA843F33127342A3945A1
:102D000034B63F7134ED46A9242B4EAA24E75477FC
:102D100032CC1AD03268221C3357296B23FC2FBEC9
:102D2000239C3705248F3F5C244E47C424164FC391
:102D3000240A560363541D4D63EF246F63452BC46F
:102D400053633309447E392E44C2405144CD476B0E
:102D5000340E4F3B349952CA42951D114343245AB5
:102D600033652BBB33D4324534B539582436405DF6
:102D7000249F45A024FC4CA0241F547932E11AD38F
:102D8000328722202381296E23FE2FC223BF3707DB
:102D900024873F6124A947D224A74FBD246656F952
:102DA000627D1D4463EF247063782BC4536333FE4C
:102DB0004360393244BD405844E9477534014F50AF
:102DC000345853C2427E1D0B4308245833342BB26F
:102DD000336C32373433395424E23F5F24BB45A28D
:102DE00024184DA1243C547C32181BD5326822266D
:102DF00023782971231D30C023B43712248E3F6FEE
:102E0000245F47C6240D4FBB243556F052A61D3C07
:102E100053EF247153AC2BC5436433F44342393729
:102E200034B840602406488024F44E66241854BB0D
:102E300032661D0533CE235533032BA923033229D4
:102E400024B13850248E3F6124D745A524354DA2A6
:102E5000245A547F324F1BD83249222C23702975B3
:102E6000233D30BE23A9371E24953F7C241547B946
:102E700024734EBA240456E752CF1D3453EE247304
:102E800053E02BC6436433EA4324393C34B34068EF
:102E90002422488B24E74E7B24D754B3324F1DFFA6
:102EA0003293235333D32AA0239B311B2430384B36
:102EB000243A3F6224F245A724524DA32478548239
:102EC00032861BDA322A223223672979235C30BC0E
:102ED000239D3729249C3F8A24CB46AD24D94DB964
:102EE00024D355DE52F91D2C53EE247453142CC7F1
:102EF000436533E03307394234AF4070343F48967E
:102F000024DB4E91249755AC32381DF9325A2350A8
:102F100033A22A982332310D24AE374824E73E6489
:102F2000240F46AA24704DA52496548522BD1BDD8E
:102F3000220B22382360297E237C30BA2393373535
:102F400024A33F98248146A1243F4DB824A255D202
:102F500052D21D1C53A4246753CE2BB7430D33E22A
:102F600033093946348C40763411489624994E9270
:102F7000248155A632261DF73283234A338C2A9C9E
:102F8000234331112415384A24563F67247546A43B
:102F900024054EA7242F558922CA1BE02227223A56
:102FA0002381297B239030C023D1373B24AE3F9728
:102FB000243347A524EC4DB324E455C642AB1D0C85
:102FC000435A245A33892BA733B532E5230B394BA7
:102FD0002469407C24E4479824564E93246C55A0E1
:102FE00032141DF632AD234423762AA12354311521
:102FF000247C384C24C63F6B24DB469F249A4EA980
:1030000024C9558F22D71BE32243223D23A32979CC
:1030100023A430C72310384224B93F9624E547A99A
:1030200024994EAF242656BA42841DFC4211244DE9
:1030300033442B97335E32E7230D394F24464082C9
:1030400024B6479824144E942456559A32031DF5FD
:1030500032D6233E23602AA62365311924E4384E54
:103060002435406E2442479924304FAB2462569455
:1030700022E41BE62260223F23C4297623B830CE07
:10308000234E384924C43F95249648AD24464FAB7F
:10309000246956AF425E1DED42C7234033FF2A87A5
:1030A000330632EA33103954242440892489479A5C
:1030B00024D24D952441559532F11CF43200243828
:1030C000334B2AAB2376311E244B395024A5407153
:1030D00024A9479424C64FAD24FC569A22F11BEA3A
:1030E000227C224123E6297423CD30D5238D38500C
:1030F00024CF3F95244849B224F34FA724AB56ADC3
:1031000042381DEE42C7234133162B8B33FA31F67A
:103110003302395B243E409024B1479C242E4E94C8
:103120002488559832EB1CF632022440337E2AB5AF
:103130002377311E242339502499407D24A94791B7
:1031400024464FA42470569B22191CEB22B4224221
:10315000231A2A7D233531E1230C3953247C4093F3
:10316000241049B724AD4FB4245555AA32121DF08E
:1031700032C72342332D2B8F23EE310324F43862E0
:10318000245A409824DA479E248C4E9324CF559C91
:1031900022E61CF82203244823B22AC02378311FD8
:1031A00024FB384F248E408924AA478F24C74E9C85
:1031B00024E5559C22421CEE22ED2243234F2A8710
:1031C000239D31EF238B39562429419124D848BCC3
:1031D00024684FC1240054A832EB1CF132C62343AB
:1031E00033452B9323E2311024E63869247540A03F
:1031F000240248A124E94E92241756A022E11CFA89
:103200002205244F23E52ACA237A312024D3384FBC
:103210002482409524AB478C24474E932459559DD6
:10322000226A1CF02225234423832A91230632FBA1
:10323000230A3A5A24D6418F24A048C024234FCED3
:1032400024AA52A632C61CF332C62345335D2B97FF
:1032500023D7311D24D93871249140A8242B48A3A9
:1032600024464F92245F56A422DC1CFC22062457DD
:1032700023192BD5237C312124AC384F247740A24D
:1032800024AC478A24C84D8B24CE549E22931CF331
:10329000225D234623B82A9B236F3209248A3A5D94
:1032A0002483428E246848C524DE4EDC245551A078
:1032B000329D1CF1329E234733492B9F23D0312965
:1032C00024F13878248540A7240348A224F54E91A0
:1032D0002424569E22A01CF522BF235123BF2AD8A6
:1032E0002389312524CD385124A140A224D8478FE9
:1032F000242F4E982445559C22821CF422482342B8
:1033000023C52A9D2382320B2476397124FB419BED
:10331000240148BB24874BC924E04E9B32751CEF27
:103320003276234933362BA823CA3134240A398014
:10333000247940A624DB47A224A44E9124EA55997F
:1033400022651CEF2279234B23662ADC2397312A3E
:1033500024EF385424CB40A32405489424964EA54A
:1033600024BD559B22721CF52233233E23D22A9F73
:103370002395320E24623884247341A9249A47B1DC
:10338000243148B6246C4C96324D1CED324E234B02
:1033900033232BB123C3314024233987246D40A626
:1033A00024B447A224524E9024B0559322291CE9FC
:1033B00022322345230C2ADF23A5312F241139562D
:1033C00024F540A32432489924FD4EB22434569A61
:1033D00022611CF6221E233B23DF2AA123A83210E0
:1033E000244E379824EB40B7243347A724DB44A36B
:1033F00024F8499232261CEC3226234E23102BBA95
:1034000023BD314C243C398F246240A5248C47A233
:1034100024014E902477558E22EE1BE422EC2240AC
:1034200023B229E323B4313424333959242041A46D
:10343000245F489E24654FBF24AC569922501CF748
:103440002209233723EC2AA423BC3213243B36ACB5
:10345000246440C524CC469D24854191248447EFB3
:1034600082B51D68837B26AA83082EEF73AC363F96
:1034700064473F77640445196548531855505B20ED
:1034800045D9626B628A189E62E81EF962852668D9
:10349000536B2EC2531C361544B53DFA34514DCEF4
:1034A00034AE53C9344E595F422E19AC42782014C1
:1034B00033B12775335D2FCF23D0362824953F6B4A
:1034C000241F46A8249D4D1F25FE55F482C11D646E
:1034D000835126A783D82DED732A364064493E6E6A
:1034E000645644E864AE50E1545358C944115E88B0
:1034F00062181AC662A52023633D2892530A30053C
:103500005477374044DE3EDF34884BBD34F851BE3B
:1035100034615868429E19BD4223212333492881D2
:1035200033C12FD7232E372924B83F7224D646C65D
:1035300024AD4E18259B56F972CD1D60732826A424
:1035400063A82DEC63A83542644C3D6654A843B88B
:1035500044144EAA44575572344959A652A61BEF3B
:103560005263224D53F529BC43A9314834D3386BFB
:10357000340740C434BF49AD244350B42475577256
:10358000320F1ACF32CF213233E2288E232630DF9A
:10359000238D372B24DB3F79248E47E424BE4F1143
:1035A000253857FE72D91D5C73FF25A163782DEA7B
:1035B00063263543644E3C5D54FA4287447A4B732C
:1035C000445A521B348154C352341D18532124775A
:1035D00053AD2BE64348338B342E3A96343041A911
:1035E00034F6479D248D4EAA2489567C327F1AE0FA
:1035F000327A2241337B299A238A30E723EB372C16
:1036000024FE3F802446480225CE500A25D5570483
:1036100063E51D5963D6259F63482DE953A43445BE
:1036200044513B55444D425744E0483C345E4FC4FE
:1036300033B94FE142C31E4143DF25A133652D104D
:1036400034E734CF348A3BC2245A428E242D468D2F
:1036500024D84CA0249D558632F01AF232262351EC
:1036600033142AA723EF30F0234A382E2421408731
:1036700024FE482025DF51042573580063661E563A
:10368000630A269E636F2DED53C8342F44133B5DB0
:103690004456425F44F3484B34954FF1339051DF29
:1036A00042B01E4143BC259E333C2D00347934B4D6
:1036B00034DD3AB924AF418F2436468F24F74C9F2E
:1036C000246F5591325C1BFA321E235833F329AC18
:1036D000230031EF236238422429409224314808E4
:1036E000258450F8249F57FD52E71E54533E269ED2
:1036F00053972DF143ED341A44D53A66345F42684E
:103700002406495B24CC4F1F246753DD329D1E42A3
:103710003399259B33142DF1230B349A24313AB17C
:10372000240541902440469124164D9E2442559CE8
:1037300032C91B023316235F23D229B1231131EE84
:10374000237B38562431409D246447F024294FEDD3
:1037500024CC56F952681F515372269E53BF2DF543
:103760004312350544973A6F346842702419496A08
:103770002403504D243E55DB328A1E423376259871
:1037800033EC2CE1239D3380248539A8245B4091C0
:103790002449469324354D9D241555A732361C0ADD
:1037A000330E236623B129B6232231ED2393386AE1
:1037B000243940A8249746D824CE4DE224F955F662
:1037C00052EA1F4F53A6269E43E72DFA433735F0A2
:1037D000335A3A7834724279342C497A243B507BFC
:1037E000241557DA32781E433354259533C42CD22E
:1037F000232F336624D938A024B13F922453469511
:1038000024554D9D24E854B222A31C122306236E96
:10381000239129BC233331EC23AC387E244240B3BE
:1038200024CB45C124744CD7242655E0521C1F35A7
:1038300053E2258843492DE243B734F8335C3A809C
:103840003404427C3400498024FD4F7D24CF56D37C
:1038500032561E3B3329258A33642CDC2309336F0F
:10386000243939A7247A409B2441479824214EA12A
:1038700024A255B7228E1C162303237223B229B625
:10388000232931F523C83890243940B6243046C363
:1038900024384DCF248755CA424E1E1C431F257322
:1038A00033AC2CCA33373401245E3A882496417FE6
:1038B00024D5488724BF4F80248A56CC32351E3405
:1038C00033FE247F33042CE723E33279249A39AE84
:1038D000244341A52430489C24EE4EA5245C56BDCB
:1038E000227A1C1A2301237623D429B0231F31FE08
:1038F00023E438A2243040B9249646C624FD4DC89E
:1039000024E855B442801D02435C245E330F2CB280
:1039100033B7330924603A902428418224A9488D82
:1039200024814F83244456C532141E2D33D324746E
:1039300033A42BF123BD328224FB39B5240C42AED3
:10394000241F499F24BB4FA9241657C322651C1E60
:1039500023FF227A23F629AA23153107240039B43C
:10396000242740BC24FB46C824C14EC12449569F8D
:1039700042B31CE94299234933722B9A33373312ED
:1039800024633A9824BA4086247E489424444F867F
:1039900024FF55BF32F31D2633A8246A23442BFC91
:1039A0002397328C245C3ABC24D542B8240E4AA317
:1039B000248850AD24D057C922511C2223FD227ED9
:1039C00023182AA5230B3110241D39C6241E40C0FC
:1039D000246147CB24864FBA24AA569C428C1CEB08
:1039E00042BA234E33BD2B9F3327332524423A98C6
:1039F00024C140882493489124584F7D245556C6AD
:103A000032FC1D2A33D6247A23942B11249B328D29
:103A1000241F3AB2247342B02484499B24E64FA168
:103A200024E956C822691C22231E237D233D2AAD8A
:103A30002353311D242B39B9246140AC242C47B6C3
:103A4000240C4FAF24FD559932651CEE32DB235414
:103A500023092CA42317333924213A9924C9408BF4
:103A600024A9488F246D4F7424AC56CD22061E2EF7
:103A70002304258A23E42B27249F328F24E339A8AB
:103A8000241242A824FB489424444F95240256C78C
:103A900022821C23233F237C23632AB6239C312BC1
:103AA000243A39AD24A4409924F746A224934EA584
:103AB00024515596323E1CF132FC235A23552CA931
:103AC0002307334D24003A9924D1408D24BE488DDC
:103AD00024824F6B240357D4220F1E322332259A9F
:103AE00023342C3D24A3329024A6399E24B041A037
:103AF0002472488C24A24E89241B55C6229A1C2469
:103B00002360237B23892ABE23E53138244939A148
:103B100024E7408524C2468D24194E9A24A4549447
:103B200032181CF4321D246033A12CAE23F832610C
:103B300024E0399A24D9409024D4488B24974F62AA
:103B4000245A57DB22191E36236025AA23852C53BD
:103B500024A83292246A3995244F419924E9478553
:103B600024004E7E243554C522B31C252381237B9B
:103B700023AF2AC7232E324624583995242B41726D
:103B8000248D467924A04D9024F8539332351CFAA5
:103B90003228246233632CBC23F6327124D9399342
:103BA00024B6409024AC488B245D4F67242757D11E
:103BB00022BE1D2C23F3249E23162C5324903296D0
:103BC000249B399A24A24197242F488E24E74E8AB9
:103BD000245155C1229A1C282367237423BE2ACB63
:103BE0002341325B246239B52418417C24CA4580C4
:103BF00024A54BAD24A4539232531C0033332464C8
:103C000033252CCB23F4328124D3398D2493409057
:103C10002484488C24234F6D24F456C722631D232B
:103C20002386249323A72B542479329A24CC399FBA
:103C300024F541962476489724CE4F97246D56BE9E
:103C400022811C2B234E236D23CD2ACF2354327087
:103C5000246D39D5240541872408458724AB49CBF9
:103C60002451539132711C06333E246633E72BD91D
:103C700023F2329124CD398624704090245C488C04
:103C800024E94E7224C156BD22081D1A2319248826
:103C900023382B542462329E24FD39A424484294B4
:103CA00024BC48A024B550A3248957BB22681C2EED
:103CB0002335236623DC2AD323673285247739F51D
:103CC00024F240912446448E24B147E924FE5291C7
:103CD000328F1C0D3349246833A92BE823F032A21C
:103CE00024C73980244D40902434488D24AF4E7829
:103CF000248F56B422AD1C1123AD237D23C92A5530
:103D0000244B32A2242E3AA9249C4293240349AA8C
:103D1000249D51B024A658B8224F1C31231C235F88
:103D200023EB2AD7237B329A2482391525E0409C45
:103D30002484439624B7450725AB52EA82F41B54EA
:103D400083D024B983C32C09747D355964E93DAD12
:103D500064FB44C9646D4E0F551D5C15453064A06D
:103D6000624219DF6270203053AC2894531B30ED4F
:103D700053A0373C44163FDE347E4BF734D052F527
:103D8000349859AB42311BF34294223E337A298F47
:103D9000334231E82374383A242B416624D246A7B3
:103DA00024634E6725DF5CED823B1C5983E924BA0E
:103DB00083F02C097467355A648F3DAB64E544C0C9
:103DC00064C84DF154BB59E644D160AC624B1AF55E
:103DD0006290214C539829B05334310F546F3853AB
:103DE00044C93FCF345A4AE0347C51DD34CC58A921
:103DF000425D1BFD424A235433922AA233E831FC30
:103E00002377393D2426417D242F48C424904F54E4
:103E100025515CF172831C5E730325BC731C2D0A53
:103E20006451355B64353DA954D044B744224DD329
:103E3000445B57B744725DB852541B0B53B02268B1
:103E400043852ACC434E3231343E3969347C40C0FC
:103E5000243549CA242950C6240158A832891B0890
:103E60003301246A33AB2BB523903211247B3A41C2
:103E700024214194248C49E124BE504125C35BF4A4
:103E800072CA1C63731C25BE73492D0A643B355BE3
:103E900064DB3CA754BB44AE447D4CB644FA548822
:103EA00044135AC4525C1C2153D1238443722BE81F
:103EB00043683353340D3A80342F41B1241148B450
:103EC00024D64EAF243657A732B41B1233B7248002
:103ED00033C42CC823373326247E3B45241C41ABF6
:103EE00024E94AFE24EB512E25365BF862121D6848
:103EF000633625C163762D0B5425355C44823CA680
:103F000044A744A644D74B983499525A24B456D166
:103F100042661D3843F124A1335F2C043482347689
:103F200024DC3A9724E341A324ED469F24834D9853
:103F3000246B56A632E11B1D336E259733DD2DDC35
:103F400023DE333C24823C49241741C224464C1BC7
:103F50002519531C25A95AFC628F1D69638225BF50
:103F600063902D0D5436354A44303CA4444044A758
:103F700044424B9C3434526E24E656CF426D1D377A
:103F800043CC2498333B2CF533F53369246D3A94B4
:103F900024B0419D244D4799241A4E9524A856AA31
:103FA000321A1C203317259333262DDB2382332C22
:103FB000247A3B4E24CD40C924434B1C257C521906
:103FC00025065A00530D1E6A53CE25BE43AB2D1055
:103FD0004448353944DE3BA334DA43AA24AD4AA130
:103FE00024CE5184241957CE32751D3633A7249020
:103FF00033182CE72367335C24FF3992247D4197E3
:1040000024AD479424B24E9224E556AE32541C237C
:1040100033C0248F23702CDA2326331D24723A53A5
:10402000248340D124414A1E25E0511825645904B7
:10403000538A1E6B531926BC43C62D12445A352889
:10404000448C3BA1347443AB24184AA5246951998C
:10405000244B57CC327C1D353382248833F52BD941
:1040600023DA324F2490398F244B4191240D488F0D
:10407000244A4F8F242257B2328D1C263369248B59
:1040800023BA2BD923C9320E246A3958243940D88F
:10409000243E491F2543511625C2580953091F6C58
:1040A000536526BB53E12D15446D3517343B3BA0BA
:1040B000340E43AE248349AA240451AE247D57CB49
:1040C00032851D35335E248033D22BCB234D3242D3
:1040D0002422398D2418418C246E488A24E24F8C86
:1040E000245F57B622C71C292312248723052BD906
:1040F000236D32FF2363385D24EF3FE0243C4822E8
:1041000025A85015252058FF52B31E5D53F725B141
:1041100053A62D06440E351A34033BA834A142AEF3
:10412000243F49AC249350AD243857C932A31D32E3
:104130003387247D33BC2BE82309335324B13994CE
:104140002487418F24D7489124255093249757BE24
:1041500022C41C2C230F248B230C2BD82373320353
:1041600024913883249F40D82405481D252A5106D0
:1041700025C257F6425E1E4E438925A7436D2DF793
:1041800033B0341E24CB3AB0243342AF24FC48AFC2
:10419000242150AC24F356C732C21D2F33B1247AE8
:1041A00033A52B0724C6336524403A9B24F641935C
:1041B000244249982468509A24CF57C622C21C3002
:1041C000230D249023142BD72378320724BF38A83B
:1041D000244F41D024CE471925AE51F7246557EC22
:1041E00042081E3F431B259D43332DE833523422A2
:1041F00024933AB824C641B024B848B224B04FAB97
:1042000024AE56C432E11D2D33DB2478338F2B24AA
:104210002483347624D03AA22465429624AC499E65
:1042200024AB50A1240758CE22BF1C33230B249467
:10423000231C2BD6237E320B24EE38CE24FE41C71E
:1042400024974714253052E9240757E342B41D3020
:1042500043AD249333FA2CD933F43326245B3AC08C
:10426000245841B1247548B5243F4FAA246A56C347
:1042700032001E2B3305257623782B4324403588C6
:1042800024603BA924D5429A24174AA624EF50A9BA
:10429000244058D622BD1C372309249823252BD52A
:1042A00023833210241D39F324AE42C02461471009
:1042B00025B452DB24AA56DD427A1D2F43B7249140
:1042C00033F12CD733C53332243C3ABD246141B29B
:1042D00024D248B1246E4FA524C156C832EC1D2EFD
:1042E0003317258123C72B372499348B24F43AA321
:1042F000245E429B24A249A2246550A6248D57D453
:1043000022BA1C3723FE2398233D2BD6238D321D42
:10431000242B39DB244D42AC242C47EA246E51C8AF
:1043200024FD55D832401D2F33C2248F23E92CD4CD
:104330002396333F241C3ABB246B41B3243049AE4F
:10434000249D4FA0241957CD22D91D322329258D14
:1043500023162C2C24F3338E24893A9E24E8419B87
:10436000242D499F24DB4FA324DB56D322B81C38CD
:1043700023F2239823572BD82398322B243A39C47D
:1043800024EC419924F746C4242A50B5245155D22F
:1043900032061D2F33CC248E23E02CD22367334CDE
:1043A00024FD39B8247541B4248D49AB24CD4F9BED
:1043B000247157D222C61D36233B259923652C2014
:1043C000244D3391241E3A992471419C24B9489C70
:1043D00024514FA0242956D122B51C3923E7239715
:1043E00023702BD923A33238244939AC248B41853F
:1043F00024C2469E24E44EA224A454CD32CD1C2FC8
:1044000033D7248C33D82CD02339335924DE39B612
:10441000247F41B624EB49A824FC4F9724C957D7E1
:1044200022B31D3A234D25A523B52C1524A832957A
:1044300024B3399424FB409D2445489924C74E9DBC
:10444000247855D022B31C3A23DB239823892BDB15
:1044500023AE324624583995242B4172248D467957
:1044600024A04D9024F853CC32E21C2E33B3248A7E
:10447000338B2CD82326336824E639B2243141B457
:10448000247C49A824A84F98244257D022851D3463
:104490002304259D23752C1B24B0329724D13995F4
:1044A0002438419C248B4897242E4F9D242756D096
:1044B00022AC1C3D23CC2394238B2BDA23A1325B2B
:1044C000246239B52418417C24CA458024A54BAD0B
:1044D00024A453CB32F71C2D338F2488333E2CE099
:1044E0002313337724EF39AF24E440B3240D49A9D3
:1044F00024554F9924BB56CA22581D2F23BB2496FE
:1045000023342C2124B9329924F039962475419C06
:1045100024D2489524954F9E24D656D022A51C41DE
:1045200023BE2390238C2BD923943270246D39D54C
:10453000240541872408458724AB49CB245153CA1D
:10454000320C1D2C336B248633F02BE82300338789
:1045500024F839AC249640B1249E48AA24014F9AED
:10456000243456C3222B1D2A2372248F23F42B2696
:1045700024C2329B240F3A9624B3419B24194993B9
:1045800024FC4F9E248557D1229E1C4423B0238DAA
:10459000238E2BD823873285247739F524F2409156
:1045A0002446448E24B147E924FE52CA32221D2CEF
:1045B0003347248433A32BF123ED329724013AA906
:1045C000244940B0243048AB24AD4E9C24AD55BDA9
:1045D00022FE1C252329248823B42B2D24CB329E94
:1045E000242E3A9724F1419B246049922463509EE3
:1045F000243458D122971C4823A22389238F2BD7F8
:10460000237B329A2482391525E0409C24844396EA
:1046100024B7450725AB52E682331A41832623C8C7
:10462000837F2B23744F3474648B3CE364F2447AAD
:104630006493490655EA5C0A458865D562FB1921F1
:1046400063F9216863D32AC053CB311854253964E8
:10465000447740C334AC492035F3512135E259F851
:1046600042351D3A43B0246833432BAA3327330124
:1046700024193A4C24C24262248647A7242A4FB008
:1046800025C063E782B61A4E838223CE83082C2589
:1046900074A4347464D53CE86475459864E24A01B6
:1046A00055245B03459263D0627E1A24637B227695
:1046B00063F42ACE535F32195467396644B440C05C
:1046C000342C4904350151FC343859EB421C1D3D52
:1046D0004371258533DB2CC33310342224C13B5274
:1046E00024944288248849C224745091250762E9A1
:1046F00072391B5C73DE23D563912C2864FA347401
:10470000641F3DED54F945B744314CFD445F59FDFC
:10471000349C61CB52021B2853FE228453162BDC9F
:1047200043F4321B34AA396834F140BD34AC48E854
:10473000241050D8248E58DF32031D41333326A372
:1047400033742EDD23FA3444246A3D58246742AF83
:10475000248A4BDE24BE5172254F60EA72BC1B6A6C
:10476000733A24DC631A2D2A6450357464693DF26F
:10477000547D46D644804DF9449A57F634A65FC618
:1047800052851B2B5381239253382BEA4389331CC8
:1047900034EC396A342E41BA342C48CC241F4FB43F
:1047A00024E457D232EA1C4533F526C0330D30F7E6
:1047B00023E4356624123F5E243A42D6248C4DFA17
:1047C0002408535325975EEC623F1C78639724E3DB
:1047D00063A42D2D54A6357444B43DF8440147F527
:1047E00044CF4EF534D555F034B05DC142091C2F8D
:1047F000430424A1335A2BF8331E341E342F3A6D50
:10480000246C41B824AD47B1242E4E90243A57C6AB
:1048100032D21C4933B727DE33A6311124CE368875
:1048200024BB4065240D42FD248F4F16255354347C
:1048300025DF5CF862B91C7C63FA24E063B12D2E9D
:1048400054A53566444E3DEC442B46F044924DEE63
:1048500034D354EC343D5CC0422B1C2D43DD2393F8
:10486000333B2BEB3371331E34FE397024B141AB33
:10487000246448A4243E4F8B24E157C332D81C46FD
:10488000331127CE335A300A2404366A24923E5B11
:104890002471410125564E312575543B256E5C042B
:1048A00053331D81535E25DE53BF2D2F44A435594C
:1048B00044E83CE0345645EC24554CE724D153E918
:1048C00024CB5ABF324D1C2B33B62386331D2BDE2F
:1048D00023C4321E24CD397424F6419F241B4998E9
:1048E000244F5086248858C032DF1C44336B26BFC7
:1048F000230F2F04243B354D246A3C5124D5400519
:10490000251E4D4C2597544325FD5B1053AD1D8549
:1049100053C125DB53CD2D3044A3354B44823CD4C9
:10492000348044E724184BE024CF52E5245859BE84
:10493000326F1C29338F237833FF2AD12317321E7D
:10494000249C3977243B429224D2498C245F5181A4
:10495000242F59BD32E51C4233C525B023C42DFD9B
:104960002371343024423A472439400925E54B6706
:1049700025B9544B258C5B1C53281E8A532526D9F8
:1049800043DB2D3144A3353E341C3CC834AB43E3F8
:1049900034DB49DA24CE51E224E657BD32921C279B
:1049A0003368236B33E12AC4236B311F246B397BBB
:1049B0002480428624894A802470527C24D659BBA4
:1049C00022EC1C40231F25A123792CF723A83313A5
:1049D000241A383D249D3F0E25AD4A8325DC5453CF
:1049E000251B5B1F534B1E85530C26DA43042E2BCD
:1049F0004466353D34AA3BD0343E43E1347F49D947
:104A0000242951DD24A157BF32F11C2933E623703C
:104A100033142BF5230A333824293A812495428311
:104A2000246E4A8A24295286248C59C522FB1C43B1
:104A3000231C25A523672CFA23BD3312245A38766C
:104A4000240541FA24DA4977251D553D25FE5922D2
:104A5000436E1E8143F325DB332E2E25342A353C4D
:104A600024383BD824D142E0242449D8248450D887
:104A7000245D57C232501D2B3365247633472B27D4
:104A800024AA345124E73A8824AA428124544A941F
:104A900024E35190244359CF220B1D46231A25AA03
:104AA00023552CFE23D23311249B38AF246E42E7CA
:104AB0002407496C255F552725E2582543911E7C24
:104AC00043DA25DC33582E1F34EE343B24C63AE05B
:104AD000246442DE24C848D724DF4FD3241957C4A6
:104AE00032AF1D2D33E4247C337A2B582449366AA7
:104AF00024A53B8F24BF427F243A4A9E249C519A8E
:104B000024F958D9221A1D49231825AE23432C0213
:104B100024E7331024DC38E824D643D32434486116
:104B200025A0551125C6572843B51E7843C225DD5B
:104B300033822E1934B2343A24543AE924F741DD51
:104B4000246D48D7243B4FCE24D556C7320E1E3095
:104B50003363258223AD2B8A24E9378424643C9671
:104B600024D5427D24204AA9245651A524B058E3D7
:104B7000222A1D4C231625B323322C0624FC331085
:104B8000241D3921253F45C02461475625E255FCA7
:104B900024AA561F43681E7443B525D433252E0F0F
:104BA0003464343F24363AE3240242DC241249D2EE
:104BB00024844FCD242E57CA32DD1D333359258925
:104BC00023FB2B5D2498368924CA3B9524494286D1
:104BD00024C049AA24E450AB243258E1220C1D4CD5
:104BE00023DE24B3233E2C0024C8331D242B39FE9E
:104BF000243A44AC242C471E25D153E124FD5517FB
:104C0000331C1E7133A925CB23C92D052416344529
:104C100024183ADE240E42DC24B849CE24CE4FCDEF
:104C2000248757CD22AD1D37234F259123492C31A1
:104C30002448358E24303B9524BE418F246049ABF7
:104C4000247250B124B557DF22EE1C4D23A624B4A4
:104C5000234B2CFA2395332B243A39DB2435439903
:104C600024F746E724C151C62451550E33CF1D6E9B
:104C7000339D25C2236C2DFB23C8334B24FA39D82E
:104C8000241942DC245D4AC9241850CC24E057D0B2
:104C9000227D1D3A2345259923972C0424F833932C
:104CA00024963A9424324198240049AC240050B709
:104CB000243857DD22D01C4E236E24B423572CF405
:104CC00023613338244939B82430428524C246B0A0
:104CD00024B04FAB24A4540633831D6B339125B904
:104CE00033102DF2237A335124DD39D3242542DCCD
:104CF00024034BC5246250CC243958D3224D1D3E89
:104D0000233B25A123E62CD823A8329824FC3994F0
:104D100024A740A224A148AE248F4FBD24BB56DB5C
:104D200022B31C4F233624B523642CEF232E3346A5
:104D300024583995242B4172248D467924A04D9016
:104D400024F85305338F1D63333E25B333B32CF45E
:104D50002356335F24F439D224AD41D9244D4AC6B9
:104D600024F44FC9245D57D0224D1D3D2315259DA8
:104D700023D42CE323D1329824083A9024CE40A2A5
:104D800024E848A124754FB124FD56DF22BE1C53F0
:104D9000233224B423582CE92301335B246239B530
:104DA0002418417C24CA458024A54BAD24A4530477
:104DB000339C1D5B33EB24AD33572CF62332336E1B
:104DC000240C3AD2243541D6249749C724874FC6AC
:104DD000248256CD224E1D3C23F0249A23C22CEE71
:104DE00023FA329924153A8D24F640A3242F4994AE
:104DF000245C4FA5243F57E322C91C57232F24B41A
:104E0000234C2CE323D43270246D39D524054187FB
:104E10002408458724AB49CB2451530333A81D53A1
:104E2000339824A733FA2BF8230E337D24243AD267
:104E300024BD40D324E148C824194FC324A755CA30
:104E4000224E1D3B23CB249723B02CF923233399E7
:104E500024213A89241E41A32476498724434F996B
:104E6000248157E722D41C5B232C24B423402CDD5F
:104E700023A73285247739F524F240912446448EC5
:104E800024B147E924FE520333B51D4C334524A118
:104E9000339E2BFA23EA328C243C3AD2244540D06C
:104EA000242C48C924AC4EC124CC54C7224F1D3AEF
:104EB00023A62494239F2C05244C339A242E3A862F
:104EC000244641A424BD497A242A4F8D24C357EB9C
:104ED00022DF1C60232924B423342CD7237B329A6D
:104EE0002482391525E0409C2484439624B7450745
:104EF00025AB52E482251A42835E23D083D12B3026
:104F000074D03484645E3DFB64CB458264404A18AF
:104F100055C55E17458767DD62F2192B63DD217287
:104F200053F82ACE53D4312A5444397744C640DA50
:104F3000343C4A3B35B55236359C5A0343AA1D468C
:104F40004319257333B82BB633CD331124C53A5DDD
:104F500024A0436E241448B424D14FD125BA65E669
:104F600082B71A5283C523D8836A2C3374343585AB
:104F700064A63D01655C46A464AF4B1355D75C0F36
:104F8000454865D8627B1A2F636D228253152BDD4D
:104F9000537F322B5495397A441241D734A8491C97
:104FA000359E510E35D559F542871D4A43F125935B
:104FB00033742DD133C5343524963C63246443982F
:104FC00024444AD1243351AF25C163E972491B629D
:104FD000732B24E173032D38649A358764EE3D0703
:104FE00055EE46C7441E4D0F45EB5A08450A63D39C
:104FF00052051B3453FE229343332BED432B332DA9
:1050000034E7397C345E41D4241549FD248750E7C8
:10501000240F59E932641D4F33CB26B433322FEEBF
:1050200023BF355A24683E6A242943C324734CEFB6
:105030002494528D25C861EC72DB1B73739124EBB1
:10504000739C2D3B6400368864363E0D558047EADC
:10505000448D4E0B45FE580045CC60CE528E1B371A
:10506000538F23A343512BFD43D7332E34383A7E3D
:1050700034A941D1248148DF24704FBF244858DC33
:1050800032411D5333A427D533EF300A24B936807B
:10509000243A407024EE42ED24A34E0E25F5536AC7
:1050A00025D05FEF626D1C8363F924F463362E40D4
:1050B0005466368A44803E154512480C45FD4F071C
:1050C000351157F9248D5EC942181C3C432024B485
:1050D000336F2B0C34823431248A3A8124F641CF49
:1050E00024EF47C1245A4E98248157CF321F1D58B0
:1050F000337E28F633AD322724B337A5240C42770C
:1051000024B3421825D4502C2558554825D85DFD88
:1051100062EE1C88635825F0633A2E405458367965
:1051200044083E074521470645914EFD34E555F4B8
:1051300024FE5CC8423C1C3A43F923A4335B2BFE9B
:1051400033CB3331245B3A85243B42C024C348B27D
:10515000248B4F8F242C58CD32241D5533C027E487
:10516000333F311F24D9368324A53F6C2407421DC9
:1051700025634F48256F554E255C5D0A536E1D8D86
:1051800053B925ED433E2E40444B366A44913DF9D8
:105190003430460025264DF224B854F0246F5BC706
:1051A00032601C3833D2239633472BF0231333322B
:1051B000242B3A8A248042B3249649A524BD5087E3
:1051C00024D758CA322A1D54330227D323D32F178A
:1051D00024003663243F3D60245A412125F34D6469
:1051E0002587555525DF5C1853EF1D91531826EA86
:1051F00043422E41443D3659441A3DEB343F45F974
:1052000024BB4BE8248B53EB24E059C632841C3674
:1052100033AB238633342BE2235B323224FB398DCC
:1052200024C542A5246A4A9724EE517F248259C797
:10523000322F1D52334426C323672E0F24263542B6
:1052400024D93A5524AE402625834C80259E555CB2
:1052500025635C2553701E97537926E753462E41EC
:105260004430364A34A23CDD344E44F4244F4ADF05
:10527000246052E7245158C532A91C333384237863
:1052800033202BD423A5313324CC3992240A4397DD
:10529000243D4B8A24205376242D5AC522351D5097
:1052A000238625B223FB2C07244C3422247338494F
:1052B0002401402B25134B9D25B7556325E75B281B
:1052C00053831E91534D26E753682E3A44D63548F2
:1052D00034193CE434C243EE24E149DD249E51E21A
:1052E00024FA57C632041D343303247C33492B0877
:1052F000245C334D24853A96240A439124074B912C
:1053000024C7528124E459CF22451D53238325B558
:1053100023DC2C0A2456342024AD3887247A411407
:10532000252C4A9025F4554B259D5A2A43951E8BD2
:10533000432226E8438B2E33347C3546248F3BECC6
:10534000243543EA247349DC24DB50DC24A457C908
:10535000325F1D353384248133712B3D241435662F
:10536000243E3B9C240A438B24D14A982470528CBF
:10537000249D59D822561D55238025BA23BE2C0EB4
:105380002460341D24E938C424F442FD24454984B2
:10539000253256332554592D43A81E8543F625E85A
:1053A00043AD2E2C3422354424063BF424A842E598
:1053B000240449DA241950D6244E57CA32B91D356F
:1053C00033042586339A2B7124CB367F24F83BA1F6
:1053D000240A4385249B4A9F24185297245559E256
:1053E00022661D58237D25BD239F2C11246A341B62
:1053F00024243902256D44E5245E4877256F561B29
:10540000250C582F43BB1E8043CB25E933D02E25D6
:1054100034C83442247C3AFD241B42E0249748DA05
:1054200024574FD024F956CC32141E373385258C9F
:1054300023C22BA62483389924B23CA7240A437F95
:1054400024664AA824C151A3240D59EC22771D5A81
:10545000237A25C123812C152474341A2460393F02
:1054600025E645CF2477476B25AD560425C3562541
:1054700043691E7C43BE25DE33672E1A34773443DE
:10548000245B3AF2242642DF244349D424A44FCF9C
:10549000245D57CF32E51D3A337B2593231E2C74B0
:1054A0002414379C240D3CA1246D428724FF49A974
:1054B000243651AA247B58EA22541D5A233D25C282
:1054C00023912C0F243734282469391825C444B675
:1054D0002445472C257854E6241A561C33171E7889
:1054E00033B225D423FF2D0E24253445243A3AE93E
:1054F000243142DF24EF49D024F24FCF24C157D2C8
:1055000022B81D3D2370259B237A2C4324A5359F6B
:1055100024693B9C24D0418F249749AA24AA50B0E7
:1055200024EA57E822311D5B23FF24C323A12C0961
:1055300024FB3337247439F124A2439F241447EF0A
:10554000244452C82472551233C51D7433A625C98C
:1055500023962D0324D4334824193ADF243B42DF19
:10556000249B4ACA244050CE242558D5228B1D4066
:10557000236625A323D62C10243734A224C43A96BC
:1055800024334197243049AB241F50B7245857E6A1
:10559000220E1D5C23C124C323B12C0324BE334639
:1055A000247E39CA2480428624E346B1240F50ABBE
:1055B00024C9540933741D70339925BF332E2DF936
:1055C0002382334A24F839D5244742DF24484BC686
:1055D000248E50CE248958D8225D1D44235C25AAF0
:1055E00023342DDF23C832A424203A91249640A0EE
:1055F00024CA48AD24954FBE24C756E422EC1C5C57
:10560000238424C423C22CFE23823355248939A346
:10561000245E416F24B2467424DB4D8D242154084E
:1056200033831D68334125B933CA2CFB2363335AB6
:1056300024143AD424CA41DC248C4AC7241950CA01
:10564000249857D422611D43233625A6231C2DEB15
:1056500023F432A324253A8C24C240A0240D499F70
:1056600024754FB0240D57E922F61C60237A24C21A
:1056700023B22CF6234D336A248F39C2246C41792E
:1056800024FF457B24CB4BAD24E6530733941D5FA9
:1056900033E924B333682CFE2344336C24323AD4E8
:1056A000244D41D924CF49C824A64FC724A856D198
:1056B00022651D42231125A323052DF7231F33A2A5
:1056C000242C3A8924F040A12450499124554FA319
:1056D000245357ED22011D64237124C223A22CEE12
:1056E0002318337F249739E1247A4184244D45835C
:1056F00024BC49CE24AC530633A41D56339124ADAB
:1057000033052C002424337D244F3AD424D040D5B3
:10571000241349C924324FC424B755CE22691D42EF
:1057200023EC249F23ED2C03244B33A024313A8413
:10573000241D41A12493498224364F96249A57F17F
:10574000220B1D68236924C123922CE723E33294A2
:10575000249D39002587418F249B448B24AD47EF3E
:105760002473530733B41D4F333924A733A22B02BC
:105770002405338E246C3AD4245340D2245848CA8A
:1057800024BF4EC224C754CB226D1D4123C6249C86
:1057900023D72C10247733A024383A81244A41A2FD
:1057A00024D6497424174F8924E057F522151D6C1F
:1057B000236024C023822CDF23B032AA24A4391F03
:1057C0002596419A24E84393249F4510253953F8A0
:1057D00082BE1A3283F020738344289E73452FD3F0
:1057E000634734F263783C2464CC425254564A886E
:1057F0004491517F62501AB8620A23FC62592933DE
:10580000536F316453EF379F435C3DD5330A440BEC
:1058100034564A4834985287429B18BA429320F62D
:1058200032AB263133AA2C61235F339F23113AE434
:1058300023F14122249F485E24F34FEC82A91A26CB
:1058400083E42063832C289173FC2EC463A434EA80
:10585000636D3C1C64D9424C541E4A8B446E527A90
:1058600062971AB3620123F562A22930531E316296
:10587000539A379E43053DD4334C440C34DD4A459E
:10588000340D537E42E618B6426920F332D82631F1
:1058900033F52C61236A33A1236F3AE5232C422789
:1058A00024FE486024BF50E072941A1A73D9205421
:1058B0006315288463B32EB5630135E353633C1548
:1058C00044E7424644E6498E344C537552DF1AAFE2
:1058D00052F922EE52EC292D43CE30613345379EEA
:1058E00033AE3CD3338F440D24654B422483537530
:1058F000323119B3324020F03205273123412D6176
:10590000237533A323CD3AE62367422C245E4962F4
:10591000248C51D4727F1A0E73CD204563FE2777F5
:10592000636A2EA6635E35DB53583C0D44F5424056
:1059300044AE49913429547052271BAA52F022E7F1
:1059400052352A2A437D305F33F0369D33573CD29F
:1059500033D1440E24EC4B3F24F8536C327C19B005
:10596000321720ED32322731238D2D61238033A56C
:10597000232B3BE723A2423124BE4964245852C959
:10598000626B1A0363C2203663E7276B53222E979C
:1059900043BB35D4434E3C064403433B34764994E1
:1059A0003407556B426F1BA642E822E1327F2A285A
:1059B000332D305E339C369D23013CD12314450F9B
:1059C00024744C3D246E546432C719AD32EE1FEB83
:1059D0003260273123D92D62238B33A8238A3BE8F9
:1059E00023DD4236241E4A67242553C662A51A04C5
:1059F0006347213B63562873539F2EA2430236DC34
:105A0000438C3C1244954356341E4A9834B1546931
:105A1000427C1BA642C122E232F8292533EA2F5AE2
:105A2000335C369A23453CD223AD4411243A4C5A78
:105A300024ED545F32D919A8323620ED325F273871
:105A400023B02D6823D033AE23923BE723D04346C7
:105A500024AA4A78242253C352DF1A0553CD214089
:105A600053C6287C431D2FAE434A36E433CA3C1F3D
:105A70002428447124C64A9D245C546732891BA79C
:105A8000329B22E43272292223A82F56231D3698F6
:105A9000238A3CD32347441324014C77246D555B60
:105AA00032EC19A4327F20EF225F274023882D6F2C
:105AB000231534B4239B3BE723C3445624364B8938
:105AC000242053C052191B065352224553352984B2
:105AD000439A2FBA439136EC33083D2C24BA448CB8
