:020000040000FA
:100000000C94896B0D94D71D0D94AC1D0D94811D1E
:100010000D94561D0D942B1D0D94001D0D94D51C93
:100020000D94AA1C0D942D1E0D942D1E0D942D1EA5
:100030000C94BA6B0C94BA6B0C94BA6B0C94BA6BAC
:100040000C94BA6B0C94BA6B0C94BA6B0C94BA6B9C
:100050000C94BA6B0C94BA6B0C94BA6B0D94601C34
:100060000C94BA6B0D941E180D94F4170C94BA6B83
:100070000C94BA6B0C94BA6B0C94BA6B0C94BA6B6C
:100080000C94BA6B0C94BA6B0C94BA6B0D94021E60
:100090000C94BA6B0C94BA6B0C94BA6B0D9426202A
:1000A0000C94BA6B0C94BA6B0C94BA6B0C94BA6B3C
:1000B0000C94BA6B0D943A1F0C94BA6B0C94BA6BF7
:1000C0000C94BA6B0C94BA6B0C94BA6B0C94BA6B1C
:1000D0000C94BA6B0C94BA6B0C94BA6B0C94BA6B0C
:1000E0000C94BA6B0C948FA10C94CFA40D94501265
:1000F0000D94374B0D94A36A0D94CD190D946B118B
:100100000C94EC980D945E190D94C3190D94C56A66
:100110000C94AAFA0D946A120C941C8F0C94F79903
:100120000C94B59A0D948D6A0D94BF6A0C94189036
:100130000C948AA10D94C3590C94738D0C94FC8E6D
:100140000C94648F0C9471980C94B88D0C941BFBD8
:100150000D94C6120D942D110D94CB6A0D94BC6AAA
:100160000C948B700C9471FC0C94EFA20C94A39AD9
:100170000D94F20F0D941A110D946B320C943F9163
:100180000C949F700D9488320C94208F0C9485FCF5
:100190000D9480130C9490700D9478190D94EA5975
:1001A0000C944CFB0C94AF9A0C94AD8D0D94C059EB
:1001B0000D9423110C94E0FB0D94A06A0D942E6A0B
:1001C0000D94BE320C94B48D0D94E8120C94C3A41B
:1001D0000C94DF910D944A4B0D9480230D94BA59E1
:1001E0000D94FE590D94D5590D94D7190D943D19C0
:1001F0000D9427110D9408110D9459230D944D1150
:100200000C940FFC0C94CF990D9496190D94B53263
:100210000C94A3FA0D94976A0D9470190C94CCA4C5
:100220000D94C9590C9464FB0D9448110D94B55666
:100230000D94AF190D941D110C9402FC0C94448F75
:100240000C942B9A0D943B110D9453130C948170C4
:100250000D94C8110D9440120D9463120D94876A89
:100260000D94F9190D9412110D9401580D94601408
:100270000D94D26A0C947CFB0D9416110C94B7A1CA
:100280000D9468190C946BFC0C947C940C94C07FB6
:100290000D9449110D944A190D949D6A0D943F11C6
:1002A0000C94D8FB0C9486700D9498590C949BA1D7
:1002B0000D947F140D94B06A0D94E4590C94A88E9B
:1002C0000C9467910C94EDFB0D948C190D94BD5911
:1002D0000D94DA120D94B36A0D9453110C94F9FA3B
:1002E0000C949CFA0D94301A0C94DC8E0C94B1FA98
:1002F0000C947B700C94B7910D94B04B0C9442FB12
:100300000C949A700D9490320C94D2A40C9477FCB7
:100310000C9461FC0D947B580D94D2590D94555753
:100320000D94E30F0C94AE970D94CF6A0D94842531
:100330000C94C6A40C94488E0D94CF590C94B9FB20
:100340000C948F910D94E0110C9470FA0C94B2DB24
:100350000D948B320D94C6590C9485A10D94D859E7
:100360000C94BC8E0D94B8320D9460610C94688E20
:100370000D94A2690C94A5900D94E7590D94B66A5A
:100380000C9417910D94E7120C949D9A0D946C1196
:100390000C94D88D0C94B0FB0D948F690D94DF599B
:1003A0000D9497120D9414100C94C1FB0C94A7A4F7
:1003B0000D944C100C94BC960D94B96A0D94274B77
:1003C0000D9485320D94C2580C9493A20D94541937
:1003D0000C94A1A10D9482190D94DB590D94521126
:1003E0000C94848F0C9437920D9404140C94978D74
:1003F0000D94B9190D94B7590D948C790D94311150
:100400000C94C9A40D9435110D943E130D949A6A61
:100410000D9499100C94888E0C94ACDB0D944311C0
:100420000D94EB120C948CFC0D9493320D94A51941
:100430000C9425970D94C26A0C947EFC0C94BFFA20
:100440000C94AEA10D9445190D9498140C94A98D9B
:100450000D9441120D94D76A0C94A5A10D945111DD
:100460000D94BB320C94C6FA0C9495A10D94B60F62
:100470000D9406100D9497690C94319A0D94CC59F3
:100480000C94E5910D94C86A0C9486FB0D940E11A2
:100490000C9425FB0D94896A0D942F4B0C94248F9A
:1004A0000D943F120C94B8FA0C94A4700D94DD21B5
:1004B0000C94FAFB0C94A99A0C9495707C203E3E07
:1004C0003E20466C6F7720436F6E74726F6C2050C5
:1004D000532074696D6564206F7574007C20212140
:1004E00021205053204D61782050726573737572CE
:1004F000652056696F6C6174696F6E007C202121E4
:1005000021205643204D61782050726573737572B7
:10051000652056696F6C6174696F6E007C20007C89
:1005200020007C2053656C66746573742046616995
:100530006C65642050696E206E756D626572200076
:100540007C20232323204661696C6564204D6F74F1
:100550006F72205245534554000000456E67616735
:10056000696E67205368616674005475726E696EB7
:1005700067204D6F746F72204F4E007C2023232321
:100580002044697361626C696E6720616E64204506
:100590006E61626C696E67206D6F746F720000002F
:1005A000446973656E676167696E67205368616649
:1005B00074005475726E696E67204D6F746F72208F
:1005C0004F4646007C2023232320417070726F78B1
:1005D000696D6174652042564D2043656E74726189
:1005E0006C2044696120286D6D29203D20007C200D
:1005F000232323204D617820436F6D7072657373E0
:10060000696F6E20537465707320647572696E67CC
:100610002062726561746873203D20007C20232372
:1006200023204D617820436F6D7072657373696F1D
:100630006E2053746570732066726F6D20546F75F1
:10064000636820706F736974696F6E203D20007C51
:1006500020232323204241442042564D2043656EEF
:100660007472616C2044696120286D6D29203D20E1
:10067000007C2023232320424144204175746F20B5
:10068000546F756368205374657073203D20007C3F
:100690002023232320414D4255206973204249479E
:1006A0003A206175746F546F756368537465707325
:1006B0002073657420746F203020696E73746561D7
:1006C00064206F66007C20232323204D65646961CC
:1006D0006E204175746F20467265657A652053748B
:1006E000657073203D200029203D20007C202323BD
:1006F00023204175746F20467265657A65205374B6
:100700006570732028697465726174696F6E20006A
:100710007C2023232320436F6D7072657373696E91
:100720006720746F2066696E6420707265737375DC
:10073000726520647572696E67206175746F2074CC
:100740006F756368206F7065726174696F6E000009
:1007500000496E2050726F677265737300506C6150
:10076000746520506F736974696F6E696E670043BA
:100770006865636B20232564005354455053203D26
:1007800020256400002E2E2E00506F736974696F4F
:100790006E696E6720506C6174657300007C202A5E
:1007A0002A2A205265646F696E6720544F5543486A
:1007B00020706F736974696F6E007C20232323207F
:1007C000507265737375726520666F756E64206113
:1007D00074205374657073203D20007C20232323F4
:1007E00020436F6D7072657373696E6720746F203C
:1007F00066696E64207072657373757265206475C6
:1008000072696E672062656C7420666978206F700B
:1008100065726174696F6E00004D6F746F72204273
:10082000656C7400736C61636B20696E207468651D
:100830000052656D6F76696E6720616E7900000009
:10084000456E676167696E6720536861667400541E
:1008500075726E696E67204D6F746F72204F4E0017
:10086000506C65617365207761697400002E2E2ECF
:1008700000436865636B696E670025753A25303201
:10088000753A2530327500427265617468202325FF
:100890006C750028483A4D3A5329202025730000F2
:1008A0000053657373696F6E204475726174696F6C
:1008B0006E00494E53504952452D3130300041743D
:1008C0006D6F73706865726963204F323D256425D2
:1008D000250025646674206F722025646D00000079
:1008E000004C6F636174696F6E202620416C7469DF
:1008F000747564650028594553206F72204E4F2946
:10090000203F00436F6E6669726D20746F206163D3
:1009100063657074006D617920626520746F6F206B
:1009200068696768005045455020706172616D6567
:100930007465720028594553206F72204E4F29204C
:100940003F00436F6E6669726D20746F2061636350
:10095000657074006D617920626520746F6F206826
:1009600069676800504D415820706172616D65740F
:100970006572004E6F746564202859455329203FE5
:100980000042564D2C20427265617468696E672082
:10099000747562657300557073747265616D205073
:1009A0007265737375726500436865636B20666F6B
:1009B00072204C65616B616765287329004E6F7406
:1009C0006564202859455329203F0042564D2C206C
:1009D000427265617468696E672074756265730040
:1009E000446F776E73747265616D205072657373B6
:1009F00075726500436865636B20666F72204C6595
:100A0000616B61676528732900446F6E6520285902
:100A1000455329203F00427265617468696E672002
:100A200043697263756974004F50454E206D617360
:100A30006B206F70656E696E67206F660044697326
:100A4000636F6E6E6563742050617469656E7400C7
:100A50004E6F74656420285945532900696E204201
:100A60007265617468696E67204369726375697441
:100A700000526573696475616C205072657373759B
:100A80007265004641494C4544206261636175735B
:100A900065206F66004E6F746564202859455329A0
:100AA0000043616C6C205365727669636520546500
:100AB000636800436865636B205072657373757279
:100AC00065207475626573004641494C4544202D8C
:100AD000204E6F2070726573737572650025642EE9
:100AE0002564206C69747265732F6D696E00000057
:100AF00054617267657420697320285252207820EF
:100B000056542900505356204D696E757465205611
:100B10006F6C756D65004E6F746564202859455380
:100B200029203F0050726576696F757320427265A7
:100B300061746800546F6F206C6F77206475726900
:100B40006E67005072657373757265537570706F60
:100B5000727420466C6F770043616C6C2053657231
:100B600076696365205465636800436865636B203C
:100B700042564D2042616700696E207468652042CC
:100B8000564D20426167004465666F726D617469FD
:100B90006F6E20446574656374656400256C752010
:100BA00050617469656E74005768696C6520696E80
:100BB00020434D56206D6F64650044657465637411
:100BC0006564206275742049676E6F7265640049C0
:100BD0006E697469617465642062726561746873BA
:100BE0000000256C75204D616E6461746F72790030
:100BF000556E657870656374656421005768696C2B
:100C00006520696E20505356206D6F6465004272F6
:100C10006561746873206973737565640000686149
:100C200076652063726F7373656420256C75004E62
:100C30006F746564202859455329203F00506C6526
:100C4000617365207265706C6163652042564D006A
:100C50000042564D2023436F6D7072657373696F48
:100C60006E7300686176652063726F7373656420CC
:100C7000256C7500776974682061206E6577206F38
:100C80006E6500506C65617365207265706C6163A0
:100C9000652042564D000042564D2023436F6D7033
:100CA00072657373696F6E73000042564D20234363
:100CB0006F6D7072657373696F6E73000044617459
:100CC000652042564D20496E7374616C6C656400FA
:100CD000256C75204379636C6573004E6F74656491
:100CE000202859455329203F0043616C6C205365EF
:100CF0007276696365205465636800005379737484
:100D0000656D20536572766963652054696D650071
:100D1000256C75204379636C65730000496E7370B0
:100D20006972652D313030204C6F636174696F6E6C
:100D300000746F2057692D4669204E6574776F7275
:100D40006B00436F6E6E656374204C6170746F70DE
:100D50002F50686F6E650000496E73706972652D63
:100D60003130302050617469656E7400746F2057A3
:100D7000692D4669204E6574776F726B00436F6E04
:100D80006E656374204C6170746F702F50686F6E65
:100D9000650025736B67202573636D00257320251F
:100DA000737972002573202573005B25735D0050F5
:100DB000617469656E7420496E666F002D3E202552
:100DC000642E256420286C2F6D696E2900436F6E98
:100DD0006669726D20444F4E45202859455329209D
:100DE0003F0000536574204F3220466C6F772028F7
:100DF0006C2F6D696E29004D696E75746520566F94
:100E00006C2E20457374696D617465002D3E20253C
:100E1000642E256420286C2F6D696E2900436F6E47
:100E20006669726D20444F4E45202859455329204C
:100E30003F0000536574204F3220466C6F772028A6
:100E40006C2F6D696E29004D696E75746520566F43
:100E50006C756D65204368616E676500252E3230C4
:100E60007300252E3230730000000057692D46694B
:100E700020436F6E6E656374696F6E0069732075D1
:100E80006E64657267726F756E642E005468656972
:100E90007220616D617A696E672074726169740095
:100EA000756E757375616C2074726565732E004183
:100EB0007370656E73206172652076657279006368
:100EC00061727269656420627920616E696D616C1E
:100ED000732E007468652077696E64206F722061DC
:100EE0007265007365656473207468617420666C54
:100EF00079206F6E005472656573206E656564209D
:100F0000746F207370726561640063756C747572C0
:100F1000657320616C6C206F7665722E0079656157
:100F200072732075736564206279206D616E79003B
:100F3000666F7220666976652074686F7573616E7E
:100F40006400486172707320686176652065786915
:100F5000737465640068656C7073206765742069DC
:100F6000742075702E0069732066756E2E204120E6
:100F70006C696768742077696E64006E6963652CBC
:100F800020666C79696E672061206B697465005713
:100F900068656E2074686520776561746865722085
:100FA000697300746865726520697320736E6F776A
:100FB0002E00616E79776865726520776865726565
:100FC000006F7574646F6F722070617374696D6502
:100FD00000536B69696E67206973206120706F70C0
:100FE000756C617200666F756E6420696E20527553
:100FF000737369612E0074686F7573616E64207914
:10100000656172732061676F2C00666F756E642C6A
:10101000206461746573206569676874005468654D
:10102000206F6C6465737420736B692065766572DC
:1010300000416E7461726374696361206963652045
:1010400073686565740069732066726F7A656E20D7
:10105000696E2074686500667265736820776174D4
:101060006572206F6E204561727468004E696E650E
:1010700074792070657263656E74206F66004175C7
:10108000746F205265636F766572696E670053797D
:101090007374656D20697300004D6F746F72204624
:1010A00061756C74004578706563746564203E20DA
:1010B0002575206D6C004D696E75746520566F6CDA
:1010C0003D2575206D6C00436865636B205061742D
:1010D00069656E740000004C6F77204D696E757401
:1010E0006520566F6C756D6500436865636B2044C1
:1010F0004953504C4159005643204272656174680F
:101100002053657474696E67730054656D706F72F7
:101110006172696C79206368616E67656400507202
:10112000657373757265206265796F6E6420504DCA
:10113000415800436865636B20504D4158207365EA
:101140007474696E670000647572696E672050532D
:1011500020427265617468005072657373757265C0
:10116000206265796F6E6420504D41580043616C78
:101170006C2053657276696365205465636800432B
:101180006865636B20427265617468696E6720747C
:1011900075626500436865636B2050617469656EB4
:1011A00074204D61736B00544F54414C2050726554
:1011B0007373757265204C6F737300436865636B5E
:1011C000205072657373757265204C696E6573008B
:1011D000436865636B2050617469656E74204D616E
:1011E000736B00436865636B2042564D2042616714
:1011F00000536F6D65205072657373757265204C76
:1012000065616B0043616C6C205365727669636540
:101210002054656368004173706972617465205081
:10122000617469656E7400436865636B2042726522
:10123000617468696E6720747562650041697277D0
:10124000617920426C6F636B61676500256420647F
:101250006567430043616C6C205365727669636512
:1012600020546563680000746F6F206869676800C8
:101270004D6F746F722054656D7065726174757214
:101280006500256420646567430043616C6C2053EE
:1012900065727669636520546563680000746F6FDA
:1012A000206C6F77004D6F746F722054656D7065A0
:1012B000726174757265006C656164696E67207433
:1012C0006F204552524F52007468652053797374F1
:1012D000656D20737461746500507265737320507E
:1012E0004155534520746F2073686F77005B4552FA
:1012F000524F525D004272656174682023256C75FF
:1013000000506175736520496E737069726174690C
:101310006F6E0053686F7274205072657373205043
:101320004155534520746F00004272656174682016
:1013300044656C69766572790044796E616D6963A4
:10134000203D20257500537461746963203D20257C
:10135000750044796E616D6963203D20554E4B4E9A
:101360004F574E00537461746963203D20554E4BB6
:101370004E4F574E00286D6C2F636D48324F290039
:101380004C756E672044656C746156202F2044654F
:101390006C746150004272656174682023256C751D
:1013A00000000000494E53504952452D3130300065
:1013B0004272656174682023256C750045737469F9
:1013C0006D617465642056543D257500000000442D
:1013D000656C69766572656420566F6C756D6528FD
:1013E0006D6C29004272656174682023256C75005C
:1013F00053706F6E74616E656F75732042504D3D12
:10140000253275004D616E6461746F7279204250AF
:101410004D3D2532750000000042726561746873AD
:1014200020706572206D696E7574650053706F6E03
:1014300074616E656F75733D25752E2575004D6160
:101440006E6461746F72793D25752E257500546F39
:1014500074616C3D25752E2575000000004D696E88
:1014600075746520566F6C2E20286C2F6D696E295F
:10147000004D454E55202D3E205374616E646279B7
:10148000204D656E75006E6F74207265717569729E
:101490006564004F787967656E20496E666C6F777A
:1014A000004F787967656E20496E666C6F77206DA6
:1014B0007573740046694F3220736574206174201F
:1014C0002564252500526573756D6564204F706530
:1014D000726174696F6E00004D6F746F72204661A7
:1014E000756C74005265636F766572656420667210
:1014F0006F6D00446973706C61796564205061722E
:10150000616D657465727300427265617468204430
:10151000656C697665727920666F7200746F2062FF
:101520006567696E0050726573732053544152545D
:10153000005354415254202D3E205B4143544956A0
:10154000455D004D454E55202D3E205374616E641F
:101550006279204D656E75004152524F5773202DB0
:101560003E20506172616D6574657273005B535407
:10157000414E4442595D00696E2070726F6772651A
:101580007373005265636F6E6E656374206174746B
:10159000656D7074006973207374696C6C206C6F76
:1015A00073740057692D466920436F6E6E656374CE
:1015B000696F6E004D454E55202D3E205374616E6F
:1015C000646279204D656E75006E6F74207265716E
:1015D0007569726564004F787967656E20496E663B
:1015E0006C6F7700536574204F3220466C6F772004
:1015F0005261746520746F004D6179206E65656479
:101600002064656372656173696E67004368656332
:101610006B205450532073657474696E670043687F
:1016200065636B2070617469656E74206D61736BA6
:101630000050726573737572652066656C6C2074FA
:101640006F20300042726561746820666F7220619D
:10165000207768696C65004D697373696E67205304
:10166000706F6E74616E656F757300427265617440
:101670006820696E20505356206D6F646500446584
:101680006C697665726564204D616E6461746F7219
:101690007900757020746F20257320636D204832A7
:1016A0004F006F7220504545502073657474696E09
:1016B000670041646A757374205045455020766117
:1016C0006C76650000504545502064656C7461205F
:1016D0004F6273657276656400746F20636865633A
:1016E0006B2073797374656D0043616C6C20536576
:1016F000727669636520546563680067726F7373FF
:101700006C7920696E6163637572617465005469F8
:1017100064616C20566F6C756D65004368616E671F
:10172000652053657474696E67730042564D20429C
:10173000616720746F6F20736D616C6C00736574EA
:1017400020546964616C20566F6C756D6500556E30
:1017500061626C6520746F2064656C6976657200E7
:10176000436865636B20696D6D6564696174656C60
:101770007900636F756768696E6720686963637570
:101780007070696E670050617469656E74206D6970
:101790006768742062650041626E6F726D616C20D3
:1017A00042726561746800594553202D3E20436F95
:1017B0006D6D6974004368616E67652050415241E8
:1017C0004D45544552530028594553206F72204EC1
:1017D0004F29203F00436F6E6669726D20746F2041
:1017E000616363657074006D617920626520746F58
:1017F0006F2065787472656D650056542C52522CBA
:10180000454920636F6D62696E6174696F6E00286F
:10181000594553206F72204E4F29203F00436F6E71
:101820006669726D20746F20616363657074006D0A
:10183000617920626520746F6F2065787472656DC0
:10184000650050532C54505320636F6D62696E6174
:1018500074696F6E0028594553206F72204E4F29CE
:10186000203F00436F6E6669726D20746F20616364
:101870006365707400636C6F736520746F205045EE
:1018800045500050532073657474696E6720746FFF
:101890006F004E4F202D3E2043616E63656C0059F2
:1018A0004553202D3E20436F6D6D697400436F6E6C
:1018B0006669726D20746F20434F4D4D495400503E
:1018C0004152414D4554455253206368616E6765EE
:1018D00064004E6F746564202859455329203F00E9
:1018E000547279696E6720746F205265636F6E6EF3
:1018F0006563740044524F505045440057692D466B
:101900006920436F6E6E656374696F6E0043616C2E
:101910006C205365727669636520546563680000C6
:10192000435243204661696C7572650054656D7061
:10193000657261747572652053656E736F720053C2
:10194000544F5020666F6F6C696E672061726F75BF
:101950006E64210021212049474E4F5245442021E9
:1019600021005072657373656420746F67657468D5
:101970006572004D756C7469706C65204275747485
:101980006F6E73005B256C752C256C755D007C207B
:101990004040402057692D4669205245434F4E4EE6
:1019A0004543544544007C204040402057692D4623
:1019B000692044524F50504544007C202A2A2A2056
:1019C0005265636569766564205345524B45595F9E
:1019D000574946495F5245434F4E4E45435445444F
:1019E000203D007C202A2A2A20526563656976659D
:1019F00064205345524B45595F574946495F44520D
:101A00004F50504544203D005B25642C25642C2517
:101A1000642C25642C256C752C25645D005B256485
:101A20002C25642C25642C25645D002A2A2A2A2A68
:101A30002A2A2A2A2A2A2A2A2A2A2A2A2A2A2A2010
:101A40005355415254206F766572666C6F772066ED
:101A50006F72206D7367547970653D007C2023237D
:101A6000232041726475696E6F2052657365742D11
:101A7000696E67204E6F64654D63750053657373BF
:101A8000696F6E2054696D6572204F666673657468
:101A900020536563733A0053657373696F6E205406
:101AA000696D657220496E69743A005053204D414A
:101AB00058494D554D205052455353555245204598
:101AC000584345454445443A20007C203E3E3E2054
:101AD0005053206D61696E7461696E50734D6D581D
:101AE0003130203D20007C203E3E3E205053204E91
:101AF000756D626572206F6620636F6D70726573BD
:101B000073696F6E73203D20002073746570733DA0
:101B1000007C204040402050532072706D5831307E
:101B20003D005643204D4158494D554D205052459A
:101B300053535552452045584345454445443A2062
:101B4000002073746570733D007C20404040205637
:101B5000432072706D5831303D00206D696E503DEC
:101B6000007C204040402050726573737572652080
:101B70004C4F5353206D6178503D00206D696E507D
:101B80003D007C2040404020507265737375726543
:101B9000204C45414B206D6178503D00205A2D73FB
:101BA000636F72655831303D00205374616E64611B
:101BB000726420446576696174696F6E3D00204DE2
:101BC00065616E3D007C202A2A2A2053616D706C6D
:101BD000653D00494E56414C49440000000000005C
:101BE0000000000000000000000000416C61726D08
:101BF00020436F646500000000000000000000004A
:101C00000000004578636565646564204D4158496E
:101C10004D554D00000000000000005072657373C8
:101C200075726520416C6C6F776564000000000080
:101C30000000004C65616B61676520696E00000003
:101C400000000000000000000000004272656174A6
:101C500068696E67204369726375697400000000EB
:101C6000000000446973636F6E6E656374696F6E24
:101C700020696E000000000000000042726561747F
:101C800068696E67204369726375697400000000BB
:101C900000000050726573737572652053656E7332
:101CA0006F722873290000000000006E6F742077A7
:101CB0006F726B696E67000000000000000000009A
:101CC0000000004D65617375726564205045455094
:101CD00020646F65730000000000006E6F74206D5B
:101CE00061746368207365742076616C75650000AB
:101CF0000000005072657373757265207369676EBA
:101D0000616C000000000000000000646574656301
:101D10007465642061732061626E6F726D616C0026
:101D2000000000504152414D4554455220436F6ED2
:101D3000666C6963740000000000005053206C65FD
:101D40007373207468616E20504545500000000098
:101D5000000000504152414D4554455220436F6EA2
:101D6000666C696374000000000000504D4158200B
:101D70006C657373207468616E2050454550000097
:101D8000000000504152414D4554455220436F6E72
:101D9000666C696374000000000000504D415820DB
:101DA0006C657373207468616E20505300000000EE
:101DB000000000504152414D4554455220436F6E42
:101DC000666C696374000000000000545053206D7D
:101DD0006F7265207468616E202852522F3229007C
:101DE000000000556E61626C6520746F206163684D
:101DF0006965766520505300000000696E207265A9
:101E00007175697265642054505300000000000031
:101E100000000045787472656D652056430000002F
:101E200000000000000000000000005365747469A9
:101E30006E6773000000000000000000000000005A
:101E400000000045787472656D65205053000000F5
:101E50000000000000000000000000536574746979
:101E60006E6773000000000000000000000000002A
:101E70000000005053204272656174682046616919
:101E80006C75726500000000000000546F6F206DDB
:101E9000616E7920537465707300000000000000CB
:101EA000000000436F6E73697374656E637920453B
:101EB00072726F720000000000000043616C6C20C1
:101EC000536572766963652054656368000000009D
:101ED0000000004D6F746F72206E6F74206174008B
:101EE00000000000000000000000007374617274C4
:101EF000696E6720706F736974696F6E000000000F
:101F0000000000446573697265642056542C525277
:101F10002C452F4900000000000000436F6D626FE8
:101F200020756E61636869657661626C65000000AA
:101F300000000050726573737572652053656E738F
:101F40006F7200000000000000000043616C6962D5
:101F5000726174696F6E204572726F7200000000CA
:101F600000000053656C6674657374204661696C8B
:101F7000656400000000000000000043616C6C20FC
:101F800053657276696365205465636800000000DC
:101F900000000050726555736520436865636B737C
:101FA000204661696C65640000000043616C6C2030
:101FB00053657276696365205465636800000000AC
:101FC000000000506C6174657320746F2042564DA0
:101FD0002047617000000000000000524553455446
:101FE0002D43616C6C20537570706F72740000002B
:101FF0000000004D6F746F72204661756C740000B4
:102000000000000000000000000000547279696EBA
:1020100067205265636F76657279202E2E2E000040
:1020200000000053797374656D204F7665726865A2
:102030006174696E6700000000000052657374618E
:1020400072742053797374656D0000000000000005
:1020500000000053797374656D20746F6F20436FB7
:102060006C640000000000000000005265737461A1
:1020700072742053797374656D00000000000000D5
:10208000000000506C6174657320486F6D696E6765
:10209000204661696C656400000000436865636BFD
:1020A0002050726573737572652074756265730074
:1020B000000000506C6174657320486F6D696E6735
:1020C000204661696C6564000000004D61736B20FF
:1020D0004E4F54204F50454E0000000000000000BD
:1020E000000000504152414D4554455220436F6D10
:1020F000626F000000000000000000696E76616CF5
:102100006964000000000000000000000000000002
:102110000000004D6F746F72204D616C66756E63C8
:1021200074696F6E00000000000000524553455472
:102130002053797374656D000000000000000000FA
:10214000000000556E61626C6520746F2064656CE0
:102150006976657200000000000000736574205409
:102160006964616C20566F6C756D6500000000003D
:102170000000005265706C6163652042564D20423C
:10218000616700000000000000000045786365659D
:1021900064656420616C6C6F77656420757365009D
:1021A000000000556E61626C6520746F206C6F6773
:1021B00020696E0000000000000000746F20746849
:1021C000652057494649206E6574776F726B000031
:1021D00000000057692D466920506F7274616C00D1
:1021E000000000000000000000000074696D6564DC
:1021F000206F757400000000000000000000000067
:10220000000000505356204D696E75746520566F5E
:102210006C756D650000000000000062656C6F77F2
:102220002028525220782056542900000000000037
:102230000000004661696C656420746F2053796EFC
:10224000630000000000000000000052582F5458A6
:102250002062756666657273000000000000000071
:1022600000000046694F322053657474696E670040
:10227000000000000000000000000052656A656375
:102280007465640000000000000000000000000011
:1022900000000054656D706572617475726520533D
:1022A000656E736F720000000000004E6F74204670
:1022B0006F756E6400000000000000000000000068
:1022C00000000045787472656D6520504D415800DE
:1022D00000000000000000000000005365747469F5
:1022E0006E677300000000000000000000000000A6
:1022F00000000045787472656D65205045455000BA
:1023000000000000000000000000005365747469C4
:102310006E67730000000000000000000000000075
:102320000000005045455020746F6F206C6F77009F
:102330000000000000000000000000536574746994
:102340006E67730000000000000000000000000045
:1023500000000041697277617920426C6F636B65A0
:102360006400000000000000000000436865636B2B
:102370002050617469656E74000000000000000068
:10238000000000556E657870656374656420506C5C
:102390006174657300000000000000506F73697481
:1023A000696F6E00000000000000000000000000E7
:1023B00000000042564D2053697A6500000000007D
:1023C0000000000000000000000000556E61636323
:1023D00065707461626C6500000000000000000020
:1023E00000000042564D204465666F726D656400C2
:1023F0000000000000000000000000506C656173E8
:102400006520436865636B00000000000000000069
:1024100000000050532042726561746800000000A3
:102420000000000000000000000000466C6F7720F4
:10243000746F6F206C6F77000000000000000000D8
:102440000000005053204272656174680000000073
:102450000000000000000000000000504D41582026
:10246000746F6F20636C6F736520746F205053001E
:1024700000000058583A58580058582D5858582DB0
:10248000585858582028585858290058583A5858D9
:102490003A5858004A616E00466562004D6172000C
:1024A000417072004D6179004A756E004A756C008A
:1024B00041756700536570004F6374004E6F76007E
:1024C000446563004D6F6E00547565005765640088
:1024D00054687500467269005361740053756E004C
:1024E00009416C74496E4D3A0009416C74496E465D
:1024F000743A00094E616D653A004E6F7465642050
:102500002859455329203F00000053797374656DA5
:1025100020554944206973007C205E5E5E2057612F
:10252000726E696E672042757A7A657220566F6C9A
:10253000756D65203D2000446F6E65202859455318
:10254000206F72204E4F29203F00666F7220574146
:10255000524E494E4720616C61726D730042757A2C
:102560007A657220566F6C756D6500557365204BEA
:102570004E4F4220746F206368616E6765007C2057
:102580005E5E5E20496E666F2042757A7A657220C3
:10259000566F6C756D65203D2000446F6E65202878
:1025A000594553206F72204E4F29203F00666F72AD
:1025B00020494E464F20616C61726D730042757AFE
:1025C0007A657220566F6C756D6500557365204B8A
:1025D0004E4F4220746F206368616E676500285912
:1025E0004553206F72204E4F29203F0000636F6ECD
:1025F0006E656374656420746F2073797374656DA0
:102600003F004973207468657265206120555053FE
:10261000004E6F746564202859455329203F00629D
:102620006520636F6E6E656374656420746F2055FA
:1026300050530074686174207468652073797374F2
:10264000656D00497420697320455353454E5449C4
:10265000414C0053656E736F72206F70656E204140
:1026600044432076616C75655831303D002E2E2034
:102670002564202E2E007C20212121205A65726F96
:1026800020507265737375726520566F7574204F94
:10269000666673657420746F6F2068696768206D63
:1026A000765831303D0043616C6962726174696FC4
:1026B0006E204641494C4544004F66667365742060
:1026C00025642E256420284D562900204F66667308
:1026D000657420284D5658313029203D20007C203B
:1026E00023232320004E6F74656420285945532905
:1026F000203F00004D55535420626520696E73746D
:10270000616C6C6564004120484550412F484D453F
:102710002046696C746572004D65617375726564FD
:10272000204469613D2533646D6D004E6F746564AE
:10273000202859455329203F0049732042564D20F7
:102740006465666F726D6564203F0000496E636F5B
:1027500072726563742042564D2053697A65004E4B
:102760006F746564202859455329203F00746F20F9
:102770005A45524F0042564D20436F6D707265733B
:1027800073696F6E7300496E697469616C697A6907
:102790006E67206E756D6265720028594553206F13
:1027A00072204E4F29203F0000496E7374616C6C9B
:1027B00065643F005761732061206E657720425643
:1027C0004D004E6F746564202859455329203F0001
:1027D000004E6F742050726F7065726C7920426C7D
:1027E0006F636B6564004D61736B204F70656E693C
:1027F0006E67004E6F746564202859455329203F49
:10280000004C65616B616765206F72205377617062
:10281000706564005072657373757265206C696EC3
:10282000657300557073747265616D202F20446F5D
:10283000776E73747265616D007C20404040205556
:102840007073747265616D20616E6420446F776E81
:1028500073747265616D2050726573737572652053
:102860004C696E657320636F6E6E6563746564207A
:1028700070726F7065726C79007C20232323204571
:1028800052524F523A2048494748204F50454E2017
:10289000534C4F5720496E74656772616C51203DEF
:1028A00020007C20232323204552524F523A204CB3
:1028B0004F57204F50454E20534C4F5720496E7470
:1028C000656772616C51203D200000005768696C9B
:1028D00065204F50454E00534C4F5720436F6D704D
:1028E00072657373696F6E007C203E3E3E204D65BD
:1028F000617375726564204F50454E20534C4F579D
:1029000020496E74656772616C51203D2000506CE7
:10291000656173652077616974000066726F6D2070
:10292000546F75636820506F736974696F6E0043EC
:102930006865636B204C6F7720566F6C756D650012
:102940004D4158205374657073203D20256400204C
:10295000746F20007C203E3E3E2056414C4944206E
:102960004F50454E20534C4F5720496E7465677247
:10297000616C512052616E6765203D20007C2023F0
:102980002323204552524F523A2048494748204F6E
:1029900050454E204641535420496E74656772611C
:1029A0006C51203D20007C20232323204552524F90
:1029B000523A204C4F57204F50454E2046415354D9
:1029C00020496E74656772616C51203D20000000E3
:1029D0005768696C65204F50454E0046415354205E
:1029E000436F6D7072657373696F6E007C203E3E3D
:1029F0003E204D65617375726564204F50454E20D1
:102A00004641535420496E74656772616C51203D94
:102A1000200020746F20007C203E3E3E2056414C1A
:102A20004944204F50454E204641535420496E742E
:102A3000656772616C512052616E6765203D2000B0
:102A400000005768696C6520424C4F434B45440079
:102A50005045414B20507265737375726573002049
:102A6000557073747265616D20286D6D5831302911
:102A70003D007C203E3E3E204D656173757265646D
:102A8000205065616B205072657373757265732099
:102A9000446F776E73747265616D20286D6D583167
:102AA00030293D007C203E3E3E2056414C4944208A
:102AB0004D696E696D756D205045414B20507265B2
:102AC00073737572657320286D6D58313029203D00
:102AD00020007C203E3E3E204D656173757265642A
:102AE00020424C4F434B20496E74656772616C51B4
:102AF000203D20007C203E3E3E2056414C49442053
:102B0000424C4F434B204D6178696D756D20496E85
:102B100074656772616C51203D2000000057686940
:102B20006C6520424C4F434B454400464153542072
:102B3000436F6D7072657373696F6E004641494CE7
:102B40004544004D4F5245204E6578742028594524
:102B50005329203F004E6F7465642028594553293E
:102B6000203F004641494C454420256420286D6D96
:102B700048324F29007C2023232320436865636B60
:102B8000696E6720666F722070726F706572206266
:102B90007265617468696E672F70726573737572A0
:102BA00065207475626520636F6E6E656374696F0E
:102BB0006E73005265616479202859455329203F7E
:102BC000000055736520796F75722070616C6D20FF
:102BD0006669726D6C7900424C4F434B204D6173B6
:102BE0006B204F70656E696E6700446F6E652028BC
:102BF00059455329203F0000746F206368616E6758
:102C00006520504545502076616C756500557365AB
:102C1000204152524F5773206F72204B4E4F42004B
:102C2000446F6E652028594553206F72204E4F29FE
:102C3000203F00746F206265206C6F636B656400D9
:102C40006E6565647320506F702D4F6666207661E7
:102C50006C7665005072657373757265203E203422
:102C60003020636D2048324F00446F6E6520285934
:102C7000455329203F0000746F206368616E6765CB
:102C800020504D41582076616C7565005573652064
:102C90004152524F5773206F72204B4E4F42007C6F
:102CA00020232323205045455020566572696669CC
:102CB00065643D0000446573697265642050454554
:102CC0005000746F20616368696576650041646ACD
:102CD00075737420504545502076616C7665000010
:102CE00000746F2064697373697061746500576163
:102CF000697420666F722050726573737572650017
:102D00004163636570742025642E2564202859452D
:102D10005329203F0043757272656E7420504545FB
:102D2000503D25642E2564005461726765742050FF
:102D30004545503D256420636D48324F007C20237B
:102D4000232320566572696679696E672050454570
:102D5000503D00256420636D48324F00000050450F
:102D600045502076616C766520736574206174002F
:102D7000002073656373583130007C2023232320A7
:102D8000496E737069726174696F6E2050617573FA
:102D9000653D0025642E25642073656373004E6FC6
:102DA000746564202859455329203F000000496E6E
:102DB000737069726174696F6E205061757365001C
:102DC000446F6E65202859455329203F00005573F4
:102DD00065204152524F5773206F72204B4E4F4225
:102DE0000053657420496E73702E205061757365B1
:102DF000004163636570742028594553206F722029
:102E00004E4F29203F000050657263656E74207339
:102E100065742061740053494D562053796E6320C8
:102E200057696E646F7700206D6D48324F007C20CB
:102E30002323232053706F6E74616E656F7573204A
:102E4000547269676765723D0025642E2564004EE3
:102E50006F746564202859455329203F000054723F
:102E60006967676572207365742061740053706FC1
:102E70006E74616E656F757320427265617468006F
:102E8000446F6E65202859455329203F0000557333
:102E900065204152524F5773206F72204B4E4F4264
:102EA000005365742053706F6E742E2054726967DE
:102EB000676572002529002529202844656372650D
:102EC0006173653D007C2023232320466C6F7720AF
:102ED0005761726E696E67205468726573686F6CB3
:102EE00064732028496E6372656173653D007C20C0
:102EF00023232320466C6F77205761726E696E67BB
:102F000020496E74657276616C3D004E6F74656425
:102F1000202859455329203F004F322044656372D1
:102F20006561736520416C6572747300446F6E65F2
:102F3000202859455329203F0000557365204152F0
:102F4000524F5773206F72204B4E4F42004F32202A
:102F5000496E63726561736520416C6572747300BC
:102F60004163636570742028594553206F72204E69
:102F70004F29203F0000004F3220416C65727420C1
:102F80005468726573686F6C64730044656372653E
:102F9000617365202564252500496E637265617340
:102FA00065202564252500446F6E6520285945530A
:102FB000206F72204E4F29203F000055736520413D
:102FC00052524F5773206F72204B4E4F42004F3278
:102FD00020416C65727420496E74657276616C0074
:102FE0002564206D696E730044495341424C454449
:102FF00000454E41424C4544004E6F7465642028A4
:1030000059455329203F0000005354414E44425932
:10301000205045455020636865636B00285945532F
:10302000206F72204E4F29203F0000696E205354BC
:10303000414E44425920737461746500456E61626B
:103040006C65205045455020636865636B002859C6
:103050004553206F72204E4F29203F000061206EA3
:1030600065772042564D20426167203F00526570CF
:103070006C616365206F7220496E7374616C6C00C3
:103080004E6F746564202859455329203F004361E1
:103090006C6C2053657276696365205465636800C3
:1030A0006E65656473207265706C6163696E67003C
:1030B000436C6F636B2042617474657279003031C8
:1030C0003C2D20202573202825642920202D3E31E9
:1030D0003200446F6E65202859455329203F000077
:1030E000004D4F4E544800313C2D2D202025732893
:1030F00025642920202D2D3E3700446F6E65202841
:1031000059455329203F000000444159206F662053
:103110005745454B00436F727265637420285945CB
:1031200053206F72204E4F293F00436F6E74696EBB
:103130007565202859455329203F000055736520A7
:103140004B4E4F42206F722055502F444F574E0028
:10315000536574204461746520616E642054696D08
:1031600065004163636570742028594553206F7270
:10317000204E4F29203F00000053657420446174A5
:103180006520616E642054696D65002D2D2D2049E8
:103190006E76616C69642052544320737461746567
:1031A000202D20726573657420746F20312D312DB0
:1031B00031393930002323232052656164696E67F9
:1031C00020466C6167732066726F6D2045455052D2
:1031D0004F4D2074656D706F726172696C79005B20
:1031E0004D6F737420526563656E745D005B4D6F47
:1031F000737420526563656E74202D2025645D0014
:10320000566965772028594553206F72204E4F2903
:10321000203F0000436865636B65722052657375DB
:103220006C74730055502F444F574E20746F2073A9
:10323000656C65637400005265636F726473206E21
:103240006F7420666F756E640050726576204368F7
:1032500065636B65722072756E0000526573756CE4
:10326000747320466F756E64203D2025640053659D
:103270006C6563742028594553206F72204E4F2986
:10328000203F0000004E756D626572206F66205011
:10329000726576696F757300436F6E74696E7565DC
:1032A0002028594553206F72204E4F29203F004E51
:1032B0004F202F2043414E43454C20746F206578AA
:1032C0006974004152524F572F4B4E4F4220746F3A
:1032D000207363726F6C6C00537461747573207328
:1032E000637265656E7300436865636B6572207217
:1032F000756E00446F6E65202859455329203F00A4
:10330000253032643C2D2D20202530326420202DA4
:103310002D3E25303264002530346400436F6E74D6
:10332000696E7565202859455329203F00726561F3
:1033300064696E672073706565640053656C6563CE
:1033400074207375697461626C650052616E646F9C
:103350006D205465787420646973706C6179000025
:10336000436F72726563742028594553206F722031
:103370004E4F293F0052656164696E672053706546
:103380006564204F4B3F000028594553206F722041
:103390004E4F29203F000061206E65772042564D38
:1033A0003F00526561647920746F20696E737461A7
:1033B0006C6C0028594553206F72204E4F29203FD6
:1033C0000000616C726561647920696E7374616C70
:1033D0006C65643F004973207468652042564D2037
:1033E0006261670052657365742028594553206FE8
:1033F00072204E4F29203F00322E20496E73746197
:103400006C6C2042564D00312E20506F7765722D26
:103410006F66662053797374656D00466F6C6C6FD0
:10342000772073746570732062656C6F77004576E2
:103430006572792025642042726561746828732959
:10344000004E6F746564202859455329203F0000C1
:1034500077696C6C2062652073656E7400427265DA
:103460006174682057617665666F726D7300446F92
:103470006E65202859455329203F0055736520412A
:1034800052524F5773206F72204B4E4F420057617C
:103490007665666F726D20446973706C6179005354
:1034A000656C65637420496E74657276616C206624
:1034B0006F720028594553206F72204E4F29203FCC
:1034C0000000616C7265616479206B6E6F776E20AD
:1034D00057692D4669004175746F2D636F6E6E6577
:1034E000637420746F0000496E73706972652D31CA
:1034F00030302057692D466900746F2057692D467A
:1035000069204E6574776F726B00436F6E6E6563F2
:1035100074204C6170746F702F50686F6E6500502E
:103520006F737369626C652054696D656F757400A3
:103530000057692D466920496E666F004661696CC7
:10354000656420746F207265747269657665000920
:103550004F54503D00090009003C3C3C3C20576959
:103560002D666920436F6E6E656374696F6E203ED1
:103570003E3E3E007C20232323205265636569760E
:103580006564204D65737361676520007C2023238B
:1035900023205265636569766564204D65737361A8
:1035A000676520007C2023232320526563656976AC
:1035B0006564204D65737361676520007C2023235B
:1035C00023205265636569766564204D6573736178
:1035D000676520007C20232323205265636569767C
:1035E0006564204D65737361676520002E2E20256C
:1035F00064202E2E0000000057692D4669204C6F74
:1036000067696E20746F0028594553206F72204EF1
:103610004F29203F00696E207468652053797374C8
:10362000656D73205461626C65004F4E4C59206982
:1036300066205549442070726573656E7400416C54
:103640006C6F772052656D6F74652041636365739D
:1036500073004F54502069732025303464004E6F3E
:10366000746564202859455329203F000000556E99
:1036700069717565205379734944004E6F746564B0
:10368000202859455329203F000000696E207072A0
:103690006F67726573730057692D4669204C6F67B9
:1036A000696E2052657472790028594553206F72F3
:1036B000204E4F29203F0043726564656E74696136
:1036C0006C730052652D656E7465722057692D46C6
:1036D000690057692D4669204C6F67696E20466105
:1036E000696C6564210052657472792028594553CC
:1036F000206F72204E4F29203F00004661696C65A3
:103700006420535349440057692D4669204C6F6724
:10371000696E204661696C65642100285945532013
:103720006F72204E4F29203F005265747279005706
:10373000692D466920506F7274616C2054696D6503
:103740006F75740057692D4669204C6F67696E204C
:103750004661696C656421007C203E3E3E205769CD
:103760002D466920506F7274616C2054696D656FCD
:103770007574000000696E2070726F6772657373F4
:103780000057692D4669204C6F67696E007C2023C5
:103790002323204F545020666F7220446173686267
:1037A0006F617264206C6F67696E203D20004E6F00
:1037B000746564202859455329203F0054727920AC
:1037C000616761696E206C6174657200436F6E742D
:1037D000696E75696E6720776974686F75740057D4
:1037E000692D466920496E61636365737369626C14
:1037F000650028594553206F72204E4F29203F0005
:10380000005265636F6E6E656374203F00446F20E5
:10381000796F752077616E7420746F00252E3230B9
:1038200073004E6F746564202859455329203F006A
:10383000000057692D466920697320636F6E6E65BD
:1038400063746564004E6F7465642028594553297C
:10385000203F0000446973636F6E6E656374656436
:103860000057692D4669004E6F74656420285945DC
:103870005329203F0000446973636F6E6E65637463
:1038800065640057692D466920616C7265616479D1
:1038900000436F6E74696E75652028594553292061
:1038A0003F00616674657220746869732061637497
:1038B000696F6E005468656E205265636F6E6E6549
:1038C00063742057692D46690046697273742044F9
:1038D0006973636F6E6E65637400436F6E74696EB7
:1038E0007565202859455329203F00004E2F41205F
:1038F000666F7220505356206D6F64650054696482
:10390000616C20566F6C756D652052616D702D7500
:10391000700023232323232323204E6567617469CA
:1039200076652064656C6179202323232323232378
:10393000232323005053560053494D56004143560C
:1039400000434D5600204F32466C6F775831303D62
:1039500000204F325075726974793D002046694FDE
:10396000323D0020205450533D0020504D41583DE1
:103970000020504545503D002050533D00204D56FD
:103980005831303D002045493D002052523D002035
:1039900056543D007C20232323204D4F44453D00B9
:1039A0007C2023232320496E697469616C20466F53
:1039B00072776172642072706D5831303D00204121
:1039C000646A75737465643D007C20232323204959
:1039D0006E697469616C2056432073746570732E30
:1039E0002043616C696272617465643D007C2023D0
:1039F00023232056432065787472616374656420C4
:103A000066696C7465722077696E646F77203D20FB
:103A1000007C2023232320496E697469616C205047
:103A200053205461726765742050726573737572A8
:103A30006520286D6D58313029203D20007C2023E1
:103A40002323205053206578747261637465642069
:103A500066696C7465722077696E646F77203D20AB
:103A600000232323232056432043616C63756C613C
:103A7000746556744D6F746F72506172616D6574C8
:103A8000657273466F725643204641494C45442047
:103A9000616C61726D436F64653D002064656C7498
:103AA0006153746570733D0020737465707344696D
:103AB00066663D007C20232323204D415820564339
:103AC0002044656C74612053746570733A206E7580
:103AD0006D52616D70427265617468733D00206162
:103AE00073617053746570733D007C202A2A2A200C
:103AF00042616420696E697469616C5374657073A6
:103B00003D007C20232323204E756D204272656189
:103B10007468732070657220546974726174696F7F
:103B20006E3D007C20232323205065657020576163
:103B3000726E696E67204E756D20427265617468A1
:103B40007320496E74657276616C3D007C2023237E
:103B5000232041646A7573746564204D4158204484
:103B6000656C74612053746570733D007C20232361
:103B7000232041646A7573746564205461726765BB
:103B8000742049513D00206D696E73007C20232311
:103B90002320767452616D70496E4D696E7574653F
:103BA000733D002564206D696E7574657300436F05
:103BB0006E6669726D2028594553206F72204E4FF2
:103BC00029203F000052616D702D7570206170706A
:103BD000726F782074696D6500546964616C205659
:103BE0006F6C756D6500446F6E65202859455329CB
:103BF000203F000052616D702D75702061707072F1
:103C00006F782074696D6500536574205469646130
:103C10006C20566F6C756D65007C203E3E3E2044E6
:103C20004F4E4520436F6D6D697474696E67204314
:103C300068616E67657320696E20207365747469AE
:103C40006E677300207470733D002070733D002018
:103C5000706D61783D0020706565703D00206D7667
:103C60005831303D002065693D002076743D0023C9
:103C7000232323206D6F64653D00232323232053DA
:103C8000657474696E677320436F6D6D6974436802
:103C9000616E6765204661696C656420696E2043CA
:103CA000616C63756C6174654D6F746F725365748C
:103CB00074696E6773007C203E3E3E20436F6D6DDD
:103CC000697474696E67204368616E676573206903
:103CD0006E202073657474696E677300446F6E653F
:103CE000202859455329203F000055736520414540
:103CF000494F5773206F72204B4E4F4200536574EB
:103D000020505356204261636B7570204549004432
:103D10006F6E65202859455329203F000055736573
:103D2000204152524F5773206F72204B4E4F42002A
:103D300053657420505356204261636B7570205256
:103D40005200446F6E65202859455329203F0000DA
:103D5000557365204152524F5773206F72204B4E5E
:103D60004F420053657420505356204261636B7577
:103D70007020565400446F6E652028594553292001
:103D80003F0000557365204152524F5773206F72A8
:103D9000204B4E4F420053657420505356204964C7
:103DA0006C65205472696767657200416363657072
:103DB000742028594553206F72204E4F29203F0010
:103DC0000000505356204261636B7570204272654B
:103DD0006174680056543D25642052523D2564208C
:103DE00045493D25640049646C65205472696767E4
:103DF00065722025647365637300206D6D48324FD2
:103E000000204465706C6F796D656E743A200020F7
:103E10006D6D48324F2C002043616C696272617491
:103E2000696F6E3A20007C20232323205072657333
:103E300073757265733A000000004004091640B7BC
:103E40000C36406A1056401E147640D117964084B6
:103E50001BB640381FD640EB22F6409E2616415234
:103E60002A3641052E5641B93176416C3596411FAF
:103E700039B641D33CD6418640F64139441642ED2D
:103E8000473642A04B5642000000409E0814405F57
:103E90000C354020105540E1137640A11796406242
:103EA0001BB740231FD740E422F840A426184165E1
:103EB0002A3941262E5941E7317A41A8359A41687D
:103EC00039BB41293DDB41EA40FC41AB441C426C1B
:103ED000483D422C4C5D4200000040390813400828
:103EE0000C3440D60F5540A41376407217974040CB
:103EF0001BB8400F1FD940DD22FA40AB261B417989
:103F00002A3C41482E5D4116327E41E4359F41B244
:103F100039C041803DE1414F4102421D452342EB02
:103F2000484442B94C6542000000409508144045A1
:103F30000C3440F40F5440A41374405317944002BF
:103F40001BB440B21ED4406222F44011261441C179
:103F5000293441702D544120317441CF3494417F34
:103F600038B4412E3CD441DE3FF4418D4314423DF0
:103F7000473442EC4A544200000040F108164082A7
:103F80000C354013105440A413734035179240C5AC
:103F90001AB140561ED040E721EF4078250E410966
:103FA000292D41992C4C412A306B41BB338A414C1D
:103FB00037A941DD3AC8416D3EE741FE4106428FD7
:103FC00045254220494442000000406D091940EE59
:103FD0000C38406F105740F013764071179540F23F
:103FE0001AB440731ED340F421F24076251141F7F4
:103FF000283041782C4F41F92F6E417A338D41FBA7
:1040000036AC417C3ACB41FD3DEA417E410942FF5D
:104010004428428148474200000040E9091C405AB8
:104020000D3B40CC105A403D147940AE17984020CB
:104030001BB740911ED6400222F54074251441E57D
:10404000283341572C5241C82F714139339041AB2D
:1040500036AF411C3ACE418D3DED41FF400C4270E0
:10406000442B42E2474A420000004092091C4008AB
:104070000D3A407F105940F51377406B179640E199
:104080001AB440571ED340CD21F14044251041BA07
:10409000282E41302C4D41A62F6B411C338A419371
:1040A00036A841093AC7417F3DE541F64004426CDC
:1040B000442242E2474142000000403C091C40B714
:1040C0000C3A4032105840AD13764028179440A364
:1040D0001AB2401E1ED0409921EE4014250C418F8B
:1040E000282A410A2C4841852F6641003384417BB0
:1040F00036A241F639C041723DDE41ED40FC4168D7
:10410000441A42E34738420000004062091B409CC9
:104110000C3740D60F5440111370404B168D40851C
:1041200019A940BF1CC640F91FE2403323FF406E6F
:10413000261B41A8293841E22C54411C30714156BC
:10414000338D419136AA41CB39C641053DE341400B
:1041500040FF417A431C420000004089091A408216
:104160000C35407B0F504075126B406E15864067D2
:1041700018A140611BBC405A1ED7405321F2404D4C
:10418000240D41462728413F2A4341392D5E4132C3
:104190003079412C3394412536AF411E39CA41183C
:1041A0003CE541113F00420000004096091A407C66
:1041B0000C3440630F4F404A126940301584401759
:1041C000189E40FE1AB940E51DD340CB20EE40B208
:1041D000230841992623417F293D41672C58414DB1
:1041E0002F724134328D411B35A7410138C241E95C
:1041F0003ADC41CF3DF74130835B1F0B83C7243E40
:1042000083252BB1737C32F6633A392A6468407493
:1042100064C048B4544D51C1440258B662EF1BEB20
:104220006270224263542977533830DF53F63806E0
:1042300044BE3E60345E48BA34CB4FC934335581F6
:1042400042EE1BE542A1231333022A513392309FE1
:10425000239B37D923BE3F2C24604689242C4D8CC8
:1042600024EF532483B51E188397243E83AC2AACD5
:10427000736532EB63D63821641C4069643E48ADF7
:1042800054A950BD445F57B5620D1CE8627D2236CB
:1042900063582973535A30D653B0380044933E5371
:1042A000348B47B834204FBF348E547C42A71BD880
:1042B0004232230A33BD294A3331309C238137DB14
:1042C00023893F30245D4688243D4D8624095419B6
:1042D000730F1E267368243F63332AA8634F32E1AD
:1042E0006372381854D03F5F44BD47A7440550B9A6
:1042F00034BD56B5522B1CE6528B222B535D296FD1
:10430000437D30CD336B38FA33683E4634B846B718
:1043100024754EB524EA537732601BCC32C4220197
:104320003378294323D02F99236837DD23553F3431
:10433000245A4687244E4D812424540E73691D331C
:104340007338243F63BA29A3633932D7630E380F19
:1043500054843F55443C47A044614FB5341B56B488
:1043600052491CE45299221F5361296B439F30C468
:10437000332638F4333D3E3934E545B524CA4DABD8
:104380002446537232191BC0325622F83233293C6C
:10439000236F2F96234E37DF23213F38245746863D
:1043A000245F4D7C243F540363C31C4163092440B4
:1043B0006342299F532332CD43AB370744383F4BE9
:1043C00044BB469A34BE4EB2347955B442681CE2BE
:1043D00042A722143366296733C230BC33E137EF7A
:1043E00023133E2D241245B424204DA124A2526D46
:1043F00032D31AB432E821F032EE2835230E2F944E
:10440000233537E123ED3E3C2455468524704D7716
:10441000245A54F362941C3363D423426381299C4D
:1044200053FF31CE43AD370844253F5244E046A008
:10443000346D4EAF342155A6424C1CD54255221244
:10444000332C2964335F30BA338937EF23153E2F7D
:10445000244045B6243A4DA4240A536732D41AB1F5
:1044600032B221F432FE2837233B2F91230637E363
:1044700023F33E4C248D468424964D7F24CB54E474
:1044800052661C2553A0234553C1299A43DB31CFE3
:1044900043B0370934123F59240647A6241D4EADB8
:1044A00024C9549932301CC93203221033F32862D4
:1044B00023FC2FB8233237EF23183E32246E45B940
:1044C00024554DA72473536232D51AAE327C21F99C
:1044D000220E293A23692F8E23D736E623F93E5C34
:1044E00024C6468324BD4D88243C55D552371C171D
:1044F000536B234853012A9743B731D043B2370A4D
:1045000034FF3E60242C47AC24CC4DAA2471548B3C
:1045100032141CBC32B1210E33BA286023992FB655
:1045200023DB36EF231A3E34249C45BC24704DAA6D
:1045300024DB535D32D61AAB324621FE221E293DC2
:1045400023972F8B23A836E923FF3E6C24FF468256
:1045500024E44D9024AD55C652091C095337234B12
:1045600043412A95439331D133B5370C34ED3E673F
:10457000345247B2247C4DA8241A547E32F81BB022
:104580003260210C3381285E23362FB5238436F028
:10459000231D3E3724CB45BF248B4DAD24445458B6
:1045A00022D81AA822112103232F294023C52F889E
:1045B000237A36EC23053F7D24384781240B4E991E
:1045C000241E56C452891C035366234643532A8C27
:1045D000436331CD33B7370D34153F70342247ADC7
:1045E00024354DA72434547932F61BB432DE210A27
:1045F00033B5285D237D2FB323F136ED23333E34CD
:1046000024A945B024E94DAD24BD545C22061BAA63
:10461000224B21032350294123F72F8C23DB36E73C
:1046200023233F782436488724A04E97244156C33D
:1046300042091DFD4296234133662A84333431C931
:1046400023B9370E243D3F7924F346A924EE4CA626
:10465000244E547432F41BB9325C220933E9285CCD
:1046600023C52FB2235F37EA23493E31248745A271
:1046700024474EAD2436556122351BAD22862104D8
:1046800023722942232A3091233C37E323423F738C
:104690002434498D24364F96246556C142891DF72E
:1046A00042C6233C33792A7C330531C523BB370FFF
:1046B00024653F8224C346A424A74CA52468546FD4
:1046C00032F21BBE32DA2208331D295B230D30B1D2
:1046D00023CD37E7235F3E2E2465459424A54EADB8
:1046E00024AF556622631BAF22C1210423932943C3
:1046F000235C3095239D37DF23613F6E24324A933C
:1047000024CB4F95248956C0420A1EF242F6233824
:10471000338C2A7433D630C223BD3711248E3F8C9C
:10472000249446A024604CA42483546B32F01BC311
:10473000325923072352295A235530B0233B38E5F9
:1047400023763E2B2444458624044FAD2428566B03
:1047500022921BB222FC210523B52944238F309AD3
:1047600023FE37DB23803F6A24304B9A2461509428
:1047700024AD56BE42E41DF242D42334336F2A776F
:1047800033CE30C823C2371E24BC3F9924CF46A75E
:1047900024054DAB24BB546B32DB1BC2322E2306E7
:1047A00023692959235330B0232738EE23C03E4BC9
:1047B00024CE458824A74EA824F8556E22CA1BB5DE
:1047C000224B220823F8294E231731A623ED38ED7A
:1047D0002397407A24F54AB8244F50B924AE54BCEC
:1047E00032BF1DF232B3233123522A7A23C630CE90
:1047F00023C8372C24EB3FA6240B47AE24AB4DB384
:1048000024F3546C22C71BC2220323062380295998
:10481000235230B0231438F7230A3F6B2459468AB9
:10482000244A4EA324C8557122031CB9229B220B93
:10483000233B2A59239F31B323DD390024AE418A1B
:1048400024BA4AD6243E50DE24B052BA32991DF220
:104850003291232D23352A7D23BE30D423CD373A00
:10486000241A40B3244647B524504EBA242B556D24
:1048700022B31BC222D8220523972958235130B0D6
:104880002301380024543F8B24E4468C24ED4D9EB4
:1048900024985574223B1CBD22EA220E237E2A64F2
:1048A000232732BF23CC3A1324C5429A247F4AF4EB
:1048B000242D500325B150B832741DF23270232AD2
:1048C00033192A8123B630DA23D33748244940C02C
:1048D000248247BC24F64EC22464556E229F1BC21C
:1048E00022AD220523AE2958235030B023EE370ADB
:1048F000249F3FAB246F478F24904D9924685577B0
:1049000022741CC1223A231123C12A6F23B032CC56
:1049100023BC3B2624DC43AA24444A12251C5029EC
:1049200025B34EAE32061DE83214232C33302A83D1
:1049300023AB30E1230A385D245440BE245A47BAE1
:10494000248D4EBB2422556C22831BBF228C220453
:104950002369295E238330B52300380924A03FADA5
:104960002482479024774DA6243A5578226B1CC0A8
:104970002229231023CC2A6F23C332BC238A392D4A
:1049800024DF42BB24384AF6246A4BE5241D4AA59D
:1049900032981CDE32B9222F33482A8623A030E811
:1049A00023423873246040BD243347B924254EB5D3
:1049B00024E1546B22671BBC226C22042325296549
:1049C00023B630BB2313380924A13FB02495479167
:1049D000245F4DB4240D557922631CBF2218231087
:1049E00023D72A7023D732AC2358373424E241CC62
:1049F000242C4ADB24B846A22488459C322A1CD4A5
:104A0000325E2231335F2A89239530EF237938884B
:104A1000246B40BC240C47B824BC4DAE24A0546980
:104A2000224B1BB9224B220323E0286B23E930C120
:104A30002326380924A23FB324A8479224464DC117
:104A400024E0547A225A1CBE2207231023E22A7043
:104A500023EA329C2326353B24E540DD24204AC04E
:104A60002406425E24F2409332BD1BCB3203223433
:104A700033772A8C238B30F723B1389E247740BBC1
:104A800024E546B724544DA8245F5468222F1BB751
:104A9000222B2203239C2872231D31C72339380976
:104AA00024A43FB624BC4793242E4DCF24B3547B7B
:104AB00022521CBD22F6221023ED2A7123FE328DD4
:104AC00023F5324324E83FEE24154AA524543D1B28
:104AD000245D3C0F83881E3983A1257473962CD0E6
:104AE0007394341A64403C5064B642C664044EE683
:104AF000544E56F0446D5D90623C1AC462AC201D69
:104B000053EC276F53512FD05389370D44393EADA5
:104B100034D74AC434BC51C934405770428E1AC885
:104B2000420C221343D9286333F72FB733353700AC
:104B300024A93F4B243F469824644DD524F6540CB9
:104B4000833B1E3E8374257273422CCC734734150D
:104B5000648F3B47643942A864764CC7547E54C383
:104B600044B85A9E62121BD76291212C53CA2882E4
:104B7000533230ED5313382044B83E99348949BA42
:104B8000348C50BE3477567242A21ACA422A221678
:104B90004303296533F92FB93357370224A03F5116
:104BA000249946A724F54DCF2452550973EE1D4391
:104BB0007348257163ED2BCA63FB331164DF3A3F01
:104BC00054BC418B54E84AA844AE5295340358ADC6
:104BD00052E81BEA5277223C53A929954313310A24
:104BE000349F383234373F85343B48B2245C4FB46D
:104BF00024AF557432B71ACD32492219332D2968A2
:104C000023FB2FBC237A370424983F5624F446B55F
:104C100024864EC924AE550673A11D47731B25700B
:104C200063992BC663AF330D642E3A36543F416E01
:104C3000545B498944DD5068344E55BB52BE1CFE5E
:104C4000525D234B53872AA843F33127342A394531
:104C500034B63F7134ED46A9242B4EAA24E754778D
:104C600032CC1AD03268221C3357296B23FC2FBE5A
:104C7000239C3705248F3F5C244E47C424164FC322
:104C8000240A560363541D4D63EF246F63452BC400
:104C900053633309447E392E44C2405144CD476B9F
:104CA000340E4F3B349952CA42951D114343245A46
:104CB00033652BBB33D4324534B539582436405D87
:104CC000249F45A024FC4CA0241F547932E11AD320
:104CD000328722202381296E23FE2FC223BF37076C
:104CE00024873F6124A947D224A74FBD246656F9E3
:104CF000627D1D4463EF247063782BC4536333FEDD
:104D00004360393244BD405844E9477534014F503F
:104D1000345853C2427E1D0B4308245833342BB2FF
:104D2000336C32373433395424E23F5F24BB45A21D
:104D300024184DA1243C547C32181BD532682226FD
:104D400023782971231D30C023B43712248E3F6F7E
:104D5000245F47C6240D4FBB243556F052A61D3C98
:104D600053EF247153AC2BC5436433F443423937BA
:104D700034B840602406488024F44E66241854BB9E
:104D800032661D0533CE235533032BA92303322965
:104D900024B13850248E3F6124D745A524354DA237
:104DA000245A547F324F1BD83249222C2370297544
:104DB000233D30BE23A9371E24953F7C241547B9D7
:104DC00024734EBA240456E752CF1D3453EE247395
:104DD00053E02BC6436433EA4324393C34B3406880
:104DE0002422488B24E74E7B24D754B3324F1DFF37
:104DF0003293235333D32AA0239B311B2430384BC7
:104E0000243A3F6224F245A724524DA324785482C9
:104E100032861BDA322A223223672979235C30BC9E
:104E2000239D3729249C3F8A24CB46AD24D94DB9F4
:104E300024D355DE52F91D2C53EE247453142CC781
:104E4000436533E03307394234AF4070343F48960E
:104E500024DB4E91249755AC32381DF9325A235039
:104E600033A22A982332310D24AE374824E73E641A
:104E7000240F46AA24704DA52496548522BD1BDD1F
:104E8000220B22382360297E237C30BA23933735C6
:104E900024A33F98248146A1243F4DB824A255D293
:104EA00052D21D1C53A4246753CE2BB7430D33E2BB
:104EB00033093946348C40763411489624994E9201
:104EC000248155A632261DF73283234A338C2A9C2F
:104ED000234331112415384A24563F67247546A4CC
:104EE00024054EA7242F558922CA1BE02227223AE7
:104EF0002381297B239030C023D1373B24AE3F97B9
:104F0000243347A524EC4DB324E455C642AB1D0C15
:104F1000435A245A33892BA733B532E5230B394B37
:104F20002469407C24E4479824564E93246C55A071
:104F300032141DF632AD234423762AA123543115B1
:104F4000247C384C24C63F6B24DB469F249A4EA910
:104F500024C9558F22D71BE32243223D23A329795D
:104F600023A430C72310384224B93F9624E547A92B
:104F700024994EAF242656BA42841DFC4211244D7A
:104F800033442B97335E32E7230D394F244640825A
:104F900024B6479824144E942456559A32031DF58E
:104FA00032D6233E23602AA62365311924E4384EE5
:104FB0002435406E2442479924304FAB24625694E6
:104FC00022E41BE62260223F23C4297623B830CE98
:104FD000234E384924C43F95249648AD24464FAB10
:104FE000246956AF425E1DED42C7234033FF2A8736
:104FF000330632EA33103954242440892489479AED
:1050000024D24D952441559532F11CF432002438B8
:10501000334B2AAB2376311E244B395024A54071E3
:1050200024A9479424C64FAD24FC569A22F11BEACA
:10503000227C224123E6297423CD30D5238D38509C
:1050400024CF3F95244849B224F34FA724AB56AD53
:1050500042381DEE42C7234133162B8B33FA31F60B
:105060003302395B243E409024B1479C242E4E9459
:105070002488559832EB1CF632022440337E2AB540
:105080002377311E242339502499407D24A9479148
:1050900024464FA42470569B22191CEB22B42242B2
:1050A000231A2A7D233531E1230C3953247C409384
:1050B000241049B724AD4FB4245555AA32121DF01F
:1050C00032C72342332D2B8F23EE310324F4386271
:1050D000245A409824DA479E248C4E9324CF559C22
:1050E00022E61CF82203244823B22AC02378311F69
:1050F00024FB384F248E408924AA478F24C74E9C16
:1051000024E5559C22421CEE22ED2243234F2A87A0
:10511000239D31EF238B39562429419124D848BC53
:1051200024684FC1240054A832EB1CF132C623433B
:1051300033452B9323E2311024E63869247540A0CF
:10514000240248A124E94E92241756A022E11CFA19
:105150002205244F23E52ACA237A312024D3384F4D
:105160002482409524AB478C24474E932459559D67
:10517000226A1CF02225234423832A91230632FB32
:10518000230A3A5A24D6418F24A048C024234FCE64
:1051900024AA52A632C61CF332C62345335D2B9790
:1051A00023D7311D24D93871249140A8242B48A33A
:1051B00024464F92245F56A422DC1CFC220624576E
:1051C00023192BD5237C312124AC384F247740A2DE
:1051D00024AC478A24C84D8B24CE549E22931CF3C2
:1051E000225D234623B82A9B236F3209248A3A5D25
:1051F0002483428E246848C524DE4EDC245551A009
:10520000329D1CF1329E234733492B9F23D03129F5
:1052100024F13878248540A7240348A224F54E9130
:105220002424569E22A01CF522BF235123BF2AD836
:105230002389312524CD385124A140A224D8478F79
:10524000242F4E982445559C22821CF42248234248
:1052500023C52A9D2382320B2476397124FB419B7E
:10526000240148BB24874BC924E04E9B32751CEFB8
:105270003276234933362BA823CA3134240A3980A5
:10528000247940A624DB47A224A44E9124EA559910
:1052900022651CEF2279234B23662ADC2397312ACF
:1052A00024EF385424CB40A32405489424964EA5DB
:1052B00024BD559B22721CF52233233E23D22A9F04
:1052C0002395320E24623884247341A9249A47B16D
:1052D000243148B6246C4C96324D1CED324E234B93
:1052E00033232BB123C3314024233987246D40A6B7
:1052F00024B447A224524E9024B0559322291CE98D
:1053000022322345230C2ADF23A5312F24113956BD
:1053100024F540A32432489924FD4EB22434569AF1
:1053200022611CF6221E233B23DF2AA123A8321070
:10533000244E379824EB40B7243347A724DB44A3FB
:1053400024F8499232261CEC3226234E23102BBA25
:1053500023BD314C243C398F246240A5248C47A2C4
:1053600024014E902477558E22EE1BE422EC22403D
:1053700023B229E323B4313424333959242041A4FE
:10538000245F489E24654FBF24AC569922501CF7D9
:105390002209233723EC2AA423BC3213243B36AC46
:1053A000246440C524CC469D24854191248447EF44
:1053B00082B51D68837B26AA83082EEF73AC363F27
:1053C00064473F77640445196548531855505B207E
:1053D00045D9626B628A189E62E81EF9628526686A
:1053E000536B2EC2531C361544B53DFA34514DCE85
:1053F00034AE53C9344E595F422E19AC4278201452
:1054000033B12775335D2FCF23D0362824953F6BDA
:10541000241F46A8249D4D1F25FE55F482C11D64FE
:10542000835126A783D82DED732A364064493E6EFA
:10543000645644E864AE50E1545358C944115E8840
:1054400062181AC662A52023633D2892530A3005CC
:105450005477374044DE3EDF34884BBD34F851BECC
:1054600034615868429E19BD422321233349288163
:1054700033C12FD7232E372924B83F7224D646C6EE
:1054800024AD4E18259B56F972CD1D60732826A4B5
:1054900063A82DEC63A83542644C3D6654A843B81C
:1054A00044144EAA44575572344959A652A61BEFCC
:1054B0005263224D53F529BC43A9314834D3386B8C
:1054C000340740C434BF49AD244350B424755772E7
:1054D000320F1ACF32CF213233E2288E232630DF2B
:1054E000238D372B24DB3F79248E47E424BE4F11D4
:1054F000253857FE72D91D5C73FF25A163782DEA0C
:1055000063263543644E3C5D54FA4287447A4B73BC
:10551000445A521B348154C352341D1853212477EA
:1055200053AD2BE64348338B342E3A96343041A9A1
:1055300034F6479D248D4EAA2489567C327F1AE08A
:10554000327A2241337B299A238A30E723EB372CA6
:1055500024FE3F802446480225CE500A25D5570414
:1055600063E51D5963D6259F63482DE953A434454F
:1055700044513B55444D425744E0483C345E4FC48F
:1055800033B94FE142C31E4143DF25A133652D10DE
:1055900034E734CF348A3BC2245A428E242D468DC0
:1055A00024D84CA0249D558632F01AF2322623517D
:1055B00033142AA723EF30F0234A382E24214087C2
:1055C00024FE482025DF51042573580063661E56CB
:1055D000630A269E636F2DED53C8342F44133B5D41
:1055E0004456425F44F3484B34954FF1339051DFBA
:1055F00042B01E4143BC259E333C2D00347934B467
:1056000034DD3AB924AF418F2436468F24F74C9FBE
:10561000246F5591325C1BFA321E235833F329ACA8
:10562000230031EF23623842242940922431480874
:10563000258450F8249F57FD52E71E54533E269E62
:1056400053972DF143ED341A44D53A66345F4268DE
:105650002406495B24CC4F1F246753DD329D1E4234
:105660003399259B33142DF1230B349A24313AB10D
:10567000240541902440469124164D9E2442559C79
:1056800032C91B023316235F23D229B1231131EE15
:10569000237B38562431409D246447F024294FED64
:1056A00024CC56F952681F515372269E53BF2DF5D4
:1056B0004312350544973A6F346842702419496A99
:1056C0002403504D243E55DB328A1E423376259802
:1056D00033EC2CE1239D3380248539A8245B409151
:1056E0002449469324354D9D241555A732361C0A6E
:1056F000330E236623B129B6232231ED2393386A72
:10570000243940A8249746D824CE4DE224F955F6F2
:1057100052EA1F4F53A6269E43E72DFA433735F032
:10572000335A3A7834724279342C497A243B507B8C
:10573000241557DA32781E433354259533C42CD2BE
:10574000232F336624D938A024B13F9224534695A1
:1057500024554D9D24E854B222A31C122306236E27
:10576000239129BC233331EC23AC387E244240B34F
:1057700024CB45C124744CD7242655E0521C1F3538
:1057800053E2258843492DE243B734F8335C3A802D
:105790003404427C3400498024FD4F7D24CF56D30D
:1057A00032561E3B3329258A33642CDC2309336FA0
:1057B000243939A7247A409B2441479824214EA1BB
:1057C00024A255B7228E1C162303237223B229B6B6
:1057D000232931F523C83890243940B6243046C3F4
:1057E00024384DCF248755CA424E1E1C431F2573B3
:1057F00033AC2CCA33373401245E3A882496417F77
:1058000024D5488724BF4F80248A56CC32351E3495
:1058100033FE247F33042CE723E33279249A39AE14
:10582000244341A52430489C24EE4EA5245C56BD5B
:10583000227A1C1A2301237623D429B0231F31FE98
:1058400023E438A2243040B9249646C624FD4DC82E
:1058500024E855B442801D02435C245E330F2CB211
:1058600033B7330924603A902428418224A9488D13
:1058700024814F83244456C532141E2D33D32474FF
:1058800033A42BF123BD328224FB39B5240C42AE64
:10589000241F499F24BB4FA9241657C322651C1EF1
:1058A00023FF227A23F629AA23153107240039B4CD
:1058B000242740BC24FB46C824C14EC12449569F1E
:1058C00042B31CE94299234933722B9A333733127E
:1058D00024633A9824BA4086247E489424444F8610
:1058E00024FF55BF32F31D2633A8246A23442BFC22
:1058F0002397328C245C3ABC24D542B8240E4AA3A8
:10590000248850AD24D057C922511C2223FD227E69
:1059100023182AA5230B3110241D39C6241E40C08C
:10592000246147CB24864FBA24AA569C428C1CEB98
:1059300042BA234E33BD2B9F3327332524423A9856
:1059400024C140882493489124584F7D245556C63D
:1059500032FC1D2A33D6247A23942B11249B328DBA
:10596000241F3AB2247342B02484499B24E64FA1F9
:1059700024E956C822691C22231E237D233D2AAD1B
:105980002353311D242B39B9246140AC242C47B654
:10599000240C4FAF24FD559932651CEE32DB2354A5
:1059A00023092CA42317333924213A9924C9408B85
:1059B00024A9488F246D4F7424AC56CD22061E2E88
:1059C0002304258A23E42B27249F328F24E339A83C
:1059D000241242A824FB489424444F95240256C71D
:1059E00022821C23233F237C23632AB6239C312B52
:1059F000243A39AD24A4409924F746A224934EA515
:105A000024515596323E1CF132FC235A23552CA9C1
:105A10002307334D24003A9924D1408D24BE488D6C
:105A200024824F6B240357D4220F1E322332259A2F
:105A300023342C3D24A3329024A6399E24B041A0C7
:105A40002472488C24A24E89241B55C6229A1C24F9
:105A50002360237B23892ABE23E53138244939A1D9
:105A600024E7408524C2468D24194E9A24A45494D8
:105A700032181CF4321D246033A12CAE23F832619D
:105A800024E0399A24D9409024D4488B24974F623B
:105A9000245A57DB22191E36236025AA23852C534E
:105AA00024A83292246A3995244F419924E94785E4
:105AB00024004E7E243554C522B31C252381237B2C
:105AC00023AF2AC7232E324624583995242B4172FE
:105AD000248D467924A04D9024F8539332351CFA36
