:100000000C94DC6B0D94853B0D945A3B0D942F3B67
:100010000D94043B0D94D93A0D94AE3A0D94833A65
:100020000D94583A0D94DB3B0D94DB3B0D94DB3B78
:100030000C940D6C0C940D6C0C940D6C0C940D6C5C
:100040000C940D6C0C940D6C0C940D6C0C940D6C4C
:100050000C940D6C0C940D6C0C940D6C0D940E3A6C
:100060000C940D6C0D94CC350D94A2350C940D6C44
:100070000C940D6C0C940D6C0C940D6C0C940D6C1C
:100080000C940D6C0C940D6C0C940D6C0D94B03B99
:100090000C940D6C0C940D6C0C940D6C0D941E3E18
:1000A0000C940D6C0C940D6C0C940D6C0C940D6CEC
:1000B0000C940D6C0D94323D0C940D6C0C940D6CE5
:1000C0000C940D6C0C940D6C0C940D6C0C940D6CCC
:1000D0000C940D6C0C940D6C0C940D6C0C940D6CBC
:1000E0000C940D6C0C94F8A10D94252F0D949A523C
:1000F0000D94EE6A0D94B0120D940A2F0D94BE2F3C
:100100000D94C3130D942F2F0D9438670D94351350
:100110000D9491520D94F82E0C94F9C20D94F31392
:100120000D949F6B0D940E410D94F46A0D947137EC
:100130000C94A4E20D94B06A0C9443E60D94A36B66
:100140000D9485370D9499130D9498660D942B1387
:100150000C944BE50D9416140C94F1E50D94EB13EF
:100160000C94E3910D942D540D948B300D945337D2
:100170000C9478E30D947C300D94C5120C9458E3E4
:100180000D948C320D943D2F0D9435540D94BD2F4C
:100190000D94996B0D9416370D94DA120C94D8EDDA
:1001A0000D9444370D94A3520C944BA20D945C1300
:1001B0000D947A300D942B2F0C94A0EA0D942054BA
:1001C0000C94BEEE0D94382F0D9464510D94B777B6
:1001D0000C94D4F40D9483200C94C5910C9498E362
:1001E0000C9414E20D94D8660D94A62D0D940D2F49
:1001F0000D94132F0D94D2300D94EB6A0C94E0E320
:100200000D9444670D94B7120C9434EE0C9441F79E
:100210000D94DE370D94F8360C9400EE0D94A32F58
:100220000C94D0C20D9454320D94022F0C9450E8CB
:100230000D943A370D948C130D9424430D94332F61
:100240000D9438540D94A8140C94B2EE0C9410E252
:100250000D9484120D94A52F0D94F16A0D94D32D55
:100260000C9463BB0D9452130D94AB510C94A1E507
:100270000C94E8910D9493140D94E22D0D949452E6
:100280000D94A7370D94EB360D94A6310C94DE91A6
:100290000D9474130D94F8310D945D370C94D7E4DC
:1002A0000D949E300D941A300C9403F50D94303754
:1002B0000D9445540C94C9E50C94B8EE0D94A66BBE
:1002C0000D94172F0D949E4F0C9424E30C94E5C2CB
:1002D0000D9473320C94C0CD0C9434E20C94A6EEC1
:1002E0000C945BBB0C94C4E20C9479E50C94B5912E
:1002F0000D94A5300D9422310C9409A20D948D66B5
:100300000C94FAF40D945E200D94AA6A0D94BB31FE
:100310000C9492EB0D948B520C94A0E30D94023745
:100320000C941EA20C9438E30D9426370C943BF7E2
:100330000D9423310C94D8E10D9432670C94CF9135
:100340000C94E5F40D94892E0C94E0C20C94E9E130
:100350000D9432540C94D0EC0C94C0910D94231451
:100360000D94A42F0D9401310C9455EC0D94F62DA1
:100370000D94AB6B0C94DBC20D9480200D947A200D
:100380000D94A0520D9423540D9426310D94062FF4
:100390000D947D140D94AD6A0D941E370D94871441
:1003A0000D944A640C94D4910D947B370D94FE2ED9
:1003B0000D9409130D947D200D9485660C9476BBE5
:1003C0000D94392F0C94CA910C949CE30D940D1448
:1003D0000D94BE120C94E4E20D9432300D943C2E38
:1003E0000D941D2F0C94DCBB0D949D520C94EFC208
:1003F0000C9453BB0C94DFF40C94CFF40C9409EBE5
:100400000C9446A20C94ACEE0D94D3120D94966B02
:100410000D94CC120D945B6B0D949A140D94862060
:100420000C94C0E30D948E520D9467370C94D6C291
:100430000D94936B0D94212F0C9400E40D9489205E
:100440000D947B300C94D9F40D94B36A0D948D14F3
:100450000D9426540D9497520D9429540D941531F2
:100460000D94D4130C94EAC20C94D9910D94042EDB
:100470000C94F1F40D9481520D9434670D949C6B9F
:100480000D94A1140D9400140C9404E30C943AEE12
:100490000C94F4C20D9435410D94EA500D94F3364A
:1004A0000D94D53F0C94EBF40D940C370D94CC13B4
:1004B0000D943E507C5F5F5F5F5F5F5F5F5F5F5F7C
:1004C0005F5F5F5F5F5F5F7C007C202020202054A7
:1004D000656B4D6564696B61202020207C007C2069
:1004E000202020494E53504952452D313030202094
:1004F000207C00205F5F5F5F5F5F5F5F5F5F5F5FCC
:100500005F5F5F5F5F5F200000506F7765722D4F08
:100510006E003C3C205245535441525420524541B8
:10052000534F4E203E3E0000004D616E75616C20C1
:100530005245534554003C3C20524553544152547B
:1005400020524541534F4E203E3E0000436F6E7493
:10055000696E7565202859455329203F0052657002
:100560006F7274207468652070726F626C656D00C4
:100570005761746368646F67205245534554003C6B
:100580003C205245535441525420524541534F4E02
:10059000203E3E0052656164792028594553292048
:1005A0003F00466F6C6C6F7720496E737472756391
:1005B00074696F6E730000494E53504952452D3196
:1005C0003030004C4F4720435245415445443A2077
:1005D0000056657273696F6E2025642E25642E2582
:1005E0006400204B5D002043205B007C20232323FC
:1005F0002054656D7065726174757265733A200080
:100600007C202323232052657472696576696E67A6
:10061000206E6F6E20766F6C6174696C6520696EF8
:10062000666F2066726F6D20454550524F4D006ECB
:10063000766D3A204661696C6564206C6173744321
:100640006865636B526573756C74496E6465780098
:100650006E766D3A204661696C6564206E756D43F7
:100660006865636B526573756C7473006E766D3A72
:10067000204661696C65642072656164696E6750CB
:1006800061757365006E766D3A204661696C6564CC
:10069000206D61696E53657474696E6773007C20A8
:1006A0002D2D2D204E76696E666F2056657273690A
:1006B0006F6E203D20007C202D2D2D20426F617219
:1006C000642056657273696F6E203D20007C202D7A
:1006D0002D2D205357204D696E6F72205665727311
:1006E000696F6E203D20007C202D2D2D205357203A
:1006F0004D616A6F722056657273696F6E203D207E
:10070000003D3D3D3D3D3D3D3D3D3D20454550523B
:100710004F4D204845414420636F6E74656E74737D
:10072000206166746572205245534554003D3D3D3D
:100730003D3D3D3D3D3D3D204A757374204166740D
:10074000657220464143544F5259205245534554F7
:10075000007C2023232320454550524F4D206265C5
:10076000666F726520666972737420706F77657248
:10077000207570007C2023232320496E69746961F1
:100780006C697A696E6720454550524F4D2064610F
:100790007461007C2023232320466F756E642076CD
:1007A000616C69642042564D20616E64204D616326
:1007B00068696E65206379636C65206461746100AB
:1007C0007C2023232320496E76616C69642070723B
:1007D0006576696F75736C79207361766564204501
:1007E0004550524F4D2064617461007C20232323C7
:1007F00020466F756E642053797374656D2055497A
:10080000443A007C20232323205072652D657869AB
:100810007374696E672053797374656D205549440C
:100820003A0028594553206F72204E4F29203F002F
:100830000044617368626F61726420766961205759
:10084000692D466900456E61626C652052656D6F69
:10085000746520574542007C202A2A2A205261775D
:100860002041444320646F776E73747265616D201C
:10087000707265737375726520646966663D0043C6
:10088000616C6C205365727669636520546563689A
:100890000000004C6F7720426F61726420566F6CCD
:1008A000746167650025752E2530337520566F6C91
:1008B0007473007C2023232320537570706C79207F
:1008C000566F6C7461676520696E206D696C6C6928
:1008D000766F6C7473203D20000000537570706C4F
:1008E0007920566F6C7461676500436865636B6956
:1008F0006E6720426F61726420004D696E2025751D
:100900002E2530337520566F6C7473007C202323A2
:1009100023205245545259202D205A65726F20468B
:100920006C6F772064656C746150202831305820DA
:100930006D6D48324F29203D20007C202323232049
:100940005245545259202D205175697363656E7458
:1009500020446F776E414443202831305820414471
:100960004329203D20007C2023232320524554523C
:1009700059202D205175697363656E74205570413F
:10098000444320283130582041444329203D200051
:10099000004641494C4544005A45524F2043616C42
:1009A0006962726174696F6E0050726573737572FB
:1009B000652053656E736F720000005A45524F20D8
:1009C00043616C6962726174696F6E005072657325
:1009D000737572652053656E736F7200436865634B
:1009E0006B20232564007C202323232043616C6932
:1009F00062726174696E6720507265737375726597
:100A00002053656E736F7273000049324320616436
:100A100064726573732030783237004C4344206E23
:100A20006F7420666F756E6420617400007C2053C3
:100A3000656C6674657374204661696C6564202D0D
:100A4000206E6F204C4344206174206164647265A1
:100A500073732030783237000053756363657373A6
:100A600066756C6C790053656C66205465737420F0
:100A700052756E00007C202323232053656C66543E
:100A8000657374205375636365737366756C007C5E
:100A9000202A2A2A2053656C6654657374204661A7
:100AA000696C6564004E6F7465642028594553294C
:100AB000203F005573696E6720746F6461792773F6
:100AC0002064617465007768656E2042564D206928
:100AD0006E7374616C6C65640043616E277420668C
:100AE000696E64206461746500256C7520437963C8
:100AF0006C6573004E6F7465642028594553292036
:100B00003F00000042564D20496E7374616C6C20AA
:100B100044617465004E6F746564202859455329FB
:100B2000203F000053797374656D20686173206302
:100B30006F6D706C657465640053797374656D20B6
:100B40004379636C6520436F756E7400256C752066
:100B50004379636C6573007C20232323204E756DDD
:100B6000626572206F66204D616368696E6520431F
:100B700079636C65733A20007C20232323204E7513
:100B80006D626572206F662042564D20436F6D7016
:100B900072657373696F6E733A20007C2023232380
:100BA0002042564D20496E7374616C6C6174696F9C
:100BB0006E20446174653A20007C20232323205555
:100BC00073696E6720746F64617927732044617460
:100BD00065007C202A2A2A20496E76616C6964208F
:100BE00042564D20496E7374616C6C6174696F6E0E
:100BF00020446174650028594553206F72204E4F80
:100C000029203F0000496E7374616C6C6564203F5D
:100C1000005761732061206E65772042564D204257
:100C2000616700446F6E65202859455329203F00B5
:100C3000446973636F6E6E65637420506174696597
:100C40006E7400616674657220506F7765722D6FE7
:100C50006E005374617274696E672053656C662D03
:100C6000546573740023232320496E697469616C91
:100C7000697A696E67204461746520616E642054EE
:100C8000696D65002A2A2A204552524F5220434F4F
:100C90004445203D20004E6F7420506F737369628D
:100CA0006C65004D61696E74656E616E63652042AE
:100CB00072656174687300526573657420285945C4
:100CC00053206F72204E4F29203F000049727265F9
:100CD000636F76657261626C65004552524F5200D7
:100CE0007C203E3E3E204E6F7420706F73736962AD
:100CF0006C6520746F2068616E646C65206572722B
:100D00006F72007C203E3E3E2053776974636869B1
:100D10006E6720746F20506D61782046616C6C6244
:100D200061636B007C203E3E3E20537769746368AC
:100D3000696E6720746F205053562046616C6C6258
:100D400061636B007C203E3E3E2048616E646C69AE
:100D50006E67204D6F746F72205265736574007CEE
:100D6000203E3E3E204572726F722048616E646C78
:100D700065723A20436F6E74696E75696E672041C3
:100D800073206973007C202A2A2A2048616E646CD3
:100D9000696E6720457272726F722320007C203E5C
:100DA0003E3E2045787472656D6520504D41582057
:100DB0006465746563746564007C203E3E3E204536
:100DC000787472656D6520504D415820616363658C
:100DD00070746564007C203E3E3E204578747265E8
:100DE0006D65205045455020646574656374656485
:100DF000007C203E3E3E2045787472656D65205033
:100E0000454550206163636570746564007C203ED5
:100E10003E3E204C6F7720505320636F6D626F20F1
:100E20006465746563746564007C203E3E3E2045C5
:100E3000787472656D6520505320636F6D626F200A
:100E40006465746563746564007C203E3E3E204C9E
:100E50006F7720505320636F6D626F20616363650D
:100E600070746564007C203E3E3E20457874726557
:100E70006D6520505320636F6D626F206163636501
:100E800070746564007C203E3E3E20457874726537
:100E90006D6520564320636F6D626F2064657465D5
:100EA00063746564007C203E3E3E20457874726524
:100EB0006D6520564320636F6D626F2061636365CB
:100EC00070746564007C203E3E3E204578747265F7
:100ED0006D6520504D415820646574656374656488
:100EE000206F6E205354414E44425920656E7472F7
:100EF00079007C203E3E3E2045787472656D652009
:100F000050454550206465746563746564206F6E58
:100F1000205354414E44425920656E747279007CCE
:100F2000203E3E3E204C6F7720505320636F6D6211
:100F30006F206465746563746564206F6E2053541C
:100F4000414E44425920656E747279007C203E3EC9
:100F50003E2045787472656D6520505320636F6D37
:100F6000626F206465746563746564206F6E2053DE
:100F700054414E44425920656E747279007C203E83
:100F80003E3E2045787472656D6520564320636F40
:100F90006D626F206465746563746564206F6E2094
:100FA0005354414E44425920656E747279007C203E
:100FB00023232320466F72636520656E7472792047
:100FC000696E746F20205354414E444259007C2076
:100FD00023232320436F6D6D697450656E64696EC1
:100FE0006753657474696E6773207768696C6520F0
:100FF000696E205354414E444259007C20232323E0
:1010000020436F6D6D697450656E64696E675365DA
:101010007474696E6773207768696C6520696E20E7
:101020004143544956450025646674206F7220255B
:10103000646D00436F7272656374202859455320B4
:101040006F72204E4F293F0000004C6F636174693E
:101050006F6E202620416C746974756465003E3E95
:10106000204661696C65642053796E63696E672000
:10107000525820545820627566666572007C2023A1
:101080002323205265636569766564204D6573731B
:1010900061676520007C20232323205265636569F6
:1010A000766564204D65737361676520007C20233D
:1010B0002323205265636569766564204D657373EB
:1010C00061676520007C20232323205265636569C6
:1010D000766564204D65737361676520007C20230D
:1010E0002323205265636569766564204D657373BB
:1010F00061676520007C2023232320526563656996
:10110000766564204D65737361676520007C2023DC
:101110002323205265636569766564204D6573738A
:1011200061676520007C203E3E3E204C6F63617409
:10113000696F6E20506F7274616C2074696D656F99
:101140007574002E2E202564202E2E005265747298
:1011500079202859455329203F00506F7274616CE3
:101160002054696D656F7574004C6F636174696FAD
:101170006E20496E666F004661696C656420746F0D
:1011800020656E74657200436F6E74696E756520BC
:101190002859455329203F00004C6F636174696FE3
:1011A0006E20496E666F726D6174696F6E00456E78
:1011B000746572204D616E6461746F72790025737D
:1011C00079722025736B67202573636D002573206A
:1011D00025730050617469656E743A2046656D61CF
:1011E0006C6500436F727265637420285945532003
:1011F0006F72204E4F293F00000050617469656E88
:10120000743A204D616C65000945787472616374AD
:101210006564206865696768743D000952656D61A1
:10122000696E696E67207374723D00094578747247
:101230006163746564207765696768743D0009526D
:10124000656D61696E696E67207374723D00094552
:101250007874726163746564206167653D0009524A
:10126000656D61696E696E67207374723D00094532
:1012700078747261637465642067656E6465723D3D
:10128000000952656D61696E696E67207374723D05
:10129000007C2023232320526563656976656420E2
:1012A00070617469656E7420737461747320007C5E
:1012B00020232323205265636569766564204D658C
:1012C000737361676520007C2023232320526563AC
:1012D0006569766564204D65737361676520007C80
:1012E00020232323205265636569766564204D655C
:1012F000737361676520007C20232323205265637C
:101300006569766564204D65737361676520007C4F
:1013100020232323205265636569766564204D652B
:10132000737361676520007C20232323205265634B
:101330006569766564204D65737361676520007C1F
:1013400020232323205265636569766564204D65FB
:10135000737361676520007C203E3E3E20506174BF
:1013600069656E7420506F7274616C2074696D656C
:101370006F7574002E2E202564202E2E0052657469
:1013800072792028594553206F72204E4F29203FF3
:1013900000506F7274616C2054696D656F757400D4
:1013A00050617469656E7420496E666F00466169AC
:1013B0006C656420746F20656E74657200285945F1
:1013C00053206F72204E4F29203F000050617469F6
:1013D000656E7420496E666F726D6174696F6E0020
:1013E000456E746572206E65770058585858585885
:1013F0005858585858204361757365206F662052BD
:1014000065736574203D20506F7765722D6F6E2077
:101410005265736574005858585858585858585859
:1014200058204361757365206F662052657365743B
:10143000203D205761746368646F6720526573654F
:10144000740058585858585858585858582043619C
:10145000757365206F66205265736574203D204D5D
:10146000616E75616C20526573657400436F6E74B4
:10147000696E7565202859455329203F00737465AE
:10148000702D62792D737465700053797374656D76
:101490002077696C6C206775696465003C3C204668
:1014A0004952535420504F5745522D5550203E3EDF
:1014B0000052657472792028594553206F72204E6E
:1014C0004F29203F0000434845434B204641494CAB
:1014D0004544000028594553206F72204E4F292063
:1014E0003F00436F6E74696E75652052656D61696A
:1014F0006E696E673F00434845434B204641494C67
:1015000045440000524553455420616E6420506F9D
:101510007765722D446F776E000043616C6C2053C9
:101520006572766963652054656368004641494C7D
:10153000454420506F7765725570205465737473FD
:1015400000436F6E74696E756520285945532920D4
:101550003F000050415353454420506F776572550A
:10156000702054657374730053554343455353219E
:101570000053656E736972696F6E2053464D333048
:101580003230007C2040404020466C6F772053650D
:101590006E736F72203D2000436F6E74696E7565C7
:1015A000202859455329203F004152524F5773205C
:1015B0006F72204B4E4F42004E61766967617465D1
:1015C000204D454E55207573696E67005072652D2C
:1015D00055736520436865636B696E670052657477
:1015E00072792028594553206F72204E4F29203F91
:1015F00000004641494C454400007C204641494C8E
:101600002020436865636B203C003E007C20444FF3
:101610004E452020436865636B203C007C20534B83
:1016200049502020436865636B203C00285945538E
:10163000206F72204E4F29203F004F4B20746F20A7
:1016400045584954004F7468657220436865636B60
:101650007320536B6970706564004D616E646174D2
:101660006F727920436865636B73204F4B003C5267
:10167000657475726E696E6720746F204D656E7546
:101680003E00004E6F7420436F6D706C657465642E
:10169000004D616E6461746F727920436865636B9D
:1016A00073007C2023232320456E746572656420BB
:1016B0005072652D55736520436865636B730044F4
:1016C0006F6E65202859455329203F00746F2042D2
:1016D0007265617468696E672043697263756974C5
:1016E00000436F6E6E6563742050617469656E743B
:1016F00000436865636B732053756363657373663A
:10170000756C007C2023232320436F6D6D6974501A
:10171000656E64696E6753657474696E6773206F74
:101720006E20494E495449414C495A4154494F4E03
:10173000007C2023232320466972737420506F7726
:101740006572757020646F6E65202D2073617665FB
:101750006420746F20454550524F4D007C20232358
:10176000232053656E64696E6720507265737375CC
:1017700072652057617665666F726D204272656191
:1017800074682023002E2E202564202E2E00004970
:101790006E666F726D6174696F6E004E6F6E2D763E
:1017A0006F6C6174696C6500436C656172696E672A
:1017B00000526573746172742028594553206F720A
:1017C000204E4F293F0000524553544F524544008C
:1017D000466163746F72792053657474696E6773C0
:1017E0000052455345542028594553206F72204ECE
:1017F0004F29203F00004379636C657320746F208C
:101800005A45524F203F005265736574204D616305
:1018100068696E6500524553455420285945532048
:101820006F72204E4F29203F00004379636C65732F
:1018300020746F205A45524F203F005265736574E3
:101840002042564D002073746570733D006D730027
:10185000207053616D706C696E673D00296D732057
:1018600072706D5831303D28007C202323232043A3
:101870006F6D7072657373696E67204028004D410B
:1018800058494D554D2050524553535552452045CA
:10189000584345454445443A2000206D696E503D0B
:1018A000007C204040402050726573737572652043
:1018B0004C4F5353206D6178503D00206D696E5040
:1018C0003D007C2040404020507265737375726506
:1018D000204C45414B206D6178503D00205A2D73BE
:1018E000636F72655831303D00205374616E6461DE
:1018F000726420446576696174696F6E3D00204DA5
:1019000065616E3D007C202A2A2A2053616D706C2F
:10191000653D00494E56414C49440000000000001E
:101920000000000000000000000000416C61726DCA
:1019300020436F646500000000000000000000000C
:101940000000004578636565646564204D41584931
:101950004D554D0000000000000000496E73706995
:10196000726174696F6E2050726573737572650071
:101970000000004C65616B61676520696E000000C6
:101980000000000000000000000000427265617469
:1019900068696E67204369726375697400000000AE
:1019A000000000446973636F6E6E656374696F6EE7
:1019B00020696E0000000000000000427265617442
:1019C00068696E672043697263756974000000007E
:1019D00000000050726573737572652053656E73F5
:1019E0006F722873290000000000006E6F7420776A
:1019F0006F726B696E67000000000000000000005D
:101A00000000004D65617375726564205045455056
:101A100020646F65730000000000006E6F74206D1D
:101A200061746368207365742076616C756500006D
:101A30000000005072657373757265207369676E7C
:101A4000616C0000000000000000006465746563C4
:101A50007465642061732061626E6F726D616C00E9
:101A6000000000504152414D4554455220436F6E95
:101A7000666C6963740000000000005053206C65C0
:101A80007373207468616E2050454550000000005B
:101A9000000000504152414D4554455220436F6E65
:101AA000666C696374000000000000504D415820CE
:101AB0006C657373207468616E205045455000005A
:101AC000000000504152414D4554455220436F6E35
:101AD000666C696374000000000000504D4158209E
:101AE0006C657373207468616E20505300000000B1
:101AF000000000504152414D4554455220436F6E05
:101B0000666C696374000000000000545053206D3F
:101B10006F7265207468616E202852522F3229003E
:101B2000000000556E61626C6520746F206163680F
:101B30006965766520505300000000696E2072656B
:101B400071756972656420545053000000000000F4
:101B500000000045787472656D65205643000000F2
:101B6000000000000000000000000053657474696C
:101B70006E6773000000000000000000000000001D
:101B800000000045787472656D65205053000000B8
:101B9000000000000000000000000053657474693C
:101BA0006E677300000000000000000000000000ED
:101BB00000000050532042726561746820466169DC
:101BC0006C75726500000000000000546F6F206D9E
:101BD000616E79205374657073000000000000008E
:101BE000000000436F6E73697374656E63792045FE
:101BF00072726F720000000000000043616C6C2084
:101C0000536572766963652054656368000000005F
:101C10000000004D6F746F72206E6F74206174004D
:101C20000000000000000000000000737461727486
:101C3000696E6720706F736974696F6E00000000D1
:101C4000000000446573697265642056542C52523A
:101C50002C452F4900000000000000436F6D626FAB
:101C600020756E61636869657661626C650000006D
:101C700000000050726573737572652053656E7352
:101C80006F7200000000000000000043616C696298
:101C9000726174696F6E204572726F72000000008D
:101CA00000000053656C6674657374204661696C4E
:101CB000656400000000000000000043616C6C20BF
:101CC000536572766963652054656368000000009F
:101CD00000000050726555736520436865636B733F
:101CE000204661696C65640000000043616C6C20F3
:101CF000536572766963652054656368000000006F
:101D0000000000506C6174657320746F2042564D62
:101D10002047617000000000000000524553455408
:101D20002D43616C6C20537570706F7274000000ED
:101D30000000004D6F746F72204661756C74000076
:101D40000000000000000000000000547279696E7D
:101D500067205265636F76657279202E2E2E000003
:101D600000000053797374656D204F766572686565
:101D70006174696E67000000000000526573746151
:101D800072742053797374656D00000000000000C8
:101D900000000053797374656D20746F6F20436F7A
:101DA0006C64000000000000000000526573746164
:101DB00072742053797374656D0000000000000098
:101DC000000000506C6174657320486F6D696E6728
:101DD000204661696C656400000000436865636BC0
:101DE0002050726573737572652074756265730037
:101DF000000000506C6174657320486F6D696E67F8
:101E0000204661696C6564000000004D61736B20C1
:101E10004E4F54204F50454E00000000000000007F
:101E2000000000504152414D4554455220436F6DD2
:101E3000626F000000000000000000696E76616CB7
:101E400069640000000000000000000000000000C5
:101E50000000004D6F746F72204D616C66756E638B
:101E600074696F6E00000000000000524553455435
:101E70002053797374656D000000000000000000BD
:101E8000000000556E61626C6520746F2064656CA3
:101E900069766572000000000000007365742054CC
:101EA0006964616C20566F6C756D65000000000000
:101EB0000000005265706C6163652042564D2042FF
:101EC0006167000000000000000000457863656560
:101ED00064656420616C6C6F776564207573650060
:101EE000000000556E61626C6520746F206C6F6736
:101EF00020696E0000000000000000746F2074680C
:101F0000652057494649206E6574776F726B0000F3
:101F100000000057692D466920506F7274616C0093
:101F2000000000000000000000000074696D65649E
:101F3000206F757400000000000000000000000029
:101F4000000000505356204D696E75746520566F21
:101F50006C756D650000000000000062656C6F77B5
:101F600020285252207820565429000000000000FA
:101F7000000000556E61626C6520746F2064656CB2
:101F800069766572000000000000007365742050DF
:101F90007265737375726520537570706F7274001B
:101FA0000000004661696C656420746F2053796E8F
:101FB000630000000000000000000052582F545839
:101FC0002062756666657273000000000000000004
:101FD00000000046694F322053657474696E6700D3
:101FE000000000000000000000000052656A656308
:101FF00074656400000000000000000000000000A4
:1020000000000054656D70657261747572652053CF
:10201000656E736F720000000000004E6F74204602
:102020006F756E64000000000000000000000000FA
:1020300000000045787472656D6520504D41580070
:102040000000000000000000000000536574746987
:102050006E67730000000000000000000000000038
:1020600000000045787472656D652050454550004C
:102070000000000000000000000000536574746957
:102080006E67730000000000000000000000000008
:102090000000005045455020746F6F206C6F770032
:1020A0000000000000000000000000536574746927
:1020B0006E677300000000000000000000000000D8
:1020C00000000041697277617920426C6F636B6533
:1020D0006400000000000000000000436865636BBE
:1020E0002050617469656E740000000000000000FB
:1020F000000000556E657870656374656420506CEF
:102100006174657300000000000000506F73697413
:10211000696F6E0000000000000000000000000079
:1021200000000054322E350054322E300054312E2F
:10213000350054312E3000463630250046353025E6
:102140000046343025004633302500463230250025
:10215000463130250058583A58580058582D58588C
:10216000582D585858582028585858290058583A27
:1021700058583A5858004A616E00466562004D61F1
:102180007200417072004D6179004A756E004A75A7
:102190006C0041756700536570004F6374004E6FAB
:1021A0007600446563004D6F6E0054756500576599
:1021B0006400546875004672690053617400537579
:1021C0006E0009416C74496E4D3A0009416C7449C6
:1021D0006E46743A00094E616D653A004E6F746543
:1021E00064202859455329203F0000005379737417
:1021F000656D20554944206973007C205E5E5E2039
:102200005761726E696E672042757A7A65722056E0
:102210006F6C756D65203D2000446F6E65202859F8
:102220004553206F72204E4F29203F00666F722069
:102230005741524E494E4720616C61726D730042A6
:10224000757A7A657220566F6C756D650055736589
:10225000204B4E4F4220746F206368616E676500AB
:102260007C205E5E5E20496E666F2042757A7A65DC
:102270007220566F6C756D65203D2000446F6E6551
:102280002028594553206F72204E4F29203F006669
:102290006F7220494E464F20616C61726D7300422F
:1022A000757A7A657220566F6C756D650055736529
:1022B000204B4E4F4220746F206368616E6765004B
:1022C00053656E736F72206F70656E2041444320BA
:1022D00076616C75655831303D002E2E20256420C6
:1022E0002E2E007C20212121205A65726F205072F1
:1022F00065737375726520566F7574204F666673CB
:10230000657420746F6F2068696768206D76583136
:10231000303D0043616C6962726174696F6E204682
:1023200041494C4544004F66667365742025642E10
:10233000256420284D562900204F66667365742059
:10234000284D5658313029203D20007C202323235E
:10235000200028594553206F72204E4F29203F00FE
:10236000006F6C642042564D203F00436F6E7469CD
:102370006E756520776974680000746F205A455245
:102380004F0042564D20436F6D7072657373696FD5
:102390006E7300496E697469616C697A696E672051
:1023A0006E756D6265720028594553206F72204E1C
:1023B0004F29203F0000496E7374616C6C65643F67
:1023C000005761732061206E65772042564D004EA4
:1023D0006F746564202859455329203F00004E6FD3
:1023E000742050726F7065726C7920426C6F636BF1
:1023F0006564004D61736B204F70656E696E670098
:102400004E6F746564202859455329203F004C6560
:10241000616B616765206F722053776170706564CE
:10242000005072657373757265206C696E65730018
:10243000557073747265616D202F20446F776E73D1
:10244000747265616D007C2040404020557073744B
:102450007265616D20616E6420446F776E73747273
:1024600065616D205072657373757265204C696E7D
:10247000657320636F6E6E65637465642070726F40
:102480007065726C79007C20232323204552524FC3
:10249000523A2048494748204F50454E20534C4F10
:1024A0005720496E74656772616C51203D20007C35
:1024B00020232323204552524F523A204C4F57207D
:1024C0004F50454E20534C4F5720496E74656772EC
:1024D000616C51203D200000005768696C65204FF9
:1024E00050454E00534C4F5720436F6D70726573CB
:1024F00073696F6E007C203E3E3E204D65617375B2
:10250000726564204F50454E20534C4F5720496E02
:1025100074656772616C51203D2000506C65617379
:10252000652077616974000066726F6D20546F7565
:10253000636820506F736974696F6E0043686563E8
:102540006B204C6F7720566F6C756D65004D415850
:10255000205374657073203D2025640020746F2023
:10256000007C203E3E3E2056414C4944204F504581
:102570004E20534C4F5720496E74656772616C5101
:102580002052616E6765203D20007C20232323209C
:102590004552524F523A2048494748204F50454EE5
:1025A000204641535420496E74656772616C512016
:1025B0003D20007C20232323204552524F523A20B5
:1025C0004C4F57204F50454E204641535420496EA2
:1025D00074656772616C51203D2000000057686986
:1025E0006C65204F50454E004641535420436F6D5B
:1025F0007072657373696F6E007C203E3E3E204DA5
:1026000065617375726564204F50454E2046415395
:102610005420496E74656772616C51203D20002022
:10262000746F20007C203E3E3E2056414C494420A1
:102630004F50454E204641535420496E7465677291
:10264000616C512052616E6765203D20000000578B
:1026500068696C6520424C4F434B454400504541EE
:102660004B205072657373757265730020557073DB
:10267000747265616D3D007C203E3E3E204D65617B
:102680007375726564205065616B20507265737359
:102690007572657320446F776E73747265616D3DFA
:1026A000007C203E3E3E2056414C4944204D696E00
:1026B000696D756D205045414B205072657373757F
:1026C00072657320286D6D58313029203D20007CC3
:1026D000203E3E3E204D6561737572656420424C1C
:1026E0004F434B20496E74656772616C51203D20E9
:1026F000007C203E3E3E2056414C494420424C4FF7
:10270000434B204D6178696D756D20496E74656726
:1027100072616C51203D200000005768696C652093
:10272000424C4F434B4544004641535420436F6D48
:102730007072657373696F6E004641494C45440081
:102740004E6F746564202859455329203F00464147
:10275000494C454420256420286D6D48324F29009E
:102760007C2023232320436865636B696E672066A2
:102770006F722070726F706572206272656174682A
:10278000696E672F707265737375726520747562F8
:102790006520636F6E6E656374696F6E730052655A
:1027A000616479202859455329203F0000557365FD
:1027B00020796F75722070616C6D206669726D6C26
:1027C0007900424C4F434B204D61736B204F706535
:1027D0006E696E6700446F6E652028594553292045
:1027E0003F0000746F206368616E67652050454547
:1027F000502076616C756500557365204152524FCB
:102800005773206F72204B4E4F4200446F6E65200D
:1028100028594553206F72204E4F29203F00746F76
:10282000206265206C6F636B6564006E6565647320
:1028300020506F702D4F66662076616C7665005073
:1028400072657373757265203E20343020636D208D
:1028500048324F00446F6E65202859455329203F68
:102860000000746F206368616E676520504D4158A9
:102870002076616C756500557365204152524F5743
:1028800073206F72204B4E4F420020736563735864
:102890003130007C2023232320496E7370697261DC
:1028A00074696F6E2050617573653D0025642E2537
:1028B000642073656373004E6F7465642028594506
:1028C0005329203F000000496E737069726174697A
:1028D0006F6E20506175736500446F6E65202859D6
:1028E000455329203F0000557365204152524F57F0
:1028F00073206F72204B4E4F420053657420496E17
:1029000073702E2050617573650041636365707448
:102910002028594553206F72204E4F29203F000038
:1029200050657263656E7420736574206174005322
:10293000494D562053796E632057696E646F770056
:10294000206D6D48324F007C202323232053706F6D
:102950006E74616E656F7573205472696767657216
:102960003D0025642E2564004E6F7465642028594F
:10297000455329203F0000547269676765722073D0
:1029800065742061740053706F6E74616E656F754D
:10299000732042726561746800446F6E6520285927
:1029A000455329203F0000557365204152524F572F
:1029B00073206F72204B4E4F42005365742053704A
:1029C0006F6E742E20547269676765720025290046
:1029D0002529202844656372656173653D007C206C
:1029E00023232320466C6F77205761726E696E67D0
:1029F000205468726573686F6C64732028496E6335
:102A000072656173653D007C2023232320466C6F33
:102A100077205761726E696E6720496E74657276B1
:102A2000616C3D004E6F7465642028594553292020
:102A30003F004F3220446563726561736520416CCD
:102A40006572747300446F6E6520285945532920C0
:102A50003F0000557365204152524F5773206F72EB
:102A6000204B4E4F42004F3220496E6372656173B6
:102A70006520416C657274730041636365707420F6
:102A800028594553206F72204E4F29203F000000E7
:102A90004F3220416C657274205468726573686FA0
:102AA0006C647300446563726561736520256425F9
:102AB0002500496E637265617365202564252500D4
:102AC000446F6E652028594553206F72204E4F2960
:102AD000203F0000557365204152524F5773206FBD
:102AE00072204B4E4F42004F3220416C6572742071
:102AF000496E74657276616C002564206D696E7331
:102B00000044495341424C454400454E41424C45E6
:102B100044004E6F746564202859455329203F00B6
:102B200000005354414E44425920504545502063C3
:102B30006865636B0028594553206F72204E4F29FA
:102B4000203F0000696E205354414E444259207387
:102B50007461746500456E61626C65205045455036
:102B600020636865636B0028594553206F72204EBF
:102B70004F29203F000061206E65772042564D208E
:102B8000426167203F005265706C616365206F721F
:102B900020496E7374616C6C004E6F7465642028FC
:102BA00059455329203F0043616C6C205365727670
:102BB0006963652054656368006E6565647320729F
:102BC00065706C6163696E6700436C6F636B204274
:102BD0006174746572790030313C2D20202573209A
:102BE0002825642920202D3E313200446F6E652057
:102BF0002859455329203F0000004D4F4E544800AE
:102C0000313C2D2D202025732825642920202D2DB1
:102C10003E3700446F6E65202859455329203F00F8
:102C20000000444159206F66205745454B00436FD3
:102C300072726563742028594553206F72204E4F7D
:102C4000293F00436F6E74696E756520285945539E
:102C500029203F0000557365204B4E4F42206F7274
:102C60002055502F444F574E0053657420446174D3
:102C70006520616E642054696D6500416363657011
:102C8000742028594553206F72204E4F29203F0051
:102C90000000536574204461746520616E642054A3
:102CA000696D65002D2D2D20496E76616C6964205B
:102CB000525443207374617465202D2072657365CE
:102CC0007420746F20312D312D3139393000232398
:102CD000232052656164696E6720466C61677320CA
:102CE00066726F6D20454550524F4D2074656D7072
:102CF0006F726172696C79005B4D6F7374205265FD
:102D000063656E745D005B4D6F737420526563651F
:102D10006E74202D2025645D005669657720285942
:102D20004553206F72204E4F29203F0000436865B5
:102D3000636B657220526573756C74730055502F08
:102D4000444F574E20746F2073656C6563740000A8
:102D50005265636F726473206E6F7420666F756E58
:102D600064005072657620436865636B65722072FB
:102D7000756E0000526573756C747320466F756EC6
:102D800064203D2025640053656C656374202859D8
:102D90004553206F72204E4F29203F0000004E7592
:102DA0006D626572206F662050726576696F75730B
:102DB00000436F6E74696E75652028594553206F06
:102DC00072204E4F29203F004E4F202F2043414E6E
:102DD00043454C20746F2065786974004152524F0E
:102DE000572F4B4E4F4220746F207363726F6C6C81
:102DF000005374617475732073637265656E73003C
:102E0000436865636B65722072756E00446F6E6512
:102E1000202859455329203F00253032643C2D2D70
:102E200020202530326420202D2D3E2530326400B4
:102E30002530346400436F6E74696E7565202859BF
:102E4000455329203F0072656164696E6720737085
:102E50006565640053656C6563742073756974619E
:102E6000626C650052616E646F6D205465787420E9
:102E7000646973706C61790000436F72726563748A
:102E80002028594553206F72204E4F293F0052652C
:102E90006164696E67205370656564204F4B3F0025
:102EA0000028594553206F72204E4F29203F0000C3
:102EB00061206E65772042564D3F0052656164790E
:102EC00020746F20696E7374616C6C0028594553CF
:102ED000206F72204E4F29203F0000616C726561A7
:102EE000647920696E7374616C6C65643F0049732A
:102EF000207468652042564D2062616700526573F8
:102F000065742028594553206F72204E4F29203F69
:102F100000322E20496E7374616C6C2042564D0055
:102F2000312E20506F7765722D6F6666205379734E
:102F300074656D00466F6C6C6F7720737465707389
:102F40002062656C6F770045766572792025642074
:102F5000427265617468287329004E6F746564203D
:102F60002859455329203F000077696C6C20626521
:102F70002073656E740042726561746820576176D3
:102F800065666F726D7300446F6E652028594553F6
:102F900029203F0000557365204152524F5773203E
:102FA0006F72204B4E4F420053656C65637420492D
:102FB0006E74657276616C004E6F7465642028597A
:102FC000455329203F00006F662042726561746896
:102FD0002057617665666F726D73004E6F20506585
:102FE00072696F64696320646973706C6179002829
:102FF000594553206F72204E4F29203F006F6620A5
:103000004272656174682057617665666F726D7390
:1030100000506572696F64696320646973706C61E4
:10302000790053656C65637420496E7465727661CE
:103030006C20666F720028594553206F72204E4FE6
:1030400029203F006F6620427265617468205761D5
:103050007665666F726D7300506572696F6469633F
:1030600020646973706C61790043616E63656C20E4
:10307000496E74657276616C20666F7200285945DE
:1030800053206F72204E4F29203F0000616C726503
:10309000616479206B6E6F776E2057692D466900E9
:1030A0004175746F2D636F6E6E65637420746F006D
:1030B00000496E73706972652D3130302057692D6B
:1030C000466900746F2057692D4669204E657477F4
:1030D0006F726B00436F6E6E656374204C61707429
:1030E0006F702F50686F6E6500506F737369626CFC
:1030F000652054696D656F7574000057692D4669C8
:1031000020496E666F004661696C656420746F20AB
:10311000726574726965766500094F54503D000907
:103120000009003C3C3C3C2057692D666920436FF8
:103130006E6E656374696F6E203E3E3E3E007C207D
:10314000232323205265636569766564204D65738A
:103150007361676520007C2023232320526563650B
:1031600069766564204D65737361676520007C2016
:10317000232323205265636569766564204D65735A
:103180007361676520007C202323232052656365DB
:1031900069766564204D65737361676520007C20E6
:1031A000232323205265636569766564204D65732A
:1031B0007361676520002E2E202564202E2E0000CE
:1031C000000057692D4669204C6F67696E20746F47
:1031D0000028594553206F72204E4F29203F006927
:1031E0006E207468652053797374656D7320546123
:1031F000626C65004F4E4C59206966205549442049
:1032000070726573656E7400416C6C6F77205265E7
:103210006D6F746520416363657373004F54502074
:1032200069732025303464004E6F7465642028591A
:10323000455329203F000000556E69717565205384
:1032400079734944004E6F746564202859455329A9
:10325000203F000000696E2070726F6772657373A3
:103260000057692D4669204C6F67696E205265745E
:1032700072790028594553206F72204E4F29203F04
:10328000000052657472792070726576696F75738B
:1032900020535349440057692D4669204C6F676994
:1032A0006E204661696C6564210028594553206F82
:1032B00072204E4F29203F0043726564656E746929
:1032C000616C730052652D656E7465722057692DAF
:1032D00046690057692D4669204C6F67696E204624
:1032E00061696C6564210028594553206F72204E36
:1032F0004F29203F0052657472790057692D466945
:1033000020506F7274616C2054696D656F75740024
:1033100057692D4669204C6F67696E204661696C5C
:10332000656421007C203E3E3E2057692D46692081
:10333000506F7274616C2054696D656F7574000014
:1033400000696E2070726F67726573730057692D24
:103350004669204C6F67696E007C20232323204F31
:10336000545020666F722044617368626F617264AA
:10337000206C6F67696E203D20004E6F746564207D
:103380002859455329203F005472792061676169AB
:103390006E206C6174657200436F6E74696E75693E
:1033A0006E6720776974686F75740057692D466978
:1033B00020496E61636365737369626C6500252ED5
:1033C000323073000000436F6E6E65637465642075
:1033D000746F0057692D466920616C72656164796C
:1033E0000020746F74616C53616D706C65733D0087
:1033F0007C20404040204C41535420446F776E73F2
:10340000747265616D20704D6D3D0020707265763F
:1034100044656C7461505831303D007C2040404020
:10342000205245414C2053706F6E7420547269676E
:1034300067657220704D6D3D002070726576446541
:103440006C7461505831303D007C20404040204633
:10345000414B452053706F6E7420547269676765E5
:103460007220704D6D3D007C2040404020547269B8
:103470006767657220636865636B20546F6F2066B1
:1034800065772073616D706C6573007C20404040EF
:10349000205472696767657220636865636B204FAB
:1034A00075746C696572205654007C204040402041
:1034B0005472696767657220636865636B204F7536
:1034C000746C696572205065616B007C20404040DF
:1034D000205472696767657220636865636B204179
:1034E000697277617920426C6F636B6564007C2040
:1034F0004040402054726967676572206368656365
:103500006B205072657373757265204C65616B003A
:103510007C20404040205472696767657220636870
:1035200065636B205072657373757265204C6F73A1
:10353000730020515371756172653D007C203E3EE1
:103540003E205465726D696E6174696E6720466CC9
:103550006F77436F6E74726F6C2050532062726588
:103560006174682C207065616B515371756172656F
:103570003D007C203E3E3E20466C6F7720436F6EC0
:1035800074726F6C2050532074696D6564206F7580
:1035900074007C203E3E3E2054696D6520436F6E72
:1035A00074726F6C2050532074696D6564206F7560
:1035B00074007C20007C20007C2053656C66746560
:1035C0007374204661696C65642050696E206E7565
:1035D0006D62657220007C20232323204661696C84
:1035E0006564204D6F746F7220524553455400003E
:1035F00000456E676167696E672053686166740095
:103600005475726E696E67204D6F746F72204F4EE5
:10361000007C202323232044697361626C696E67F8
:1036200020616E6420456E61626C696E67206D6F0B
:10363000746F72000000446973656E676167696E3C
:1036400067205368616674005475726E696E6720F6
:103650004D6F746F72204F4646007C202323232039
:10366000417070726F78696D6174652042564D20AB
:1036700043656E7472616C2044696120286D6D2908
:10368000203D20007C20232323204D617820436FA0
:103690006D7072657373696F6E20537465707320FB
:1036A000647572696E672062726561746873203D2B
:1036B00020007C20232323204D617820436F6D70F0
:1036C00072657373696F6E205374657073206672D0
:1036D0006F6D20546F75636820706F736974696FC4
:1036E0006E203D20007C20232323204241442041A2
:1036F00075746F20546F7563682053746570732000
:103700003D20007C2023232320414D425520697316
:10371000204249473A206175746F546F756368534E
:10372000746570732073657420746F203020696E27
:103730007374656164206F66007C20232323204D11
:10374000656469616E204175746F20467265657AA3
:1037500065205374657073203D200029203D2000B2
:103760007C20232323204175746F20467265657A7F
:10377000652053746570732028697465726174697B
:103780006F6E20007C2023232320436F6D707265B1
:103790007373696E6720746F2066696E642070723F
:1037A00065737375726520647572696E67206175E3
:1037B000746F20746F756368206F706572617469CF
:1037C0006F6E000000496E2050726F6772657373F0
:1037D00000506C61746520506F736974696F6E6915
:1037E0006E6700436865636B20232564005354456E
:1037F0005053203D20256400002E2E2E00506F7364
:103800006974696F6E696E6720506C6174657300CE
:10381000007C202A2A2A205265646F696E67205432
:103820004F55434820706F736974696F6E007C2038
:1038300023232320507265737375726520666F753C
:103840006E64206174205374657073203D20007C89
:103850002023232320436F6D7072657373696E6735
:1038600020746F2066696E64207072657373757260
:103870006520647572696E672062656C7420666984
:1038800078206F7065726174696F6E00004D6F749F
:103890006F722042656C7400736C61636B20696E9B
:1038A000207468650052656D6F76696E6720616E81
:1038B00079000000456E676167696E672053686133
:1038C0006674005475726E696E67204D6F746F7206
:1038D000204F4E00506C65617365207761697400FC
:1038E000002E2E2E00436865636B696E6700257598
:1038F0003A253032753A253032750042726561746E
:10390000682023256C750028483A4D3A5329202019
:10391000257300000053657373696F6E20447572E0
:103920006174696F6E00494E53504952452D3130D4
:10393000300041746D6F73706865726963204F3237
:103940003D256425250025646674206F722025645A
:103950006D000000004C6F636174696F6E2026205B
:10396000416C7469747564650028594553206F7201
:10397000204E4F29203F00436F6E6669726D2074A0
:103980006F20616363657074006D617920626520EA
:10399000746F6F20686967680050454550207061FA
:1039A00072616D657465720028594553206F7220ED
:1039B0004E4F29203F00436F6E6669726D20746F11
:1039C00020616363657074006D61792062652074A5
:1039D0006F6F206869676800504D415820706172B0
:1039E000616D65746572004E6F7465642028594579
:1039F0005329203F0042564D2C2042726561746865
:103A0000696E6720747562657300557073747265B2
:103A1000616D2050726573737572650043686563EC
:103A20006B20666F72204C65616B61676528732936
:103A3000004E6F746564202859455329203F004289
:103A4000564D2C20427265617468696E67207475EA
:103A500062657300446F776E73747265616D205098
:103A60007265737375726500436865636B20666F7A
:103A700072204C65616B61676528732900446F6E25
:103A800065202859455329203F00427265617468BA
:103A9000696E672043697263756974004F50454EC3
:103AA000206D61736B206F70656E696E67206F6645
:103AB00000446973636F6E6E65637420506174694E
:103AC000656E74004E6F7465642028594553290053
:103AD000696E20427265617468696E67204369721D
:103AE0006375697400526573696475616C20507206
:103AF000657373757265004641494C4544206261A7
:103B00006361757365206F66004E6F74656420286D
:103B1000594553290043616C6C2053657276696383
:103B200065205465636800436865636B2050726567
:103B30007373757265207475626573004641494CF4
:103B40004544202D204E6F20707265737375726529
:103B50000025642E2564206C69747265732F6D696D
:103B60006E000000546172676574206973202852EA
:103B70005220782056542900505356204D696E75B6
:103B8000746520566F6C756D6500256C75205061ED
:103B90007469656E74005768696C6520696E2043AE
:103BA0004D56206D6F64650044657465637465648B
:103BB000206275742049676E6F72656400496E6992
:103BC0007469617465642062726561746873000071
:103BD0004E6F746564202859455329203F00427276
:103BE00065617468696E672073797374656D006FC1
:103BF00072204C65616B61676520696E2074686531
:103C00000042564D2042616720697320746F6F2017
:103C1000736D616C6C00686176652063726F73739D
:103C2000656420256C75004E6F74656420285945C5
:103C30005329203F00506C65617365207265706C7C
:103C40006163652042564D000042564D2023436F6C
:103C50006D7072657373696F6E730068617665204D
:103C600063726F7373656420256C7500776974687F
:103C70002061206E6577206F6E6500506C65617302
:103C800065207265706C6163652042564D0000428C
:103C9000564D2023436F6D7072657373696F6E7339
:103CA000000042564D2023436F6D70726573736937
:103CB0006F6E730000446174652042564D20496E5A
:103CC0007374616C6C656400256C75204379636C5A
:103CD0006573004E6F746564202859455329203F51
:103CE0000043616C6C20536572766963652054658E
:103CF0006368000053797374656D2053657276694B
:103D000063652054696D6500256C75204379636C8B
:103D100065730000496E73706972652D3130302013
:103D20004C6F636174696F6E00746F2057692D4624
:103D300069204E6574776F726B00436F6E6E6563BA
:103D400074204C6170746F702F50686F6E65000046
:103D5000496E73706972652D31303020506174691D
:103D6000656E7400746F2057692D4669204E657426
:103D7000776F726B00436F6E6E656374204C617079
:103D8000746F702F50686F6E650025736B67202508
:103D900073636D00257320257379720025732025C8
:103DA00073005B25735D0050617469656E74204912
:103DB0006E666F002D3E2025642E256420286C2F12
:103DC0006D696E2900436F6E6669726D20444F4EB7
:103DD00045202859455329203F0000536574204F42
:103DE0003220466C6F7720286C2F6D696E29004D4C
:103DF000696E75746520566F6C756D6520436861DA
:103E00006E676500252E32307300252E3230730028
:103E100000000057692D466920436F6E6E6563741C
:103E2000696F6E004175746F205265636F766572BD
:103E3000696E670053797374656D20697300004D76
:103E40006F746F72204661756C7400526573756D86
:103E50006564204F7065726174696F6E00004D6F0C
:103E6000746F72204661756C74005265636F76657D
:103E70007265642066726F6D00524553455420741C
:103E800068652053797374656D00004E6F7420521D
:103E900065636F76657261626C65004D6F746F72F9
:103EA000204661756C7400697320756E6465726775
:103EB000726F756E642E00546865697220616D6161
:103EC0007A696E6720747261697400756E757375B6
:103ED000616C2074726565732E00417370656E733A
:103EE000206172652076657279006361727269651E
:103EF0006420627920616E696D616C732E00746854
:103F0000652077696E64206F722061726500736549
:103F1000656473207468617420666C79206F6E002C
:103F20005472656573206E65656420746F207370CC
:103F3000726561640063756C747572657320616C81
:103F40006C206F7665722E007965617273207573CF
:103F50006564206279206D616E7900666F722066FB
:103F60006976652074686F7573616E64004861726C
:103F70007073206861766520657869737465640084
:103F800068656C7073206765742069742075702E85
:103F90000069732066756E2E2041206C6967687415
:103FA0002077696E64006E6963652C20666C7969A0
:103FB0006E672061206B697465005768656E2074B8
:103FC000686520776561746865722069730074683C
:103FD00065726520697320736E6F772E00616E794C
:103FE0007768657265207768657265006F757464BF
:103FF0006F6F722070617374696D6500536B6969CE
:104000006E67206973206120706F70756C6172003B
:10401000666F756E6420696E205275737369612EC8
:104020000074686F7573616E6420796561727320C6
:1040300061676F2C00666F756E642C206461746517
:104040007320656967687400546865206F6C6465E7
:10405000737420736B69206576657200416E7461BC
:104060007263746963612069636520736865657450
:104070000069732066726F7A656E20696E207468BD
:1040800065006672657368207761746572206F6E73
:10409000204561727468004E696E657479207065A0
:1040A0007263656E74206F6600554E4B4E4F574ECF
:1040B000002C2044796E616D6963203D2000554ECF
:1040C0004B4E4F574E007C203E3E3E204C756E6757
:1040D00020436F6D706C2E20286D6C2F636D20480F
:1040E000324F2920537461746963203D20007C4065
:1040F0004040204D4F544F5220414343454C455280
:104100004154494F4E205245515549524544002093
:104110007374657073203D20006D73002920705307
:10412000616D706C696E673D00296D73202072703F
:104130006D5831302028007C2023232320446563E0
:104140006F6D7072657373696E67204028004578E3
:10415000706563746564203E202575206D6C004D8C
:10416000696E75746520566F6C3D2575206D6C0009
:104170004261636B75702053494D562061637469C9
:1041800076650000004C6F77204D696E7574652070
:10419000566F6C756D6500436865636B20444953C9
:1041A000504C4159004272656174682053657474C3
:1041B000696E67730054656D706F726172696C79B6
:1041C000206368616E676564005072657373757211
:1041D00065206265796F6E6420504D4158004361DF
:1041E0006C6C205365727669636520546563680062
:1041F000436865636B20427265617468696E67200D
:104200007475626500436865636B2050617469650D
:104210006E74204D61736B00544F54414C205072AA
:10422000657373757265204C6F73730043686563C3
:104230006B205072657373757265204C696E65737F
:1042400000436865636B2050617469656E74204D2E
:1042500061736B00436865636B2042564D20426179
:104260006700536F6D6520507265737375726520BA
:104270004C65616B0043616C6C20536572766963B9
:1042800065205465636800417370697261746520CC
:1042900050617469656E7400436865636B20427297
:1042A00065617468696E6720747562650041697242
:1042B00077617920426C6F636B61676500256420CC
:1042C000646567430043616C6C2053657276696373
:1042D0006520546563680000746F6F2068696768C3
:1042E000004D6F746F722054656D706572617475E6
:1042F000726500256420646567430043616C6C202F
:104300005365727669636520546563680000746F55
:104310006F206C6F77004D6F746F722054656D70F5
:1043200065726174757265006C656164696E6720A1
:10433000746F204552524F52007468652053797350
:1043400074656D20737461746500507265737320B9
:10435000504155534520746F2073686F77005B455B
:1043600052524F525D004272656174682023256C81
:104370007500506175736520496E73706972617460
:10438000696F6E0053686F7274205072657373208A
:10439000504155534520746F000042726561746846
:1043A0002044656C69766572790044796E616D6947
:1043B00063203D20257500537461746963203D209E
:1043C00025750044796E616D6963203D20554E4B23
:1043D0004E4F574E00537461746963203D20554E13
:1043E0004B4E4F574E00286D6C2F636D48324F294E
:1043F000004C756E672044656C746156202F204414
:10440000656C746150004272656174682023256C8C
:104410007500000000494E53504952452D3130304F
:10442000004272656174682023256C7500457374C1
:10443000696D617465642056543D25750000000067
:1044400044656C69766572656420566F6C756D6540
:10445000286D6C29004272656174682023256C7593
:104460000053706F6E74616E656F75732042504DAE
:104470003D253275004D616E6461746F7279204222
:10448000504D3D2532750000000042726561746830
:104490007320706572206D696E7574650053706F5E
:1044A0006E74616E656F75733D25752E2575004DB3
:1044B000616E6461746F72793D25752E25750054A7
:1044C0006F74616C3D25752E2575000000004D69E7
:1044D0006E75746520566F6C2E20286C2F6D696E7A
:1044E00029004D454E55202D3E205374616E646267
:1044F00079204D656E75006E6F74207265717569F7
:10450000726564004F787967656E20496E666C6FDE
:1045100077004F787967656E20496E666C6F7720FB
:104520006D7573740046694F322073657420617431
:10453000202564252500446973706C6179656420C9
:10454000506172616D657465727300427265617469
:10455000682044656C697665727920666F720074B4
:104560006F20626567696E005072657373205354E3
:10457000415254005265636F6E6E656374207768B4
:10458000656E207265616479004272656174686964
:104590006E6720436972637569740066726F6D207F
:1045A0007468650050617469656E74204469736352
:1045B0006F6E6E6563746564005354415254202DD0
:1045C0003E205B4143544956455D004D454E5520C4
:1045D0002D3E205374616E646279204D656E7500C6
:1045E0004152524F5773202D3E20506172616D65CC
:1045F00074657273005B5354414E4442595D0069C7
:104600006E2070726F6772657373005265636F6EB0
:104610006E65637420617474656D707400697320D5
:104620007374696C6C206C6F73740057692D4669E4
:1046300020436F6E6E656374696F6E004D454E5515
:10464000202D3E205374616E646279204D656E7535
:10465000006E6F74207265717569726564004F78C1
:104660007967656E20496E666C6F770053657420BC
:104670004F3220466C6F77205261746520746F0052
:10468000005354414E444259207374617465005084
:10469000454550207768696C6520696E00416374F8
:1046A0006976656C79206D61696E7461696E696E99
:1046B00067005072657373205354415254206167F0
:1046C00061696E00436F6E6E65637420506174693A
:1046D000656E7420616E6400427265617468204486
:1046E000656C69766572790043616E6E6F742053F4
:1046F000544152540042726561746820666F7220A2
:1047000061207768696C65004D697373696E672015
:1047100053706F6E74616E656F7573004272656180
:10472000746820696E20505356206D6F6465004494
:10473000656C697665726564204D616E6461746F45
:10474000727900757020746F20257320636D204886
:10475000324F006F72205045455020736574746964
:104760006E670041646A7573742050454550207629
:10477000616C76650000504545502064656C74613D
:10478000204F6273657276656400746F206368659C
:10479000636B2073797374656D0043616C6C205397
:1047A00065727669636520546563680067726F732C
:1047B000736C7920696E616363757261746500540E
:1047C0006964616C20566F6C756D65004368616E3D
:1047D00067652053657474696E67730042564D2097
:1047E00042616720746F6F20736D616C6C0073653C
:1047F0007420546964616C20566F6C756D6500554A
:104800006E61626C6520746F2064656C6976657298
:1048100000666F72205072657373757265205375F0
:1048200070706F7274004368616E676520736574A1
:1048300074696E6700736574205072657373757266
:104840006520537570706F727400556E61626C658F
:1048500020746F2064656C697665720043686563D7
:104860006B20696D6D6564696174656C7900636F57
:10487000756768696E672068696363757070696ED3
:10488000670050617469656E74206D696768742093
:1048900062650041626E6F726D616C20427265618B
:1048A000746800594553202D3E20436F6D6D697427
:1048B000004368616E676520504152414D45544543
:1048C00052530028594553206F72204E4F29203FE4
:1048D00000436F6E6669726D20746F20616363655B
:1048E0007074006D617920626520746F6F20657847
:1048F0007472656D650056542C52522C45492063E4
:104900006F6D62696E6174696F6E0028594553203E
:104910006F72204E4F29203F00436F6E6669726DA3
:1049200020746F20616363657074006D617920622B
:104930006520746F6F2065787472656D65005053E3
:104940002C54505320636F6D62696E6174696F6E91
:104950000028594553206F72204E4F29203F0043B5
:104960006F6E6669726D20746F2061636365707429
:1049700000636C6F736520746F2050454550005084
:10498000532073657474696E6720746F6F0066726C
:104990006F6D206E65787420627265617468004E78
:1049A000657720504152414D455445525300594579
:1049B00053202D3E20436F6D6D697400504152416C
:1049C0004D4554455253206368616E676564004EDF
:1049D0006F746564202859455329203F005472792B
:1049E000696E6720746F205265636F6E6E656374C5
:1049F0000044524F505045440057692D46692043AA
:104A00006F6E6E656374696F6E0043616C6C2053EA
:104A1000657276696365205465636800004352439C
:104A2000204661696C7572650054656D70657261D0
:104A3000747572652053656E736F720053544F50D6
:104A400020666F6F6C696E672061726F756E64218E
:104A50000021212049474E4F52454420212100503A
:104A600072657373656420746F676574686572003E
:104A70004D756C7469706C6520427574746F6E73DB
:104A8000005B256C752C256C755D007C20404040DA
:104A90002057692D4669205245434F4E4E45435499
:104AA0004544007C204040402057692D4669204401
:104AB000524F50504544007C202A2A2A20526563D8
:104AC0006569766564205345524B45595F574946A1
:104AD000495F5245434F4E4E4543544544203D00A7
:104AE0007C202A2A2A2052656365697665642053F2
:104AF00045524B45595F574946495F44524F5050C4
:104B00004544203D005B25642C25642C25642C2520
:104B1000645D002A2A2A2A2A2A2A2A2A2A2A2A2AB2
:104B20002A2A2A2A2A2A2A205355415254206F76AB
:104B30006572666C6F7720666F72206D736754794B
:104B400070653D007C202323232041726475696ECB
:104B50006F2052657365742D696E67204E6F6465B2
:104B60004D637500207374723D00203078002A2A4E
:104B70002A2053796E634D696C6C697320743D30E3
:104B8000780053657373696F6E2054696D65722088
:104B90004F666673657420536563733A005365739B
:104BA00073696F6E2054696D657220496E69743A3D
:104BB0000023232323232323204E65676174697612
:104BC000652064656C617920232323232323232319
:104BD0002323005053560053494D5600414356007D
:104BE000434D5600204F32466C6F775831303D00B0
:104BF000204F325075726974793D002046694F32FA
:104C00003D0020205450533D0020504D41583D0060
:104C100020504545503D002050533D00204D5658F2
:104C200031303D002045493D002052523D00205684
:104C3000543D007C20232323204D4F44453D00203C
:104C40006D696E73007C2023232320767452616D7E
:104C500070496E4D696E757465733D002564206DF5
:104C6000696E7574657300436F6E6669726D202896
:104C7000594553206F72204E4F29203F000052614A
:104C80006D702D757020617070726F782074696D11
:104C90006500546964616C20566F6C756D650044E5
:104CA0006F6E65202859455329203F000052616DE1
:104CB000702D757020617070726F782074696D65E9
:104CC0000053657420546964616C20566F6C756D77
:104CD00065000972723D000965693D000976743D01
:104CE00000096F32466C6F775831303D007C203EB2
:104CF0003E3E20505356204D616E6461746F727950
:104D000020427265617468204241434B5550002037
:104D100053746570732F7365633D007C20232323D8
:104D200020496E697469616C20466F7277617264A4
:104D30002072706D5831303D002041646A75737483
:104D400065643D007C2023232320496E69746961DA
:104D50006C2056432073746570732E2043616C6918
:104D60006272617465643D007C20232323205643D6
:104D7000206578747261637465642066696C74651B
:104D8000722077696E646F77203D20007C2023239A
:104D900023205053206578747261637465642066C3
:104DA000696C7465722077696E646F77203D2000AE
:104DB000232323232056432043616C63756C617465
:104DC0006556744D6F746F72506172616D65746574
:104DD0007273466F725643204641494C45442061E8
:104DE0006C61726D436F64653D002064656C746135
:104DF00053746570733D0020737465707344696605
:104E0000663D007C20232323204D4158205643201B
:104E100044656C74612053746570733A206E756DCF
:104E200052616D70427265617468733D00206173F8
:104E3000617053746570733D007C202A2A2A2042D9
:104E4000616420696E697469616C53746570733D47
:104E5000007C20232323204E756D204272656174EF
:104E600068732070657220546974726174696F6E22
:104E70003D007C20232323205065657020576172FC
:104E80006E696E67204E756D20427265617468733D
:104E900020496E74657276616C3D007C202323236B
:104EA0002041646A7573746564204D4158204465DF
:104EB0006C74612053746570733D007C2023232340
:104EC0002041646A75737465642054617267657407
:104ED0002049513D007C203E3E3E20444F4E45201F
:104EE000436F6D6D697474696E67204368616E67A6
:104EF000657320696E202073657474696E67730032
:104F0000207470733D002070733D0020706D6178D7
:104F10003D0020706565703D00206D765831303D54
:104F2000002065693D002076743D00232323232063
:104F30006D6F64653D0023232323205365747469DA
:104F40006E677320436F6D6D69744368616E67654A
:104F5000204661696C656420696E2043616C6375ED
:104F60006C6174654D6F746F7253657474696E67AC
:104F700073007C203E3E3E20436F6D6D6974746902
:104F80006E67204368616E67657320696E202073C9
:104F9000657474696E677300206D6D48324F002030
:104FA0004465706C6F796D656E743A2000206D6D8C
:104FB00048324F2C002043616C6962726174696FE2
:104FC0006E3A20007C202323232050726573737572
:104FD0007265733A0000000040470A1040670C26D3
:104FE00040870E3C40A7105240C7126840E7147E2D
:104FF00040071794402719AA40471BC040671DD699
:1050000040871FEC40A7210241C7231841E7252E06
:105010004107284441272A5A41472C7041672E8670
:105020004187309C4100000040A8060E403709230C
:1050300040C60B3840560E4D40E510624074137761
:105040004003168C409218A140211BB640B11DCBE5
:10505000404020E040CF22F5405E250A41ED271F69
:10506000417C2A34410C2D49419B2F5E412A3273E9
:1050700041B9348841000000400A030C4008062072
:105080004006093440050C4840030F5C4001127093
:105090004000158440FE179840FC1AAC40FB1DC030
:1050A00040F920D440F723E840F626FC40F42910CC
:1050B00041F22C2441F12F3841EF324C41ED356063
:1050C00041EC387441000000409A060F401C09234F
:1050D000409D0B38401F0E4C40A1106140231375BA
:1050E00040A5158A4026189E40A81AB3402A1DC71D
:1050F00040AC1FDC402D22F040AF24054131271980
:1051000041B2292E41352C4241B62E574138316BE0
:1051100041BA338041000000402B0A1240300C2776
:1051200040350E3C403A1051403F12664045147BDA
:10513000404A1690404F18A540541ABA40591CCF07
:10514000405F1EE4406420F94069220E416E242332
:10515000417326384179284D417E2A6241832C775C
:1051600041882E8C4100000040C3071040660A258C
:1051700040080D3A40AA0F4F404C126440EE14799B
:105180004090178E40321AA340D41CB840761FCDF1
:10519000401922E240BB24F7405D270C41FF292142
:1051A00041A12C3641442F4B41E631604188347592
:1051B000412A378A41000000405C050F409C0824CA
:1051C00040DB0B39401A0F4E405912634098157856
:1051D00040D7188D40161CA240551FB7409422CCD2
:1051E00040D425E1401329F640522C0B41912F2049
:1051F00041D03235410F364A414E395F418D3C74C2
:1052000041CD3F894100000040AD050E40F5082426
:10521000403D0C3940840F4F40CC12644013167A45
:10522000405B198F40A21CA540EA1FBA403123D031
:10523000407926E540C129FB40082D104150302619
:105240004197333B41DF365141263A66416E3D7C02
:1052500041B640914100000040FF050E404F092437
:10526000409F0C3A40EF0F50403F1366408F167C32
:1052700040DF1992402F1DA8407F20BE40CF23D48D
:10528000401F27EA406F2A0041BF2D16410F312CE5
:10529000415F344241AF375841FF3A6E414F3E843F
:1052A000419F419A410000004060050E409A082449
:1052B00040D50B39400F0F4F404912644083157A97
:1052C00040BD188F40F71BA540321FBA406C22D05A
:1052D00040A625E540E028FB401A2C1041542F261B
:1052E000418F323B41C9355141033966413D3C7CD8
:1052F00041773F914100000040C2040F40E607247F
:10530000400B0B39402F0E4E4053116340781478F8
:10531000409C178D40C01AA240E51DB7400921CC22
:10532000402D24E1405227F640762A0B419A2D2049
:1053300041BF303541E3334A4107375F412C3A746E
:1053400041503D89410000004034040E4072072363
:1053500040B10A3840EF0D4D402D1162406C14777A
:1053600040AA178C40E81AA140281EB6406621CBFF
:1053700040A424DF40E327F440212B09415F2E1E87
:10538000419E313341DC3448411A385D41593B720A
:1053900041973E874130835B1F0B83C7243E8325A3
:1053A0002BB1737C32F6633A392A6468407464C066
:1053B00048B4544D51C1440258B662EF1BEB6270C1
:1053C000224263542977533830DF53F6380644BEFF
:1053D0003E60345E48BA34CB4FC93433558142EE17
:1053E0001BE542A1231333022A513392309F239BA2
:1053F00037D923BE3F2C24604689242C4D8C24EFC2
:10540000532483B51E188397243E83AC2AAC73655E
:1054100032EB63D63821641C4069643E48AD54A920
:1054200050BD445F57B5620D1CE8627D223663585B
:105430002973535A30D653B0380044933E53348BBB
:1054400047B834204FBF348E547C42A71BD8423219
:10545000230A33BD294A3331309C238137DB23892A
:105460003F30245D4688243D4D8624095419730F2E
:105470001E267368243F63332AA8634F32E16372A8
:10548000381854D03F5F44BD47A7440550B934BDD8
:1054900056B5522B1CE6528B222B535D296F437D50
:1054A00030CD336B38FA33683E4634B846B724758E
:1054B0004EB524EA537732601BCC32C422013378D4
:1054C000294323D02F99236837DD23553F34245AAD
:1054D0004687244E4D812424540E73691D3373383E
:1054E000243F63BA29A3633932D7630E380F54843B
:1054F0003F55443C47A044614FB5341B56B4524914
:105500001CE45299221F5361296B439F30C43326F8
:1055100038F4333D3E3934E545B524CA4DAB244615
:10552000537232191BC0325622F83233293C236F92
:105530002F96234E37DF23213F3824574686245F9A
:105540004D7C243F540363C31C41630924406342E0
:10555000299F532332CD43AB370744383F4B44BBDD
:10556000469A34BE4EB2347955B442681CE242A722
:1055700022143366296733C230BC33E137EF23137B
:105580003E2D241245B424204DA124A2526D32D3C5
:105590001AB432E821F032EE2835230E2F94233549
:1055A00037E123ED3E3C2455468524704D77245A3F
:1055B00054F362941C3363D423426381299C53FFC8
:1055C00031CE43AD370844253F5244E046A0346D08
:1055D0004EAF342155A6424C1CD542552212332CD5
:1055E0002964335F30BA338937EF23153E2F2440C7
:1055F00045B6243A4DA4240A536732D41AB132B2C4
:1056000021F432FE2837233B2F91230637E323F37F
:105610003E4C248D468424964D7F24CB54E4526620
:105620001C2553A0234553C1299A43DB31CF43B0F6
:10563000370934123F59240647A6241D4EAD24C90C
:10564000549932301CC93203221033F3286223FCF0
:105650002FB8233237EF23183E32246E45B9245534
:105660004DA72473536232D51AAE327C21F9220E33
:10567000293A23692F8E23D736E623F93E5C24C6C8
:10568000468324BD4D88243C55D552371C17536B97
:10569000234853012A9743B731D043B2370A34FF26
:1056A0003E60242C47AC24CC4DAA2471548B321478
:1056B0001CBC32B1210E33BA286023992FB623DBEC
:1056C00036EF231A3E34249C45BC24704DAA24DBBB
:1056D000535D32D61AAB324621FE221E293D239756
:1056E0002F8B23A836E923FF3E6C24FF468224E457
:1056F0004D9024AD55C652091C095337234B4341E5
:105700002A95439331D133B5370C34ED3E6734528B
:1057100047B2247C4DA8241A547E32F81BB0326064
:10572000210C3381285E23362FB5238436F0231DC8
:105730003E3724CB45BF248B4DAD2444545822D84A
:105740001AA822112103232F294023C52F88237A49
:1057500036EC23053F7D24384781240B4E99241EC7
:1057600056C452891C035366234643532A8C436311
:1057700031CD33B7370D34153F70342247AD243562
:105780004DA72434547932F61BB432DE210A33B5E6
:10579000285D237D2FB323F136ED23333E3424A936
:1057A00045B024E94DAD24BD545C22061BAA224B12
:1057B00021032350294123F72F8C23DB36E72323B2
:1057C0003F782436488724A04E97244156C3420987
:1057D0001DFD4296234133662A84333431C923B9EF
:1057E000370E243D3F7924F346A924EE4CA6244EDF
:1057F000547432F41BB9325C220933E9285C23C5A6
:105800002FB2235F37EA23493E31248745A224473C
:105810004EAD2436556122351BAD228621042372FC
:105820002942232A3091233C37E323423F73243417
:10583000498D24364F96246556C142891DF742C6CC
:10584000233C33792A7C330531C523BB370F2465CC
:105850003F8224C346A424A74CA52468546F32F287
:105860001BBE32DA2208331D295B230D30B123CD54
:1058700037E7235F3E2E2465459424A54EAD24AF23
:10588000556622631BAF22C1210423932943235C65
:105890003095239D37DF23613F6E24324A9324CB1A
:1058A0004F95248956C0420A1EF242F62338338CA3
:1058B0002A7433D630C223BD3711248E3F8C2494F2
:1058C00046A024604CA42483546B32F01BC332598D
:1058D00023072352295A235530B0233B38E523763A
:1058E0003E2B2444458624044FAD2428566B229237
:1058F0001BB222FC210523B52944238F309A23FEB5
:1059000037DB23803F6A24304B9A2461509424ADC6
:1059100056BE42E41DF242D42334336F2A7733CE8D
:1059200030C823C2371E24BC3F9924CF46A7240584
:105930004DAB24BB546B32DB1BC2322E23062369D2
:105940002959235330B0232738EE23C03E4B24CEB1
:10595000458824A74EA824F8556E22CA1BB5224BB1
:10596000220823F8294E231731A623ED38ED23977B
:10597000407A24F54AB8244F50B924AE54BC32BF03
:105980001DF232B3233123522A7A23C630CE23C8E4
:10599000372C24EB3FA6240B47AE24AB4DB324F3A6
:1059A000546C22C71BC22203230623802959235289
:1059B00030B0231438F7230A3F6B2459468A244A0F
:1059C0004EA324C8557122031CB9229B220B233BF2
:1059D0002A59239F31B323DD390024AE418A24BAEA
:1059E0004AD6243E50DE24B052BA32991DF232918A
:1059F000232D23352A7D23BE30D423CD373A241AD4
:105A000040B3244647B524504EBA242B556D22B3DB
:105A10001BC222D8220523972958235130B02301D5
:105A2000380024543F8B24E4468C24ED4D9E24986A
:105A30005574223B1CBD22EA220E237E2A642327B2
:105A400032BF23CC3A1324C5429A247F4AF4242D32
:105A5000500325B150B832741DF23270232A331925
:105A60002A8123B630DA23D33748244940C0248220
:105A700047BC24F64EC22464556E229F1BC222AD41
:105A8000220523AE2958235030B023EE370A249F35
:105A90003FAB246F478F24904D992468557722742B
:105AA0001CC1223A231123C12A6F23B032CC23BC5C
:105AB0003B2624DC43AA24444A12251C502925B342
:105AC0004EAE32061DE83214232C33302A8323AB2A
:105AD00030E1230A385D245440BE245A47BA248D4D
