:100000000C94206D0D94721E0D94471E0D941C1EB1
:100010000D94F11D0D94C61D0D949B1D0D94701D26
:100020000D94451D0D94C81E0D94C81E0D94C81E38
:100030000C94516D0C94516D0C94516D0C94516D48
:100040000C94516D0C94516D0C94516D0C94516D38
:100050000C94516D0C94516D0C94516D0D94FB1CCE
:100060000C94516D0D94B9180D948F180C94516D1A
:100070000C94516D0C94516D0C94516D0C94516D08
:100080000C94516D0C94516D0C94516D0D949D1EFA
:100090000C94516D0C94516D0C94516D0D94E020A5
:1000A0000C94516D0C94516D0C94516D0C94516DD8
:1000B0000C94516D0D94F41F0C94516D0C94516D72
:1000C0000C94516D0C94516D0C94516D0C94516DB8
:1000D0000C94516D0C94516D0C94516D0C94516DA8
:1000E0000C94516D0D94401A0C9482D90C94DC8BB5
:1000F0000C94488B0C9416C80D9422240D94FA701D
:100100000C9460C90D943B700D94E6130D941D1A68
:100110000D9411150D94DF110D948B140D94E57C45
:100120000D94C8660D9436590D94635A0C94ECCF17
:100130000D945B6C0D948D100C944AC60D94A01414
:100140000C94EEC80C942D6E0C9412D30C94B2C780
:100150000C9464A80D9461130C94E9C50C9477D9A0
:100160000C94D6C70D940B1A0C94F68B0D94FD705D
:100170000D94E5190C947BDC0D940B140D94721AFC
:100180000D946C5A0D940A5C0C9400D30C945EA8E8
:100190000C9481DC0D947D590D945F130D940771BF
:1001A0000D94414A0D9470110D940C120D94EF1999
:1001B0000D94E9110C94F6C70D94175C0D94514AF7
:1001C0000C94A6D90D9408120C94D9890D948A1216
:1001D0000C94558B0C9472D90C94E88B0C941A8A5D
:1001E0000C945FDC0D94F85B0C94FBC50D94171315
:1001F0000D94B7130D9411310C942ECA0D94430431
:100200000D9444700C948ADC0D94FB5B0C948EC9A5
:100210000D94075C0D9470130D942E040D948A13A5
:100220000C9426C60D94FD6F0C94B6C70D94121253
:100230000D9411260D94FA130C945AD20D94393161
:100240000C947CD90D941F120D94B6700C94218BD4
:100250000D94FA6F0D945C040C9484DC0D9483135C
:100260000D94031A0D9457040D943E310D94F11121
:100270000D94AC6B0C9406D30C947DA80D94BA101D
:100280000D94BC580C94C98A0D9401130D94D8197F
:100290000D94695A0C9418D30D9407140D943E7064
:1002A0000C940C8A0D94131A0C942AD10D9441705D
:1002B0000C9487A80C940CD30C9482A80D94A512CE
:1002C0000D941A120C94218A0D94941A0C9432D223
:1002D0000C94EE8A0D94596C0D94725A0C94FAC6D3
:1002E0000D948B120C94E18A0D948C120C94FD8B5E
:1002F0000D945D5A0D94CA4A0D94F9190D94F55B4D
:100300000C94788B0C943AC70D94FB300C94AACCC7
:100310000D94A4120C94298B0C945E8A0D94271AC8
:100320000C948ED20C947EDC0C9473A80D94491519
:100330000C9478A80D94BF6B0C94B6C90D94681AF0
:100340000C94FACE0C94E28B0D94F46F0C949DD91E
:100350000D944D040C946B8B0D9423110D945F6CD4
:100360000D9410580D94FF5B0C9480CA0C94AEC78A
:100370000D94605A0D94F76F0D94FF6B0D949722B6
:100380000C944EC70D94C9100D9452040C94276E12
:100390000C9463CF0D94B46B0C942AC60D94ED119C
:1003A0000D9470570D945E1A0D9439040D94644A9F
:1003B0000D94FB230D94665A0D94FA110C94AFD052
:1003C0000D94F7700C9494D90C94DEC90C94138A94
:1003D0000D9404710C94288A0D943E040D94F4112C
:1003E0000D94F4700D9416120C94B18A0D94045C63
:1003F0000C94D28B0C94628B0C9406CA0C946EA84D
:100400000D944A1A0D9460130D9448040D94535A98
:100410000C944CB30D9420120C9488D90D94610463
:100420000D9404120C94EF8B0C9494D20D94E0195B
:100430000D9424120C941AC70C9487DC0C9469A8B0
:100440000D94FE110D94B5140C942F8A0D94007127
:100450000C94808A0C94188B0C94BAC60D94755A1F
:100460000D94F25B0D94541A0C9422C60C948EC712
:100470000C94A78A0D946B6C0D94CB1A0C948ED9A6
:100480000D946F5A0D94311A0D94494A0C94408B77
:100490000D9430150D94DD100D9408140C948A8A77
:1004A0000D94EA300D940C710C946EC70D94E51107
:1004B0000C94058A0C94DAC60D94EB1023232323A5
:1004C000232323204E656761746976652064656C1B
:1004D0006179202323232323232323232300505321
:1004E000560053494D560041435600434D56002097
:1004F0004F32466C6F775831303D00204F32507587
:10050000726974793D002046694F323D00202054C5
:1005100050533D0020504D41583D0020504545501E
:100520003D002050533D00204D565831303D0020B5
:1005300045493D002052523D002056543D007C204C
:10054000232323204D4F44453D00206D696E7300E9
:100550007C2023232320767452616D70496E4D698F
:100560006E757465733D002564206D696E757465E4
:100570007300436F6E6669726D2028594553206F72
:1005800072204E4F29203F000052616D702D757012
:1005900020617070726F782074696D6500546964B1
:1005A000616C20566F6C756D6500446F6E65202818
:1005B00059455329203F000052616D702D75702000
:1005C000617070726F782074696D65005365742076
:1005D000546964616C20566F6C756D6500097272A8
:1005E0003D000965693D000976743D00096F32469A
:1005F0006C6F775831303D007C203E3E3E2050539A
:1006000056204D616E6461746F727920427265612B
:100610007468204241434B5550007C202323232003
:10062000496E697469616C20466F727761726420EB
:1006300072706D5831303D002041646A7573746585
:10064000643D007C2023232320496E697469616C1A
:100650002056432073746570732E2043616C696269
:1006600072617465643D007C20232323205643205F
:100670006578747261637465642066696C74657210
:100680002077696E646F77203D20007C2023232330
:1006900020496E697469616C2050532054617267FF
:1006A000657420507265737375726520286D6D29AD
:1006B000203D20007C202323232050532065787484
:1006C0007261637465642066696C74657220776911
:1006D0006E646F77203D2000232323232056432080
:1006E00043616C63756C61746556744D6F746F72A1
:1006F000506172616D6574657273466F7256432006
:100700004641494C454420616C61726D436F64659C
:100710003D002064656C746153746570733D002006
:100720007374657073446966663D007C20232323DF
:10073000204D41582056432044656C746120537409
:100740006570733A206E756D52616D7042726561AD
:100750007468733D00206173617053746570733DFC
:10076000007C202A2A2A2042616420696E6974690B
:10077000616C53746570733D007C20232323204EED
:10078000756D2042726561746873207065722054C3
:100790006974726174696F6E3D007C20232323208D
:1007A00050656570205761726E696E67204E756D79
:1007B000204272656174687320496E746572766157
:1007C0006C3D007C202323232041646A757374658B
:1007D00064204D41582044656C74612053746570E9
:1007E000733D007C202323232041646A7573746564
:1007F00064205461726765742049513D007C203E3D
:100800003E3E20444F4E4520436F6D6D69747469C0
:100810006E67204368616E67657320696E20207380
:10082000657474696E677300207470733D00207086
:10083000733D0020706D61783D0020706565703DEE
:1008400000206D765831303D002065693D002076EE
:10085000743D0023232323206D6F64653D00232313
:1008600023232053657474696E677320436F6D6D25
:1008700069744368616E6765204661696C656420D0
:10088000696E2043616C63756C6174654D6F746F44
:100890007253657474696E6773007C203E3E3E201F
:1008A000436F6D6D697474696E67204368616E672C
:1008B000657320696E202073657474696E677300B8
:1008C000206D6D48324F00204465706C6F796D6506
:1008D0006E743A2000206D6D48324F2C0020436129
:1008E0006C6962726174696F6E3A20007C20232308
:1008F00023205072657373757265733A00000000AF
:1009000040470A1040670C2640870E3C40A7105213
:1009100040C7126840E7147E40071794402719AA81
:1009200040471BC040671DD640871FEC40A72102EF
:1009300041C7231841E7252E4107284441272A5A59
:1009400041472C7041672E864187309C4100000052
:1009500040A8060E4037092340C60B3840560E4DBE
:1009600040E51062407413774003168C409218A142
:1009700040211BB640B11DCB404020E040CF22F5C6
:10098000405E250A41ED271F417C2A34410C2D4948
:10099000419B2F5E412A327341B9348841000000E7
:1009A000400A030C400806204006093440050C4864
:1009B00040030F5C400112704000158440FE179800
:1009C00040FC1AAC40FB1DC040F920D440F723E89E
:1009D00040F626FC40F4291041F22C2441F12F3836
:1009E00041EF324C41ED356041EC3874410000007C
:1009F000409A060F401C0923409D0B38401F0E4CA7
:100A000040A110614023137540A5158A4026189E09
:100A100040A81AB3402A1DC740AC1FDC402D22F06D
:100A200040AF24054131271941B2292E41352C42CE
:100A300041B62E574138316B41BA33804100000036
:100A4000402B0A1240300C2740350E3C403A1051E2
:100A5000403F12664045147B404A1690404F18A50F
:100A600040541ABA40591CCF405F1EE4406420F93C
:100A70004069220E416E2423417326384179284D66
:100A8000417E2A6241832C7741882E8C41000000F0
:100A900040C3071040660A2540080D3A40AA0F4F90
:100AA000404C126440EE14794090178E40321AA3E5
:100AB00040D41CB840761FCD401922E240BB24F739
:100AC000405D270C41FF292141A12C3641442F4B89
:100AD00041E6316041883475412A378A410000007F
:100AE000405C050F409C082440DB0B39401A0F4E38
:100AF000405912634098157840D7188D40161CA2B3
:100B000040551FB7409422CC40D425E1401329F62C
:100B100040522C0B41912F2041D03235410F364AA3
:100B2000414E395F418D3C7441CD3F894100000009
:100B300040AD050E40F50824403D0C3940840F4F70
:100B400040CC12644013167A405B198F40A21CA55A
:100B500040EA1FBA403123D0407926E540C129FB45
:100B600040082D10415030264197333B41DF36512C
:100B700041263A66416E3D7C41B6409141000000FD
:100B800040FF050E404F0924409F0C3A40EF0F50A4
:100B9000403F1366408F167C40DF1992402F1DA8FE
:100BA000407F20BE40CF23D4401F27EA406F2A0059
:100BB00041BF2D16410F312C415F344241AF3758B0
:100BC00041FF3A6E414F3E84419F419A41000000EF
:100BD0004060050E409A082440D50B39400F0F4F56
:100BE000404912644083157A40BD188F40F71BA519
:100BF00040321FBA406C22D040A625E540E028FBD9
:100C0000401A2C1041542F26418F323B41C9355197
:100C100041033966413D3C7C41773F9141000000F2
:100C200040C2040F40E60724400B0B39402F0E4E04
:100C30004053116340781478409C178D40C01AA22D
:100C400040E51DB7400921CC402D24E1405227F654
:100C500040762A0B419A2D2041BF303541E3334A7B
:100C60004107375F412C3A7441503D8941000000F3
:100C70004034040E4072072340B10A3840EF0D4D56
:100C8000402D1162406C147740AA178C40E81AA1DD
:100C900040281EB6406621CB40A424DF40E327F461
:100CA00040212B09415F2E1E419E313341DC3448E7
:100CB000411A385D41593B7241973E874130835B11
:100CC0001F0B83C7243E83252BB1737C32F6633A16
:100CD000392A6468407464C048B4544D51C1440218
:100CE00058B662EF1BEB6270224263542977533887
:100CF00030DF53F6380644BE3E60345E48BA34CB2B
:100D00004FC93433558142EE1BE542A12313330210
:100D10002A513392309F239B37D923BE3F2C246026
:100D20004689242C4D8C24EF532483B51E188397B9
:100D3000243E83AC2AAC736532EB63D63821641C45
:100D40004069643E48AD54A950BD445F57B5620D3B
:100D50001CE8627D223663582973535A30D653B04B
:100D6000380044933E53348B47B834204FBF348E01
:100D7000547C42A71BD84232230A33BD294A33315F
:100D8000309C238137DB23893F30245D4688243D16
:100D90004D8624095419730F1E267368243F63334C
:100DA0002AA8634F32E16372381854D03F5F44BDC4
:100DB00047A7440550B934BD56B5522B1CE6528B9B
:100DC000222B535D296F437D30CD336B38FA336866
:100DD0003E4634B846B724754EB524EA53773260A0
:100DE0001BCC32C422013378294323D02F992368A6
:100DF00037DD23553F34245A4687244E4D81242421
:100E0000540E73691D337338243F63BA29A36339C1
:100E100032D7630E380F54843F55443C47A0446199
:100E20004FB5341B56B452491CE45299221F5361EA
:100E3000296B439F30C4332638F4333D3E3934E5C3
:100E400045B524CA4DAB2446537232191BC03256E5
:100E500022F83233293C236F2F96234E37DF23218C
:100E60003F3824574686245F4D7C243F540363C398
:100E70001C41630924406342299F532332CD43AB75
:100E8000370744383F4B44BB469A34BE4EB23479A0
:100E900055B442681CE242A722143366296733C264
:100EA00030BC33E137EF23133E2D241245B4242008
:100EB0004DA124A2526D32D31AB432E821F032EEA1
:100EC0002835230E2F94233537E123ED3E3C24555E
:100ED000468524704D77245A54F362941C3363D4AE
:100EE00023426381299C53FF31CE43AD370844250B
:100EF0003F5244E046A0346D4EAF342155A6424CDB
:100F00001CD542552212332C2964335F30BA338901
:100F100037EF23153E2F244045B6243A4DA4240A2A
:100F2000536732D41AB132B221F432FE2837233B50
:100F30002F91230637E323F33E4C248D46842496D9
:100F40004D7F24CB54E452661C2553A0234553C146
:100F5000299A43DB31CF43B0370934123F59240675
:100F600047A6241D4EAD24C9549932301CC9320302
:100F7000221033F3286223FC2FB8233237EF2318D3
:100F80003E32246E45B924554DA72473536232D5A1
:100F90001AAE327C21F9220E293A23692F8E23D7EB
:100FA00036E623F93E5C24C6468324BD4D88243CA6
:100FB00055D552371C17536B234853012A9743B713
:100FC00031D043B2370A34FF3E60242C47AC24CCE6
:100FD0004DAA2471548B32141CBC32B1210E33BA89
:100FE000286023992FB623DB36EF231A3E34249C46
:100FF00045BC24704DAA24DB535D32D61AAB324671
:1010000021FE221E293D23972F8B23A836E923FF9B
:101010003E6C24FF468224E44D9024AD55C652090F
:101020001C095337234B43412A95439331D133B5A0
:10103000370C34ED3E67345247B2247C4DA8241A55
:10104000547E32F81BB03260210C3381285E233687
:101050002FB5238436F0231D3E3724CB45BF248B88
:101060004DAD2444545822D81AA822112103232F0D
:10107000294023C52F88237A36EC23053F7D243869
:101080004781240B4E99241E56C452891C03536673
:10109000234643532A8C436331CD33B7370D341580
:1010A0003F70342247AD24354DA72434547932F6AD
:1010B0001BB432DE210A33B5285D237D2FB323F123
:1010C00036ED23333E3424A945B024E94DAD24BD8B
:1010D000545C22061BAA224B21032350294123F7EB
:1010E0002F8C23DB36E723233F782436488724A040
:1010F0004E97244156C342091DFD42962341336653
:101100002A84333431C923B9370E243D3F7924F37F
:1011100046A924EE4CA6244E547432F41BB9325C1A
:10112000220933E9285C23C52FB2235F37EA23491C
:101130003E31248745A224474EAD243655612235E1
:101140001BAD2286210423722942232A3091233C9D
:1011500037E323423F732434498D24364F96246568
:1011600056C142891DF742C6233C33792A7C330598
:1011700031C523BB370F24653F8224C346A424A76F
:101180004CA52468546F32F21BBE32DA2208331D9C
:10119000295B230D30B123CD37E7235F3E2E246535
:1011A000459424A54EAD24AF556622631BAF22C1E2
:1011B000210423932943235C3095239D37DF23614A
:1011C0003F6E24324A9324CB4F95248956C0420A5D
:1011D0001EF242F62338338C2A7433D630C223BD34
:1011E0003711248E3F8C249446A024604CA4248381
:1011F000546B32F01BC3325923072352295A23550B
:1012000030B0233B38E523763E2B24444586240426
:101210004FAD2428566B22921BB222FC210523B528
:101220002944238F309A23FE37DB23803F6A243002
:101230004B9A2461509424AD56BE42E41DF242D430
:101240002334336F2A7733CE30C823C2371E24BCF1
:101250003F9924CF46A724054DAB24BB546B32DB0A
:101260001BC2322E230623692959235330B023276A
:1012700038EE23C03E4B24CE458824A74EA824F840
:10128000556E22CA1BB5224B220823F8294E23177C
:1012900031A623ED38ED2397407A24F54AB8244F40
:1012A00050B924AE54BC32BF1DF232B323312352A5
:1012B0002A7A23C630CE23C8372C24EB3FA6240B32
:1012C00047AE24AB4DB324F3546C22C71BC2220398
:1012D000230623802959235230B0231438F7230AD8
:1012E0003F6B2459468A244A4EA324C855712203D1
:1012F0001CB9229B220B233B2A59239F31B323DDA8
:10130000390024AE418A24BA4AD6243E50DE24B0A5
:1013100052BA32991DF23291232D23352A7D23BEF4
:1013200030D423CD373A241A40B3244647B524504D
:101330004EBA242B556D22B31BC222D82205239707
:101340002958235130B02301380024543F8B24E422
:10135000468C24ED4D9E24985574223B1CBD22EAF8
:10136000220E237E2A64232732BF23CC3A1324C5BE
:10137000429A247F4AF4242D500325B150B8327488
:101380001DF23270232A33192A8123B630DA23D38F
:101390003748244940C0248247BC24F64EC2246406
:1013A000556E229F1BC222AD220523AE2958235021
:1013B00030B023EE370A249F3FAB246F478F249031
:1013C0004D992468557722741CC1223A231123C1F8
:1013D0002A6F23B032CC23BC3B2624DC43AA24440E
:1013E0004A12251C502925B34EAE32061DE8321490
:1013F000232C33302A8323AB30E1230A385D245475
:1014000040BE245A47BA248D4EBB2422556C2283F9
:101410001BBF228C22042369295E238330B523005D
:10142000380924A03FAD2482479024774DA6243A62
:101430005578226B1CC02229231023CC2A6F23C38A
:1014400032BC238A392D24DF42BB24384AF6246A71
:101450004BE5241D4AA532981CDE32B9222F3348B1
:101460002A8623A030E823423873246040BD243309
:1014700047B924254EB524E1546B22671BBC226C6E
:1014800022042325296523B630BB2313380924A160
:101490003FB024954791245F4DB4240D55792263C4
:1014A0001CBF2218231023D72A7023D732AC23580D
:1014B000373424E241CC242C4ADB24B846A22488C9
:1014C000459C322A1CD4325E2231335F2A8923950F
:1014D00030EF23793888246B40BC240C47B824BCF7
:1014E0004DAE24A05469224B1BB9224B220323E0AA
:1014F000286B23E930C12326380924A23FB324A84E
:10150000479224464DC124E0547A225A1CBE220739
:10151000231023E22A7023EA329C2326353B24E55C
:1015200040DD24204AC02406425E24F2409332BDAE
:101530001BCB3203223433772A8C238B30F723B131
:10154000389E247740BB24E546B724544DA8245F39
:101550005468222F1BB7222B2203239C2872231DA1
:1015600031C72339380924A43FB624BC4793242E1D
:101570004DCF24B3547B22521CBD22F6221023ED02
:101580002A7123FE328D23F5324324E83FEE2415E1
:101590004AA524543D1B245D3C0F83881E3983A13A
:1015A000257473962CD07394341A64403C5064B6FE
:1015B00042C664044EE6544E56F0446D5D90623C63
:1015C0001AC462AC201D53EC276F53512FD053899E
:1015D000370D44393EAD34D74AC434BC51C93440C8
:1015E0005770428E1AC8420C221343D9286333F72E
:1015F0002FB73335370024A93F4B243F4698246446
:101600004DD524F6540C833B1E3E837425727342E1
:101610002CCC73473415648F3B47643942A86476F9
:101620004CC7547E54C344B85A9E62121BD7629171
:10163000212C53CA2882533230ED5313382044B83A
:101640003E99348949BA348C50BE3477567242A2DE
:101650001ACA422A22164303296533F92FB9335790
:10166000370224A03F51249946A724F54DCF245298
:10167000550973EE1D437348257163ED2BCA63FB57
:10168000331164DF3A3F54BC418B54E84AA844AE5E
:101690005295340358AD52E81BEA5277223C53A9C5
:1016A00029954313310A349F383234373F85343B10
:1016B00048B2245C4FB424AF557432B71ACD3249C6
:1016C0002219332D296823FB2FBC237A3704249851
:1016D0003F5624F446B524864EC924AE550673A160
:1016E0001D47731B257063992BC663AF330D642EA2
:1016F0003A36543F416E545B498944DD5068344E5C
:1017000055BB52BE1CFE525D234B53872AA843F3A0
:101710003127342A394534B63F7134ED46A9242B9C
:101720004EAA24E7547732CC1AD03268221C3357A1
:10173000296B23FC2FBE239C3705248F3F5C244E4E
:1017400047C424164FC3240A560363541D4D63EF48
:10175000246F63452BC453633309447E392E44C23E
:10176000405144CD476B340E4F3B349952CA429599
:101770001D114343245A33652BBB33D4324534B552
:1017800039582436405D249F45A024FC4CA0241FDA
:10179000547932E11AD3328722202381296E23FE25
:1017A0002FC223BF370724873F6124A947D224A72C
:1017B0004FBD246656F9627D1D4463EF2470637843
:1017C0002BC4536333FE4360393244BD405844E96F
:1017D000477534014F50345853C2427E1D0B4308A5
:1017E000245833342BB2336C32373433395424E237
:1017F0003F5F24BB45A224184DA1243C547C3218E1
:101800001BD53268222623782971231D30C023B4CA
:101810003712248E3F6F245F47C6240D4FBB2435FB
:1018200056F052A61D3C53EF247153AC2BC54364B4
:1018300033F44342393734B840602406488024F4F6
:101840004E66241854BB32661D0533CE2355330330
:101850002BA92303322924B13850248E3F6124D789
:1018600045A524354DA2245A547F324F1BD8324906
:10187000222C23702975233D30BE23A9371E2495C1
:101880003F7C241547B924734EBA240456E752CF3F
:101890001D3453EE247353E02BC6436433EA4324D0
:1018A000393C34B340682422488B24E74E7B24D74C
:1018B00054B3324F1DFF3293235333D32AA0239BBB
:1018C000311B2430384B243A3F6224F245A724527E
:1018D0004DA32478548232861BDA322A22322367BF
:1018E0002979235C30BC239D3729249C3F8A24CB53
:1018F00046AD24D94DB924D355DE52F91D2C53EEF3
:10190000247453142CC7436533E03307394234AF92
:101910004070343F489624DB4E91249755AC3238C2
:101920001DF9325A235033A22A982332310D24AEA6
:10193000374824E73E64240F46AA24704DA5249618
:10194000548522BD1BDD220B22382360297E237C97
:1019500030BA2393373524A33F98248146A1243FEE
:101960004DB824A255D252D21D1C53A4246753CE85
:101970002BB7430D33E233093946348C40763411AA
:10198000489624994E92248155A632261DF732831B
:10199000234A338C2A9C234331112415384A245678
:1019A0003F67247546A424054EA7242F558922CAD3
:1019B0001BE02227223A2381297B239030C023D1A8
:1019C000373B24AE3F97243347A524EC4DB324E4A2
:1019D00055C642AB1D0C435A245A33892BA733B545
:1019E00032E5230B394B2469407C24E44798245684
:1019F0004E93246C55A032141DF632AD2344237649
:101A00002AA123543115247C384C24C63F6B24DB97
:101A1000469F249A4EA924C9558F22D71BE32243FF
:101A2000223D23A3297923A430C72310384224B9A7
:101A30003F9624E547A924994EAF242656BA4284FE
:101A40001DFC4211244D33442B97335E32E7230DA6
:101A5000394F2446408224B6479824144E94245685
:101A6000559A32031DF532D6233E23602AA62365FC
:101A7000311924E4384E2435406E244247992430ED
:101A80004FAB2462569422E41BE62260223F23C41B
:101A9000297623B830CE234E384924C43F95249666
:101AA00048AD24464FAB246956AF425E1DED42C798
:101AB000234033FF2A87330632EA33103954242473
:101AC00040892489479A24D24D952441559532F175
:101AD0001CF432002438334B2AAB2376311E244BBE
:101AE000395024A5407124A9479424C64FAD24FC45
:101AF000569A22F11BEA227C224123E6297423CD47
:101B000030D5238D385024CF3F95244849B224F353
:101B10004FA724AB56AD42381DEE42C723413316C2
:101B20002B8B33FA31F63302395B243E409024B1DB
:101B3000479C242E4E942488559832EB1CF6320292
:101B40002440337E2AB52377311E2423395024992B
:101B5000407D24A9479124464FA42470569B221906
:101B60001CEB22B42242231A2A7D233531E1230CB7
:101B70003953247C4093241049B724AD4FB42455E5
:101B800055AA32121DF032C72342332D2B8F23EE7C
:101B9000310324F43862245A409824DA479E248C76
:101BA0004E9324CF559C22E61CF82203244823B2EE
:101BB0002AC02378311F24FB384F248E408924AA61
:101BC000478F24C74E9C24E5559C22421CEE22EDF3
:101BD0002243234F2A87239D31EF238B3956242913
:101BE000419124D848BC24684FC1240054A832EB4A
:101BF0001CF132C6234333452B9323E2311024E6F4
:101C00003869247540A0240248A124E94E92241783
:101C100056A022E11CFA2205244F23E52ACA237A82
:101C2000312024D3384F2482409524AB478C24475D
:101C30004E932459559D226A1CF022252344238368
:101C40002A91230632FB230A3A5A24D6418F24A034
:101C500048C024234FCE24AA52A632C61CF332C653
:101C60002345335D2B9723D7311D24D93871249117
:101C700040A8242B48A324464F92245F56A422DC7C
:101C80001CFC2206245723192BD5237C312124AC9C
:101C9000384F247740A224AC478A24C84D8B24CEE9
:101CA000549E22931CF3225D234623B82A9B236F64
:101CB0003209248A3A5D2483428E246848C524DE92
:101CC0004EDC245551A0329D1CF1329E23473349EE
:101CD0002B9F23D0312924F13878248540A7240371
:101CE00048A224F54E912424569E22A01CF522BF22
:101CF000235123BF2AD82389312524CD385124A14B
:101D000040A224D8478F242F4E982445559C2282E8
:101D10001CF42248234223C52A9D2382320B2476B9
:101D2000397124FB419B240148BB24874BC924E023
:101D30004E9B32751CEF3276234933362BA823CACB
:101D40003134240A3980247940A624DB47A224A414
:101D50004E9124EA559922651CEF2279234B236684
:101D60002ADC2397312A24EF385424CB40A32405BE
:101D7000489424964EA524BD559B22721CF522330F
:101D8000233E23D22A9F2395320E24623884247363
:101D900041A9249A47B1243148B6246C4C96324D5F
:101DA0001CED324E234B33232BB123C3314024236C
:101DB0003987246D40A624B447A224524E9024B003
:101DC000559322291CE922322345230C2ADF23A51F
:101DD000312F2411395624F540A32432489924FD8B
:101DE0004EB22434569A22611CF6221E233B23DF76
:101DF0002AA123A83210244E379824EB40B724336D
:101E000047A724DB44A324F8499232261CEC32264F
:101E1000234E23102BBA23BD314C243C398F24622E
:101E200040A5248C47A224014E902477558E22EEA3
:101E30001BE422EC224023B229E323B431342433BF
:101E40003959242041A4245F489E24654FBF24AC07
:101E5000569922501CF72209233723EC2AA423BCCD
:101E60003213243B36AC246440C524CC469D2485E3
:101E70004191248447EF82B51D68837B26AA83089D
:101E80002EEF73AC363F64473F77640445196548CD
:101E9000531855505B2045D9626B628A189E62E8E0
:101EA0001EF962852668536B2EC2531C361544B545
:101EB0003DFA34514DCE34AE53C9344E595F422EA3
:101EC00019AC4278201433B12775335D2FCF23D05E
:101ED000362824953F6B241F46A8249D4D1F25FEC0
:101EE00055F482C11D64835126A783D82DED732A32
:101EF000364064493E6E645644E864AE50E1545343
:101F000058C944115E8862181AC662A52023633D31
:101F10002892530A30055477374044DE3EDF348838
:101F20004BBD34F851BE34615868429E19BD4223FE
:101F300021233349288133C12FD7232E372924B8B1
:101F40003F7224D646C624AD4E18259B56F972CD55
:101F50001D60732826A463A82DEC63A83542644C49
:101F60003D6654A843B844144EAA445755723449A8
:101F700059A652A61BEF5263224D53F529BC43A923
:101F8000314834D3386B340740C434BF49AD24439F
:101F900050B424755772320F1ACF32CF213233E248
:101FA000288E232630DF238D372B24DB3F79248EA8
:101FB00047E424BE4F11253857FE72D91D5C73FFCC
:101FC00025A163782DEA63263543644E3C5D54FABF
:101FD0004287447A4B73445A521B348154C352345F
:101FE0001D185321247753AD2BE64348338B342EF1
:101FF0003A96343041A934F6479D248D4EAA24895F
:10200000567C327F1AE0327A2241337B299A238A26
:1020100030E723EB372C24FE3F802446480225CEB0
:10202000500A25D5570463E51D5963D6259F63489B
:102030002DE953A4344544513B55444D425744E0A7
:10204000483C345E4FC433B94FE142C31E4143DFC5
:1020500025A133652D1034E734CF348A3BC2245A8E
:10206000428E242D468D24D84CA0249D558632F0D6
:102070001AF23226235133142AA723EF30F0234AD1
:10208000382E2421408724FE482025DF5104257363
:10209000580063661E56630A269E636F2DED53C873
:1020A000342F44133B5D4456425F44F3484B349510
:1020B0004FF1339051DF42B01E4143BC259E333C6B
:1020C0002D00347934B434DD3AB924AF418F24364D
:1020D000468F24F74C9F246F5591325C1BFA321EB9
:1020E000235833F329AC230031EF236238422429EB
:1020F000409224314808258450F8249F57FD52E728
:102100001E54533E269E53972DF143ED341A44D569
:102110003A66345F42682406495B24CC4F1F24672B
:1021200053DD329D1E423399259B33142DF1230B31
:10213000349A24313AB12405419024404691241622
:102140004D9E2442559C32C91B023316235F23D275
:1021500029B1231131EE237B38562431409D24646C
:1021600047F024294FED24CC56F952681F51537281
:10217000269E53BF2DF54312350544973A6F3468B8
:1021800042702419496A2403504D243E55DB328A9B
:102190001E423376259833EC2CE1239D3380248531
:1021A00039A8245B40912449469324354D9D24153C
:1021B00055A732361C0A330E236623B129B62322D3
:1021C00031ED2393386A243940A8249746D824CE89
:1021D0004DE224F955F652EA1F4F53A6269E43E7D7
:1021E0002DFA433735F0335A3A7834724279342C29
:1021F000497A243B507B241557DA32781E433354F6
:10220000259533C42CD2232F336624D938A024B18A
:102210003F922453469524554D9D24E854B222A361
:102220001C122306236E239129BC233331EC23ACEB
:10223000387E244240B324CB45C124744CD7242695
:1022400055E0521C1F3553E2258843492DE243B720
:1022500034F8335C3A803404427C3400498024FDF5
:102260004F7D24CF56D332561E3B3329258A336403
:102270002CDC2309336F243939A7247A409B24416D
:10228000479824214EA124A255B7228E1C16230361
:10229000237223B229B6232931F523C83890243973
:1022A00040B6243046C324384DCF248755CA424E09
:1022B0001E1C431F257333AC2CCA33373401245EF4
:1022C0003A882496417F24D5488724BF4F80248AAA
:1022D00056CC32351E3433FE247F33042CE723E3FF
:1022E0003279249A39AE244341A52430489C24EE07
:1022F0004EA5245C56BD227A1C1A2301237623D4D2
:1023000029B0231F31FE23E438A2243040B924969B
:1023100046C624FD4DC824E855B442801D02435CE6
:10232000245E330F2CB233B7330924603A9024284B
:10233000418224A9488D24814F83244456C53214F8
:102340001E2D33D3247433A42BF123BD328224FBFE
:1023500039B5240C42AE241F499F24BB4FA9241633
:1023600057C322651C1E23FF227A23F629AA2315B0
:102370003107240039B4242740BC24FB46C824C1BB
:102380004EC12449569F42B31CE9429923493372F6
:102390002B9A3337331224633A9824BA4086247E2A
:1023A000489424444F8624FF55BF32F31D2633A89A
:1023B000246A23442BFC2397328C245C3ABC24D51A
:1023C00042B8240E4AA3248850AD24D057C92251C4
:1023D0001C2223FD227E23182AA5230B3110241D45
:1023E00039C6241E40C0246147CB24864FBA24AA94
:1023F000569C428C1CEB42BA234E33BD2B9F332795
:10240000332524423A9824C1408824934891245883
:102410004F7D245556C632FC1D2A33D6247A239488
:102420002B11249B328D241F3AB2247342B0248492
:10243000499B24E64FA124E956C822691C22231E89
:10244000237D233D2AAD2353311D242B39B924612B
:1024500040AC242C47B6240C4FAF24FD559932656F
:102460001CEE32DB235423092CA4231733392421F7
:102470003A9924C9408B24A9488F246D4F7424AC09
:1024800056CD22061E2E2304258A23E42B27249FC3
:10249000328F24E339A8241242A824FB4894244410
:1024A0004F95240256C722821C23233F237C23639B
:1024B0002AB6239C312B243A39AD24A4409924F721
:1024C00046A224934EA524515596323E1CF132FC6F
:1024D000235A23552CA92307334D24003A9924D19C
:1024E000408D24BE488D24824F6B240357D4220F85
:1024F0001E322332259A23342C3D24A3329024A665
:10250000399E24B041A02472488C24A24E89241BF9
:1025100055C6229A1C242360237B23892ABE23E5E7
:102520003138244939A124E7408524C2468D241935
:102530004E9A24A4549432181CF4321D246033A102
:102540002CAE23F8326124E0399A24D9409024D467
:10255000488B24974F62245A57DB22191E3623607A
:1025600025AA23852C5324A83292246A3995244F16
:10257000419924E9478524004E7E243554C522B371
:102580001C252381237B23AF2AC7232E32462458C0
:102590003995242B4172248D467924A04D9024F83E
:1025A000539332351CFA3228246233632CBC23F651
:1025B000327124D9399324B6409024AC488B245DE1
:1025C0004F67242757D122BE1D2C23F3249E2316A8
:1025D0002C5324903296249B399A24A24197242F7D
:1025E000488E24E74E8A245155C1229A1C2823671D
:1025F000237423BE2ACB2341325B246239B52418CD
:10260000417C24CA458024A54BAD24A45392325367
:102610001C003333246433252CCB23F4328124D3A0
:10262000398D249340902484488C24234F6D24F4C6
:1026300056C722631D232386249323A72B54247972
:10264000329A24CC399F24F541962476489724CE9B
:102650004F97246D56BE22811C2B234E236D23CD14
:102660002ACF23543270246D39D52405418724089C
:10267000458724AB49CB2451539132711C06333E1C
:10268000246633E72BD923F2329124CD3986247086
:102690004090245C488C24E94E7224C156BD220827
:1026A0001D1A2319248823382B542462329E24FDBA
:1026B00039A42448429424BC48A024B550A32489BA
:1026C00057BB22681C2E2335236623DC2AD32367BD
:1026D0003285247739F524F240912446448E24B182
:1026E00047E924FE5291328F1C0D3349246833A9E7
:1026F0002BE823F032A224C73980244D40902434A3
:10270000488D24AF4E78248F56B422AD1C1123ADD2
:10271000237D23C92A55244B32A2242E3AA9249C76
:102720004293240349AA249D51B024A658B8224FAD
:102730001C31231C235F23EB2AD7237B329A24826C
:10274000391525E0409C2484439624B7450725ABE2
:1027500052EA82F41B5483D024B983C32C09747DBC
:10276000355964E93DAD64FB44C9646D4E0F551D98
:102770005C15453064A0624219DF6270203053ACB2
:102780002894531B30ED53A0373C44163FDE347E73
:102790004BF734D052F5349859AB42311BF3429485
:1027A000223E337A298F334231E82374383A242B7E
:1027B000416624D246A724634E6725DF5CED823B49
:1027C0001C5983E924BA83F02C097467355A648F45
:1027D0003DAB64E544C064C84DF154BB59E644D1F7
:1027E00060AC624B1AF56290214C539829B0533477
:1027F000310F546F385344C93FCF345A4AE0347CC8
:1028000051DD34CC58A9425D1BFD424A235433921A
:102810002AA233E831FC2377393D2426417D242F39
:1028200048C424904F5425515CF172831C5E73039D
:1028300025BC731C2D0A6451355B64353DA954D009
:1028400044B744224DD3445B57B744725DB85254E9
:102850001B0B53B0226843852ACC434E3231343EA1
:102860003969347C40C0243549CA242950C6240122
:1028700058A832891B083301246A33AB2BB5239047
:102880003211247B3A4124214194248C49E124BE15
:10289000504125C35BF472CA1C63731C25BE734987
:1028A0002D0A643B355B64DB3CA754BB44AE447DDE
:1028B0004CB644FA548844135AC4525C1C2153D178
:1028C000238443722BE843683353340D3A80342F0A
:1028D00041B1241148B424D64EAF243657A732B4A0
:1028E0001B1233B7248033C42CC823373326247EED
:1028F0003B45241C41AB24E94AFE24EB512E2536EE
:102900005BF862121D68633625C163762D0B542572
:10291000355C44823CA644A744A644D74B983499DE
:10292000525A24B456D142661D3843F124A1335F74
:102930002C043482347624DC3A9724E341A324ED3A
:10294000469F24834D98246B56A632E11B1D336E9F
:10295000259733DD2DDC23DE333C24823C492417CC
:1029600041C224464C1B2519531C25A95AFC628FD1
:102970001D69638225BF63902D0D5436354A44305E
:102980003CA4444044A744424B9C3434526E24E659
:1029900056CF426D1D3743CC2498333B2CF533F58D
:1029A0003369246D3A9424B0419D244D4799241AEB
:1029B0004E9524A856AA321A1C2033172593332685
:1029C0002DDB2382332C247A3B4E24CD40C9244373
:1029D0004B1C257C521925065A00530D1E6A53CEF6
:1029E00025BE43AB2D104448353944DE3BA334DAD1
:1029F00043AA24AD4AA124CE5184241957CE32755E
:102A00001D3633A7249033182CE72367335C24FF4B
:102A10003992247D419724AD479424B24E9224E507
:102A200056AE32541C2333C0248F23702CDA232655
:102A3000331D24723A53248340D124414A1E25E099
:102A4000511825645904538A1E6B531926BC43C67A
:102A50002D12445A3528448C3BA1347443AB2418BE
:102A60004AA524695199244B57CC327C1D353382B9
:102A7000248833F52BD923DA324F2490398F244B15
:102A80004191240D488F244A4F8F242257B2328D12
:102A90001C263369248B23BA2BD923C9320E246A0E
:102AA0003958243940D8243E491F2543511625C2A0
:102AB000580953091F6C536526BB53E12D15446D0E
:102AC0003517343B3BA0340E43AE248349AA24047B
:102AD00051AE247D57CB32851D35335E248033D2F1
:102AE0002BCB234D32422422398D2418418C246E65
:102AF000488A24E24F8C245F57B622C71C29231230
:102B0000248723052BD9236D32FF2363385D24EFFF
:102B10003FE0243C482225A85015252058FF52B3F9
:102B20001E5D53F725B153A62D06440E351A340306
:102B30003BA834A142AE243F49AC249350AD243885
:102B400057C932A31D323387247D33BC2BE82309B8
:102B5000335324B139942487418F24D748912425B5
:102B60005093249757BE22C41C2C230F248B230C74
:102B70002BD82373320324913883249F40D8240513
:102B8000481D252A510625C257F6425E1E4E43892E
:102B900025A7436D2DF733B0341E24CB3AB0243330
:102BA00042AF24FC48AF242150AC24F356C732C2B4
:102BB0001D2F33B1247A33A52B0724C63365244057
:102BC0003A9B24F64193244249982468509A24CF92
:102BD00057C622C21C30230D249023142BD72378F0
:102BE000320724BF38A8244F41D024CE471925AE40
:102BF00051F7246557EC42081E3F431B259D433384
:102C00002DE83352342224933AB824C641B024B874
:102C100048B224B04FAB24AE56C432E11D2D33DB95
:102C20002478338F2B242483347624D03AA224654D
:102C3000429624AC499E24AB50A1240758CE22BF13
:102C40001C33230B2494231C2BD6237E320B24EE1F
:102C500038CE24FE41C724974714253052E9240773
:102C600057E342B41D3043AD249333FA2CD933F4E7
:102C70003326245B3AC0245841B1247548B5243F1B
:102C80004FAA246A56C332001E2B330525762378BB
:102C90002B432440358824603BA924D5429A24172D
:102CA0004AA624EF50A9244058D622BD1C37230938
:102CB000249823252BD523833210241D39F324AEE9
:102CC00042C02461471025B452DB24AA56DD427A63
:102CD0001D2F43B7249133F12CD733C53332243C15
:102CE0003ABD246141B224D248B1246E4FA524C11B
:102CF00056C832EC1D2E3317258123C72B37249954
:102D0000348B24F43AA3245E429B24A249A2246576
:102D100050A6248D57D422BA1C3723FE2398233D76
:102D20002BD6238D321D242B39DB244D42AC242C91
:102D300047EA246E51C824FD55D832401D2F33C2B6
:102D4000248F23E92CD42396333F241C3ABB246BD5
:102D500041B3243049AE249D4FA0241957CD22D928
:102D60001D322329258D23162C2C24F3338E248900
:102D70003A9E24E8419B242D499F24DB4FA324DB6A
:102D800056D322B81C3823F2239823572BD82398E4
:102D9000322B243A39C424EC419924F746C4242A1E
:102DA00050B5245155D232061D2F33CC248E23E04A
:102DB0002CD22367334C24FD39B8247541B4248DBB
:102DC00049AB24CD4F9B247157D222C61D36233BDD
:102DD000259923652C20244D3391241E3A99247182
:102DE000419C24B9489C24514FA0242956D122B596
:102DF0001C3923E7239723702BD923A33238244986
:102E000039AC248B418524C2469E24E44EA224A4DE
:102E100054CD32CD1C2F33D7248C33D82CD023392A
:102E2000335924DE39B6247F41B624EB49A824FC6B
:102E30004F9724C957D722B31D3A234D25A523B553
:102E40002C1524A8329524B3399424FB409D2445A5
:102E5000489924C74E9D247855D022B31C3A23DBD1
:102E6000239823892BDB23AE324624583995242B13
:102E70004172248D467924A04D9024F853CC32E23F
:102E80001C2E33B3248A338B2CD82326336824E6B4
:102E900039B2243141B4247C49A824A84F98244253
:102EA00057D022851D342304259D23752C1B24B067
:102EB000329724D139952438419C248B4897242E6D
:102EC0004F9D242756D022AC1C3D23CC2394238B2A
:102ED0002BDA23A1325B246239B52418417C24CA41
:102EE000458024A54BAD24A453CB32F71C2D338F42
:102EF0002488333E2CE02313337724EF39AF24E4C6
:102F000040B3240D49A924554F9924BB56CA2258D1
:102F10001D2F23BB249623342C2124B9329924F06D
:102F200039962475419C24D2489524954F9E24D6E9
:102F300056D022A51C4123BE2390238C2BD9239449
:102F40003270246D39D5240541872408458724AB88
:102F500049CB245153CA320C1D2C336B248633F0D9
:102F60002BE82300338724F839AC249640B1249E03
:102F700048AA24014F9A243456C3222B1D2A2372B7
:102F8000248F23F42B2624C2329B240F3A9624B399
:102F9000419B2419499324FC4F9E248557D1229E9E
:102FA0001C4423B0238D238E2BD82387328524778E
:102FB00039F524F240912446448E24B147E924FE99
:102FC00052CA32221D2C3347248433A32BF123ED24
:102FD000329724013AA9244940B0243048AB24ADAB
:102FE0004E9C24AD55BD22FE1C252329248823B4E4
:102FF0002B2D24CB329E242E3A9724F1419B246022
:1030000049922463509E243458D122971C4823A20D
:103010002389238F2BD7237B329A2482391525E0ED
:10302000409C2484439624B7450725AB52E682335F
:103030001A41832623C8837F2B23744F3474648BF7
:103040003CE364F2447A6493490655EA5C0A458895
:1030500065D562FB192163F9216863D32AC053CB7C
:10306000311854253964447740C334AC492035F3D2
:10307000512135E259F842351D3A43B024683343B3
:103080002BAA3327330124193A4C24C242622486E6
:1030900047A7242A4FB025C063E782B61A4E838221
:1030A00023CE83082C2574A4347464D53CE864755D
:1030B000459864E24A0155245B03459263D0627EE1
:1030C0001A24637B227663F42ACE535F3219546745
:1030D000396644B440C0342C4904350151FC3438BD
:1030E00059EB421C1D3D4371258533DB2CC3331046
:1030F000342224C13B5224944288248849C2247437
:103100005091250762E972391B5C73DE23D5639108
:103110002C2864FA3474641F3DED54F945B74431EA
:103120004CFD445F59FD349C61CB52021B2853FE79
:10313000228453162BDC43F4321B34AA396834F151
:1031400040BD34AC48E8241050D8248E58DF3203F8
:103150001D41333326A333742EDD23FA3444246A0D
:103160003D58246742AF248A4BDE24BE5172254F5E
:1031700060EA72BC1B6A733A24DC631A2D2A64501D
:10318000357464693DF2547D46D644804DF9449AC5
:1031900057F634A65FC652851B2B538123925338B2
:1031A0002BEA4389331C34EC396A342E41BA342C6F
:1031B00048CC241F4FB424E457D232EA1C4533F5DF
:1031C00026C0330D30F723E4356624123F5E243ADF
:1031D00042D6248C4DFA2408535325975EEC623F67
:1031E0001C78639724E363A42D2D54A6357444B44E
:1031F0003DF8440147F544CF4EF534D555F034B091
:103200005DC142091C2F430424A1335A2BF8331EFD
:10321000341E342F3A6D246C41B824AD47B1242EAE
:103220004E90243A57C632D21C4933B727DE33A614
:10323000311124CE368824BB4065240D42FD248FF5
:103240004F162553543425DF5CF862B91C7C63FAB1
:1032500024E063B12D2E54A53566444E3DEC442B3D
:1032600046F044924DEE34D354EC343D5CC0422BD6
:103270001C2D43DD2393333B2BEB3371331E34FE84
:10328000397024B141AB246448A4243E4F8B24E11F
:1032900057C332D81C46331127CE335A300A240480
:1032A000366A24923E5B2471410125564E312575C4
:1032B000543B256E5C0453331D81535E25DE53BFA2
:1032C0002D2F44A4355944E83CE0345645EC2455B0
:1032D0004CE724D153E924CB5ABF324D1C2B33B6D3
:1032E0002386331D2BDE23C4321E24CD397424F6ED
:1032F000419F241B4998244F5086248858C032DFB0
:103300001C44336B26BF230F2F04243B354D246A06
:103310003C5124D54005251E4D4C2597544325FD91
:103320005B1053AD1D8553C125DB53CD2D3044A318
:10333000354B44823CD4348044E724184BE024CFFE
:1033400052E5245859BE326F1C29338F237833FF3E
:103350002AD12317321E249C3977243B429224D24F
:10336000498C245F5181242F59BD32E51C4233C55D
:1033700025B023C42DFD2371343024423A4724392B
:10338000400925E54B6725B9544B258C5B1C532818
:103390001E8A532526D943DB2D3144A3353E341CE8
:1033A0003CC834AB43E334DB49DA24CE51E224E6B3
:1033B00057BD32921C273368236B33E12AC4236B39
:1033C000311F246B397B2480428624894A802470F3
:1033D000527C24D659BB22EC1C40231F25A1237903
:1033E0002CF723A83313241A383D249D3F0E25AD16
:1033F0004A8325DC5453251B5B1F534B1E85530CFE
:1034000026DA43042E2B4466353D34AA3BD0343EA5
:1034100043E1347F49D9242951DD24A157BF32F13A
:103420001C2933E6237033142BF5230A333824295F
:103430003A8124954283246E4A8A24295286248C18
:1034400059C522FB1C43231C25A523672CFA23BD49
:103450003312245A3876240541FA24DA4977251D97
:10346000553D25FE5922436E1E8143F325DB332E45
:103470002E25342A353C24383BD824D142E024245C
:1034800049D8248450D8245D57C232501D2B33654F
:10349000247633472B2724AA345124E73A8824AAD8
:1034A000428124544A9424E35190244359CF220B5F
:1034B0001D46231A25AA23552CFE23D23311249B03
:1034C00038AF246E42E72407496C255F552725E273
:1034D000582543911E7C43DA25DC33582E1F34EEE9
:1034E000343B24C63AE0246442DE24C848D724DFB3
:1034F0004FD3241957C432AF1D2D33E4247C337AC3
:103500002B582449366A24A53B8F24BF427F243A96
:103510004A9E249C519A24F958D9221A1D492318ED
:1035200025AE23432C0224E7331024DC38E824D6CC
:1035300043D32434486125A0551125C6572843B5E7
:103540001E7843C225DD33822E1934B2343A245416
:103550003AE924F741DD246D48D7243B4FCE24D5EA
:1035600056C7320E1E303363258223AD2B8A24E9E1
:10357000378424643C9624D5427D24204AA92456CD
:1035800051A524B058E3222A1D4C231625B323321B
:103590002C0624FC3310241D3921253F45C024610D
:1035A000475625E255FC24AA561F43681E7443B5AE
:1035B00025D433252E0F3464343F24363AE32402D5
:1035C00042DC241249D224844FCD242E57CA32DD46
:1035D0001D333359258923FB2B5D2498368924CA52
:1035E0003B952449428624C049AA24E450AB2432A6
:1035F00058E1220C1D4C23DE24B3233E2C0024C8AA
:10360000331D242B39FE243A44AC242C471E25D1EB
:1036100053E124FD5517331C1E7133A925CB23C953
:103620002D052416344524183ADE240E42DC24B835
:1036300049CE24CE4FCD248757CD22AD1D37234F01
:10364000259123492C312448358E24303B9524BEC6
:10365000418F246049AB247250B124B557DF22EE6C
:103660001C4D23A624B4234B2CFA2395332B243A48
:1036700039DB2435439924F746E724C151C6245148
:10368000550E33CF1D6E339D25C2236C2DFB23C8F1
:10369000334B24FA39D8241942DC245D4AC9241852
:1036A00050CC24E057D0227D1D3A234525992397FD
:1036B0002C0424F8339324963A942432419824001D
:1036C00049AC240050B7243857DD22D01C4E236E5D
:1036D00024B423572CF423613338244939B82430D7
:1036E000428524C246B024B04FAB24A45406338391
:1036F0001D6B339125B933102DF2237A335124DD1C
:1037000039D3242542DC24034BC5246250CC243910
:1037100058D3224D1D3E233B25A123E62CD823A8B8
:10372000329824FC399424A740A224A148AE248FC7
:103730004FBD24BB56DB22B31C4F233624B5236474
:103740002CEF232E334624583995242B4172248D97
:10375000467924A04D9024F85305338F1D63333EE2
:1037600025B333B32CF42356335F24F439D224AD7C
:1037700041D9244D4AC624F44FC9245D57D0224D67
:103780001D3D2315259D23D42CE323D132982408F5
:103790003A9024CE40A224E848A124754FB124FDDC
:1037A00056DF22BE1C53233224B423582CE92301B4
:1037B000335B246239B52418417C24CA458024A592
:1037C0004BAD24A45304339C1D5B33EB24AD335722
:1037D0002CF62332336E240C3AD2243541D624976A
:1037E00049C724874FC6248256CD224E1D3C23F064
:1037F000249A23C22CEE23FA329924153A8D24F60A
:1038000040A3242F4994245C4FA5243F57E322C9A9
:103810001C57232F24B4234C2CE323D43270246D63
:1038200039D5240541872408458724AB49CB245149
:10383000530333A81D53339824A733FA2BF8230ED0
:10384000337D24243AD224BD40D324E148C824192E
:103850004FC324A755CA224E1D3B23CB249723B028
:103860002CF92323339924213A89241E41A3247659
:10387000498724434F99248157E722D41C5B232C8A
:1038800024B423402CDD23A73285247739F524F294
:1038900040912446448E24B147E924FE520333B5B7
:1038A0001D4C334524A1339E2BFA23EA328C243C51
:1038B0003AD2244540D0242C48C924AC4EC124CC53
:1038C00054C7224F1D3A23A62494239F2C05244C31
:1038D000339A242E3A86244641A424BD497A242AC8
:1038E0004F8D24C357EB22DF1C60232924B42334DB
:1038F0002CD7237B329A2482391525E0409C2484DE
:10390000439624B7450725AB52E482251A42835ECD
:1039100023D083D12B3074D03484645E3DFB64CBE0
:10392000458264404A1855C55E17458767DD62F2D7
:10393000192B63DD217253F82ACE53D4312A544413
:10394000397744C640DA343C4A3B35B55236359C6B
:103950005A0343AA1D464319257333B82BB633CDFA
:10396000331124C53A5D24A0436E241448B424D1F5
:103970004FD125BA65E682B71A5283C523D8836A28
:103980002C337434358564A63D01655C46A464AF70
:103990004B1355D75C0F454865D8627B1A2F636D72
:1039A000228253152BDD537F322B5495397A4412E2
:1039B00041D734A8491C359E510E35D559F542875B
:1039C0001D4A43F1259333742DD133C534352496E4
:1039D0003C632464439824444AD1243351AF25C125
:1039E00063E972491B62732B24E173032D38649AD7
:1039F000358764EE3D0755EE46C7441E4D0F45EB37
:103A00005A08450A63D352051B3453FE22934333AD
:103A10002BED432B332D34E7397C345E41D4241510
:103A200049FD248750E7240F59E932641D4F33CBF9
:103A300026B433322FEE23BF355A24683E6A242938
:103A400043C324734CEF2494528D25C861EC72DB80
:103A50001B73739124EB739C2D3B64003688643692
:103A60003E0D558047EA448D4E0B45FE580045CC2F
:103A700060CE528E1B37538F23A343512BFD43D768
:103A8000332E34383A7E34A941D1248148DF247062
:103A90004FBF244858DC32411D5333A427D533EFA0
:103AA000300A24B93680243A407024EE42ED24A333
:103AB0004E0E25F5536A25D05FEF626D1C8363F9C6
:103AC00024F463362E405466368A44803E154512EF
:103AD000480C45FD4F07351157F9248D5EC9421832
:103AE0001C3C432024B4336F2B0C34823431248AA1
:103AF0003A8124F641CF24EF47C1245A4E982481BD
:103B000057CF321F1D58337E28F633AD322724B3EA
:103B100037A5240C427724B3421825D4502C2558BD
:103B2000554825D85DFD62EE1C88635825F0633A40
:103B30002E405458367944083E07452147064591A2
:103B40004EFD34E555F424FE5CC8423C1C3A43F972
:103B500023A4335B2BFE33CB3331245B3A85243BE8
:103B600042C024C348B2248B4F8F242C58CD32241A
:103B70001D5533C027E4333F311F24D9368324A594
:103B80003F6C2407421D25634F48256F554E255C29
:103B90005D0A536E1D8D53B925ED433E2E40444BB7
:103BA000366A44913DF93430460025264DF224B85A
:103BB00054F0246F5BC732601C3833D223963347EE
:103BC0002BF023133332242B3A8A248042B32496D9
:103BD00049A524BD508724D758CA322A1D54330220
:103BE00027D323D32F1724003663243F3D60245A64
:103BF000412125F34D642587555525DF5C1853EF8A
:103C00001D91531826EA43422E41443D3659441A29
:103C10003DEB343F45F924BB4BE8248B53EB24E0C8
:103C200059C632841C3633AB238633342BE2235BF4
:103C3000323224FB398D24C542A5246A4A9724EEEA
:103C4000517F248259C7322F1D52334426C3236724
:103C50002E0F2426354224D93A5524AE40262583FA
:103C60004C80259E555C25635C2553701E975379C7
:103C700026E753462E414430364A34A23CDD344ECA
:103C800044F4244F4ADF246052E7245158C532A936
:103C90001C333384237833202BD423A5313324CC15
:103CA0003992240A4397243D4B8A24205376242DAD
:103CB0005AC522351D50238625B223FB2C07244CE0
:103CC0003422247338492401402B25134B9D25B7FA
:103CD000556325E75B2853831E91534D26E75368B0
:103CE0002E3A44D6354834193CE434C243EE24E13C
:103CF00049DD249E51E224FA57C632041D343303B1
:103D0000247C33492B08245C334D24853A96240ABD
:103D1000439124074B9124C7528124E459CF224573
:103D20001D53238325B523DC2C0A2456342024ADCF
:103D30003887247A4114252C4A9025F4554B259D2B
:103D40005A2A43951E8B432226E8438B2E33347C1C
:103D50003546248F3BEC243543EA247349DC24DBCD
:103D600050DC24A457C9325F1D353384248133715C
:103D70002B3D24143566243E3B9C240A438B24D1DE
:103D80004A982470528C249D59D822561D55238060
:103D900025BA23BE2C0E2460341D24E938C424F433
:103DA00042FD24454984253256332554592D43A8D4
:103DB0001E8543F625E843AD2E2C342235442406D7
:103DC0003BF424A842E5240449DA241950D6244EB1
:103DD00057CA32B91D3533042586339A2B7124CB4B
:103DE000367F24F83BA1240A4385249B4A9F24184C
:103DF0005297245559E222661D58237D25BD239FE5
:103E00002C11246A341B24243902256D44E5245ED8
:103E10004877256F561B250C582F43BB1E8043CB7C
:103E200025E933D02E2534C83442247C3AFD241BA6
:103E300042E0249748DA24574FD024F956CC321464
:103E40001E373385258C23C22BA62483389924B2B0
:103E50003CA7240A437F24664AA824C151A3240D09
:103E600059EC22771D5A237A25C123812C152474FD
:103E7000341A2460393F25E645CF2477476B25ADBA
:103E8000560425C3562543691E7C43BE25DE336791
:103E90002E1A34773443245B3AF2242642DF24433B
:103EA00049D424A44FCF245D57CF32E51D3A337B4C
:103EB0002593231E2C742414379C240D3CA1246DBF
:103EC000428724FF49A9243651AA247B58EA225468
:103ED0001D5A233D25C223912C0F243734282469F1
:103EE000391825C444B62445472C257854E6241AAD
:103EF000561C33171E7833B225D423FF2D0E2425EC
:103F00003445243A3AE9243142DF24EF49D024F2FF
:103F10004FCF24C157D222B81D3D2370259B237A51
:103F20002C4324A5359F24693B9C24D0418F2497A2
:103F300049AA24AA50B024EA57E822311D5B23FF86
:103F400024C323A12C0924FB3337247439F124A280
:103F5000439F241447EF244452C82472551233C59A
:103F60001D7433A625C923962D0324D43348241960
:103F70003ADF243B42DF249B4ACA244050CE24250A
:103F800058D5228B1D40236625A323D62C10243719
:103F900034A224C43A9624334197243049AB241FD9
:103FA00050B7245857E6220E1D5C23C124C323B109
:103FB0002C0324BE3346247E39CA2480428624E35F
:103FC00046B1240F50AB24C9540933741D70339982
:103FD00025BF332E2DF92382334A24F839D52447BF
:103FE00042DF24484BC6248E50CE248958D8225D07
:103FF0001D44235C25AA23342DDF23C832A42420AA
:104000003A91249640A024CA48AD24954FBE24C7B7
:1040100056E422EC1C5C238424C423C22CFE23829D
:104020003355248939A3245E416F24B2467424DBBE
:104030004D8D2421540833831D68334125B933CA7B
:104040002CFB2363335A24143AD424CA41DC248C35
:104050004AC7241950CA249857D422611D432336D5
:1040600025A6231C2DEB23F432A324253A8C24C24D
:1040700040A0240D499F24754FB0240D57E922F626
:104080001C60237A24C223B22CF6234D336A248F7A
:1040900039C2246C417924FF457B24CB4BAD24E607
:1040A000530733941D5F33E924B333682CFE234454
:1040B000336C24323AD4244D41D924CF49C824A6A4
:1040C0004FC724A856D122651D42231125A32305DD
:1040D0002DF7231F33A2242C3A8924F040A1245029
:1040E000499124554FA3245357ED22011D64237198
:1040F00024C223A22CEE2318337F249739E1247A9B
:104100004184244D458324BC49CE24AC530633A4BA
:104110001D56339124AD33052C002424337D244FC8
:104120003AD424D040D5241349C924324FC424B7EB
:1041300055CE22691D4223EC249F23ED2C03244BF2
:1041400033A024313A84241D41A12493498224368A
:104150004F96249A57F1220B1D68236924C123929C
:104160002CE723E33294249D39002587418F249B3B
:10417000448B24AD47EF2473530733B41D4F3339B9
:1041800024A733A22B022405338E246C3AD4245363
:1041900040D2245848CA24BF4EC224C754CB226DF3
:1041A0001D4123C6249C23D72C10247733A0243808
:1041B0003A81244A41A224D6497424174F8924E025
:1041C00057F522151D6C236024C023822CDF23B0F9
:1041D00032AA24A4391F2596419A24E84393249FA8
:1041E0004510253953F882BE1A3283F02073834478
:1041F000289E73452FD3634734F263783C2464CC04
:10420000425254564A884491517F62501AB8620A09
:1042100023FC62592933536F316453EF379F435C5A
:104220003DD5330A440B34564A4834985287429B52
:1042300018BA429320F632AB263133AA2C61235FA1
:10424000339F23113AE423F14122249F485E24F353
:104250004FEC82A91A2683E42063832C289173FCF7
:104260002EC463A434EA636D3C1C64D9424C541ED2
:104270004A8B446E527A62971AB3620123F562A2A6
:104280002930531E3162539A379E43053DD4334C37
:10429000440C34DD4A45340D537E42E618B642697B
:1042A00020F332D8263133F52C61236A33A1236FF2
:1042B0003AE5232C422724FE486024BF50E0729444
:1042C0001A1A73D920546315288463B32EB5630179
:1042D00035E353633C1544E7424644E6498E344C8B
:1042E000537552DF1AAF52F922EE52EC292D43CE0C
:1042F00030613345379E33AE3CD3338F440D246554
:104300004B4224835375323119B3324020F03205C9
:10431000273123412D61237533A323CD3AE623674B
:10432000422C245E4962248C51D4727F1A0E73CDC4
:10433000204563FE2777636A2EA6635E35DB5358FC
:104340003C0D44F5424044AE499134295470522703
:104350001BAA52F022E752352A2A437D305F33F000
:10436000369D33573CD233D1440E24EC4B3F24F8D6
:10437000536C327C19B0321720ED32322731238D45
:104380002D61238033A5232B3BE723A2423124BE9A
:104390004964245852C9626B1A0363C2203663E72A
:1043A000276B53222E9743BB35D4434E3C06440320
:1043B000433B347649943407556B426F1BA642E861
:1043C00022E1327F2A28332D305E339C369D230133
:1043D0003CD12314450F24744C3D246E546432C7E1
:1043E00019AD32EE1FEB3260273123D92D62238BBA
:1043F00033A8238A3BE823DD4236241E4A6724255E
:1044000053C662A51A046347213B63562873539F22
:104410002EA2430236DC438C3C1244954356341E94
:104420004A9834B15469427C1BA642C122E232F858
:10443000292533EA2F5A335C369A23453CD223ADE3
:104440004411243A4C5A24ED545F32D919A832361B
:1044500020ED325F273823B02D6823D033AE23926E
:104460003BE723D0434624AA4A78242253C352DF91
:104470001A0553CD214053C6287C431D2FAE434A15
:1044800036E433CA3C1F2428447124C64A9D245C68
:10449000546732891BA7329B22E43272292223A857
:1044A0002F56231D3698238A3CD3234744132401D7
:1044B0004C77246D555B32EC19A4327F20EF225FDC
:1044C000274023882D6F231534B4239B3BE723C358
:1044D000445624364B89242053C052191B0653528C
:1044E000224553352984439A2FBA439136EC330839
:1044F0003D2C24BA448C246E4BA22407546532967A
:104500001BA7327422E532EC281F23662F5223DDCD
:10451000359523CF3CD423E1431524C84B9424ED97
:10452000555732FE19A032C820F1225F2748235F79
:104530002D75235A34BA23A43BE723B6456624C21B
:104540004B9A241D53BD52531B0753D8224B43A5EE
:10455000298D431830C633D936F533463D39344DAD
:1045600045A724164CA724B2536432A31BA8324E8D
:1045700022E73266281C23242F4E239E35932314D2
:104580003DD5237B4318248F4BB2246D5653221103
:104590001A9C221121F4225F275023372D7C239F60
:1045A00034C023AD3BE723A94676244E4CAB241BF5
:1045B00053C4521B1C0D537A235143182A914306AE
:1045C00031CE335237FF33163E5834AB45AA2497C9
:1045D0004CAA24205470322E1CB732BD22F4320271
:1045E000293123D32F65238B36A823FD3DF7237470
:1045F000443E24F44BB22413566022141AA222160D
:1046000021FE22CC275623BB2D86231635CB236EC5
:104610003CF623A0467924B74CAB24C053CB42E3ED
:104620001C14431D2457338B2A9533F431D723CCE4
:10463000370924E73E77240946AE24194DAE248F6E
:10464000547C32B91CC7322D2302339E2946238263
:10465000307C237937BD23E73E1A246E4565245A02
:104660004CB224B9556D22181AA9221B2109233AEC
:10467000285D233F2E91238E35D7232F3D06249787
:10468000467C24214DAB246554D242AB1D1A43BF56
:10469000245D33FE2A9933E232E02346381324B7EF
:1046A0003F96246746B2249A4DB224FE5488324481
:1046B0001DD6329C230F333A2A5B23313193236773
:1046C00038D223D03F3D2467468B24C04CB2245FB0
:1046D000557A221B1AB02220211323A8286423C351
:1046E0002E9C230536E223F03D16248E467F248A35
:1046F0004DAB240A55D942731E21436225633372A0
:104700002B9D33D033E923C0381E248840B624C6FD
:1047100046B6241C4EB6246D559432D01DE6320C9C
:10472000241D23D72A7123E031AB235539E823BA5E
:104730004060246147B224264DB224055587221FCC
:104740001AB72225211E2316296B23482FA7237D64
:1047500036EE23B23E262485468324F44DAB24B0A6
:1047600055DC425C1E2443572568338E2BA033A5AD
:10477000331224C13844249940B6242847B6243F34
:104780004EB62456559732851DEC320424252397C6
:104790002A7723C031C62324391A24DE40742449E1
:1047A00047B224B04DB22454558322341ABA22267B
:1047B000211D23FE2866236F2FA823B836F323CFAD
:1047C0003E40242A468D244A4DAB24D954E032453C
:1047D0001E28334D256E23AA2BA3237A333C24C3F2
:1047E000386A24AB40B6248B47B624634EB62440C7
:1047F000559A223B1DF222FC232D23582A7D23A10A
:1048000031E123F3384D24034189243147B2243B5D
:104810004EB224A3557F224A1ABE2227211C23E729
:10482000286223972FAA23F436F823EC3E5B24CF8B
:10483000459724A04CAB240354E4322E1E2C334362
:10484000257323C62BA6234F336624C4389024BD7A
:1048500040B624EE47B624864EB62429559D22F153
:104860001CF822F4233523192A83238231FC23C226
:10487000387F2428419D241947B224C64EB224F221
:10488000557B225F1AC12228211B23CF285D23BE1E
:104890002FAB233037FD23093F75247445A124F63F
:1048A0004BAB242C53E832171E303339257933E3D0
:1048B0002BAA2324339024C638B624CF40B62451E3
:1048C00048B624AA4EB6241355A122A71CFE22EDF9
:1048D000233E23DA298A23633117249138B2244DE9
:1048E00041B2240247B224514FB224415678227576
:1048F0001AC52229211A23B8285923E62FAD236C83
:10490000370324263F90241945AB244D4BAB245646
:1049100052E432FF1D2F3319257433C52BA823D140
:10492000328824AB38B6248840B624D747B62479D9
:104930004EB6240C559F22841CFA22C9233E23FE26
:10494000298C2371312824DE38B2243F41B22471EE
:1049500047B224754FB22457567B22861ACB225E6B
:10496000212023D22862230630C0239A372D24CC5D
:104970003D9624B743AB24234AAB240851E132E8E7
:104980001D2E33F9246F33A82BA6237E3281249069
:1049900038B6244240B6245E47B624484EB62406B4
:1049A000559D22621CF722A5233F23232A8F2380B3
:1049B0003139242C39B2243241B224E047B2249A4E
:1049C0004FB2246E567F22971AD22293212623ECCF
:1049D000286C232730D323C8375724733C9D245693
:1049E00042AB24FA48AB24BA4FDE32D01D2D33D966
:1049F000246A338A2BA4232B3279247538B624FCFD
:104A00003FB624E546B624174EB62400559B223FF8
:104A10001CF42281233F23482A92238E314A247991
:104A200039B2242541B2244F48B224BF4FB2248466
:104A3000568322A81AD822C8212C23062975234878
:104A400030E623F63781241A3BA424F440AB24D06B
:104A500047AB246C4EDB32B91D2D33BA2465336D60
:104A60002BA323D83172245A38B624B63FB6246C0F
:104A700046B624E74DB624FA549A221D1CF1225D55
:104A80002340236D2A95239D315B24C739B2241816
:104A900041B224BE48B224E44FB2249B568722BAC6
:104AA0001ADF22FE21332321297F236930F92325B0
:104AB00038AB24C139AB24933FAB24A746AB241EAB
:104AC0004DD88247192C839A2074736E279973D816
:104AD0002CCE73D433FA633B3B2F54C24163547AD8
:104AE000499C4413517C62A619C4621B22075331AE
:104AF000294653A13076539536AA43893CE6435163
:104B0000431F342E4A5734A7516B426217A74242C3
:104B10001EDA323A2413338F2A3D230C317823E7EF
:104B200037B423273FED2320461F24564DD2822839
:104B30001921836E20647356278F73FC2CC3731363
:104B400034F263543B285402425C544D49994479F1
:104B5000517962061ABF62352201533D29405362E2
:104B60003071537236AA43743CE743A0432034B3F8
:104B70004A5734B7516442CB17A042661ED4328ED6
:104B8000240F33F02A3B23653177236038B423CCDC
:104B90003FF02336472124664ECD720A191673431F
:104BA0002055733F278563212DB9635234EB536E33
:104BB0003B2154434255441F499644E05177526784
:104BC0001ABB524F22FC524A29394324306E334FCC
:104BD00036AB33603CE823F0432024394B5624C7DE
:104BE000515C3235189A328A1ECE32E2240B23529F
:104BF0002B3A23BF317523D938B5237240F2234EA7
:104C0000482324764FC772EC180B7318204573287D
:104C1000277B63462DAE639034E353873B1A54845D
:104C2000424E44F248934447527552C81AB65269EC
:104C300022F65256293343E52F69332B36AB334BDB
:104C40003CE8233F442124BE4B5624D65155329F85
:104C5000189332AF1EC83236250823B42B392318D7
:104C60003274235239B5231841F52365492624852A
:104C700050C362CF180063ED1F3653112771536B79
:104C80002DA353CF34DC43A13B1444C5424734C465
:104C9000489024AE5273422A1BB2428422F23263FD
:104CA000292D33A72F66230936AC23373CE9238F00
:104CB000442124434C5624E7514E3209198D32D3F6
:104CC0001EC3328B250423172C392372327323CC55
:104CD00039B523BE41F8237D4A29249651BE62F19D
:104CE00018FD624220365348277153AB2DA653EB73
:104CF00034DE43C13B1844E1425334304994249795
:104D0000527042381BB0424D22EF3205292B3361DD
:104D10002F6223D935A923593CE82341442224FAA0
:104D20004B65247A524B32F1188932071FC532A2E3
:104D3000250823FB2B3B23B9327623F939B42342D0
:104D4000420024D84A34240F53B9521419FA529805
:104D50002036437F277143EB2DAA330835E133E139
:104D60003B1C24FD425E249C49992481526D3246AD
:104D70001BAF321622EE32A82829231B2F5E23AA4E
:104D800035A7237C3CE823F4432324B14B74240E41
:104D9000534832DA1885323C1FC722BA250C23E06B
:104DA0002B3D2300337923263AB423C7420824330A
:104DB0004B40248954B5523619F752ED203643B58D
:104DC0002770432A2EAD332435E333013C212419C7
:104DD000436A24074A9E246B526932541BAE32DE6A
:104DE00021EC324B282823D62E5A237A35A4239E31
:104DF0003CE723A7432324684B8324A2534632C3B2
:104E0000188232701FC922D2251023C52B3F234799
:104E1000337C23543AB3234B4310248F4B4C24034D
:104E200056B0525919F55243213753EC2770436B52
:104E30002EB1434035E733223C2524364376247394
:104E40004AA42455526732621BAD32A821EA32EEE1
:104E5000272623902E56234B35A123C13CE7235A06
:104E6000432524204B922436544322AC187E22A59D
:104E70001FCC22EA251523AA2B42238E337F2382BF
:104E80003AB323D0431824EA4B58247D57B1520635
:104E90001AF652AC2137532E287143E52EB2437BCC
:104EA00035EA339B3C352483437B249E4AA3244B21
:104EB000526B32AF1BB432F321F13253283023F757
:104EC0002E6323D535AD23423DF82304443924B85D
:104ED0004B9A245B544722D9188022BF1FD0224707
:104EE000261723352C462300348323103BBB23E6AF
:104EF000431A24124C4D246E56B142B31AF742168F
:104F00002238436F2872335F2FB323B735EE231552
:104F10003D4424CF438024CA4AA22443527032FB2A
:104F20001BBC324022F832B7283B235E2F70235F30
:104F300036B823C43D0A24AF444F24524CA1247FE9
:104F4000544B2206198222D81FD422A5261A23BF29
:104F50002C4A23723488239E3BC323FD431C243BED
:104F60004C42245F55B242601BF84280223843B164
:104F7000287333D92FB523F235F2238E3D54241CE8
:104F8000448624F54AA2243A527532481CC4328C15
:104F900022FE321C294523C52F7C23E936C4234534
:104FA0003E1C245A456324EB4CA924A4544E2233BE
:104FB000198522F21FD72203271D234A2D4F23E4F0
:104FC000348C232C3CCC2313441E24644C362450B4
:104FD00054B2420D1CFA42EA223933F32875335396
:104FE00030B6232E36F623083E642469448B2420F1
:104FF0004BA12431527A32951CCC32D8220633810F
:105000002950232C308A237337D023C73E2E240502
:10501000467924844DB124C8545222611987220B49
:1050200020DC2261272023D52D542357359023BA25
:105030003CD4232A4421248D4C2B244253B342FDDB
:105040001BFB42D4223C33192976335330CE233A0A
:10505000360924FA3D6424A1449524864BA5249363
:10506000527B32561CCD32C62209336D2952232C75
:105070003097237537E923013F3B242B467B24E8F7
:105080004DB12402554F22711989222120DC224D75
:10509000271C23EE2D552372359623DF3CE3230B8B
:1050A000441A241B4C33249D51B532ED1BFD32BFF5
:1050B0002240233F2977235430E62347361C24EE31
:1050C0003D6424DA449F24EC4BAA24F5527D221837
:1050D0001CCF22B3220D235A2955232C30A4237828
:1050E0003704243D3F492451467D244D4EB1243D93
:1050F000554C2281198B223720DD223927192309AB
:105100002E58238D359C23033DF323EC431424A90F
:105110004B3B24F84FB632DE1BFE32AA22432365F6
:105120002978235430FE2354362F24E13D64241380
:1051300045A924514CAE2457537E22D91BD122A11C
:10514000221023472957232C30B1237A371E247885
:105150003F562477467F24B14EB12477554922919A
:10516000198C224D20DE2225271523222E5923A813
:1051700035A223283D0224CD430D24374B4324532D
:105180004EB832CE1B0033952247338C297A2355F3
:1051900030162461364224D53D64244C45B324B7EF
:1051A0004CB324BA5380229B1BD3228F2215233465
:1051B000295A232C30BE237D373824B33F64249DE5
:1051C000468124164FB124B1554622A2198E22637E
:1051D00020DF22122712233D2E5C23C335A8234D46
:1051E0003D1224AF430724C54A4B24AE4CBF3212B4
:1051F0001C0833F4224D33B92984237030222493C0
:10520000365E24E83D77244145B324874CB3249887
:10521000537E227F1BD1227B22152333295C232E30
:1052200030CB239D373A24D13F6724E0468D242C90
:105230004FB124B5554722AF1992227E20DF223587
:10524000271723712E6623ED35BE23B33C2224B9E4
:10525000412224D54839244F4CC632561C113353B1
:10526000235433E7298E238C302F24C6367A24FD2D
:105270003D8B243645B324584CB32476537D2264A9
:105280001BCF226822152332295E233030D723BD5D
:10529000373C24EF3F6A2423479924434FB124BA73
:1052A000554822BC1996229920E02258271C23A792
:1052B0002E71231836D4231A3C3324C43F3D24E5F1
:1052C000462724F14BCE32991C1933B2235A331599
:1052D0002A9823A8303B24F9369624113E9F242C8B
:1052E00045B324284CB32455537B22481BCD22546C
:1052F000221523312961233230E423DC373E240D8B
:10530000406E246647A5245A4FB124BE554A22C98F
:10531000199922B420E1227A272023DC2E7B234214
:1053200036EA23813B4424CE3D5824F4441424928D
:105330004BD532DE1C223312246133432AA323C40B
:105340003047242C37B324263EB3242145B324F917
:105350004BB32434537A222C1BCB22402216233009
:105360002963233530F123FD3740242C407124AAD2
:1053700047B124714FB124C3554B22D7199E22D077
:1053800020E2229E272523112F86236D360124E853
:105390003A5524D93B742404430224334BB882D0B9
:1053A00017278344207583992695736B2ACA6362F5
:1053B000330364FF393A64B84075549F48B044954C
:1053C000507962FC18D0622C2112630A295A53D3F7
:1053D0002F88533C35B643B63BF8339942343407F3
:1053E0004A6734B750504229169442F21BBE32CA63
:1053F00021F53274281923BA2E5223BD3585235D39
:105400003CB923A143E023BA4AB982A8171C83F907
:105410001F658381268D73FD2AC3638233FB633C42
:105420003A34642B416C547C48A7448550796276A9
:1054300019CB6269210E63D9285053A62F81534A94
:1054400035B743E43BFA33F54234348A4A69346170
:10545000504A42B1168A42631CB5324522ED32EC05
:10546000281623612F4D23513684236D3DB9236FB8
:1054700045E2230D4CBA7281171273AE1F56636A50
:10548000268663902BBD63A333F3537A3A2E449F51
:1054900041644459489E3475507A52F019C752A657
:1054A000210A53A82846437A2F7B335935B9331242
:1054B0003CFD33524334240D4B6B240B5044323AA1
:1054C000178132D51CAD32C022E62264291423098B
:1054D000304823E53684237E3EB9233E47E52360EA
:1054E0004DBB725A170873631F466353267F6322AE
:1054F0002CB663C333EB53B73A284413425C4436AB
:1055000048953465507B526A1AC352E3210653779B
:10551000283C434E2F74336735BA33403CFF33AEDB
:10552000433424904B6D24B54F3E32C21777324737
:105530001DA4323B23DF22DC291223B1304323791F
:105540003783238F3FB9230D49E823B34EBD623320
:1055500017FE62181F37633C267853B52CB043E41E
:1055600033E443F53A23448742543413488C34558A
:10557000507C42E51ABF42212203334728323322AE
:105580002F6E337635BC236E3C02240B4434241337
:105590004C7024604F38324B186E32B91D9C32B6B5
:1055A00023D822552A102359313F230E388323A0B4
:1055B00040BA23DC4AEB230750B6623E17F7623D40
:1055C0001F32633A266F53B72CAB43D533E143F711
:1055D0003A1E442D425034424891347D507742F473
:1055E0001ABB42D921FD3213283133D82E6A3356E3
:1055F00035B9236E3CFF23D6433324BA4B702408BD
:105600005037320A186A32D91D9E32E523D8224714
:105610002A0E23A2313F2360388223B540BA2306E5
:105620004BF123FD52B0524917F052631F2D5338EE
:10563000266643B92CA643C633DE33F93A1A24D37F
:10564000414C2472489624A6507332031BB8329101
:1056500021F832DF2731238F2E66233735B6236EAC
:105660003CFD23A2433324624B7124B0503632C92F
:10567000176732F91DA0221524D922392A0C23EBF1
:10568000313F23B2388123CB40BA23314BF823F387
:1056900055AA525417E952881F285336265D43BB3A
:1056A0002CA143B733DB33FB3A162479414824A1BC
:1056B000489B24CF506E32121BB5324921F332ABD6
:1056C000273123462E62231835B3236E3CFB236E0D
:1056D000433224094B7224585135328817643219E9
:1056E0001EA2224524D9222B2A0A2334323F230426
:1056F000398023E140BA235C4BFF23E958A4525F71
:1057000017E352AE1F234334265443BE2C9C33A8C8
:1057100033D933FE3A123420414524D148A124F82C
:10572000506A32221BB2320221EE3277273123FD3A
:105730002D5F23F934B0236F3CF9233A433224B16F
:105740004A732400523422471761223A1EA522755B
:1057500024DA221E2A08237D323F2357398023F77B
:1057600040BB23874B0624DF5B9E52F117DF52DFDD
:105770001F1E4344265243C42C9633A533D63320F0
:105780003B12345B414C24A6489C2477506732304E
:105790001BB2322A21EE32A42730231C2E61231F94
:1057A00035B223883CFA23954335247D4B8224A3CC
:1057B000522E229E175E22681EA222C224D822AF39
:1057C0002A0623EA323C23B23980232D41BC236EC2
:1057D0004BEF231C5998428318DB42102019335495
:1057E000265033CA2C9023A233D423433B12249651
:1057F0004153247B489724F74F65323E1BB2325306
:1058000021EE32D12730233B2E64234535B423A12A
:105810003CFB23F14339244A4C912446532922F579
:10582000175C22961E9F221025D722402B04235757
:105830003339230D3A81236341BD23564BD9235A73
:105840005692421519D7424120143364264E33D064
:105850002C8A239F33D123653B1224D1415A2450F3
:10586000489224764F63324C1BB2327C21EE32FEDA
:10587000272F235A2E66236B35B623BA3CFC234DC3
:10588000443C24164DA024E95323224C185A22C428
:105890001E9C225E25D622D12B0223C433362368D8
:1058A0003A82239941BE233E4BC22397538C42A791
:1058B00019D4427320103374264D33D62C84239D83
:1058C00033CF23883B12240D42612425488D24F6D2
:1058D0004E61325B1BB232A521EF222C282F237997
:1058E0002E69239135B823D43CFD23A9444024E3F9
:1058F0004DB0248C541E22A3185822F21E9A22ACBA
:1059000025D522622C012332343323C33A8323D09A
:1059100041BF23264BAC23D5508B429E19D3425214
:10592000201133A4264C33022D8A23B433CF235CB9
:105930003B12241B427424CD489524D04F6032285A
:105940001BAF328821EE2244282E23982E6823C7CD
:1059500035B923253D03240D454424214EB024B1FF
:10596000541B22AE1858221D1F9C229C25D2226E49
:105970002C03232C343923EF3A8723ED41A823EC61
:105980004ABC23614E8A329619D23232201223D475
:10599000264C232E2D9023CC33CF23313B12242AA7
:1059A00042882475499E24AB506022F51AAD226BC3
:1059B00021ED225D282D23B72E6723FD35BB2377EC
:1059C0003D0924714548245F4EB024D7541922B9AB
:1059D000185822481F9F228C25D0227B2C06232674
:1059E0003440231B3B8B230A429123B24ACC23EE43
:1059F0004B89328E19D1321120132304274B235A9D
:105A00002D9623E433CF23063B122438429C241DD9
:105A10004AA72486515F22C21AAB224E21EC22767D
:105A2000282C23D62E66233336BD23C83D0F24D51C
:105A3000454C249D4EB024FC541722C418582273A0
:105A40001FA1227C25CE22872C0823203447234700
:105A50003B8F2327427A23784ADC237A498832868F
:105A600019D132F11F153335274B23862D9D23FC89
:105A700033CF23DB3A12244742B024C54AB0246115
:105A8000525F22901AA9223221EC228F282B23F573
:105A90002E66236A36BF231A3E162439465024DC6C
:105AA0004EB02422551522D01858229E1FA4226DD4
:105AB00025CC22942C0B231A344E23743B9423457B
:105AC0004263233E4AEC2307479A32251AE232CF3B
:105AD000202733AE276123102EBD237C34072449B1
