:100000000C94626B0D94763A0D944B3A0D94203A11
:100010000D94F5390D94CA390D949F390D947439A6
:100020000D9449390D94CC3A0D94CC3A0D94CC3AB8
:100030000C94936B0C94936B0C94936B0C94936B48
:100040000C94936B0C94936B0C94936B0C94936B38
:100050000C94936B0C94936B0C94936B0D94FF38EE
:100060000C94936B0D94DD340D94B3340C94936B1A
:100070000C94936B0C94936B0D947A3F0C94936B4C
:100080000C94936B0C94936B0C94936B0D94A13A1A
:100090000C94936B0C94936B0C94936B0D94B13CF8
:1000A0000C94936B0C94936B0C94936B0C94936BD8
:1000B0000C94936B0D94C53B0C94936B0C94936BC5
:1000C0000C94936B0C94936B0C94936B0C94936BB8
:1000D0000C94936B0C94936B0C94936B0C94936BA8
:1000E0000C94936B0D942D2E0D94382F0D94701548
:1000F0000D94E4300D9478150C94A09F0C9459E065
:100100000D94E61F0D94965E0D94D02F0C94D6DFBF
:100110000D94CF2F0D941F2E0C9438DF0C9445E0D6
:100120000D9498200C94BA6B0D9401140C943CE639
:100130000D94292F0D94EF130C94729F0D94322E71
:100140000D94EA5D0D9426500D9430150D94172EE4
:100150000D94CB130D94B22B0D94252E0D94332EAC
:100160000D943A5F0D9482360D94D54E0D940E1871
:100170000D9444500D94292E0D9414500C948FFB23
:100180000D9427360D944B2F0D949C5E0C9452C009
:100190000C9484DF0D94AB1C0D94A22B0D94FC14D5
:1001A0000D94C82E0D946C160C94CCBD0C9458C0B4
:1001B0000D94F82D0D9426300C9476FB0C948DDF65
:1001C0000D9441500D94065D0D942F360D940D2E17
:1001D0000C948AFB0D94922B0D941D500D94643653
:1001E0000D94FE5C0D94F02C0C94E3DF0D945536C9
:1001F0000D943D2E0C9477DE0D941A200D94FC2D59
:100200000C949A9F0D94522F0D94355F0D946E3679
:100210000C9450DF0C9470DE0C949ADE0D94A02C9C
:100220000D9404360D945B4E0D94EC5D0D94F24FDD
:100230000C946BFB0D94E35E0C94C1DF0C94CEDF49
:100240000D941C4F0D94915D0D94002E0D942B5F19
:100250000C944BE00C94979F0D9435500D947F2F88
:100260000D94272F0D9474150D94282F0D941015AF
:100270000D94972B0D9405140D94255F0D944A074A
:100280000C949D9F0D9413420D94E05E0D9432509A
:100290000C94F9DE0D942C500D94F05D0D9478368D
:1002A0000C946D9F0D9439500D94042E0C94A9BD9F
:1002B0000D9496360D94AF4D0D94B8150D944B36A4
:1002C0000D94372E0D9423500C94B1BD0D94935E74
:1002D0000D94AE2F0D948C200C947EDE0C94679FB1
:1002E0000D94FC5D0D94DB1E0D94C42B0D94BE1F6C
:1002F0000D94A4200C94CDDE0C9452E00D94133692
:100300000D94896D0C94EFDE0D94F22D0D94562E04
:100310000D94E65E0D942C140D94141D0D94832DF4
:100320000D9468300C946A9F0D94D8150D94995EC5
:100330000D94112E0C9485FB0D94DC2C0D942950FA
:100340000C9485DE0D9420200D941D360D94EF360F
:100350000D94BB2B0D94AE2B0D9450150C9432BE06
:100360000D9411500D946E170D94BC140D94072E1E
:100370000C9460E00D94DA5E0D94FE2C0D94BE1783
:100380000D943E500D949C140D94B8360D94CD2CC4
:100390000C9494FB0C94759F0D9440310D942E5F3A
:1003A0000D9437360C9420DF0C94B4DF0C9439E6AE
:1003B0000C943FE00D943B300C94166C0C9430E69A
:1003C0000D9478310C9444DE0D94683E0D94AB315D
:1003D0000D949C2B0D94D4160D94D32F0D941B2E9D
:1003E0000D94DC140D9420500C9480FB0D94552E2C
:1003F0000C9414E60D94E6170D94225F0C943FE6DE
:100400000D9492200C947BFB0D940C140D945F3191
:100410000D94B22E0D94A82B0C9435E00C9493DE21
:100420000D946B1A0D94362D0D94601E0D94325F51
:100430000C94ACDF0D9496170D942F500C9495DF0F
:100440000D9441360C945ADF0D9498150D94FC359B
:100450000D9417500D9414180C9436E60D94C22F79
:100460000C9471FB0D94DD5E0C94B9BD0D94461790
:100470000D9443580D943C2E0D94115D0C94569F91
:100480000D949E200D94D2310D943B2E0C9416DFCA
:100490000D941A500D9466180D9458500C9433E630
:1004A0000D940F4D0D949D1D0D94285F0C948CDEC2
:1004B0000D948C360D9409367C5F5F5F5F5F5F5FE4
:1004C0005F5F5F5F5F5F5F5F5F5F5F7C007C2020DF
:1004D00020202054656B4D6564696B6120202020CD
:1004E0007C007C20202020494E53504952452D311C
:1004F00030302020207C00205F5F5F5F5F5F5F5FA8
:100500005F5F5F5F5F5F5F5F5F5F200000506F77DF
:1005100065722D4F6E003C3C20524553544152545D
:1005200020524541534F4E203E3E0000004D616E2B
:1005300075616C205245534554003C3C2052455354
:100540005441525420524541534F4E203E3E0000EC
:10055000436F6E74696E7565202859455329203F95
:10056000005265706F7274207468652070726F62DB
:100570006C656D005761746368646F672052455302
:100580004554003C3C20524553544152542052455E
:1005900041534F4E203E3E005265616479202859F8
:1005A000455329203F00466F6C6C6F7720496E736E
:1005B0007472756374696F6E730000494E535049CD
:1005C00052452D313030004C4F4720435245415465
:1005D00045443A200056657273696F6E2025642E7B
:1005E00025642E256400526573657420285945538F
:1005F00029203F0000496E76616C696420554944AA
:10060000004552524F52007C2023232320466F7511
:100610006E642073797374656D20554944203D20C4
:1006200000204B5D002043205B007C2023232320FF
:1006300054656D7065726174757265733A20007CE3
:10064000202323232052657472696576696E6720C2
:100650006E6F6E20766F6C6174696C6520696E6672
:100660006F2066726F6D20454550524F4D006E767B
:100670006D3A204661696C6564206C6173744368EF
:1006800065636B526573756C74496E646578006E52
:10069000766D3A204661696C6564206E756D4368BD
:1006A00065636B526573756C7473006E766D3A207A
:1006B0004661696C65642072656164696E6750614A
:1006C000757365006E766D3A204661696C656420CD
:1006D0006D61696E53657474696E6773007C202D5B
:1006E0002D2D204E76696E666F2056657273696F88
:1006F0006E203D20007C202D2D2D20426F617264E4
:100700002056657273696F6E203D20007C202D2D70
:100710002D205357204D696E6F7220566572736994
:100720006F6E203D20007C202D2D2D205357204D15
:10073000616A6F722056657273696F6E203D20008A
:100740003D3D3D3D3D3D3D3D3D3D204241442045FB
:100750004550524F4D204845414420636F6E7465AB
:100760006E7473206166746572205245534554005F
:10077000094865696768743A00095765696768746C
:100780003A00094167653A000947656E6465723A47
:1007900000094C617374204E616D653A0009466929
:1007A000727374204E616D653A007C202D2D2D20D2
:1007B0004E756D626572206F6620436865636B6578
:1007C0007220526573756C7473203D20007C202D5F
:1007D0002D2D20506172616D6574657220536574B2
:1007E00074696E6773007C202D2D2D205061746913
:1007F000656E7420496E666F007C202D2D2D20467D
:100800006C6F77205761726E696E67204465637202
:1008100065617365203D20007C202D2D2D20466CC8
:100820006F77205761726E696E6720496E637265DB
:10083000617365203D20007C202D2D2D20496E7395
:100840007069726174696F6E2050617573652028DC
:100850007365637358313029203D20007C202D2D95
:100860002D2053706F6E74616E656F7573205472B6
:10087000696767657220286D6D2048324F29203DD9
:1008800020007C202D2D2D2053494D562053796E6C
:100890006357696E646F7750657263656E74202864
:1008A0002529203D20007C202D2D2D2042757A7A8F
:1008B000657220566F6C756D65205761726E696E3A
:1008C00067203D20007C202D2D2D2042757A7A65F1
:1008D0007220566F6C756D6520496E666F203D20E5
:1008E000007C202D2D2D20446973706C617920428D
:1008F00072696768746E657373203D20007C202DDB
:100900002D2D204672657175656E637920617420A6
:100910007768696368204272656174682057617600
:100920006573206172652073656E74203D20007CC4
:10093000202D2D2D2042564D2053697A6520286D9B
:100940006D29203D20007C202D2D2D204C6F6361D2
:1009500074696F6E007C202D2D2D205265616469B5
:100960006E67205061757365203D20007C202D2D21
:100970002D204C6173742075736564205353494472
:10098000203D20007C202D2D2D2056616C69642097
:1009900053534944203D20007C202D2D2D205661AD
:1009A0006C69644C6F636174696F6E203D20007CDC
:1009B000202D2D2D205265747269657665645375FE
:1009C000636365737366756C6C79203D20007C20D1
:1009D0002D2D2D20496E7374616C6C696E674E65A8
:1009E0007742766D203D20007C202D2D2D205274E5
:1009F00063496E697469616C697A6564203D2000A1
:100A00007C202D2D2D204669727374506F7765728E
:100A10005570446F6E65203D20007C202D2D2D20CB
:100A20004E756D626572206F662042564D20437987
:100A3000636C6573203D20007C202D2D2D204E758C
:100A40006D626572206F66204D616368696E652016
:100A50004379636C6573203D20007C202D2D2D2073
:100A600053656372657420436F6465203D20007C8C
:100A7000202D2D2D20426F6172642056657273699E
:100A80006F6E203D20007C202D2D2D205357204DB2
:100A9000696E6F722056657273696F6E203D20001B
:100AA0007C202D2D2D205357204D616A6F722056CA
:100AB000657273696F6E203D20007C202D2D2D20E6
:100AC00053797374656D20554944203D20007C2086
:100AD00023232320454550524F4D206265666F7297
:100AE0006520666972737420706F77657220757007
:100AF000007C2023232320496E697469616C697A24
:100B0000696E6720454550524F4D20646174610005
:100B10007C2023232320466F756E642076616C69E8
:100B2000642042564D20616E64204D616368696E99
:100B300065206379636C652064617461007C2023A7
:100B4000232320496E76616C696420707265766932
:100B50006F75736C792073617665642045455052DA
:100B60004F4D20646174610028594553206F7220F5
:100B70004E4F29203F000044617368626F617264C8
:100B8000207669612057692D466900456E61626C67
:100B9000652052656D6F746520574542007C202AA0
:100BA0002A2A205261772041444320646F776E7374
:100BB000747265616D2070726573737572652064FF
:100BC0006966663D0043616C6C20536572766963AB
:100BD0006520546563680000004C6F7720426F61A8
:100BE000726420566F6C746167650025752E253020
:100BF000337520566F6C7473007C2023232320539D
:100C00007570706C7920566F6C7461676520696EC1
:100C1000206D696C6C69766F6C7473203D200000E8
:100C200000537570706C7920566F6C746167650045
:100C3000436865636B696E6720426F617264200070
:100C40004D696E2025752E2530337520566F6C74D6
:100C500073007C20232323205245545259202D20F9
:100C60005A65726F20466C6F772064656C746150B2
:100C70002028313058206D6D48324F29203D20000A
:100C80007C20232323205245545259202D20517576
:100C9000697363656E7420446F776E414443202806
:100CA0003130582041444329203D20007C2023231B
:100CB00023205245545259202D2051756973636584
:100CC0006E742055704144432028313058204144EF
:100CD0004329203D2000004641494C4544005A45E7
:100CE000524F2043616C6962726174696F6E00508B
:100CF000726573737572652053656E736F72000051
:100D0000005A45524F2043616C6962726174696F89
:100D10006E0050726573737572652053656E736FE4
:100D20007200436865636B20232564007C202323C5
:100D3000232043616C6962726174696E672050722E
:100D40006573737572652053656E736F72730000FF
:100D5000493243206164647265737320307832379E
:100D6000004C4344206E6F7420666F756E64206182
:100D70007400007C2053656C667465737420466152
:100D8000696C6564202D206E6F204C434420617493
:100D900020616464726573732030783237000053C9
:100DA00075636365737366756C6C790053656C6607
:100DB00020546573742052756E00007C2023232319
:100DC0002053656C66546573742053756363657353
:100DD0007366756C007C202A2A2A2053656C665441
:100DE000657374204661696C6564004E6F74656458
:100DF000202859455329203F005573696E67207498
:100E00006F64617927732064617465007768656E2B
:100E10002042564D20696E7374616C6C65640043AA
:100E2000616E27742066696E6420646174650025B4
:100E30006C75204379636C6573004E6F7465642034
:100E40002859455329203F00000042564D20496E45
:100E50007374616C6C2044617465004E6F746564DA
:100E6000202859455329203F000053797374656D3C
:100E70002068617320636F6D706C657465640053E6
:100E8000797374656D204379636C6520436F756E6B
:100E90007400256C75204379636C6573007C202396
:100EA0002323204E756D626572206F66204D61634D
:100EB00068696E65204379636C65733A20007C2015
:100EC000232323204E756D626572206F6620425683
:100ED0004D20436F6D7072657373696F6E733A2046
:100EE000007C202323232042564D20496E737461D9
:100EF0006C6C6174696F6E20446174653A20007C8B
:100F000020232323205573696E6720746F646179F1
:100F100027732044617465007C202A2A2A20496EA8
:100F200076616C69642042564D20496E7374616C21
:100F30006C6174696F6E2044617465002859455373
:100F4000206F72204E4F29203F0000496E7374615C
:100F50006C6C6564203F005761732061206E65777B
:100F60002042564D2042616700446F6E652028592B
:100F7000455329203F00446973636F6E6E65637447
:100F80002050617469656E740061667465722050EA
:100F90006F7765722D6F6E005374617274696E673E
:100FA0002053656C662D54657374007C204040406E
:100FB000206E766D496E666F2E73706F6E7454720C
:100FC0006967676572496E4D6D3D00232323204993
:100FD0006E697469616C697A696E672044617465D1
:100FE00020616E642054696D6500232323204368CB
:100FF00065636B696E6720666F722056616C696409
:1010000020554944002A2A2A204552524F52204353
:101010004F4445203D20004E6F7420506F7373691C
:10102000626C65004D61696E74656E616E6365200A
:101030004272656174687300526573657420285943
:101040004553206F72204E4F29203F000049727295
:1010500065636F76657261626C65004552524F52EE
:10106000007C203E3E3E204E6F7420706F7373698B
:10107000626C6520746F2068616E646C65206572B7
:10108000726F72007C203E3E3E2053776974636825
:10109000696E6720746F20506D61782046616C6CBA
:1010A0006261636B007C203E3E3E204572726F722F
:1010B0002048616E646C65723A20436F6E74696E8D
:1010C00075696E67204173206973007C202A2A2A83
:1010D0002048616E646C696E6720457272726F722F
:1010E000232000446F6E65202859455329203F0076
:1010F0006166746572207072657373696E672053E0
:1011000054415254005265636F6E6E656374206F74
:101110006E6C7900446973636F6E6E656374205002
:10112000617469656E740025646674206F72202591
:10113000646D00436F7272656374202859455320B3
:101140006F72204E4F293F0000004C6F636174693D
:101150006F6E202620416C746974756465003E3E94
:10116000204661696C65642053796E63696E6720FF
:10117000525820545820627566666572007C2023A0
:101180002323205265636569766564204D6573731A
:1011900061676520007C20232323205265636569F5
:1011A000766564204D65737361676520007C20233C
:1011B0002323205265636569766564204D657373EA
:1011C00061676520007C20232323205265636569C5
:1011D000766564204D65737361676520007C20230C
:1011E0002323205265636569766564204D657373BA
:1011F00061676520007C2023232320526563656995
:10120000766564204D65737361676520007C2023DB
:101210002323205265636569766564204D65737389
:1012200061676520007C203E3E3E204C6F63617408
:10123000696F6E20506F7274616C2074696D656F98
:101240007574002E2E202564202E2E005265747297
:1012500079202859455329203F00506F7274616CE2
:101260002054696D656F7574004C6F636174696FAC
:101270006E20496E666F004661696C656420746F0C
:1012800020656E74657200436F6E74696E756520BB
:101290002859455329203F00004C6F636174696FE2
:1012A0006E20496E666F726D6174696F6E00456E77
:1012B000746572204D616E6461746F72790025737C
:1012C00079722025736B67202573636D0025732069
:1012D00025730050617469656E743A2046656D61CE
:1012E0006C6500436F727265637420285945532002
:1012F0006F72204E4F293F00000050617469656E87
:10130000743A204D616C65000945787472616374AC
:101310006564206865696768743D000952656D61A0
:10132000696E696E67207374723D00094578747246
:101330006163746564207765696768743D0009526C
:10134000656D61696E696E67207374723D00094551
:101350007874726163746564206167653D00095249
:10136000656D61696E696E67207374723D00094531
:1013700078747261637465642067656E6465723D3C
:10138000000952656D61696E696E67207374723D04
:10139000007C2023232320526563656976656420E1
:1013A00070617469656E7420737461747320007C5D
:1013B00020232323205265636569766564204D658B
:1013C000737361676520007C2023232320526563AB
:1013D0006569766564204D65737361676520007C7F
:1013E00020232323205265636569766564204D655B
:1013F000737361676520007C20232323205265637B
:101400006569766564204D65737361676520007C4E
:1014100020232323205265636569766564204D652A
:10142000737361676520007C20232323205265634A
:101430006569766564204D65737361676520007C1E
:1014400020232323205265636569766564204D65FA
:10145000737361676520007C203E3E3E20506174BE
:1014600069656E7420506F7274616C2074696D656B
:101470006F7574002E2E202564202E2E0052657468
:1014800072792028594553206F72204E4F29203FF2
:1014900000506F7274616C2054696D656F757400D3
:1014A00050617469656E7420496E666F00466169AB
:1014B0006C656420746F20656E74657200285945F0
:1014C00053206F72204E4F29203F000050617469F5
:1014D000656E7420496E666F726D6174696F6E001F
:1014E000456E746572206E65770058585858585884
:1014F0005858585858204361757365206F662052BC
:1015000065736574203D20506F7765722D6F6E2076
:101510005265736574005858585858585858585858
:1015200058204361757365206F662052657365743A
:10153000203D205761746368646F6720526573654E
:10154000740058585858585858585858582043619B
:10155000757365206F66205265736574203D204D5C
:10156000616E75616C20526573657400436F6E74B3
:10157000696E7565202859455329203F00737465AD
:10158000702D62792D737465700053797374656D75
:101590002077696C6C206775696465003C3C204667
:1015A0004952535420504F5745522D5550203E3EDE
:1015B0000052657472792028594553206F72204E6D
:1015C0004F29203F0000434845434B204641494CAA
:1015D0004544000028594553206F72204E4F292062
:1015E0003F00436F6E74696E75652052656D616969
:1015F0006E696E673F00434845434B204641494C66
:1016000045440000524553455420616E6420506F9C
:101610007765722D446F776E000043616C6C2053C8
:101620006572766963652054656368004641494C7C
:10163000454420506F7765725570205465737473FC
:1016400000436F6E74696E756520285945532920D3
:101650003F000050415353454420506F7765725509
:10166000702054657374730053554343455353219D
:101670000053656E736972696F6E2053464D333047
:101680003230007C2040404020466C6F772053650C
:101690006E736F72203D2000436F6E74696E7565C6
:1016A000202859455329203F004152524F5773205B
:1016B0006F72204B4E4F42004E61766967617465D0
:1016C000204D454E55207573696E67005072652D2B
:1016D00055736520436865636B696E670052657476
:1016E00072792028594553206F72204E4F29203F90
:1016F00000004641494C454400007C204641494C8D
:101700002020436865636B203C003E007C20444FF2
:101710004E452020436865636B203C007C20534B82
:1017200049502020436865636B203C00285945538D
:10173000206F72204E4F29203F004F4B20746F20A6
:1017400045584954004F7468657220436865636B5F
:101750007320536B6970706564004D616E646174D1
:101760006F727920436865636B73204F4B003C5266
:10177000657475726E696E6720746F204D656E7545
:101780003E00004E6F7420436F6D706C657465642D
:10179000004D616E6461746F727920436865636B9C
:1017A00073007C2023232320456E746572656420BA
:1017B0005072652D55736520436865636B730043F4
:1017C0006F6E74696E7565202859455329203F0056
:1017D0006166746572207072657373696E672053F9
:1017E0005441525400436F6E6E656374207061748F
:1017F00069656E74206F6E6C7900436865636B7306
:10180000205375636365737366756C21007C2023B8
:10181000232320436F6D6D697450656E64696E6734
:1018200053657474696E6773206F6E20494E495416
:1018300049414C495A4154494F4E007C20232323AF
:1018400020466972737420506F77657275702064DA
:101850006F6E65202D20736176656420746F20455E
:101860004550524F4D005B25642C25642C25642C7B
:1018700025645D005B25642C25645D007C202121AE
:101880002120417761792066726F6D20686F6D65E8
:1018900020706F736974696F6E206279207374654C
:1018A00070733D007C20212121204D4F544F522048
:1018B0004641554C540052455345542028594553F0
:1018C000206F72204E4F29203F00004379636C65E2
:1018D0007320746F205A45524F203F005265736544
:1018E00074204D616368696E65005245534554200C
:1018F00028594553206F72204E4F29203F00004346
:1019000079636C657320746F205A45524F203F00F5
:1019100052657365742042564D005265737461724E
:10192000742028594553206F72204E4F293F0000E4
:10193000524553544F52454400466163746F727967
:101940002053657474696E6773005053204D41587D
:10195000494D554D205052455353555245204558F9
:101960004345454445443A20007C203E3E3E2050BD
:1019700053206D61696E7461696E50734D6D58319D
:1019800030203D20007C203E3E3E205053204E75AE
:101990006D626572206F6620636F6D707265737320
:1019A000696F6E73203D20002073746570733D0075
:1019B0007C204040402050532072706D5831303DA3
:1019C000005643204D4158494D554D2050524553E6
:1019D000535552452045584345454445443A200017
:1019E0002073746570733D007C2040404020564356
:1019F0002072706D5831303D00206D696E503D0091
:101A00007C20404040205072657373757265204C95
:101A10004F5353206D6178503D00206D696E503DED
:101A2000007C2040404020507265737375726520C1
:101A30004C45414B206D6178503D00205A2D736319
:101A40006F72655831303D00205374616E6461726D
:101A50006420446576696174696F6E3D00204D6550
:101A6000616E3D007C202A2A2A2053616D706C65CE
:101A70003D00494E56414C49440000000000000022
:101A800000000000000000000000416C61726D2049
:101A9000436F6465000000000000000000000000CB
:101AA00000004578636565646564204D4158494D83
:101AB000554D000000000000000050726573737502
:101AC000726520416C6C6F77656400000000000057
:101AD00000004C65616B61676520696E0000000065
:101AE00000000000000000000000427265617468A0
:101AF000696E6720436972637569740000000000B5
:101B00000000446973636F6E6E656374696F6E2065
:101B1000696E000000000000000042726561746898
:101B2000696E672043697263756974000000000084
:101B3000000050726573737572652053656E736F24
:101B4000722873290000000000006E6F7420776F08
:101B5000726B696E6700000000000000000000006A
:101B600000004D65617375726564205045455020D5
:101B7000646F65730000000000006E6F74206D617B
:101B8000746368207365742076616C75650000006D
:101B900000005072657373757265207369676E61BA
:101BA0006C00000000000000000064657465637450
:101BB00065642061732061626E6F726D616C0000FC
:101BC0000000504152414D4554455220436F6E66CE
:101BD0006C6963740000000000005053206C657352
:101BE00073207468616E205045455000000000006D
:101BF0000000504152414D4554455220436F6E669E
:101C00006C696374000000000000504D4158206C66
:101C1000657373207468616E205045455000000064
:101C20000000504152414D4554455220436F6E666D
:101C30006C696374000000000000504D4158206C36
:101C4000657373207468616E2050530000000000BB
:101C50000000504152414D4554455220436F6E663D
:101C60006C696374000000000000545053206D6FD5
:101C70007265207468616E202852522F322900004C
:101C80000000556E61626C6520746F206163686945
:101C900065766520505300000000696E2072657102
:101CA0007569726564205450530000000000000004
:101CB000000045787472656D652056430000000091
:101CC0000000000000000000000053657474696E9D
:101CD000677300000000000000000000000000002A
:101CE000000045787472656D652050530000000057
:101CF0000000000000000000000053657474696E6D
:101D000067730000000000000000000000000000F9
:101D10000000505320427265617468204661696C0E
:101D200075726500000000000000546F6F206D6147
:101D30006E7920537465707300000000000000008D
:101D40000000436F6E73697374656E63792045722A
:101D5000726F720000000000000043616C6C205341
:101D60006572766963652054656368000000000051
:101D700000004D6F746F72206E6F742061740000EC
:101D800000000000000000000000737461727469BC
:101D90006E6720706F736974696F6E0000000000D9
:101DA0000000446573697265642056542C52522CAD
:101DB000452F4900000000000000436F6D626F2056
:101DC000756E61636869657661626C65000000002C
:101DD000000050726573737572652053656E736F82
:101DE0007200000000000000000043616C69627234
:101DF0006174696F6E204572726F7200000000009E
:101E0000000053656C6674657374204661696C6587
:101E10006400000000000000000043616C6C20536F
:101E20006572766963652054656368000000000090
:101E3000000050726555736520436865636B7320BD
:101E40004661696C65640000000043616C6C20535E
:101E50006572766963652054656368000000000060
:101E60000000506C6174657320746F2042564D20E1
:101E70004761700000000000000052455345542D9A
:101E800043616C6C20537570706F727400000000B9
:101E900000004D6F746F72204661756C7400000015
:101EA00000000000000000000000547279696E67B5
:101EB000205265636F76657279202E2E2E00000009
:101EC000000053797374656D204F766572686561A3
:101ED00074696E67000000000000526573746172DF
:101EE000742053797374656D0000000000000000D9
:101EF000000053797374656D20746F6F20436F6CAD
:101F000064000000000000000000526573746172FC
:101F1000742053797374656D0000000000000000A8
:101F20000000506C6174657320486F6D696E6720A6
:101F30004661696C656400000000436865636B205E
:101F400050726573737572652074756265730000F5
:101F50000000506C6174657320486F6D696E672076
:101F60004661696C6564000000004D61736B204E32
:101F70004F54204F50454E0000000000000000006C
:101F80000000504152414D4554455220436F6D620F
:101F90006F000000000000000000696E76616C694F
:101FA00064000000000000000000000000000000CD
:101FB00000004D6F746F72204D616C66756E6374B6
:101FC000696F6E0000000000000052455345542028
:101FD00053797374656D000000000000000000007C
:101FE0000000556E61626C6520746F2064656C69D9
:101FF000766572000000000000007365742054696B
:1020000064616C20566F6C756D6500000000000007
:1020100000005265706C6163652042564D2042613C
:1020200067000000000000000000457863656564FB
:10203000656420616C6C6F77656420757365000062
:102040000000556E61626C6520746F206C6F6720B4
:10205000696E0000000000000000746F2074686565
:102060002057494649206E6574776F726B000000F7
:10207000000057692D466920506F7274616C000032
:102080000000000000000000000074696D6564201D
:102090006F757400000000000000000000000000E8
:1020A0000000505356204D696E75746520566F6C54
:1020B000756D650000000000000062656C6F7720A0
:1020C00028525220782056542900000000000000B9
:1020D00000004661696C656420746F2053796E63FB
:1020E0000000000000000000000052582F5458204B
:1020F00062756666657273000000000000000000F3
:10210000000046694F322053657474696E670000A1
:102110000000000000000000000052656A65637462
:1021200065640000000000000000000000000000E6
:10213000000054656D706572617475726520536539
:102140006E736F720000000000004E6F7420466FC7
:10215000756E640000000000000000000000000038
:10216000000045787472656D6520504D415800003F
:102170000000000000000000000053657474696EE8
:102180006773000000000000000000000000000075
:10219000000045787472656D65205045455000001B
:1021A0000000000000000000000053657474696EB8
:1021B0006773000000000000000000000000000045
:1021C00000005045455020746F6F206C6F77000001
:1021D0000000000000000000000053657474696E88
:1021E0006773000000000000000000000000000015
:1021F000000041697277617920426C6F636B65649E
:1022000000000000000000000000436865636B20D0
:1022100050617469656E74000000000000000000E9
:102220000000556E657870656374656420506C615C
:1022300074657300000000000000506F73697469DA
:102240006F6E0000000000000000000000000000B1
:10225000000042564D2053697A65000000000000DE
:1022600000000000000000000000556E616363651F
:10227000707461626C6500000000000000000000E6
:10228000000042564D204465666F726D6564000023
:1022900000000000000000000000506C65617365E4
:1022A00020436865636B0000000000000000000030
:1022B0000000505320427265617468000000000005
:1022C00000000000000000000000466C6F772074E2
:1022D0006F6F206C6F7700000000000000000000AE
:1022E00000005053204272656174680000000000D5
:1022F00000000000000000000000504D4158207414
:102300006F6F20636C6F736520746F2050530000F3
:10231000000058582D5858582D58585858202858AB
:102320005858290058583A58583A58580058583A66
:102330005858004A616E00466562004D6172004166
:102340007072004D6179004A756E004A756C0041EB
:10235000756700536570004F6374004E6F760044DC
:102360006563004D6F6E00547565005765640054D9
:10237000687500467269005361740053756E0009F8
:10238000416C74496E4D3A0009416C74496E467453
:102390003A00094E616D653A002E2E202564202EEC
:1023A0002E00004578636C7564696E67205549445A
:1023B00000496E666F726D6174696F6E00436C6583
:1023C0006172696E6720454550524F4D004E6F74E3
:1023D0006564202859455329203F00000053797334
:1023E00074656D20554944206973007C205E5E5EF3
:1023F000205761726E696E672042757A7A65722025
:10240000566F6C756D65203D2000446F6E65202809
:10241000594553206F72204E4F29203F00666F723E
:10242000205741524E494E4720616C61726D7300D6
:1024300042757A7A657220566F6C756D65005573BA
:1024400065204B4E4F4220746F206368616E676554
:10245000007C205E5E5E20496E666F2042757A7A4F
:10246000657220566F6C756D65203D2000446F6E5F
:10247000652028594553206F72204E4F29203F0078
:10248000666F7220494E464F20616C61726D730019
:1024900042757A7A657220566F6C756D650055735A
:1024A00065204B4E4F4220746F206368616E6765F4
:1024B0000028594553206F72204E4F29203F0000BD
:1024C000636F6E6E656374656420746F20737973D7
:1024D00074656D3F004973207468657265206120E2
:1024E000555053004E6F7465642028594553292078
:1024F0003F00626520636F6E6E656374656420746F
:102500006F2055505300746861742074686520739F
:10251000797374656D004974206973204553534580
:102520004E5449414C0053656E736F72206F706555
:102530006E204144432076616C75655831303D0012
:102540002E2E202564202E2E007C20212121205A91
:1025500065726F20507265737375726520566F7562
:1025600074204F666673657420746F6F20686967A6
:1025700068206D765831303D0043616C696272614C
:1025800074696F6E204641494C4544004F6666733E
:1025900065742025642E256420284D562900204F7F
:1025A000666673657420284D5658313029203D20C9
:1025B000007C2023232320004E6F7465642028595B
:1025C000455329203F00004D555354206265206932
:1025D0006E7374616C6C6564004120484550412FF6
:1025E000484D452046696C746572004D6561737590
:1025F000726564204469613D2533646D6D004E6FE2
:10260000746564202859455329203F0049732042AE
:10261000564D206465666F726D6564203F00004909
:102620006E636F72726563742042564D2053697AEF
:1026300065004E6F746564202859455329203F007A
:10264000746F205A45524F0042564D20436F6D70B3
:1026500072657373696F6E7300496E697469616C3A
:10266000697A696E67206E756D62657200285945DA
:1026700053206F72204E4F29203F0000496E737423
:10268000616C6C65643F005761732061206E6577F3
:102690002042564D004E6F746564202859455329D9
:1026A000203F00004E6F742050726F7065726C791D
:1026B00020426C6F636B6564004D61736B204F70DB
:1026C000656E696E67004E6F7465642028594553C6
:1026D00029203F004C65616B616765206F72205354
:1026E00077617070656400507265737375726520F0
:1026F0006C696E657300557073747265616D202F1F
:1027000020446F776E73747265616D007C20404069
:102710004020557073747265616D20616E64204451
:102720006F776E73747265616D2050726573737527
:102730007265204C696E657320636F6E6E6563749D
:1027400065642070726F7065726C79007C20232341
:1027500023204552524F523A2048494748204F5073
:10276000454E20534C4F5720496E74656772616C1B
:1027700051203D20007C20232323204552524F52DC
:102780003A204C4F57204F50454E20534C4F572026
:10279000496E74656772616C51203D2000000057DE
:1027A00068696C65204F50454E00534C4F5720438D
:1027B0006F6D7072657373696F6E007C203E3E3E74
:1027C000204D65617375726564204F50454E2053EE
:1027D0004C4F5720496E74656772616C51203D20E3
:1027E00000506C65617365207761697400006672E2
:1027F0006F6D20546F75636820506F736974696FD3
:102800006E00436865636B204C6F7720566F6C7564
:102810006D65004D4158205374657073203D20252F
:10282000640020746F20007C203E3E3E2056414CC8
:102830004944204F50454E20534C4F5720496E7409
:10284000656772616C512052616E6765203D2000A2
:102850007C20232323204552524F523A2048494797
:1028600048204F50454E204641535420496E7465D0
:102870006772616C51203D20007C2023232320457A
:1028800052524F523A204C4F57204F50454E2046FF
:1028900041535420496E74656772616C51203D202C
:1028A0000000005768696C65204F50454E00464156
:1028B000535420436F6D7072657373696F6E007C43
:1028C000203E3E3E204D65617375726564204F5019
:1028D000454E204641535420496E74656772616CC1
:1028E00051203D200020746F20007C203E3E3E2081
:1028F00056414C4944204F50454E204641535420A8
:10290000496E74656772616C512052616E67652013
:102910003D200000005768696C6520424C4F434BD6
:102920004544005045414B20507265737375726584
:10293000730020557073747265616D20286D6D5839
:102940003130293D007C203E3E3E204D656173754F
:10295000726564205065616B205072657373757287
:10296000657320446F776E73747265616D20286D96
:102970006D583130293D007C203E3E3E2056414C72
:102980004944204D696E696D756D205045414B205D
:1029900050726573737572657320286D6D58313090
:1029A00029203D20007C203E3E3E204D6561737510
:1029B00072656420424C4F434B20496E74656772C8
:1029C000616C51203D20007C203E3E3E2056414C13
:1029D000494420424C4F434B204D6178696D756DE1
:1029E00020496E74656772616C51203D20000000C3
:1029F0005768696C6520424C4F434B454400464143
:102A0000535420436F6D7072657373696F6E004627
:102A100041494C4544004D4F5245204E6578742045
:102A20002859455329203F004E6F7465642028596A
:102A3000455329203F004641494C45442025642008
:102A4000286D6D48324F29007C20232323204368C2
:102A500065636B696E6720666F722070726F706558
:102A60007220627265617468696E672F7072657337
:102A700073757265207475626520636F6E6E656331
:102A800074696F6E730052656164792028594553EB
:102A900029203F000055736520796F7572207061A1
:102AA0006C6D206669726D6C7900424C4F434B200F
:102AB0004D61736B204F70656E696E6700446F6E79
:102AC00065202859455329203F0000746F20636812
:102AD000616E676520504545502076616C756500D4
:102AE000557365204152524F5773206F72204B4EE1
:102AF0004F4200446F6E652028594553206F722065
:102B00004E4F29203F00746F206265206C6F636B0D
:102B10006564006E6565647320506F702D4F666646
:102B20002076616C766500507265737375726520EE
:102B30003E20343020636D2048324F00446F6E6574
:102B4000202859455329203F0000746F2063686195
:102B50006E676520504D41582076616C7565005553
:102B60007365204152524F5773206F72204B4E4F66
:102B700042002073656373583130007C2023232387
:102B800020496E737069726174696F6E205061754F
:102B900073653D0025642E25642073656373004EC4
:102BA0006F746564202859455329203F000000496F
:102BB0006E737069726174696F6E205061757365B0
:102BC00000446F6E65202859455329203F00005569
:102BD0007365204152524F5773206F72204B4E4FF6
:102BE000420053657420496E73702E2050617573D6
:102BF00065004163636570742028594553206F72E6
:102C0000204E4F29203F000050657263656E74208E
:102C10007365742061740053494D562053796E6377
:102C20002057696E646F7700206D6D48324F007CCD
:102C3000202323232053706F6E74616E656F75734C
:102C400020547269676765723D0025642E256420F3
:102C5000636D48324F004E6F7465642028594553A8
:102C600029203F000054726967676572207365749C
:102C70002061740053706F6E74616E656F757320A0
:102C800042726561746800446F6E6520285945532F
:102C900029203F0000557365204152524F57732041
:102CA0006F72204B4E4F42005365742053706F6E0D
:102CB000742E2054726967676572002529002529E2
:102CC000202844656372656173653D007C20232381
:102CD0002320466C6F77205761726E696E672054AF
:102CE00068726573686F6C64732028496E637265DF
:102CF0006173653D007C2023232320466C6F772081
:102D00005761726E696E6720496E74657276616C88
:102D10003D004E6F746564202859455329203F00BB
:102D20004F3220446563726561736520416C657242
:102D3000747300446F6E65202859455329203F0065
:102D400000557365204152524F5773206F72204BCC
:102D50004E4F42004F3220496E63726561736520A9
:102D6000416C657274730041636365707420285907
:102D70004553206F72204E4F29203F0000004F32F4
:102D800020416C657274205468726573686F6C645E
:102D900073004465637265617365202564252500B1
:102DA000496E637265617365202564252500446F53
:102DB0006E652028594553206F72204E4F29203FC1
:102DC0000000557365204152524F5773206F722097
:102DD0004B4E4F42004F3220416C65727420496E59
:102DE00074657276616C002564206D696E730044B1
:102DF000495341424C454400454E41424C454400F4
:102E00004E6F746564202859455329203F00000007
:102E10005354414E44425920504545502063686503
:102E2000636B0028594553206F72204E4F29203F75
:102E30000000696E205354414E444259207374611E
:102E4000746500456E61626C652050454550206395
:102E50006865636B0028594553206F72204E4F29D7
:102E6000203F000061206E65772042564D20426170
:102E700067203F005265706C616365206F72204966
:102E80006E7374616C6C004E6F74656420285945D4
:102E90005329203F0043616C6C205365727669634F
:102EA000652054656368006E6565647320726570A3
:102EB0006C6163696E6700436C6F636B2042617481
:102EC000746572790030313C2D202025732028252F
:102ED000642920202D3E313200446F6E6520285930
:102EE000455329203F0000004D4F4E544800313CCF
:102EF0002D2D202025732825642920202D2D3E37B7
:102F000000446F6E65202859455329203F0000007A
:102F1000444159206F66205745454B00436F7272FC
:102F20006563742028594553206F72204E4F293F06
:102F300000436F6E74696E756520285945532920CA
:102F40003F0000557365204B4E4F42206F72205555
:102F5000502F444F574E00536574204461746520D0
:102F6000616E642054696D6500416363657074200F
:102F700028594553206F72204E4F29203F000000F2
:102F8000536574204461746520616E642054696DDA
:102F900065002D2D2D20496E76616C696420525498
:102FA00043207374617465202D20726573657420ED
:102FB000746F20312D312D313939300023232320F6
:102FC00052656164696E6720466C61677320667242
:102FD0006F6D20454550524F4D2074656D706F7276
:102FE0006172696C79005B4D6F7374205265636523
:102FF0006E745D005B4D6F737420526563656E7413
:10300000202D2025645D0056696577202859455399
:10301000206F72204E4F29203F0000436865636B8C
:10302000657220526573756C74730055502F444F50
:10303000574E20746F2073656C6563740000526591
:10304000636F726473206E6F7420666F756E6400B8
:103050005072657620436865636B65722072756E89
:103060000000526573756C747320466F756E642032
:103070003D2025640053656C6563742028594553D1
:10308000206F72204E4F29203F0000004E756D6268
:103090006572206F662050726576696F75730043A4
:1030A0006F6E74696E75652028594553206F7220C4
:1030B0004E4F29203F004E4F202F2043414E434585
:1030C0004C20746F2065786974004152524F572F1D
:1030D0004B4E4F4220746F207363726F6C6C0053C1
:1030E00074617475732073637265656E73004368F1
:1030F00065636B65722072756E00446F6E65202883
:1031000059455329203F00253032643C2D2D202085
:103110002530326420202D2D3E25303264002530AC
:10312000346400436F6E74696E7565202859455389
:1031300029203F0072656164696E67207370656560
:10314000640053656C656374207375697461626CA7
:10315000650052616E646F6D2054657874206469F7
:1031600073706C61790000436F727265637420281C
:10317000594553206F72204E4F293F0052656164BC
:10318000696E67205370656564204F4B3F000028CF
:10319000594553206F72204E4F29203F0000612077
:1031A0006E65772042564D3F005265616479207408
:1031B0006F20696E7374616C6C0028594553206FE1
:1031C00072204E4F29203F0000616C726561647966
:1031D00020696E7374616C6C65643F004973207480
:1031E00068652042564D20626167005265736574C0
:1031F0002028594553206F72204E4F29203F00321E
:103200002E20496E7374616C6C2042564D00312E35
:1032100020506F7765722D6F6666205379737465E1
:103220006D00466F6C6C6F772073746570732062ED
:10323000656C6F770045766572792025642042724F
:1032400065617468287329004E6F7465642028597D
:10325000455329203F000077696C6C20626520731C
:10326000656E7400427265617468205761766566A8
:103270006F726D7300446F6E652028594553292085
:103280003F00557365204152524F5773206F722093
:103290004B4E4F420057617665666F726D204469F0
:1032A00073706C61790053656C65637420496E744A
:1032B000657276616C20666F720028594553206FE5
:1032C00072204E4F29203F0000616C726561647965
:1032D000206B6E6F776E2057692D466900417574BB
:1032E0006F2D636F6E6E65637420746F0000496E9E
:1032F00073706972652D3130302057692D46690031
:10330000746F2057692D4669204E6574776F726B14
:1033100000436F6E6E656374204C6170746F702F24
:1033200050686F6E6500506F737369626C652054EE
:10333000696D656F7574000057692D466920496E87
:10334000666F004661696C656420746F20726574F5
:10335000726965766500094F54503D000900090007
:103360003C3C3C3C2057692D666920436F6E6E657E
:103370006374696F6E203E3E3E3E007C2023232313
:10338000205265636569766564204D657373616776
:103390006520007C202323232052656365697665C0
:1033A00064204D65737361676520007C20232323AF
:1033B000205265636569766564204D657373616746
:1033C0006520007C20232323205265636569766590
:1033D00064204D65737361676520007C202323237F
:1033E000205265636569766564204D657373616716
:1033F0006520002E2E202564202E2E000000005770
:10340000692D4669204C6F67696E20746F002859DA
:103410004553206F72204E4F29203F00696E207463
:1034200068652053797374656D73205461626C65AF
:10343000004F4E4C592069662055494420707265F2
:1034400073656E7400416C6C6F772052656D6F749C
:103450006520416363657373004F54502069732086
:1034600025303464004E6F74656420285945532913
:10347000203F000000556E697175652053797349CE
:1034800044004E6F746564202859455329203F003D
:103490000000696E2070726F677265737300576900
:1034A0002D4669204C6F67696E20526574727900F1
:1034B00028594553206F72204E4F29203F004372F8
:1034C0006564656E7469616C730052652D656E7418
:1034D00065722057692D46690057692D4669204C51
:1034E0006F67696E204661696C656421005265747E
:1034F00072792028594553206F72204E4F29203F62
:1035000000004661696C6564205353494400576963
:103510002D4669204C6F67696E204661696C656451
:10352000210028594553206F72204E4F29203F001B
:1035300052657472790057692D466920506F727414
:10354000616C2054696D656F75740057692D46690B
:10355000204C6F67696E204661696C656421007C50
:10356000203E3E3E2057692D466920506F7274619F
:103570006C2054696D656F7574000000696E207071
:10358000726F67726573730057692D4669204C6FBF
:1035900067696E007C20232323204F545020666FE0
:1035A000722044617368626F617264206C6F676936
:1035B0006E203D20004E6F746564202859455329C4
:1035C000203F0054727920616761696E206C6174DC
:1035D000657200436F6E74696E75696E67207769F6
:1035E00074686F75740057692D466920496E616370
:1035F0006365737369626C650028594553206F7267
:10360000204E4F29203F00005265636F6E6E656348
:1036100074203F00446F20796F752077616E7420AD
:10362000746F00252E323073004E6F74656420284D
:1036300059455329203F00000057692D46692069EC
:103640007320636F6E6E6563746564004E6F74659E
:1036500064202859455329203F0000446973636F53
:103660006E6E65637465640057692D4669004E6F20
:10367000746564202859455329203F00004469732C
:10368000636F6E6E65637465640057692D466920CB
:10369000616C726561647900232323232323232033
:1036A0004E656761746976652064656C6179202375
:1036B000232323232323232323007C2023232320AA
:1036C000504545502056657269666965643D000045
:1036D00044657369726564205045455000746F20DD
:1036E000616368696576650041646A75737420502A
:1036F0004545502076616C7665000000746F20644B
:103700006973736970617465005761697420666FCD
:1037100072205072657373757265004163636570E2
:10372000742025642E2564202859455329203F0004
:1037300043757272656E7420504545503D25642E68
:1037400025640054617267657420504545503D25DD
:103750006420636D48324F007C202323232056656C
:1037600072696679696E6720504545503D00505337
:10377000560053494D560041435600434D560020D4
:103780004F32466C6F775831303D00204F325075C4
:10379000726974793D002046694F323D0020205403
:1037A00050533D0020504D41583D0020504545505C
:1037B0003D002050533D00204D565831303D0020F3
:1037C00045493D002052523D002056543D007C208A
:1037D000232323204D4F44453D00206D696E730027
:1037E0007C2023232320767452616D70496E4D69CD
:1037F0006E757465733D002564206D696E75746522
:103800007300436F6E6669726D2028594553206FAF
:1038100072204E4F29203F000052616D702D75704F
:1038200020617070726F782074696D6500546964EE
:10383000616C20566F6C756D6500446F6E65202855
:1038400059455329203F000052616D702D7570203D
:10385000617070726F782074696D650053657420B3
:10386000546964616C20566F6C756D65007C202313
:10387000232320496E697469616C20466F727761F9
:1038800072642072706D5831303D002041646A7559
:10389000737465643D007C2023232320496E697482
:1038A00069616C2056432073746570732E204361E8
:1038B0006C696272617465643D007C20232323205F
:1038C0005643206578747261637465642066696C20
:1038D0007465722077696E646F77203D20007C20CC
:1038E00023232320496E697469616C20505320544E
:1038F00061726765742050726573737572652028F4
:103900006D6D58313029203D20007C202323232059
:103910005053206578747261637465642066696CC5
:103920007465722077696E646F77203D20002323D1
:1039300023232056432043616C63756C6174655684
:10394000744D6F746F72506172616D6574657273DE
:10395000466F725643204641494C454420616C6194
:10396000726D436F64653D002064656C74615374CF
:103970006570733D00207374657073446966663DBD
:10398000007C20232323204D4158205643204465AA
:103990006C74612053746570733A206E756D52615A
:1039A0006D70427265617468733D0020617361706F
:1039B00053746570733D007C202A2A2A204261647A
:1039C00020696E697469616C53746570733D007C25
:1039D00020232323204D61782052616D702054698B
:1039E00074726174696F6E733D007C202323232001
:1039F0004E756D2042726561746873207065722027
:103A0000546974726174696F6E3D007C20232323B6
:103A10002050656570205761726E696E67204E7523
:103A20006D204272656174687320496E74657276A8
:103A3000616C3D007C202323232041646A757374EC
:103A40006564204D41582044656C74612053746551
:103A500070733D007C202323232041646A757374B6
:103A60006564205461726765742049513D007C2073
:103A70003E3E3E20444F4E4520436F6D6D69747449
:103A8000696E67204368616E67657320696E2020E8
:103A900073657474696E677300207470733D0020E1
:103AA00070733D0020706D61783D00207065657019
:103AB0003D00206D765831303D002065693D002085
:103AC00076743D0023232323206D6F64653D00231E
:103AD0002323232053657474696E677320436F6DCD
:103AE0006D69744368616E6765204661696C6564E1
:103AF00020696E2043616C63756C6174654D6F74F1
:103B00006F7253657474696E6773007C203E3E3E2D
:103B100020436F6D6D697474696E67204368616ED0
:103B200067657320696E202073657474696E6773AE
:103B300000446F6E65202859455329203F000055E9
:103B40007365204145494F5773206F72204B4E4F8C
:103B5000420053657420505356204261636B757068
:103B600020454900446F6E65202859455329203F60
:103B70000000557365204152524F5773206F7220D9
:103B80004B4E4F42005365742050535620426163A0
:103B90006B757020525200446F6E65202859455352
:103BA00029203F0000557365204152524F57732022
:103BB0006F72204B4E4F4200536574205053562075
:103BC0004261636B757020565400446F6E65202807
:103BD00059455329203F0000557365204152524FEB
:103BE0005773206F72204B4E4F4200536574205024
:103BF00053562049646C652054726967676572008A
:103C00004163636570742028594553206F72204EBC
:103C10004F29203F000000505356204261636B75CE
:103C200070204272656174680056543D25642052CC
:103C3000523D25642045493D25640049646C65205A
:103C40005472696767657220256473656373002029
:103C50006D6D48324F00204465706C6F796D656EF4
:103C6000743A2000206D6D48324F2C002043616C67
:103C70006962726174696F6E3A20007C202323238D
:103C8000205072657373757265733A0000000040CE
:103C900006091440CE0C3240971050405F146E401D
:103CA00028188C40F01BAA40B91FC8408123E64069
:103CB0004A270441122B2241DB2E4041A3325E41B0
:103CC0006C367C41343A9A41FD3DB841C641D641FB
:103CD0008E45F441574912421F4D304200000040CA
:103CE0009E081240650C30402C104E40F3136C407F
:103CF000BB178A40821BA840491FC6401023E440DE
:103D0000D72602419E2A2041662E3E412D325C413B
:103D1000F4357A41BB399841823DB6414A41D4419C
:103D20001145F241D84810429F4C2E4200000040FD
:103D300037081140FD0B2F40C20F4D4088136B40D8
:103D40004E178940141BA740DA1EC5409F22E3404E
:103D5000652601412B2A1F41F12D3D41B7315B41C1
:103D60007C35794142399741083DB541CE40D34138
:103D70009444F14159480F421F4C2D42000000402D
:103D800092081240370C2F40DB0F4C4080136940E3
:103D900025178640CA1AA3406E1EC0401322DD407C
:103DA000B825FA405C291741012D3441A630514114
:103DB0004B346E41EF378B41943BA841393FC541AD
:103DC000DE42E2418246FF41274A1C420000004099
:103DD000ED081440710C3040F40F4C4078136840EB
:103DE000FC168440801AA040031EBC408721D840A6
:103DF0000B25F4408E281041122C2C41962F48415F
:103E00001A3364419D368041213A9C41A53DB84119
:103E10002941D441AC44F04130480C4200000040FC
:103E20006D091740E20C334056104F40CA136B40E7
:103E30003F178740B31AA340271EBF409C21DB4099
:103E40001025F74084281341F92B2F416D2F4B414A
:103E5000E232674156368341CA399F413F3DBB41FB
:103E6000B340D7412744F3419C470F420000004034
:103E7000EE091A40530D3640B81052401D146E40E2
:103E800082178A40E71AA6404C1EC240B121DE408C
:103E90001625FA407B281641E02B3241452F4E4132
:103EA000AA326A410F3686417439A241D93CBE41DB
:103EB0003E40DA41A343F641084712420000004069
:103EC0009A091A40020D35406A105140D2136C40D5
:103ED0003A178840A21AA3400A1EBF407221DA4056
:103EE000DA24F64042281141AA2B2D41122F4841D5
:103EF0007A326441E2357F414A399B41B23CB64156
:103F00001A40D2418143ED41E94609420000004098
:103F100046091A40B10C35401C10504087136B40C5
:103F2000F21686405D1AA140C81DBC403321D7401F
:103F30009E24F24009280D41742B2841DF2E434175
:103F40004A325E41B5357941203994418B3CAF41CD
:103F5000F63FCA416043E541CB46004200000040C5
:103F60006E091940A40C3340DA0F4D40101367401E
:103F7000461681407C199B40B21CB540E81FCF40DB
:103F80001E23E940542603418A291D41C02C374194
:103F9000F52F51412B336B416136854197399F4154
:103FA000CD3CB9410340D3413943ED4100000040CD
:103FB00097091840980C3140990F4A409A12634073
:103FC0009A157C409B1895409C1BAE409D1EC74097
:103FD0009E21E0409F24F940A0271241A12A2B41B5
:103FE000A12D4441A2305D41A3337641A4368F41D7
:103FF000A539A841A63CC141A73FDA4100000040D5
:10400000A5091840920C30407F0F49406C12614066
:1040100058157A4045189240321BAB401F1EC340D2
:104020000C21DC40F923F440E6260D41D42925413A
:10403000BF2C3E41AD2F56419A326F4187358741A3
:104040007438A041613BB8414E3ED141E782940DA6
:1040500011834B158E83B320E373BC2A3C64CF34A9
:10406000AC635545F963F8503554D5596144D66071
:104070006D62E9129C62551ACC625B21015399284A
:104080003B5307307B439A38B9337240FA334A4680
:1040900027349E4C4742D2168742181DBF328623D2
:1040A000EA329929382393306523CA36A723853D00
:1040B000EF2338442724A74AD8824F0F1783A81725
:1040C00093839922E673AD2B3864C1369563174507
:1040D000EC63E04F3054245B5744DF6164623D146D
:1040E0009562851BCA629F220253802941539530F5
:1040F0007E431039BD33DD3FF733B4452C344F4C8C
:104100003D422A177C426F1DB732BF23E232E229BB
:104110003123C73069236337AD23AD3DEE234A44D5
:1041200027243B4BCA720A111D73061A9963802417
:10413000E9639E2C3464B4387F53D944DF43C84EBE
:104140002C44745C4D34E8625C5292158F52B61C5C
:10415000C952E3230443682A483323318133873922
:10416000C133483FF5231F453224014C33328317B6
:104170007132C71DAF32F923DA222B2A2B23FC30F0
:104180006E23FC37B323D63DEE235C442824D04B6A
:10419000C8725E122373A81B98632D26E463822ED7
:1041A000296426399E530946E943F54F21441A5A9A
:1041B00044345961545210168A52161DC452B62303
:1041C0000443712A47336F318633DD38C4339C3F53
:1041D000FA2340453024754C2F32B1176B32D01D75
:1041E000AB321D24DE22732A2A232931732302389D
:1041F000BC233C3EF923FD442C24A54CC662B213DB
:104200002A634A1D9763DA27E05367301F449939C0
:10421000BE433947F44322511634C1573C34CA5F78
:104220004D428F168642761DC0328A2305337B2A83
:104230004733BB318B233338C823F03FFF2361451D
:104240002F24EA4C2C32DF176532DA1DA8324224C3
:10425000E222BB2A2A23573178230938C623A33EFA
:1042600004249E4531247A4DC06266142263C31D26
:104270008A630528D75374301944373AB143164638
:10428000E643954E183495574434945F42420A17DA
:104290008242831DB932E9230033AE2A49331C32EE
:1042A00089237B38C723C33F0424BC452F24284DD2
:1042B0002132FE176232261EA3324424E322E42A6E
:1042C0003123A03167230E38B123D03EF323C645F6
:1042D00018244D4DBA521A151A533D1E7D533128DC
:1042E000CE4382301344D53AA533F444D823094C45
:1042F0001A246A574C245E5F383286177E32911D2D
:10430000B2324924FC22E22A4C237D328823C4386D
:10431000C723973F0A2418462F24664D17321D18CD
:104320006032721E9E224624E4220D2B3923E9318D
:10433000562313389D23FD3EE223EF45FF23214DF5
:10434000BC52FE151B53151F7D53C328CC431C3193
:104350001044093BA3337044D723B34B1124FC55BD
:104360005824AD5E3932A7177B32C81DB73293246B
:104370000423422B53235F328923C638C923AE3F1F
:10438000042430473224984D1532DA175A32471E2A
:104390009E225724DA22072B2823CC31522362385D
:1043A000A423A33FEB234D4417242C46BF52E3160E
:1043B0001C53ED1F7D435629CB43B7310E343E3B92
:1043C000A133ED43D7335E4B08248E546424FD5D46
:1043D0003B32C9177832001EBD32DD240D23A32BDA
:1043E0005A2341328B23C838CC23C53FFE2348488B
:1043F0003524CA4D1422971754221D1E9F2269246A
:10440000D122022B1823AF314E23B238AC234940BE
:10441000F423AB422F24373FB95266171653752049
:104420007A438F29BE438231FF33EB3AA433C94329
:10443000D733534B0B24CC5460248F5C3432C717D2
:104440007232041EB432C32406238C2B54232B3225
:104450008D23DF38CE231B4002243B482724624EA5
:104460001322AE175322251E9A228424D822202BF1
:1044700021233E325F23C538B5239A3D10247D3D6C
:104480002524B73DB342E9171143FD207733C829EE
:10449000B2334D31F123993AA723A543D823494B91
:1044A0000E240B555C24225B2E32C6176D32091E7A
:1044B000AC32A924FF22752B4F2315328F23F738F6
:1044C000D123724007242F481A24FA4E1322C6170C
:1044D00053222E1E9522A024DF223E2B2B23CE32E8
:1044E0007123D838BF23EC3A2D2450381C24383C93
:1044F000AA4229180B43F1207033DE29B533BB31B2
:10450000F023CC3AAB236544D823A34B0F24745437
:1045100070240A5B2A32F4176A322F1EA632D32483
:10452000F822922B4B2377328C234639D223C54075
:104530001224BA4738243D4C1422E6175322351E64
:104540009822C424D122742B1023583270238D3723
:10455000D423E6361C244D3726240E3CA14269188C
:104560000643E6206933F529B9332932F023FF3AAF
:10457000B0232545D823FE4B1124DE538524F25A5F
:10458000263222186832551EA022FE24F222AF2BBA
:104590004723DA328A239539D42319411E2446470A
:1045A000562480491522071853223C1E9B22E924D9
:1045B000C322AB2BF622E3316F234336EA23E132E9
:1045C0000C244A363124E43BA042BE180443352172
:1045D0006733222AB5332032F123AD3BB023A54403
:1045E000D823AD4B1E24BD538B246F5B2432161889
:1045F00064323B1EA0221225F122CB2B4C23063322
:104600009523253AEF235F40232443454B241E493D
:104610001422251954223D1E9B220D25D622F02B53
:10462000032303328B238732E32398321424E335A8
:1046300026243B3BA0321419023384216623502ADE
:10464000B2231832F3235B3CB1232544D8235D4BBE
:104650002C249D539224EC5B22220A186122221EF4
:10466000A0222625F122E72B51233333A123B63A8A
:104670000B24A63F292441434024BD481422441A58
:1046800056223F1E9C223225E922352C102323324C
:10469000A823CB2EDC234F321C247C351B24923ADA
:1046A0009F3286190233082266239E2AB723863258
:1046B000EF23FD3AB023F543DE23764B3F248B53A3
:1046C0009224F05B1E22011860225A1E9E2232257F
:1046D000F3223B2C4F232433A623023B15243C3EDC
:1046E0002924CB4033240B4711223F1955226C1E3D
:1046F0009C225825DE22DF2B1A231330BF23962D50
:10470000E2233E31162414352424123A9F32F8193C
:1047100002338D226733EC2ABC23F432EB23A03919
:10472000B023C543E523904B53247A539224F45B82
:104730001A22F8175F22921E9C223E25F6228F2C09
:104740004D231533AC234E3B2024D23C2924553E27
:10475000272459450F223B1854229A1E9D227E255C
:10476000D322892B2523032ED623622CE9232E3036
:104770001024AD342E2492399A32F319FD327F225F
:104780005E33E92AB723BD32E923663AB2233A3EC3
:10479000EB239E452924144D5A246E5419220418E3
:1047A0005D228D1E9D225325FA22BE2C512390336B
:1047B000DA2317391D24523A3324BF3D3024F54102
:1047C0001122451858229D1EA1227F25CC227A2B2A
:1047D0005223502BCC231B2CE92308300424123401
:1047E0003424C2399532EF19F83272225633E62A50
:1047F000B2238632E8232D3BB423B038F223AD3FF9
:104800000024AF462224E84C182210185B22891E8F
:104810009F226825FE22ED2C56230B340824E13616
:104820001B24D2373E242A3D3A24913E14225018AC
:104830005D22A11EA5228125C5226B2B7F239E28E8
:10484000C223D42BEA23E32FF82378333A24F23916
:104850009832631AFA32AB225633972AAF239D322D
:10486000F3234C3CBC23D438F123134001243F47AD
:104870002524EE4D152238185822AE1EA422A82554
:104880000923202D63238434FA238A330D24DB3556
:104890002F24D73A3824B13D132254185B22C81E66
:1048A000A322B025D422052B6A238528D223112BDD
:1048B000EB230A2F0824F633422437399C32D81AC6
:1048C000FC32E4225633482AAD23B432FF236B3D39
:1048D000C423F938F12379400224D0472924F44E27
:1048E000132260185622D31EA922E9251423532D22
:1048F0007023FE34EC2333300024E5332024843845
:104900003724D13C132259185922F01EA222E02547
:10491000E3229F2A56236D28E2234E2AED23322ECE
:10492000192474344A247D38EB82A4153C83E31D9A
:104930009C735D27E973B4303D640B3A11642C45D8
:1049400089642052A654925AC044D7616C62B9154A
:104950009D629E1CE252F0233453822B7E5311330E
:10496000C843273B5934E1466434FC4C7834F65252
:10497000534200189942C81EE9429B252F337B2CD5
:104980008333B133C6232F3B0924D2414B24EA4859
:10499000A3245250E68288163D83FC1E9D7338285E
:1049A000E973EB303C64853A0164B6446A6447506D
:1049B0008854BB599044F85F76622A17AD62151E81
:1049C000F6526E254A53C52CA3530634DF43F73BFA
:1049D0004E34B2455A34D64B75345852524264184C
:1049E0009C42491FED4204263133D12C8433FA33E3
:1049F000C9238D3B0F2441425A247B499F24EB500D
:104A0000E1726B173E7317209E631429EA6323310A
:104A10003B64003BF25340444B546E4E6B44E558AC
:104A20005F34185E81529C18BF528C1F0B53EC26CA
:104A30006043082EC833FB34F633C73C423483440A
:104A40005124B14A7324BB515232C918A032CB1F32
:104A5000F0326D263423282D85234434CC23EB3BC0
:104A60001624B24269240D4A9C248451E3721B1817
:104A70003F73D3209C63D229E763D4313664BA3ABA
:104A8000FD5381443854B74D4A443A562F34ED5AB9
:104A90008B52A219D1529B201D53B1277543DC2E96
:104AA000E933CE350E34063D3634C9434B24E6494E
:104AB0006D247F5155321819A5322520F632CC26A7
:104AC0003C237E2D88238A34CF23003C1E2441437F
:104AD0007D24E54A9B243D52E562CB184163902139
:104AE0009B63912AE45385323244753A0944C344A6
:104AF0002544014D29348F530034C1579742A91AD8
:104B0000E342AA21303377288A33B12F0B34A236FF
:104B10002624463D2B240E4346241C49672443513A
:104B200059326719AB328020FC222B274423D52D24
:104B30008D23D034D323153C2624D0439224BE4B5E
:104B40009A24F652E06266193C63E6219463BA2A1D
:104B5000E2539E322444A53A074436442244C44BCF
:104B6000313495531A3492589042DD1AE1429F2114
:104B70002B3392288033932FFE337C362124153D2E
:104B80002B24FC424924594967244B515932AD1911
:104B9000AE32A220FD221B274723F22D90230135A0
:104BA000D4231B3C212480437D24254B882476522A
:104BB000DB52001A37533D228D53E42ADF43B732CC
:104BC0001644D53A0534A9432024874A3A249B53F6
:104BD000352462598A32111BE03295212633AE28E2
:104BE0007623762FF32357361C24E43C2B24EB4208
:104BF0004D249749662454515932F319B132C420D7
:104C0000FE220C274A230F2E93233235D623223C33
:104C10001D24304369248C4A7624F651DA52B31AA3
:104C20003653C3228D53412BE04317330A44D03A05
:104C300009346C432324664A3D24FF525224F5591B
:104C40008A32181BDE329F212733BF2872236F2F31
:104C5000E923F2351824903C2D24FB424B24324AA0
:104C6000672456515E32081AB232AA200223042762
:104C70004823142E8A232F35DE234D3C26241D4342
:104C800061240D497C24124EDA52661B35534923A8
:104C90008D539E2BE2437733FF33CC3A0C342F43B2
:104CA0002834454A412464526F24895A8A32201B91
:104CB000DD32AA212933D0286F23692FE0238D35D7
:104CC00015243C3C2F240C434924CE4A69245951D5
:104CD00063221D1AB32291200623FD2646231A2E95
:104CE00082232D35E6237A3C2F240A435A248F470A
:104CF00083242E4ACC52411B25532B2381536C2BEA
:104D0000D0431C33FB33A33A1234E6422934294AF8
:104D1000452464526E24AF5983320E1BD63296213D
:104D20001F33932871234A2FE123B2351A24AC3C58
:104D30003424AE434D242E4B6424025265221E1AA5
:104D4000B422942006231B274723242E8B2383354C
:104D5000F7237F3C3524E54169245A457A249F494D
:104D6000BE421B1B16430E2375333A2BBE33C23291
:104D7000F9237B3A17249D422B240F4A4A2465527B
:104D80006E24D6587D32FD1AD03283211523562841
:104D900073232C2FE423D7351E241D3D3B2451447F
:104DA00051248E4B5F24AB526822201AB6229720E2
:104DB00005233A2747232E2E9423D9350924843CF2
:104DC0003C24C1407924264372241049AF42D41AAE
:104DD0000643A6226733F62AB333B932FC23963A48
:104DE0001D24C6422D24264A4E24FA517924A75860
:104DF0007732041BCB3281210D233B287423272FCC
:104E0000E62339362024A93D4024F2445824BA4BE5
:104E10007024A9516B22251AB8229A2009235D27F4
:104E20003D23442E8B23AC351224DA3B4824F03E3C
:104E30007224074373242B49A0428E1AF7423F2263
:104E40005933B32AA933B0320134B13A2424EF42A2
:104E50002F243E4A522491518524785872320A1BDD
:104E6000C7327E21053321287723232FE9239B3660
:104E70002324353E462493456024E74B8124A850E3
:104E80006F222C1ABA229C200C23802734235B2EFD
:104E9000832380351A24303B5524213D6B24E8427E
:104EA000752447499E42A51AF74277225A33EF2AC2
:104EB000AA33A3320B34F73A2424B3423024204AD5
:104EC00057248A518424E2587532091BC73288213D
:104ED0000D3353288123332FEC23923623244C3E69
:104EE0004F24F1445F24944A762403506E22C71A5B
:104EF000BB22AD200C23A5274123A12E902397355B
:104F0000222474394724E23C652477426A249C4871
:104F10009C32BC1AF832AF225D332C2BAB23973274
:104F200016243E3B252477423124034A5D248551D3
:104F300083244C597722081BC722932115238528E7
:104F40008C23432FF0238B362424643E5924504471
:104F50005E2442496A245F4F6D22631BBC22BF203E
:104F60000C23CA274F23E82E9D23AE352A24B737BA
:104F70003A24A33C5F2407426024F1479A32E21AA4
:104F8000F93202236033792BB023C6321E247E3AD5
:104F90002424634235241A4A662486517E24795992
:104FA0007922081BC922C6211C23B32898236F2FFE
:104FB000EF2365362224593E5A2457435A24B647D4
:104FC0005E24134E6B22EC1ABC22E6200B23F02742
:104FD0004E23E22EA923AE3430243E373324003C46
:104FE000512496415F245B479932081BFB325523BD
:104FF0006333C62BB523F6322624C03925244F420D
:105000003A24324A6F2488517A24A7597A22081BFD
:10501000CA22F9212323E128A4239B2FEF233F3623
:1050200020244E3E5C245D4257242A465224C74C1D
:105030006A22771ABC220D210C2316284D23DB2E61
:10504000B523AD333524C6362D245D3B442426419B
:105050005F24C5469632141BFB3253236033A62BC4
:10506000B923D9322D241F3A2224783F3D242547E5
:105070005A24384E6024CA557522E11AC422C02130
:105080001D23B428A623A72FF32395363A245C3D8D
:105090005A244041602453465D24A34B69226F1A71
:1050A000C02202210A231E284B23DD2ED62359328B
:1050B000402499363224E93A4224DB3F7024B34637
:1050C0009332211BFC3252235D33852BBE23BD322C
:1050D0003424803A2024A13C412418444624E94A3F
:1050E0004724EE516F22B91ABF228721192387283E
:1050F000A923B32FF823EB3653246B3C58242440C8
:105100006A247C4668247F4A6922681AC422F720F0
:10511000092327284A23DF2EF72305314B246C3639
:105120003824753A3F24913E8224A14694326A1B6A
:10513000003374235E333F2BC423C73242240C3B1D
:105140002124A23C402437444624144B4B2457527C
:105150006922A01AB922632116237028AE23C12F19
:10516000002440374F24E93A50244B3F6724C6457A
:105170006D249D4A67225E1AC422FE20042346281D
:105180005323B62EF723FE30632401363E24A8397C
:105190004B24D33D95241A469632B31B04339623F1
:1051A0005F23F82ACA23D2325024993B2224A33CFD
:1051B0004024564447243F4B5024C1526322861A50
:1051C000B322402113235928B423CF2F0924963723
:1051D0004A2467394924743E652410457324BB4A28
:1051E0006522541AC5220621002365285D238D2ED1
:1051F000F823F7307B2497354424DB385724153DBA
:10520000A8249445EF82B51D68837B26AA83082EC7
:10521000EF73AC363F64473F7764044519654853E4
:105220001855505B2045D9626B628A189E62E81E51
:10523000F962852668536B2EC2531C361544B53D62
:10524000FA34514DCE34AE53C9344E595F422E1903
:10525000AC4278201433B12775335D2FCF23D0367D
:105260002824953F6B241F46A8249D4D1F25FE55DD
:10527000F482C11D64835126A783D82DED732A368D
:105280004064493E6E645644E864AE50E15453585D
:10529000C944115E8862181AC662A52023633D289E
:1052A00092530A30055477374044DE3EDF34884B52
:1052B000BD34F851BE34615868429E19BD42232165
:1052C000233349288133C12FD7232E372924B83FD0
:1052D0007224D646C624AD4E18259B56F972CD1DB4
:1052E00060732826A463A82DEC63A83542644C3D66
:1052F0006654A843B844144EAA44575572344959C9
:10530000A652A61BEF5263224D53F529BC43A93187
:105310004834D3386B340740C434BF49AD244350BC
:10532000B424755772320F1ACF32CF213233E228AC
:105330008E232630DF238D372B24DB3F79248E47C5
:10534000E424BE4F11253857FE72D91D5C73FF252A
:10535000A163782DEA63263543644E3C5D54FA42DE
:1053600087447A4B73445A521B348154C352341DC0
:10537000185321247753AD2BE64348338B342E3A10
:1053800096343041A934F6479D248D4EAA2489567F
:105390007C327F1AE0327A2241337B299A238A3089
:1053A000E723EB372C24FE3F802446480225CE50CD
:1053B0000A25D5570463E51D5963D6259F63482DFB
:1053C000E953A4344544513B55444D425744E048C9
:1053D0003C345E4FC433B94FE142C31E4143DF2525
:1053E000A133652D1034E734CF348A3BC2245A42AE
:1053F0008E242D468D24D84CA0249D558632F01A3B
:10540000F23226235133142AA723EF30F0234A38EF
:105410002E2421408724FE482025DF51042573587F
:105420000063661E56630A269E636F2DED53C834D3
:105430002F44133B5D4456425F44F3484B34954F31
:10544000F1339051DF42B01E4143BC259E333C2DC9
:1054500000347934B434DD3AB924AF418F24364670
:105460008F24F74C9F246F5591325C1BFA321E2318
:105470005833F329AC230031EF236238422429400A
:105480009224314808258450F8249F57FD52E71E86
:1054900054533E269E53972DF143ED341A44D53A8A
:1054A00066345F42682406495B24CC4F1F2467534F
:1054B000DD329D1E423399259B33142DF1230B348D
:1054C0009A24313AB1240541902440469124164D46
:1054D0009E2442559C32C91B023316235F23D229D6
:1054E000B1231131EE237B38562431409D2464478B
:1054F000F024294FED24CC56F952681F51537226DF
:105500009E53BF2DF54312350544973A6F346842D8
:10551000702419496A2403504D243E55DB328A1EFB
:10552000423376259833EC2CE1239D338024853952
:10553000A8245B40912449469324354D9D2415555C
:10554000A732361C0A330E236623B129B623223133
:10555000ED2393386A243940A8249746D824CE4DA9
:10556000E224F955F652EA1F4F53A6269E43E72D33
:10557000FA433735F0335A3A7834724279342C4949
:105580007A243B507B241557DA32781E4333542556
:105590009533C42CD2232F336624D938A024B13FAD
:1055A000922453469524554D9D24E854B222A31CC1
:1055B000122306236E239129BC233331EC23AC380C
:1055C0007E244240B324CB45C124744CD7242655B5
:1055D000E0521C1F3553E2258843492DE243B7347E
:1055E000F8335C3A803404427C3400498024FD4F17
:1055F0007D24CF56D332561E3B3329258A33642C63
:10560000DC2309336F243939A7247A409B2441478E
:105610009824214EA124A255B7228E1C16230323C1
:105620007223B229B6232931F523C8389024394092
:10563000B6243046C324384DCF248755CA424E1E67
:105640001C431F257333AC2CCA33373401245E3A14
:10565000882496417F24D5488724BF4F80248A56CA
:10566000CC32351E3433FE247F33042CE723E3325F
:1056700079249A39AE244341A52430489C24EE4E27
:10568000A5245C56BD227A1C1A2301237623D42933
:10569000B0231F31FE23E438A2243040B9249646BB
:1056A000C624FD4DC824E855B442801D02435C2445
:1056B0005E330F2CB233B7330924603A902428416B
:1056C0008224A9488D24814F83244456C532141E58
:1056D0002D33D3247433A42BF123BD328224FB3920
:1056E000B5240C42AE241F499F24BB4FA924165752
:1056F000C322651C1E23FF227A23F629AA23153113
:1057000007240039B4242740BC24FB46C824C14EDA
:10571000C12449569F42B31CE94299234933722B55
:105720009A3337331224633A9824BA4086247E4849
:105730009424444F8624FF55BF32F31D2633A824FA
:105740006A23442BFC2397328C245C3ABC24D54238
:10575000B8240E4AA3248850AD24D057C922511C26
:105760002223FD227E23182AA5230B3110241D3964
:10577000C6241E40C0246147CB24864FBA24AA56B3
:105780009C428C1CEB42BA234E33BD2B9F332733F4
:105790002524423A9824C140882493489124584FA4
:1057A0007D245556C632FC1D2A33D6247A23942BE9
:1057B00011249B328D241F3AB2247342B0248449B1
:1057C0009B24E64FA124E956C822691C22231E23EC
:1057D0007D233D2AAD2353311D242B39B92461404B
:1057E000AC242C47B6240C4FAF24FD559932651CD0
:1057F000EE32DB235423092CA42317333924213A16
:105800009924C9408B24A9488F246D4F7424AC5629
:10581000CD22061E2E2304258A23E42B27249F3223
:105820008F24E339A8241242A824FB489424444F2F
:1058300095240256C722821C23233F237C23632AFC
:10584000B6239C312B243A39AD24A4409924F74641
:10585000A224934EA524515596323E1CF132FC23CE
:105860005A23552CA92307334D24003A9924D140BB
:105870008D24BE488D24824F6B240357D4220F1EE3
:10588000322332259A23342C3D24A3329024A63986
:105890009E24B041A02472488C24A24E89241B551A
:1058A000C6229A1C242360237B23892ABE23E53148
:1058B00038244939A124E7408524C2468D24194E55
:1058C0009A24A4549432181CF4321D246033A12C61
:1058D000AE23F8326124E0399A24D9409024D44888
:1058E0008B24974F62245A57DB22191E36236025DA
:1058F000AA23852C5324A83292246A3995244F4137
:105900009924E9478524004E7E243554C522B31CD2
:10591000252381237B23AF2AC7232E3246245839DF
:1059200095242B4172248D467924A04D9024F85360
:105930009332351CFA3228246233632CBC23F632AE
:105940007124D9399324B6409024AC488B245D4F00
:1059500067242757D122BE1D2C23F3249E23162C07
:105960005324903296249B399A24A24197242F489D
:105970008E24E74E8A245155C1229A1C282367237E
:105980007423BE2ACB2341325B246239B5241841EB
:105990007C24CA458024A54BAD24A4539232531CC9
:1059A000003333246433252CCB23F4328124D339C0
:1059B0008D249340902484488C24234F6D24F456E6
:1059C000C722631D232386249323A72B54247932D3
:1059D0009A24CC399F24F541962476489724CE4FBB
:1059E00097246D56BE22811C2B234E236D23CD2A76
:1059F000CF23543270246D39D524054187240845BE
:105A00008724AB49CB2451539132711C06333E2479
:105A10006633E72BD923F2329124CD3986247040A6
:105A200090245C488C24E94E7224C156BD22081D86
:105A30001A2319248823382B542462329E24FD39DA
:105A4000A42448429424BC48A024B550A3248957D8
:105A5000BB22681C2E2335236623DC2AD32367321E
:105A600085247739F524F240912446448E24B147A9
:105A7000E924FE5291328F1C0D3349246833A92B3F
:105A8000E823F032A224C73980244D4090243448C2
:105A90008D24AF4E78248F56B422AD1C1123AD2334
:105AA0007D23C92A55244B32A2242E3AA9249C4294
:105AB00093240349AA249D51B024A658B8224F1C10
:105AC00031231C235F23EB2AD7237B329A2482398C
:105AD0001525E0409C2484439624B7450725AB5206
