:100000000C948F6C0D94361D0D940B1D0D94E01CFB
:100010000D94B51C0D948A1C0D945F1C0D94341C1A
:100020000D94091C0D948C1D0D948C1D0D948C1D2C
:100030000C94C06C0C94C06C0C94C06C0C94C06C90
:100040000C94C06C0C94C06C0C94C06C0C94C06C80
:100050000C94C06C0C94C06C0C94C06C0D94BF1BC1
:100060000C94C06C0D947D170D9453170C94C06CB8
:100070000C94C06C0C94C06C0C94C06C0C94C06C50
:100080000C94C06C0C94C06C0C94C06C0D94611DED
:100090000C94C06C0C94C06C0C94C06C0D94CF1F6D
:1000A0000C94C06C0C94C06C0C94C06C0C94C06C20
:1000B0000C94C06C0D94E31E0C94C06C0C94C06C3A
:1000C0000C94C06C0C94C06C0C94C06C0C94C06C00
:1000D0000C94C06C0C94C06C0C94C06C0C94C06CF0
:1000E0000C94C06C0D94D7180D94D8100D94DF1299
:1000F0000D94B3180C94CC8E0C94EDC00C940D8F11
:100100000D948F190C9421C20D9447560D94F51837
:100110000D94D60F0D940E190C9466710C94FD8FEE
:100120000C9470710D9449020D9458020C9406C2FF
:100130000C9400C20D94AD6C0D9404540D940F11E9
:100140000D94FD100D94056C0D942C190D941C103C
:100150000C94AEC00D94BF6C0D9471020C946CC1E4
:100160000D9435460C94BD8F0D94F3570C94119358
:100170000D94C20F0D9419110D9458190C9444A2AA
:100180000D94F7670D9460560D94EB180C9438A2FB
:100190000D945A120D946F6C0C94719B0D94CF18A2
:1001A0000D9413110D9401110D94B0540D94E40F9E
:1001B0000D9453680D9483120C9471900C94058FD8
:1001C0000C94F59B0C942D8F0D9464530D94BA6C84
:1001D0000D9462020C9461710D94FE570C9443923D
:1001E0000C9445C10D943D460D9404130C94D99084
:1001F0000D9445460C943D9B0D94EF570D940113BF
:100200000D9457560C9459A20D94B36C0C94337CF6
:100210000C941AC20D94A4670D94DE100D9469120B
:100220000D94A82F0C9413C20C940CC20D94B76CAF
:100230000C9452710C94CBC00D9467020D949913D9
:100240000D94ED100D94E6220C94E39B0D942A5529
:100250000C944ADB0D9451680D949D110C94999067
:100260000D94FA110D9410120C9463930D9466562C
:100270000C9405C10C947FA40D94F7100C949D8FE1
:100280000C9479C10D9484110D94F3100D94635660
:100290000C9464C10D9458460C94F6C10C9412C190
:1002A0000D9457680D94B9780C943CC10C9425DBDF
:1002B0000D9483110D9484130D949E110C9450DBB6
:1002C0000D94C16B0D94F3120D94B06C0D94B0129B
:1002D0000C94D1910C9433A20C9451900D945156DE
:1002E0000D9458120C9499920C94EF9B0D94BE4669
:1002F0000D9469100C94E9920D9451140D94E6102C
:100300000D94BF220C945C710C949CC10C943EA281
:100310000D94026C0D946C020D94BE6B0C94DE8EE9
:100320000D9485110C946B710D94EB2F0D94AA6CA8
:100330000C9431900D9436190C944CC00D94545675
:100340000D945A560C942EA20D94BE2F0C948FC16E
:100350000C9453C00C943EC00C941D900C9430C06F
:100360000D94A9180D94C46B0C944AA20D94EC57EB
:100370000D94E2100C9445C00D94B7670C94C19293
:100380000D94C7180D94E6570D94972F0D94B30F45
:100390000D941D110D94BD180C94A4C00D94181942
:1003A0000D94AC670D94860F0C9482C00D94F85791
:1003B0000C94F9900C948D950D944E020D946368F5
:1003C0000D94E9570C944D710D9404190C944DC182
:1003D0000C9486C10D947C120C9441DB0C9444DB8C
:1003E0000D94D5240C9457710C94DD8F0C9471925C
:1003F0000D9459120C94CF980C94779B0C94FB9B02
:100400000D94E62F0D9469560D94FB570D94A41886
:100410000D94086C0C94D5C00D940B110C9447717D
:100420000D940B580D9418110C9491900D94D613B3
:100430000C940D9A0D94A76C0C94E99B0D940511E6
:100440000D9471550C94FDBF0C94DD970C9492990A
:100450000C9495900D945D560C9429C00D94001346
:100460000D94BC620D9422190D945D020D943E0210
:100470000D94EA100D9453020C9462A20D94FF6B3C
:100480000C9446980C94098F0D946A140C9450A205
:100490000C94159B0D94E1180C944DDB0D943214C3
:1004A0000D9486210C9447DB0D949C180C94B99004
:1004B0000C9485A40C9437C00D94C76B20515371D4
:1004C000756172653D007C203E3E3E205465726D34
:1004D000696E6174696E6720466C6F77436F6E74E6
:1004E000726F6C205053206272656174682C2070AA
:1004F00065616B515371756172653D007C203E3EB4
:100500003E20466C6F7720436F6E74726F6C205084
:10051000532074696D6564206F7574007C203E3EC5
:100520003E2054696D6520436F6E74726F6C20506D
:10053000532074696D6564206F75740020746F7446
:10054000616C53616D706C65733D007C2040404070
:10055000204C41535420446F776E73747265616D03
:1005600020704D6D3D00207072657644656C74613D
:10057000505831303D007C20404040205245414C95
:100580002053706F6E7420547269676765722070B3
:100590004D6D3D007C204040402054726967676586
:1005A0007220636865636B20546F6F2066657720E7
:1005B00073616D706C6573007C2040404020547204
:1005C000696767657220636865636B204F75746C3B
:1005D000696572205654007C204040402054726966
:1005E0006767657220636865636B204F75746C691B
:1005F0006572205065616B007C2040404020547241
:10060000696767657220636865636B20416972770B
:10061000617920426C6F636B6564007C20404040D0
:10062000205472696767657220636865636B205048
:1006300072657373757265204C65616B007C204038
:100640004040205472696767657220636865636B18
:10065000205072657373757265204C6F7373007CE4
:1006600020007C20007C2053656C667465737420C8
:100670004661696C65642050696E206E756D6265B7
:100680007220007C20232323204661696C6564204E
:100690004D6F746F72205245534554000000456EF3
:1006A000676167696E67205368616674005475728C
:1006B0006E696E67204D6F746F72204F4E007C2004
:1006C0002323232044697361626C696E6720616E25
:1006D0006420456E61626C696E67206D6F746F7225
:1006E000000000446973656E676167696E67205337
:1006F00068616674005475726E696E67204D6F7420
:100700006F72204F4646007C2023232320417070C7
:10071000726F78696D6174652042564D2043656E35
:100720007472616C2044696120286D6D29203D2020
:10073000007C20232323204D617820436F6D70724D
:10074000657373696F6E205374657073206475727E
:10075000696E672062726561746873203D20007C59
:1007600020232323204D617820436F6D70726573C1
:1007700073696F6E2053746570732066726F6D209D
:10078000546F75636820706F736974696F6E203D74
:1007900020007C20232323204241442042564D2028
:1007A00043656E7472616C2044696120286D6D2907
:1007B000203D20007C2023232320424144204175FA
:1007C000746F20546F756368205374657073203D97
:1007D00020007C2023232320414D42552069732093
:1007E0004249473A206175746F546F75636853745A
:1007F0006570732073657420746F203020696E7388
:1008000074656164206F66007C20232323204D657E
:100810006469616E204175746F20467265657A6502
:10082000205374657073203D200029203D20007CFA
:1008300020232323204175746F20467265657A65F5
:100840002053746570732028697465726174696FD0
:100850006E20007C2023232320436F6D707265730C
:1008600073696E6720746F2066696E6420707265AC
:10087000737375726520647572696E672061757433
:100880006F20746F756368206F7065726174696F33
:100890006E000000496E2050726F677265737300BE
:1008A000506C61746520506F736974696F6E696E06
:1008B0006700436865636B202325640053544550EB
:1008C00053203D20256400002E2E2E00506F7369AA
:1008D00074696F6E696E6720506C61746573000097
:1008E0007C202A2A2A205265646F696E6720544F43
:1008F00055434820706F736974696F6E007C2023C4
:10090000232320507265737375726520666F756E50
:1009100064206174205374657073203D20007C2036
:1009200023232320436F6D7072657373696E672094
:10093000746F2066696E642070726573737572657A
:1009400020647572696E672062656C7420666978D0
:10095000206F7065726174696F6E00004D6F746F07
:10096000722042656C7400736C61636B20696E2049
:100970007468650052656D6F76696E6720616E7987
:10098000000000456E676167696E672053686166A5
:1009900074005475726E696E67204D6F746F7220AB
:1009A0004F4E00506C65617365207761697400007B
:1009B0002E2E2E00436865636B696E670025753ABD
:1009C000253032753A25303275004272656174689F
:1009D0002023256C750028483A4D3A5329202025BC
:1009E0007300000053657373696F6E204475726104
:1009F00074696F6E00494E53504952452D31303065
:100A00000041746D6F73706865726963204F323D89
:100A1000256425250025646674206F722025646D89
:100A2000000000004C6F636174696F6E20262041E6
:100A30006C7469747564650028594553206F722081
:100A40004E4F29203F00436F6E6669726D20746FB0
:100A500020616363657074006D6179206265207444
:100A60006F6F20686967680050454550207061725B
:100A7000616D657465720028594553206F72204E70
:100A80004F29203F00436F6E6669726D20746F209E
:100A9000616363657074006D617920626520746FB5
:100AA0006F206869676800504D415820706172611D
:100AB0006D65746572004E6F7465642028594553E6
:100AC00029203F0042564D2C2042726561746869AE
:100AD0006E6720747562657300557073747265611A
:100AE0006D20507265737375726500436865636B42
:100AF00020666F72204C65616B6167652873290001
:100B00004E6F746564202859455329203F00425692
:100B10004D2C20427265617468696E67207475623D
:100B2000657300446F776E73747265616D205072E7
:100B300065737375726500436865636B20666F72D9
:100B4000204C65616B61676528732900446F6E6591
:100B5000202859455329203F004272656174686915
:100B60006E672043697263756974004F50454E206B
:100B70006D61736B206F70656E696E67206F6600C4
:100B8000446973636F6E6E65637420506174696548
:100B90006E74004E6F7465642028594553290069AE
:100BA0006E20427265617468696E67204369726382
:100BB00075697400526573696475616C2050726563
:100BC0007373757265004641494C45442062616308
:100BD00061757365206F66004E6F746564202859D7
:100BE0004553290043616C6C2053657276696365D7
:100BF000205465636800436865636B2050726573B9
:100C000073757265207475626573004641494C4581
:100C100044202D204E6F20707265737375726500CD
:100C200025642E2564206C69747265732F6D696E5E
:100C30000000005461726765742069732028525265
:100C400020782056542900505356204D696E7574F3
:100C50006520566F6C756D6500256C75205061744C
:100C600069656E74005768696C6520696E20434D34
:100C700056206D6F64650044657465637465642017
:100C80006275742049676E6F72656400496E69749D
:100C900069617465642062726561746873000052F2
:100CA000616E6765205B2533642C2533645D6D6D53
:100CB000004D65617375726564204469613D25333B
:100CC000646D6D004E6F746564202859455329206A
:100CD0003F000000496E636F727265637420425674
:100CE0004D2053697A6500686176652063726F7381
:100CF00073656420256C75004E6F746564202859F7
:100D0000455329203F00506C656173652072657002
:100D10006C6163652042564D000042564D202343CE
:100D20006F6D7072657373696F6E7300686176655D
:100D30002063726F7373656420256C750077697426
:100D4000682061206E6577206F6E6500506C65616C
:100D50007365207265706C6163652042564D0000BA
:100D600042564D2023436F6D7072657373696F6EC9
:100D700073000042564D2023436F6D70726573738C
:100D8000696F6E730000446174652042564D2049BE
:100D90006E7374616C6C656400256C7520437963B7
:100DA0006C6573004E6F7465642028594553292083
:100DB0003F0043616C6C2053657276696365205413
:100DC000656368000053797374656D2053657276AE
:100DD0006963652054696D6500256C7520437963EE
:100DE0006C65730000496E73706972652D31303027
:100DF000204C6F636174696F6E00746F2057692DAA
:100E00004669204E6574776F726B00436F6E6E6536
:100E10006374204C6170746F702F50686F6E650042
:100E200000496E73706972652D31303020506174E5
:100E300069656E7400746F2057692D4669204E6590
:100E400074776F726B00436F6E6E656374204C61D4
:100E500070746F702F50686F6E650025736B67201C
:100E60002573636D00257320257379720025732027
:100E70002573005B25735D0050617469656E742095
:100E8000496E666F002D3E2025642E256420286C57
:100E90002F6D696E2900436F6E6669726D20444F35
:100EA0004E45202859455329203F000053657420A2
:100EB0004F3220466C6F7720286C2F6D696E2900A9
:100EC0004D696E75746520566F6C2E20457374697C
:100ED0006D617465002D3E2025642E256420286CEC
:100EE0002F6D696E2900436F6E6669726D20444FE5
:100EF0004E45202859455329203F00005365742052
:100F00004F3220466C6F7720286C2F6D696E290058
:100F10004D696E75746520566F6C756D65204368FC
:100F2000616E676500252E32307300252E323073D6
:100F30000000000057692D466920436F6E6E65639F
:100F400074696F6E004175746F205265636F7665CA
:100F500072696E670053797374656D206973000060
:100F60004D6F746F72204661756C740052657375B5
:100F70006D6564204F7065726174696F6E00004D1D
:100F80006F746F72204661756C74005265636F7682
:100F9000657265642066726F6D005245534554203A
:100FA0007468652053797374656D00004E6F74200A
:100FB0005265636F76657261626C65004D6F746F28
:100FC00072204661756C7400697320756E64657279
:100FD00067726F756E642E00546865697220616D6A
:100FE000617A696E6720747261697400756E7573D9
:100FF00075616C2074726565732E00417370656E47
:10100000732061726520766572790063617272691E
:10101000656420627920616E696D616C732E007465
:1010200068652077696E64206F7220617265007355
:1010300065656473207468617420666C79206F6ED6
:10104000005472656573206E65656420746F20734B
:1010500070726561640063756C747572657320618C
:101060006C6C206F7665722E0079656172732075E5
:10107000736564206279206D616E7900666F7220FD
:10108000666976652074686F7573616E6400486187
:101090007270732068617665206578697374656421
:1010A0000068656C707320676574206974207570C2
:1010B0002E0069732066756E2E2041206C6967686A
:1010C000742077696E64006E6963652C20666C79A4
:1010D000696E672061206B697465005768656E20D2
:1010E000746865207765617468657220697300743F
:1010F0006865726520697320736E6F772E00616E6C
:10110000797768657265207768657265006F7574B8
:10111000646F6F722070617374696D6500536B69E1
:10112000696E67206973206120706F70756C6172E1
:1011300000666F756E6420696E2052757373696105
:101140002E0074686F7573616E64207965617273C7
:101150002061676F2C00666F756E642C206461746B
:10116000657320656967687400546865206F6C64F6
:1011700065737420736B69206576657200416E74C7
:101180006172637469636120696365207368656572
:10119000740069732066726F7A656E20696E2074C0
:1011A0006865006672657368207761746572206F88
:1011B0006E204561727468004E696E6574792070A6
:1011C000657263656E74206F6600554E4B4E4F57C7
:1011D0004E002C2044796E616D6963203D200055DE
:1011E0004E4B4E4F574E007C203E3E3E204C756E7F
:1011F0006720436F6D706C2E20286D6C2F636D20FF
:1012000048324F2920537461746963203D200020C7
:101210007374657073203D20006D73002920705336
:10122000616D706C696E673D00296D73202072706E
:101230006D5831302028007C20232323204465630F
:101240006F6D7072657373696E6720402800457812
:10125000706563746564203E202575206D6C004DBB
:10126000696E75746520566F6C3D2575206D6C0038
:101270004261636B75702053494D562061637469F8
:1012800076650000004C6F77204D696E757465209F
:10129000566F6C756D6500436865636B20444953F8
:1012A000504C4159004272656174682053657474F2
:1012B000696E67730054656D706F726172696C79E5
:1012C000206368616E676564005072657373757240
:1012D00065206265796F6E6420504D41580043610E
:1012E0006C6C205365727669636520546563680091
:1012F000436865636B20427265617468696E67203C
:101300007475626500436865636B2050617469653C
:101310006E74204D61736B00544F54414C205072D9
:10132000657373757265204C6F73730043686563F2
:101330006B205072657373757265204C696E6573AE
:1013400000436865636B2050617469656E74204D5D
:1013500061736B00436865636B2042564D204261A8
:101360006700536F6D6520507265737375726520E9
:101370004C65616B0043616C6C20536572766963E8
:1013800065205465636800417370697261746520FB
:1013900050617469656E7400436865636B204272C6
:1013A00065617468696E6720747562650041697271
:1013B00077617920426C6F636B6167650043616C94
:1013C0006C205365727669636520546563680043D9
:1013D0006865636B2042564D2042616700696E204C
:1013E0007468652042564D20426167004465666F0F
:1013F000726D6174696F6E204465746563746564B1
:1014000000256420646567430043616C6C2053656C
:10141000727669636520546563680000746F6F209D
:1014200068696768004D6F746F722054656D7065F0
:1014300072617475726500256420646567430043BA
:10144000616C6C20536572766963652054656368CE
:101450000000746F6F206C6F77004D6F746F722097
:1014600054656D7065726174757265006C65616458
:10147000696E6720746F204552524F520074686540
:101480002053797374656D207374617465005072B4
:1014900065737320504155534520746F2073686FF6
:1014A00077005B4552524F525D004272656174682D
:1014B0002023256C7500506175736520496E73702B
:1014C00069726174696F6E0053686F727420507234
:1014D00065737320504155534520746F000042726C
:1014E000656174682044656C697665727900447939
:1014F0006E616D6963203D202575005374617469C8
:1015000063203D2025750044796E616D6963203D3F
:1015100020554E4B4E4F574E0053746174696320F3
:101520003D20554E4B4E4F574E00286D6C2F636D2E
:1015300048324F29004C756E672044656C746156C3
:10154000202F2044656C746150004272656174689C
:101550002023256C7500000000494E535049524528
:101560002D313030004272656174682023256C751E
:1015700000457374696D617465642056543D25752A
:101580000000000044656C69766572656420566FE2
:101590006C756D65286D6C290042726561746820F8
:1015A00023256C750053706F6E74616E656F757373
:1015B0002042504D3D253275004D616E6461746F5F
:1015C00072792042504D3D25327500000000427274
:1015D000656174687320706572206D696E757465DD
:1015E0000053706F6E74616E656F75733D25752E57
:1015F0002575004D616E6461746F72793D25752E9D
:10160000257500546F74616C3D25752E257500009D
:1016100000004D696E75746520566F6C2E20286C25
:101620002F6D696E29004D454E55202D3E20537477
:10163000616E646279204D656E75006E6F74207204
:1016400065717569726564004F787967656E2049C8
:101650006E666C6F77004F787967656E20496E66AD
:101660006C6F77206D7573740046694F3220736517
:1016700074206174202564252500446973706C61B1
:1016800079656420506172616D65746572730042A2
:1016900072656174682044656C697665727920664C
:1016A0006F7200746F20626567696E0050726573B7
:1016B00073205354415254005265636F6E6E6563DC
:1016C00074207768656E2072656164790042726586
:1016D000617468696E672043697263756974006636
:1016E000726F6D207468650050617469656E742056
:1016F000446973636F6E6E6563746564005354412F
:101700005254202D3E205B4143544956455D004DC7
:10171000454E55202D3E205374616E646279204DF4
:10172000656E75004152524F5773202D3E20506117
:1017300072616D6574657273005B5354414E44422F
:10174000595D00696E2070726F6772657373005225
:1017500065636F6E6E65637420617474656D70741B
:10176000006973207374696C6C206C6F737400571C
:10177000692D466920436F6E6E656374696F6E00F4
:101780004D454E55202D3E205374616E6462792084
:101790004D656E75006E6F74207265717569726546
:1017A00064004F787967656E20496E666C6F7700CC
:1017B000536574204F3220466C6F772052617465F8
:1017C00020746F00005354414E4442592073746199
:1017D00074650050454550207768696C6520696ED6
:1017E000004163746976656C79206D61696E74611E
:1017F000696E696E6700507265737320535441526D
:101800005420616761696E00436F6E6E656374207A
:1018100050617469656E7420616E64004272656126
:1018200074682044656C69766572790043616E6EF8
:101830006F742053544152540042726561746820A1
:10184000666F722061207768696C65004D697373FB
:10185000696E672053706F6E74616E656F7573008B
:1018600042726561746820696E20505356206D6F16
:1018700064650044656C697665726564204D616ECF
:101880006461746F727900757020746F2025732005
:10189000636D2048324F006F7220504545502073D1
:1018A000657474696E670041646A7573742050458D
:1018B00045502076616C76650000504545502064A7
:1018C000656C7461204F6273657276656400746F35
:1018D00020636865636B2073797374656D00436181
:1018E0006C6C20536572766963652054656368008B
:1018F00067726F73736C7920696E6163637572616F
:10190000746500546964616C20566F6C756D650078
:101910004368616E67652053657474696E67730010
:1019200042564D2042616720746F6F20736D616C69
:101930006C0073657420546964616C20566F6C751B
:101940006D6500556E61626C6520746F2064656C16
:101950006976657200666F72205072657373757276
:101960006520537570706F7274004368616E6765AF
:101970002073657474696E670073657420507265B6
:10198000737375726520537570706F727400556E45
:1019900061626C6520746F2064656C6976657200A5
:1019A000436865636B20696D6D6564696174656C1E
:1019B0007900636F756768696E672068696363752E
:1019C0007070696E670050617469656E74206D692E
:1019D0006768742062650041626E6F726D616C2091
:1019E00042726561746800594553202D3E20436F53
:1019F0006D6D6974004368616E67652050415241A6
:101A00004D45544552530028594553206F72204E7E
:101A10004F29203F00436F6E6669726D20746F20FE
:101A2000616363657074006D617920626520746F15
:101A30006F2065787472656D650056542C52522C77
:101A4000454920636F6D62696E6174696F6E00282D
:101A5000594553206F72204E4F29203F00436F6E2F
:101A60006669726D20746F20616363657074006DC8
:101A7000617920626520746F6F2065787472656D7E
:101A8000650050532C54505320636F6D62696E6132
:101A900074696F6E0028594553206F72204E4F298C
:101AA000203F00436F6E6669726D20746F20616322
:101AB0006365707400636C6F736520746F205045AC
:101AC00045500050532073657474696E6720746FBD
:101AD0006F0066726F6D206E65787420627265614A
:101AE0007468004E657720504152414D455445522F
:101AF0005300594553202D3E20436F6D6D6974008E
:101B0000504152414D4554455253206368616E67C0
:101B10006564004E6F746564202859455329203F41
:101B200000547279696E6720746F205265636F6E1E
:101B30006E6563740044524F505045440057692D00
:101B4000466920436F6E6E656374696F6E00436112
:101B50006C6C205365727669636520546563680018
:101B600000435243204661696C7572650054656D8F
:101B700070657261747572652053656E736F720063
:101B800053544F5020666F6F6C696E672061726F9F
:101B9000756E64210021212049474E4F5245442053
:101BA0002121005072657373656420746F676574DA
:101BB000686572004D756C7469706C65204275744F
:101BC000746F6E73005B256C752C256C755D007CE5
:101BD000204040402057692D4669205245434F4ED2
:101BE0004E4543544544007C204040402057692DD9
:101BF00046692044524F50504544007C202A2A2AEE
:101C0000205265636569766564205345524B45599A
:101C10005F574946495F5245434F4E4E45435445F1
:101C200044203D007C202A2A2A205265636569767B
:101C30006564205345524B45595F574946495F44B7
:101C4000524F50504544203D005B25642C25642CA8
:101C500025642C25645D002A2A2A2A2A2A2A2A2A6F
:101C60002A2A2A2A2A2A2A2A2A2A2A20535541524B
:101C700054206F766572666C6F7720666F72206D88
:101C80007367547970653D007C20232323204172C3
:101C90006475696E6F2052657365742D696E672077
:101CA0004E6F64654D637500207374723D00203083
:101CB00078002A2A2A2053796E634D696C6C697307
:101CC00020743D30780053657373696F6E205469DA
:101CD0006D6572204F666673657420536563733A51
:101CE0000053657373696F6E2054696D6572204986
:101CF0006E69743A0023232323232323204E656730
:101D000061746976652064656C61792023232323DF
:101D1000232323232323005053560053494D5600B9
:101D200041435600434D5600204F32466C6F775862
:101D300031303D00204F325075726974793D00207A
:101D400046694F323D0020205450533D0020504DF5
:101D500041583D0020504545503D002050533D0026
:101D6000204D565831303D002045493D002052520B
:101D70003D002056543D007C20232323204D4F441A
:101D8000453D00206D696E73007C2023232320765F
:101D90007452616D70496E4D696E757465733D0066
:101DA0002564206D696E7574657300436F6E666996
:101DB000726D2028594553206F72204E4F29203FC5
:101DC000000052616D702D757020617070726F78B7
:101DD0002074696D6500546964616C20566F6C7580
:101DE0006D6500446F6E65202859455329203F00DA
:101DF0000052616D702D757020617070726F782067
:101E000074696D650053657420546964616C205673
:101E10006F6C756D65000972723D000965693D0062
:101E20000976743D00096F32466C6F775831303D4A
:101E3000007C203E3E3E20505356204D616E646132
:101E4000746F727920427265617468204241434B1D
:101E50005550007C2023232320496E697469616CEE
:101E600020466F72776172642072706D5831303D18
:101E7000002041646A75737465643D007C202323EF
:101E80002320496E697469616C2056432073746520
:101E900070732E2043616C696272617465643D00E9
:101EA0007C20232323205643206578747261637459
:101EB00065642066696C7465722077696E646F77FB
:101EC000203D20007C2023232320496E6974696112
:101ED0006C20505320546172676574205072657392
:101EE0007375726520286D6D29203D20007C2023AC
:101EF00023232050532065787472616374656420D5
:101F000066696C7465722077696E646F77203D2016
:101F100000232323232056432043616C63756C61A7
:101F2000746556744D6F746F72506172616D657433
:101F3000657273466F725643204641494C454420B2
:101F4000616C61726D436F64653D002064656C7403
:101F50006153746570733D002073746570734469D8
:101F600066663D007C20232323204D4158205643A4
:101F70002044656C74612053746570733A206E75EB
:101F80006D52616D70427265617468733D002061CD
:101F900073617053746570733D007C202A2A2A2077
:101FA00042616420696E697469616C537465707311
:101FB0003D007C20232323204E756D2042726561F5
:101FC0007468732070657220546974726174696FEB
:101FD0006E3D007C202323232050656570205761CF
:101FE000726E696E67204E756D204272656174680D
:101FF0007320496E74657276616C3D007C202323EA
:10200000232041646A7573746564204D41582044EF
:10201000656C74612053746570733D007C202323CC
:10202000232041646A757374656420546172676526
:10203000742049513D007C203E3E3E20444F4E4599
:1020400020436F6D6D697474696E67204368616EBB
:1020500067657320696E202073657474696E677399
:1020600000207470733D002070733D0020706D611E
:10207000783D0020706565703D00206D76583130E8
:102080003D002065693D002076743D002323232315
:10209000206D6F64653D00232323232053657474F2
:1020A000696E677320436F6D6D69744368616E6715
:1020B00065204661696C656420696E2043616C63CC
:1020C000756C6174654D6F746F7253657474696E6D
:1020D0006773007C203E3E3E20436F6D6D697474D3
:1020E000696E67204368616E67657320696E2020A2
:1020F00073657474696E677300206D6D48324F00AC
:10210000204465706C6F796D656E743A2000206DA7
:102110006D48324F2C002043616C696272617469B2
:102120006F6E3A20007C2023232320507265737346
:10213000757265733A0000000040470A1040670C52
:102140002640870E3C40A7105240C7126840E71453
:102150007E40071794402719AA40471BC040671DBF
:10216000D640871FEC40A7210241C7231841E7252D
:102170002E4107284441272A5A41472C7041672E97
:10218000864187309C4100000040A8060E40370978
:102190002340C60B3840560E4D40E5106240741384
:1021A000774003168C409218A140211BB640B11D08
:1021B000CB404020E040CF22F5405E250A41ED278C
:1021C0001F417C2A34410C2D49419B2F5E412A320C
:1021D0007341B9348841000000400A030C400806EE
:1021E000204006093440050C4840030F5C400112B2
:1021F000704000158440FE179840FC1AAC40FB1D4F
:10220000C040F920D440F723E840F626FC40F429EA
:102210001041F22C2441F12F3841EF324C41ED3581
:102220006041EC387441000000409A060F401C09E0
:1022300023409D0B38401F0E4C40A11061402313DA
:102240007540A5158A4026189E40A81AB3402A1D3D
:10225000C740AC1FDC402D22F040AF2405413127A0
:102260001941B2292E41352C4241B62E5741383101
:102270006B41BA338041000000402B0A1240300C01
:102280002740350E3C403A1051403F1266404514FD
:102290007B404A1690404F18A540541ABA40591C2A
:1022A000CF405F1EE4406420F94069220E416E2455
:1022B00023417326384179284D417E2A6241832C7F
:1022C0007741882E8C4100000040C3071040660A09
:1022D0002540080D3A40AA0F4F404C126440EE14BE
:1022E000794090178E40321AA340D41CB840761F14
:1022F000CD401922E240BB24F7405D270C41FF2965
:102300002141A12C3641442F4B41E63160418834B4
:1023100075412A378A41000000405C050F409C0847
:102320002440DB0B39401A0F4E4059126340981578
:102330007840D7188D40161CA240551FB7409422F4
:10234000CC40D425E1401329F640522C0B41912F6B
:102350002041D03235410F364A414E395F418D3CE4
:102360007441CD3F894100000040AD050E40F508A5
:1023700024403D0C3940840F4F40CC12644013166A
:102380007A405B198F40A21CA540EA1FBA40312356
:10239000D0407926E540C129FB40082D104150303E
:1023A000264197333B41DF365141263A66416E3D27
:1023B0007C41B640914100000040FF050E404F09AE
:1023C00024409F0C3A40EF0F50403F1366408F1659
:1023D0007C40DF1992402F1DA8407F20BE40CF23B4
:1023E000D4401F27EA406F2A0041BF2D16410F310C
:1023F0002C415F344241AF375841FF3A6E414F3E66
:1024000084419F419A410000004060050E409A08B7
:102410002440D50B39400F0F4F40491264408315BB
:102420007A40BD188F40F71BA540321FBA406C227E
:10243000D040A625E540E028FB401A2C1041542F3F
:1024400026418F323B41C9355141033966413D3CFC
:102450007C41773F914100000040C2040F40E607F5
:1024600024400B0B39402F0E4E405311634078141B
:1024700078409C178D40C01AA240E51DB740092145
:10248000CC402D24E1405227F640762A0B419A2D6C
:102490002041BF303541E3334A4107375F412C3A91
:1024A0007441503D89410000004034040E407207E1
:1024B0002340B10A3840EF0D4D402D1162406C149D
:1024C0007740AA178C40E81AA140281EB640662122
:1024D000CB40A424DF40E327F440212B09415F2EA9
:1024E0001E419E313341DC3448411A385D41593B2D
:1024F0007241973E874130835B1F0B83C7243E8325
:10250000252BB1737C32F6633A392A6468407464CF
:10251000C048B4544D51C1440258B662EF1BEB623F
:1025200070224263542977533830DF53F63806441B
:10253000BE3E60345E48BA34CB4FC9343355814215
:10254000EE1BE542A1231333022A513392309F231D
:102550009B37D923BE3F2C24604689242C4D8C24E4
:10256000EF532483B51E188397243E83AC2AAC73A3
:102570006532EB63D63821641C4069643E48AD5433
:10258000A950BD445F57B5620D1CE8627D223663D9
:10259000582973535A30D653B0380044933E5334BD
:1025A0008B47B834204FBF348E547C42A71BD8428F
:1025B00032230A33BD294A3331309C238137DB2350
:1025C000893F30245D4688243D4D86240954197383
:1025D0000F1E267368243F63332AA8634F32E163DA
:1025E00072381854D03F5F44BD47A7440550B934F2
:1025F000BD56B5522B1CE6528B222B535D296F43DF
:102600007D30CD336B38FA33683E4634B846B72454
:10261000754EB524EA537732601BCC32C4220133A5
:1026200078294323D02F99236837DD23553F34245D
:102630005A4687244E4D812424540E73691D3373EA
:1026400038243F63BA29A3633932D7630E380F5455
:10265000843F55443C47A044614FB5341B56B452A7
:10266000491CE45299221F5361296B439F30C433A4
:102670002638F4333D3E3934E545B524CA4DAB2404
:1026800046537232191BC0325622F83233293C238A
:102690006F2F96234E37DF23213F38245746862459
:1026A0005F4D7C243F540363C31C41630924406392
:1026B00042299F532332CD43AB370744383F4B4425
:1026C000BB469A34BE4EB2347955B442681CE242DD
:1026D000A722143366296733C230BC33E137EF23B6
:1026E000133E2D241245B424204DA124A2526D3254
:1026F000D31AB432E821F032EE2835230E2F94237A
:102700003537E123ED3E3C2455468524704D772432
:102710005A54F362941C3363D423426381299C533B
:10272000FF31CE43AD370844253F5244E046A03444
:102730006D4EAF342155A6424C1CD5425522123362
:102740002C2964335F30BA338937EF23153E2F24A9
:102750004045B6243A4DA4240A536732D41AB13204
:10276000B221F432FE2837233B2F91230637E3238F
:10277000F33E4C248D468424964D7F24CB54E45262
:10278000661C2553A0234553C1299A43DB31CF430F
:10279000B0370934123F59240647A6241D4EAD24F4
:1027A000C9549932301CC93203221033F3286223F2
:1027B000FC2FB8233237EF23183E32246E45B9245C
:1027C000554DA72473536232D51AAE327C21F922BB
:1027D0000E293A23692F8E23D736E623F93E5C244F
:1027E000C6468324BD4D88243C55D552371C17530B
:1027F0006B234853012A9743B731D043B2370A3489
:10280000FF3E60242C47AC24CC4DAA2471548B325B
:10281000141CBC32B1210E33BA286023992FB62381
:10282000DB36EF231A3E34249C45BC24704DAA2489
:10283000DB535D32D61AAB324621FE221E293D23E0
:10284000972F8B23A836E923FF3E6C24FF46822472
:10285000E44D9024AD55C652091C095337234B4310
:10286000412A95439331D133B5370C34ED3E67346B
:102870005247B2247C4DA8241A547E32F81BB03241
:1028800060210C3381285E23362FB5238436F02354
:102890001D3E3724CB45BF248B4DAD2444545822D4
:1028A000D81AA822112103232F294023C52F8823BA
:1028B0007A36EC23053F7D24384781240B4E99243A
:1028C0001E56C452891C035366234643532A8C4325
:1028D0006331CD33B7370D34153F70342247AD2403
:1028E000354DA72434547932F61BB432DE210A3335
:1028F000B5285D237D2FB323F136ED23333E3424F9
:10290000A945B024E94DAD24BD545C22061BAA2282
:102910004B21032350294123F72F8C23DB36E72358
:10292000233F782436488724A04E97244156C3423B
:10293000091DFD4296234133662A84333431C9236D
:10294000B9370E243D3F7924F346A924EE4CA62442
:102950004E547432F41BB9325C220933E9285C23EB
:10296000C52FB2235F37EA23493E31248745A2248D
:10297000474EAD2436556122351BAD2286210423F6
:10298000722942232A3091233C37E323423F7324A8
:1029900034498D24364F96246556C142891DF7422D
:1029A000C6233C33792A7C330531C523BB370F243A
:1029B000653F8224C346A424A74CA52468546F32E3
:1029C000F21BBE32DA2208331D295B230D30B123FE
:1029D000CD37E7235F3E2E2465459424A54EAD24D4
:1029E000AF556622631BAF22C121042393294323E1
:1029F0005C3095239D37DF23613F6E24324A932458
:102A0000CB4F95248956C0420A1EF242F623383332
:102A10008C2A7433D630C223BD3711248E3F8C24C8
:102A20009446A024604CA42483546B32F01BC33220
:102A30005923072352295A235530B0233B38E52325
:102A4000763E2B2444458624044FAD2428566B2221
:102A5000921BB222FC210523B52944238F309A23EF
:102A6000FE37DB23803F6A24304B9A246150942444
:102A7000AD56BE42E41DF242D42334336F2A77337D
:102A8000CE30C823C2371E24BC3F9924CF46A7248A
:102A9000054DAB24BB546B32DB1BC2322E23062305
:102AA000692959235330B0232738EE23C03E4B24E5
:102AB000CE458824A74EA824F8556E22CA1BB522FD
:102AC0004B220823F8294E231731A623ED38ED2396
:102AD00097407A24F54AB8244F50B924AE54BC32FA
:102AE000BF1DF232B3233123522A7A23C630CE23BC
:102AF000C8372C24EB3FA6240B47AE24AB4DB324A0
:102B0000F3546C22C71BC2220323062380295923B6
:102B10005230B0231438F7230A3F6B2459468A24D5
:102B20004A4EA324C8557122031CB9229B220B23B1
:102B30003B2A59239F31B323DD390024AE418A2437
:102B4000BA4AD6243E50DE24B052BA32991DF2322F
:102B500091232D23352A7D23BE30D423CD373A242B
:102B60001A40B3244647B524504EBA242B556D2243
:102B7000B31BC222D8220523972958235130B023F2
:102B800001380024543F8B24E4468C24ED4D9E24D0
:102B9000985574223B1CBD22EA220E237E2A642310
:102BA0002732BF23CC3A1324C5429A247F4AF42407
:102BB0002D500325B150B832741DF23270232A33E0
:102BC000192A8123B630DA23D33748244940C02458
:102BD0008247BC24F64EC22464556E229F1BC2223B
:102BE000AD220523AE2958235030B023EE370A24F6
:102BF0009F3FAB246F478F24904D992468557722CF
:102C0000741CC1223A231123C12A6F23B032CC2372
:102C1000BC3B2624DC43AA24444A12251C50292507
:102C2000B34EAE32061DE83214232C33302A8323F0
:102C3000AB30E1230A385D245440BE245A47BA24FD
:102C40008D4EBB2422556C22831BBF228C22042371
:102C500069295E238330B52300380924A03FAD24C1
:102C600082479024774DA6243A5578226B1CC022C7
:102C700029231023CC2A6F23C332BC238A392D2465
:102C8000DF42BB24384AF6246A4BE5241D4AA532AC
:102C9000981CDE32B9222F33482A8623A030E8233D
:102CA000423873246040BD243347B924254EB524EF
:102CB000E1546B22671BBC226C2204232529652367
:102CC000B630BB2313380924A13FB0249547912483
:102CD0005F4DB4240D557922631CBF2218231023A5
:102CE000D72A7023D732AC2358373424E241CC247E
:102CF0002C4ADB24B846A22488459C322A1CD432B4
:102D00005E2231335F2A89239530EF237938882476
:102D10006B40BC240C47B824BC4DAE24A05469229F
:102D20004B1BB9224B220323E0286B23E930C1233C
:102D300026380924A23FB324A8479224464DC12433
:102D4000E0547A225A1CBE2207231023E22A702361
:102D5000EA329C2326353B24E540DD24204AC0246A
:102D600006425E24F2409332BD1BCB320322343341
:102D7000772A8C238B30F723B1389E247740BB24ED
:102D8000E546B724544DA8245F5468222F1BB72270
:102D90002B2203239C2872231D31C7233938092491
:102DA000A43FB624BC4793242E4DCF24B3547B229A
:102DB000521CBD22F6221023ED2A7123FE328D23F0
:102DC000F5324324E83FEE24154AA524543D1B2444
:102DD0005D3C0F83881E3983A1257473962CD073B4
:102DE00094341A64403C5064B642C664044EE654BF
:102DF0004E56F0446D5D90623C1AC462AC201D5387
:102E0000EC276F53512FD05389370D44393EAD34E1
:102E1000D74AC434BC51C934405770428E1AC84294
:102E20000C221343D9286333F72FB73335370024E7
:102E3000A93F4B243F469824644DD524F6540C8377
:102E40003B1E3E8374257273422CCC734734156449
:102E50008F3B47643942A864764CC7547E54C344C0
:102E6000B85A9E62121BD76291212C53CA288253F2
:102E70003230ED5313382044B83E99348949BA347E
:102E80008C50BE3477567242A21ACA422A22164386
:102E900003296533F92FB93357370224A03F512452
:102EA0009946A724F54DCF2452550973EE1D43735F
:102EB00048257163ED2BCA63FB331164DF3A3F543D
:102EC000BC418B54E84AA844AE5295340358AD52E5
:102ED000E81BEA5277223C53A929954313310A345F
:102EE0009F383234373F85343B48B2245C4FB4249A
:102EF000AF557432B71ACD32492219332D296823C0
:102F0000FB2FBC237A370424983F5624F446B5247B
:102F1000864EC924AE550673A11D47731B257063E9
:102F2000992BC663AF330D642E3A36543F416E542D
:102F30005B498944DD5068344E55BB52BE1CFE527D
:102F40005D234B53872AA843F33127342A3945346C
:102F5000B63F7134ED46A9242B4EAA24E7547732AC
:102F6000CC1AD03268221C3357296B23FC2FBE2386
:102F70009C3705248F3F5C244E47C424164FC3243E
:102F80000A560363541D4D63EF246F63452BC453EE
:102F9000633309447E392E44C2405144CD476B34DB
:102FA0000E4F3B349952CA42951D114343245A3364
:102FB000652BBB33D4324534B539582436405D24B3
:102FC0009F45A024FC4CA0241F547932E11AD3322F
:102FD0008722202381296E23FE2FC223BF37072497
:102FE000873F6124A947D224A74FBD246656F962C2
:102FF0007D1D4463EF247063782BC4536333FE4319
:1030000060393244BD405844E9477534014F50346B
:103010005853C2427E1D0B4308245833342BB2331D
:103020006C32373433395424E23F5F24BB45A22449
:10303000184DA1243C547C32181BD532682226231B
:10304000782971231D30C023B43712248E3F6F249A
:103050005F47C6240D4FBB243556F052A61D3C5386
:10306000EF247153AC2BC5436433F44342393734F6
:10307000B840602406488024F44E66241854BB32BD
:10308000661D0533CE235533032BA9230332292490
:10309000B13850248E3F6124D745A524354DA22454
:1030A0005A547F324F1BD83249222C237029752362
:1030B0003D30BE23A9371E24953F7C241547B924F3
:1030C000734EBA240456E752CF1D3453EE24735383
:1030D000E02BC6436433EA4324393C34B3406824CC
:1030E00022488B24E74E7B24D754B3324F1DFF3246
:1030F00093235333D32AA0239B311B2430384B24F2
:103100003A3F6224F245A724524DA32478548232D8
:10311000861BDA322A223223672979235C30BC23CA
:103120009D3729249C3F8A24CB46AD24D94DB92410
:10313000D355DE52F91D2C53EE247453142CC7437F
:103140006533E03307394234AF4070343F4896244A
:10315000DB4E91249755AC32381DF9325A23503347
:10316000A22A982332310D24AE374824E73E642446
:103170000F46AA24704DA52496548522BD1BDD223E
:103180000B22382360297E237C30BA2393373524E1
:10319000A33F98248146A1243F4DB824A255D25282
:1031A000D21D1C53A4246753CE2BB7430D33E233F7
:1031B000093946348C40763411489624994E92242D
:1031C0008155A632261DF73283234A338C2A9C234D
:1031D0004331112415384A24563F67247546A424E8
:1031E000054EA7242F558922CA1BE02227223A2305
:1031F00081297B239030C023D1373B24AE3F9724D5
:103200003347A524EC4DB324E455C642AB1D0C4313
:103210005A245A33892BA733B532E5230B394B2473
:1032200069407C24E4479824564E93246C55A03280
:10323000141DF632AD234423762AA12354311524DC
:103240007C384C24C63F6B24DB469F249A4EA9242D
:10325000C9558F22D71BE32243223D23A32979237B
:10326000A430C72310384224B93F9624E547A92447
:10327000994EAF242656BA42841DFC4211244D3388
:10328000442B97335E32E7230D394F244640822486
:10329000B6479824144E942456559A32031DF5329D
:1032A000D6233E23602AA62365311924E4384E2410
:1032B00035406E2442479924304FAB246256942205
:1032C000E41BE62260223F23C4297623B830CE23B4
:1032D0004E384924C43F95249648AD24464FAB242C
:1032E0006956AF425E1DED42C7234033FF2A873344
:1032F0000632EA33103954242440892489479A2419
:10330000D24D952441559532F11CF43200243833C6
:103310004B2AAB2376311E244B395024A54071240F
:10332000A9479424C64FAD24FC569A22F11BEA22E9
:103330007C224123E6297423CD30D5238D385024B7
:10334000CF3F95244849B224F34FA724AB56AD4252
:10335000381DEE42C7234133162B8B33FA31F63337
:1033600002395B243E409024B1479C242E4E942485
:1033700088559832EB1CF632022440337E2AB5235E
:1033800077311E242339502499407D24A947912464
:10339000464FA42470569B22191CEB22B4224223D0
:1033A0001A2A7D233531E1230C3953247C409324A0
:1033B0001049B724AD4FB4245555AA32121DF0322E
:1033C000C72342332D2B8F23EE310324F43862249C
:1033D0005A409824DA479E248C4E9324CF559C2241
:1033E000E61CF82203244823B22AC02378311F2484
:1033F000FB384F248E408924AA478F24C74E9C2433
:10340000E5559C22421CEE22ED2243234F2A8723BE
:103410009D31EF238B39562429419124D848BC246F
:10342000684FC1240054A832EB1CF132C623433349
:10343000452B9323E2311024E63869247540A024FB
:103440000248A124E94E92241756A022E11CFA2238
:1034500005244F23E52ACA237A312024D3384F2468
:1034600082409524AB478C24474E932459559D2286
:103470006A1CF02225234423832A91230632FB234E
:103480000A3A5A24D6418F24A048C024234FCE2480
:10349000AA52A632C61CF332C62345335D2B9723AE
:1034A000D7311D24D93871249140A8242B48A32456
:1034B000464F92245F56A422DC1CFC22062457238C
:1034C000192BD5237C312124AC384F247740A224FA
:1034D000AC478A24C84D8B24CE549E22931CF322E1
:1034E0005D234623B82A9B236F3209248A3A5D2440
:1034F00083428E246848C524DE4EDC245551A03218
:103500009D1CF1329E234733492B9F23D031292420
:10351000F13878248540A7240348A224F54E91244D
:1035200024569E22A01CF522BF235123BF2AD82354
:1035300089312524CD385124A140A224D8478F2495
:103540002F4E982445559C22821CF4224823422366
:10355000C52A9D2382320B2476397124FB419B249A
:103560000148BB24874BC924E04E9B32751CEF32C7
:1035700076234933362BA823CA3134240A398024D0
:103580007940A624DB47A224A44E9124EA5599222F
:10359000651CEF2279234B23662ADC2397312A24EA
:1035A000EF385424CB40A32405489424964EA524F8
:1035B000BD559B22721CF52233233E23D22A9F2322
:1035C00095320E24623884247341A9249A47B12489
:1035D0003148B6246C4C96324D1CED324E234B33A1
:1035E000232BB123C3314024233987246D40A624E3
:1035F000B447A224524E9024B0559322291CE922AC
:10360000322345230C2ADF23A5312F2411395624D8
:10361000F540A32432489924FD4EB22434569A2210
:10362000611CF6221E233B23DF2AA123A83210248B
:103630004E379824EB40B7243347A724DB44A32418
:10364000F8499232261CEC3226234E23102BBA2343
:10365000BD314C243C398F246240A5248C47A224E0
:10366000014E902477558E22EE1BE422EC2240235B
:10367000B229E323B4313424333959242041A4241A
:103680005F489E24654FBF24AC569922501CF722F8
:1036900009233723EC2AA423BC3213243B36AC2461
:1036A0006440C524CC469D24854191248447EF8203
:1036B000B51D68837B26AA83082EEF73AC363F6462
:1036C000473F77640445196548531855505B2045BA
:1036D000D9626B628A189E62E81EF9628526685379
:1036E0006B2EC2531C361544B53DFA34514DCE34C1
:1036F000AE53C9344E595F422E19AC427820143370
:10370000B12775335D2FCF23D0362824953F6B2406
:103710001F46A8249D4D1F25FE55F482C11D6483BC
:103720005126A783D82DED732A364064493E6E6436
:103730005644E864AE50E1545358C944115E88625F
:10374000181AC662A52023633D2892530A300554F7
:1037500077374044DE3EDF34884BBD34F851BE3409
:10376000615868429E19BD42232123334928813381
:10377000C12FD7232E372924B83F7224D646C6241A
:10378000AD4E18259B56F972CD1D60732826A46393
:10379000A82DEC63A83542644C3D6654A843B84458
:1037A000144EAA44575572344959A652A61BEF52DB
:1037B00063224D53F529BC43A9314834D3386B34C7
:1037C0000740C434BF49AD244350B4247557723206
:1037D0000F1ACF32CF213233E2288E232630DF2357
:1037E0008D372B24DB3F79248E47E424BE4F1125EF
:1037F0003857FE72D91D5C73FF25A163782DEA63EB
:10380000263543644E3C5D54FA4287447A4B7344F8
:103810005A521B348154C352341D185321247753F8
:10382000AD2BE64348338B342E3A96343041A934DD
:10383000F6479D248D4EAA2489567C327F1AE032A9
:103840007A2241337B299A238A30E723EB372C24D1
:10385000FE3F802446480225CE500A25D5570463F2
:10386000E51D5963D6259F63482DE953A43445448B
:10387000513B55444D425744E0483C345E4FC433BD
:10388000B94FE142C31E4143DF25A133652D1034FA
:10389000E734CF348A3BC2245A428E242D468D24ED
:1038A000D84CA0249D558632F01AF232262351338B
:1038B000142AA723EF30F0234A382E2421408724EE
:1038C000FE482025DF51042573580063661E5663A9
:1038D0000A269E636F2DED53C8342F44133B5D447D
:1038E00056425F44F3484B34954FF1339051DF42D9
:1038F000B01E4143BC259E333C2D00347934B43492
:10390000DD3AB924AF418F2436468F24F74C9F24EB
:103910006F5591325C1BFA321E235833F329AC23C6
:103920000031EF236238422429409224314808258F
:103930008450F8249F57FD52E71E54533E269E5351
:10394000972DF143ED341A44D53A66345F4268242A
:1039500006495B24CC4F1F246753DD329D1E423342
:1039600099259B33142DF1230B349A24313AB12439
:103970000541902440469124164D9E2442559C3288
:10398000C91B023316235F23D229B1231131EE2341
:103990007B38562431409D246447F024294FED2480
:1039A000CC56F952681F515372269E53BF2DF543D2
:1039B00012350544973A6F346842702419496A24D5
:1039C00003504D243E55DB328A1E42337625983310
:1039D000EC2CE1239D3380248539A8245B4091247D
:1039E00049469324354D9D241555A732361C0A337C
:1039F0000E236623B129B6232231ED2393386A249E
:103A00003940A8249746D824CE4DE224F955F652E1
:103A1000EA1F4F53A6269E43E72DFA433735F0336E
:103A20005A3A7834724279342C497A243B507B24B8
:103A30001557DA32781E433354259533C42CD223DC
:103A40002F336624D938A024B13F922453469524BD
:103A5000554D9D24E854B222A31C122306236E2345
:103A60009129BC233331EC23AC387E244240B3246B
:103A7000CB45C124744CD7242655E0521C1F355326
:103A8000E2258843492DE243B734F8335C3A803469
:103A900004427C3400498024FD4F7D24CF56D3322C
:103AA000561E3B3329258A33642CDC2309336F24CB
:103AB0003939A7247A409B2441479824214EA124D8
:103AC000A255B7228E1C162303237223B229B623D4
:103AD0002931F523C83890243940B6243046C32410
:103AE000384DCF248755CA424E1E1C431F257333C1
:103AF000AC2CCA33373401245E3A882496417F24A3
:103B0000D5488724BF4F80248A56CC32351E3433A3
:103B1000FE247F33042CE723E33279249A39AE2440
:103B20004341A52430489C24EE4EA5245C56BD227A
:103B30007A1C1A2301237623D429B0231F31FE23B4
:103B4000E438A2243040B9249646C624FD4DC8244A
:103B5000E855B442801D02435C245E330F2CB2331F
:103B6000B7330924603A902428418224A9488D243F
:103B7000814F83244456C532141E2D33D32474330D
:103B8000A42BF123BD328224FB39B5240C42AE2490
:103B90001F499F24BB4FA9241657C322651C1E230F
:103BA000FF227A23F629AA23153107240039B424E9
:103BB0002740BC24FB46C824C14EC12449569F421D
:103BC000B31CE94299234933722B9A3337331224B9
:103BD000633A9824BA4086247E489424444F86242D
:103BE000FF55BF32F31D2633A8246A23442BFC2340
:103BF00097328C245C3ABC24D542B8240E4AA324C4
:103C00008850AD24D057C922511C2223FD227E2387
:103C1000182AA5230B3110241D39C6241E40C024A8
:103C20006147CB24864FBA24AA569C428C1CEB4297
:103C3000BA234E33BD2B9F3327332524423A982491
:103C4000C140882493489124584F7D245556C6324C
:103C5000FC1D2A33D6247A23942B11249B328D24E5
:103C60001F3AB2247342B02484499B24E64FA12416
:103C7000E956C822691C22231E237D233D2AAD2339
:103C800053311D242B39B9246140AC242C47B62470
:103C90000C4FAF24FD559932651CEE32DB235423C3
:103CA000092CA42317333924213A9924C9408B24A1
:103CB000A9488F246D4F7424AC56CD22061E2E23A6
:103CC00004258A23E42B27249F328F24E339A82458
:103CD0001242A824FB489424444F95240256C7223C
:103CE000821C23233F237C23632AB6239C312B246D
:103CF0003A39AD24A4409924F746A224934EA52432
:103D0000515596323E1CF132FC235A23552CA923DF
:103D100007334D24003A9924D1408D24BE488D2488
:103D2000824F6B240357D4220F1E322332259A234D
:103D3000342C3D24A3329024A6399E24B041A024E3
:103D400072488C24A24E89241B55C6229A1C242317
:103D500060237B23892ABE23E53138244939A124F5
:103D6000E7408524C2468D24194E9A24A4549432E7
:103D7000181CF4321D246033A12CAE23F8326124C8
:103D8000E0399A24D9409024D4488B24974F622458
:103D90005A57DB22191E36236025AA23852C53246B
:103DA000A83292246A3995244F419924E947852401
:103DB000004E7E243554C522B31C252381237B234A
:103DC000AF2AC7232E324624583995242B4172241A
:103DD0008D467924A04D9024F8539332351CFA3245
:103DE00028246233632CBC23F6327124D9399324FE
:103DF000B6409024AC488B245D4F67242757D122CE
:103E0000BE1D2C23F3249E23162C5324903296247B
:103E10009B399A24A24197242F488E24E74E8A2466
:103E20005155C1229A1C282367237423BE2ACB2311
:103E300041325B246239B52418417C24CA45802470
:103E4000A54BAD24A4539232531C00333324643366
:103E5000252CCB23F4328124D3398D249340902414
:103E600084488C24234F6D24F456C722631D2323DA
:103E700086249323A72B542479329A24CC399F2467
:103E8000F541962476489724CE4F97246D56BE224E
:103E9000811C2B234E236D23CD2ACF235432702433
:103EA0006D39D5240541872408458724AB49CB24A7
:103EB00051539132711C06333E246633E72BD923CC
:103EC000F2329124CD398624704090245C488C24B1
:103ED000E94E7224C156BD22081D1A2319248823D5
:103EE000382B542462329E24FD39A4244842942461
:103EF000BC48A024B550A3248957BB22681C2E239C
:103F000035236623DC2AD323673285247739F524C9
:103F1000F240912446448E24B147E924FE52913266
:103F20008F1C0D3349246833A92BE823F032A224D7
:103F3000C73980244D40902434488D24AF4E7824D6
:103F40008F56B422AD1C1123AD237D23C92A5524DD
:103F50004B32A2242E3AA9249C4293240349AA243A
:103F60009D51B024A658B8224F1C31231C235F2337
:103F7000EB2AD7237B329A2482391525E0409C24F2
:103F800084439624B7450725AB52EA82F41B548339
:103F9000D024B983C32C09747D355964E93DAD64DF
:103FA000FB44C9646D4E0F551D5C15453064A0621D
:103FB0004219DF6270203053AC2894531B30ED530C
:103FC000A0373C44163FDE347E4BF734D052F534F4
:103FD0009859AB42311BF34294223E337A298F33F6
:103FE0004231E82374383A242B416624D246A72470
:103FF000634E6725DF5CED823B1C5983E924BA835D
:10400000F02C097467355A648F3DAB64E544C06495
:10401000C84DF154BB59E644D160AC624B1AF5620D
:1040200090214C539829B05334310F546F38534476
:10403000C93FCF345A4AE0347C51DD34CC58A942D0
:104040005D1BFD424A235433922AA233E831FC23FC
:1040500077393D2426417D242F48C424904F542590
:10406000515CF172831C5E730325BC731C2D0A64C2
:1040700051355B64353DA954D044B744224DD344F7
:104080005B57B744725DB852541B0B53B022684360
:10409000852ACC434E3231343E3969347C40C024C9
:1040A0003549CA242950C6240158A832891B08332F
:1040B00001246A33AB2BB523903211247B3A41247F
:1040C000214194248C49E124BE504125C35BF47204
:1040D000CA1C63731C25BE73492D0A643B355B649F
:1040E000DB3CA754BB44AE447D4CB644FA548844F0
:1040F000135AC4525C1C2153D1238443722BE843CE
:10410000683353340D3A80342F41B1241148B4241C
:10411000D64EAF243657A732B41B1233B7248033A0
:10412000C42CC823373326247E3B45241C41AB24B2
:10413000E94AFE24EB512E25365BF862121D6863B6
:104140003625C163762D0B5425355C44823CA6444C
:10415000A744A644D74B983499525A24B456D14216
:10416000661D3843F124A1335F2C04348234762455
:10417000DC3A9724E341A324ED469F24834D982401
:104180006B56A632E11B1D336E259733DD2DDC23E4
:10419000DE333C24823C49241741C224464C1B2573
:1041A00019531C25A95AFC628F1D69638225BF63C0
:1041B000902D0D5436354A44303CA4444044A74425
:1041C000424B9C3434526E24E656CF426D1D374329
:1041D000CC2498333B2CF533F53369246D3A942481
:1041E000B0419D244D4799241A4E9524A856AA32D1
:1041F0001A1C203317259333262DDB2382332C24DE
:104200007A3B4E24CD40C924434B1C257C521925B2
:10421000065A00530D1E6A53CE25BE43AB2D1044E3
:1042200048353944DE3BA334DA43AA24AD4AA124FD
:10423000CE5184241957CE32751D3633A7249033BE
:10424000182CE72367335C24FF3992247D4197249F
:10425000AD479424B24E9224E556AE32541C23331B
:10426000C0248F23702CDA2326331D24723A532462
:104270008340D124414A1E25E05118256459045336
:104280008A1E6B531926BC43C62D12445A35284446
:104290008C3BA1347443AB24184AA524695199245A
:1042A0004B57CC327C1D353382248833F52BD923F0
:1042B000DA324F2490398F244B4191240D488F24BA
:1042C0004A4F8F242257B2328D1C263369248B2308
:1042D000BA2BD923C9320E246A3958243940D8243C
:1042E0003E491F2543511625C2580953091F6C53D7
:1042F0006526BB53E12D15446D3517343B3BA03487
:104300000E43AE248349AA240451AE247D57CB32F8
:10431000851D35335E248033D22BCB234D3242248E
:1043200022398D2418418C246E488A24E24F8C2433
:104330005F57B622C71C292312248723052BD923B4
:104340006D32FF2363385D24EF3FE0243C48222593
:10435000A85015252058FF52B31E5D53F725B153C1
:10436000A62D06440E351A34033BA834A142AE24D0
:104370003F49AC249350AD243857C932A31D323382
:1043800087247D33BC2BE82309335324B13994248B
:1043900087418F24D7489124255093249757BE22D4
:1043A000C41C2C230F248B230C2BD82373320324FF
:1043B000913883249F40D82405481D252A5106257D
:1043C000C257F6425E1E4E438925A7436D2DF73333
:1043D000B0341E24CB3AB0243342AF24FC48AF247F
:1043E0002150AC24F356C732C21D2F33B1247A3387
:1043F000A52B0724C6336524403A9B24F641932419
:104400004249982468509A24CF57C622C21C3023B0
:104410000D249023142BD72378320724BF38A824E7
:104420004F41D024CE471925AE51F7246557EC42B1
:10443000081E3F431B259D43332DE833523422246D
:10444000933AB824C641B024B848B224B04FAB2444
:10445000AE56C432E11D2D33DB2478338F2B242458
:1044600083347624D03AA22465429624AC499E2413
:10447000AB50A1240758CE22BF1C33230B24942316
:104480001C2BD6237E320B24EE38CE24FE41C724CB
:10449000974714253052E9240757E342B41D3043AF
:1044A000AD249333FA2CD933F43326245B3AC02459
:1044B0005841B1247548B5243F4FAA246A56C332E7
:1044C000001E2B3305257623782B43244035882482
:1044D000603BA924D5429A24174AA624EF50A92468
:1044E0004058D622BD1C372309249823252BD523D9
:1044F000833210241D39F324AE42C02461471025B5
:10450000B452DB24AA56DD427A1D2F43B7249133DF
:10451000F12CD733C53332243C3ABD246141B22457
:10452000D248B1246E4FA524C156C832EC1D2E339B
:1045300017258123C72B372499348B24F43AA324DD
:104540005E429B24A249A2246550A6248D57D42202
:10455000BA1C3723FE2398233D2BD6238D321D24EE
:104560002B39DB244D42AC242C47EA246E51C8245D
:10457000FD55D832401D2F33C2248F23E92CD4237C
:1045800096333F241C3ABB246B41B3243049AE24FC
:104590009D4FA0241957CD22D91D322329258D23C3
:1045A000162C2C24F3338E24893A9E24E8419B2434
:1045B0002D499F24DB4FA324DB56D322B81C38237C
:1045C000F2239823572BD82398322B243A39C4242A
:1045D000EC419924F746C4242A50B5245155D232CF
:1045E000061D2F33CC248E23E02CD22367334C249A
:1045F000FD39B8247541B4248D49AB24CD4F9B249B
:104600007157D222C61D36233B259923652C2024C1
:104610004D3391241E3A992471419C24B9489C241D
:10462000514FA0242956D122B51C3923E7239723C3
:10463000702BD923A33238244939AC248B418524EB
:10464000C2469E24E44EA224A454CD32CD1C2F3366
:10465000D7248C33D82CD02339335924DE39B624CF
:104660007F41B624EB49A824FC4F9724C957D72291
:10467000B31D3A234D25A523B52C1524A832952426
:10468000B3399424FB409D2445489924C74E9D246A
:104690007855D022B31C3A23DB239823892BDB23C4
:1046A000AE324624583995242B4172248D46792404
:1046B000A04D9024F853CC32E21C2E33B3248A331D
:1046C0008B2CD82326336824E639B2243141B42414
:1046D0007C49A824A84F98244257D022851D342312
:1046E00004259D23752C1B24B0329724D1399524A1
:1046F00038419C248B4897242E4F9D242756D02246
:10470000AC1C3D23CC2394238B2BDA23A1325B24D6
:104710006239B52418417C24CA458024A54BAD24B8
:10472000A453CB32F71C2D338F2488333E2CE02347
:1047300013337724EF39AF24E440B3240D49A9247F
:10474000554F9924BB56CA22581D2F23BB249623AC
:10475000342C2124B9329924F039962475419C24B3
:10476000D2489524954F9E24D656D022A51C41238D
:10477000BE2390238C2BD923943270246D39D524F9
:104780000541872408458724AB49CB245153CA32BD
:104790000C1D2C336B248633F02BE8230033872445
:1047A000F839AC249640B1249E48AA24014F9A249B
:1047B0003456C3222B1D2A2372248F23F42B262444
:1047C000C2329B240F3A9624B3419B241949932467
:1047D000FC4F9E248557D1229E1C4423B0238D2359
:1047E0008E2BD823873285247739F524F240912403
:1047F00046448E24B147E924FE52CA32221D2C338E
:1048000047248433A32BF123ED329724013AA924C2
:104810004940B0243048AB24AD4E9C24AD55BD2258
:10482000FE1C252329248823B42B2D24CB329E243F
:104830002E3A9724F1419B246049922463509E2490
:104840003458D122971C4823A22389238F2BD723A6
:104850007B329A2482391525E0409C248443962497
:10486000B7450725AB52E682331A41832623C88316
:104870007F2B23744F3474648B3CE364F2447A647A
:1048800093490655EA5C0A458865D562FB192163A0
:10489000F9216863D32AC053CB31185425396444B5
:1048A0007740C334AC492035F3512135E259F84201
:1048B000351D3A43B0246833432BAA3327330124F0
:1048C000193A4C24C24262248647A7242A4FB025B5
:1048D000C063E782B61A4E838223CE83082C2574E8
:1048E000A4347464D53CE86475459864E24A015583
:1048F000245B03459263D0627E1A24637B22766335
:10490000F42ACE535F32195467396644B440C03438
:104910002C4904350151FC343859EB421C1D3D43F0
:1049200071258533DB2CC33310342224C13B522440
:10493000944288248849C224745091250762E97200
:10494000391B5C73DE23D563912C2864FA347464BC
:104950001F3DED54F945B744314CFD445F59FD34DA
:104960009C61CB52021B2853FE228453162BDC433E
:10497000F4321B34AA396834F140BD34AC48E82421
:104980001050D8248E58DF32031D41333326A33311
:10499000742EDD23FA3444246A3D58246742AF2440
:1049A0008A4BDE24BE5172254F60EA72BC1B6A73CB
:1049B0003A24DC631A2D2A6450357464693DF2543C
:1049C0007D46D644804DF9449A57F634A65FC652C8
:1049D000851B2B5381239253382BEA4389331C3494
:1049E000EC396A342E41BA342C48CC241F4FB424FD
:1049F000E457D232EA1C4533F526C0330D30F72395
:104A0000E4356624123F5E243A42D6248C4DFA24C3
:104A100008535325975EEC623F1C78639724E36349
:104A2000A42D2D54A6357444B43DF8440147F544F3
:104A3000CF4EF534D555F034B05DC142091C2F433B
:104A40000424A1335A2BF8331E341E342F3A6D241C
:104A50006C41B824AD47B1242E4E90243A57C6324B
:104A6000D21C4933B727DE33A6311124CE36882431
:104A7000BB4065240D42FD248F4F16255354342529
:104A8000DF5CF862B91C7C63FA24E063B12D2E541C
:104A9000A53566444E3DEC442B46F044924DEE3431
:104AA000D354EC343D5CC0422B1C2D43DD239333A7
:104AB0003B2BEB3371331E34FE397024B141AB24F0
:104AC0006448A4243E4F8B24E157C332D81C46339C
:104AD0001127CE335A300A2404366A24923E5B24CE
:104AE00071410125564E312575543B256E5C0453AA
:104AF000331D81535E25DE53BF2D2F44A435594409
:104B0000E83CE0345645EC24554CE724D153E924E5
:104B1000CB5ABF324D1C2B33B62386331D2BDE23DD
:104B2000C4321E24CD397424F6419F241B49982495
:104B30004F5086248858C032DF1C44336B26BF2375
:104B40000F2F04243B354D246A3C5124D5400525C4
:104B50001E4D4C2597544325FD5B1053AD1D8553C9
:104B6000C125DB53CD2D3044A3354B44823CD43496
:104B70008044E724184BE024CF52E5245859BE3234
:104B80006F1C29338F237833FF2AD12317321E2439
:104B90009C3977243B429224D2498C245F51812452
:104BA0002F59BD32E51C4233C525B023C42DFD234A
:104BB00071343024423A472439400925E54B6725B2
:104BC000B9544B258C5B1C53281E8A532526D94388
:104BD000DB2D3144A3353E341C3CC834AB43E334B5
:104BE000DB49DA24CE51E224E657BD32921C27334A
:104BF00068236B33E12AC4236B311F246B397B2478
:104C000080428624894A802470527C24D659BB2253
:104C1000EC1C40231F25A123792CF723A833132450
:104C20001A383D249D3F0E25AD4A8325DC5453257B
:104C30001B5B1F534B1E85530C26DA43042E2B445B
:104C400066353D34AA3BD0343E43E1347F49D92414
:104C50002951DD24A157BF32F11C2933E6237033DB
:104C6000142BF5230A333824293A812495428324CE
:104C70006E4A8A24295286248C59C522FB1C432360
:104C80001C25A523672CFA23BD3312245A38762419
:104C90000541FA24DA4977251D553D25FE59224361
:104CA0006E1E8143F325DB332E2E25342A353C241A
:104CB000383BD824D142E0242449D8248450D82435
:104CC0005D57C232501D2B3365247633472B272482
:104CD000AA345124E73A8824AA428124544A9424CD
:104CE000E35190244359CF220B1D46231A25AA23B2
:104CF000552CFE23D23311249B38AF246E42E72477
:104D000007496C255F552725E2582543911E7C43B2
:104D1000DA25DC33582E1F34EE343B24C63AE02427
:104D20006442DE24C848D724DF4FD3241957C43245
:104D3000AF1D2D33E4247C337A2B582449366A2462
:104D4000A53B8F24BF427F243A4A9E249C519A243B
:104D5000F958D9221A1D49231825AE23432C0224C1
:104D6000E7331024DC38E824D643D32434486125C3
:104D7000A0551125C6572843B51E7843C225DD33FB
:104D8000822E1934B2343A24543AE924F741DD240E
:104D90006D48D7243B4FCE24D556C7320E1E303334
:104DA00063258223AD2B8A24E9378424643C96242E
:104DB000D5427D24204AA9245651A524B058E32287
:104DC0002A1D4C231625B323322C0624FC33102431
:104DD0001D3921253F45C02461475625E255FC2455
:104DE000AA561F43681E7443B525D433252E0F34AD
:104DF00064343F24363AE3240242DC241249D224AC
:104E0000844FCD242E57CA32DD1D333359258923D3
:104E1000FB2B5D2498368924CA3B9524494286247D
:104E2000C049AA24E450AB243258E1220C1D4C2383
:104E3000DE24B3233E2C0024C8331D242B39FE244A
:104E40003A44AC242C471E25D153E124FD55173399
:104E50001C1E7133A925CB23C92D052416344524E6
:104E6000183ADE240E42DC24B849CE24CE4FCD249D
:104E70008757CD22AD1D37234F259123492C31244F
:104E800048358E24303B9524BE418F246049AB24A5
:104E90007250B124B557DF22EE1C4D23A624B42353
:104EA0004B2CFA2395332B243A39DB2435439924B0
:104EB000F746E724C151C62451550E33CF1D6E333A
:104EC0009D25C2236C2DFB23C8334B24FA39D824EB
:104ED0001942DC245D4AC9241850CC24E057D02262
:104EE0007D1D3A2345259923972C0424F8339324D8
:104EF000963A9424324198240049AC240050B724B7
:104F00003857DD22D01C4E236E24B423572CF423B3
:104F1000613338244939B82430428524C246B0244C
:104F2000B04FAB24A4540633831D6B339125B933A2
:104F3000102DF2237A335124DD39D3242542DC2489
:104F4000034BC5246250CC243958D3224D1D3E2337
:104F50003B25A123E62CD823A8329824FC3994249D
:104F6000A740A224A148AE248F4FBD24BB56DB220C
:104F7000B31C4F233624B523642CEF232E33462451
:104F8000583995242B4172248D467924A04D9024C4
:104F9000F85305338F1D63333E25B333B32CF4230D
:104FA00056335F24F439D224AD41D9244D4AC62466
:104FB000F44FC9245D57D0224D1D3D2315259D2357
:104FC000D42CE323D1329824083A9024CE40A22452
:104FD000E848A124754FB124FD56DF22BE1C53239F
:104FE0003224B423582CE92301335B246239B524DD
:104FF00018417C24CA458024A54BAD24A453043316
:105000009C1D5B33EB24AD33572CF62332336E24D7
:105010000C3AD2243541D6249749C724874FC62459
:105020008256CD224E1D3C23F0249A23C22CEE231F
:10503000FA329924153A8D24F640A3242F4994245A
:105040005C4FA5243F57E322C91C57232F24B423C8
:105050004C2CE323D43270246D39D52405418724A8
:1050600008458724AB49CB2451530333A81D533340
:105070009824A733FA2BF8230E337D24243AD22424
:10508000BD40D324E148C824194FC324A755CA22E0
:105090004E1D3B23CB249723B02CF9232333992493
:1050A000213A89241E41A32476498724434F992419
:1050B0008157E722D41C5B232C24B423402CDD230E
:1050C000A73285247739F524F240912446448E2472
:1050D000B147E924FE520333B51D4C334524A133B7
:1050E0009E2BFA23EA328C243C3AD2244540D02429
:1050F0002C48C924AC4EC124CC54C7224F1D3A239E
:10510000A62494239F2C05244C339A242E3A8624DB
:105110004641A424BD497A242A4F8D24C357EB224B
:10512000DF1C60232924B423342CD7237B329A2418
:1051300082391525E0409C2484439624B7450725F1
:10514000AB52E482251A42835E23D083D12B307484
:10515000D03484645E3DFB64CB458264404A18557C
:10516000C55E17458767DD62F2192B63DD21725337
:10517000F82ACE53D4312A5444397744C640DA341D
:105180003C4A3B35B55236359C5A0343AA1D46432B
:1051900019257333B82BB633CD331124C53A5D24AA
:1051A000A0436E241448B424D14FD125BA65E682B9
:1051B000B71A5283C523D8836A2C33743435856477
:1051C000A63D01655C46A464AF4B1355D75C0F4503
:1051D0004865D8627B1A2F636D228253152BDD53ED
:1051E0007F322B5495397A441241D734A8491C3563
:1051F0009E510E35D559F542871D4A43F12593330B
:10520000742DD133C5343524963C632464439824EB
:10521000444AD1243351AF25C163E972491B6273FB
:105220002B24E173032D38649A358764EE3D0755CE
:10523000EE46C7441E4D0F45EB5A08450A63D3524C
:10524000051B3453FE229343332BED432B332D3474
:10525000E7397C345E41D4241549FD248750E72486
:105260000F59E932641D4F33CB26B433322FEE236E
:10527000BF355A24683E6A242943C324734CEF2463
:1052800094528D25C861EC72DB1B73739124EB7310
:105290009C2D3B6400368864363E0D558047EA44B9
:1052A0008D4E0B45FE580045CC60CE528E1B3753B9
:1052B0008F23A343512BFD43D7332E34383A7E340A
:1052C000A941D1248148DF24704FBF244858DC32E3
:1052D000411D5333A427D533EF300A24B936802437
:1052E0003A407024EE42ED24A34E0E25F5536A2574
:1052F000D05FEF626D1C8363F924F463362E405453
:1053000066368A44803E154512480C45FD4F0735E8
:105310001157F9248D5EC942181C3C432024B43334
:105320006F2B0C34823431248A3A8124F641CF2405
:10533000EF47C1245A4E98248157CF321F1D58334E
:105340007E28F633AD322724B337A5240C427724C8
:10535000B3421825D4502C2558554825D85DFD62F8
:10536000EE1C88635825F0633A2E40545836794431
:10537000083E074521470645914EFD34E555F42486
:10538000FE5CC8423C1C3A43F923A4335B2BFE333A
:10539000CB3331245B3A85243B42C024C348B2243A
:1053A0008B4F8F242C58CD32241D5533C027E43326
:1053B0003F311F24D9368324A53F6C2407421D2585
:1053C000634F48256F554E255C5D0A536E1D8D5306
:1053D000B925ED433E2E40444B366A44913DF934A5
:1053E00030460025264DF224B854F0246F5BC732B6
:1053F000601C3833D2239633472BF02313333224E7
:105400002B3A8A248042B3249649A524BD50872490
:10541000D758CA322A1D54330227D323D32F172437
:10542000003663243F3D60245A412125F34D642515
:1054300087555525DF5C1853EF1D91531826EA4315
:10544000422E41443D3659441A3DEB343F45F92440
:10545000BB4BE8248B53EB24E059C632841C363313
:10546000AB238633342BE2235B323224FB398D2489
:10547000C542A5246A4A9724EE517F248259C73237
:105480002F1D52334426C323672E0F242635422472
:10549000D93A5524AE402625834C80259E555C255F
:1054A000635C2553701E97537926E753462E41447B
:1054B00030364A34A23CDD344E44F4244F4ADF24D3
:1054C0006052E7245158C532A91C33338423783302
:1054D000202BD423A5313324CC3992240A4397249A
:1054E0003D4B8A24205376242D5AC522351D502346
:1054F0008625B223FB2C07244C34222473384924FC
:1055000001402B25134B9D25B7556325E75B285399
:10551000831E91534D26E753682E3A44D6354834BE
:10552000193CE434C243EE24E149DD249E51E224D7
:10553000FA57C632041D343303247C33492B082424
:105540005C334D24853A96240A439124074B9124D9
:10555000C7528124E459CF22451D53238325B52307
:10556000DC2C0A2456342024AD3887247A411425B3
:105570002C4A9025F4554B259D5A2A43951E8B4362
:105580002226E8438B2E33347C3546248F3BEC2493
:105590003543EA247349DC24DB50DC24A457C932A8
:1055A0005F1D353384248133712B3D2414356624EB
:1055B0003E3B9C240A438B24D14A982470528C246D
:1055C0009D59D822561D55238025BA23BE2C0E2462
:1055D00060341D24E938C424F442FD24454984255F
:1055E0003256332554592D43A81E8543F625E843EA
:1055F000AD2E2C3422354424063BF424A842E52465
:105600000449DA241950D6244E57CA32B91D35330D
:10561000042586339A2B7124CB367F24F83BA124B2
:105620000A4385249B4A9F24185297245559E22205
:10563000661D58237D25BD239F2C11246A341B240D
:10564000243902256D44E5245E4877256F561B25D5
:105650000C582F43BB1E8043CB25E933D02E253475
:10566000C83442247C3AFD241B42E0249748DA24C3
:10567000574FD024F956CC32141E373385258C234E
:10568000C22BA62483389924B23CA7240A437F2442
:10569000664AA824C151A3240D59EC22771D5A2330
:1056A0007A25C123812C152474341A2460393F25AE
:1056B000E645CF2477476B25AD560425C3562543D1
:1056C000691E7C43BE25DE33672E1A3477344324AB
:1056D0005B3AF2242642DF244349D424A44FCF244A
:1056E0005D57CF32E51D3A337B2593231E2C74245E
:1056F00014379C240D3CA1246D428724FF49A92422
:105700003651AA247B58EA22541D5A233D25C22330
:10571000912C0F243734282469391825C444B62421
:1057200045472C257854E6241A561C33171E783327
:10573000B225D423FF2D0E24253445243A3AE924FA
:105740003142DF24EF49D024F24FCF24C157D22277
:10575000B81D3D2370259B237A2C4324A5359F2417
:10576000693B9C24D0418F249749AA24AA50B02495
:10577000EA57E822311D5B23FF24C323A12C09240F
:10578000FB3337247439F124A2439F241447EF24B8
:105790004452C82472551233C51D7433A625C9233B
:1057A000962D0324D4334824193ADF243B42DF24C6
:1057B0009B4ACA244050CE242558D5228B1D402315
:1057C0006625A323D62C10243734A224C43A962469
:1057D000334197243049AB241F50B7245857E62251
:1057E0000E1D5C23C124C323B12C0324BE334624E5
:1057F0007E39CA2480428624E346B1240F50AB246C
:10580000C9540933741D70339925BF332E2DF923E4
:1058100082334A24F839D5244742DF24484BC62432
:105820008E50CE248958D8225D1D44235C25AA239E
:10583000342DDF23C832A424203A91249640A0249A
:10584000CA48AD24954FBE24C756E422EC1C5C2305
:105850008424C423C22CFE23823355248939A324F3
:105860005E416F24B2467424DB4D8D2421540833ED
:10587000831D68334125B933CA2CFB2363335A2473
:10588000143AD424CA41DC248C4AC7241950CA24AF
:105890009857D422611D43233625A6231C2DEB23C4
:1058A000F432A324253A8C24C240A0240D499F241D
:1058B000754FB0240D57E922F61C60237A24C223C9
:1058C000B22CF6234D336A248F39C2246C417924DB
:1058D000FF457B24CB4BAD24E6530733941D5F3348
:1058E000E924B333682CFE2344336C24323AD424A5
:1058F0004D41D924CF49C824A64FC724A856D12248
:10590000651D42231125A323052DF7231F33A22450
:105910002C3A8924F040A12450499124554FA324C6
:105920005357ED22011D64237124C223A22CEE23C0
:1059300018337F249739E1247A4184244D45832408
:10594000BC49CE24AC530633A41D56339124AD3349
:10595000052C002424337D244F3AD424D040D52470
:105960001349C924324FC424B755CE22691D42239E
:10597000EC249F23ED2C03244B33A024313A8424C0
:105980001D41A12493498224364F96249A57F1222F
:105990000B1D68236924C123922CE723E33294244E
:1059A0009D39002587418F249B448B24AD47EF24EC
:1059B00073530733B41D4F333924A733A22B02246A
:1059C00005338E246C3AD4245340D2245848CA2438
:1059D000BF4EC224C754CB226D1D4123C6249C2335
:1059E000D72C10247733A024383A81244A41A224AA
:1059F000D6497424174F8924E057F522151D6C23CE
:105A00006024C023822CDF23B032AA24A4391F25AE
:105A100096419A24E84393249F4510253953F882F0
:105A2000BE1A3283F020738344289E73452FD363BC
:105A30004734F263783C2464CC425254564A88443A
:105A400091517F62501AB8620A23FC62592933537C
:105A50006F316453EF379F435C3DD5330A440B34B9
:105A6000564A4834985287429B18BA429320F632DD
:105A7000AB263133AA2C61235F339F23113AE423F1
:105A8000F14122249F485E24F34FEC82A91A268319
:105A9000E42063832C289173FC2EC463A434EA634E
:105AA0006D3C1C64D9424C541E4A8B446E527A623F
:105AB000971AB3620123F562A22930531E31625353
:105AC0009A379E43053DD4334C440C34DD4A45346B
:105AD0000D537E42E618B6426920F332D8263133A0
