:020000040000FA
:100000000C94AC040C94F0470C94C5470C949A479C
:100010000C946F470C9444470C9419470C94EE468B
:100020000C94C3460C9446480C9446480C9446489D
:100030000C94DD040C94DD040C94DD040C94DD04BC
:100040000C94DD040C94DD040C94DD040C94DD04AC
:100050000C94DD040C94DD040C94DD040C947946BE
:100060000C94DD040C94F5430C94CB430C94DD0408
:100070000C94DD040C94DD040C94DD040C94DD047C
:100080000C94DD040C94DD040C94DD040C94B04954
:100090000C94DD040C94DD040C94DD040C94314AC2
:1000A0000C94DD040C94DD040C94DD040C94DD044C
:1000B0000C94DD040C941B480C94DD040C94DD04BA
:1000C0000C94DD040C94DD040C94DD040C94DD042C
:1000D0000C94DD040C94DD040C94DD040C94DD041C
:1000E0000C94DD040C947C240C9492450C9467458C
:1000F0000C94FF0C0C949F440C94EB410C9487449B
:100100000C94B1250C94C7450C945B440C94AE122E
:100110000C94E63E0C941E1B0C9436070C9460263F
:100120000C943B070C94D41A0C94900A0C948A45B6
:100130000C941E0D0C94BB090C94003F0C945F456D
:100140000C94EF070C94614C0C942C070C94814494
:100150000C944A260C94DF3D0C945C3F0C94CF4CDD
:100160000C94EE3D0C9460240C947A440C94B845A5
:100170000C9406250C9454260C941A400C94023EC0
:100180000C9422070C9499440C9472440C94852589
:100190000C9474250C94F9450C9460440C947C0ADE
:1001A0000C94E73E0C943D1B0C94DB450C94F51A23
:1001B0000C94B1440C946C450C9467240C94672601
:1001C0000C94A3440C94E01A0C9443400C94A44562
:1001D0000C9476450C9418400C94BE250C94102574
:1001E0000C9427070C946E240C94EF450C947D25F9
:1001F0000C94B23D0C94F4410C94D1450C949D0A9E
:100200000C9418070C9470400C9436240C948A2497
:100210000C94EE1A0C94E71A0C94F1410C942634C9
:100220000C94A7440C946E260C94E9240C9483241B
:100230000C94E9070C94C6250C9419400C94953F36
:100240000C943C400C94E8410C94483E0C9480453E
:100250000C94953E0C949A450C94AE450C949E0AD1
:100260000C9431070C94F7410C94FA1A0C941D0766
:100270000C94EE410C94DA1A0C9475240C9491446D
:100280000C949C250C9416260C94E5450C94FF3E8A
:100290000C944A250C94BD240C945A260C94103EC0
:1002A0000C9495440C947E440C9440250C94764414
:1002B0000C9429400C94AD440C94CB410C94A4258F
:1002C0000C94DF240C9428250C9412070C94743F92
:1002D0000C948B440C94D3250C94170A6364696EB8
:1002E0006F70737578585B00436F6E6669726D202E
:1002F00028594553206F72204E4F293F00456C739B
:10030000652077696C6C2062652069676E6F726525
:100310006400436F6E6669726D2077697468696EF8
:10032000203673656373003C3C205245534554208E
:100330004445544543544544203E3E007C20212101
:1003400021205374617274696E672052455345547D
:1003500020636F6E6669726D6174696F6E20546997
:100360006D657200436F6E6669726D202859455342
:10037000206F72204E4F293F00456C7365207769CE
:100380006C6C2062652069676E6F72656400436FF4
:100390006E6669726D2077697468696E2036736560
:1003A0006373003C3C20464143544F525920524510
:1003B000534554203E3E007C20212121205374616E
:1003C0007274696E6720464143544F52592052451A
:1003D00053455420636F6E6669726D6174696F6E08
:1003E0002054696D657200526573746172742028BF
:1003F000594553206F72204E4F293F0000524553FC
:10040000544F52454400466163746F7279205365BE
:100410007474696E6773007C20212121204E6F77F0
:1004200020464143544F5259205245534554696E1A
:100430006700001F1F0E0E0400000000040E0E1FB8
:100440001F000103070F0F070301080C0E0F0F0E0B
:100450000C081F0E151B150E1F1F1F1F1E1D0B172F
:100460001F1F1700170017001700041F1B151B1F65
:1004700004007C202323232042757A7A657220565B
:100480006F6C756D65203D200025642E25642E253A
:1004900064000041505020436F6E6E656374656464
:1004A00000496E2050726F677265737300466972FF
:1004B0006D7761726520557064617465007C202AD7
:1004C0002A2A204D756C7469706C6520627574748D
:1004D0006F6E732070726573736564002121212132
:1004E000212121204D75746520466F7265766572F5
:1004F000203D20007C2021212120524553455420BD
:10050000436F6E6669726D65640053746F707069D5
:100510006E6720524553455420636F6E6669726D55
:100520006174696F6E2054696D6572202D20546965
:100530006D656F7574007C20212121204641435454
:100540004F525920524553455420436F6E6669728D
:100550006D65640053746F7070696E672046414327
:10056000544F525920524553455420636F6E66696B
:10057000726D6174696F6E2054696D6572202D20F3
:1005800054696D656F7574007C202A2A2A20534FA8
:100590004D4520427574746F6E206465636C696E9E
:1005A000696E6720464143544F5259205245534586
:1005B00054007C202A2A2A205945532042757474FD
:1005C0006F6E20636F6E6669726D696E672046415B
:1005D00043544F5259205245534554007C202A2AF7
:1005E0002A20534F4D4520427574746F6E20646508
:1005F000636C696E696E67205245534554007C20D8
:100600002A2A2A2059455320427574746F6E20633C
:100610006F6E6669726D696E67205245534554006E
:100620005B25642C25642C25642C25642C256C7595
:100630002C25645D005B256C752C256C755D007C3C
:10064000204040402057692D4669205245434F4E77
:100650004E4543544544007C204040402057692D7E
:1006600046692044524F50504544007C202A2A2A93
:10067000205265636569766564205345524B455940
:100680005F574946495F5245434F4E4E4543544597
:1006900044203D007C202A2A2A2052656365697621
:1006A0006564205345524B45595F574946495F445D
:1006B000524F50504544203D002A2A2A2A2A2A2AED
:1006C0002A2A2A2A2A2A2A2A2A2A2A2A2A20535540
:1006D000415254206F766572666C6F7720666F7238
:1006E000206D7367547970653D002E2E202564209F
:1006F0002E2E00004578636C7564696E672055493D
:100700004400496E666F726D6174696F6E00436C70
:10071000656172696E6720454550524F4D007C20DF
:100720002323232041726475696E6F2052657365BF
:10073000742D696E67204E6F64654D637500524578
:100740005345542028594553206F72204E4F29207D
:100750003F00004379636C657320746F205A4552E3
:100760004F203F005265736574204D616368696E68
:10077000650052455345542028594553206F722037
:100780004E4F29203F00004379636C657320746FDE
:10079000205A45524F203F005265736574204256DF
:1007A0004D007C203E3E3E20466C6F7720436F6EAE
:1007B00074726F6C2050532074696D6564206F757E
:1007C00074007C20212121205053204D617820503D
:1007D000726573737572652056696F6C6174696FA9
:1007E0006E007C20212121205643204D617820502D
:1007F000726573737572652056696F6C6174696F89
:100800006E0000002100240027002A002D00300087
:10081000330001010000040107010A0100000A0B76
:1008200002090C0D0E08070304010000000000007F
:1008300000000000000000000000000000000000B8
:100840000000000000000000121110000000000075
:100850000000000000000000000000000000000098
:1008600000002A2A2A204552524F52202A2A2A20A2
:100870006C63644D6573736167653A204C696E659E
:100880004E756D206F7574206F6620626F756E6493
:1008900073203D0000002200250028002B002E00C0
:1008A0003100340002010000050108010B010102C2
:1008B0001020200808102040102040800201020172
:1008C000080402010102040810204080804020102A
:1008D0000804020180040201804020100804020183
:1008E00008040201010204081020408001020408EB
:1008F00010204080000020002300260029002C004A
:100900002F00320000010000030106010901050566
:100910000505070508080808020202020A0A080875
:1009200004040404010101010101010103030303A3
:1009300003030303040707070C0C0C0C0C0C0C0C32
:100940000202020206060606060606060B0B0B0B43
:100950000B0B0B0BCF4C614C11241FBECFEFD1E220
:10096000DEBFCDBF00E00CBF13E0A0E0B2E0E2E5E7
:10097000FDEB00E00BBF02C007900D92A031B10764
:10098000D9F722E1A0E1B3E001C01D92A23FB20776
:10099000E1F714E0CBEAD4E000E006C021970109BA
:1009A000802FFE010E941458CA3AD10780E0080740
:1009B000A9F70E944A530C94975E0C940000E62F0E
:1009C000F0E093E0F595E7959A95E1F7677021E0FF
:1009D00030E001C0220F6A95EAF7EE54F34F882306
:1009E00021F08081282B2083089580812095282361
:1009F000FACFCF93DF93EC019B016115710509F4E8
:100A00004EC06A30710501F530E020E060E070E032
:100A1000CB01F901EE0FFF1FEC0FFD1F0190F081DC
:100A2000E02D6E0F7F1F811D911D2F5F3F4F2A30DC
:100A3000310579F72AE030E040E050E00E94A45709
:100A4000C901DF91CF9108954E895F89452B09F146
:100A50004E895F894150510960E070E0CB01B0E000
:100A6000A0E0FA01EE0FFF1FEC0FFD1F0190F081D7
:100A7000E02D6E0F7F1F811D911D4115510561F005
:100A80004150510911962A173B0759F750E040E0B1
:100A9000D5CF49E050E0E0CF49E050E0F3CF30E07F
:100AA00020E0CECFCF93CFB7F894FC01628D738D49
:100AB00006960E94F904CFBFCF9108952FB7F894FE
:100AC0008091D10B9091D20B31E03093D30B2FBF9B
:100AD0000895AF92BF92CF92DF92EF92FF920F9361
:100AE0001F93CF93DF93EC016A01FB014130510565
:100AF00009F06DC06A30710510F0E9E0F0E0CF0157
:100B00006AE070E00E945A57DC01AA0FBB1FA05E8A
:100B1000BD4F8D919C91222309F46AC080959095D8
:100B200099277E0144E0F694E7944A95E1F7BE01E7
:100B30006F7077274FEF50E06115710511F440E0B9
:100B40005FEFEE0CFF1CD701A35CBC4F7D01AD90A5
:100B5000BC9011974A215B2102C0880F991F6A95AA
:100B6000E2F7842B952B8D939C93B1E0CB16D104A7
:100B700019F1102F289681E0C81AD108CF016AE038
:100B800070E00E945A5700E0A601CE010E9469055C
:100B9000112391F0CF70DD2781E090E002C0880F33
:100BA000991FCA95E2F780959095F70120813181D0
:100BB0008223932391838083DF91CF911F910F91A3
:100BC000FF90EF90DF90CF90BF90AF9008954230AC
:100BD000510539F46436710508F491CFE3E6F0E08D
:100BE0008ECF683E734008F48ACFE7EEF3E087CFFC
:100BF0008DEF90E096CF0F93262F6AE070E00E9471
:100C00005A5700E042E050E080E990E00E94690518
:100C10000F9108950F938093AE0C2091A10C309109
:100C2000A20C232BB1F04091A10C5091A20C21E019
:100C30004130510509F020E091E02927682F70E04C
:100C400000E042E050E080E690E00E9469050F91EC
:100C5000089521E0F1CF0F939093AD0C8093AC0CED
:100C60002091A10C3091A20C232BC1F04091A10C3A
:100C70005091A20C21E04130510509F020E031E013
:100C800023276AE070E00E945A5700E042E050E0FB
:100C900080E590E00E9469050F91089521E0EFCF73
:100CA0000F939093AB0C8093AA0C6AE070E00E94C3
:100CB0005A5700E021E042E050E080E490E00E94DA
:100CC00069050F9108950F939093A90C8093A80C38
:100CD0006AE070E00E945A5700E021E042E050E0F4
:100CE00080E390E00E9469050F9108950F9380932F
:100CF000A70C4091A10C5091A20C21E0433051056A
:100D000009F420E000E041E050E0BC0188E190E01F
:100D10000E9469050F9108950F938093A60C40914E
:100D2000A10C5091A20C21E04330510509F420E0C0
:100D300000E042E050E0BC0180E290E00E946905E2
:100D40000F9108950F932091A10C3091A20C2330A4
:100D50003105A9F46093A30C01E021E043E050E0E9
:100D60006115710531F400E020E043E050E070E0EF
:100D700060E090E080E00E9469050F9108959093F3
:100D8000A50C8093A40C00E021E043E050E0BC01FE
:100D9000F0CFCF93DF93AFEFB0E0FC01C4E0F69566
:100DA000E795CA95E1F7AC014F7055272FEF30E07A
:100DB0004115510511F420E03FEFEE0FFF1FE35CFA
:100DC000FC4FC081D1812C233D23ED0102C0CC0F0B
:100DD000DD1F4A95E2F7AE012C2B352B31832083A2
:100DE0006130710521F0615071090896D6CFDF910D
:100DF000CF910895FC01329763E070E090E080E0CD
:100E0000E930F10598F48827E75FF84F8F4F0C948D
:100E10001458180712071D07220727072C07310748
:100E200036073B0762E070E080E290E00C94C90670
:100E300061E070E088E190E0F9CF62E070E080E38B
:100E400090E0F4CF62E070E080E490E0EFCF62E009
:100E500070E080E590E0EACF62E070E080E690E04C
:100E6000E5CF62E070E080E790E0E0CF62E070E024
:100E700080E890E0DBCF62E070E080E990E0D6CFE0
:100E8000EDE3F3E08FEF9FEF8193919323E0E13562
:100E9000F207D1F70895DC01ED91FD918081ED918C
:100EA000FD919081ED91FD916C9163708E2309F01D
:100EB00064609F2309F06860E8E6F7E0E60FF11D43
:100EC000659565956D936D917D918D919D91099439
:100ED00023C01AC012C016C010C01EC009C014C062
:100EE00013C006C019C009C00DC007C00DC014C092
:100EF00062507040804090400BC061507040804014
:100F0000904006C06E5F01C06F5F7F4F8F4F9F4F55
:100F10009E938E937E936E9308950F931F9380916B
:100F2000050C823008F053C0F8948AEF9BE00E94D1
:100F30004B076091010C7091020C8091030C909111
:100F4000040C789400912003109121032091220336
:100F500030912303601B710B820B930B20912403B0
:100F60003091250340912603509127030E94A457F6
:100F700080912C0390912D03A0912E03B0912F030B
:100F8000281739074A075B0744F420912C03309156
:100F90002D0340912E0350912F03809128039091AF
:100FA0002903A0912A03B0912B0382179307A4076A
:100FB000B50744F4209128033091290340912A0376
:100FC00050912B03CA01B9011F910F910895F89414
:100FD000B0CF8091F80B9091F90B0C944B07809156
:100FE000F60B9091F70B0C944B078091F40B9091BA
:100FF000F50B0C944B078091F20B9091F30B0C9432
:101000004B078091F00B9091F10B0C944B07809162
:10101000EE0B9091EF0B0C944B0710928B031092F8
:101020008C0310928D0310928E03E2EBFCE086811C
:101030008F7D868386818F7B868386818F7786836B
:1010400087818E7F878308958091090C90910A0C87
:10105000A0910B0CB0910C0C803F9F4FAF4FBF4F36
:10106000D9F480910D0C90910E0CA0910F0CB091C1
:10107000100C803F9F4FAF4FBF4F71F481E0409104
:10108000110C5091120C6091130C7091140C403F94
:101090005F4F6F4F7F4F09F080E008958091090CFA
:1010A00090910A0CA0910B0CB0910C0C8C3F9C4FB2
:1010B000AC4FBC4FD9F480910D0C90910E0CA091C7
:1010C0000F0CB091100C8C3F9C4FAC4FBC4F71F487
:1010D00081E04091110C5091120C6091130C7091B1
:1010E000140C4C3F5C4F6C4F7C4F09F080E008952E
:1010F0008091090C90910A0CA0910B0CB0910C0CF2
:10110000803C9F4FA04CBF4FD9F480910D0C909123
:101110000E0CA0910F0CB091100C803C9F4FA04C76
:10112000BF4F71F481E04091110C5091120C60910D
:10113000130C7091140C403C5F4F604C7F4F09F0D2
:1011400080E008958091090C90910A0CA0910B0CFD
:10115000B0910C0C0F97AC40B048D1F480910D0CBD
:1011600090910E0CA0910F0CB091100C0F97AC4009
:10117000B10571F481E04091110C5091120C609115
:10118000130C7091140C4F3F51056C40710509F020
:1011900080E008958091090C90910A0CA0910B0CAD
:1011A000B0910C0C0F97A105B04FD1F480910D0CAC
:1011B00090910E0CA0910F0CB091100C0F97A105FF
:1011C000B10571F481E04091110C5091120C6091C5
:1011D000130C7091140C4F3051056105710509F025
:1011E00080E008950E94A208811113C00E94CA08DD
:1011F000811112C00E947808811111C00E944E080E
:10120000811110C00E94240881110FC090E080E07D
:10121000089581E090E0089582E090E0089583E0F1
:1012200090E0089584E090E0089585E090E00895CE
:10123000E2EBFCE081818B7F818381818D7F8183E3
:1012400080818F77808380818F7B808380818B7F7B
:1012500080838081877F808380818F7E808380816F
:101260008F7D808380818E7F808380818D7F80834E
:1012700081818F77818308952091060C3091070C2E
:10128000A90102C0569547958A95E2F7CA01817077
:101290000895E82FF0E093E0F595E7959A95E1F74A
:1012A000EE54F34F208130E08770A90102C05595BC
:1012B00047958A95E2F7CA018170089588E10C94F8
:1012C000490984E10C944909CF93DF93FC019B0108
:1012D00090E080E06115710501F16430710501F560
:1012E0002081318182819381B0E0A0E0820F931F41
:1012F000A11DB11D24813581820F931FA11DB11D38
:1013000026813781820F931FA11DB11D22E0B59563
:10131000A795979587952A95D1F7DF91CF91089555
:1013200082859385C3E0D0E0892B19F0C285D385EF
:10133000219760E070E0CB0150E040E0DE01AA0FB1
:10134000BB1FAE0FBF1F0D90BC91A02D6A0F7B1F5E
:10135000811D911D209761F021974F5F5F4F2417EA
:10136000350761F750E040E00E94A457C901D5CF8E
:10137000C3E0D0E0F2CFCF93DF939C01FC01E459AE
:10138000FE4F8081811151C0D901A659BE4F4D91A8
:101390005C911197443B510509F444C08D919C9197
:1013A0001197E901C359DE4F488159814F3F5F4F83
:1013B00019F4998388830CC0E881F9813196EE0F86
:1013C000FF1FE20FF31F408151814617570788F333
:1013D000E901C159DE4F48815981443B510519F457
:1013E000998388830CC0E881F9813196EE0FFF1F45
:1013F000E20FF31F408151816417750788F38D91C7
:101400009C9111970196880F991F280F391FF90198
:10141000718360838D919C911197019611969C9395
:101420008E9381E0DF91CF91089580E0FBCFCF9341
:10143000DF939C01FC01E059FD4F8081811151C077
:10144000D901A259BD4F4D915C911197463351403E
:1014500009F444C08D919C911197E901CF58DD4F5B
:10146000488159814F3F5F4F19F4998388830CC09D
:10147000E881F9813196EE0FFF1FE20FF31F4081E3
:1014800051814617570788F3E901CD58DD4F488150
:1014900059814633514019F4998388830CC0E881FF
:1014A000F9813196EE0FFF1FE20FF31F408151814A
:1014B0006417750788F38D919C9111970196880F99
:1014C000991F280F391FF901718360838D919C91B9
:1014D0001197019611969C938E9381E0DF91CF91A5
:1014E000089580E0FBCF8091D00B882321F080917C
:1014F000D30B91E08927089521E001C0220F6A955E
:10150000EAF7DC011C962C931C971A965C934E9379
:101510001997ED91FC910484F585E02D60E0199414
:10152000DC01ED91FC910684F785E02D41E01995F1
:1015300081E090E0089508950895089590E080E096
:101540000895CF92DF92EF92FF920F931F938B013A
:101550009C0140E050E060E070E4A2E07695679581
:1015600057954795AA95D1F704171507260737070A
:10157000A0F380E090E0DC014115510561057105A3
:10158000F9F06C017D01C40ED51EE61EF71EB6955E
:10159000A795979587950C151D052E053F0540F0DD
:1015A0000C191D092E093F09840F951FA61FB71F8F
:1015B000E2E07695679557954795EA95D1F7DCCFA8
:1015C0001F910F91FF90EF90DF90CF900895309191
:1015D0007A0090917A00987F946090937A00863395
:1015E00008F0865320917B00982F9870277F922BCC
:1015F00090937B008770806480937C0080917A0058
:10160000806480937A0080917A0086FDFCCF80917F
:1016100078009091790030937A0008951F93CF93CA
:10162000DF93FC012181211106C090E080E0DF9171
:10163000CF911F910895EC011081812F0E94E70A3C
:10164000812F0E94E70A2AE0289FB001299F700D90
:1016500011248C819D816817790738F3681B790BF9
:1016600090E080E00E94365620E030E0A9010E9420
:1016700073560E94E557CB01693D7742C0F288ED71
:1016800097E2D5CF0E94554660938B0370938C03ED
:1016900080938D0390938E030895CF92DF92EF9203
:1016A000FF92C0903603D0903703E0903803F0905B
:1016B000390320910702222389F06C157D058E05E0
:1016C0009F0539F060E0842F0E942B4481E08093D5
:1016D0003503FF90EF90DF90CF9008956C157D0556
:1016E0008E059F05B1F361E0EECF0F931F9300913C
:1016F0003103109132032091330330913403DC0124
:10170000CB01801B910BA20BB30B2091060222236D
:1017100041F060E04497A105B10540F41F910F919D
:1017200008950697A105B105C8F361E0842F0E94D2
:101730002B4481E080933003F1CF9C0190936203AE
:10174000809361038091CF0B61E0232B09F060E06F
:101750000E942B440E94614660E08091CE0B0E9463
:101760002B440C946146CF93DF93EC010E94B74465
:1017700061E086E0209741F087E0C130D10521F09B
:1017800089E0239709F088E0DF91CF910C942B44F6
:10179000CF92DF92EF92FF920F931F93CF93DF933D
:1017A000FC012381222309F4F3C0262F6181609577
:1017B00062236083828191E09093C4038093140339
:1017C0001092E8031092E7038DE597E00E947040C5
:1017D000D091E70321E0D13208F09CC0C0911403FE
:1017E0000E94FE456B017C018091F30381116CC066
:1017F00082E08093F30381E08093F5038FEF809381
:10180000F20310921704D0931604E4EAF3E0A6EF73
:10181000B3E080E0D81394C01092180480911804AB
:10182000CC0FC82BC09318048091F403813009F0C9
:101830008BC01092F4030E94FE456B017C018091E5
:1018400018048093BB008091EA039091EB03A09170
:10185000EC03B091ED03892B8A2B8B2BA1F00E9416
:10186000FE450091EA031091EB032091EC033091C7
:10187000ED036C197D098E099F09061717072807C4
:10188000390708F442C08091BC0083FDD8CF85ECB5
:101890008093BC000E94FE456B017C018091F303A4
:1018A000823009F453C08091F20320E08F3F91F120
:1018B0008091F20322E0803269F18091F20324E00A
:1018C000803341F523E026C08091EA039091EB0339
:1018D000A091EC03B091ED03892B8A2B8B2B09F49B
:1018E00083CF0E94FE450091EA031091EB03209103
:1018F000EC033091ED036C197D098E099F090617E1
:1019000017072807390708F06FCF8091E9030E9475
:10191000D84925E01092E8031092E7031092C4031F
:1019200030E081E090E0232B11F090E080E0DF9147
:10193000CF911F910F91FF90EF90DF90CF9008957E
:1019400091919D938F5F66CF85EEA2CF8091EA0340
:101950009091EB03A091EC03B091ED03892B8A2BBE
:101960008B2B09F49BCF0E94FE450091EA03109156
:10197000EB032091EC033091ED036C197D098E0986
:101980009F09061717072807390708F087CFBDCF2B
:1019900030E020E0C6CFEF92FF920F931F93CF93DA
:1019A0008C01FC0184E0C0E0262F30E060FF02C023
:1019B0009589C92BB901759567958150319681112B
:1019C000F3CF413011F4F8014489F8016585C62B45
:1019D000C42B7801FEE0EF0EF11CF80162896C2B3C
:1019E000C7010E94C80BF801628960956C23C7018A
:1019F000CF911F910F91FF90EF900C94C80B0F9314
:101A00001F93CF93DF93062F0F70423041F440E0D5
:101A1000602FDF91CF911F910F910C94CB0C142F5D
:101A2000EC0170E084E0759567958A95E1F7CE0149
:101A30000E94CB0C412F602FCE01EBCFFC0184859F
:101A40008823A1F0218532852115310521F461110A
:101A500007C0158606C021303105D9F76111F9CFCD
:101A600085876585CF010E960C94C80B0895CF929B
:101A7000DF92EF92FF920F931F93CF93DF93EB01CF
:101A80007B0124E0E20EF11C8B016C01C61AD70A1F
:101A9000C601800F911F0E943457F80181938F0176
:101AA000EE15FF05A9F7CE01DF91CF911F910F91A0
:101AB000FF90EF90DF90CF900895EF92FF920F93F9
:101AC0001F93CF93DF93F82EE92EEB01FB01682FD4
:101AD0008191882311F0680FFBCFF89461958DE612
:101AE00097E00E94003F6F2D8DE697E00E94003F37
:101AF00010E000E0209731F0BE018DE697E00E94F3
:101B00003C428C0160E08DE697E00E94003F7894B3
:101B10008BE39FE10197F1F780918B0780FF13C062
:101B20008E7F80938B078091830D811104C089EB98
:101B300096E00E94C6408091830D811104C08F2DD4
:101B40009E2D0E94DC42FE0101900020E9F73197B2
:101B5000EC1BFD0B81E0E017F10709F080E0DF915D
:101B6000CF911F910F91FF90EF900895CF93C82FC1
:101B70006AEA72E0882351F08BE290E00E945D0DEA
:101B800063E481E08C27CF910C94DF048AE290E03B
:101B90000E945D0D8BE39FE10197F1F7F1CF8091FA
:101BA000050C8230B8F4F8948AEF9BE00E944B0752
:101BB0008091010C9091020CA091030CB091040C47
:101BC00078948093200390932103A0932203B093F1
:101BD00023030895F894ECCFE2EBFCE08385886062
:101BE000838783858F7E838783858F7D83878385A6
:101BF0008F7B838783858F77838780E89FEFAFEF25
:101C0000BFEF80932C0390932D03A0932E03B093EA
:101C10002F0380E890E0A0E0B0E080932803909349
:101C20002903A0932A03B0932B0384E090E0A0E063
:101C3000B0E08093240390932503A0932603B093F0
:101C400027030C94CF0D8F929F92AF92BF92CF92A9
:101C5000DF92EF92FF920E948D074B015C010E9480
:101C6000CF0D81149104A104B10409F44EC0C090B9
:101C70000302D12CF12CE12C60E071E080E090E0D7
:101C80006C197D098E099F092CE030E040E050E09E
:101C90000E94A4572F5F3F4F4F4F5F4FC501B401C4
:101CA0000E944A57C61AD70AE80AF90A8EE1C816EE
:101CB000D104E104F1042CF49EE1C92ED12CE12CD5
:101CC000F12C8FEFC816D104E104F10429F024F0BF
:101CD000C12CD12C7601CA948091830D811104C04E
:101CE00082E794E00E94C6408091830D81110BC071
:101CF0004AE0C701B6010E94754268EA72E083E2D9
:101D000094E00E943C42C0920302FF90EF90DF906B
:101D1000CF90BF90AF909F908F900895E2EBFCE042
:101D20008781877F878387818F7D878387818F7E68
:101D300087830E94EC0D10921703109216031092E5
:101D40009D0310929E0310929F031092A0038AE0BD
:101D500090E0A0E0B0E080938F0390939003A09375
:101D60009103B0939203089568E10C94DF0467E156
:101D70000C94DF0485E10C94490965E10C94DF04BF
:101D800081E10C94490970E0FB01F595E795F59523
:101D9000E795660F771F6670EB5EF34F408123E097
:101DA00030E0062E01C0220F0A94EAF72095242382
:101DB00001C0880F6A95EAF7282B20830895CF93F6
:101DC000DF93EC018091170C90E024E095958795C6
:101DD0002A95E1F783708C171D0631F0209721F4C6
:101DE0008091AE0C0E940A066AE0CE01DF91CF918D
:101DF0000C94C30ECF93DF93EC018091170C90E00D
:101E0000959587959595879583708C171D0641F05C
:101E1000209731F48091AC0C9091AD0C0E942B0670
:101E200069E0CE01DF91CF910C94C30ECF93DF9385
:101E3000EC018091170C83708C171D0641F02097E0
:101E400031F48091AA0C9091AB0C0E94500668E08E
:101E5000CE01DF91CF910C94C30ECF93DF93EC01B1
:101E60008091160C90E026E0959587952A95E1F7EC
:101E7000C817D90741F0209731F48091A80C9091B0
:101E8000A90C0E94630667E0CE01DF91CF910C940C
:101E9000C30ECF93DF93EC018091160C90E024E009
:101EA000959587952A95E1F783708C171D0639F073
:101EB000209729F48091A70C90E00E94760666E0B6
:101EC000CE01DF91CF910C94C30ECF93DF93EC0141
:101ED0008091160C90E095958795959587958370E0
:101EE0008C171D0639F0209729F48091A60C90E0FC
:101EF0000E948C0665E0CE01DF91CF910C94C30E59
:101F0000CF93DF93EC018091160C83708C171D0624
:101F100059F0209749F46091A30C8091A40C909102
:101F2000A50C70E00E94A20664E0CE01DF91CF9183
:101F30000C94C30E64E090E080E00E94C30E65E064
:101F400090E080E00E94C30E66E090E080E00E9496
:101F5000C30E67E090E080E00E94C30E68E090E06E
:101F600080E00E94C30E69E090E080E00E94C30E12
:101F70006AE090E080E00E94C30E60E090E080E0C4
:101F80000E94C30E61E090E080E00E94C30E62E018
:101F900090E080E00E94C30EE2EBFCE082858D7F42
:101FA000828782858B7F82878285877F82878285F1
:101FB0008F7E828782858F7D828782858F7B8287D5
:101FC00082858F7782870895CF93DF93EC0180918C
:101FD000180C90E026E0959587952A95E1F7C817AB
:101FE000D90741F0209731F48091A10C9091A20C77
:101FF0000E94B30B6FE0CE01DF91CF910C94C30E22
:10200000CF93DF93EC018091180C90E024E095953C
:1020100087952A95E1F783708C171D0641F020976C
:1020200031F48091A10C9091A20C0E94B30B6EE050
:10203000CE01DF91CF910C94C30ECF93DF93EC01CF
:102040008091180C90E0959587959595879583706C
:102050008C171D0641F0209731F48091A10C9091CE
:10206000A20C0E94B30B6DE0CE01DF91CF910C94D6
:10207000C30ECF93DF93EC018091180C83708C1703
:102080001D0641F0209731F48091A10C9091A20C93
:102090000E94B30B6CE0CE01DF91CF910C94C30E84
:1020A0002091A10C3091A20C8091900C9091910CF8
:1020B0002817390709F0AEC00E942C428091A10C6C
:1020C0009091A20C0E94B30B8091A10C9091A20C54
:1020D000039799F49091A30C8091920C9813C0C02F
:1020E00090E080E00E94800F6091A30C8091A40C8E
:1020F0009091A50C70E00E94A2068091A10C909195
:10210000A20C0397B9F12091A40C3091A50C8091F9
:10211000930C9091940C2817390709F0A6C090E011
:1021200080E00E94800F6091A30C8091A40C90919C
:10213000A50C70E00E94A2069091A70C8091960CCD
:10214000981398C090E080E00E94490F8091A70CFE
:1021500090E00E9476069091A60C8091950C9813C1
:102160008EC090E080E00E94650F8091A60C90E008
:102170000E948C062091AA0C3091AB0C8091990C96
:1021800090919A0C2817390709F07EC090E080E002
:102190000E94160F8091AA0C9091AB0C0E945006E1
:1021A0002091A80C3091A90C8091970C9091980CDB
:1021B0002817390709F06DC090E080E00E942D0FCC
:1021C0008091A80C9091A90C0E9463062091AC0C00
:1021D0003091AD0C80919B0C90919C0C2817390785
:1021E00009F05CC090E080E00E94FA0E8091AC0C97
:1021F0009091AD0C0E942B069091AE0C80919D0C9D
:10220000981351C090E080E00E94DF0E8091AE0CE8
:102210000C940A068091A10C9091A20C892B29F4B0
:1022200081E090E00E9439104FCF8091A10C9091F5
:10223000A20C019729F481E090E00E941D1044CF88
:102240008091A10C9091A20C039729F481E090E079
:102250000E94001039CF81E090E00E94E40F34CF5B
:1022600081E090E00E94800F48CF81E090E00E94E2
:10227000800F62CF81E090E00E94490F6CCF81E037
:1022800090E00E94650F76CF81E090E00E94160FEB
:1022900087CF81E090E00E942D0F98CF81E090E001
:1022A0000E94FA0EA9CF81E090E00C94DF0ECF934C
:1022B000DF93909305028093040280919B03909199
:1022C0009C030197A9F08091A10C9091A20C0E940F
:1022D000B30BC0919B03D0919C030E94C744C230B2
:1022E000D10581F040F0C330D10571F0249771F031
:1022F000DF91CF91089560E182E090E0DF91CF918E
:102300000C94C30E61E1F8CF62E1F6CF63E1F4CF44
:10231000CF92DF92EF92FF920E948D076B017C01BA
:102320000E94CF0D8091300E90E0B0E0A0E0CC0C88
:10233000DD1CEE1CFF1CC80ED91EEA1EFB1E23EC82
:10234000C216D104E104F1042CF433ECC32ED12CD9
:10235000E12CF12C2BEFC216D104E104F1042CF096
:102360002AEFC22ED12CE12CF12C8C199D09AE093B
:10237000BF090196A11DB11D0397A105B10510F17B
:10238000C092300ED0920102C0920002B6018AE0E3
:102390000E942745A1E0BFEFA70196010E94D157F7
:1023A0002FEF30E040E050E00E94A457DA01C9016D
:1023B00081509F4FAF4FBF4FFF90EF90DF90CF9076
:1023C0000C945711FF90EF90DF90CF9008956CE040
:1023D00090E080E00E94C30E6DE090E080E00E94FB
:1023E000C30E6EE090E080E00E94C30E6FE090E0CC
:1023F00080E00E94C30E60E190E080E00E94C30E86
:1024000061E190E080E00E94C30E62E190E080E034
:102410000E94C30E63E190E080E00E94C30E0E9420
:10242000C74460E08CE00E942B4460E08BE00E9497
:102430002B440C94B744DC01ED91FC910684F785A4
:10244000E02D40E0199461E00E941B128BE39FE1B4
:102450000197F1F708950F931F93CF93DF93EC014A
:10246000423018F08C8188608C834F8368872223E8
:1024700029F0413019F48C8184608C8364E670E02B
:1024800080E090E00E9423466C8164FD50C0E881AA
:10249000F9810684F785E02D42E063E0CE011995CD
:1024A0000BE416E4C8010197F1F7E881F98106848D
:1024B000F785E02D42E063E0CE011995C801019750
:1024C000F1F7E881F9810684F785E02D42E063E0C9
:1024D000CE01199583E592E00197F1F7E881F98142
:1024E0000684F785E02D42E062E0CE0119956C810B
:1024F0006062CE010E941B1284E08D836CE0CE01ED
:102500000E941B12CE010E94231282E08E8366E09D
:10251000CE010E941B12E881F9810484F585E02D2B
:102520006FEFCE01DF91CF911F910F9119946062EF
:10253000CE010E941B128BE496E40197F1F76C81A7
:102540006062CE010E941B1283E592E00197F1F7D1
:102550006C816062CE010E941B12C9CF4F925F92C4
:102560006F927F928F929F92AF92BF92EF92FF9263
:102570000F931F93CF93DF93EC01062FF42EE22EDF
:102580008B85888B1092E6031092E5031092E80386
:102590001092E7030E94BA4988E190E49093EF0318
:1025A0008093EE0389E190E49093F1038093F0032C
:1025B00088E08093B80018890E94FE454B015C01B9
:1025C0008091F303811164C081E08093F3038093D1
:1025D000F5039FEF9093F2031092170410921604E4
:1025E0008093180480911804110F182B109318046D
:1025F0008091F403813009F09DC01092F4030E9491
:10260000FE454B015C01809118048093BB008091D2
:10261000EA039091EB03A091EC03B091ED03892BB9
:102620008A2B8B2BA1F00E94FE454090EA0350902C
:10263000EB036090EC037090ED03681979098A0947
:102640009B09461657066806790608F442C0809131
:10265000BC0083FDD8CF85EC8093BC000E94FE4572
:102660004B015C018091F303813009F465C08091D6
:102670001704811183C080911704E6EFF3E0A5EC05
:10268000B3E090E0981751F121912D939F5FFACF1D
:102690008091EA039091EB03A091EC03B091ED03DC
:1026A000892B8A2B8B2B09F48BCF0E94FE454090FF
:1026B000EA035090EB036090EC037090ED0368190F
:1026C00079098A099B09461657066806790608F0B3
:1026D00077CF8091E9030E94D84980E01092E60309
:1026E0008093E50391E0811101C090E0998B8DE525
:1026F00097E00E9429408E878989882339F01F86B8
:102700001C8260E0CE010E960E94C80B2E2D4F2D2C
:10271000602FCE01DF91CF911F910F91FF90EF902D
:10272000BF90AF909F908F907F906F905F904F90F1
:102730000C942B1285EE90CF8091EA039091EB03DD
:10274000A091EC03B091ED03892B8A2B8B2B09F41C
:1027500089CF0E94FE454090EA035090EB036090C1
:10276000EC037090ED03681979098A099B094616F4
:1027700057066806790608F075CFABCF81E07DCFAC
:10278000EF92FF920F931F93CF93DF938B0198E00B
:10279000899FB0011124606482EC9CE00E941B12AE
:1027A00083E790E00197F1F7E801085F1F4F8BE99D
:1027B000E82EF12C699182EC9CE00E94900AC701FE
:1027C0000197F1F70C171D07A9F7DF91CF911F9122
:1027D0000F91FF90EF90089561E087E10E94EB4434
:1027E00060E087E10E942B44FFCF61E08AE00E9415
:1027F000EB4461E082E00E94EB4461E083E00E94F0
:10280000EB4461E084E00E94EB4461E085E00E94DB
:10281000EB4461E086E00E94EB4461E087E00E94C7
:10282000EB4461E089E00E94EB4461E088E00E94B3
:10283000EB4461E08CE00E94EB4461E08BE00E949D
:10284000EB4461E08EE20E94EB4461E088E20E948A
:10285000EB4461E089E20E94EB4461E08AE20E947D
:10286000EB4461E08BE20E94EB4461E08CE20E9469
:10287000EB4461E081E30E94EB4461E083E30E946A
:10288000EB4461E084E30E94EB4461E085E30E9455
:10289000EB4461E08EE00E94EB4461E08FE00E9437
:1028A000EB4461E080E10E94EB4461E080E30E9440
:1028B000EB4461E086E20E942B4461E086E20E94E4
:1028C000EB4461E087E10E942B4460E087E10E94D5
:1028D000EB4461E088E10E94EB446DEC70E08AE03B
:1028E0000E94274560E082E00E942B4460E083E084
:1028F0000E942B4460E084E00E942B4460E085E06D
:102900000E942B4460E086E00E942B4460E087E058
:102910000E942B4460E089E00E942B4460E088E044
:102920000E942B4460E08CE00E942B4460E08BE02E
:102930000E942B4460E08EE20E942B4460E088E21B
:102940000E942B4460E089E20E942B4460E08AE20E
:102950000E942B4460E08BE20E942B4461E08CE2F9
:102960000E942B4460E081E30E942B4460E083E3FB
:102970000E942B4460E084E30E942B4460E085E3E6
:102980000E942B4460E080E30E942B4460E088E1D9
:102990000C942B4462E081E10E94EB4460E082E110
:1029A0000E94EB4460E083E10E94EB4462E081E13D
:1029B0000E94EB4462E081E20E94EB4462E080E22C
:1029C0000E94EB4462E08DE20E94EB4462E082E20E
:1029D0000E94EB4462E084E20E94EB4462E083E206
:1029E0000E94EB4462E087E20E94EB4462E085E2F1
:1029F0000E94EB4462E08FE20E94EB4462E086E1D9
:102A00000E94EB4462E084E40E94EB4462E085E4CF
:102A10000E94EB4462E083E40E94EB4460E086E3C2
:102A20000E94EB4460E087E30E94EB4460E081E4B5
:102A30000E94EB4460E08DE00C94EB440F93CF9345
:102A4000DF93FC01D62FC72F208131814281538132
:102A5000648175815F934F933F932F938681978114
:102A600000E20E9437585F934F933F932F938BEA76
:102A700092E09F938F93CF93DF930E947D588DB701
:102A80009EB70C960FB6F8949EBF0FBE8DBF8D2FCC
:102A90009C2FDF91CF910F910895CF93DF93EC019D
:102AA00044E550E060E270E00E9460581C8A19A67C
:102AB0001EAECD5ADF4F1882DF91CF910895EF926D
:102AC000FF920F931F93CF93DF93EC018FEF8883D7
:102AD00089838A838B831C821D821E821F821886B3
:102AE0007E0110E000E0C8010E943457F701819395
:102AF0007F010F5F1F4F09301105A9F7CE01DF914C
:102B0000CF911F910F91FF90EF900895FF920F9337
:102B10001F93CF93DF93EC01F62E08811981C80132
:102B20000E943457F81621F06F2DC8010E943C57BF
:102B3000CE01DF91CF911F910F91FF900895AF9239
:102B4000BF92CF92DF92EF92FF920F931F93CF939A
:102B5000DF931F921F92CDB7DEB78B016B0124E08C
:102B6000C20ED11C7B015C01A61AB70AC5018E0DED
:102B70009F1D9A838983F70161917F01CE010196A0
:102B80000E948615EC14FD0489F7C8010F900F9080
:102B9000DF91CF911F910F91FF90EF90DF90CF9039
:102BA000BF90AF9008953F924F925F926F927F9245
:102BB0008F929F92AF92BF92CF92DF92EF92FF924D
:102BC0000F931F93CF93DF93CDB7DEB7C051D140A2
:102BD0000FB6F894DEBF0FBECDBF382ECE018B5A94
:102BE0009F4F0E944D15BE016F5F7F4F85E190E0C2
:102BF0000E94370D89819A81AB81BC81C75FDE4F0E
:102C000088839983AA83BB83C950D140892B8A2B9F
:102C10008B2B09F43CC0332009F439C028E937E094
:102C200040E0552760E0CE018B5A9F4F0E94F6424C
:102C300027E837E040E0552761E0CE018B5A9F4FEF
:102C40000E94F64226E837E040E0552762E0CE01D8
:102C50008B5A9F4F0E94F64222E737E040E055270B
:102C600063E0CE018B5A9F4F0E94F642CE018B5AF1
:102C70009F4F0E943B430E944530882341F0C75F2D
:102C8000DE4F188219821A821B82C950D140BE01C0
:102C90006F5F7F4F81E190E00E94370D89819A81BB
:102CA000AB81BC81C35FDE4F88839983AA83BB83DA
:102CB000CD50D140892B8A2B8B2B09F43CC033207B
:102CC00009F439C024E637E040E0552760E0CE0142
:102CD0008B5A9F4F0E94F64223E537E040E055278C
:102CE00061E0CE018B5A9F4F0E94F64222E537E009
:102CF00040E0552762E0CE018B5A9F4F0E94F6427A
:102D00002EE337E040E0552763E0CE018B5A9F4F1A
:102D10000E94F642CE018B5A9F4F0E943B430E9475
:102D20004530882341F0C35FDE4F188219821A8232
:102D30001B82CD50D140CE0101960E944D152EE050
:102D400037E040E0552760E0CE0101960E94F64250
:102D500022E037E040E0552761E0CE0101960E9475
:102D6000F64224EF36E040E0552762E0CE010196BE
:102D70000E94F64223EF36E040E0552763E0CE01A3
:102D800001960E94F642CE0101960E943B434AEE14
:102D900056E060E077276E0129EAC20ED11CC60119
:102DA0000E945F4B0E9455462B013C01EE24E394A8
:102DB000F12C09E010E05E0181EFA80EB11C0E9429
:102DC00055466419750986099709693E734081055E
:102DD0009105C0F147018FEF881A980AFF92EF9290
:102DE000DF92CF92BF92AF920E947D5844E150E0B3
:102DF000B501CE0187529F4F0E946E58C351DF4FDD
:102E00001882CD5ED040CE0187529F4F0E94E14094
:102E100044E150E0BC01CE01805C9F4F0E946E589F
:102E200065961FAE6597CE0101960E943B430E94B6
:102E300055462B013C010F900F900F900F900F9073
:102E40000F90740160E0C8010E943C570F5F1F4F54
:102E5000011520E1120709F0B2CF332071F0BE0155
:102E6000675F7E4F85E190E00E949F15BE01635F22
:102E70007E4F81E190E00E949F158AEB9FE2ABE4D8
:102E8000B4E589839A83AB83BC83BE016F5F7F4FB8
:102E900089E090E00E949F158DE697E00E94C2486D
:102EA0008091830D811104C08EE197E00E942B4335
:102EB0006AE072E081E090E00E945D0D60E086E2F1
:102EC0000E942B4464E670E080E090E00E9423467C
:102ED00061E086E20E942B4468EC70E080E090E0C4
:102EE0000E94234610928807109287071092860747
:102EF0001092850710928407109283078FE190E06B
:102F000090938A07809389078091790796EF980FAD
:102F1000943048F02EEC280F243028F022EC280FB3
:102F2000283008F061C021E030E03093840720931E
:102F300083072DE130E030938607209385072DE04D
:102F400030E03093880720938707943050F02EECC0
:102F5000280F243030F022EC280FF0E0E0E0283099
:102F600010F4E8E6F0E02081943028F032EC380FDD
:102F7000383008F46FC031E0232B943048F09EECD9
:102F8000980F943028F08E53F0E0E0E0883010F491
:102F9000E8E6F0E020832091790736EF320F3430F5
:102FA00008F45AC08EEC820F843008F455C082ECCD
:102FB000820F883008F453C090E080E0909381073E
:102FC00080938007343008F04DC02650330B81E0E9
:102FD00001C0880F2A95EAF78093820780918907BC
:102FE00090918A070197F1F7809187079091880760
:102FF000892B21F180911F049091200427E08D36C8
:103000009207E1F0009711F00E94C24880918B076F
:103010008E7F80938B0710921D0410921E048DE604
:1030200097E09093200480931F04E0918007F09133
:103030008107808190918207892B80838DE697E0BC
:103040000E945C3F1816190614F58DE697E00E9461
:10305000743FF4CF34E090CF8BE690E0AFCF8DE6B5
:1030600090E0ACCF88E0223309F4B6CF84E023337C
:1030700009F4B2CF82E0243309F4AECF82EC820FA0
:10308000883018F42E53330BA2CF81E0A5CF05E092
:1030900010E06AE072E090E080E00E945D0D015077
:1030A0001109B9F762E370E080E090E00E942346E6
:1030B00066EB72E090E080E00E945D0D6BEB72E0E9
:1030C00085E390E00E945D0DC05FDE4F0FB6F8947F
:1030D000DEBF0FBECDBFDF91CF911F910F91FF904B
:1030E000EF90DF90CF90BF90AF909F908F907F90A8
:1030F0006F905F904F903F900895CF93DF93CDB73F
:10310000DEB7C455D1090FB6F894DEBF0FBECDBFF0
:103110001FB7F89480E00E94BD0E80E00E94B70EB9
:103120008091B40C8F7B8093B40C80E00E94B40E2D
:103130001FBF8091830D811104C087E194E00E943C
:103140002B430E94CA140E94F51381E090E09093F3
:103150009C0380939B030E94AF1D80E18093A1009C
:103160001092A00080E89EE39093A7008093A600B1
:1031700081E18093A10086E294E3909322048093FE
:10318000210481E0809372000E94AF1D0E94B74429
:103190000E94400761E090E080E00E94FB050E94F1
:1031A000A71B81E00E94D315CE0101960E944D1508
:1031B0000E947A1F26E034E040E0552760E0CE010F
:1031C00001960E94F6422DEF33E040E0552761E082
:1031D000CE0101960E94F6422CEF33E040E05527E5
:1031E00062E0CE0101960E94F64227EE33E040E015
:1031F000552763E0CE0101960E94F642CE0101966A
:103200000E943B4380919D0D90919E0D806890930C
:103210009E0D80939D0D0FB6F894A8958091600047
:10322000886180936000109260000FBE0E9445305C
:103230008823E1F30E94EC130FB607FE05C0A895A2
:103240000E94FE190E9434190FB607FE0AC00E94A0
:10325000610981110E94EC130E945E0981110E9494
:103260007D188BE00C9449091F93CF93DF93CDB762
:10327000DEB7C455D1090FB6F894DEBF0FBECDBF7F
:103280008091130381111BC081E0809313030E947E
:10329000292B8823F9F08091B40C8E7F8093B40C95
:1032A00084E5EBEDFCE0DE01119601900D928A952C
:1032B000E1F7CE0101960E945A2210921303CC5AD4
:1032C000DF4F0FB6F894DEBF0FBECDBFDF91CF91B9
:1032D0001F9108950E94BA0E8111EFCF0E941C1910
:1032E000882359F38091B30C877F8093B30C0E949D
:1032F0001809CE0101960E944D1523EA33E040E003
:10330000552760E0CE0101960E94F6422EE833E098
:1033100040E0552761E0CE0101960E94F64229E780
:1033200033E040E0552762E0CE0101960E94F6426C
:1033300024E633E040E0552763E0CE0101960E9489
:10334000F642CE0101960E943B430E94F208909300
:103350001E0380931D030E941D1F1FB7F8948091C8
:10336000B40C8D7F8093B40C8091B40C8B7F8093D0
:10337000B40C8091B40C877F8093B40C8091B40C12
:103380008F7E8093B40C81E00E94BD0E8091B40CBE
:103390008F7B8093B40C80E00E94B70E80E00E9487
:1033A000B40E1FBF109291001092950010929400DD
:1033B00080E180939100109213038091830D81111D
:1033C0007ECF87EB93E00E942B4379CF0FB607FEA9
:1033D00005C0A8950E94FE190E9434190FB607FE79
:1033E0000AC00E94610981110E94EC130E945E09CB
:1033F00081110E947D188CE00C9449091F93CF9392
:10340000DF93CDB7DEB7C455D1090FB6F894DEBF50
:103410000FBECDBF80911803882369F0109212036C
:10342000CC5ADF4F0FB6F894DEBF0FBECDBFDF9191
:10343000CF911F910895809112038111F1CF81E006
:10344000809312030E94292B882399F08091B40C59
:103450008E7F8093B40C84E5EBEDFCE0DE011196E9
:1034600001900D928A95E1F7CE0101960E945A22B1
:10347000D5CF0E94C00E8111D1CF0E94E6198823BA
:1034800069F28091B30C8F7E8093B30C0E9418096F
:10349000CE0101960E944D1527E233E040E055270A
:1034A00060E0CE0101960E94F64222E133E040E066
:1034B000552761E0CE0101960E94F6422DEF32E0E1
:1034C00040E0552762E0CE0101960E94F64228EEC8
:1034D00032E040E0552763E0CE0101960E94F642BB
:1034E000CE0101960E943B430E94F20890931E0376
:1034F00080931D030E941D1F1FB7F8948091B40C88
:1035000082608093B40C8091B40C8B7F8093B40C58
:103510008091B40C877F8093B40C8091B40C8F7E23
:103520008093B40C80E00E94BD0E8091B40C8F7B20
:103530008093B40C80E00E94B70E80E00E94B40E2D
:103540001FBF10929100109295001092940080E19C
:1035500080939100109212038091830D811160CFAE
:103560008CE393E00E942B435BCF0F93FC013297D7
:10357000E930F10578F48827EF53F54E8F4F0C941E
:103580001458DA1AD41AE01AE71AEE1AF51AFA1AC7
:103590001E1B3D1B6091A30C8091A40C9091A50C67
:1035A00070E00F910C94A2068091A60C90E00F9110
:1035B0000C948C068091A70C90E00F910C947606E9
:1035C0008091A80C9091A90C0F910C9463068091A6
:1035D000AA0C9091AB0C0F910C9450068091AC0CFE
:1035E0009091AD0C0F910C942B068091AE0C0F9125
:1035F0000C940A060FB607FE05C0A8950E94FE1996
:103600000E9434190FB607FE0AC00E946109811199
:103610000E94EC130E945E0981110E947D1888E5CA
:103620000E94490900E0282F42E050E070E060E08D
:1036300080E790E00E9469050F9108950FB607FE9C
:1036400005C0A8950E94FE190E9434190FB607FE06
:1036500008C00E9461098111DBCF0E945E098111BF
:10366000DCCF89E50E94490900E0282F42E050E0C4
:1036700070E060E080E890E0DDCF0FB607FE05C0A7
:10368000A8950E94FE190E9434190FB607FE08C0C3
:103690000E9461098111BCCF0E945E098111BDCFDA
:1036A0008AE50E944909682F90E080E00F910C9410
:1036B000FB050F931F93009157031091580320911E
:1036C000590330915A03DC01CB01801B910BA20BF3
:1036D000B30B20910902222369F04497A105B1059B
:1036E00030F0CA010E94FA0681E0809356031F91D0
:1036F0000F9108950697A105B105C8F3CA010E946C
:10370000B51AF2CF0F931F930091520310915303F8
:103710002091540330915503E0910802EE2371F09B
:10372000601771078207930731F0CA010E94FA06F9
:1037300081E0809351031F910F91089560177107E5
:1037400082079307C1F3CA010E94B51AF1CF0FB6E1
:1037500007FE05C0A8950E94FE190E9434190FB6F5
:1037600007FE0AC00E94610981110E94EC130E94A9
:103770005E0981110E947D1881E50E944909882314
:1037800031F063E070E090E080E00E94C9060FB67F
:1037900007FE05C0A8950E94FE190E9434190FB6B5
:1037A00007FE08C00E9461098111DFCF0E945E09F7
:1037B0008111E0CF82E50E944909882331F062E05F
:1037C00070E080E290E00E94C9060FB607FE05C0D7
:1037D000A8950E94FE190E9434190FB607FE08C072
:1037E0000E9461098111C1CF0E945E098111C2CF7F
:1037F00083E50E944909882331F061E070E088E1A7
:1038000090E00E94C9060FB607FE05C0A8950E9469
:10381000FE190E9434190FB607FE08C00E94610904
:103820008111A3CF0E945E098111A4CF84E50E947B
:103830004909882331F062E070E080E390E00E9463
:10384000C9060FB607FE05C0A8950E94FE190E9482
:1038500034190FB607FE08C00E946109811185CF97
:103860000E945E09811186CF85E50E94490988235F
:1038700031F062E070E080E490E00E94C9060FB68B
:1038800007FE05C0A8950E94FE190E9434190FB6C4
:1038900007FE08C00E946109811167CF0E945E097E
:1038A000811168CF86E50E944909882331F062E0E2
:1038B00070E080E590E00E94C9060FB607FE05C0E3
:1038C000A8950E94FE190E9434190FB607FE08C081
:1038D0000E946109811149CF0E945E0981114ACF7E
:1038E00087E50E944909882331F062E070E080E6B4
:1038F00090E00E94C906289880913C03882381F0BB
:103900009FB7F89480913C038130B1F58DB38093DB
:103910003B032DB380913A03809582238DBB9FBFDB
:1039200080E78CBD81E08DBDEDE3F3E09081818186
:1039300032960CB405FC23C08EBD00000DB407FE0A
:10394000FDCF8EB59EBD00000DB407FEFDCF8EB538
:1039500083E0E135F80751F780913C03882351F06B
:103960009FB7F89420913C0380913B03213099F458
:103970008DBB9FBF289A089590933B03D1CF9EBDE6
:1039800000000DB407FEFDCF9EB58EBD00000DB446
:1039900007FEFDCFDCCF8FBFEDCF0FB607FE05C012
:1039A000A8950E94FE190E9434190FB607FE0AC09E
:1039B0000E94610981110E94EC130E945E0981112D
:1039C0000E947D1885E60C9449090FB607FE05C0D4
:1039D000A8950E94FE190E9434190FB607FE0AC06E
:1039E0000E94610981110E94EC130E945E098111FD
:1039F0000E947D1880E60C9449090FB607FE05C0A9
:103A0000A8950E94FE190E9434190FB607FE0AC03D
:103A10000E94610981110E94EC130E945E098111CC
:103A20000E947D188FE50C9449090FB607FE05C06A
:103A3000A8950E94FE190E9434190FB607FE0AC00D
:103A40000E94610981110E94EC130E945E0981119C
:103A50000E947D188BE50C9449090FB607FE05C03E
:103A6000A8950E94FE190E9434190FB607FE0AC0DD
:103A70000E94610981110E94EC130E945E0981116C
:103A80000E947D188BE40C94490980919B039091CE
:103A90009C03039711F00C942D1D81E008950FB63F
:103AA00007FE05C0A8950E94FE190E9434190FB6A2
:103AB00007FE0AC00E94610981110E94EC130E9456
:103AC0005E0981110E947D1883E40C9449090FB6A8
:103AD00007FE05C0A8950E94FE190E9434190FB672
:103AE00007FE0AC00E94610981110E94EC130E9426
:103AF0005E0981110E947D188EE30C944909CF93D1
:103B0000C82F0E94671D882379F06BED72E0CC23EB
:103B100011F062EC72E080E290E00E945D0D6FE3D4
:103B20008C2FCF910C94DF04CF910895E9E0FCE055
:103B300010821182128213821482158216821782D9
:103B400010861186128613861092080C10921F039D
:103B50008091310E8093030280E00C947F1D1F93AF
:103B6000CF93DF9300D000D01F921F92CDB7DEB766
:103B70000E948E0E0E9418090E94E7118091040293
:103B8000909105020E945711289A1FB7F8948091CE
:103B90001503811127C0E3E4F9E08491E3EEF8E036
:103BA0009491E82FF0E0EE0FFF1FEE5FF74FA59125
:103BB000B491EC91E92321F461E085E30E942B4468
:103BC00061E085E30E94EB448CB580618CBD8CB5CF
:103BD00080648CBD61E084E30E94EB4461E083E398
:103BE0000E94EB44809115038F5F809315031FBFE4
:103BF0008FB7F89492E090933C038FBF0E949A0F86
:103C000060910002709101027093010260930002C2
:103C10008AE00E94274568EE73E080E090E00E9411
:103C2000234620E044E064E182EC9CE00E94AE1276
:103C300050E040E063E082EC9CE00E947C0A61E09E
:103C400082EC9CE00E941E0D6091C70C862F846060
:103C50008093C70C6C6082EC9CE00E941B12609108
:103C6000C70C6D7F6093C70C686082EC9CE00E947B
:103C70001B1282EC9CE00E9423124AE654E060E0B2
:103C8000772728E030E0CE0101960E94554BBE0117
:103C90006F5F7F4F80E00E94C01342E654E060E017
:103CA000772728E030E0CE0101960E94554BBE01F7
:103CB0006F5F7F4F81E00E94C0134AE554E060E0EF
:103CC000772728E030E0CE0101960E94554BBE01D7
:103CD0006F5F7F4F82E00E94C01342E554E060E0D6
:103CE000772728E030E0CE0101960E94554BBE01B7
:103CF0006F5F7F4F83E00E94C0134AE454E060E0AE
:103D0000772728E030E0CE0101960E94554BBE0196
:103D10006F5F7F4F84E00E94C01342E454E060E094
:103D2000772728E030E0CE0101960E94554BBE0176
:103D30006F5F7F4F85E00E94C0134AE354E060E06C
:103D4000772728E030E0CE0101960E94554BBE0156
:103D50006F5F7F4F86E00E94C01342E354E060E053
:103D6000772728E030E0CE0101960E94554BBE0136
:103D70006F5F7F4F87E00E94C0131092090C109272
:103D80000A0C10920B0C10920C0C10920D0C10924D
:103D90000E0C10920F0C1092100C1092110C10922D
:103DA000120C1092130C1092140C1092080C0E941A
:103DB000961D0E94CF0D8DEC8093300E8DEC90E01F
:103DC00090930102809300026DEC70E08AE00E9403
:103DD00027458091300E90E00E9457110E94E71114
:103DE0000E9440070E94A71B82EC9CE00E942312C5
:103DF0008AE090E0A0E0B0E080938F03909390037E
:103E0000A0939103B093920310929D0310929E038E
:103E100010929F031092A0038091B90C8F7D809324
:103E2000B90C90E080E028960FB6F894DEBF0FBE84
:103E3000CDBFDF91CF911F910895CF93DF930E9463
:103E40005546E9E0FCE080EF9FEFAFEFBFEF8083E6
:103E50009183A283B38384839583A683B78380876A
:103E60009187A287B3871092080C10921F03C2EBB0
:103E7000DCE08E818F7E8E838E818F7D8E830E948B
:103E80000D088E818F7B8E830E940D088E818F7727
:103E90008E830E940D0888EC8093030281E0DF91FD
:103EA000CF910C947F1D0E945546E9E0FCE08FE025
:103EB00090E0ACE0B0E880839183A283B3838FE08D
:103EC00090E0ACE0B0E084839583A683B7838FEF66
:103ED00090E0ACE0B0E080879187A287B387109232
:103EE000080C10921F038091310E8093030280E032
:103EF0000C947F1D0E945546E9E0FCE080EC9FEFAA
:103F0000DC0180839183A283B38384839583A6831A
:103F1000B78380879187A287B3871092080C10928D
:103F20001F03E2EBFCE086818F7E868386818F7D96
:103F300086830E940D088091320E8093030281E0F7
:103F40000C947F1D8230910591F028F4009759F070
:103F5000019759F0089584309105E9F1D0F1059762
:103F600009F472C008950C94961D0C94531F0E947E
:103F700055468091B80C8F7E8093B80C8FE090E00E
:103F8000A0E0B0EF8093090C90930A0CA0930B0C67
:103F9000B0930C0C8FE090E0A0E0B0E080930D0CAB
:103FA00090930E0CA0930F0CB093100C8093110CF7
:103FB0009093120CA093130CB093140C1092080C55
:103FC00010921F038091310E8093030280E00C94C5
:103FD0007F1D0C947A1F0E9455468CEF9CEFDC01EC
:103FE0008093090C90930A0CA0930B0CB0930C0CCB
:103FF00080930D0C90930E0CA0930F0CB093100CAB
:104000008093110C9093120CA093130CB093140C8A
:104010001092080C10921F038091B80C8F7E809331
:10402000B80C8091B80C8F7D8093B80C0E940D085D
:104030008091B80C8F7B8093B80C0E940D0888EC9F
:104040008093030281E0C3CF0C941D1F2F923F92F7
:104050004F925F926F927F928F929F92AF92BF9298
:10406000CF92DF92EF92FF920F931F93CF93DF9344
:10407000CDB7DEB7CC54D1090FB6F894DEBF0FBE72
:10408000CDBF0E94671D882341F08DE697E00E9416
:104090005C3F892BE1F480916703C45BDF4F0FB66F
:1040A000F894DEBF0FBECDBFDF91CF911F910F916E
:1040B000FF90EF90DF90CF90BF90AF909F908F9048
:1040C0007F906F905F904F903F902F9008958DE676
:1040D00097E00E94743F9C0180916703882309F454
:1040E00040C02C333105C9F68091830D811104C085
:1040F00084E996E00E94C6408091830D811104C03E
:104100008CE390E00E94DC4280911B0C90911C0C8F
:10411000A0911D0CB0911E0C8093630390936403D7
:10412000A0936503B0936603109267038091BA0C65
:104130008B7F8093BA0C6EE081E00E948049809171
:10414000B30C8B7F8093B30C8091830D90916703A8
:104150009111CDC081119FCF87E596E00E942B433E
:104160009ACF2D33310509F098CF8091830D8111BD
:1041700004C08BE696E00E94C6408091830D8111B9
:1041800004C08DE390E00E94DC4280911B0C2A96D3
:104190008FAF2A9790911C0C2B969FAF2B978091F5
:1041A0001D0C2C968FAF2C9790911E0C2D969FAFC7
:1041B0002D9781E0809367036EE080E00E94804944
:1041C0008091BA0C84608093BA0C8091B30C8B7F81
:1041D0008093B30C6AE072E090E080E00E945D0D95
:1041E0006AE072E090E080E00E945D0D6AE072E0BB
:1041F00090E080E00E945D0D0E9455466B017C01BD
:104200000E9408494090190450901A0460901B04C1
:1042100070901C049201A30160E070E080E090E0E7
:1042200000E20E941C5856016701E12CF12C00E0CD
:1042300010E00E9452585F934F933F932F9300E2F8
:104240000E9437585F934F933F932F9384EC92E0F3
:104250009F938F938E010F5F1F4F1F930F930E94A9
:104260007D58B80184E090E00E945D0DB80184E0C3
:1042700090E00E945D0D62E370E080E090E00E94BB
:104280002346F0906303E0906403D0906503C090F0
:10429000660345E356E060E07727C8010E945F4B64
:1042A0002D968FAD2D978F932C969FAD2C979F9326
:1042B0002B968FAD2B978F932A969FAD2A979F931E
:1042C000CF92DF92EF92FF921F930F93005D1F4FEB
:1042D0001F930F930E947D58B80186E390E00E94DF
:1042E0005D0D0FB6F894DEBF0FBECDBF2DCF81118F
:1042F000D2CE8FE396E032CFAF92BF92CF92DF92D1
:10430000EF92FF920F931F93CF93DF93CDB7DEB75A
:10431000C057D1090FB6F894DEBF0FBECDBF8C01D8
:104320000FB607FE05C0A8950E94FE190E94341919
:104330000FB607FE0AC00E94610981110E94EC13AA
:104340000E945E0981110E947D1881E60E94490940
:1043500081119AC08091BD0C84608093BD0C69E08E
:1043600080E00E94804980919B0390919C0302977A
:1043700009F08AC0C80105962AE0C22ED12CB601E8
:104380000E945A57CB0161E02AE0AC01249FC00192
:10439000259F900D11240E94FB050E94A71B1093DE
:1043A000D90B0093D80B81E08093E80B0091480C67
:1043B0001091490CB090540CA090550C0E942620EE
:1043C000882309F461C040E256E060E077277E016F
:1043D00081E4E80EF11CC7010E945F4B30E020E051
:1043E000000F111F221F331F8091E80B882309F44F
:1043F0005DC08091D80B9091D90B0596B6010E94B3
:104400005A57F62FD72E8091E70B4FEFEFEF882307
:1044100059F08091D60B9091D70B05966AE070E029
:104420000E945A57462FE72F8091E60B6FEF7FEFE0
:10443000882349F08091D40B9091D50B05966AE0C2
:1044400070E00E945A571F921F923F932F931F9321
:104450000F93AF92BF92DF92FF93EF934F937F93AF
:104460006F93FF92EF928E010F5F1F4F1F930F9379
:104470000E947D58B80186E190E00E945D0D0FB664
:10448000F894DEBF0FBECDBFC059DF4F0FB6F89412
:10449000DEBF0FBECDBFDF91CF911F910F91FF9077
:1044A000EF90DF90CF90BF90AF900895FFEFDD24A5
:1044B000DA94A9CF5F926F927F928F929F92AF9280
:1044C000BF92CF92DF92EF92FF920F931F93CF9301
:1044D000DF93D82FC92FA8950E94C00E8823C9F05A
:1044E00084E5ED2FFC2FABEDBCE001900D928A9599
:1044F000E1F7DF91CF911F910F91FF90EF90DF9047
:10450000CF90BF90AF909F908F907F906F905F9073
:1045100008950E94BA0E8111E3CF0E944F1D582EBC
:104520000E94671D882319F080E00E94B60D84E583
:10453000EFE2FDE0ABEDBCE001900D928A95E1F772
:104540000D2F1C2F8BEDC82E8CE0D82E9FE2E92E6C
:104550009DE0F92E612C5801D0E0C0E0F50171908A
:104560005F01872D072C000C990B887F9927883FC6
:10457000910509F04AC0F72DF7707F2E0E94C00EFA
:104580008823A1F14601F401EC0FFD1F872D886FF0
:10459000782E70822196C431D10501F7B801862D9D
:1045A0000E947A4163940B5E1F4FE5E1CE0ED11C51
:1045B000F5E1EF0EF11C84E06812CDCF0E94671D7B
:1045C000882309F496CF81E08525DF91CF911F9153
:1045D0000F91FF90EF90DF90CF90BF90AF909F90A2
:1045E0008F907F906F905F900C94B60D0E94BA0EE2
:1045F0008111C8CF4701662D8C2F0E943441672D51
:1046000082EC9CE00E94900ABECF0E94C00E8823DC
:1046100029F04601F401EC0FFD1FBBCF0E94BA0E3A
:104620008111F7CF4701662D8C2F0E943441672DF1
:1046300082EC9CE00E94900AEDCF0FB607FE05C009
:10464000A8950E94FE190E9434190FB607FE0AC0F1
:104650000E94610981110E94EC130E945E09811180
:104660000E947D188DE30C9449090FB607FE05C022
:10467000A8950E94FE190E9434190FB607FE0AC0C1
:104680000E94610981110E94EC130E945E09811150
:104690000E947D188CE30C9449090FB607FE05C0F3
:1046A000A8950E94FE190E9434190FB607FE0AC091
:1046B0000E94610981110E94EC130E945E09811120
:1046C0000E947D188BE30C944909CF93C82F0E9458
:1046D0001D23811126C10E944D23811166C00E94B5
:1046E00055468091BD0C877F8093BD0C8091BD0C99
:1046F00080618093BD0C8091BD0C8F7D8093BD0C3B
:104700008091BD0C8F7B8093BD0C8091BD0C8F7709
:104710008093BD0C8FEF9FEFDC0180932C0390936F
:104720002D03A0932E03B0932F0381E090E0A0E02F
:10473000B0E08093280390932903A0932A03B093B9
:104740002B0380E190E0A0E0B0E0809324039093FD
:104750002503A0932603B09327030E94CF0D8091D9
:10476000B90C88608093B90C0E9450108091B20CF3
:104770008D7F8093B20C1092170310921603E09174
:104780001603F0911703E830F10508F0CAC0882736
:10479000E353FC4D8F4F0C941458362460246E2440
:1047A000672475247C2483248A24809116039091A5
:1047B0001703CC2379F1009751F101972091A10CB7
:1047C0003091A20C2330310541F49C012250310973
:1047D0002230310510F481E090E02091A10C30915D
:1047E000A20C232B39F02091A10C3091A20C213086
:1047F000310541F49C01265031092230310510F475
:1048000085E090E09093170380931603B8CF87E07C
:1048100090E0D4CF8730910531F101962091A10C21
:104820003091A20C2330310541F49C012250310912
:104830002230310510F484E090E02091A10C3091F9
:10484000A20C232B39F02091A10C3091A20C213025
:104850003105C1F69C01265031092230310590F610
:1048600090E080E0CFCF90E080E0D8CF0E94501061
:104870000E942C428091A10C9091A20C892B29F4CA
:1048800082E090E0CF910C9439108091A10C90912E
:10489000A20C019729F482E090E0CF910C941D10B6
:1048A0008091A10C9091A20C039729F482E090E0F2
:1048B000CF910C94001082E090E0CF910C94E40F23
:1048C0000E94501082E090E0CF910C94800F0E94E3
:1048D000501082E090E0CF910C94650F0E94501030
:1048E00082E090E0CF910C94490F0E94501082E03A
:1048F00090E0CF910C942D0F0E94501082E090E038
:10490000CF910C94160F0E94501082E090E0CF914E
:104910000C94FA0E0E94501082E090E0CF910C941B
:10492000DF0ECF910895CF93C82F0E941D238111D0
:10493000DCC10E94451D8111D8C10E944D23811107
:1049400004C081E0CF910C946523E0911603F091AF
:104950001703CC2309F4B6C0E830F105D0F488275A
:10496000EB54FB4D8F4F0C941458BD24E9240625BD
:10497000DF2410254A25282540256091A10C70913F
:10498000A20C84E597E00E9444499093A20C809386
:10499000A10CE0911603F0911703E830F10508F03F
:1049A000A4C18827E952FB4D8F4F0C941458D3258E
:1049B0004A265A265426602667266E2616266091B9
:1049C000A60C70E08FE397E00E9463498093A60CE9
:1049D000E0CF8091A10C9091A20C039751F46091CB
:1049E000A30C70E08CE197E00E9463498093A30CD4
:1049F000D0CF6091A40C7091A50C8DE497E00E943B
:104A000063499093A50C8093A40CC3CF6091A70C2D
:104A100070E086E497E00E9463498093A70CB9CFC9
:104A20008091A80C9091A90C6AE070E00E945A57FE
:104A300088E397E00E9463492AE0AC01249FC0010B
:104A4000259F900D11249093A90C8093A80CA1CFC1
:104A50008091AC0C9091AD0C6AE070E00E945A57C6
:104A60008AE297E00E9463492AE0AC01249FC001DA
:104A7000259F900D11249093AD0C8093AC0C89CFA1
:104A80006091AE0C70E083E297E00E9463498093EE
:104A9000AE0C7FCF8091AA0C9091AB0C6AE070E0D5
:104AA0000E945A5781E397E00E9463492AE0AC01D3
:104AB000249FC001259F900D11249093AB0C8093EF
:104AC000AA0C67CFE830F10508F063CF8827E459D6
:104AD000FA4D8F4F0C941458742585259C257D25FF
:104AE000A425C625B125BE256091A10C7091A20C0C
:104AF00084E597E00E94634948CF6091A60C70E07E
:104B00008FE397E00E94444961CF8091A10C90917E
:104B1000A20C039741F46091A30C70E08CE197E044
:104B20000E94444963CF6091A40C7091A50C8DE460
:104B300097E00E94444965CF6091A70C70E086E43D
:104B400097E00E94444969CF8091A80C9091A90CEC
:104B50006AE070E00E945A5788E397E00E94444957
:104B60006BCF8091AC0C9091AD0C6AE070E00E942C
:104B70005A578AE297E00E94444976CF6091AE0C82
:104B800070E083E297E00E94444981CF8091AA0CB3
:104B90009091AB0C6AE070E00E945A5781E397E075
:104BA0000E94444983CF0E942C428091A10C909195
:104BB000A20C0E94B30B8091A10C9091A20C892BA6
:104BC000D1F582E090E00E94391080919B0C909189
:104BD0009C0C9093AD0C8093AC0C80919D0C8093B9
:104BE000AE0C6091A30C8091A40C9091A50C70E088
:104BF0000E94A2068091A60C90E00E948C068091F3
:104C0000A70C90E00E9476068091A80C9091A90CC8
:104C10000E9463068091AA0C9091AB0C0E945006F2
:104C20008091AC0C9091AD0C0E942B068091AE0C43
:104C3000CF910C940A068091A10C9091A20C01973F
:104C400089F480919B0C90919C0C9093AD0C809377
:104C5000AC0C80919D0C8093AE0C82E090E00E94A1
:104C60001D10BFCF8091A10C9091A20C039769F405
:104C700082E090E00E9400108091950C8093A60C39
:104C80008091960C8093A70CACCF82E090E00E94BC
:104C9000E40FA7CF6091A30C8091A40C9091A50C78
:104CA00070E0CF910C94A2068091A60C90E0CF9179
:104CB0000C948C068091A70C90E0CF910C94760612
:104CC0008091A80C9091A90CCF910C9463068091CF
:104CD000AA0C9091AB0CCF910C9450068091AC0C27
:104CE0009091AD0CCF910C942B06CF9108950FB6F7
:104CF00007FE05C0A8950E94FE190E9434190FB640
:104D000007FE0AC00E94610981110E94EC130E94F3
:104D10005E0981110E947D188AE30C944909CF93A2
:104D2000C82F0E9477268111C0E00FB607FE05C08C
:104D3000A8950E94FE190E9434190FB607FE0AC0FA
:104D40000E94610981110E94EC130E945E09811189
:104D50000E947D1889E30E944909C817E1F0CC231D
:104D600071F0811118C08091B90C82608093B90CE8
:104D70006091030270E08EE2CF910C942745882366
:104D800051F08091B90C8D7F8093B90C60E08EE278
:104D9000CF910C942B44CF9108950FB607FE05C018
:104DA000A8950E94FE190E9434190FB607FE0AC08A
:104DB0000E94610981110E94EC130E945E09811119
:104DC0000E947D1888E30C9449090FB607FE05C0C0
:104DD000A8950E94FE190E9434190FB607FE0AC05A
:104DE0000E94610981110E94EC130E945E098111E9
:104DF0000E947D1887E30C9449090FB607FE05C091
:104E0000A8950E94FE190E9434190FB607FE0AC029
:104E10000E94610981110E94EC130E945E098111B8
:104E20000E947D1886E30C9449090FB607FE05C061
:104E3000A8950E94FE190E9434190FB607FE0AC0F9
:104E40000E94610981110E94EC130E945E09811188
:104E50000E947D1885E30C9449090FB607FE05C032
:104E6000A8950E94FE190E9434190FB607FE0AC0C9
:104E70000E94610981110E94EC130E945E09811158
:104E80000E947D1884E30C944909CF930E94CD1CA5
:104E9000811183C080911F038F5F823021F0809346
:104EA0001F03CF91089510921F038091080C803248
:104EB00090F58091080C2FE130E0281B310980919A
:104EC000090C90910A0CA0910B0CB0910C0C04C031
:104ED000B695A795979587952A95D2F7C82FC17053
:104EE0008091080C8F5F8093080C8091080C8036AD
:104EF00019F480E28093080C0E942D27882369F121
:104F00000E94A208882349F181E091E089278C233F
:104F1000CF910C948F268091080C803478F4809186
:104F2000080C2FE330E0281B310980910D0C909183
:104F30000E0CA0910F0CB091100CC9CF8091080CF1
:104F40002FE530E0281B31098091110C9091120C53
:104F5000A091130CB091140CBACF0E94152788238E
:104F600021F00E94CA088111CFCF0E94FD2688231C
:104F700021F00E9478088111C7CF0E94E52688237E
:104F800021F00E944E088111BFCF0E94CD268823B8
:104F900009F4BBCF0E942408B8CF80E0B9CF0FB688
:104FA00007FE05C0A8950E94FE190E9434190FB68D
:104FB00007FE0AC00E94610981110E94EC130E9441
:104FC0005E0981110E947D188BE20C9449090FB68D
:104FD00007FE05C0A8950E94FE190E9434190FB65D
:104FE00007FE0AC00E94610981110E94EC130E9411
:104FF0005E0981110E947D1884E20C944909CF92C8
:10500000DF92EF92FF92C0909D03D0909E03E090BC
:105010009F03F090A0038091190C8370823009F0F7
:105020007CC142E050E0C701B6010E944D0B809167
:10503000190C90E0959587959595879583708230AA
:1050400009F078C143E050E0C701B6010E944D0B62
:105050008091190C90E0E4E095958795EA95E1F749
:105060008370823009F078C144E050E0C701B60196
:105070000E944D0B8091190C90E066E09595879504
:105080006A95E1F7029709F07AC145E050E0C7015F
:10509000B6010E944D0B8091180C8370823009F08C
:1050A00080C146E050E0C701B6010E944D0B8091DF
:1050B000180C90E09595879595958795837082302B
:1050C00009F07CC147E050E0C701B6010E944D0BDA
:1050D0008091180C90E024E0959587952A95E1F74A
:1050E0008370823009F07CC149E050E0C701B6010D
:1050F0000E944D0B8091180C90E0A6E09595879545
:10510000AA95E1F7029709F07EC148E050E0C70197
:10511000B6010E944D0B80913503882381F0C09227
:105120003603D0923703E0923803F092390380912E
:10513000070291E08927809307021092350380913E
:105140003003882381F0C0923103D0923203E09281
:105150003303F09234038091060291E08927809313
:105160000602109230030E94E727882309F45DC1EC
:105170008091150C882309F462C1C0909D03D090E2
:105180009E03E0909F03F090A0038091160C837023
:10519000813009F462C108F45BC1823009F464C152
:1051A0008091160C90E095958795959587958370DD
:1051B000813009F465C108F45EC1823009F467C129
:1051C0008091160C90E074E0959587957A95E1F7BB
:1051D0008370813009F467C108F460C1823009F43A
:1051E00069C18091160C90E066E0959587956A9567
:1051F000E1F78130910509F464C18230910509F429
:1052000067C1892B21F484E090E00E94B51A809157
:10521000170C8370813009F467C108F460C18230D3
:1052200009F469C18091170C90E095958795959543
:1052300087958370813009F46AC108F463C18230B4
:1052400009F46CC18091170C90E044E09595879526
:105250004A95E1F78370813009F46CC108F465C1A7
:10526000823009F46EC18091150C8370813009F48D
:1052700074C108F46DC1823009F476C18091150CB7
:1052800090E095958795959587958370813009F481
:1052900077C108F470C1823009F479C18091150C8E
:1052A00090E024E0959587952A95E1F78370813009
:1052B00009F479C108F472C1823009F47BC180918C
:1052C0005103882381F0C0925203D0925303E0929D
:1052D0005403F09255038091080291E0892780934E
:1052E00008021092510380915603882381F0C092E6
:1052F0005703D0925803E0925903F0925A038091D9
:10530000090291E089278093090210925603FF90C9
:10531000EF90DF90CF900C94A71B8091190C8370B5
:10532000813009F084CE42E050E0C701B6010E940E
:10533000750B7DCE8091190C90E09595879595958C
:1053400087958370813009F083CE43E050E0C70138
:10535000B6010E94750B7CCE8091190C90E074E030
:10536000959587957A95E1F78370813009F082CE23
:1053700044E050E0C701B6010E94750B7BCE8091DE
:10538000190C90E056E0959587955A95E1F70197AD
:1053900009F081CE45E050E0C701B6010E94750BCF
:1053A0007ACE8091180C8370813009F080CE46E06F
:1053B00050E0C701B6010E94750B79CE8091180CA0
:1053C00090E095958795959587958370813009F044
:1053D0007FCE47E050E0C701B6010E94750B78CE42
:1053E0008091180C90E0B4E095958795BA95E1F717
:1053F0008370813009F07ECE49E050E0C701B601EC
:105400000E94750B77CE8091180C90E0F6E0959590
:105410008795FA95E1F7019709F07DCE48E050E0D5
:10542000C701B6010E94750B76CE0E94730A8823CD
:1054300009F49ECEFF90EF90DF90CF900895809179
:10544000160C81119ACE8091170C882399F395CE72
:1054500081E090E00E94B51AA3CE41E050E0C70180
:10546000B6010E94591B9CCE41E050E0C701B60135
:105470000E94821B95CE83E090E00E94B51AA0CED8
:1054800043E050E0C701B6010E94591B99CE43E0AA
:1054900050E0C701B6010E94821B92CE82E090E0EC
:1054A0000E94B51A9ECE42E050E0C701B6010E94AC
:1054B000591B97CE42E050E0C701B6010E94821B03
:1054C00090CE44E050E0C701B6010E94591B9FCE28
:1054D00044E050E0C701B6010E94821B98CE85E0EF
:1054E00090E00E94B51A9ECE45E050E0C701B6019B
:1054F0000E94591B97CE45E050E0C701B6010E94BB
:10550000821B90CE86E090E00E94B51A9BCE46E0CA
:1055100050E0C701B6010E94591B94CE46E050E00E
:10552000C701B6010E94821B8DCE87E090E00E94E9
:10553000B51A99CE47E050E0C701B6010E94591B49
:1055400092CE47E050E0C701B6010E94821B8BCE8D
:1055500088E090E00E94B51A91CE48E050E0C70183
:10556000B6010E94591B8ACE48E050E0C701B6013F
:105570000E94821B83CE89E090E00E94B51A8ECEF5
:1055800049E050E0C701B6010E94591B87CE49E0AF
:1055900050E0C701B6010E94821B80CE8AE090E0F5
:1055A0000E94B51A8CCE4AE050E0C701B6010E94B5
:1055B000591B85CE4AE050E0C701B6010E94821B0C
:1055C0007ECE0FB607FE05C0A8950E94FE190E9468
:1055D00034190FB607FE0AC00E94610981110E94AA
:1055E000EC130E945E0981110E947D188FE10C94DA
:1055F00049090FB607FE05C0A8950E94FE190E9432
:1056000034190FB607FE0AC00E94610981110E9479
:10561000EC130E945E0981110E947D188EE10C94AA
:1056200049090FB607FE05C0A8950E94FE190E9401
:1056300034190FB607FE0AC00E94610981110E9449
:10564000EC130E945E0981110E947D188DE10C947B
:1056500049090FB607FE05C0A8950E94FE190E94D1
:1056600034190FB607FE0AC00E94610981110E9419
:10567000EC130E945E0981110E947D1880E10C9458
:1056800049090FB607FE05C0A8950E94FE190E94A1
:1056900034190FB607FE0AC00E94610981110E94E9
:1056A000EC130E945E0981110E947D188DE00C941C
:1056B00049090FB607FE05C0A8950E94FE190E9471
:1056C00034190FB607FE0AC00E94610981110E94B9
:1056D000EC130E945E0981110E947D1889E00C94F0
:1056E00049094F925F926F927F928F929F92AF92F1
:1056F000BF92CF92DF92EF92FF920F931F93CF93BF
:10570000DF931F921F92CDB7DEB70E94412B8823F3
:10571000B1F00FEF1FEFC8010F900F90DF91CF9105
:105720001F910F91FF90EF90DF90CF90BF90AF90BF
:105730009F908F907F906F905F904F90089560E161
:1057400080E00E9480490E9455464B015C01C09058
:105750001903D0901A03E0901B03F0901C030E94E1
:10576000412B8111D6CF240135014C185D086E08FC
:105770007F0816B190E080E00E943C092091060C61
:105780003091070C14FD1EC021603093070C20934C
:10579000060C811112C08092190390921A03A092F4
:1057A0001B03B0921C03DD24D39401E210E088ECCB
:1057B000481651046104710490F4DD24D3940FEF72
:1057C0001FEF0DC02E7F3093070C2093060CD12CB9
:1057D0000FEF1FEFA1E2EA2EF12C811103C0EE249E
:1057E000EA94FE2CC090090182E090E00E943C09FE
:1057F0002091060C3091070CC4FC19C02460309332
:10580000070C2093060CD39481113FC0809219039A
:1058100090921A03A0921B03B0921C03E8EC4E1660
:1058200051046104710468F00DE210E00AC02B7F9E
:105830003093070C2093060C882319F0EDE2EE2E2E
:10584000F12CC6B087E090E00E943C092091060C44
:105850003091070CC0FC41C020683093070C2093A6
:10586000060CD394811143C08092190390921A03BD
:10587000A0921B03B0921C0388EC481651046104EB
:105880007104A8F105E210E032C0FCED4F16F5E01E
:105890005F0661047104A8F20E94CD1C65E691E0E8
:1058A00089270E94DF048091830D811104C08CED53
:1058B00094E00E94C6408091830D811105C00E9432
:1058C000CD1C90E00E94DC428092190390921A0352
:1058D000A0921B03B0921C03B4CF2F773093070C18
:1058E0002093060C882319F075E2E72EF12CC09066
:1058F000090188E090E00E943C092091060C30915B
:10590000070CC2FC19C031603093070C2093060CC1
:10591000D39481111BC08092190390921A03A09214
:105920001B03B0921C03E8EC4E1651046104710491
:1059300068F00FE210E00AC03E7F3093070C20931E
:10594000060C882319F06FE2E62EF12CC6B083E036
:1059500090E00E943C092091060C3091070CC3FC9A
:1059600019C028603093070C2093060CD394811142
:105970001BC08092190390921A03A0921B03B0924D
:105980001C03F8EC4F1651046104710468F002E244
:1059900010E00AC0277F3093070C2093060C882361
:1059A00019F052E2E52EF12CC6B084E090E00E949E
:1059B0003C092091060C3091070CC1FC19C02061F4
:1059C0003093070C2093060CD39481111BC0809256
:1059D000190390921A03A0921B03B0921C0388EC47
:1059E000481651046104710468F004E210E00AC032
:1059F0002F7E3093070C2093060C882319F044E285
:105A0000E42EF12CC6B085E090E00E943C09209184
:105A1000060C3091070CC2FC19C020623093070CB1
:105A20002093060CD39481111BC08092190390928D
:105A30001A03A0921B03B0921C03E8EC4E1651040B
:105A40006104710468F003E210E00AC02F7D309316
:105A5000070C2093060C882319F033E2E32EF12C77
:105A6000C2B286E090E00E943C092091060C309181
:105A7000070CC2FC19C020643093070C2093060C5D
:105A8000D39481111BC08092190390921A03A092A3
:105A90001B03B0921C03F8EC4F165104610471040F
:105AA00068F007E210E00AC02F7B3093070C2093C8
:105AB000060C882319F027E2E22EF12CC6B081E013
:105AC00090E00E943C092091060C3091070CC5FC27
:105AD00019C022603093070C2093060CD3948111D7
